:100000000C9429020C949F1C0C94CC1C0C9451024F
:100010000C9451020C9451020C9451020C94510214
:100020000C9451020C9451020C9451020C94510204
:100030000C9451020C9479020C9451020C945102CC
:100040000C94F91C0C9451020C945A1F0C94A81F88
:100050000C9451020C9451020C9451020C945102D4
:100060000C9451020C945102507265737320276DE9
:100070002720746F207374617274204D454E552093
:10008000696E2031302073656300464C415348202F
:100090004552524F522121212043616E277420770F
:1000A0006F726B21004572726F72207265616420FD
:1000B00073657474696E6773210053657474696E37
:1000C000677320726573657420746F206465666160
:1000D000756C7473210046486E3A204D696E20415C
:1000E0007672204D617800546F20456E74657220E1
:1000F0004D454E5520507265737320454E54455200
:1001000000547970652052656720616E64207072BA
:1001100065737320454E5445522C207479706520C8
:1001200056616C756520616E642070726573732012
:10013000454E5445522028713D517569743B2073DA
:10014000732F736C2F73613D537461742900526770
:100150003D56616C2009436F6D6D656E7473202D83
:100160002D2D2D2D2D2D2D2D2D2D2D2D2D2D2D2DBF
:100170002D2D2D2D2D2D004578656375746520720C
:100180006562696E643F2041726520796F752073E6
:1001900075726528792F6E293F000A0D42617963D7
:1001A000686920736F6674203230313300525820F2
:1001B0004F70656E20457870657274205632204607
:1001C0000046536E20496E4653202044726F707370
:1001D0003A312020203220202033202020342020BB
:1001E00020352020203620202037202020382020B5
:1001F00000525353493A312020203220202033200E
:100200002020342020203520202036202020372098
:10021000202038204E6F6973653A3120202032202B
:10022000202033202020342020203520202036207C
:10023000202037202020380042696E64204E00467E
:1002400072657120436F727200536572766F203150
:1002500035302520737472656368206E756D2028B3
:10026000312D313229005374617469737469637379
:1002700020656E61626C650031316269742F3130C6
:1002800063682028313D7965732C20323D467574B2
:1002900061626129004469736372657465206F75DA
:1002A0007470757473206D61736B00486F702046B5
:1002B0003100486F7020463200486F70204633008E
:1002C000486F7020463400486F7020463500486FF4
:1002D0007020463600486F7020463700486F702007
:1002E000463800426561636F6E20462028323535FE
:1002F0003D64697361626C652900426561636F6E7C
:1003000020506D617820286D5774293A20302D31A6
:100310002E323B20312D323B20322D333B20332DEA
:10032000363B20342D31323B20352D32353B2036C3
:100330002D35303B20372D31303000426561636F01
:100340006E2073746172742074696D652028736502
:1003500063290053415720466D696E005341572071
:10036000466D61780050504D2F53425553206D6FAC
:100370006465203173742050574D2063686E6C2083
:1003800028312D3829205B345D00525353492074A5
:100390007970653A20736F756E642830292F6C650B
:1003A00076656C28312D39393D61766572616765F6
:1003B000290052535349206D6F64653A206C65766D
:1003C000656C2830292F534E20726174696F283173
:1003D000290052535349206F7665722050574D289B
:1003E0006368616E3A312D31322920302D6E6F7481
:1003F000207573650000000000240027002A00001B
:10040000000000250028002B00000000002300262B
:100410000029000404040404040404020202020289
:1004200002030303030303010204081020408001B8
:100430000204081020010204081020000000070038
:10044000020100000304060000000000000000009C
:10045000142111241FBECFEFD8E0DEBFCDBF13E0C3
:10046000A0E0B1E0E4E1FAE402C005900D92A23010
:10047000B107D9F714E0A2E0B3E001C01D92AB3A96
:10048000B107E1F714E0C2E5D4E004C02297FE0111
:100490000E940425C035D107C9F70E946A210C9437
:1004A00008250C940000FC0188279927E8942191E5
:1004B0002032E9F3293010F02E30C8F32B3241F00E
:1004C0002D3239F4689404C00E947102820F911D8C
:1004D000219120532A30C0F31EF4909581959F4FAF
:1004E00008957AE0979F902D879F802D910D11247C
:1004F00008951F920F920FB60F9211242F933F93DE
:100500004F935F938F939F93AF93BF93EF93FF931B
:1005100080918400909185008097D0F385B190916F
:100520004002892385B988B190914102892388B915
:100530008BB19091420289238BB980912203882349
:1005400009F47BC08091EE038F5F8093EE0390915E
:100550003D02981730F41092130310921203109278
:10056000EE034091EE034917B1F42091120330914C
:100570001303E0910B02F0910C02CF0180579741D9
:100580002817390718F020E737E145C0CF01821B53
:10059000930B9C0140C0A42F50912003523011F0C6
:1005A000E42F04C0E0918902E40FE150FF27E7FD4A
:1005B000F095EE0FFF1FEB5DFD4F208131818091A3
:1005C000120390911303820F931F90931303809350
:1005D0001203552369F0513049F44C5F8091890230
:1005E000A42FA81B4450A3301CF415C0A42FAD5F4A
:1005F000AA3088F4BB27A7FDB095FD01EE0FFF1FC1
:10060000ED5BFD4F0190F081E02D8081A95ABD4F37
:100610009C91892B808380912003813091F44B3011
:1006200080F45F9A8091840090918500845F91406E
:10063000C8F3275F31405F9804C020910B023091CE
:100640000C0280910B0290910C02821B930B9093F1
:10065000850080938400FF91EF91BF91AF919F91AE
:100660008F915F914F913F912F910F900FBE0F90FF
:100670001F901895CF93DF9380917302882379F1AF
:10068000C3E4D2E020E030E0482F50E0CA01022E5F
:1006900002C0959587950A94E2F780FF1AC0888179
:1006A00099818832910511F4E1E005C08B9711F42E
:1006B000E2E001C0E0E0F0E0E05CFD4FD901AF59BD
:1006C000BD4F80819C91892B8083F901E95AFD4FB0
:1006D00010822F5F3F4F229628303105B9F6DF9107
:1006E000CF9108956F927F928F929F92AF92BF9217
:1006F000CF92DF92EF92FF920F931F93CF93DF93EE
:10070000EC0120917002822F6AE00E949224892ECF
:100710008A94822F0E949224982E9A947091720249
:10072000723009F49AC09F858D853E010DE012E07C
:10073000E0E0F0E0C82EDD24A2E0AA2EB12CE92EE4
:10074000FF24D30112968C91482F50E0440F551F7F
:10075000440F551F6E2FE83028F52E2F898190E029
:100760000E2E02C0959587950A94E2F780FD54609D
:10077000673061F0C501022E02C0880F991F0A94EC
:10078000E2F78E219F21892B09F042607723C1F186
:10079000C60102C0959587952A95E2F780FF30C083
:1007A00041602EC0440F551F772351F1E83039F4D2
:1007B0008C8590E087709070482B592B21C0E930D0
:1007C00019F040E050E01CC08C8590E023E0959546
:1007D00087952A95E1F79C0127703070422B532BA7
:1007E00095958795959587958270907020911B02BD
:1007F00030911C02822B932B90931C0280931B023E
:10080000681511F06915C1F4CA01805094409C012B
:1008100035952795280F391FBBEF20353B0714F47A
:1008200020E53BEFC90124E0813B920714F080EB07
:1008300094E0AC0140505C4F4854584FD8014D9360
:100840005D938D0131960894611C711CEC30F105AB
:1008500009F077CF3F85317066C0DE01E7E9F3E04C
:1008600011968C9111978193119623E0E53AF20746
:10087000B9F7FDE0EF2EF2E0FF2E11E001E0B0E06D
:1008800048C0660F771FFE01E00FF11D808190E0E8
:10089000212F30E082239323892B11F0462B572BF5
:1008A000103819F40F5F11E001C0110FAF5FAB30CA
:1008B00041F7B81511F0B915C1F4CA018050944040
:1008C0009C0135952795280F391F7BEF2035370779
:1008D00014F420E53BEFC901A4E0213B3A0714F0F2
:1008E00080EB94E0AC0140505C4FCA01880F991F27
:1008F000880F991F840F951F9595879595958795D6
:100900008052994FF701819391937F01BF5FBA3075
:1009100031F040E050E0A0E061E070E0B4CFC00F03
:10092000D11D3881307880917302882389F1A3E446
:10093000B2E041E652E02DE0E22E22E0F22E61E04C
:10094000082F10E0862F90E080239123892B99F0C7
:10095000E70188819981ED91FC911197EA01288145
:10096000895B9B4020F08081822B808304C0808142
:1009700020952823208312964F5F5F4F82E090E0FE
:10098000E80EF91E92E0A335B90711F0660FDACF31
:10099000832FDF91CF911F910F91FF90EF90DF9008
:1009A000CF90BF90AF909F908F907F906F90089561
:1009B0009C01809172028230E1F4F90190E05CE8E0
:1009C000B901615F7F4F8181982740E0892F90E0D6
:1009D0009C013595279580FF03C0952F922701C074
:1009E000922F4F5F483091F73196E617F70759F786
:1009F0001BC0F90190E05CE8B901635F7F4F828121
:100A0000982740E0892F90E09C013595279580FF3D
:100A100003C0952F922701C0922F4F5F483091F766
:100A20003196E617F70759F7892F08955C9A42988F
:100A30005C9898E010C087FF07C042980000419A78
:100A40000000429A000006C0429800004198000051
:100A5000429A0000880F915070F7429808958F775E
:100A60000E9416050895429898E010C087FF07C0BD
:100A700042980000419A0000429A000006C0429845
:100A8000000041980000429A0000880F915070F7D2
:100A9000429808951F93162F80680E941605812F93
:100AA0000E9433055C9A1F9108951F938091210342
:100AB0008F5F80932103883010F010922103E09122
:100AC0002103F0E0EC58FD4F108189E7612F0E946F
:100AD0004A0580918702181738F0809188028117A3
:100AE00018F08EE064E002C08EE060E00E944A05EB
:100AF0001F910895429880E090E0880F429A00008C
:100B000030998160429800009F5F9830B1F7089556
:100B10000E942F050E947A055C9A089583E00E9446
:100B200088058093A50384E00E9488058093A6032E
:100B300086E060E00E944A0587E061E00E944A0585
:100B400060916F02662311F089E002C089E067ECD2
:100B50000E944A058AE065E00E944A058BE062E156
:100B60000E944A058CE065E10E944A058DE06AE03A
:100B70000E944A058EE060E00E944A058FE163E032
:100B80000E944A058EE16AE00E944A0582E160E621
:100B90000E944A0583E168EF0E944A058FE060E801
:100BA0000E944A058DE160E40E944A058CE166E2FC
:100BB0000E944A0580E264E40E944A0581E260E006
:100BC0000E944A0582E262EF0E944A0583E26CE7D6
:100BD0000E944A0584E266E00E944A0585E26DE7CC
:100BE0000E944A058AE26EE10E944A0580E36CEAAF
:100BF0000E944A0582E36CE80E944A0583E36AE0AA
:100C00000E944A0584E364E00E944A0585E362E2AB
:100C10000E944A0586E36DE20E944A0587E364ED7F
:100C20000E944A0588E360E00E944A0589E360E08B
:100C30000E944A058EE360E10E944A058DE66FE05E
:100C40000E944A058EE66CE30E944A058FE66FE932
:100C50000E944A0589E660E60E944A0580E76EE246
:100C60000E944A0589E760E00E944A058AE766E03B
:100C70000E944A0581E763E20E944A0582E76EE02E
:100C80000E944A0585E763E50E944A0586E76CE411
:100C90000E944A0587E760EE0E944A05089587E0B2
:100CA00061E00E944A058EE764E20E944A0588E0FE
:100CB00063E00E944A0588E060E00E944A0587E000
:100CC00065E00E944A0585E062E00E944A0583E0F3
:100CD0000E9488058093A50384E00E948805809384
:100CE000A603089583E00E9488058093A50384E00D
:100CF0000E9488058093A60387E061E00E944A0570
:100D00000895482F8091E4039091E503481721F45A
:100D10009C5E9093E50308952091E6033091E703EC
:100D2000290F311D3093E7032093E60301C0789427
:100D30008091840090918500B901681B790B623223
:100D40007105A8F7F8948091840090918500281788
:100D50003907C9F7442311F05D9801C05D9A4093AB
:100D6000E40384E18093E5030895EF92FF920F93EB
:100D70001F93CF93DF93E82E80E00E948106FF242B
:100D8000F39410E000E0CE2DD0E08F2D90E08C2386
:100D90009D23892B29F081E00E9481060F5F03C00B
:100DA00080E00E9481061F5F183011F0FF0CEDCF2C
:100DB000802F81700E94810681E00E94810681E07F
:100DC0000E948106DF91CF911F910F91FF90EF90CC
:100DD0000895DF92EF92FF920F931F93CF93DF93CB
:100DE00080912003823009F079C08FE08093CB039B
:100DF00090913C03992311F018E001C010E010938A
:100E0000E2031092E303809172028230A1F49923ED
:100E100091F4E7E9F3E0ACECB3E081918D9383E0EA
:100E2000E53AF807D1F71091A4031F737EE0D72E9F
:100E300000E44AE004C0DD24D39401E040E0809166
:100E40009203E82EFF2463E0EE0CFF1C6A95E1F7A5
:100E5000C0911E03D0911F0353E0CC0FDD1F5A95A4
:100E6000E1F74C30A0F4E42FF0E0EE0FFF1FEB5D54
:100E7000FD4F80819181805E9640880F991F880F79
:100E8000991F65E070E00E949E24CB0107C04D30A1
:100E900011F4C70103C04E3019F4CE0120E00AC09E
:100EA0004F3019F480E096E0F9CF80E090E0F6CF83
:100EB0009695879580FD102B003849F4ED2DF0E0D4
:100EC000E553FC4F1083D39410E001E001C0000F04
:100ED0002F5F2B3069F74F5F403118F2DF91CF91D0
:100EE0001F910F91FF90EF90DF90089520E030E088
:100EF000F894F901EB5DFD4FD901A35FBD4F8D91D2
:100F00009C919183808378942E5F3F4F28313105E7
:100F100079F7E0918602EE23A1F0F894F0E0EE0F6D
:100F2000FF1FED5DFD4F80911E0390911F038650C2
:100F30009F4FA3E0880F991FAA95E1F791838083C3
:100F4000789481E0809322030E94E90608950F932C
:100F50001F93CF93DF938091C6038093AB0390914F
:100F600052039093AC0380913C03882321F4809139
:100F70002203882319F490689093AC0310925203D3
:100F80000FE313E023E533E0CDEAD3E0F90138962F
:100F9000D8016D917C916115710511F441E001C09A
:100FA000462FD9018C91888380819181642F70E0D4
:100FB0000E949E24688780899189642F70E00E9436
:100FC0009E24688BD9011D929D0111821082118A85
:100FD000108AD8011D921D928D0121963296B3E0A0
:100FE0000F341B07A9F61092C503DF91CF911F9113
:100FF0000F9108950F931F93CF93DF930DE012E0AD
:10100000C0E4D0E0F80141818FEE93E0BE010E9480
:10101000701C21968FEE93E0BE01F80140810E9482
:10102000701C0E5F1F4F2196F2E005321F0751F72B
:10103000DF91CF911F910F910895462FBC016F5EF4
:101040007F4F8FEE93E00E94701C0895DF92EF9225
:10105000FF920F931F938C01D62E472F8FEEE82E11
:1010600083E0F82EC701B8010E94701C0F5F1F4F6C
:10107000C701B8014D2D0E94701C1F910F91FF9068
:10108000EF90DF900895EF92FF920F931F93CF930D
:10109000DF930DE612E0EE24FF24C0E0D0E0CE01A5
:1010A000F80160810E941D08F80181918F01E80E0E
:1010B000F11C2196C730D10591F7C4E7D2E00BE0CF
:1010C00010E0C80168810E941D088991E80EF11C9A
:1010D0000F5F1F4FF2E0CC37DF0799F7CCE7D2E084
:1010E00003E110E0C80168810E941D088991E80EA3
:1010F000F11C0F5F1F4F82E0C238D80799F789E1D2
:1011000090E0609187020E941D0880918702E701AC
:10111000C80FD11D8AE190E0609188020E941D08ED
:1011200080918802C80FD11D8CE190E06091890206
:101130000E941D0880918902C80FD11D04E812E0A9
:1011400098E2E92EF12CC701F80160810E941D0888
:10115000F80181918F01C80FD11D0894E11CF11C89
:10116000F2E007381F0779F78AE090E0BE010E949D
:101170002608DF91CF911F910F91FF90EF90089576
:10118000AF92BF92CF92DF92EF92FF921F93CF93D5
:10119000DF934DE0C42E42E0D42E30E4E32EF12C58
:1011A00028EBA22E2BE0B22E8FEE93E0B7010E9427
:1011B000691C182FB7016F5F7F4F8FEE93E00E947D
:1011C000691CD12FC0E09E01280F311DC901F60115
:1011D000318320838C5697408959984018F0F60146
:1011E000B182A08222E030E0E20EF31EC20ED31ED6
:1011F00038E5E316F104C1F6DF91CF911F91FF901E
:10120000EF90DF90CF90BF90AF900895BC016F5EDC
:101210007F4F8FEE93E00E94691C0895DF92EF925A
:10122000FF920F931F938C015FEEE52E53E0F52E96
:10123000C701B8010E94691CD82E0F5F1F4FC7015C
:10124000B8010E94691C3D2D20E0280F311DC90105
:101250001F910F91FF90EF90DF9008950F931F93D0
:10126000CF93DF9300E010E0C0E0D0E0CE010E9419
:101270000609FE01E359FD4F8083080F111D2196D9
:10128000C730D10599F7CBE0D0E0CE010E94060926
:10129000FE01E759FD4F8083080F111D2196C331D0
:1012A000D10599F7C3E1D0E0CE010E940609FE0105
:1012B000E759FD4F8083080F111D2196C931D105D3
:1012C00099F780917D02883008F05BC0863008F085
:1012D00059C0823010F491E002C091E0891B8093E4
:1012E0007E02981708F4891B80937F021092800277
:1012F00089E190E00E94060980938702080F111D82
:101300008AE190E00E94060980938802080F111D6F
:101310008CE190E00E940609982F8150883020F4DB
:1013200090938902090F111DC8E2D0E0CE010E94FE
:101330000609FE01E45AFD4F8083080F111D219616
:10134000CB32D10599F78AE290E00E94060980939A
:10135000860281508C3010F01092860280918602B5
:10136000080F111D8AE090E00E940E0920E080170E
:10137000910709F421E0822FDF91CF911F910F9106
:10138000089587E092E0AACF0F931F93CF93DF9346
:1013900020910A02222379F1E0E0F0E000E010E081
:1013A0008491080F111D319680E4E030F807C1F7F1
:1013B000922F80E020910902EC01C20FD11D86E03E
:1013C00090E00E940E09C817D90761F086E090E00E
:1013D000BE010E94260888E090E0B8010E9426081D
:1013E00081E00AC088E090E00E940E098017910712
:1013F00011F08FEF01C080E0DF91CF911F910F912D
:1014000008950F931F93CF93DF93E2E0F0E081E222
:10141000809357008491843931F488EF91E0909360
:101420006A02809369028FEE93E06CE070E00E94A4
:10143000691C082F10E010936C0200936B028FEE72
:1014400093E06DE070E00E94691C382F20E0200FCF
:10145000311F30936C0220936B022835310538F030
:101460008091690290916A0228173907C0F088E5D7
:1014700090E090936C0280936B028FEE93E06CE0AF
:1014800070E048E50E94701C40916C028FEE93E082
:101490006DE070E00E94701C1092C60316C0C90176
:1014A000CE976AE170E00E949E24882331F0281BC9
:1014B000310930936C0220936B028FEE93E06EE063
:1014C00070E00E94691C8093C6038091C6038F5F01
:1014D0008093C603843610F01092C603A3E5B3E0F0
:1014E000FD013896CFE3D3E01D9211821082118A5C
:1014F000108A19921992329683E0AB35B807A1F79A
:10150000109252038AE18093C50310925003109207
:101510004F030E94411D6093C7037093C8038093DB
:10152000C9039093CA03DF91CF911F910F91089542
:1015300080913E03813019F482E080933E038091D4
:101540003E03833069F484E080933E030E94411D92
:101550006093930370939403809395039093960301
:10156000089580912003823011F0E0E015C00E94C0
:101570004F1DE0E02091A7033091A8034091A903FB
:101580005091AA03621B730B840B950B6356794130
:101590008040904008F0E1E08E2F0895EF92FF9296
:1015A0000F931F9380917102882309F496C00E94C3
:1015B000B10A882309F091C08AC0F0E060916B0203
:1015C00070916C026E0F7F1FE555FC4F8FEE93E01C
:1015D00040810E94701C8091C5038F5F8093C5037A
:1015E0008A3109F04CC080916B0290916C024A964E
:1015F00090936C0280936B022091690230916A0291
:1016000082179307E0F188E590E090936C02809355
:101610006B0235C0EA3139F440916C028FEE93E0F1
:101620006DE070E008C0EB3171F48FEE93E06CE098
:1016300070E040916B020E94701C8091C5038F5F27
:101640008093C5031CC0EC31D1F48DE18093C503B8
:1016500080914F0390915003892B41F48FEE93E0DA
:101660006EE070E04091C6030E94701C80914F03B1
:101670009091500301969093500380934F032091D3
:101680002303309124034091250350912603809138
:10169000C7039091C803A091C903B091CA0379010F
:1016A0008A01E81AF90A0A0B1B0BD801C7018056F8
:1016B0009A4EA040B04088F02093C7033093C803EF
:1016C0004093C9035093CA030E94A70706C0E09144
:1016D000C503EA3108F09ECF70CF1F910F91FF90A4
:1016E000EF9008950F931F93CF93DF938091200382
:1016F000823009F057C080912203882309F452C038
:101700000E944F1DAB01BC018091A7039091A803DB
:10171000A091A903B091AA038A019B01081B190B90
:101720002A0B3B0BD901C80183569941A040B04018
:10173000C8F1209184003091850080910B02909136
:101740000C028F5F98418217930760F11EC0809151
:10175000E20384608093E2031092E4031092E503B5
:10176000F89480918400909185009093E703809392
:10177000E6035D9ACBECD3E089910E94B50623E0A5
:10178000C43ED207C9F778940DC04093A703509385
:10179000A8036093A9037093AA0380913D03882353
:1017A000B1F6DACFDF91CF911F910F910895EF92AB
:1017B000FF920F931F938C010E944F1D780100E050
:1017C00010E0E60EF71E081F191F02C00E94720BE0
:1017D0000E944F1D6E157F0580079107B8F31F917A
:1017E0000F91FF90EF900895EF92FF920F931F9348
:1017F000CF93DF937B01142F9C01442737FD409545
:10180000542F60E271EA87E090E00E94E724E9014A
:101810002530310514F4C5E0D0E0177018608DE66E
:10182000612F0E944A052D9A61E070E080E090E00F
:101830000E94751D2D98A895B701882777FD809582
:10184000982F20E930ED43E050E00E9473249E0180
:10185000442737FD4095542F0E94E724790100E08A
:1018600010E00AC0419ACE010E94D70B4198CE01E8
:101870000E94D70B0F5F1F4F0E151F0598F3DF91C6
:10188000CF911F910F91FF90EF90089583E00E94F8
:1018900088058093A50384E00E9488058093A603B1
:1018A00086E060E00E944A0587E061E00E944A0508
:1018B00089E060913F020E944A058AE065E00E944B
:1018C0004A058BE062E10E944A058CE065E10E94D6
:1018D0004A058DE06AE00E944A058EE060E00E94C1
:1018E0004A0580E76CE20E944A0580E360E00E94BE
:1018F0004A0589E760917C020E944A058AE766E012
:101900000E944A0581E762E10E944A0582E762E09F
:101910000E944A0583E760E00E944A0584E760E090
:101920000E944A058EE060E00E944A0560917D02B7
:10193000677068608DE60E944A056AE070E080E0AA
:1019400090E00E94751D87E069E00E944A0588EBDF
:1019500091E061E070E040917D020E94F40B8DE522
:1019600091E061E070E040917E020E94F40B85E01E
:1019700091E061E070E040917F020E94F40B8FEAF9
:1019800090E061E070E0409180020E94F40B87E0FB
:1019900061E00E944A0508950E94720662E370E0C9
:1019A00080E090E00E94751D0E944F06000008959F
:1019B000CF92DF92EF92FF920F931F93CF93DF931B
:1019C000982FEB01D42EC22EA89589E7692F0E948B
:1019D0004A05CC2021F08DE160E40E944A050E9476
:1019E000CC0C0E94411D7B018C01CE01A0E0B0E037
:1019F000E80EF91E0A1F1B1F83E080933E0307C0F9
:101A00000E94411DE616F7060807190720F080918D
:101A10003E038330A9F380913E03843009F07AC0FD
:101A20008FE70E942F05C2E0D3E00E947A058993D8
:101A300083E0C231D807C9F70E944F068091E803BE
:101A4000882329F0CE0140970E94D8043EC0FE01B1
:101A50003E9790E05CE88081982740E0892F90E0F5
:101A60009C013595279580FF03C0952F922701C0D3
:101A7000922F4F5F483091F7319683E0E131F807BC
:101A800051F7992321F48091720281701CC03E9716
:101A900090E05CE88081982740E0892F90E09C01ED
:101AA0003595279580FF03C0952F922701C0922F6F
:101AB0004F5F483091F7319683E0E231F80751F7F4
:101AC000992341F582E08093720281E08093E803DC
:101AD000DD2021F080910203D816E1F4CC20C1F082
:101AE0008BE20E9488052091EA033091EB03482F96
:101AF00050E0813810F020503140240F351F3093D2
:101B0000EB032093EA038091E9038F5F8093E9035D
:101B100081E001C080E0DF91CF911F910F91FF9094
:101B2000EF90DF90CF9008951F9380916F028823EC
:101B300009F054C085E894E00E946A20181619063E
:101B40000CF04CC085E894E00E949B208D309105FC
:101B500091F48091820280936F0280933F020E94F1
:101B6000430885E894E060E071E00E942B230E9426
:101B70008E0581E034C08E33910531F08E329105AF
:101B800019F08E3E910521F4809182028F5F0CC086
:101B90008C33910531F08C32910519F0813A910521
:101BA000E9F48091820281508093820280918202C6
:101BB000882319F48FEF809382021091820289E0CA
:101BC000612F0E944A0585E894E0612F4AE050E0C9
:101BD0000E9498228091820280933F0280E01F91B0
:101BE000089585E894E00E946A201816190614F0FA
:101BF00020E00CC085E894E00E949B208D36910582
:101C000021F020E08D34910509F421E0822F089520
:101C1000FF920F931F938091230390912403A0912F
:101C20002503B091260320918E0330918F034091BC
:101C3000900350919103821B930BA40BB50B449717
:101C4000A105B10508F446C085E894E00E946A2029
:101C5000082F10E0FF24F3943BC085E894E00E9435
:101C60009B20982F80918B03882359F4963179F526
:101C700090937B03F0928B0310928D03109283025A
:101C800026C0E82FF0E0E558FC4F90838F5F8093EB
:101C90008B038031E0F010928B038BE793E00E947E
:101CA000D8048823A1F48091230390912403A09168
:101CB0002503B091260380938E0390938F03A09306
:101CC0009003B093910381E080938D0303C01F5F65
:101CD00010171CF21F910F91FF9008951F93182F5A
:101CE00006C085E894E060E20E94D42011501123E0
:101CF000C1F71F9108951F93182F8A3020F482E0B6
:101D00000E946E0E07C0843628F485E894E060E2F5
:101D10000E94D42085E894E0612F4AE050E00E94C0
:101D2000862285E894E060E20E94D4201F91089505
:101D3000CF93DF9385E894E067E071E00E94282369
:101D4000C8E5D0E012C08FEE93E0BE014FEF0E94D5
:101D5000701CCE018F779070892B29F485E894E070
:101D60006EE20E94D420A8952196809169029091FC
:101D70006A02C817D90738F388E590E090936C029F
:101D800080936B021092C6038FEE93E06CE070E0DC
:101D900048E50E94701C40916C028FEE93E06DE06C
:101DA00070E00E94701C8FEE93E06EE070E0409156
:101DB000C6030E94701C0E94010A85E894E063E259
:101DC00071E00E942B23DF91CF9108951F93CF9351
:101DD000DF93EC01162FFE0121966491662329F012
:101DE00085E894E00E94D420F6CF112321F085E805
:101DF00094E00E94A921DF91CF911F9108958AE973
:101E000091E061E00E94E60E8DEA91E060E00E94C0
:101E1000E60E85E894E0609109024AE050E00E94F5
:101E2000982208959F92AF92BF92CF92DF92EF9245
:101E3000FF920F931F93CF93DF93833719F020E026
:101E4000833509F421E0A22E8C3619F090E08C3411
:101E500009F491E0B92E843619F09924843411F4F0
:101E600099249394222331F4992311F4AA24A3945E
:101E7000BB24B39485E894E069E271E00E942823D2
:101E800085E894E068E570E04AE050E00E94F622C0
:101E900085E894E06AE371E00E942823609169027A
:101EA00070916A0285E894E04AE050E00E9458226E
:101EB00085E894E06CE371E00E94282360916B0256
:101EC00070916C0285E894E04AE050E00E9469223B
:101ED00085E894E064E471E00E942823AA2029F0B8
:101EE00081EC91E060E00E94E60EBB2031F081EFD2
:101EF00091E061E00E94E60E04C085E894E00E9453
:101F0000A921C0916B02D0916C02CC24FF248E01D8
:101F10000F5F1F4F8FEE93E0BE010E94691CD82E09
:101F200084E68D1520F4992011F46A9675C0DF10AF
:101F3000CC248D2D0E947B0EC3948C2D0E947B0E91
:101F4000AA2069F178010894E11CF11C8FEE93E05E
:101F5000B8010E94691C182F8F770E947B0E85E8BC
:101F600094E060E20E94D420812F881F8827881F78
:101F70000E947B0E85E00E946E0EB7012A968B01AF
:101F80000F5F1F4F8FEE93E00E94691C0E947B0E33
:101F9000B8010C171D0799F7E701289602C0E80160
:101FA0002996BB2091F183E00E946E0EAA2029F0B1
:101FB00085E894E060E20E94D420BE018E01085FB3
:101FC0001F4F7B010894E11CF11C8FEE93E00E94EF
:101FD000691C0E947B0EE016F10611F0B701F1CFEB
:101FE00084E00E946E0EB80160968B010F5F1F4F58
:101FF0008FEE93E00E94691C0E947B0EB8010C17C3
:102000001D0799F7E701289601C0609685E894E0DE
:102010000E94A921A895FD2C8091690290916A02E5
:10202000C817D90710F0C8E5D0E080916B029091F5
:102030006C02C817D90709F06ACFDF91CF911F91C1
:102040000F91FF90EF90DF90CF90BF90AF909F9057
:102050000895FF920F931F93CF93DF938EE491E047
:1020600061E00E94E60EFF2401E010E0CF2DD0E0F9
:10207000FE01E057FD4F808190E08017910729F520
:1020800085E894E0B8014AE050E00E94F62285E835
:1020900094E06DE30E94D420C8010E940609682FD5
:1020A00085E894E04AE050E00E94862285E894E0CA
:1020B00069E00E94D420CC0FDD1FC955DD4F888117
:1020C000998161E00E94E60EF3940F5F1F4F0B327F
:1020D000110561F6DF91CF911F910F91FF90089547
:1020E000AF92BF92CF92DF92EF92FF920F931F9326
:1020F000CF93DF935C0101960E9453029C010197EC
:102100008E3F910510F010E01EC0122F82E090E08B
:10211000F501E80FF91FE081EE23A9F00196ED32F9
:1021200079F48A0D9B1D0E9453029C01812F90E03F
:102130008217930740F42F3F310528F4C22E05C0C3
:102140008A30910529F78EEFC82E0E948E050E94D5
:10215000CC0C8EE060E00E944A0586ED90E061E0E4
:102160000E94E60EE12EAEC089E76E2D0E944A0560
:102170008DEE92E00E94CE1D0FEFFF24C0E0D0E074
:1021800010E083E690E00E94CE1D86E20E94880562
:10219000C80FD11D801708F4082FF81608F4F82E80
:1021A0001F5F173C71F789E08E1538F085E894E0E1
:1021B0006DE471E00E94282308C0E3E6EE1528F0E4
:1021C00085E894E060E20E94D42085E894E06E2DDA
:1021D0004AE050E00E948622E4E7F2E06AE3808170
:1021E0008E1509F463E2319682E0EC37F807B9F70F
:1021F00085E894E00E94D42085E894E060E20E94A3
:10220000D420802F0E947B0ECE0167EC70E00E94EC
:102210009E24162F862F0E947B0E8F2D0E947B0EF0
:10222000F50180818E3409F047C00A3010F4DD24B6
:1022300008C0083418F00DE3D02E03C0B6EFDB2E33
:10224000D00EF9E0FF1510F000E007C087E48F150D
:1022500010F40DE302C00F2D0A501A3010F4FF24C1
:1022600008C0183418F0ADE3FA2E03C0F6EFFF2EC5
:10227000F10E10E01F1521F485E894E06AE217C022
:102280001D1521F485E894E06CE311C0101721F4CA
:1022900085E894E06EE30BC0D11630F4101720F4FB
:1022A00085E894E06EE203C085E894E060E20E9475
:1022B000D4201F5F0117F0F685E894E00E94A92161
:1022C000A895E394CE1408F04FCFDF91CF911F91E2
:1022D0000F91FF90EF90DF90CF90BF90AF90089557
:1022E000EF92FF920F931F93CF93DF937C01FC013A
:1022F000108200E010E085E894E00E946A20181641
:102300001906CCF585E894E00E947B20469739F4C5
:1023100081E7F701808311821092830234C085E83F
:1023200094E00E949B20EC011816190654F585E8EC
:1023300094E06C2F0E94D420CD30D10519F0CA3022
:10234000D10529F485E894E00E94A9211CC0C83079
:10235000D10531F40115110571F201501040CBCFB8
:10236000F701E00FF11FC08311820A3011054CF410
:102370000F5F1F4F06C061E070E080E090E00E94B8
:10238000751DA895B8CFDF91CF911F910F91FF9048
:10239000EF900895FF920F931F938730A8F5880F51
:1023A000082F10E0000F111FF801EB52FD4FF080D5
:1023B0008F2D60E00E94731E8F2D61E00E94B21E7F
:1023C00009521D4FF8010081802F61E00E94B21E6A
:1023D00082E090E00E94CE1D8F2D0E94061F019783
:1023E00079F4802F60E00E94B21E82E090E00E94AB
:1023F000CE1D8F2D0E94061F892B11F481E005C090
:102400008F2D61E00E94731E80E01F910F91FF905D
:1024100008952F923F924F925F926F927F928F9288
:102420009F92AF92BF92CF92DF92EF92FF920F9363
:102430001F93DF93CF93CDB7DEB762970FB6F894B3
:10244000DEBF0FBECDBF80E091E00E947C21988B63
:102450008F8785E00E94CA111B86882311F481E0D2
:102460008B877894AF85B889A150BF4FBA8BA98B61
:102470001092E8031092E9031092EB031092EA0322
:1024800080916F028A5A8D3318F087EC80936F0227
:102490000E948E050E94CC0C8EE060E00E944A05EE
:1024A0008DE160E00E944A050E944F06BB85BB2378
:1024B00031F085E894E060E571E00E942823EF8523
:1024C000F889FA87E987119289899A89E817F907C3
:1024D000D1F70E94411D5B016C018FE19EE4A0E0F9
:1024E000B0E0A80EB91ECA1EDB1E66241C86A89585
:1024F0000F851889FF249924EE24D8018C918A3FF6
:10250000A8F489E76F2D0E944A0589E892E00E94AD
:10251000CE1D86E20E948805982FF80180818917D8
:1025200008F49083E91610F49F2CE92EF3940F5FC2
:102530001F4FFFEFFF1609F72D98662009F58B85D1
:102540008823D1F085E894E064E671E00E942823B6
:1025500085E894E0692D4AE050E00E94862285E8F3
:1025600094E06FE671E00E94282385E894E06E2DE8
:102570004AE050E00E94982295E99E1528F078CF15
:10258000A5E9AE1508F0B3CF892D63E071E04C8565
:1025900020E00E94D80C8823D9F0B0910203BC87B8
:1025A000EB85EE2361F085E894E0692D4AE050E088
:1025B0000E94862285E894E060E20E94D420E1E057
:1025C000F0E0EC0FFD1FE60DF11D908263942D9A53
:1025D000EF85F889E90DF11D8FEF8083662009F4FE
:1025E00047CF0E94411DA616B706C806D90660F45B
:1025F000862D8150823060F094E0691649F0A8E0A1
:102600006A1609F035CF04C0B7E0B61508F06FCFF1
:102610000E94411D4B015C018AE09AE1A0E0B0E01C
:10262000880E991EAA1EBB1E79809B85992331F0C6
:1026300085E894E062E771E00E94282372E0C72EEB
:10264000D12CCC0EDD1E16014F845888A1E0AE8738
:102650001D8660C00E94411D86169706A806B90611
:1026600008F406CF872D63E071E04C8521E00E94DD
:10267000D80C882379F30E94411D7B018C01F10164
:10268000808167E572E04C8521E00E94D80C8823A8
:10269000C1F10E94411D28EF3FEF4FEF5FEF2E1970
:1026A0003F09400B510B260F371F481F591F65E08C
:1026B00056954795379527956A95D1F7622F28301B
:1026C00008F06850EF85F88990E08191861709F449
:1026D000ACCF9F5F8E859817C0F3D20111966C9393
:1026E000BB85BB2359F085E894E04AE050E00E94A6
:1026F000862285E894E060E20E94D420ED85EF5FB9
:10270000ED87FE85FF5FFE870894211C311C08942D
:10271000411C511C8E85861508F49CCF9B859923FE
:1027200021F085E894E00E94A92170927402A1E052
:102730006A1641F4E5E7F2E07192B2E0EC37FB078C
:10274000D9F750C0E2E06E1691F48A81709274025B
:10275000809375027092760280937702709278026D
:102760008093790270927A0280937B023BC0F4E0FE
:102770006F16E9F49E012B5F3F4FA985BA8511962C
:10278000EC91EF5FE43038F4F0E0D6018C91EC5836
:10279000FD4F80838483E985FA853196FA87E9873E
:1027A0000894C11CD11CC216D30639F71BC0FD8585
:1027B000F73008F45DCE9E01275F3F4FA985BA85AB
:1027C0001196EC91EF5FF0E0EC58FD4FD6018D9142
:1027D0006D018083E985FA853196FA87E987A2172A
:1027E000B30761F76091E9038091EA039091EB03ED
:1027F00070E00E94B2247093EB036093EA03FC85BF
:10280000F0936E02CB0182968534910528F4809175
:102810006F02861B80936F028B858823D9F185E830
:1028200094E06CE771E00E94282385E894E06C85D1
:102830004AE050E00E94862285E894E062E871E078
:102840000E94282385E894E060916F024AE050E0FE
:102850000E94862285E894E06AE871E00E942823BD
:1028600004E712E085E894E0D8016D918D014AE01B
:1028700050E00E94862285E894E060E20E94D42025
:10288000B2E00C371B0771F785E894E066E971E068
:102890000E942B2310927302109270028091710299
:1028A000823010F0109271028F8598890E947921F0
:1028B0000E944308439A62960FB6F894DEBF0FBE9B
:1028C000CDBFCF91DF911F910F91FF90EF90DF90DF
:1028D000CF90BF90AF909F908F907F906F905F90C0
:1028E0004F903F902F900895CF92DF92EF92FF92FA
:1028F0000F931F93DF93CF93CDB7DEB72C970FB60F
:10290000F894DEBF0FBECDBF87EE90E061E00E947D
:10291000E60E8E010F5F1F4FC8010E947011898162
:10292000813709F486C0813509F483C068010E94AB
:10293000291081E091E061E00E94E60EC6010E944C
:10294000701189818E3611F08E3421F4C6010E94F7
:102950007010F4CF833711F0833549F48A818536BE
:1029600019F40E94980EEACF0E94120FE7CF823727
:10297000F9F48A818536E1F48B818236C9F48C8141
:102980008936B1F48D818E3699F48E81843681F446
:1029900087E791E060E00E94E60EC6010E94701198
:1029A0008981893711F0893519F40E94091241C0D3
:1029B00089818137F1F18135E1F1C6010E9453022D
:1029C0007C018BE2E816F10408F0B1CFC6010E9449
:1029D00070118981813769F1813559F1C6010E94F1
:1029E00053028C018F3F910511F008F0A0CFE11444
:1029F000F10419F4009709F49ACF85E894E0B7013F
:102A00004AE050E00E94F62285E894E06DE30E94DF
:102A1000D42085E894E0B8014AE050E00E94092300
:102A2000C701602F0E941D080E942E090E944308C2
:102A30007ECF2C960FB6F894DEBF0FBECDBFCF91E0
:102A4000DF911F910F91FF90EF90DF90CF9008954D
:102A50001F93CF93DF93EC0110E011C0A8956DE7B1
:102A600070E080E090E00E94751DCB30D10568F0E9
:102A70000E94F10D882349F00E94741410C0812F28
:102A800090E08C179D0750F30AC0439A6DE770E001
:102A900080E090E00E94751D43981F5FF0CFDF91AA
:102AA000CF911F910895EF92FF920F931F930E9471
:102AB000C409182F8F3F69F480918C03882329F46F
:102AC0008AE890E061E00E94E60E8FE295E70E94BE
:102AD000281582E00E94CA11882391F084E090E0DA
:102AE0000E9428150E94430880918C03882329F4B2
:102AF0008AEB90E061E00E94E60E84E090E079C00D
:102B00000E942E09882309F076C080918C038823C7
:102B100029F485EA90E061E00E94E60E113009F0A8
:102B200066C00E94411D7B018C018FE097E2A0E00E
:102B3000B0E0E80EF91E0A1F1B1F0BC081E090E0F9
:102B40000E9428150E94F10D882319F00E94741428
:102B500052C00E94411D6E157F058007910770F3DA
:102B600088E480936E0287EC80936F0291E09093EB
:102B700071021092730210927202109270028BE432
:102B80008093870282ED8093880284E680937C02A2
:102B900084E080937D0282E080937E0290937F02A6
:102BA000109280028EE18093810287E080938402FC
:102BB00090938502109286028DE48093740283E9DB
:102BC0008093750289E58093760287EA8093770285
:102BD0008DE6809378028DEB809379028FE7809366
:102BE0007A0281ED80937B020E94430804C088E74B
:102BF00090E00E9428151F910F91FF90EF9008958B
:102C00001F93482FF62FE0918402EE2321F48823AE
:102C100051F41FE724C0882341F4683031F4109246
:102C2000ED031092EC0310E01AC02091EC033091F8
:102C3000ED03C9016E2F70E00E949E24261B370B06
:102C4000F49FC0011124280F391F3093ED03209306
:102C5000EC03C9016E2F70E00E949E24162F83E0C2
:102C6000612F70E00E94131E10931E0310921F0329
:102C70001F9108952F923F924F925F926F927F9291
:102C80008F929F92AF92BF92CF92DF92EF92FF927C
:102C90000F931F93CF93DF9380E00E94CA1180931C
:102CA0002003882321F08AE080933D021DC086E046
:102CB0000E94CA118823C1F082E08093200384E03F
:102CC00080933D0280E69DE690930C0280930B0278
:102CD0009093870080938600109257028091420261
:102CE0008062809342025D9884E00E94CA118093C2
:102CF0008C0381E090E00E94281585E00E94CA11B3
:102D0000882311F00E94091285E894E040E056E91A
:102D100060E070E00E94E31F80918C03882331F40F
:102D20000E94FF0E81E090E00E9428150E9453153A
:102D300080916F0280933F020E94010A0E943A0331
:102D40000E94C0080E948E05109222032EE088E1A6
:102D500090E00FB6F894A895809360000FBE209382
:102D6000600080918C03882309F073C085E894E0AB
:102D70006BE971E00E94282385E894E060916D0280
:102D80004AE050E00E9498220E94291085E894E0D1
:102D900060EA71E00E94282384E00E948805682F81
:102DA00070E06170707085E894E04AE050E00E9445
:102DB000092385E894E065EA71E00E942B2380E016
:102DC0000E948805682F85E894E04AE050E00E9460
:102DD000982281E00E948805682F85E894E04AE007
:102DE00050E00E94982282E00E948805682F85E8C2
:102DF00094E04AE050E00E94982285E894E06BEA73
:102E000071E00E94282381E10E948805682F70E00C
:102E10006054704085E894E04AE050E00E94092345
:102E200088E690E061E00E94E60E80912003813008
:102E300031F485E894E06EEA71E00E942B238091E2
:102E40002003823031F485E894E066EB71E00E9463
:102E50002B23442481E080933E020E944F060E946F
:102E6000CC0C789483E080933E030E94411D6093D4
:102E70002303709324038093250390932603609388
:102E80002703709328038093290390932A03609368
:102E90002B0370932C0380932D0390932E03609348
:102EA0002F037093300380933103909332035524A2
:102EB000AA24BB243324339403E0202EA8958CE06D
:102EC0000E948805882371F40E948E050E94CC0C14
:102ED00080918C03882331F485E894E06FEB71E0F6
:102EE0000E942B2380913E03843009F0E9C143986E
:102EF0002D9A8FE70E942F05C2E0D3E00E947A0549
:102F0000899323E0C231D207C9F70E944F0610917E
:102F100021030E9455058091930390919403A09101
:102F20009503B091960380932F0390933003A09361
:102F30003103B093320320923E036097CE010E948A
:102F4000D804882351F080918C03882309F0B4C100
:102F500085E894E066EC71E00FC0909102038091E7
:102F60006E02981761F080918C03882309F0A4C148
:102F700085E894E06BEC71E00E942B239DC1CE01AB
:102F80000E947203882389F0442081F480918C038D
:102F9000882331F485E894E061ED71E00E942B23F1
:102FA0000E94FA074424439401C04424609118030A
:102FB000709119036115710551F08091160390917C
:102FC00017030E949E247093170360931603809149
:102FD000160390911703909319038093180360913F
:102FE0001C0370911D036115710569F080911A032E
:102FF00090911B030E949E2460931A0370931B03FD
:103000006093920306C08091920380931A031092FA
:103010001B0320911A0330911B038091160390919A
:1030200017038217930728F41092170310921603C0
:1030300006C0821B930B9093170380931603809115
:103040008502882329F0809116039091170304C00C
:10305000809118039091190390931F0380931E038E
:1030600080911E0361E00E9400168BE20E94880599
:10307000C82FD0E080918C03882309F04DC085E8EB
:1030800094E066ED71E00E9428236091180370912E
:10309000190385E894E04AE050E00E94582285E850
:1030A00094E069ED71E00E94282360914F037091D4
:1030B000500385E894E04AE050E00E94582285E8F9
:1030C00094E06DED71E00E942823612F70E06F5F46
:1030D0007F4F85E894E04AE050E00E94F62285E8C0
:1030E00094E061EE71E00E94282385E894E0BE013F
:1030F0004AE050E00E94F62285E894E065EE71E037
:103100000E94282360911A0370911B0385E894E0C4
:103110004AE050E00E946922E12FF0E0EE0FFF1F2D
:10312000DF01A55ABC4F8D919C91119720911803F6
:1031300030911903820F931F8D939C93DF01A55942
:10314000BC4F8D919C91119720911A0330911B03D4
:10315000820F931F8D939C93E15CFC4F8081918142
:103160000196918380831092170310921603109298
:1031700019031092180310921B0310921A03109255
:103180001D0310921C0340916F02442309F453C0A5
:10319000C038D10514F0C050D140CE014996C39734
:1031A00018F020E030E006C09E01E4E0220F331F5B
:1031B000EA95E1F75394C50160E170E00E94B22402
:1031C000A61AB70AC90160E170E00E94B224A60EF7
:1031D000B71EC501B7FE04C0882799278A199B0925
:1031E0008134910554F180E2851538F5C50160E11F
:1031F00070E00E94B224EB01D095C195DF4F642F9F
:103200006C0F60936F0289E00E944A0580918C03E5
:10321000882369F485E894E06AEE71E00E9428232F
:1032200085E894E0BE014AE050E00E94092355245D
:10323000AA24BB2402C030923D0310923C0310929A
:103240003B030E94411D60932303709324038093EA
:1032500025039093260360932B0370932C03809394
:103260002D0390932E036093330370933403809364
:10327000350390933603609337037093380380933C
:10328000390390933A0310923E0210921503109264
:10329000140310923D030E94760780918C038823CB
:1032A00059F026E12093020385E894E062E073E0A0
:1032B00040E150E00E947F212D980E94720BFECDCC
:1032C0000E94411D7B018C016093230370932403B2
:1032D000809325039093260360902F037090300312
:1032E00080903103909032030E94720B0E94940DE3
:1032F000882309F0AFCD80918302882311F180915A
:10330000230390912403A0912503B09126032091DB
:103310002703309128034091290350912A03821BEF
:10332000930BA40BB50B8F509742A040B04048F4CC
:103330000E94F10D882339F00E9474140E948E05BA
:1033400089CD0E94080E80918D03882309F44FC017
:103350008091370390913803A0913903B0913A03DB
:103360008196A11DB11D20918E0330918F03409154
:1033700090035091910382179307A407B507B8F5FE
:103380008BE793E00E9472030E94760710928D03F0
:1033900010923C0310923B038091230390912403ED
:1033A000A0912503B091260380932B0390932C03C7
:1033B000A0932D03B0932E03809333039093340393
:1033C000A0933503B093360380918C03882339F49E
:1033D00085E894E061EF71E00E942B2308C085E846
:1033E00094E06BE773E040E150E00E947F21809120
:1033F000230390912403A0912503B09126032091EB
:103400002B0330912C0340912D0350912E03821BEE
:10341000930BA40BB50B88559240A040B04090F19F
:1034200080913C03882371F580912203882351F118
:1034300080918C03882331F485E894E066EF71E095
:103440000E942B2330923C0380912303909124030C
:10345000A0912503B0912603809333039093340306
:10346000A0933503B09336030E94C0080E947607EC
:10347000439880E068E00E940016809152038F5FBD
:10348000809352038091230390912403A0912503FC
:10349000B0912603209137033091380340913903CE
:1034A00050913A03821B930BA40BB50B885B9B4096
:1034B000A040B04010F030923E0267017801C6187B
:1034C000D708E808F908D701C6010197A109B10991
:1034D0000497A105B105D0F483E690E00E94CE1DCB
:1034E00000911A0310911B0386E20E948805080FC1
:1034F000111D10931B0300931A0380911C039091DC
:103500001D03019690931D0380931C0380913E023E
:10351000882319F02FEF30E02EC0D701C6010B979A
:10352000A109B1090A97A105B105D8F483E690E095
:103530000E94CE1D009116031091170386E20E948F
:103540008805080F111D109317030093160380912F
:10355000180390911903019690931903809318030F
:1035600008C089E1C816D104E104F10414F40E94F2
:10357000CE0A23E230E0C901AA2797FDA095BA2F11
:10358000C816D906EA06FB060CF4C6C080913E02B6
:10359000882319F580913C03882309F4439A80918C
:1035A000210320912F03309130034091310350913A
:1035B000320380FF05C0205E3F4F4F4F5F4F04C076
:1035C000215E3F4F4F4F5F4F20932F0330933003C7
:1035D000409331035093320310C0809123039091A4
:1035E0002403A0912503B091260380932F03909389
:1035F0003003A0933103B0933203109121030E9452
:103600005505C12FD0E0FE01EF5AFC4F82818F5F3C
:10361000828330923D0360913E0227E0629FB001B9
:1036200011246F5F80E00E94001680918C03882334
:1036300009F062C085E894E06CEF71E00E942823F5
:1036400060911403709115036F5F7F4F70931503A2
:103650006093140385E894E04AE050E00E94582209
:1036600060911C0370911D036115710569F08091D3
:103670001A0390911B030E949E2460931A03709377
:103680001B036093920306C08091920380931A03F8
:1036900010921B0385E894E069ED71E00E942823F5
:1036A00060914F037091500385E894E04AE050E048
:1036B0000E94582285E894E06DED71E00E94282375
:1036C000219685E894E0BE014AE050E00E94F6228F
:1036D00085E894E065EE71E00E94282360911A036A
:1036E00070911B0385E894E04AE050E00E94582264
:1036F00085E894E00E94A921109217031092160306
:10370000109219031092180310921B0310921A03BF
:1037100010921D0310921C0380913C03882309F42E
:10372000CDCB0E94CE0AE0902303F09024030091B9
:103730002503109126038091330390913403A091C7
:103740003503B0913603E81AF90A0A0B1B0B609196
:10375000810280913B03882349F088E8E81683E1E1
:10376000F80680E0080780E018077CF470E080E04D
:1037700090E028EE33E040E050E00E9473246E15A4
:103780007F05800791070CF099CB30923B03809125
:1037900081028F3F61F080918C03882331F485E8AA
:1037A00094E060E072E00E942B230E94460C80911E
:1037B0008C03882331F485E894E064E072E00E9491
:1037C0002B230E948E050E944F0680912303909127
:1037D0002403A0912503B091260380933303909393
:1037E0003403A0933503B093360368CB8DE061E0DA
:1037F0000E94731E81E161E00E94731E8EE060E012
:103800000E94731E8FE061E00E94731E80E161E000
:103810000E94731E82E060E00E94731E84E061E0FB
:103820000E94731E80E060E00E94731E81E061E0F0
:103830000E94731E80E061E00E94B21E83E061E09E
:103840000E94731E85E061E00E94731E86E061E0C5
:103850000E94731E87E061E00E94731E88E061E0B1
:103860000E94731E89E061E00E94731E8AE061E09D
:103870000E94731E8BE061E00E94731E8CE061E089
:103880000E94731E82E161E00E94731E83E161E089
:103890000E94731EE1E8F0E0108210928500109201
:1038A000840080910B0290910C029093870080938A
:1038B000860082E0809380008AE1808381E08093AB
:1038C0006F0080E068E97AE042E050E00E947C1CF2
:1038D0000895F999FECF72BD61BDF89A80B508953B
:1038E000F999FECF1FBA72BD61BD40BD0FB6F89405
:1038F000FA9AF99A0FBE0895823000F5E82FF0E0A9
:10390000EE0FFF1FE051FC4F71836083882319F095
:103910008130A1F408C0809169008C7F842B809352
:103920006900E89A089580916900440F551F440F7B
:10393000551F837F842B80936900E99A08951F9215
:103940000F920FB60F9211242F933F934F935F93D3
:103950006F937F938F939F93AF93BF93EF93FF9357
:103960008091F0039091F103892B29F0E091F0030D
:10397000F091F1030995FF91EF91BF91AF919F9164
:103980008F917F916F915F914F913F912F910F9008
:103990000FBE0F901F9018951F920F920FB60F92A7
:1039A00011242F933F934F935F936F937F938F9344
:1039B0009F93AF93BF93EF93FF938091F203909106
:1039C000F303892B29F0E091F203F091F3030995B9
:1039D000FF91EF91BF91AF919F918F917F916F91E7
:1039E0005F914F913F912F910F900FBE0F901F90BD
:1039F00018951F920F920FB60F9211242F933F9399
:103A00008F939F93AF93BF938091F8039091F903A5
:103A1000A091FA03B091FB033091FC030196A11D24
:103A2000B11D232F2D5F2D3720F02D570196A11D9D
:103A3000B11D2093FC038093F8039093F903A093A6
:103A4000FA03B093FB038091F4039091F503A091E6
:103A5000F603B091F7030196A11DB11D8093F40305
:103A60009093F503A093F603B093F703BF91AF9142
:103A70009F918F913F912F910F900FBE0F901F90AC
:103A800018958FB7F8942091F8033091F90340917D
:103A9000FA035091FB038FBFB901CA0108959FB784
:103AA000F8942091F4033091F5034091F60350917E
:103AB000F70386B5A89B06C08F3F21F02F5F3F4FCD
:103AC0004F4F5F4F9FBF542F432F322F2227280F76
:103AD000311D411D511D82E0220F331F441F551F10
:103AE0008A95D1F7B901CA0108959B01AC017FB74E
:103AF000F8948091F4039091F503A091F603B091AE
:103B0000F70366B5A89B05C06F3F19F00196A11D8C
:103B1000B11D7FBFBA2FA92F982F8827860F911D1F
:103B2000A11DB11D62E0880F991FAA1FBB1F6A95D6
:103B3000D1F7BC012DC0FFB7F8948091F4039091A8
:103B4000F503A091F603B091F703E6B5A89B05C075
:103B5000EF3F19F00196A11DB11DFFBFBA2FA92F8C
:103B6000982F88278E0F911DA11DB11DE2E0880FAF
:103B7000991FAA1FBB1FEA95D1F7861B970B885E7A
:103B80009340C8F2215030404040504068517C4F33
:103B9000211531054105510571F60895019739F058
:103BA000880F991F880F991F02970197F1F70895C1
:103BB000789484B5826084BD84B5816084BD85B508
:103BC000826085BD85B5816085BDEEE6F0E08081CF
:103BD00081608083E1E8F0E01082808182608083F0
:103BE000808181608083E0E8F0E080818160808373
:103BF000E1EBF0E0808184608083E0EBF0E08081A5
:103C000081608083EAE7F0E0808184608083808146
:103C100082608083808181608083808180688083EE
:103C20001092C10008951F93CF93DF93182FEB01DB
:103C300061E00E94731E209709F44AC0CF3FD1056E
:103C400009F449C0E12FF0E0E55CFB4F849183303B
:103C5000C1F0843028F4813051F08230B1F50CC0CD
:103C6000863019F1873049F1843079F514C084B574
:103C7000806884BDC7BD33C084B5806284BDC8BDC3
:103C80002EC080918000806880938000D09389004E
:103C9000C093880024C0809180008062809380005F
:103CA000D0938B00C0938A001AC08091B0008068C6
:103CB0008093B000C093B30012C08091B0008062C6
:103CC0008093B000C093B4000AC0C038D1051CF482
:103CD000812F60E002C0812F61E00E94B21EDF915F
:103CE000CF911F910895CF93DF93482F50E0CA01E1
:103CF000895D9B4FFC0134914D5E5B4FFA018491CD
:103D0000882369F190E0880F991FFC01EB50FC4F6C
:103D1000A591B491FC01E150FC4FC591D49166236B
:103D200051F42FB7F8948C91932F909589238C930D
:103D3000888189230BC0623061F42FB7F8948C918D
:103D4000932F909589238C938881832B88832FBF11
:103D500006C09FB7F8948C91832B8C939FBFDF9103
:103D6000CF910895482F50E0CA01855C9B4FFC011C
:103D70002491CA01895D9B4FFC0194914D5E5B4F7C
:103D8000FA013491332309F440C0222351F1233046
:103D900071F0243028F42130A1F0223011F514C044
:103DA0002630B1F02730C1F02430D9F404C080911E
:103DB00080008F7703C0809180008F7D809380008A
:103DC00010C084B58F7702C084B58F7D84BD09C0D3
:103DD0008091B0008F7703C08091B0008F7D809379
:103DE000B000E32FF0E0EE0FFF1FE150FC4FA59174
:103DF000B4912FB7F894662321F48C919095892380
:103E000002C08C91892B8C932FBF0895682F70E08E
:103E1000CB01855C9B4FFC012491CB01895D9B4FBD
:103E2000FC0144916D5E7B4FFB019491992319F441
:103E300020E030E03CC0222351F1233071F02430E7
:103E400028F42130A1F0223011F514C02630B1F051
:103E50002730C1F02430D9F404C0809180008F77DE
:103E600003C0809180008F7D8093800010C084B556
:103E70008F7702C084B58F7D84BD09C08091B0006A
:103E80008F7703C08091B0008F7D8093B000892F21
:103E900090E0880F991F875F9B4FFC01A591B4911B
:103EA0008C9120E030E0842311F021E030E0C90162
:103EB000089508951F920F920FB60F9211242F9319
:103EC0003F934F938F939F93EF93FF938091C00005
:103ED00082FD1DC04091C60020913D0430913E04FA
:103EE0002F5F3F4F2F73307080913F0490914004BB
:103EF0002817390771F0E0913D04F0913E04E3503A
:103F0000FC4F408330933E0420933D0402C08091D7
:103F1000C600FF91EF919F918F914F913F912F910B
:103F20000F900FBE0F901F901895E0919104F091A3
:103F30009204E05CFF4F8191919120813181821B3D
:103F4000930B8F739070892B11F00E94591F089565
:103F50001F920F920FB60F9211242F933F938F93BE
:103F60009F93EF93FF93209181043091820480917D
:103F70008304909184042817390731F48091C1009B
:103F80008F7D8093C10014C0E0918304F09184047C
:103F9000EF5BFB4F20818091830490918404019614
:103FA0008F73907090938404809383042093C60051
:103FB000FF91EF919F918F913F912F910F900FBEA5
:103FC0000F901F901895AF92BF92DF92EF92FF92E1
:103FD0000F931F93CF93DF93EC017A018B01DD24C4
:103FE000403081EE580780E0680780E0780711F0E4
:103FF000DD24D39491E0A92EB12CEC89FD89DD203C
:1040000069F0C50108A002C0880F991F0A94E2F761
:10401000808360E079E08DE390E005C0108260E885
:1040200074E88EE190E0A80197010E94C524215018
:10403000304040405040569547953795279580E150
:104040002030380720F0DD2011F0DD24D6CFE889BC
:10405000F9893083EA89FB89208319A2EE89FF89D7
:10406000408121E030E0C9010C8C02C0880F991F0B
:104070000A94E2F7482B4083EE89FF894081C90109
:104080000D8C02C0880F991F0A94E2F7482B4083D9
:10409000EE89FF894081C9010E8C02C0880F991FEB
:1040A0000A94E2F7482B4083EE89FF8980810F8CC8
:1040B00002C0220F331F0A94E2F7209528232083A1
:1040C000DF91CF911F910F91FF90EF90DF90BF9004
:1040D000AF900895DC011C96ED91FC911D97E05C7A
:1040E000FF4F2191319180819181281B390B2F73D2
:1040F0003070C9010895DC011C96ED91FC911D976B
:10410000E05CFF4F20813181E054F040DF01AE5B85
:10411000BF4F8D919C9111972817390719F42FEFF4
:104120003FEF07C08D919C91E80FF91F8081282FE8
:1041300030E0C9010895DC011C96ED91FC911D97BA
:10414000E05CFF4F20813181E054F040DF01AE5B45
:10415000BF4F8D919C9111972817390719F42FEFB4
:104160003FEF10C08D919C911197E80FF91F2081AE
:104170008D919C91119701968F73907011969C93DD
:104180008E9330E0C9010895DC0191968C9191974E
:10419000882339F05496ED91FC915597808186FFE4
:1041A000F9CF91961C920895CF93DF93EC01EE85A1
:1041B000FF85E05CFF4F20813181E054F0402F5FAC
:1041C0003F4F2F733070DF01AE5BBF4F8D919C91DD
:1041D000119728173907D1F3E05CFF4F8081918157
:1041E000E054F040E80FF91F6083EE85FF85E05C46
:1041F000FF4F31832083EE89FF89208181E090E0A9
:104200000F8C02C0880F991F0A94E2F7282B208395
:1042100081E089A3EC89FD8980818064808381E0CD
:1042200090E0DF91CF910895109288041092870456
:1042300088EE93E0A0E0B0E08093890490938A0434
:10424000A0938B04B0938C0485EF92E09093860446
:10425000809385048DEF93E0909392048093910472
:1042600081E494E0909394048093930485EC90E02F
:10427000909396048093950484EC90E09093980436
:104280008093970480EC90E090939A048093990433
:1042900081EC90E090939C0480939B0482EC90E0EE
:1042A00090939E0480939D0486EC90E09093A004EC
:1042B00080939F0484E08093A10483E08093A20410
:1042C00087E08093A30485E08093A40481E0809339
:1042D000A5040895CF93DF930E94D81D0E94F61B7A
:1042E000C5E9DFE10E943A162097E1F30E94951F8D
:1042F000F9CF0E94DB2308950E943E230895CF92B8
:10430000DF92EF92FF920F931F93CF93DF937C0185
:104310006B018A01C0E0D0E00FC0D6016D916D0144
:10432000D701ED91FC910190F081E02DC701099535
:10433000C80FD91F015010400115110571F7CE01AA
:10434000DF91CF911F910F91FF90EF90DF90CF9071
:104350000895EF92FF920F931F938C01DC01ED9172
:10436000FC910190F081E02D6DE009957C01D80170
:10437000ED91FC910190F081E02DC8016AE0099572
:104380009C012E0D3F1DC9011F910F91FF90EF90D1
:104390000895CF93DF93EC016115710519F420E0C6
:1043A00030E00FC0DB010D900020E9F71197A61B4C
:1043B000B70BE881F9810280F381E02DAD01099509
:1043C0009C01C901DF91CF9108954F925F927F9236
:1043D0008F929F92AF92BF92CF92DF92EF92FF9215
:1043E0000F931F93DF93CF93CDB7DEB7A1970FB68F
:1043F000F894DEBF0FBECDBF2C01742ECB0122304E
:1044000008F42AE019A231E2C32ED12CCC0EDD1E15
:10441000822E9924AA24BB24672D752FA50194010F
:104420000E94C52479018A01C801B701A501940140
:104430000E947324472D461B0894C108D1084A30B6
:1044400014F4405D01C0495CF6014083E114F104BD
:104450000105110521F07E2C5F2DC801DDCFC201C1
:10446000B6010E94C921A1960FB6F894DEBF0FBE17
:10447000CDBFCF91DF911F910F91FF90EF90DF9013
:10448000CF90BF90AF909F908F907F905F904F9014
:104490000895DC012115310541F4ED91FC91019065
:1044A000F081E02D642F099508950E94E52108957B
:1044B000EF92FF920F931F939A017B0100E010E0AF
:1044C000B801A7010E9449221F910F91FF90EF9020
:1044D0000895CF92DF92EF92FF920F931F936C019A
:1044E0007B019A0100E010E0B801A7010E94492277
:1044F0008C01C6010E94A921080F191FC8011F9134
:104500000F91FF90EF90DF90CF900895EF92FF9280
:104510000F931F939A01E62EFF2400E010E0B801EC
:10452000A7010E9449221F910F91FF90EF900895DB
:10453000CF92DF92EF92FF920F931F936C01E62EC2
:104540009A01FF2400E010E0B801A7010E9449226F
:104550008C01C6010E94A921080F191FC8011F91D3
:104560000F91FF90EF90DF90CF900895CF92DF9260
:10457000EF92FF920F931F93CF93DF93EC016A01A9
:104580007B012115310541F4E881F9810190F08129
:10459000E02D642F09951FC02A303105D1F477FF33
:1045A00017C0E881F9810190F081E02D6DE2099555
:1045B0008C0144275527BA014C195D096E097F0902
:1045C000CE012AE00E94E5219801280F391F04C07E
:1045D0002AE00E94E5219C01C901DF91CF911F9142
:1045E0000F91FF90EF90DF90CF900895EF92FF92A0
:1045F0000F931F937B019A010027F7FC0095102F62
:10460000B801A7010E94B6221F910F91FF90EF9071
:104610000895CF92DF92EF92FF920F931F936C0158
:104620007B019A010027F7FC0095102FB801A70124
:104630000E94B6228C01C6010E94A921080F191FF1
:10464000C8011F910F91FF90EF90DF90CF900895D8
:104650000E94C9210895EF92FF920F931F937C014E
:104660000E94C9218C01C7010E94A921080F191FAE
:10467000C8011F910F91FF90EF9008950F931F9322
:10468000CF93DF93BC018230910510F462E070E0BB
:10469000E091A904F091AA0440E050E0A0E0B0E06D
:1046A00024C08081918186179707D0F086179707DD
:1046B00071F482819381109729F013969C938E93C5
:1046C00012972CC09093AA048093A90427C0411587
:1046D000510519F08417950718F48D01AC01EF010D
:1046E000DF01828193819C01F9013097D1F6411558
:1046F0005105F9F0CA01861B970B8430910580F4AF
:104700008A819B810115110521F0F8019383828331
:1047100004C09093AA048093A904FE01329645C078
:10472000FE01E80FF91F61937193029799838883C3
:104730003CC08091A7049091A804892B41F48091FA
:104740008C0290918D029093A8048093A7044091CD
:104750008E0250918F024115510541F44DB75EB75D
:1047600080918A0290918B02481B590B2091A704DB
:104770003091A80424173507B0F4CA01821B930BAB
:104780008617970780F0AB014E5F5F4F8417950740
:1047900050F0420F531F5093A8044093A704F9010F
:1047A0006193719302C0E0E0F0E0CF01DF91CF911F
:1047B0001F910F910895CF93DF939C01009709F407
:1047C0008FC0EC0122971B821A826091A90470911C
:1047D000AA046115710581F488819981820F931F64
:1047E0002091A7043091A8042817390739F5D093F0
:1047F000A804C093A70474C0DB0140E050E0AC17EC
:10480000BD0708F1BB83AA83FE0121913191E20F1C
:10481000F31FAE17BF0779F48D919C911197280F64
:10482000391F2E5F3F4F3983288312968D919C91BB
:1048300013979B838A834115510571F4D093AA0481
:10484000C093A9044DC012968D919C911397AD0110
:10485000009711F0DC01D3CFDA011396DC93CE93ED
:104860001297FA0121913191E20FF31FCE17DF0762
:1048700069F488819981280F391F2E5F3F4FFA0113
:10488000318320838A819B8193838283E0E0F0E0FF
:10489000DB0112968D919C911397009719F0BC0142
:1048A000FD01F6CFAB014E5F5F4FDB018D919C9117
:1048B000840F951F2091A7043091A8042817390769
:1048C00079F4309729F41092AA041092A90402C036
:1048D00013821282425050405093A8044093A70480
:1048E000DF91CF910895629FD001739FF001829F65
:1048F000E00DF11D649FE00DF11D929FF00D839F6F
:10490000F00D749FF00D659FF00D9927729FB00D0B
:10491000E11DF91F639FB00DE11DF91FBD01CF011E
:1049200011240895991B79E004C0991F961708F087
:10493000961B881F7A95C9F780950895AA1BBB1B03
:1049400051E107C0AA1FBB1FA617B70710F0A61B8F
:10495000B70B881F991F5A95A9F780959095BC01B0
:10496000CD01089597FB092E07260AD077FD04D0C4
:10497000E5DF06D000201AF4709561957F4F089509
:10498000F6F7909581959F4F0895A1E21A2EAA1BE4
:10499000BB1BFD010DC0AA1FBB1FEE1FFF1FA217EF
:1049A000B307E407F50720F0A21BB30BE40BF50BEC
:1049B000661F771F881F991F1A9469F76095709575
:1049C000809590959B01AC01BD01CF01089597FBA7
:1049D000092E05260ED057FD04D0D7DF0AD0001CC3
:1049E00038F450954095309521953F4F4F4F5F4F8C
:1049F0000895F6F790958095709561957F4F8F4F4C
:104A00009F4F0895EE0FFF1F0590F491E02D09943C
:044A1000F894FFCF48
:104A140046697865642100537461746973746963C9
:104A24007320696E20454550524F4D206572617365
:104A340065200020646F6E65004C6173742073748C
:104A4400617469736963733A28002D002920666FC5
:104A5400726D2000464E2020636E742000202000DA
:104A64000D0A42696E642066696E64207374617213
:104A7400743A2000204D61786C6576656C5B005D4E
:104A84003D000D0A54696D65733A200042696E64F5
:104A94003D002046636F72723D0020536571756559
:104AA4006E63653A200020456E6400532F4E3D002E
:104AB4004952513D00535441525400543D0050500A
:104AC4004D206F75740053425553206F7574004622
:104AD400694572722100435243210042494E4421E8
:104AE400004653205700523D0020533D0020433DD3
:104AF4000020413D0020526E3D0046636F72723DBE
:104B0400002453415400746F2066730024524C00F7
:104B1400534F5300496E6974000901409CB80BB8A7
:104B24000BB80BB80BB80BB80BB80BB80BB80BB869
:104B34000BB80BB80BB80BB80BB80BB80BB80BB859
:104B44000BB80BB80BB80BB80BB80BB80B0A01C7F2
:104B5400E0CF1F2B002B002B00250025002500256E
:104B640000250028002800204080010204081010BD
:104B7400202040800102040810000458006348CC3F
:104B8400000100004D9359A76DBD7FD1650402015A
:104B9400001EC7010100004BD2048000AB040000DA
:104BA4000102030405060B0C0D0E0F101112131451
:104BB40018191A1C28292A38023F02490266027869
:104BC400029502AB02B202B902C002C702CE02D5FC
:104BD40002DC02E302FA023B0353035C0365038A2B
:104BE40003B203D203050006000700080009000A07
:104BF400000B000C00120013000000010006000767
:104C04000000000000D4207F216A209B207B20C468
:024C140020007E
:00000001FF
