:100000000C94FF010C9497150C94C4150C942702C2
:100010000C9427020C9427020C9427020C942702BC
:100020000C9427020C9427020C9427020C942702AC
:100030000C9427020C94B3080C9427020C9427020A
:100040000C94F1150C9427020C942C180C947A182B
:100050000C9427020C9427020C9427020C9427027C
:100060000C9427020C942702507265737320276D3D
:100070002720746F207374617274204D454E552093
:10008000696E2031302073656300464C415348202F
:100090004552524F522121212043616E277420770F
:1000A0006F726B21004572726F72207265616420FD
:1000B00073657474696E6773210053657474696E37
:1000C000677320726573657420746F206465666160
:1000D000756C7473210046486E3A204D696E20415C
:1000E0007672204D617800546F20456E74657220E1
:1000F0004D454E5520507265737320454E54455200
:1001000000547970652052656720616E64207072BA
:1001100065737320454E5445522C207479706520C8
:1001200056616C756520616E642070726573732012
:10013000454E5445522028713D517569743B2073DA
:10014000732F736C2F73613D537461742900526770
:100150003D56616C2009436F6D6D656E7473202D83
:100160002D2D2D2D2D2D2D2D2D2D2D2D2D2D2D2DBF
:100170002D2D2D2D2D2D000D0A42617963686920EA
:10018000736F66742032303133005258204F7065DF
:100190006E204578706572742056322046004653B2
:1001A0006E20496E4653202044726F70733A31209E
:1001B00020203220202033202020342020203520F1
:1001C00020203620202037202020382020005253A5
:1001D00053493A312020203220202033202020345F
:1001E00020202035202020362020203720202038B5
:1001F000204E6F6973653A31202020322020203351
:100200002020203420202035202020362020203798
:10021000202020380042696E64204E0046726571CD
:1002200020436F727200536572766F20313530252E
:1002300020737472656368206E756D2028312D31CE
:100240003229005374617469737469637320656E35
:1002500061626C6500486F706520463100486F70C0
:100260006520463200486F706520463300486F7045
:100270006520463400486F706520463500486F7031
:100280006520463600486F706520463700486F701D
:100290006520463800426561636F6E20462028461F
:1002A000463D64697361626C652900426561636FF4
:1002B0006E20506D617820286D5774293A20302DBA
:1002C000312E323B20312D323B20322D333B203337
:1002D0002D363B20342D31323B20352D32353B201D
:1002E000362D35303B20372D31303000426561638B
:1002F0006F6E2073746172742074696D6520287349
:100300006563290053415720466D696E005341577C
:1003100020466D61780050504D206D6F646520312E
:1003200073742050574D2063686E6C2028312D382F
:1003300029205B345D005253534920747970653A2B
:1003400020736F756E642830292F6C6576656C2874
:10035000312D39393D6176657261676529005253E7
:100360005349206D6F64653A206C6576656C283062
:10037000292F534E20726174696F2831290052531E
:100380005349206F7665722050574D286368616E1F
:100390003A312D31322920302D6E6F7420757365FE
:1003A0000000000000240027002A000000000025B3
:1003B0000028002B00000000002300260029000474
:1003C00004040404040404020202020202030303FC
:1003D00003030301020408102040800102040810F6
:1003E00020010204081020000000070002010000A4
:1003F000030406000000000000000000E6191124BC
:100400001FBECFEFD4E0DEBFCDBF12E0A0E0B1E071
:10041000EAE2F9E302C005900D92A236B107D9F7DE
:1004200013E0A2E6B2E001C01D92AE3CB107E1F7D5
:1004300013E0CEEFD3E004C02297FE010E948F1C90
:10044000CC3FD107C9F70E943C1A0C94931C0C9422
:100450000000FC0188279927E89421912032E9F3D4
:10046000293010F02E30C8F32B3241F02D3239F400
:10047000689404C00E944702820F911D219120536D
:100480002A30C0F31EF4909581959F4F08957AE02D
:10049000979F902D879F802D910D11240895809115
:1004A0009B02813019F482E080939B0280919B0231
:1004B000833019F484E080939B020895EF92FF92B9
:1004C0000F931F93CF93DF93DC011F968C911F979F
:1004D0007091E7017150FD01CFEAD1E040E050E0BA
:1004E00022E0E22EF12C082F10E08281282F30E04C
:1004F000220F331F220F331F642F4830F0F4473090
:1005000069F0C701042E02C0880F991F0A94E2F710
:1005100080239123892B11F02E5F3F4F11968C91F0
:10052000119790E0042E02C0959587950A94E2F702
:1005300080FF05C020503C4F02C0220F331F6717B9
:10054000C1F4C901805094409C0135952795280F2E
:10055000391F8BEF2035380714F420E53BEFC90134
:1005600024E0813B920714F080EB94E09C01205042
:100570003C4F2454384F299339934F5F5F4F319646
:100580004C30510509F0B1CFDF91CF911F910F9100
:10059000FF90EF9008955C9A42985C9898E010C0A4
:1005A00087FF07C042980000419A0000429A00006D
:1005B00006C04298000041980000429A0000880F4F
:1005C000915070F7429808958F770E94CB0208955A
:1005D000429898E010C087FF07C042980000419AF7
:1005E0000000429A000006C04298000041980000B6
:1005F000429A0000880F915070F7429808951F9317
:10060000162F80680E94CB02812F0E94E8025C9A1C
:100610001F9108951F93809111038F5F80931103A1
:10062000883010F010921103E0911103F0E0E151D5
:10063000FE4F108189E7612F0E94FF028091FB012C
:10064000181738F08091FC01811718F08EE064E0F3
:1006500002C08EE060E00E94FF02109277021092CA
:100660007602109279021092780210927B02109218
:100670007A0210927D0210927C021F910895429896
:1006800080E090E0880F429A0000309981604298A3
:1006900000009F5F9830B1F708950E94E4020E9425
:1006A0003F035C9A089583E00E944D038093EF021C
:1006B00084E00E944D038093F00286E060E00E9497
:1006C000FF0287E061E00E94FF026091E60166237D
:1006D00011F089E002C089E067EC0E94FF028AE025
:1006E00065E00E94FF028BE062E10E94FF028CE065
:1006F00065E10E94FF028DE06AE00E94FF028EE049
:1007000060E00E94FF028FE163E00E94FF028EE141
:100710006AE00E94FF0282E160E60E94FF0283E13C
:1007200068EF0E94FF028FE060E80E94FF028DE107
:1007300060E40E94FF028CE166E20E94FF0280E218
:1007400064E40E94FF0281E260E00E94FF0282E214
:1007500062EF0E94FF0283E26CE70E94FF0284E2E4
:1007600066E00E94FF0285E26DE70E94FF028AE2D6
:100770006EE10E94FF0280E36CEA0E94FF0282E3C6
:100780006CE80E94FF0283E36AE00E94FF0284E3B8
:1007900064E00E94FF0285E362E20E94FF0286E3BA
:1007A0006DE20E94FF0287E364ED0E94FF0288E38E
:1007B00060E00E94FF0289E360E00E94FF028EE396
:1007C00060E10E94FF028DE66FE00E94FF028EE66C
:1007D0006CE30E94FF028FE66FE90E94FF0289E648
:1007E00060E60E94FF0280E76EE20E94FF0289E756
:1007F00060E00E94FF028AE766E00E94FF0281E754
:1008000063E20E94FF0282E76EE00E94FF0285E73A
:1008100063E50E94FF0286E76CE40E94FF0287E71F
:1008200060EE0E94FF02089587E061E00E94FF02EF
:100830008EE764E20E94FF0288E063E00E94FF020C
:1008400088E060E00E94FF0287E065E00E94FF020E
:1008500085E062E00E94FF0283E00E944D038093E6
:10086000EF0284E00E944D038093F002089583E03C
:100870000E944D038093EF0284E00E944D03809319
:10088000F00287E061E00E94FF0208950F931F933A
:10089000CF93DF9380910C038093F1029091AF028C
:1008A0009093F20280919A02882321F48091800231
:1008B000882319F490689093F2021092AF020CE929
:1008C00012E020EB32E0C3EFD2E0F9013896D80114
:1008D0006D917C916115710511F441E001C0462FC5
:1008E000D9018C91888380819181642F70E00E946E
:1008F000291C688780899189642F70E00E94291CD7
:10090000688BD9011D929D0111821082118A108A73
:10091000D8011D921D928D0121963296B2E00C3ABB
:100920001B07A9F610920B03DF91CF911F910F9136
:100930000895EF92FF920F931F938091E80188230F
:1009400009F48DC0E0910B03EA3168F5F0E06091A5
:10095000E2017091E3016E0F7F1FEF50FD4F86E1C2
:1009600093E040810E94681580910B038F5F809314
:100970000B038A3109F04CC08091E2019091E301B0
:100980004A969093E3018093E2012091E001309137
:10099000E10182179307E0F188E590E09093E3018D
:1009A0008093E20135C0EA3139F44091E30186E1F8
:1009B00093E06DE070E008C0EB3171F486E193E004
:1009C0006CE070E04091E2010E94681580910B0399
:1009D0008F5F80930B031CC0EC31D1F48DE18093C9
:1009E0000B038091AC029091AD02892B41F486E11A
:1009F00093E06EE070E040910C030E9468158091D6
:100A0000AC029091AD0201969093AD028093AC023E
:100A100020918102309182024091830250918402A0
:100A200080910D0390910E03A0910F03B0911003DC
:100A300079018A01E81AF90A0A0B1B0BD801C701D0
:100A400080569A4EA040B04050F020930D03309352
:100A50000E0340930F03509310030E9446041F910E
:100A60000F91FF90EF9008950F931F93CF93DF9313
:100A70000FEA11E0C0E4D0E0F801418186E193E0A3
:100A8000BE010E946815219686E193E0BE01F8013F
:100A900040810E9468150E5F1F4F2196F1E0073CD0
:100AA0001F0751F7DF91CF911F910F910895462FA6
:100AB000BC016F5E7F4F86E193E00E946815089548
:100AC000DF92EF92FF920F931F938C01D62E472F48
:100AD000B6E1EB2EB3E0FB2EC701B8010E9468150A
:100AE0000F5F1F4FC701B8014D2D0E9468151F9160
:100AF0000F91FF90EF90DF900895EF92FF920F9388
:100B00001F93CF93DF9304EE11E0EE24FF24C0E0A7
:100B1000D0E0CE01F80160810E945705F801819173
:100B20008F01E80EF11C2196C530D10591F7CFEE6B
:100B3000D1E00BE010E0C80168810E94570589915F
:100B4000E80EF11C0F5F1F4FF1E0C73FDF0799F779
:100B5000C9EED1E003E110E0C80168810E945705A9
:100B60008991E80EF11C0F5F1F4F81E0CF3ED8073F
:100B700099F789E190E06091FB010E94570580910F
:100B8000FB01E701C80FD11D8AE190E06091FC01F3
:100B90000E9457058091FC01C80FD11D8CE190E0A7
:100BA0006091FD010E9457058091FD01C80FD11D84
:100BB00008EF11E088E2E82EF12CC701F80160810E
:100BC0000E945705F80181918F01C80FD11D08942B
:100BD000E11CF11CF1E00B3F1F0779F78AE090E080
:100BE000BE010E946005DF91CF911F910F91FF9090
:100BF000EF900895AF92BF92CF92DF92EF92FF9263
:100C00001F93CF93DF933FEAC32E31E0D32E20E42E
:100C1000E22EF12C98EBA92E9BE0B92E86E193E011
:100C2000B7010E946115182FB7016F5F7F4F86E1F2
:100C300093E00E946115D12FC0E09E01280F311D65
:100C4000C901F601318320838C5697408959984019
:100C500018F0F601B182A08222E030E0E20EF31E2D
:100C6000C20ED31E38E5E316F104C1F6DF91CF9131
:100C70001F91FF90EF90DF90CF90BF90AF900895BD
:100C8000BC016F5E7F4F86E193E00E94611508957D
:100C9000DF92EF92FF920F931F938C0146E1E42EB7
:100CA00043E0F42EC701B8010E946115D82E0F5FF2
:100CB0001F4FC701B8010E9461153D2D20E0280F8C
:100CC000311DC9011F910F91FF90EF90DF900895A2
:100CD0000F931F93CF93DF9300E010E0C0E0D0E0CC
:100CE000CE010E944006FE01EC51FE4F8083080FAA
:100CF000111D2196C530D10599F7CBE0D0E0CE018A
:100D00000E944006FE01EC51FE4F8083080F111D2A
:100D10002196C331D10599F7C3E1D0E0CE010E94FD
:100D20004006FE01EA52FE4F8083080F111D2196F6
:100D3000C931D10599F78091EA01883008F05BC08C
:100D4000863008F059C0823010F491E002C091E082
:100D5000891B8093EB01981708F4891B8093EC01A1
:100D60001092ED0189E190E00E9440068093FB0122
:100D7000080F111D8AE190E00E9440068093FC015B
:100D8000080F111D8CE190E00E944006982F8150C1
:100D9000883020F49093FD01090F111DC8E2D0E0C6
:100DA000CE010E944006FE01E053FE4F8083080FF3
:100DB000111D2196CB32D10599F78AE290E00E946D
:100DC00040068093FA0181508C3010F01092FA01A5
:100DD0008091FA01080F111D8AE090E00E944806F8
:100DE00020E08017910709F421E0822FDF91CF9155
:100DF0001F910F91089587E092E0AACF0F931F9360
:100E0000CF93DF93E0E0F0E000E010E08491080F82
:100E1000111D319680E4E030F807C1F79091AE01E2
:100E200080E02091AD01EC01C20FD11D86E090E081
:100E30000E944806C817D90761F086E090E0BE011D
:100E40000E94600588E090E0B8010E94600520E003
:100E500009C088E090E00E94480620E080179107D2
:100E600009F021E0822FDF91CF911F910F9108951A
:100E70000F931F93CF93DF93E2E0F0E081E2809342
:100E800057008491843931F488EF91E09093E10127
:100E90008093E00186E193E06CE070E00E946115D0
:100EA000082F10E01093E3010093E20186E193E044
:100EB0006DE070E00E946115382F20E0200F311F97
:100EC0003093E3012093E2012835310538F0809119
:100ED000E0019091E10128173907C0F088E590E022
:100EE0009093E3018093E20186E193E06CE070E08F
:100EF00048E50E9468154091E30186E193E06DE0CA
:100F000070E00E94681510920C0316C0C901CE97BC
:100F10006AE170E00E94291C882331F0281B310906
:100F20003093E3012093E20186E193E06EE070E00C
:100F30000E94611580930C0380910C038F5F809356
:100F40000C03843610F010920C03A0EBB2E0FD010C
:100F50003896CCE9D2E01D9211821082118A108A53
:100F600019921992329682E0A83BB807A1F7109225
:100F7000AF028AE180930B031092AD021092AC0293
:100F80000E94391660930D0370930E0380930F0334
:100F900090931003DF91CF911F910F9108950E94BC
:100FA000370462E370E080E090E00E9447160E9400
:100FB000140400000895EF92FF920F931F93CF93B4
:100FC000DF937B01142F9C01442737FD4095542F5C
:100FD00060E271EA87E090E00E94721CE90125302E
:100FE000310514F4C5E0D0E0177018608DE6612F6C
:100FF0000E94FF022D9A6AE070E080E090E00E947B
:1010000047162D98A895B701882777FD8095982FCA
:1010100020E930ED43E050E00E940A1C9E01442785
:1010200037FD4095542F0E94721C790100E010E0BA
:101030000AC0419ACE010E94A0164198CE010E949A
:10104000A0160F5F1F4F0E151F059CF3DF91CF9168
:101050001F910F91FF90EF90089583E00E944D0340
:101060008093EF0284E00E944D038093F00286E0BB
:1010700060E00E94FF0287E061E00E94FF0289E0D9
:101080006091E6010E94FF028AE065E00E94FF0293
:101090008BE062E10E94FF028CE065E10E94FF02AA
:1010A0008DE06AE00E94FF028EE060E00E94FF0295
:1010B00080E76CE20E94FF0280E360E00E94FF0292
:1010C00089E76091E9010E94FF028AE766E00E94D9
:1010D000FF0281E762E10E94FF0282E762E00E9474
:1010E000FF0283E760E00E94FF0284E760E00E9465
:1010F000FF028EE060E00E94FF026091EA016770EB
:1011000068608DE60E94FF026AE070E080E090E097
:101110000E94471687E069E00E94FF0288EB91E099
:1011200061E070E04091EA010E94DB078DE591E00B
:1011300061E070E04091EB010E94DB078FEA90E0F4
:1011400061E070E04091EC010E94DB0785E091E0F6
:1011500061E070E04091ED010E94DB0787E061E013
:101160000E94FF0208951F920F920FB60F92112452
:101170002F933F934F935F936F937F938F939F939F
:10118000AF93BF93CF93DF93EF93FF93809184004E
:10119000909185008097D0F385B1807E85B988B124
:1011A0008F7C88B98BB18F718BB980918002882335
:1011B00019F4C0E4DCE99EC0809115038F5F809331
:1011C00015033091FE01381730F41092730210921B
:1011D0007202109215032091150380917202909172
:1011E0007302231761F434E8803D930718F0C0E7D9
:1011F000D7E113C0C0E4DCE9C81BD90B0EC0E22F55
:10120000F0E0EE0FFF1FE953FE4FC081D1818C0F3C
:101210009D1F909373028093720280911203882322
:1012200089F5243019F1253058F42130D9F02130D6
:10123000B8F0223009F45DC0233009F05BC014C05F
:101240002730D1F0283030F4253091F0263009F0E5
:1012500051C010C0283091F0293009F04BC010C0A7
:101260005D9A48C05E9A46C0289A44C0299A42C0F6
:101270002A9A40C02B9A3EC02C9A3CC0449A3AC04D
:10128000459A38C08AEF90E00E94A016809115031D
:10129000282F30E02C5F3F4F8091FD01281B310942
:1012A00026303105E9F02730310554F4243031057A
:1012B00099F02530310594F423303105C1F40AC08A
:1012C0002830310589F02830310564F029303105A6
:1012D00071F40CC0289A0BC0299A09C02A9A07C039
:1012E0002B9A05C02C9A03C0449A01C0459AC45F4A
:1012F000D1405F9A80E49CE98C1B9D0B9093850004
:1013000080938400FF91EF91DF91CF91BF91AF91D6
:101310009F918F917F916F915F914F913F912F910D
:101320000F900FBE0F901F9018951F93182F06C097
:101330008CEA93E060E20E94A61911501123C1F7D4
:101340001F9108951F93182F8A3020F482E00E9485
:10135000950907C0843628F48CEA93E060E20E9485
:10136000A6198CEA93E0612F4AE050E00E94521BDC
:101370008CEA93E060E20E94A6191F910895CF9332
:10138000DF938CEA93E060E071E00E94F41BC8E513
:10139000D0E012C086E193E0BE014FEF0E946815D5
:1013A000CE018F779070892B29F48CEA93E06EE25E
:1013B0000E94A619A89521968091E0019091E101E3
:1013C000C817D90738F388E590E09093E30180933C
:1013D000E20110920C0386E193E06CE070E048E5D6
:1013E0000E9468154091E30186E193E06DE070E0B2
:1013F0000E94681586E193E06EE070E040910C0376
:101400000E9468150E9438078CEA93E06CE171E055
:101410000E94F71BDF91CF9108951F93CF93DF9325
:10142000EC01162FFE0121966491662329F08CEAC7
:1014300093E00E94A619F6CF112321F08CEA93E0E5
:101440000E94751ADF91CF911F91089587E791E06F
:1014500061E00E940D0A8AE891E060E00E940D0AB6
:101460008CEA93E06091AD014AE050E00E94641B79
:1014700008959F92AF92BF92CF92DF92EF92FF9228
:101480000F931F93CF93DF93833719F020E08335B9
:1014900009F421E0A22E8C3619F090E08C3409F486
:1014A00091E0B92E843619F09924843411F49924EA
:1014B0009394222331F4992311F4AA24A394BB24F6
:1014C000B3948CEA93E062E271E00E94F41B8CEA30
:1014D00093E068E570E04AE050E00E94C21B8CEAAD
:1014E00093E063E371E00E94F41B6091E00170916E
:1014F000E1018CEA93E04AE050E00E94241B8CEA70
:1015000093E065E371E00E94F41B6091E201709149
:10151000E3018CEA93E04AE050E00E94351B8CEA3C
:1015200093E06DE371E00E94F41BAA2029F08EE99C
:1015300091E060E00E940D0ABB2031F08EEC91E05A
:1015400061E00E940D0A04C08CEA93E00E94751AC3
:10155000C091E201D091E301CC24FF248E010F5F02
:101560001F4F86E193E0BE010E946115D82E84E6EC
:101570008D1520F4992011F46A9675C0DF10CC24E3
:101580008D2D0E94A209C3948C2D0E94A209AA202D
:1015900069F178010894E11CF11C86E193E0B8013F
:1015A0000E946115182F8F770E94A2098CEA93E0A0
:1015B00060E20E94A619812F881F8827881F0E9439
:1015C000A20985E00E949509B7012A968B010F5F59
:1015D0001F4F86E193E00E9461150E94A209B801A5
:1015E0000C171D0799F7E701289602C0E801299614
:1015F000BB2091F183E00E949509AA2029F08CEA92
:1016000093E060E20E94A619BE018E01085F1F4FA1
:101610007B010894E11CF11C86E193E00E946115B6
:101620000E94A209E016F10611F0B701F1CF84E0A3
:101630000E949509B80160968B010F5F1F4F86E1EC
:1016400093E00E9461150E94A209B8010C171D07C2
:1016500099F7E701289601C060968CEA93E00E9412
:10166000751AA895FD2C8091E0019091E101C817B1
:10167000D90710F0C8E5D0E08091E2019091E30134
:10168000C817D90709F06ACFDF91CF911F910F9149
:10169000FF90EF90DF90CF90BF90AF909F90089514
:1016A000FF920F931F93CF93DF938EE491E061E05D
:1016B0000E940D0AFF2401E010E0CF2DD0E0FE01D2
:1016C000E150FE4F808190E08017910729F58CEA68
:1016D00093E0B8014AE050E00E94C21B8CEA93E01C
:1016E0006DE30E94A619C8010E944006682F8CEA8B
:1016F00093E04AE050E00E94521B8CEA93E069E0DC
:101700000E94A619CC0FDD1FCC5EDD4F8881998128
:1017100061E00E940D0AF3940F5F1F4F0B32110519
:1017200061F6DF91CF911F910F91FF900895AF92D5
:10173000BF92CF92DF92EF92FF920F931F93CF93BE
:10174000DF935C0101960E9429029C0101978E3F64
:10175000910510F010E01EC0122F82E090E0F5011C
:10176000E80FF91FE081EE23A9F00196ED3279F43C
:101770008A0D9B1D0E9429029C01812F90E08217F7
:10178000930740F42F3F310528F4C22E05C08A305C
:10179000910529F7BEEFCB2E0E9453030E94CF077D
:1017A0008EE060E00E94FF0286ED90E061E00E9422
:1017B0000D0AE12EAEC089E76E2D0E94FF028DEE6C
:1017C00092E00E94A0160FEFFF24C0E0D0E010E0EE
:1017D00083E690E00E94A01686E20E944D03C80FA7
:1017E000D11D801708F4082FF81608F4F82E1F5F93
:1017F000173C71F789E08E1538F08CEA93E066E4C7
:1018000071E00E94F41B08C0E3E6EE1528F08CEAB4
:1018100093E060E20E94A6198CEA93E06E2D4AE004
:1018200050E00E94521BEFEEF1E06AE380818E15DA
:1018300009F463E2319681E0E73FF807B9F78CEAF3
:1018400093E00E94A6198CEA93E060E20E94A61938
:10185000802F0E94A209CE0167EC70E00E94291C33
:10186000162F862F0E94A2098F2D0E94A209F50132
:1018700080818E3409F047C00A3010F4DD2408C09E
:10188000083418F0ADE3DA2E03C0F6EFDF2ED00EE9
:10189000F9E0FF1510F000E007C087E48F1510F4A1
:1018A0000DE302C00F2D0A501A3010F4FF2408C0B7
:1018B000183418F0EDE3FE2E03C076EFF72EF10E8C
:1018C00010E01F1521F48CEA93E06AE217C01D15A1
:1018D00021F48CEA93E06CE311C0101721F48CEA38
:1018E00093E06EE30BC0D11630F4101720F48CEAAD
:1018F00093E06EE203C08CEA93E060E20E94A619D6
:101900001F5F0117F0F68CEA93E00E94751AA89504
:10191000E394CE1408F04FCFDF91CF911F910F9138
:10192000FF90EF90DF90CF90BF90AF900895EF922F
:10193000FF920F931F93CF93DF937C01FC011082E2
:1019400000E010E08CEA93E00E943C19181619069A
:10195000CCF58CEA93E00E944D19469739F481E763
:10196000F701808311821092F70134C08CEA93E072
:101970000E946D19EC011816190654F58CEA93E0D3
:101980006C2F0E94A619CD30D10519F0CA30D105AF
:1019900029F48CEA93E00E94751A1CC0C830D10566
:1019A00031F40115110571F201501040CBCFF70150
:1019B000E00FF11FC08311820A3011054CF40F5F54
:1019C0001F4F06C061E070E080E090E00E94471683
:1019D000A895B8CFDF91CF911F910F91FF90EF9015
:1019E0000895CF92DF92EF92FF920F931F93DF93B0
:1019F000CF93CDB7DEB72C970FB6F894DEBF0FBEEE
:101A0000CDBF87EE90E061E00E940D0A8E010F5F6E
:101A10001F4FC8010E94970C8981813709F462C069
:101A2000813509F45FC068010E94500B81E091E0AC
:101A300061E00E940D0AC6010E94970C89818E36D2
:101A400011F08E3421F4C6010E94970BF4CF833736
:101A500011F0833549F48A81853619F40E94BF0953
:101A6000EACF0E94390AE7CF8137E1F18135D1F120
:101A7000C6010E9429027C018BE2E816F104A0F65F
:101A8000C6010E94970C8981813761F1813551F13E
:101A9000C6010E9429028C018F3F910509F020F6B2
:101AA000E114F10419F4009709F4BECF8CEA93E035
:101AB000B7014AE050E00E94C21B8CEA93E06DE35C
:101AC0000E94A6198CEA93E0B8014AE050E00E9417
:101AD000D51BC701602F0E9457050E9468060E940F
:101AE0007D05A2CF2C960FB6F894DEBF0FBECDBFFA
:101AF000CF91DF911F910F91FF90EF90DF90CF90EA
:101B000008958CEA93E00E943C191816190614F007
:101B100020E00CC08CEA93E00E946D198D3691058F
:101B200021F020E08D34910509F421E0822F089501
:101B30001F93CF93DF93EC0110E010C06DE770E0CE
:101B400080E090E00E944716CB30D10568F00E94FB
:101B5000810D882349F00E94F10C10C0812F90E084
:101B60008C179D0758F30AC0439A6DE770E080E038
:101B700090E00E94471643981F5FF0CFDF91CF910E
:101B80001F910895EF92FF920F931F93809181020E
:101B900090918202A0918302B09184022091EB0285
:101BA0003091EC024091ED025091EE02821B930BBA
:101BB000A40BB50B4497A105B10508F45FC08CEAEE
:101BC00093E00E943C19082F10E02CE8E22EFF243D
:101BD000F39451C08CEA93E00E946D19982F809184
:101BE000E802882361F4963109F044C09093D8024A
:101BF000F092E8021092EA021092F7013BC0E82F3F
:101C0000F0E0E852FD4F90838F5F8093E8028031CF
:101C100088F11092E802EAEDF2E090E080819827E6
:101C200040E0892F90E09C013595279580FF03C007
:101C30009E2D922701C0922F4F5F483091F7319629
:101C400082E0E73EF80751F79923A1F480918102E1
:101C500090918202A0918302B09184028093EB0262
:101C60009093EC02A093ED02B093EE0281E080939A
:101C7000EA0204C01F5F10170CF4ACCF1F910F9144
:101C8000FF90EF900895FF920F931F938530A8F572
:101C9000880F082F10E0000F111FF801E25CFD4FC4
:101CA000F0808F2D60E00E9445178F2D61E00E942B
:101CB0008417005C1D4FF8010081802F61E00E94B5
:101CC000841782E090E00E94A0168F2D0E94D81702
:101CD000019779F4802F60E00E94841782E090E001
:101CE0000E94A0168F2D0E94D817892B11F481E035
:101CF00005C08F2D61E00E94451780E01F910F9174
:101D0000FF9008950E94FE06882369F08091E90201
:101D1000882329F48AE890E061E00E940D0A88E7B0
:101D200090E00E94980D82E00E94430E8823A1F06B
:101D300084E090E00E94980D0E947D058091E90268
:101D4000882329F48AEB90E061E00E940D0A84E088
:101D500090E00E94980D08950E946806882369F417
:101D60008091E902882329F485EA90E061E00E94ED
:101D70000D0A88E790E00E94980D08951F93E82FC0
:101D8000F62F4091F801442331F4882311F010E03C
:101D90001CC01FE71AC02091130330911403C9011E
:101DA000642F70E00E94291C261B370BFE9FC00188
:101DB0001124280F391F3093140320931303C901F2
:101DC000642F70E00E94291C162F83E0612F70E0C1
:101DD0000E94E51610937E0210927F021F910895D3
:101DE0005F926F927F928F929F92AF92BF92CF92AB
:101DF000DF92EF92FF920F931F93CF93DF9380E0D8
:101E00000E94430E80931203882319F08AE0809386
:101E1000FE0184E00E94430E8093E90281E090E09D
:101E20000E94980D8091E902882331F40E94260ACD
:101E300081E090E00E94980D0E94820E0E94380777
:101E40000E94FA050E945303109280028EE028E15E
:101E500030E00FB6F894A895209360000FBE8093F1
:101E600060008091E902882309F05FC08CEA93E06A
:101E700069E471E00E94F41B8CEA93E06091E40154
:101E80004AE050E00E94641B0E94500B8CEA93E0F1
:101E90006EE471E00E94F41B84E00E944D03682F01
:101EA00070E0617070708CEA93E04AE050E00E944C
:101EB000D51B8CEA93E063E571E00E94F71B80E09C
:101EC0000E944D03682F8CEA93E04AE050E00E94A4
:101ED000641B81E00E944D03682F8CEA93E04AE086
:101EE00050E00E94641B82E00E944D03682F8CEA40
:101EF00093E04AE050E00E94641B8CEA93E069E5BD
:101F000071E00E94F41B81E10E944D03682F70E094
:101F1000605470408CEA93E04AE050E00E94D51B88
:101F200088E690E061E00E940D0A772457EC952E38
:101F30004CE8542E81E08093DF010E9414040E943B
:101F4000CF07789483E080939B020E9439166093B8
:101F50008102709382028093830290938402609343
:101F60008502709386028093870290938802609323
:101F7000890270938A0280938B0290938C02609303
:101F80008D0270938E0280938F029093900288242A
:101F9000AA24BB2466246394A8958CE00E944D0378
:101FA000882371F40E9453030E94CF078091E902B5
:101FB000882331F48CEA93E06CE571E00E94F71B12
:101FC0000E9439169B01AC016093810270938202DA
:101FD000809383029093840280918D0290918E026F
:101FE000A0918F02B091900269017A01C81AD90AB2
:101FF000EA0AFB0A8091F7018823C1F080918502EB
:1020000090918602A0918702B0918802281B390B1B
:102010004A0B5B0B2F5037424040504038F40E942F
:10202000810D882329F00E94F10C1DC00E94C20D71
:102030008091E6018823C9F58CEA93E00E943C195F
:102040001816190694F58CEA93E00E946D198D30EC
:1020500069F49092E6010E947D058CEA93E063E6C4
:1020600071E00E94F71B0E94530364CF8E3321F06E
:102070008E3211F08E3E11F4939408C08C3329F007
:102080008C3219F0813A09F087CF9A94992011F493
:1020900099249A9489E0692D0E94FF028CEA93E0CA
:1020A000692D4AE050E00E94641B8091810290916A
:1020B0008202A0918302B091840220918902309122
:1020C0008A0240918B0250918C02821B930BA40BCD
:1020D000B50B88559240A040B04008F45BC0809199
:1020E0009A02882309F056C080918002882309F45F
:1020F00051C08091E902882331F48CEA93E06AE6CA
:1021000071E00E94F71B60929A0280918102909187
:102110008202A0918302B0918402809391029093F5
:102120009202A0939302B09394020E94FA0520E0D9
:1021300030E0F901E953FE4FD901A155BE4F8D9111
:102140009C91918380832E5F3F4F2831310589F721
:10215000E091FA01EE2391F0F0E0EE0FFF1FEB5358
:10216000FE4F80917E0290917F0286509F4F23E028
:10217000880F991F2A95E1F79183808360928002EE
:10218000439880E068E00E94BE0E8091AF028F5FAE
:102190008093AF028091810290918202A09183028C
:1021A000B09184022091950230919602409197025D
:1021B00050919802821B930BA40BB50B885B9B403C
:1021C000A040B04010F06092DF0187E0C816D10453
:1021D000E104F104D4F48BE291E00E94A016009196
:1021E0007A0210917B0286E20E944D03080F111DB6
:1021F00010937B0200937A0280917C0290917D0281
:10220000019690937D0280937C028091DF01882368
:1022100019F02FEF30E02EC0D701C6010A97A109AF
:10222000B1090997A105B105D8F483EF91E00E94A7
:10223000A016009176021091770286E20E944D036B
:10224000080F111D10937702009376028091780297
:10225000909179020196909379028093780208C058
:1022600027E1C216D104E104F10414F40E94990498
:1022700023E230E0C901AA2797FDA095BA2FC8161E
:10228000D906EA06FB060CF4ACC08091DF01882376
:1022900019F580919A02882309F4439A80911103D9
:1022A00020918D0230918E0240918F0250919002C8
:1022B00080FF05C0205E3F4F4F4F5F4F04C0215E3F
:1022C0003F4F4F4F5F4F20938D0230938E024093CC
:1022D0008F025093900210C08091810290918202EF
:1022E000A0918302B091840280938D0290938E021C
:1022F000A0938F02B09390026091DF0187E0689F06
:10230000B00111246F5F80E00E94BE0E8091E9024F
:10231000882309F05CC08CEA93E060E771E00E94DA
:10232000F41B60917402709175026F5F7F4F709320
:102330007502609374028CEA93E04AE050E00E94D8
:10234000241B60917C0270917D026115710551F032
:1023500080917A0290917B020E94291C70937B02EB
:1023600060937A028CEA93E064E771E00E94F41BC8
:102370006091AC027091AD028CEA93E04AE050E0CB
:102380000E94241B8CEA93E068E771E00E94F41B32
:102390006091110370E06F5F7F4F8CEA93E04AE039
:1023A00050E00E94C21B8CEA93E06CE771E00E944F
:1023B000F41B60917A0270917B028CEA93E04AE010
:1023C00050E00E94241B8CEA93E00E94751AE09171
:1023D0001103F0E0E255FD4F82818F5F82830E94FE
:1023E0000A0380919B02843009F00CC243982D9A15
:1023F0008FE70E94E402C2E6D2E00E943F03899385
:1024000082E0C237D807C9F70E941404FE013E9744
:1024100090E08081982740E0892F90E09C013595DD
:10242000279580FF03C0952D922701C0922F4F5F03
:10243000483091F7319622E0E137F20751F79923BE
:1024400051F08091E902882309F0C0C18CEA93E041
:1024500061E871E00FC0909162028091E5019817E8
:1024600061F08091E902882309F0B0C18CEA93E021
:1024700066E871E00E94F71BA9C1CF010F970E9487
:102480005E0280917102813089F4772081F480911D
:10249000E902882331F48CEA93E06CE871E00E9451
:1024A000F71B0E9434057724739401C07724609150
:1024B0007802709179026115710551F08091760270
:1024C000909177020E94291C7093770260937602A4
:1024D00080917602909177029093790280937802AE
:1024E00060917C0270917D026115710551F08091BF
:1024F0007A0290917B020E94291C70937B02609368
:102500007A0220917A0230917B028091760290913A
:1025100077028217930728F41092770210927602BE
:1025200006C0821B930B9093770280937602809172
:10253000F901882329F0809176029091770204C0F6
:10254000809178029091790290937F0280937E022D
:1025500080917E0261E00E94BE0E8BE20E944D03DC
:10256000C82FD0E08091E902882309F04EC08CEAA0
:1025700093E061E971E00E94F41B60917802709130
:1025800079028CEA93E04AE050E00E94241B8CEA36
:1025900093E064E771E00E94F41B6091AC027091DB
:1025A000AD028CEA93E04AE050E00E94241B8CEAE2
:1025B00093E068E771E00E94F41B6091110370E002
:1025C0006F5F7F4F8CEA93E04AE050E00E94C21BAD
:1025D0008CEA93E064E971E00E94F41B8CEA93E0DA
:1025E000BE014AE050E00E94C21B8CEA93E06CE717
:1025F00071E00E94F41B60917A0270917B028CEA78
:1026000093E04AE050E00E94351BE0911103F0E0B6
:10261000EE0FFF1FDF01A854BD4F8D919C911197C4
:102620002091780230917902820F931F8D939C93B1
:10263000DF01A853BD4F8D919C91119720917A0293
:1026400030917B02820F931F8D939C93E456FD4F34
:10265000808191810196918380834091E60144239A
:1026600009F452C0C038D10514F0C050D140CE0199
:102670004496899718F020E030E006C09E01B4E04F
:10268000220F331FBA95E1F78394C50160E170E032
:102690000E943D1CA61AB70AC90160E170E00E94C1
:1026A0003D1CA60EB71EC501B7FE04C0882799279A
:1026B0008A199B09813491053CF180E2881520F547
:1026C000C50160E170E00E943D1CEB01D095C19511
:1026D000DF4F642F6C0F6093E60189E00E94FF02D8
:1026E0008091E902882369F48CEA93E068E971E05B
:1026F0000E94F41B8CEA93E0BE014AE050E00E9485
:10270000D51B8824AA24BB2410929A021092990205
:102710008091810290918202A0918302B091840203
:102720008093890290938A02A0938B02B0938C02CB
:102730008093910290939202A0939302B09394029B
:102740008093950290939602A0939702B09398027B
:102750001092DF01109275021092740220E030E0B6
:10276000F901E953FE4FD901A155BE4F8D919C91BE
:10277000918380832E5F3F4F2831310589F7E091A7
:10278000FA01EE2391F0F0E0EE0FFF1FEB53FE4F46
:1027900080917E0290917F0286509F4F73E0880F58
:1027A000991F7A95E1F791838083609280028091EE
:1027B000E902882359F086E1809362028CEA93E073
:1027C00062E672E040E150E00E944B1A0E940A0368
:1027D0008091810290918202A0918302B091840243
:1027E00080938D0290938E02A0938F02B0939002FB
:1027F00061E070E080E090E00E94471683E0809303
:102800009B022D988091EA02882309F477C0809179
:10281000950290919602A0919702B09198028196AC
:10282000A11DB11D2091EB023091EC024091ED020F
:102830005091EE0282179307A407B50708F05EC017
:1028400088ED92E00E945E0220E030E0F901E95359
:10285000FE4FD901A155BE4F8D919C9191838083EC
:102860002E5F3F4F2831310589F7E091FA01EE23C1
:1028700091F0F0E0EE0FFF1FEB53FE4F80917E02D0
:1028800090917F0286509F4F53E0880F991F5A9571
:10289000E1F791838083609280021092EA021092A5
:1028A0009A02109299028091810290918202A091E5
:1028B0008302B09184028093890290938A02A0934C
:1028C0008B02B0938C028093910290939202A0931A
:1028D0009302B09394028091E902882339F48CEA40
:1028E00093E06FE971E00E94F71B08C08CEA93E067
:1028F00068ED72E040E150E00E944B1A80919A022C
:10290000882309F449CB0E949904E0908102F09059
:102910008202009183021091840280919102909131
:102920009202A0919302B0919402E81AF90A0A0B5C
:102930001B0B6091EE0180919902882349F028E8F1
:10294000E21623E1F20620E0020720E012077CF401
:1029500070E080E090E028EE33E040E050E00E943C
:102960000A1C6E157F05800791070CF015CB60924D
:1029700099028091EE018F3F61F08091E9028823F6
:1029800031F48CEA93E064EA71E00E94F71B0E9444
:102990002D088091E902882331F48CEA93E068EAFB
:1029A00071E00E94F71B0E9453030E94140480915F
:1029B000810290918202A0918302B091840280935F
:1029C000910290939202A0939302B0939402E4CA6E
:1029D0008DE061E00E94451781E161E00E944517AA
:1029E0008EE060E00E9445178FE061E00E9445178D
:1029F00080E161E00E94451782E060E00E94451797
:102A000084E061E00E94451780E060E00E94451785
:102A100081E061E00E94451780E061E00E94841738
:102A200083E061E00E94451785E061E00E94451760
:102A300086E061E00E94451787E061E00E9445174B
:102A400088E061E00E94451789E061E00E94451737
:102A50008AE061E00E9445178BE061E00E94451723
:102A60008CE061E00E94451782E161E00E94451719
:102A700083E161E00E9445178CEA93E040E056E96B
:102A800060E070E00E94B518E1E8F0E0108210927A
:102A900085001092840080E49CE9909387008093E5
:102AA000860082E0809380008AE1808381E08093C9
:102AB0006F0080E06FE472E042E050E00E94741525
:102AC0000895F999FECF72BD61BDF89A80B5089559
:102AD000F999FECF1FBA72BD61BD40BD0FB6F89423
:102AE000FA9AF99A0FBE0895823000F5E82FF0E0C7
:102AF000EE0FFF1FE95EFC4F71836083882319F09E
:102B00008130A1F408C0809169008C7F842B809370
:102B10006900E89A089580916900440F551F440F99
:102B2000551F837F842B80936900E99A08951F9233
:102B30000F920FB60F9211242F933F934F935F93F1
:102B40006F937F938F939F93AF93BF93EF93FF9375
:102B50008091170390911803892B29F0E0911703B6
:102B6000F09118030995FF91EF91BF91AF919F915B
:102B70008F917F916F915F914F913F912F910F9026
:102B80000FBE0F901F9018951F920F920FB60F92C5
:102B900011242F933F934F935F936F937F938F9362
:102BA0009F93AF93BF93EF93FF93809119039091FD
:102BB0001A03892B29F0E0911903F0911A03099562
:102BC000FF91EF91BF91AF919F918F917F916F9105
:102BD0005F914F913F912F910F900FBE0F901F90DB
:102BE00018951F920F920FB60F9211242F933F93B7
:102BF0008F939F93AF93BF9380911F039091200376
:102C0000A0912103B0912203309123030196A11DCD
:102C1000B11D232F2D5F2D3720F02D570196A11DBB
:102C2000B11D2093230380931F0390932003A0934F
:102C30002103B093220380911B0390911C03A09168
:102C40001D03B0911E030196A11DB11D80931B03AE
:102C500090931C03A0931D03B0931E03BF91AF91EB
:102C60009F918F913F912F910F900FBE0F901F90CA
:102C700018958FB7F89420911F033091200340914D
:102C80002103509122038FBFB901CA0108959B010E
:102C9000AC017FB7F89480911B0390911C03A09125
:102CA0001D03B0911E0366B5A89B05C06F3F19F0C8
:102CB0000196A11DB11D7FBFBA2FA92F982F88277C
:102CC000860F911DA11DB11D62E0880F991FAA1FDB
:102CD000BB1F6A95D1F7BC012DC0FFB7F894809156
:102CE0001B0390911C03A0911D03B0911E03E6B538
:102CF000A89B05C0EF3F19F00196A11DB11DFFBFB4
:102D0000BA2FA92F982F88278E0F911DA11DB11DB5
:102D1000E2E0880F991FAA1FBB1FEA95D1F7861B17
:102D2000970B885E9340C8F221503040404050409D
:102D300068517C4F211531054105510571F6089503
:102D4000019739F0880F991F880F991F02970197F3
:102D5000F1F70895789484B5826084BD84B581606C
:102D600084BD85B5826085BD85B5816085BDEEE693
:102D7000F0E0808181608083E1E8F0E01082808172
:102D800082608083808181608083E0E8F0E08081E0
:102D900081608083E1EBF0E0808184608083E0EB00
:102DA000F0E0808181608083EAE7F0E080818460E8
:102DB0008083808182608083808181608083808144
:102DC000806880831092C10008951F93CF93DF9392
:102DD000182FEB0161E00E944517209709F44AC0C3
:102DE000CF3FD10509F449C0E12FF0E0E951FC4F94
:102DF00084918330C1F0843028F4813051F08230E6
:102E0000B1F50CC0863019F1873049F1843079F57D
:102E100014C084B5806884BDC7BD33C084B58062EA
:102E200084BDC8BD2EC080918000806880938000E2
:102E3000D0938900C093880024C080918000806274
:102E400080938000D0938B00C0938A001AC0809139
:102E5000B00080688093B000C093B30012C080912E
:102E6000B00080628093B000C093B4000AC0C03844
:102E7000D1051CF4812F60E002C0812F61E00E9427
:102E80008417DF91CF911F910895CF93DF93482F3F
:102E900050E0CA018D529C4FFC01349141545C4F6B
:102EA000FA018491882369F190E0880F991FFC0151
:102EB000EF55FC4FA591B491FC01E555FC4FC59130
:102EC000D491662351F42FB7F8948C91932F909559
:102ED00089238C93888189230BC0623061F42FB7DA
:102EE000F8948C91932F909589238C938881832BD0
:102EF00088832FBF06C09FB7F8948C91832B8C9347
:102F00009FBFDF91CF910895482F50E0CA018951AA
:102F10009C4FFC012491CA018D529C4FFC0194915D
:102F200041545C4FFA013491332309F440C0222309
:102F300051F1233071F0243028F42130A1F02230F7
:102F400011F514C02630B1F02730C1F02430D9F487
:102F500004C0809180008F7703C0809180008F7DB6
:102F60008093800010C084B58F7702C084B58F7DB8
:102F700084BD09C08091B0008F7703C08091B000FC
:102F80008F7D8093B000E32FF0E0EE0FFF1FE5553B
:102F9000FC4FA591B4912FB7F894662321F48C913E
:102FA0009095892302C08C91892B8C932FBF089513
:102FB000682F70E0CB0189519C4FFC012491CB011B
:102FC0008D529C4FFC01449161547C4FFB019491C4
:102FD000992319F420E030E03CC0222351F1233042
:102FE00071F0243028F42130A1F0223011F514C002
:102FF0002630B1F02730C1F02430D9F404C08091DC
:1030000080008F7703C0809180008F7D8093800047
:1030100010C084B58F7702C084B58F7D84BD09C090
:103020008091B0008F7703C08091B0008F7D809336
:10303000B000892F90E0880F991F8B549C4FFC01A2
:10304000A591B4918C9120E030E0842311F021E02F
:1030500030E0C901089508951F920F920FB60F92A4
:1030600011242F933F934F938F939F93EF93FF934D
:103070008091C00082FD1DC04091C6002091640374
:10308000309165032F5F3F4F2F733070809166033F
:10309000909167032817390771F0E0916403F0916C
:1030A0006503EC5DFC4F408330936503209364031C
:1030B00002C08091C600FF91EF919F918F914F9137
:1030C0003F912F910F900FBE0F901F901895E09198
:1030D000B803F091B903E05CFF4F81919191208199
:1030E0003181821B930B8F739070892B11F00E949A
:1030F0002B1808951F920F920FB60F9211242F9341
:103100003F938F939F93EF93FF932091A803309168
:10311000A9038091AA039091AB032817390731F4D2
:103120008091C1008F7D8093C10014C0E091AA03FB
:10313000F091AB03E859FC4F20818091AA03909154
:10314000AB0301968F7390709093AB038093AA03A7
:103150002093C600FF91EF919F918F913F912F9106
:103160000F900FBE0F901F901895AF92BF92DF92F5
:10317000EF92FF920F931F93CF93DF93EC017A01AD
:103180008B01DD24403081EE580780E0680780E045
:10319000780711F0DD24D39491E0A92EB12CEC89AD
:1031A000FD89DD2069F0C50108A002C0880F991FC4
:1031B0000A94E2F7808360E079E08DE390E005C057
:1031C000108260E874E88EE190E0A80197010E9407
:1031D000501C2150304040405040569547953795FF
:1031E000279580E12030380720F0DD2011F0DD2424
:1031F000D6CFE889F9893083EA89FB89208319A22F
:10320000EE89FF89408121E030E0C9010C8C02C0C9
:10321000880F991F0A94E2F7482B4083EE89FF89B3
:103220004081C9010D8C02C0880F991F0A94E2F7F2
:10323000482B4083EE89FF894081C9010E8C02C072
:10324000880F991F0A94E2F7482B4083EE89FF8983
:1032500080810F8C02C0220F331F0A94E2F7209561
:1032600028232083DF91CF911F910F91FF90EF9042
:10327000DF90BF90AF900895DC011C96ED91FC911A
:103280001D97E05CFF4F2191319180819181281B36
:10329000390B2F733070C9010895DC011C96ED9134
:1032A000FC911D97E05CFF4F20813181E054F0409C
:1032B000DF01AE5BBF4F8D919C91119728173907A5
:1032C00019F42FEF3FEF07C08D919C91E80FF91F84
:1032D0008081282F30E0C9010895DC011C96ED9112
:1032E000FC911D97E05CFF4F20813181E054F0405C
:1032F000DF01AE5BBF4F8D919C9111972817390765
:1033000019F42FEF3FEF10C08D919C911197E80FAA
:10331000F91F20818D919C91119701968F73907068
:1033200011969C938E9330E0C9010895DC0191962B
:103330008C919197882339F05496ED91FC91559793
:10334000808186FFF9CF91961C920895CF93DF93E9
:10335000EC01EE85FF85E05CFF4F20813181E05478
:10336000F0402F5F3F4F2F733070DF01AE5BBF4FD8
:103370008D919C91119728173907D1F3E05CFF4F8D
:1033800080819181E054F040E80FF91F6083EE8561
:10339000FF85E05CFF4F31832083EE89FF89208128
:1033A00081E090E00F8C02C0880F991F0A94E2F729
:1033B000282B208381E089A3EC89FD8980818064AA
:1033C000808381E090E0DF91CF9108951092AF0368
:1033D0001092AE0388EE93E0A0E0B0E08093B003DB
:1033E0009093B103A093B203B093B30386E592E048
:1033F0009093AD038093AC0384E293E09093B90380
:103400008093B80388E693E09093BB038093BA035C
:1034100085EC90E09093BD038093BC0384EC90E036
:103420009093BF038093BE0380EC90E09093C10320
:103430008093C00381EC90E09093C3038093C20318
:1034400082EC90E09093C5038093C40386EC90E0F7
:103450009093C7038093C60384E08093C80383E0FE
:103460008093C90387E08093CA0385E08093CB03F0
:1034700081E08093CC030895CF93DF930E94AA1636
:103480000E94E814C7E6D8E10E94F00E2097E1F30D
:103490000E946718F9CFCF92DF92EF92FF920F93BD
:1034A0001F93CF93DF937C016B018A01C0E0D0E0D2
:1034B0000FC0D6016D916D01D701ED91FC91019086
:1034C000F081E02DC7010995C80FD91F01501040A8
:1034D0000115110571F7CE01DF91CF911F910F9169
:1034E000FF90EF90DF90CF900895EF92FF920F93AF
:1034F0001F938C01DC01ED91FC910190F081E02D96
:103500006DE009957C01D801ED91FC910190F0816D
:10351000E02DC8016AE009959C012E0D3F1DC901EF
:103520001F910F91FF90EF900895CF93DF93EC01DF
:103530006115710519F420E030E00FC0DB010D903A
:103540000020E9F71197A61BB70BE881F9810280EB
:10355000F381E02DAD0109959C01C901DF91CF9167
:1035600008954F925F927F928F929F92AF92BF92F7
:10357000CF92DF92EF92FF920F931F93DF93CF933F
:10358000CDB7DEB7A1970FB6F894DEBF0FBECDBFA3
:103590002C01742ECB01223008F42AE019A231E26A
:1035A000C32ED12CCC0EDD1E822E9924AA24BB243E
:1035B000672D752FA50194010E94501C79018A0185
:1035C000C801B701A50194010E940A1C472D461BA2
:1035D0000894C108D1084A3014F4405D01C0495C28
:1035E000F6014083E114F1040105110521F07E2C60
:1035F0005F2DC801DDCFC201B6010E94951AA196C8
:103600000FB6F894DEBF0FBECDBFCF91DF911F91F3
:103610000F91FF90EF90DF90CF90BF90AF909F9071
:103620008F907F905F904F900895DC0121153105B8
:1036300041F4ED91FC910190F081E02D642F09950A
:1036400008950E94B11A0895EF92FF920F931F936D
:103650009A017B0100E010E0B801A7010E94151B50
:103660001F910F91FF90EF900895CF92DF92EF920C
:10367000FF920F931F936C017B019A0100E010E011
:10368000B801A7010E94151B8C01C6010E94751A82
:10369000080F191FC8011F910F91FF90EF90DF9045
:1036A000CF900895EF92FF920F931F939A01E62E09
:1036B000FF2400E010E0B801A7010E94151B1F9134
:1036C0000F91FF90EF900895CF92DF92EF92FF92CB
:1036D0000F931F936C01E62E9A01FF2400E010E087
:1036E000B801A7010E94151B8C01C6010E94751A22
:1036F000080F191FC8011F910F91FF90EF90DF90E5
:10370000CF900895CF92DF92EF92FF920F931F9385
:10371000CF93DF93EC016A017B012115310541F460
:10372000E881F9810190F081E02D642F09951FC097
:103730002A303105D1F477FF17C0E881F981019073
:10374000F081E02D6DE209958C0144275527BA01DF
:103750004C195D096E097F09CE012AE00E94B11A59
:103760009801280F391F04C02AE00E94B11A9C0159
:10377000C901DF91CF911F910F91FF90EF90DF90E2
:10378000CF900895EF92FF920F931F937B019A01C0
:103790000027F7FC0095102FB801A7010E94821B9B
:1037A0001F910F91FF90EF900895CF92DF92EF92CB
:1037B000FF920F931F936C017B019A010027F7FC86
:1037C0000095102FB801A7010E94821B8C01C60131
:1037D0000E94751A080F191FC8011F910F91FF90C1
:1037E000EF90DF90CF9008950E94951A0895EF9280
:1037F000FF920F931F937C010E94951A8C01C701C1
:103800000E94751A080F191FC8011F910F91FF9090
:10381000EF900895629FD001739FF001829FE00DA9
:10382000F11D649FE00DF11D929FF00D839FF00D3F
:10383000749FF00D659FF00D9927729FB00DE11DEB
:10384000F91F639FB00DE11DF91FBD01CF011124C8
:103850000895AA1BBB1B51E107C0AA1FBB1FA617D7
:10386000B70710F0A61BB70B881F991F5A95A9F729
:1038700080959095BC01CD01089597FB092E0726F0
:103880000AD077FD04D0E5DF06D000201AF4709549
:1038900061957F4F0895F6F7909581959F4F089514
:1038A000A1E21A2EAA1BBB1BFD010DC0AA1FBB1F44
:1038B000EE1FFF1FA217B307E407F50720F0A21BB6
:1038C000B30BE40BF50B661F771F881F991F1A9423
:1038D00069F760957095809590959B01AC01BD014D
:1038E000CF01089597FB092E05260ED057FD04D071
:1038F000D7DF0AD0001C38F45095409530952195BB
:103900003F4F4F4F5F4F0895F6F790958095709514
:1039100061957F4F8F4F9F4F0895EE0FFF1F0590CA
:0A392000F491E02D0994F894FFCF14
:10392A005374617469737469637320696E204545C1
:10393A0050524F4D206572617365200020646F6E8E
:10394A0065004C617374207374617469736963737D
:10395A003A28002D002920666F726D2000464E20FD
:10396A0020636E742000202000532F4E3D004952E0
:10397A00513D00535441525400543D00466945722A
:10398A0072210046697865642100746F20667300AD
:10399A0024524C0020533D0020433D0020526E3DEE
:1039AA0000435243210042494E44210046532057C6
:1039BA0000523D0020413D0046636F72723D002473
:1039CA0053415400534F5300496E6974000601B8BD
:1039DA000BB80BB80BB80BB80BB80BB80BB80BB8C5
:1039EA000BB80BB80BB80BB80BB80BB80BB80BB8B5
:1039FA000BB80BB80BB80BB80BB80BB80BB80B015C
:103A0A00000458006348CC000165040201001E4D01
:103A1A009359A76DBD7FD1010100004BD2040A0161
:103A2A000203040B0C0D0E0F101112131418191A9D
:103A3A001C28292A15021C022602430255025D028D
:103A4A0065026D0275027D0285028D029502AB0246
:103A5A00EC0204030D03160336035E037E0305001E
:103A6A0006000700080009000A000B000C001200FB
:103A7A00130000000000A6194B1A3C196D194D19C4
:023A8A0096198B
:00000001FF
