:100000000C944E020C949B1D0C94C81D0C9476020B
:100010000C9476020C9476020C9476020C94760280
:100020000C9476020C9476020C9476020C94760270
:100030000C9476020C949E020C9476020C94760238
:100040000C94F51D0C9476020C9456200C94A4206C
:100050000C9476020C9476020C9476020C94760240
:100060000C9476020C947602507265737320276D9F
:100070002720746F207374617274204D454E552093
:10008000696E2031302073656300464C415348202F
:100090004552524F522121212043616E277420770F
:1000A0006F726B21004572726F72207265616420FD
:1000B00073657474696E6773210053657474696E37
:1000C000677320726573657420746F206465666160
:1000D000756C7473210046486E3A204D696E20415C
:1000E0007672204D6178000A0D426179636869205B
:1000F000736F66742032303133005258204F706570
:100100006E20457870657274205632204600546F18
:1001100020456E746572204D454E552050726573B2
:100120007320454E544552005479706520526567DE
:1001300020616E6420707265737320454E54455281
:100140002C20747970652056616C756520616E6431
:1001500020707265737320454E5445522028713DBE
:10016000517569743B2073732F736C2F73722F73E7
:10017000613D53746174290052673D56616C2009DA
:10018000436F6D6D656E7473202D2D2D2D2D2D2DCE
:100190002D2D2D2D2D2D2D2D2D2D2D2D2D2D2D2D8F
:1001A000004578656375746520726562696E643FA9
:1001B0002041726520796F75207375726528792FDB
:1001C0006E293F0046536E20496E465320204472EC
:1001D0006F70733A312020203220202033202020DD
:1001E00034202020352020203620202037202020B9
:1001F00038202000525353493A3120202032202009
:10020000203320202034202020352020203620209C
:10021000203720202038204E6F6973653A31202026
:100220002032202020332020203420202035202080
:10023000203620202037202020380046536E2049C9
:100240006E4653204472253A31202032202033203C
:100250002034202035202036202037202038202030
:10026000532F4E3A312020203220202033202020CE
:100270003420202035202020362020203720202028
:10028000380042696E64204E004672657120436FEB
:10029000727200536572766F203135302520737489
:1002A00072656368206E756D2028312D313229000A
:1002B0005374617469737469637320656E61626CF1
:1002C000650031316269742F313063682028313D17
:1002D0007965732C20323D46757461626129004452
:1002E00069736372657465206F75747075747320BB
:1002F0006D61736B00486F7020463100486F70204D
:10030000463200486F7020463300486F70204634F4
:1003100000486F7020463500486F70204636004810
:100320006F7020463700486F702046380042656184
:10033000636F6E204620283235353D6469736162F3
:100340006C652900426561636F6E20506D61782095
:10035000286D5774293A20302D312E323B20312D13
:10036000323B20322D333B20332D363B20342D3190
:10037000323B20352D32353B20362D35303B203772
:100380002D31303000426561636F6E20737461728D
:10039000742074696D652028736563290053415783
:1003A00020466D696E0053415720466D61780050BC
:1003B000504D2F53425553206D6F64652031737437
:1003C0002050574D2063686E6C2028312D3829202D
:1003D0005B345D005253534920747970653A207341
:1003E0006F756E642830292F6C6576656C28312D09
:1003F00039393D6176657261676529005253534909
:10040000206D6F64653A206C6576656C2830292F05
:10041000534E20726174696F283129005253534939
:10042000206F7665722050574D286368616E3A31AF
:100430002D31322920302D6E6F74207573650000C8
:10044000000000240027002A0000000000250028EA
:10045000002B0000000000230026002900040404F3
:10046000040404040402020202020203030303035D
:10047000030102040810204080010204081020013A
:10048000020408102000000007000201000003041D
:1004900006000000000000000000102211241FBE12
:1004A000CFEFD8E0DEBFCDBF13E0A0E0B1E0ECE0DD
:1004B000FCE402C005900D92A830B107D9F714E012
:1004C000A8E0B3E001C01D92A23BB107E1F714E040
:1004D000CCE9D4E004C02297FE010E940026CA396C
:1004E000D107C9F70E9466220C9404260C940000E0
:1004F000FC0188279927E89421912032E9F32930DB
:1005000010F02E30C8F32B3241F02D3239F46894BC
:1005100004C00E949602820F911D219120532A301F
:10052000C0F31EF4909581959F4F08957AE0979FB0
:10053000902D879F802D910D112408951F920F9269
:100540000FB60F9211242F933F934F935F938F9386
:100550009F93AF93BF93EF93FF938091840090910B
:1005600085008097D0F385B190914002892385B9A9
:1005700088B190914102892388B98BB19091420250
:1005800089238BB980912803882309F47DC0809149
:10059000F5038F5F8093F50390913D02981730F437
:1005A00010921903109218031092F5034091F5036D
:1005B0004917B1F42091180330911903E0910B020F
:1005C000F0910C02CF01805797412817390718F096
:1005D00020E737E147C0CF01821B930B9C0142C04B
:1005E000A42F50912603523011F0E42F04C0E09163
:1005F0008F02E40FE150FF27E7FDF095EE0FFF1F9C
:10060000EB5DFD4F208131812452304080911803F1
:1006100090911903820F931F9093190380931803ED
:10062000552369F0513049F44C5F80918F02A42F1B
:10063000A81B4450A3301CF415C0A42FAD5FAC30F0
:1006400088F4BB27A7FDB095FD01EE0FFF1FED5B02
:10065000FD4F0190F081E02D8081A55ABD4F9C9106
:10066000892B808380912603813091F44B3080F474
:10067000289A809184009091850084519240C8F31B
:10068000245F3140289804C020910B0230910C0265
:1006900080910B0290910C02821B930B909385002A
:1006A00080938400FF91EF91BF91AF919F918F91C3
:1006B0005F914F913F912F910F900FBE0F901F9020
:1006C0001895CF93DF9380917902882379F1C3E461
:1006D000D2E020E030E0482F50E0CA01022E02C0F4
:1006E000959587950A94E2F780FF1AC088819981D1
:1006F0008832910511F4E1E005C08B9711F4E2E036
:1007000001C0E0E0F0E0E05CFD4FD901A959BD4F28
:1007100080819C91892B8083F901E55AFD4F1082DD
:100720002F5F3F4F229628303105B9F6DF91CF91E8
:1007300008956F927F928F929F92AF92BF92CF92C5
:10074000DF92EF92FF920F931F93CF93DF93EC0111
:1007500020917602822F6AE00E948E25892E8A944B
:10076000822F0E948E25982E9A9470917802723072
:1007700009F49AC09F858D853E010DE012E0E0E00E
:10078000F0E0C82EDD24A2E0AA2EB12CE92EFF2431
:10079000D30112968C91482F50E0440F551F440FFF
:1007A000551F6E2FE83028F52E2F898190E00E2EF0
:1007B00002C0959587950A94E2F780FD54606730F2
:1007C00061F0C501022E02C0880F991F0A94E2F75A
:1007D0008E219F21892B09F042607723C1F1C60148
:1007E00002C0959587952A95E2F780FF30C0416059
:1007F0002EC0440F551F772351F1E83039F48C8512
:1008000090E087709070482B592B21C0E93019F087
:1008100040E050E01CC08C8590E023E095958795E2
:100820002A95E1F79C0127703070422B532B959548
:100830008795959587958270907020911B023091D5
:100840001C02822B932B90931C0280931B02681531
:1008500011F06915C1F4CA01805094409C0135958E
:100860002795280F391FBBEF20353B0714F420E5EF
:100870003BEFC90124E0813B920714F080EB94E048
:10088000AC0140505C4F4854584FD8014D935D9394
:100890008D0131960894611C711CEC30F10509F052
:1008A00077CF3F85317066C0DE01EDE9F3E0119648
:1008B0008C9111978193119623E0EB3AF207B9F7E7
:1008C000FDE0EF2EF2E0FF2E11E001E0B0E048C0C5
:1008D000660F771FFE01E00FF11D808190E0212F50
:1008E00030E082239323892B11F0462B572B1038AD
:1008F00019F40F5F11E001C0110FAF5FAB3041F78A
:10090000B81511F0B915C1F4CA01805094409C018A
:1009100035952795280F391F7BEF2035370714F4BD
:1009200020E53BEFC901A4E0213B3A0714F080EB3E
:1009300094E0AC0140505C4FCA01880F991F880FAA
:10094000991F840F951F959587959595879580524A
:10095000994FF701819391937F01BF5FBA3031F0D6
:1009600040E050E0A0E061E070E0B4CFC00FD11DE6
:100970003881307880917902882389F1A3E4B2E04C
:1009800047E652E02DE0E22E22E0F22E61E0082F51
:1009900010E0862F90E080239123892B99F0E701C6
:1009A00088819981ED91FC911197EA012881895BF9
:1009B0009B4020F08081822B808304C08081209521
:1009C0002823208312964F5F5F4F82E090E0E80E6D
:1009D000F91E92E0A335B90711F0660FDACF832F25
:1009E000DF91CF911F910F91FF90EF90DF90CF900B
:1009F000BF90AF909F908F907F906F9008959C01D3
:100A0000809178028230E1F4F90190E05CE8B9016C
:100A1000615F7F4F8181982740E0892F90E09C01A2
:100A20003595279580FF03C0952F922701C0922FFF
:100A30004F5F483091F73196E617F70759F71BC01B
:100A4000F90190E05CE8B901635F7F4F82819827EC
:100A500040E0892F90E09C013595279580FF03C0E9
:100A6000952F922701C0922F4F5F483091F7319612
:100A7000E617F70759F7892F0895409A2D9840985F
:100A800098E010C087FF07C02D9800002B9A000047
:100A90002D9A000006C02D9800002B9800002D9A7A
:100AA0000000880F915070F72D9808958F770E945D
:100AB0003D0508952D9898E010C087FF07C02D9838
:100AC00000002B9A00002D9A000006C02D9800000F
:100AD0002B9800002D9A0000880F915070F72D98E8
:100AE00008951F93162F80680E943D05812F0E9454
:100AF0005A05409A1F9108951F93809127038F5F95
:100B000080932703883010F010922703E091270389
:100B1000F0E0E658FD4F108189E7612F0E947105D2
:100B200080918D02181730F080918E02811710F09D
:100B3000479A01C047981F9108952D9880E090E052
:100B4000880F2D9A00001C9981602D9800009F5FEE
:100B50009830B1F708950E9456050E949D05409A6D
:100B6000089583E00E94AB058093AB0384E00E946C
:100B7000AB058093AC0386E060E00E94710587E0DE
:100B800061E00E94710560917502662311F089E0B1
:100B900002C089E067EC0E9471058AE065E00E946E
:100BA00071058BE062E10E9471058CE065E10E94B5
:100BB00071058DE06BE10E9471058EE060E00E949E
:100BC00071058FE163E00E9471058EE16AE00E9489
:100BD000710582E160E60E94710583E168EF0E9481
:100BE00071058FE060E80E9471058DE160E40E946C
:100BF00071058CE166E20E94710580E264E40E9466
:100C0000710581E260E00E94710582E262EF0E945C
:100C1000710583E26CE70E94710584E266E00E9440
:100C2000710585E26DE70E9471058AE26EE10E941E
:100C3000710580E36CEA0E94710582E36CE80E9412
:100C4000710583E36AE00E94710584E364E00E9419
:100C5000710585E362E20E94710586E36DE20E9400
:100C6000710587E364ED0E94710588E360E00E94EE
:100C7000710589E360E00E9471058EE360E10E94E6
:100C800071058DE66FE00E9471058EE66CE30E94AF
:100C900071058FE66FE90E94710589E660E60E94A2
:100CA000710580E76EE20E94710589E760E00E94AD
:100CB00071058AE766E00E94710581E763E20E94A0
:100CC000710582E76EE00E94710585E763E50E9489
:100CD000710586E76CE40E94710587E760EE0E946B
:100CE0007105089587E061E00E9471058EE764E276
:100CF0000E94710588E063E00E94710588E060E071
:100D00000E94710587E065E00E94710585E062E060
:100D10000E94710583E00E94AB058093AB0384E0E1
:100D20000E94AB058093AC03089583E00E94AB055D
:100D30008093AB0384E00E94AB058093AC0387E013
:100D400061E00E9471050895482F8091EB03909116
:100D5000EC03481721F49C5E9093EC0308952091D6
:100D6000ED033091EE03290F311D3093EE032093F4
:100D7000ED0301C078948091840090918500B901C1
:100D8000681B790B62327105A8F7F8948091840092
:100D90009091850028173907C9F7442311F02A9844
:100DA00001C02A9A4093EB0384E18093EC030895F9
:100DB000EF92FF920F931F93CF93DF93E82E80E083
:100DC0000E94A406FF2410E001E0CE2DD0E0802F89
:100DD00090E08C239D23892B29F081E00E94A406BA
:100DE0001F5F03C080E00E94A406F39488E0F81619
:100DF00011F0000FECCF812F81700E94A40681E0DA
:100E00000E94A40681E00E94A406DF91CF911F9169
:100E10000F91FF90EF900895DF92EF92FF920F9362
:100E20001F93CF93DF9380912603823009F079C01E
:100E30008FE08093D20390914203992311F018E040
:100E400001C010E01093E9031092EA038091780248
:100E50008230A1F4992391F4EDE9F3E0A3EDB3E03E
:100E600081918D9383E0EB3AF807D1F71091AA03B3
:100E70001F734AE07EE0D72E00E404C040E0DD248A
:100E8000D39401E080919803E82EFF2463E0EE0CF8
:100E9000FF1C6A95E1F7C0912403D091250353E02C
:100EA000CC0FDD1F5A95E1F74C30A0F4E42FF0E0B1
:100EB000EE0FFF1FEB5DFD4F80819181805E9640BC
:100EC000880F991F880F991F65E070E00E949A258E
:100ED000CB0107C04D3011F4C70103C04E3019F4E7
:100EE000CE0120E00AC04F3019F480E096E0F9CF3F
:100EF00080E090E0F6CF9695879580FD102B003826
:100F000049F4ED2DF0E0EE52FC4F1083D39410E045
:100F100001E001C0000F2F5F2B3069F74F5F4031B8
:100F200018F2DF91CF911F910F91FF90EF90DF901A
:100F3000089520E030E0F894F901EB5DFD4FD90110
:100F4000A35FBD4F8D919C919183808378942E5F98
:100F50003F4F2831310579F7E0918C02EE23A1F063
:100F6000F894F0E0EE0FFF1FED5DFD4F809124033C
:100F70009091250386509F4FA3E0880F991FAA9553
:100F8000E1F791838083789481E0809328030E9425
:100F90000C070895EF92FF920F931F93CF93DF9367
:100FA0008091CC038093B103909145039093B20359
:100FB00080914203882389F480912803882369F073
:100FC000C3EBD3E021E733E010EEE12E1FEFF12E6B
:100FD000E20EF31EF901870104C090689093B203FA
:100FE000EFCFB8978081B8968883188A1886608179
:100FF000662339F0D8018D919C9170E00E949A256A
:1010000068876085662349F0D80150968D919C9140
:10101000519770E00E949A25688B219631960E5F59
:101020001F4FB3E0CB3BDB07E1F6F701118A108AD3
:10103000D7011D921D927D01F90110821086285260
:101040003040D9011C92275D3F4FB1E6EB16B3E06B
:10105000FB0659F710924603109245031092CB03FA
:10106000DF91CF911F910F91FF90EF9008950F9313
:101070001F93CF93DF930DE012E0C0E4D0E0F801BE
:10108000418186EF93E0BE010E946C1D219686EFA0
:1010900093E0BE01F80140810E946C1D0E5F1F4F5E
:1010A0002196F2E005321F0751F7DF91CF911F9192
:1010B0000F910895462FBC016F5E7F4F86EF93E03E
:1010C0000E946C1D0895DF92EF92FF920F931F9381
:1010D0008C01D62E472F86EFE82E83E0F82EC7012D
:1010E000B8010E946C1D0F5F1F4FC701B8014D2D45
:1010F0000E946C1D1F910F91FF90EF90DF9008955B
:10110000EF92FF920F931F93CF93DF9303E712E0C9
:10111000EE24FF24C0E0D0E0CE01F80160810E94FF
:101120005A08F80181918F01E80EF11C2196C73011
:10113000D10591F7CAE7D2E00BE010E0C801688161
:101140000E945A088991E80EF11C0F5F1F4FF2E0D0
:10115000C238DF0799F7C2E8D2E003E110E0C80126
:1011600068810E945A088991E80EF11C0F5F1F4F99
:1011700082E0C838D80799F789E190E060918D0244
:101180000E945A0880918D02E701C80FD11D8AE1A3
:1011900090E060918E020E945A0880918E02C80FE2
:1011A000D11D8CE190E060918F020E945A088091DD
:1011B0008F02C80FD11D0AE812E098E2E92EF12C47
:1011C000C701F80160810E945A08F80181918F01DE
:1011D000C80FD11D0894E11CF11CF2E00D381F0767
:1011E00079F78AE090E0BE010E946308DF91CF9119
:1011F0001F910F91FF90EF900895AF92BF92CF9201
:10120000DF92EF92FF921F93CF93DF934DE0C42EB6
:1012100042E0D42E30E4E32EF12C28EBA22E2BE07A
:10122000B22E86EF93E0B7010E94651D182FB7011B
:101230006F5F7F4F86EF93E00E94651DD12FC0E066
:101240009E01280F311DC901F601318320838C5680
:1012500097408959984018F0F601B182A08222E0A7
:1012600030E0E20EF31EC20ED31E38E5E316F104A1
:10127000C1F6DF91CF911F91FF90EF90DF90CF905B
:10128000BF90AF900895BC016F5E7F4F86EF93E0F3
:101290000E94651D0895DF92EF92FF920F931F93B6
:1012A0008C0156EFE52E53E0F52EC701B8010E94E0
:1012B000651DD82E0F5F1F4FC701B8010E94651D25
:1012C0003D2D20E0280F311DC9011F910F91FF9086
:1012D000EF90DF9008950F931F93CF93DF9300E07B
:1012E00010E0C0E0D0E0CE010E944309FE01ED58BD
:1012F000FD4F8083080F111D2196C730D10599F746
:10130000CBE0D0E0CE010E944309FE01E159FD4F40
:101310008083080F111D2196C331D10599F7C3E1D0
:10132000D0E0CE010E944309FE01E159FD4F8083C8
:10133000080F111D2196C931D10599F780918302BB
:10134000883008F05BC0863008F059C0823010F455
:1013500091E002C091E0891B80938402981708F401
:10136000891B809385021092860289E190E00E9499
:10137000430980938D02080F111D8AE190E00E94BD
:10138000430980938E02080F111D8CE190E00E94AA
:101390004309982F8150883020F490938F02090FD1
:1013A000111DC8E2D0E0CE010E944309FE01EE59B2
:1013B000FD4F8083080F111D2196CB32D10599F77F
:1013C0008AE290E00E94430980938C0281508C3025
:1013D00010F010928C0280918C02080F111D8AE08F
:1013E00090E00E944B0920E08017910709F421E06A
:1013F000822FDF91CF911F910F91089587E092E0A6
:10140000AACF0F931F93CF93DF9320910A02222339
:1014100079F1E0E0F0E000E010E08491080F111DA8
:10142000319680E4E030F807C1F7922F80E02091F8
:101430000902EC01C20FD11D86E090E00E944B0929
:10144000C817D90761F086E090E0BE010E946308EA
:1014500088E090E0B8010E94630881E00AC088E05B
:1014600090E00E944B098017910711F08FEF01C0A7
:1014700080E0DF91CF911F910F9108950F931F93FB
:10148000E2E0F0E081E2809357008491843931F406
:1014900088EF91E09093700280936F0286EF93E063
:1014A0006CE070E00E94651D082F10E0109372023E
:1014B0000093710286EF93E06DE070E00E94651D7D
:1014C000382F20E0200F311F3093720220937102D9
:1014D0002835310538F080916F02909170022817FD
:1014E0003907C0F088E590E0909372028093710212
:1014F00086EF93E06CE070E048E50E946C1D40913F
:10150000720286EF93E06DE070E00E946C1D109215
:10151000CC0316C0C901CE976AE170E00E949A25FB
:10152000882331F0281B3109309372022093710215
:1015300086EF93E06EE070E00E94651D8093CC031F
:101540008091CC038F5F8093CC03843610F010928F
:10155000CC03A1E5B3E0FD01B09651961C921E921A
:1015600050971D921D9210821086B8971082B996DE
:1015700083E0A136B80789F710924603109245031D
:1015800010924803109247038AE18093CB030E9494
:101590003D1E6093CD037093CE038093CF03909351
:1015A000D0031F910F91089580914403813019F465
:1015B00082E08093440380914403833069F484E0A3
:1015C000809344030E943D1E6093990370939A0395
:1015D00080939B0390939C0308958091260382300F
:1015E00011F0E0E015C00E944B1EE0E02091AD0339
:1015F0003091AE034091AF035091B003621B730B67
:10160000840B950B635679418040904008F0E1E0EF
:101610008E2F0895EF92FF920F931F938091770280
:10162000882309F496C00E94ED0A882309F091C02E
:101630008AC0F0E060917102709172026E0F7F1F9C
:10164000EF54FC4F86EF93E040810E946C1D809127
:10165000CB038F5F8093CB038A3109F04CC080911C
:101660007102909172024A96909372028093710275
:1016700020916F023091700282179307E0F188E5A4
:1016800090E0909372028093710235C0EA3139F490
:101690004091720286EF93E06DE070E008C0EB319C
:1016A00071F486EF93E06CE070E0409171020E946B
:1016B0006C1D8091CB038F5F8093CB031CC0EC31FA
:1016C000D1F48DE18093CB0380914703909148033F
:1016D000892B41F486EF93E06EE070E04091CC03FB
:1016E0000E946C1D8091470390914803019690934E
:1016F0004803809347032091290330912A034091A6
:101700002B0350912C038091CD039091CE03A09197
:10171000CF03B091D00379018A01E81AF90A0A0BC4
:101720001B0BD801C70180569A4EA040B04088F0EC
:101730002093CD033093CE034093CF035093D00337
:101740000E94CA0706C0E091CB03EA3108F09ECFA1
:1017500070CF1F910F91FF90EF9008950F931F93FB
:10176000CF93DF9380912603823009F057C0809198
:101770002803882309F452C00E944B1EAB01BC0110
:101780008091AD039091AE03A091AF03B091B003EF
:101790008A019B01081B190B2A0B3B0BD901C801BD
:1017A00083569941A040B040C8F120918400309107
:1017B000850080910B0290910C028F5F98418217F7
:1017C000930760F11EC08091E90384608093E90370
:1017D0001092EB031092EC03F894809184009091A6
:1017E00085009093EE038093ED032A9AC2EDD3E037
:1017F00089910E94D80623E0CB3ED207C9F778949E
:101800000DC04093AD035093AE036093AF0370934C
:10181000B003809143038823B1F6DACFDF91CF91F3
:101820001F910F910895EF92FF920F931F938C01D8
:101830000E944B1E780100E010E0E60EF71E081F24
:10184000191F02C00E94AE0B0E944B1E6E157F0531
:1018500080079107B8F31F910F91FF90EF900895C3
:10186000EF92FF920F931F93CF93DF93EB01F42E30
:101870009C01442737FD4095542F60E271EA87E0D0
:1018800090E00E94E32589012530310514F405E03C
:1018900010E087E0F82288E0F82A8DE66F2D0E949C
:1018A00071058EE064E00E94710561E070E080E007
:1018B00090E00E94711E8EE060E00E947105A89584
:1018C000BE01882777FD8095982F20E930ED43E011
:1018D00050E00E946F259801442737FD4095542F12
:1018E0000E94E3257901C0E0D0E009C02B9AC8012D
:1018F0000E94130C2B98C8010E94130C2196CE1540
:10190000DF05A0F3DF91CF911F910F91FF90EF9032
:10191000089583E00E94AB058093AB0384E00E94AE
:10192000AB058093AC0386E060E00E94710587E020
:1019300061E00E94710589E060913F020E9471059B
:101940008AE065E00E9471058BE062E10E9471050A
:101950008CE065E10E9471058DE06AE00E947105EE
:101960008EE060E00E94710580E76CE20E947105E4
:1019700080E360E00E94710589E7609182020E9425
:1019800071058AE766E00E94710581E762E10E94C5
:10199000710582E762E00E94710583E760E00E94C2
:1019A000710584E760E00E947105479860918302A9
:1019B000677068608DE60E9471056AE070E080E003
:1019C00090E00E94711E87E069E00E94710588EB3B
:1019D00091E061E070E0409183020E94300C8DE55F
:1019E00091E061E070E0409184020E94300C85E05B
:1019F00091E061E070E0409185020E94300C8FEA36
:101A000090E061E070E0409186020E94300C87E037
:101A100061E00E94710508950E94950662E370E0FE
:101A200080E090E00E94711E0E94720600000895FE
:101A3000CF92DF92EF92FF920F931F93CF93DF939A
:101A4000982FEB01D42EC22EA89589E7692F0E940A
:101A50007105CC2021F08DE160E40E9471050E94A7
:101A60000C0D0E943D1E7B018C01CE01A0E0B0E078
:101A7000E80EF91E0A1F1B1F83E08093440307C072
:101A80000E943D1EE616F7060807190720F0809110
:101A900044038330A9F380914403843009F07AC071
:101AA0008FE70E945605C8E0D3E00E949D05899308
:101AB00083E0C831D807C9F70E9472068091EF030E
:101AC000882329F0CE0140970E94FF043EC0FE010A
:101AD0003E9790E05CE88081982740E0892F90E075
:101AE0009C013595279580FF03C0952F922701C053
:101AF000922F4F5F483091F7319683E0E731F80736
:101B000051F7992321F48091780281701CC03E978F
:101B100090E05CE88081982740E0892F90E09C016C
:101B20003595279580FF03C0952F922701C0922FEE
:101B30004F5F483091F7319683E0E831F80751F76D
:101B4000992341F582E08093780281E08093EF034E
:101B5000DD2021F080910803D816E1F4CC20C1F0FB
:101B60008BE20E94AB052091F1033091F203482FE4
:101B700050E0813810F020503140240F351F309351
:101B8000F2032093F1038091F0038F5F8093F003C1
:101B900081E001C080E0DF91CF911F910F91FF9014
:101BA000EF90DF90CF9008951F9380917502882366
:101BB00009F054C08CE894E00E94662118161906BA
:101BC0000CF04CC08CE894E00E9497218D30910578
:101BD00091F4809188028093750280933F020E9465
:101BE00080088CE894E060E071E00E9427240E9465
:101BF000B10581E034C08E33910531F08E3291050C
:101C000019F08E3E910521F4809188028F5F0CC0FF
:101C10008C33910531F08C32910519F0813A9105A0
:101C2000E9F4809188028150809388028091880233
:101C3000882319F48FEF809388021091880289E03D
:101C4000612F0E9471058CE894E0612F4AE050E01A
:101C50000E9494238091880280933F0280E01F912C
:101C600008958CE894E00E9466211816190614F075
:101C700020E00CC08CE894E00E9497218D369105FD
:101C800021F020E08D34910509F421E0822F0895A0
:101C9000FF920F931F938091290390912A03A091A3
:101CA0002B03B0912C032091940330919503409124
:101CB000960350919703821B930BA40BB50B44978B
:101CC000A105B10508F446C08CE894E00E946621A5
:101CD000082F10E0FF24F3943BC08CE894E00E94AE
:101CE0009721982F80919103882359F4963179F5A3
:101CF00090938103F09291031092930310928902C2
:101D000026C0E82FF0E0EF57FC4F90838F5F809361
:101D100091038031E0F01092910381E893E00E94FA
:101D2000FF048823A1F48091290390912A03A091B4
:101D30002B03B0912C038093940390939503A0936D
:101D40009603B093970381E08093930303C01F5FD2
:101D500010171CF21F910F91FF9008951F93182FD9
:101D600006C08CE894E060E20E94D021115011235B
:101D7000C1F71F9108951F9394E6899FC001112414
:101D80006EEE70E00E94AE25162F643610F013E65A
:101D900005C06A3018F481E00E94AE0E8CE894E031
:101DA000612F4AE050E00E94822381E00E94AE0E43
:101DB0001F9108951F93182F8A3010F482E003C0FA
:101DC000843618F481E00E94AE0E8CE894E0612F16
:101DD0004AE050E00E94822381E00E94AE0E1F91F3
:101DE0000895982F8091D10381119695892F0E9493
:101DF000DA0E0895CF93DF938CE894E067E071E00A
:101E00000E942424C8E5D0E012C086EF93E0BE0112
:101E10004FEF0E946C1DCE018F779070892B29F4B3
:101E20008CE894E06EE20E94D021A89521968091E2
:101E30006F0290917002C817D90738F388E590E0D7
:101E400090937202809371021092CC0386EF93E01C
:101E50006CE070E048E50E946C1D4091720286EFD4
:101E600093E06DE070E00E946C1D86EF93E06EE001
:101E700070E04091CC030E946C1D0E943E0A8CE8E9
:101E800094E063E271E00E942724DF91CF910895EE
:101E90001F93CF93DF93EC01162FFE0121966491DF
:101EA000662329F08CE894E00E94D021F6CF11231C
:101EB00021F08CE894E00E94A522DF91CF911F9140
:101EC00008955F926F927F928F929F92AF92BF928E
:101ED000CF92DF92EF92FF920F931F93CF93DF93F6
:101EE000833719F020E0833509F421E0822E8C3607
:101EF00019F090E08C3409F491E0592E823719F0F2
:101F0000BB24823519F4BB24B39402C0843619F083
:101F10006624843411F4662463941092D1038A35C4
:101F200018F481E08093D103222341F4992331F402
:101F3000BB2021F488248394552453948CE894E0A6
:101F400069E271E00E9424248CE894E068E570E086
:101F50004AE050E00E94F2238CE894E06AE371E0EA
:101F60000E94242460916F02709170028CE894E0CA
:101F70004AE050E00E9454238CE894E06CE371E066
:101F80000E94242460917102709172028CE894E0A6
:101F90004AE050E00E9465238CE894E064E471E03C
:101FA0000E942424882029F084EC91E060E00E94C3
:101FB000480FBB2019F08BE392E004C0552031F0AC
:101FC00084EF91E061E00E94480F04C08CE894E047
:101FD0000E94A522C0917102D0917202782C770CD8
:101FE00083E0780E9924FF248E010F5F1F4F86EF48
:101FF00093E0BE010E94651DA82E84E68A1520F498
:10200000662011F46A96AFC0AF1099248A2D0E9401
:10201000DA0E9394892D0E94DA0E882019F4BB20E1
:1020200009F440C078010894E11CF11C86EF93E0AC
:10203000B8010E94651D182F8F770E94DA0E81E08B
:102040000E94AE0E812F881F8827881F0E94DA0EFB
:10205000872D0E94AE0E882089F0B7018E01065FA1
:102060001F4FEB01219686EF93E00E94651D0E94B1
:10207000DA0EC017D10799F0BE01F3CFB7018E0178
:10208000065F1F4FEB01219686EF93E00E94651DCE
:102090000E94BB0EC017D10711F0BE01F3CFE701BC
:1020A000289602C0E8012996552019F4BB2009F4AE
:1020B00053C083E00E94AE0E882019F081E00E9498
:1020C000AE0EBB2009F18E01E8E0CE2ED12CCC0E55
:1020D000DD1E86EF93E0B8010E94651DF82E085FB3
:1020E0001F4F86EF93E0B8010E94651D0750104016
:1020F000F81610F480E002C0F81A8F2D0E94F10E3D
:102100000C151D0531F728C0BE018E01085F1F4F59
:102110007B010894E11CF11C86EF93E00E94651D91
:102120000E94F10EE016F10611F0B701F1CF84E044
:102130000E94AE0EB80160968B010F5F1F4F86EFB5
:1021400093E00E94651D0E94F10EB8010C171D0757
:1021500099F7E701289601C060968CE894E00E9408
:10216000A522A895FA2C80916F0290917002C81751
:10217000D90710F0C8E5D0E0809171029091720209
:10218000C817D90709F030CFDF91CF911F910F9178
:10219000FF90EF90DF90CF90BF90AF909F908F9087
:1021A0007F906F905F90089587EE90E061E00E94CD
:1021B000480F8AEF90E060E00E94480F8CE894E0BE
:1021C000609109024AE050E00E9494230895FF9232
:1021D0000F931F93CF93DF9388E791E060E00E9415
:1021E000480F88E091E060E00E94480F8CE894E09E
:1021F000609109024AE050E00E949423FF2401E02C
:1022000010E0CF2DD0E0FE01EA56FD4F808190E036
:102210008017910729F58CE894E0B8014AE050E076
:102220000E94F2238CE894E06DE30E94D021C80163
:102230000E944309682F8CE894E04AE050E00E9435
:1022400082238CE894E069E00E94D021CC0FDD1F4E
:10225000C355DD4F8881998161E00E94480FF39456
:102260000F5F1F4F0B32110561F6DF91CF911F9168
:102270000F91FF900895AF92BF92CF92DF92EF92AD
:10228000FF920F931F93CF93DF935C0101960E94FF
:1022900078029C0101978E3F910510F010E01EC05E
:1022A000122F82E090E0F501E80FF91FE081EE23A4
:1022B000A9F00196ED3279F48A0D9B1D0E947802F7
:1022C0009C01812F90E08217930740F42F3F310546
:1022D00028F4C22E05C08A30910529F72EEFC22EB0
:1022E0000E94B1050E940C0D479886ED90E061E0D8
:1022F0000E94480FE12EAEC089E76E2D0E94710545
:102300008DEE92E00E94CA1E0FEFFF24C0E0D0E0E5
:1023100010E083E690E00E94CA1E86E20E94AB05B0
:10232000C80FD11D801708F4082FF81608F4F82EEE
:102330001F5F173C71F789E08E1538F08CE894E048
:102340006DE471E00E94242408C0E3E6EE1528F055
:102350008CE894E060E20E94D0218CE894E06E2D3D
:102360004AE050E00E948223EAE7F2E06AE38081DB
:102370008E1509F463E2319682E0E238F807B9F786
:102380008CE894E00E94D0218CE894E060E20E9406
:10239000D021802F0E94DA0ECE0167EC70E00E94FF
:1023A0009A25162F862F0E94DA0E8F2D0E94DA0EA4
:1023B000F50180818E3409F047C00A3010F4DD2425
:1023C00008C0083418F09DE3D92E03C086EFD82E3C
:1023D000D00EF9E0FF1510F000E007C087E48F157C
:1023E00010F40DE302C00F2D0A501A3010F4FF2430
:1023F00008C0183418F0BDE3FB2E03C0A6EFFA2E78
:10240000F10E10E01F1521F48CE894E06AE217C089
:102410001D1521F48CE894E06CE311C0101721F431
:102420008CE894E06EE30BC0D11630F4101720F462
:102430008CE894E06EE203C08CE894E060E20E94D5
:10244000D0211F5F0117F0F68CE894E00E94A522CE
:10245000A895E394CE1408F04FCFDF91CF911F9150
:102460000F91FF90EF90DF90CF90BF90AF900895C5
:10247000EF92FF920F931F93CF93DF937C01FC01A8
:10248000108200E010E08CE894E00E9466211816AB
:102490001906CCF58CE894E00E947721469739F430
:1024A00081E7F701808311821092890234C08CE8A1
:1024B00094E00E949721EC011816190654F58CE857
:1024C00094E06C2F0E94D021CD30D10519F0CA3094
:1024D000D10529F48CE894E00E94A5221CC0C830E4
:1024E000D10531F40115110571F201501040CBCF27
:1024F000F701E00FF11FC08311820A3011054CF47F
:102500000F5F1F4F06C061E070E080E090E00E9426
:10251000711EA895B8CFDF91CF911F910F91FF90B9
:10252000EF9008950F931F93CF93DF93873008F5B3
:10253000182F110FC12FD0E0FE01EE0FFF1FE55243
:10254000FD4F0081802F60E00E946F1F802F61E0AF
:102550000E94AE1F183079F482E090E00E94CA1EFB
:10256000802F0E940220892BE9F0802F61E00E94D9
:102570006F1F80E018C0CC0FDD1FC352DD4F1881E4
:10258000812F61E00E94AE1F82E090E00E94CA1E8F
:10259000802F0E940220019741F7812F60E00E9466
:1025A000AE1FDACF81E0DF91CF911F910F91089597
:1025B0002F923F924F925F926F927F928F929F9253
:1025C000AF92BF92CF92DF92EF92FF920F931F9341
:1025D000DF93CF93CDB7DEB762970FB6F894DEBF27
:1025E0000FBECDBF80E091E00E947822988B8F874C
:1025F00085E00E9492121B86882311F481E08B876C
:102600007894AF85B889A150BF4FBA8BA98B10922F
:10261000EF031092F0031092F2031092F1038091F5
:1026200075028A5A8D3318F087EC809375020E94E8
:10263000B1050E940C0D47988DE160E00E94710584
:102640000E947206BB85BB2331F08CE894E060E504
:1026500071E00E942424EF85F889FA87E9871192B6
:1026600089899A89E817F907D1F70E943D1E5B0115
:102670006C018FE19EE4A0E0B0E0A80EB91ECA1E76
:10268000DB1E66241C86A8950F851889FF249924D3
:10269000EE24D8018C918A3FA8F489E76F2D0E941F
:1026A000710589E892E00E94CA1E86E20E94AB058D
:1026B000982FF8018081891708F49083E91610F4A7
:1026C0009F2CE92EF3940F5F1F4FFFEFFF1609F7C2
:1026D00088B188B9662009F58B858823D1F08CE80C
:1026E00094E064E671E00E9424248CE894E0692D73
:1026F0004AE050E00E9482238CE894E06FE671E0AB
:102700000E9424248CE894E06E2D4AE050E00E9460
:10271000942395E99E1528F07ACFA5E9AE1508F027
:10272000B2CF892D63E071E04C8520E00E94180D46
:102730008823E1F0B0910803BC87EB85EE2361F0BC
:102740008CE894E0692D4AE050E00E9482238CE8F6
:1027500094E060E20E94D021E1E0F0E0EC0FFD1F88
:10276000E60DF11D9082639488B188B9EF85F889F0
:10277000E90DF11D8FEF8083662009F448CF0E9498
:102780003D1EA616B706C806D90660F4862D8150F0
:10279000823060F094E0691649F0A8E06A1609F00A
:1027A00036CF04C0B7E0B61508F06DCF0E943D1ECD
:1027B0004B015C018AE09AE1A0E0B0E0880E991E2E
:1027C000AA1EBB1E79809B85992331F08CE894E08A
:1027D00062E771E00E94242472E0C72ED12CCC0E57
:1027E000DD1E16014F845888A1E0AE871D8660C0AB
:1027F0000E943D1E86169706A806B90608F407CF64
:10280000872D63E071E04C8521E00E94180D88233C
:1028100079F30E943D1E7B018C01F101808167E507
:1028200072E04C8521E00E94180D8823C1F10E94BE
:102830003D1E28EF3FEF4FEF5FEF2E193F09400B92
:10284000510B260F371F481F591F65E056954795B6
:10285000379527956A95D1F7622F283008F0685090
:10286000EF85F88990E08191861709F4ACCF9F5FDE
:102870008E859817C0F3D20111966C93BB85BB234C
:1028800059F08CE894E04AE050E00E9482238CE802
:1028900094E060E20E94D021ED85EF5FED87FE8538
:1028A000FF5FFE870894211C311C0894411C511CB9
:1028B0008E85861508F49CCF9B85992321F08CE8A2
:1028C00094E00E94A52270927A02A1E06A1641F477
:1028D000EBE7F2E07192B2E0E238FB07D9F750C0C3
:1028E000E2E06E1691F48A8170927A0280937B0204
:1028F00070927C0280937D0270927E0280937F02B0
:1029000070928002809381023BC0F4E06F16E9F47C
:102910009E012B5F3F4FA985BA851196EC91EF5F21
:10292000E43038F4F0E0D6018C91E658FD4F808316
:102930008483E985FA853196FA87E9870894C11C72
:10294000D11CC216D30639F71BC0FD85F73008F439
:102950005ECE9E01275F3F4FA985BA851196EC9107
:10296000EF5FF0E0E658FD4FD6018D916D01808359
:10297000E985FA853196FA87E987A217B30761F7E7
:102980006091F0038091F1039091F20370E00E9456
:10299000AE257093F2036093F103FC85F09374020B
:1029A000CB0182968534910528F480917502861BAF
:1029B000809375028B858823D9F18CE894E06CE7CD
:1029C00071E00E9424248CE894E06C854AE050E099
:1029D0000E9482238CE894E062E871E00E94242443
:1029E0008CE894E0609175024AE050E00E948223F6
:1029F0008CE894E06AE871E00E9424240AE712E07F
:102A00008CE894E0D8016D918D014AE050E00E947D
:102A100082238CE894E060E20E94D021B2E0023888
:102A20001B0771F78CE894E066E971E00E942724A7
:102A3000109279021092760280917702823010F023
:102A4000109277028F8598890E9475220E948008D3
:102A5000469A62960FB6F894DEBF0FBECDBFCF91F7
:102A6000DF911F910F91FF90EF90DF90CF90BF907B
:102A7000AF909F908F907F906F905F904F903F901E
:102A80002F900895CF92DF92EF92FF920F931F93B2
:102A9000DF93CF93CDB7DEB72C970FB6F894DEBF98
:102AA0000FBECDBF8EE091E061E00E94480F8E0125
:102AB0000F5F1F4FC8010E9438128981813709F4C6
:102AC00086C0813509F483C068010E94E71088E25E
:102AD00091E061E00E94480FC6010E94381289818E
:102AE0008E3611F08E3421F4C6010E943B11F4CFD2
:102AF000833711F0833549F48A81853619F40E94B1
:102B0000FA0EEACF0E94610FE7CF8237F9F48A818B
:102B10008536E1F48B818236C9F48C818936B1F433
:102B20008D818E3699F48E81843681F481EA91E02C
:102B300060E00E94480FC6010E94381289818937DF
:102B400011F0893519F40E94D81241C0898181376A
:102B5000F1F18135E1F1C6010E9478027C018BE23E
:102B6000E816F10408F0B1CFC6010E94381289813D
:102B7000813769F1813559F1C6010E9478028C01D3
:102B80008F3F910511F008F0A0CFE114F10419F482
:102B9000009709F49ACF8CE894E0B7014AE050E03E
:102BA0000E94F2238CE894E06DE30E94D0218CE82F
:102BB00094E0B8014AE050E00E940524C701602F6C
:102BC0000E945A080E946B090E9480087ECF2C96B2
:102BD0000FB6F894DEBF0FBECDBFCF91DF911F912E
:102BE0000F91FF90EF90DF90CF9008951F93CF93B8
:102BF000DF93EC0110E011C0A8956DE770E080E074
:102C000090E00E94711ECB30D10568F00E94310E19
:102C1000882349F00E94421510C0812F90E08C1744
:102C20009D0750F30AC0469A6DE770E080E090E09F
:102C30000E94711E46981F5FF0CFDF91CF911F91C8
:102C40000895EF92FF920F931F930E94010A182F8D
:102C50008F3F69F480919203882329F48AE890E0F9
:102C600061E00E94480F8FE295E70E94F61582E02E
:102C70000E949212882391F084E090E00E94F61561
:102C80000E94800880919203882329F48AEB90E0C7
:102C900061E00E94480F84E090E079C00E946B09D7
:102CA000882309F076C080919203882329F485EA6D
:102CB00090E061E00E94480F113009F066C00E9468
:102CC0003D1E7B018C018FE097E2A0E0B0E0E80EB2
:102CD000F91E0A1F1B1F0BC081E090E00E94F61531
:102CE0000E94310E882319F00E94421552C00E94A2
:102CF0003D1E6E157F058007910770F388E4809371
:102D0000740287EC8093750291E0909377021092A1
:102D1000790210927802109276028BE480938D02F1
:102D200082ED80938E0284E68093820284E0809319
:102D3000830282E08093840290938502109286023F
:102D40008EE18093870287E080938A0290938B02C2
:102D500010928C028DE480937A0283E980937B0247
:102D600089E580937C0287EA80937D028DE68093DB
:102D70007E028DEB80937F028FE78093800281ED4E
:102D8000809381020E94800804C088E790E00E943E
:102D9000F6151F910F91FF90EF9008951F93482F04
:102DA000F62FE0918A02EE2321F4882351F41FE7E5
:102DB00024C0882341F4683031F41092F403109257
:102DC000F30310E01AC02091F3033091F403C9011A
:102DD0006E2F70E00E949A25261B370BF49FC001CE
:102DE0001124280F391F3093F4032093F303C901F2
:102DF0006E2F70E00E949A25162F83E0612F70E0FD
:102E00000E940F1F10932403109225031F91089511
:102E10002F923F924F925F926F927F928F929F92EA
:102E2000AF92BF92CF92DF92EF92FF920F931F93D8
:102E3000CF93DF9380E00E94921280932603882331
:102E400021F08AE080933D021DC086E00E9492122C
:102E50008823C1F082E08093260384E080933D02C2
:102E600080E69DE690930C0280930B02909387007E
:102E70008093860010925B02809140028460809370
:102E800040022A9884E00E9492128093920381E08B
:102E900090E00E94F61585E00E949212882311F0BE
:102EA0000E94D8128CE894E040E056E960E070E0BF
:102EB0000E94DF2080919203882331F40E94D41075
:102EC00081E090E00E94F6150E9421168091750223
:102ED00080933F020E943E0A0E9461030E94FD0807
:102EE0000E94B105109228032EE088E190E00FB611
:102EF000F894A895809360000FBE209360008091A5
:102F00009203882309F073C08CE894E06BE971E0C8
:102F10000E9424248CE894E0609173024AE050E01F
:102F20000E9494230E94E7108CE894E060EA71E02C
:102F30000E94242484E00E94AB05682F70E0617039
:102F400070708CE894E04AE050E00E9405248CE820
:102F500094E065EA71E00E94272480E00E94AB05BE
:102F6000682F8CE894E04AE050E00E94942381E0CE
:102F70000E94AB05682F8CE894E04AE050E00E9484
:102F8000942382E00E94AB05682F8CE894E04AE02D
:102F900050E00E9494238CE894E06BEA71E00E9478
:102FA000242481E10E94AB05682F70E060547040DA
:102FB0008CE894E04AE050E00E94052488E690E026
:102FC00061E00E94480F80912603813031F48CE843
:102FD00094E06EEA71E00E942724809126038230FB
:102FE00031F48CE894E066EB71E00E9427244424DD
:102FF00081E080933E020E9472060E940C0D78943C
:1030000083E0809344030E943D1E609329037093E4
:103010002A0380932B0390932C0360932D037093CA
:103020002E0380932F0390933003609331037093AA
:10303000320380933303909334036093350370938A
:10304000360380933703909338035524AA24BB2476
:103050003324339483E0282EA8958CE00E94AB059E
:10306000882371F40E94B1050E940C0D8091920397
:10307000882331F48CE894E06FEB71E00E94272400
:1030800080914403843009F0F3C1469888B188B92F
:103090008FE70E945605C8E0D3E00E949D05899302
:1030A00023E0C831D207C9F70E94720610912703A6
:1030B0000E947C058091990390919A03A0919B03B3
:1030C000B0919C038093350390933603A09337030C
:1030D000B0933803209244036097CE010E94FF040E
:1030E000882351F080919203882309F0BCC18CE8B9
:1030F00094E066EC71E00FC0909108038091740237
:10310000981761F080919203882309F0ACC18CE894
:1031100094E06BEC71E00E942724A5C1CE010E94CF
:103120009903882389F0442081F4809192038823B5
:1031300031F48CE894E061ED71E00E9427240E9454
:1031400037084424439401C0442460911E037091C5
:103150001F036115710551F080911C0390911D03AF
:103160000E949A2570931D0360931C0380911C0399
:1031700090911D0390931F0380931E03609122037F
:10318000709123036115710569F08091200390917E
:1031900021030E949A25609320037093210360937A
:1031A000980306C080919803809320031092210316
:1031B000209120033091210380911C0390911D03E5
:1031C0008217930728F410921D0310921C0306C067
:1031D000821B930B90931D0380931C0380918B02A1
:1031E000882329F080911C0390911D0304C08091D5
:1031F0001E0390911F0390932503809324038091D5
:10320000240361E00E94CE168BE20E94AB05C82F1A
:10321000D0E080919203882309F04DC08CE894E0BF
:1032200066ED71E00E94242460911E0370911F03DB
:103230008CE894E04AE050E00E9454238CE894E04B
:1032400069ED71E00E942424609147037091480366
:103250008CE894E04AE050E00E9454238CE894E02B
:103260006DED71E00E942424612F70E06F5F7F4F4D
:103270008CE894E04AE050E00E94F2238CE894E06D
:1032800061EE71E00E9424248CE894E0BE014AE0E3
:1032900050E00E94F2238CE894E065EE71E00E9419
:1032A000242460912003709121038CE894E04AE08B
:1032B00050E00E946523A12FB0E0FD01EE0FFF1F3B
:1032C000EF5AFC4F8081918120911E0330911F03A2
:1032D000820F931F91838083FD01EE0FFF1FEF5933
:1032E000FC4F808191812091200330912103820F36
:1032F000931F91838083AB5BBC4F9C968C919C9772
:103300008F5F9C968C939C97D4968C91D4978F5F6B
:10331000D4968C9310921D0310921C0310921F03DD
:1033200010921E0310922103109220031092230387
:103330001092220340917502442309F453C0C0380F
:10334000D10514F0C050D140CE014996C39718F072
:1033500020E030E006C09E01B4E0220F331FBA9592
:10336000E1F75394C50160E170E00E94AE25A61A12
:10337000B70AC90160E170E00E94AE25A60EB71E33
:10338000C501B7FE04C0882799278A199B09813493
:10339000910554F180E2851538F5C50160E170E0D2
:1033A0000E94AE25EB01D095C195DF4F642F6C0FC5
:1033B0006093750289E00E947105809192038823D1
:1033C00069F48CE894E06AEE71E00E9424248CE8B1
:1033D00094E0BE014AE050E00E9405245524AA244E
:1033E000BB2402C030924303109242031092410367
:1033F0000E943D1E6093290370932A0380932B0340
:1034000090932C03609331037093320380933303C2
:10341000909334036093390370933A0380933B0392
:1034200090933C0360933D0370933E0380933F036E
:103430009093400310923E0210921B0310921A03C5
:10344000109243030E94990780919203882359F0B8
:1034500026E1209308038CE894E068E073E040E103
:1034600050E00E947B2288B188B90E94AE0BF4CD57
:103470000E943D1E7B018C016093290370932A03F7
:1034800080932B0390932C03609035037090360348
:1034900080903703909038030E94AE0B0E94D40DA9
:1034A000882309F0A5CD80918902882311F18091AC
:1034B000290390912A03A0912B03B0912C03209112
:1034C0002D0330912E0340912F0350913003821B26
:1034D000930BA40BB50B8F509742A040B04048F41B
:1034E0000E94310E882339F00E9442150E94B105D6
:1034F0007FCD0E94480E80919303882309F44FC02A
:1035000080913D0390913E03A0913F03B091400311
:103510008196A11DB11D2091940330919503409196
:1035200096035091970382179307A407B507B8F540
:1035300081E893E00E9499030E94990710929303F7
:1035400010924203109241038091290390912A0323
:10355000A0912B03B0912C038093310390933203FD
:10356000A0933303B09334038093390390933A03C9
:10357000A0933B03B0933C0380919203882339F4DA
:103580008CE894E061EF71E00E94272408C08CE889
:1035900094E061E873E040E150E00E947B2280917A
:1035A000290390912A03A0912B03B0912C03209121
:1035B0003103309132034091330350913403821B25
:1035C000930BA40BB50B88559240A040B040B0F1CE
:1035D00080914203882391F580912803882371F11B
:1035E00080919203882331F48CE894E066EF71E0D7
:1035F0000E942724309242038091290390912A034C
:10360000A0912B03B0912C038093390390933A033C
:10361000A0933B03B0933C030E94FD080E949907CE
:10362000469880E068E00E94CE1680914503909114
:1036300046030196909346038093450380912903A6
:1036400090912A03A0912B03B0912C0320913D036C
:1036500030913E0340913F0350914003821B930BF6
:10366000A40BB50B885B9B40A040B04010F030929B
:103670003E0267017801C618D708E808F908D701A3
:10368000C6010297A109B1090497A105B105D0F4BB
:1036900083E690E00E94CA1E00912003109121034E
:1036A00086E20E94AB05080F111D109321030093C1
:1036B000200380912203909123030196909323038A
:1036C0008093220380913E02882319F02FEF30E08F
:1036D0002EC0D701C6010C97A109B1090B97A1050E
:1036E000B105D8F483E690E00E94CA1E00911C0345
:1036F00010911D0386E20E94AB05080F111D109367
:103700001D0300931C0380911E0390911F030196DB
:1037100090931F0380931E0308C089E1C816D1044B
:10372000E104F10414F40E940A0B23E230E0C90121
:10373000AA2797FDA095BA2FC816D906EA06FB0658
:103740000CF4DCC080913E02882319F5809142037D
:10375000882309F4469A80912703209135033091FC
:103760003603409137035091380380FF05C0205E37
:103770003F4F4F4F5F4F04C0215E3F4F4F4F5F4F52
:103780002093350330933603409337035093380327
:1037900010C08091290390912A03A0912B03B0912E
:1037A0002C038093350390933603A0933703B09393
:1037B0003803109127030E947C05C12FD0E0FE0141
:1037C000EB5BFC4F84818F5F848330924303609175
:1037D0003E0227E0629FB00111246F5F80E00E94EB
:1037E000CE1680919203882309F063C08CE894E0A0
:1037F0006CEF71E00E94242460911A0370911B0306
:103800006F5F7F4F70931B0360931A038CE894E003
:103810004AE050E00E9454236091220370912303F8
:103820006115710569F080912003909121030E9438
:103830009A2560932003709321036093980306C038
:103840008091980380932003109221038CE894E0E8
:1038500069ED71E00E942424609147037091480350
:103860008CE894E04AE050E00E9454238CE894E015
:103870006DED71E00E942424BE016F5F7F4F8CE8E4
:1038800094E04AE050E00E94F2238CE894E065EE78
:1038900071E00E94242460912003709121038CE840
:1038A00094E04AE050E00E9454238CE894E00E94A7
:1038B000A522FE01EE0FFF1FEF59FC4F8081918181
:1038C0002091200330912103820F931F91838083E5
:1038D000FE01EB5BFC4F84A98F5F84AB10921D034C
:1038E00010921C0310921F0310921E0310922103CA
:1038F000109220031092230310922203809142031E
:10390000882309F4A9CB0E940A0BE0902903F090C8
:103910002A0300912B0310912C038091390390917D
:103920003A03A0913B03B0913C03E81AF90A0A0B51
:103930001B0B6091870280914103882349F088E83E
:10394000E81683E1F80680E0080780E018077CF4B9
:1039500070E080E090E028EE33E040E050E00E942C
:103960006F256E157F05800791070CF075CB30929F
:103970004103809187028F3F61F0809192038823F9
:1039800031F48CE894E060E072E00E9427240E9409
:10399000890C80919203882331F48CE894E064E0F0
:1039A00072E00E9427240E94B1050E947206809155
:1039B000290390912A03A0912B03B0912C038093AB
:1039C000390390933A03A0933B03B0933C030E94C6
:1039D0003D1E6093350370933603809337039093B5
:1039E00038033ACB84E161E00E946F1F85E161E01A
:1039F0000E946F1F8CE060E00E946F1F8BE061E00F
:103A00000E946F1F8DE061E00E946F1F82E060E006
:103A10000E946F1F8EE061E00E946F1F80E060E0F7
:103A20000E946F1F81E061E00E946F1F80E061E0F3
:103A30000E94AE1F83E061E00E946F1F8AE061E098
:103A40000E946F1F89E061E00E946F1F88E061E0C3
:103A50000E946F1F87E061E00E946F1F86E061E0B7
:103A60000E946F1F85E061E00E946F1F84E061E0AB
:103A70000E946F1F83E161E00E946F1F82E161E09D
:103A80000E946F1F81E161E00E946F1FE1E8F0E09A
:103A90001082109285001092840080910B02909108
:103AA0000C02909387008093860082E080938000D0
:103AB0008AE1808381E080936F0080E064ED7AE0AA
:103AC00042E050E00E94781D0895F999FECF72BD42
:103AD00061BDF89A80B50895F999FECF1FBA72BDFD
:103AE00061BD40BD0FB6F894FA9AF99A0FBE0895D9
:103AF000823000F5E82FF0E0EE0FFF1FE950FC4F99
:103B000071836083882319F08130A1F408C080910B
:103B100069008C7F842B80936900E89A08958091D6
:103B20006900440F551F440F551F837F842B8093DA
:103B30006900E99A08951F920F920FB60F9211240F
:103B40002F933F934F935F936F937F938F939F93A5
:103B5000AF93BF93EF93FF938091F7039091F80396
:103B6000892B29F0E091F703F091F8030995FF9173
:103B7000EF91BF91AF919F918F917F916F915F91E5
:103B80004F913F912F910F900FBE0F901F9018955E
:103B90001F920F920FB60F9211242F933F934F93C2
:103BA0005F936F937F938F939F93AF93BF93EF93A5
:103BB000FF938091F9039091FA03892B29F0E0910A
:103BC000F903F091FA030995FF91EF91BF91AF913D
:103BD0009F918F917F916F915F914F913F912F9125
:103BE0000F900FBE0F901F9018951F920F920FB657
:103BF0000F9211242F933F938F939F93AF93BF9373
:103C00008091FF0390910004A0910104B0910204FF
:103C1000309103040196A11DB11D232F2D5F2D3777
:103C200020F02D570196A11DB11D20930304809310
:103C3000FF0390930004A0930104B09302048091C9
:103C4000FB039091FC03A091FD03B091FE0301964C
:103C5000A11DB11D8093FB039093FC03A093FD0372
:103C6000B093FE03BF91AF919F918F913F912F91A0
:103C70000F900FBE0F901F9018958FB7F89420915A
:103C8000FF033091000440910104509102048FBF62
:103C9000B901CA0108959FB7F8942091FB033091B0
:103CA000FC034091FD035091FE0386B5A89B06C01E
:103CB0008F3F21F02F5F3F4F4F4F5F4F9FBF542FDC
:103CC000432F322F2227280F311D411D511D82E025
:103CD000220F331F441F551F8A95D1F7B901CA011E
:103CE00008959B01AC017FB7F8948091FB039091FC
:103CF000FC03A091FD03B091FE0366B5A89B05C02F
:103D00006F3F19F00196A11DB11D7FBFBA2FA92FDA
:103D1000982F8827860F911DA11DB11D62E0880F85
:103D2000991FAA1FBB1F6A95D1F7BC012DC0FFB711
:103D3000F8948091FB039091FC03A091FD03B09156
:103D4000FE03E6B5A89B05C0EF3F19F00196A11D43
:103D5000B11DFFBFBA2FA92F982F88278E0F911D55
:103D6000A11DB11DE2E0880F991FAA1FBB1FEA9594
:103D7000D1F7861B970B885E9340C8F221503040E4
:103D80004040504068517C4F211531054105510597
:103D900071F60895019739F0880F991F880F991FC0
:103DA00002970197F1F70895789484B5826084BDF5
:103DB00084B5816084BD85B5826085BD85B581602F
:103DC00085BDEEE6F0E0808181608083E1E8F0E08F
:103DD0001082808182608083808181608083E0E8BE
:103DE000F0E0808181608083E1EBF0E0808184609D
:103DF0008083E0EBF0E0808181608083EAE7F0E09F
:103E00008081846080838081826080838081816002
:103E100080838081806880831092C10008951F9301
:103E2000CF93DF93182FEB0161E00E946F1F209763
:103E300009F44AC0CF3FD10509F449C0E12FF0E0B1
:103E4000EB57FB4F84918330C1F0843028F48130EC
:103E500051F08230B1F50CC0863019F1873049F14C
:103E6000843079F514C084B5806884BDC7BD33C083
:103E700084B5806284BDC8BD2EC0809180008068FA
:103E800080938000D0938900C093880024C08091E3
:103E90008000806280938000D0938B00C0938A0062
:103EA0001AC08091B00080688093B000C093B300C6
:103EB00012C08091B00080628093B000C093B400C3
:103EC0000AC0C038D1051CF4812F60E002C0812FE8
:103ED00061E00E94AE1FDF91CF911F910895CF93B3
:103EE000DF93482F50E0CA018F589B4FFC0134915B
:103EF000435A5B4FFA018491882369F190E0880F5F
:103F0000991FFC01E15CFB4FA591B491FC01E75BBB
:103F1000FB4FC591D491662351F42FB7F8948C913F
:103F2000932F909589238C93888189230BC06230CD
:103F300061F42FB7F8948C91932F909589238C93EB
:103F40008881832B88832FBF06C09FB7F8948C91FC
:103F5000832B8C939FBFDF91CF910895482F50E022
:103F6000CA018B579B4FFC012491CA018F589B4F6C
:103F7000FC019491435A5B4FFA013491332309F4C5
:103F800040C0222351F1233071F0243028F4213035
:103F9000A1F0223011F514C02630B1F02730C1F065
:103FA0002430D9F404C0809180008F7703C08091C1
:103FB00080008F7D8093800010C084B58F7702C011
:103FC00084B58F7D84BD09C08091B0008F7703C018
:103FD0008091B0008F7D8093B000E32FF0E0EE0F72
:103FE000FF1FE75BFB4FA591B4912FB7F8946623B1
:103FF00021F48C919095892302C08C91892B8C930C
:104000002FBF0895682F70E0CB018B579B4FFC01A9
:104010002491CB018F589B4FFC014491635A7B4FF5
:10402000FB019491992319F420E030E03CC0222355
:1040300051F1233071F0243028F42130A1F02230E6
:1040400011F514C02630B1F02730C1F02430D9F476
:1040500004C0809180008F7703C0809180008F7DA5
:104060008093800010C084B58F7702C084B58F7DA7
:1040700084BD09C08091B0008F7703C08091B000EB
:104080008F7D8093B000892F90E0880F991F8D5A03
:104090009B4FFC01A591B4918C9120E030E08423EA
:1040A00011F021E030E0C901089508951F920F92A8
:1040B0000FB60F9211242F933F934F938F939F939B
:1040C000EF93FF938091C00082FD1DC04091C60018
:1040D00020914404309145042F5F3F4F2F7330707F
:1040E00080914604909147042817390771F0E091B8
:1040F0004404F0914504EC5FFB4F4083309345044A
:104100002093440402C08091C600FF91EF919F91DB
:104110008F914F913F912F910F900FBE0F901F9055
:104120001895E0919804F0919904E05CFF4F81911B
:10413000919120813181821B930B8F739070892B19
:1041400011F00E94552008951F920F920FB60F9202
:1041500011242F933F938F939F93EF93FF9320917D
:1041600088043091890480918A0490918B042817E7
:10417000390731F48091C1008F7D8093C10014C054
:10418000E0918A04F0918B04E85BFB4F20818091E1
:104190008A0490918B0401968F73907090938B0496
:1041A00080938A042093C600FF91EF919F918F9195
:1041B0003F912F910F900FBE0F901F901895AF92C7
:1041C000BF92DF92EF92FF920F931F93CF93DF93F3
:1041D000EC017A018B01DD24403081EE580780E04C
:1041E000680780E0780711F0DD24D39491E0A92ED0
:1041F000B12CEC89FD89DD2069F0C50108A002C061
:10420000880F991F0A94E2F7808360E079E08DE3DC
:1042100090E005C0108260E874E88EE190E0A801AB
:1042200097010E94C1252150304040405040569592
:1042300047953795279580E12030380720F0DD201D
:1042400011F0DD24D6CFE889F9893083EA89FB892A
:10425000208319A2EE89FF89408121E030E0C90165
:104260000C8C02C0880F991F0A94E2F7482B4083F8
:10427000EE89FF894081C9010D8C02C0880F991F0A
:104280000A94E2F7482B4083EE89FF894081C901F7
:104290000E8C02C0880F991F0A94E2F7482B4083C6
:1042A000EE89FF8980810F8C02C0220F331F0A9490
:1042B000E2F7209528232083DF91CF911F910F9162
:1042C000FF90EF90DF90BF90AF900895DC011C96B7
:1042D000ED91FC911D97E05CFF4F21913191808120
:1042E0009181281B390B2F733070C9010895DC01AF
:1042F0001C96ED91FC911D97E05CFF4F2081318170
:10430000E054F040DF01AE5BBF4F8D919C9111975F
:104310002817390719F42FEF3FEF07C08D919C91B3
:10432000E80FF91F8081282F30E0C9010895DC01D2
:104330001C96ED91FC911D97E05CFF4F208131812F
:10434000E054F040DF01AE5BBF4F8D919C9111971F
:104350002817390719F42FEF3FEF10C08D919C916A
:104360001197E80FF91F20818D919C91119701966B
:104370008F73907011969C938E9330E0C9010895CD
:10438000DC0191968C919197882339F05496ED91A8
:10439000FC915597808186FFF9CF91961C920895E4
:1043A000CF93DF93EC01EE85FF85E05CFF4F20812A
:1043B0003181E054F0402F5F3F4F2F733070DF01A9
:1043C000AE5BBF4F8D919C91119728173907D1F3A0
:1043D000E05CFF4F80819181E054F040E80FF91FCD
:1043E0006083EE85FF85E05CFF4F31832083EE899B
:1043F000FF89208181E090E00F8C02C0880F991F17
:104400000A94E2F7282B208381E089A3EC89FD89B7
:1044100080818064808381E090E0DF91CF91089576
:1044200010928F0410928E0488EE93E0A0E0B0E02A
:104430008093900490939104A0939204B09393047A
:104440008BEF92E090938D0480938C0484E094E051
:10445000909399048093980488E494E090939B044B
:1044600080939A0485EC90E090939D0480939C0443
:1044700084EC90E090939F0480939E0480EC90E005
:104480009093A1048093A00481EC90E09093A30406
:104490008093A20482EC90E09093A5048093A404FE
:1044A00086EC90E09093A7048093A60484E0809328
:1044B000A80483E08093A90487E08093AA0485E0A0
:1044C0008093AB0481E08093AC040895CF93DF9395
:1044D0000E94D41E0E94F21CC1E9D0E20E9408177B
:1044E0002097E1F30E949120F9CF0E94D7240895EC
:1044F0000E943A240895CF92DF92EF92FF920F9399
:104500001F93CF93DF937C016B018A01C0E0D0E061
:104510000FC0D6016D916D01D701ED91FC91019015
:10452000F081E02DC7010995C80FD91F0150104037
:104530000115110571F7CE01DF91CF911F910F91F8
:10454000FF90EF90DF90CF900895EF92FF920F933E
:104550001F938C01DC01ED91FC910190F081E02D25
:104560006DE009957C01D801ED91FC910190F081FD
:10457000E02DC8016AE009959C012E0D3F1DC9017F
:104580001F910F91FF90EF900895CF93DF93EC016F
:104590006115710519F420E030E00FC0DB010D90CA
:1045A0000020E9F71197A61BB70BE881F98102807B
:1045B000F381E02DAD0109959C01C901DF91CF91F7
:1045C00008954F925F927F928F929F92AF92BF9287
:1045D000CF92DF92EF92FF920F931F93DF93CF93CF
:1045E000CDB7DEB7A1970FB6F894DEBF0FBECDBF33
:1045F0002C01742ECB01223008F42AE019A231E2FA
:10460000C32ED12CCC0EDD1E822E9924AA24BB24CD
:10461000672D752FA50194010E94C12579018A019A
:10462000C801B701A50194010E946F25472D461BC3
:104630000894C108D1084A3014F4405D01C0495CB7
:10464000F6014083E114F1040105110521F07E2CEF
:104650005F2DC801DDCFC201B6010E94C522A1961F
:104660000FB6F894DEBF0FBECDBFCF91DF911F9183
:104670000F91FF90EF90DF90CF90BF90AF909F9001
:104680008F907F905F904F900895DC012115310548
:1046900041F4ED91FC910190F081E02D642F09959A
:1046A00008950E94E1220895EF92FF920F931F93C5
:1046B0009A017B0100E010E0B801A7010E944523A8
:1046C0001F910F91FF90EF900895CF92DF92EF929C
:1046D000FF920F931F936C017B019A0100E010E0A1
:1046E000B801A7010E9445238C01C6010E94A522A2
:1046F000080F191FC8011F910F91FF90EF90DF90D5
:10470000CF900895EF92FF920F931F939A01E62E98
:10471000FF2400E010E0B801A7010E9445231F918B
:104720000F91FF90EF900895CF92DF92EF92FF925A
:104730000F931F936C01E62E9A01FF2400E010E016
:10474000B801A7010E9445238C01C6010E94A52241
:10475000080F191FC8011F910F91FF90EF90DF9074
:10476000CF900895CF92DF92EF92FF920F931F9315
:10477000CF93DF93EC016A017B012115310541F4F0
:10478000E881F9810190F081E02D642F09951FC027
:104790002A303105D1F477FF17C0E881F981019003
:1047A000F081E02D6DE209958C0144275527BA016F
:1047B0004C195D096E097F09CE012AE00E94E122B1
:1047C0009801280F391F04C02AE00E94E1229C01B1
:1047D000C901DF91CF911F910F91FF90EF90DF9072
:1047E000CF900895EF92FF920F931F937B019A0150
:1047F0000027F7FC0095102FB801A7010E94B223F3
:104800001F910F91FF90EF900895CF92DF92EF925A
:10481000FF920F931F936C017B019A010027F7FC15
:104820000095102FB801A7010E94B2238C01C60188
:104830000E94A522080F191FC8011F910F91FF9018
:10484000EF90DF90CF9008950E94C5220895EF92D7
:10485000FF920F931F937C010E94C5228C01C70118
:104860000E94A522080F191FC8011F910F91FF90E8
:10487000EF9008950F931F93CF93DF93BC01823085
:10488000910510F462E070E0E091B004F091B104A1
:1048900040E050E0A0E0B0E024C080819181861724
:1048A0009707D0F08617970771F48281938110974C
:1048B00029F013969C938E9312972CC09093B10479
:1048C0008093B00427C04115510519F0841795074E
:1048D00018F48D01AC01EF01DF01828193819C010D
:1048E000F9013097D1F641155105F9F0CA01861B3F
:1048F000970B8430910580F48A819B810115110505
:1049000021F0F8019383828304C09093B1048093D3
:10491000B004FE01329645C0FE01E80FF91F619315
:1049200071930297998388833CC08091AE049091E3
:10493000AF04892B41F4809192029091930290935D
:10494000AF048093AE0440919402509195024115BA
:10495000510541F44DB75EB780919002909191025C
:10496000481B590B2091AE043091AF042417350732
:10497000B0F4CA01821B930B8617970780F0AB0136
:104980004E5F5F4F8417950750F0420F531F5093AF
:10499000AF044093AE04F9016193719302C0E0E06B
:1049A000F0E0CF01DF91CF911F910F910895CF9348
:1049B000DF939C01009709F48FC0EC0122971B82C2
:1049C0001A826091B0047091B1046115710581F48F
:1049D00088819981820F931F2091AE043091AF049A
:1049E0002817390739F5D093AF04C093AE0474C0CB
:1049F000DB0140E050E0AC17BD0708F1BB83AA83A0
:104A0000FE0121913191E20FF31FAE17BF0779F438
:104A10008D919C911197280F391F2E5F3F4F39833D
:104A2000288312968D919C9113979B838A834115BD
:104A3000510571F4D093B104C093B0044DC01296E7
:104A40008D919C911397AD01009711F0DC01D3CFAC
:104A5000DA011396DC93CE931297FA0121913191EA
:104A6000E20FF31FCE17DF0769F488819981280FC1
:104A7000391F2E5F3F4FFA01318320838A819B814A
:104A800093838283E0E0F0E0DB0112968D919C91AC
:104A90001397009719F0BC01FD01F6CFAB014E5FF3
:104AA0005F4FDB018D919C91840F951F2091AE0487
:104AB0003091AF042817390779F4309729F4109210
:104AC000B1041092B00402C01382128242505040CE
:104AD0005093AF044093AE04DF91CF910895629F4D
:104AE000D001739FF001829FE00DF11D649FE00DE6
:104AF000F11D929FF00D839FF00D749FF00D659F47
:104B0000F00D9927729FB00DE11DF91F639FB00D45
:104B1000E11DF91FBD01CF0111240895991B79E012
:104B200004C0991F961708F0961B881F7A95C9F73D
:104B300080950895AA1BBB1B51E107C0AA1FBB1F8C
:104B4000A617B70710F0A61BB70B881F991F5A9519
:104B5000A9F780959095BC01CD01089597FB092E8A
:104B600007260AD077FD04D0E5DF06D000201AF42E
:104B7000709561957F4F0895F6F7909581959F4FB9
:104B80000895A1E21A2EAA1BBB1BFD010DC0AA1F8E
:104B9000BB1FEE1FFF1FA217B307E407F50720F0A6
:104BA000A21BB30BE40BF50B661F771F881F991F21
:104BB0001A9469F760957095809590959B01AC016A
:104BC000BD01CF01089597FB092E05260ED057FD94
:104BD00004D0D7DF0AD0001C38F4509540953095AA
:104BE00021953F4F4F4F5F4F0895F6F79095809571
:104BF000709561957F4F8F4F9F4F0895EE0FFF1F68
:0C4C00000590F491E02D0994F894FFCF8A
:104C0C0046697865642100537461746973746963CF
:104C1C007320696E20454550524F4D20657261736B
:104C2C0065200020646F6E65004C61737420737492
:104C3C00617469736963733A28002D002920666FCB
:104C4C00726D2000464E2020636E742000202000E0
:104C5C000D0A42696E642066696E64207374617219
:104C6C00743A2000204D61786C6576656C5B005D54
:104C7C003D000D0A54696D65733A200042696E64FB
:104C8C003D002046636F72723D002053657175655F
:104C9C006E63653A200020456E6400532F4E3D0034
:104CAC004952513D00535441525400543D00505010
:104CBC004D206F75740053425553206F7574004628
:104CCC00694572722100435243210042494E4421EE
:104CDC00004653205700523D0020533D0020433DD9
:104CEC000020413D0020526E3D0046636F72723DC4
:104CFC00002453415400746F2066730024524C00FE
:104D0C00534F5300496E6974000B01409CB80BB8AB
:104D1C000BB80BB80BB80BB80BB80BB80BB80BB86F
:104D2C000BB80BB80BB80BB80BB80BB80BB80BB85F
:104D3C000BB80BB80BB80BB80BB80BB80B0A01C7F8
:104D4C00F8C10F2500250025002B002B002B002B74
:104D5C0000280028002800280028000402018040B8
:104D6C0020102010080402040201804020102000B2
:104D7C000458006348CC000100004D9359A76DBD49
:104D8C007FD165040201001EC7010100004BD20453
:104D9C008000B20400000102030405060B0C0D0E8A
:104DAC000F101112131418191A1C28292A8202899F
:104DBC00029302B002C202DF02F502FC0203030AF4
:104DCC0003110318031F0326032D03440385039DBE
:104DDC0003A603AF03D403FC031C040A0009000858
:104DEC00000700060005000400130012001100006B
:104DFC000001000900080000000000D0217B2266A1
:084E0C002197217721C021004C
:00000001FF
