:100000000C944E020C94961D0C94C31D0C94760215
:100010000C9476020C9476020C9476020C94760280
:100020000C9476020C9476020C9476020C94760270
:100030000C9476020C949E020C9476020C94760238
:100040000C94F01D0C9476020C9451200C949F207B
:100050000C9476020C9476020C9476020C94760240
:100060000C9476020C947602507265737320276D9F
:100070002720746F207374617274204D454E552093
:10008000696E2031302073656300464C415348202F
:100090004552524F522121212043616E277420770F
:1000A0006F726B21004572726F72207265616420FD
:1000B00073657474696E6773210053657474696E37
:1000C000677320726573657420746F206465666160
:1000D000756C7473210046486E3A204D696E20415C
:1000E0007672204D6178000A0D426179636869205B
:1000F000736F66742032303133005258204F706570
:100100006E20457870657274205632204600546F18
:1001100020456E746572204D454E552050726573B2
:100120007320454E544552005479706520526567DE
:1001300020616E6420707265737320454E54455281
:100140002C20747970652056616C756520616E6431
:1001500020707265737320454E5445522028713DBE
:10016000517569743B2073732F736C2F73722F73E7
:10017000613D53746174290052673D56616C2009DA
:10018000436F6D6D656E7473202D2D2D2D2D2D2DCE
:100190002D2D2D2D2D2D2D2D2D2D2D2D2D2D2D2D8F
:1001A000004578656375746520726562696E643FA9
:1001B0002041726520796F75207375726528792FDB
:1001C0006E293F0046536E20496E465320204472EC
:1001D0006F70733A312020203220202033202020DD
:1001E00034202020352020203620202037202020B9
:1001F00038202000525353493A3120202032202009
:10020000203320202034202020352020203620209C
:10021000203720202038204E6F6973653A31202026
:100220002032202020332020203420202035202080
:10023000203620202037202020380046536E2049C9
:100240006E4653204472253A31202032202033203C
:100250002034202035202036202037202038202030
:10026000532F4E3A312020203220202033202020CE
:100270003420202035202020362020203720202028
:10028000380042696E64204E004672657120436FEB
:10029000727200536572766F203135302520737489
:1002A00072656368206E756D2028312D313229000A
:1002B0005374617469737469637320656E61626CF1
:1002C000650031316269742F313063682028313D17
:1002D0007965732C20323D46757461626129004452
:1002E00069736372657465206F75747075747320BB
:1002F0006D61736B00486F7020463100486F70204D
:10030000463200486F7020463300486F70204634F4
:1003100000486F7020463500486F70204636004810
:100320006F7020463700486F702046380042656184
:10033000636F6E204620283235353D6469736162F3
:100340006C652900426561636F6E20506D61782095
:10035000286D5774293A20302D312E323B20312D13
:10036000323B20322D333B20332D363B20342D3190
:10037000323B20352D32353B20362D35303B203772
:100380002D31303000426561636F6E20737461728D
:10039000742074696D652028736563290053415783
:1003A00020466D696E0053415720466D61780050BC
:1003B000504D2F53425553206D6F64652031737437
:1003C0002050574D2063686E6C2028312D3829202D
:1003D0005B345D005253534920747970653A207341
:1003E0006F756E642830292F6C6576656C28312D09
:1003F00039393D6176657261676529005253534909
:10040000206D6F64653A206C6576656C2830292F05
:10041000534E20726174696F283129005253534939
:10042000206F7665722050574D286368616E3A31AF
:100430002D31322920302D6E6F74207573650000C8
:10044000000000240027002A0000000000250028EA
:10045000002B0000000000230026002900040404F3
:10046000040404040402020202020203030303035D
:10047000030102040810204080010204081020013A
:10048000020408102000000007000201000003041D
:10049000060000000000000000000B2211241FBE17
:1004A000CFEFD8E0DEBFCDBF13E0A0E0B1E0E2E0E7
:1004B000FCE402C005900D92A230B107D9F714E018
:1004C000A2E0B3E001C01D92AC3AB107E1F714E03D
:1004D000CCE9D4E004C02297FE010E94FB25CA3972
:1004E000D107C9F70E9461220C94FF250C940000EB
:1004F000FC0188279927E89421912032E9F32930DB
:1005000010F02E30C8F32B3241F02D3239F46894BC
:1005100004C00E949602820F911D219120532A301F
:10052000C0F31EF4909581959F4F08957AE0979FB0
:10053000902D879F802D910D112408951F920F9269
:100540000FB60F9211242F933F934F935F938F9386
:100550009F93AF93BF93EF93FF938091840090910B
:1005600085008097D0F385B190914002892385B9A9
:1005700088B190914102892388B98BB19091420250
:1005800089238BB980912203882309F47DC080914F
:10059000EF038F5F8093EF0390913D02981730F443
:1005A00010921303109212031092EF034091EF0385
:1005B0004917B1F42091120330911303E0910B021B
:1005C000F0910C02CF01805797412817390718F096
:1005D00020E737E147C0CF01821B930B9C0142C04B
:1005E000A42F50912003523011F0E42F04C0E09169
:1005F0008902E40FE150FF27E7FDF095EE0FFF1FA2
:10060000EB5DFD4F208131812452304080911203F7
:1006100090911303820F931F9093130380931203FF
:10062000552369F0513049F44C5F80918902A42F21
:10063000A81B4450A3301CF415C0A42FAD5FAA30F2
:1006400088F4BB27A7FDB095FD01EE0FFF1FED5B02
:10065000FD4F0190F081E02D8081A95ABD4F9C9102
:10066000892B808380912003813091F44B3080F47A
:100670005F9A809184009091850084519240C8F3E4
:10068000245F31405F9804C020910B0230910C022E
:1006900080910B0290910C02821B930B909385002A
:1006A00080938400FF91EF91BF91AF919F918F91C3
:1006B0005F914F913F912F910F900FBE0F901F9020
:1006C0001895CF93DF9380917302882379F1C3E467
:1006D000D2E020E030E0482F50E0CA01022E02C0F4
:1006E000959587950A94E2F780FF1AC088819981D1
:1006F0008832910511F4E1E005C08B9711F4E2E036
:1007000001C0E0E0F0E0E05CFD4FD901AF59BD4F22
:1007100080819C91892B8083F901E95AFD4F1082D9
:100720002F5F3F4F229628303105B9F6DF91CF91E8
:1007300008956F927F928F929F92AF92BF92CF92C5
:10074000DF92EF92FF920F931F93CF93DF93EC0111
:1007500020917002822F6AE00E948925892E8A9456
:10076000822F0E948925982E9A947091720272307D
:1007700009F49AC09F858D853E010DE012E0E0E00E
:10078000F0E0C82EDD24A2E0AA2EB12CE92EFF2431
:10079000D30112968C91482F50E0440F551F440FFF
:1007A000551F6E2FE83028F52E2F898190E00E2EF0
:1007B00002C0959587950A94E2F780FD54606730F2
:1007C00061F0C501022E02C0880F991F0A94E2F75A
:1007D0008E219F21892B09F042607723C1F1C60148
:1007E00002C0959587952A95E2F780FF30C0416059
:1007F0002EC0440F551F772351F1E83039F48C8512
:1008000090E087709070482B592B21C0E93019F087
:1008100040E050E01CC08C8590E023E095958795E2
:100820002A95E1F79C0127703070422B532B959548
:100830008795959587958270907020911B023091D5
:100840001C02822B932B90931C0280931B02681531
:1008500011F06915C1F4CA01805094409C0135958E
:100860002795280F391FBBEF20353B0714F420E5EF
:100870003BEFC90124E0813B920714F080EB94E048
:10088000AC0140505C4F4854584FD8014D935D9394
:100890008D0131960894611C711CEC30F10509F052
:1008A00077CF3F85317066C0DE01E7E9F3E011964E
:1008B0008C9111978193119623E0E53AF207B9F7ED
:1008C000FDE0EF2EF2E0FF2E11E001E0B0E048C0C5
:1008D000660F771FFE01E00FF11D808190E0212F50
:1008E00030E082239323892B11F0462B572B1038AD
:1008F00019F40F5F11E001C0110FAF5FAB3041F78A
:10090000B81511F0B915C1F4CA01805094409C018A
:1009100035952795280F391F7BEF2035370714F4BD
:1009200020E53BEFC901A4E0213B3A0714F080EB3E
:1009300094E0AC0140505C4FCA01880F991F880FAA
:10094000991F840F951F959587959595879580524A
:10095000994FF701819391937F01BF5FBA3031F0D6
:1009600040E050E0A0E061E070E0B4CFC00FD11DE6
:100970003881307880917302882389F1A3E4B2E052
:1009800041E652E02DE0E22E22E0F22E61E0082F57
:1009900010E0862F90E080239123892B99F0E701C6
:1009A00088819981ED91FC911197EA012881895BF9
:1009B0009B4020F08081822B808304C08081209521
:1009C0002823208312964F5F5F4F82E090E0E80E6D
:1009D000F91E92E0A335B90711F0660FDACF832F25
:1009E000DF91CF911F910F91FF90EF90DF90CF900B
:1009F000BF90AF909F908F907F906F9008959C01D3
:100A0000809172028230E1F4F90190E05CE8B90172
:100A1000615F7F4F8181982740E0892F90E09C01A2
:100A20003595279580FF03C0952F922701C0922FFF
:100A30004F5F483091F73196E617F70759F71BC01B
:100A4000F90190E05CE8B901635F7F4F82819827EC
:100A500040E0892F90E09C013595279580FF03C0E9
:100A6000952F922701C0922F4F5F483091F7319612
:100A7000E617F70759F7892F08955C9A42985C9812
:100A800098E010C087FF07C042980000419A00001C
:100A9000429A000006C04298000041980000429A25
:100AA0000000880F915070F7429808958F770E9448
:100AB0003D050895429898E010C087FF07C042980E
:100AC0000000419A0000429A000006C042980000CF
:100AD00041980000429A0000880F915070F74298A8
:100AE00008951F93162F80680E943D05812F0E9454
:100AF0005A055C9A1F9108951F93809121038F5F7F
:100B000080932103883010F010922103E09121039B
:100B1000F0E0EC58FD4F108189E7612F0E947105CC
:100B200080918702181738F080918802811718F099
:100B30008EE064E002C08EE060E00E9471051F91CB
:100B40000895429880E090E0880F429A0000309922
:100B50008160429800009F5F9830B1F708950E942D
:100B600056050E94A1055C9A089583E00E94AF0596
:100B70008093A50384E00E94AF058093A60386E0DE
:100B800060E00E94710587E061E00E94710560915C
:100B90006F02662311F089E002C089E067EC0E94D1
:100BA00071058AE065E00E9471058BE062E10E94B8
:100BB00071058CE065E10E9471058DE06AE00E949C
:100BC00071058EE060E00E9471058FE163E00E9494
:100BD00071058EE16AE00E94710582E160E60E9483
:100BE000710583E168EF0E9471058FE060E80E9463
:100BF00071058DE160E40E9471058CE166E20E945E
:100C0000710580E264E40E94710581E260E00E9467
:100C1000710582E262EF0E94710583E26CE70E9437
:100C2000710584E266E00E94710585E26DE70E942D
:100C300071058AE26EE10E94710580E36CEA0E9410
:100C4000710582E36CE80E94710583E36AE00E940B
:100C5000710584E364E00E94710585E362E20E940D
:100C6000710586E36DE20E94710587E364ED0E94E1
:100C7000710588E360E00E94710589E360E00E94ED
:100C800071058EE360E10E9471058DE66FE00E94C0
:100C900071058EE66CE30E9471058FE66FE90E9494
:100CA000710589E660E60E94710580E76EE20E94A8
:100CB000710589E760E00E9471058AE766E00E949D
:100CC000710581E763E20E94710582E76EE00E9490
:100CD000710585E763E50E94710586E76CE40E9473
:100CE000710587E760EE0E947105089587E061E075
:100CF0000E9471058EE764E20E94710588E063E05E
:100D00000E94710588E060E00E94710587E065E05F
:100D10000E94710585E062E00E94710583E00E94F7
:100D2000AF058093A50384E00E94AF058093A603DE
:100D3000089583E00E94AF058093A50384E00E949C
:100D4000AF058093A60387E061E00E9471050895D6
:100D5000482F8091E5039091E603481721F49C5EAB
:100D60009093E60308952091E7033091E803290F5B
:100D7000311D3093E8032093E70301C078948091FC
:100D8000840090918500B901681B790B623271056E
:100D9000A8F7F8948091840090918500281739076E
:100DA000C9F7442311F05D9801C05D9A4093E503B3
:100DB00084E18093E6030895EF92FF920F931F93CF
:100DC000CF93DF93E82E80E00E94A806FF2410E076
:100DD00001E0CE2DD0E0802F90E08C239D23892B45
:100DE00029F081E00E94A8061F5F03C080E00E94F6
:100DF000A806F39488E0F81611F0000FECCF812FCD
:100E000081700E94A80681E00E94A80681E00E94ED
:100E1000A806DF91CF911F910F91FF90EF90089559
:100E2000DF92EF92FF920F931F93CF93DF93809106
:100E30002003823009F079C08FE08093CC03909139
:100E40003C03992311F018E001C010E01093E30374
:100E50001092E403809172028230A1F4992391F4FC
:100E6000E7E9F3E0ADECB3E081918D9383E0E53AFF
:100E7000F807D1F71091A4031F734AE07EE0D72E44
:100E800000E404C040E0DD24D39401E080919203AB
:100E9000E82EFF2463E0EE0CFF1C6A95E1F7C09199
:100EA0001E03D0911F0353E0CC0FDD1F5A95E1F7CD
:100EB0004C30A0F4E42FF0E0EE0FFF1FEB5DFD4F90
:100EC00080819181805E9640880F991F880F991FBD
:100ED00065E070E00E949525CB0107C04D3011F40C
:100EE000C70103C04E3019F4CE0120E00AC04F30D4
:100EF00019F480E096E0F9CF80E090E0F6CF969587
:100F0000879580FD102B003849F4ED2DF0E0E45377
:100F1000FC4F1083D39401E010E001C0000F2F5F5D
:100F20002B3069F74F5F403118F2DF91CF911F915D
:100F30000F91FF90EF90DF90089520E030E0F8945B
:100F4000F901EB5DFD4FD901A35FBD4F8D919C91E0
:100F50009183808378942E5F3F4F2831310579F754
:100F6000E0918602EE23A1F0F894F0E0EE0FFF1F6F
:100F7000ED5DFD4F80911E0390911F0386509F4FA2
:100F8000A3E0880F991FAA95E1F791838083789455
:100F900081E0809322030E9410070895EF92FF9250
:100FA0000F931F93CF93DF938091C6038093AB037E
:100FB00090913F039093AC0380913C03882389F484
:100FC00080912203882369F0CDEAD3E02BE633E059
:100FD00010EEE12E1FEFF12EE20EF31EF901870154
:100FE00004C090689093AC03EFCFB8978081B89617
:100FF0008883188A18866081662339F0D8018D911C
:101000009C9170E00E94952568876085662349F071
:10101000D80150968D919C91519770E00E94952532
:10102000688B219631960E5F1F4FB3E0C53BDB07FF
:10103000E1F6F701118A108AD7011D921D927D01F8
:10104000F9011082108628523040D9011C92275D88
:101050003F4FBBE5EB16B3E0FB0659F71092400398
:1010600010923F031092C503DF91CF911F910F9112
:10107000FF90EF9008950F931F93CF93DF930DE0B0
:1010800012E0C0E4D0E0F801418180EF93E0BE01BE
:101090000E94671D219680EF93E0BE01F801408118
:1010A0000E94671D0E5F1F4F2196F2E005321F0759
:1010B00051F7DF91CF911F910F910895462FBC01F9
:1010C0006F5E7F4F80EF93E00E94671D0895DF926F
:1010D000EF92FF920F931F938C01D62E472F80EF34
:1010E000E82E83E0F82EC701B8010E94671D0F5F4C
:1010F0001F4FC701B8014D2D0E94671D1F910F9111
:10110000FF90EF90DF900895EF92FF920F931F935F
:10111000CF93DF930DE612E0EE24FF24C0E0D0E091
:10112000CE01F80160810E945E08F80181918F0173
:10113000E80EF11C2196C730D10591F7C4E7D2E043
:101140000BE010E0C80168810E945E088991E80EFA
:10115000F11C0F5F1F4FF2E0CC37DF0799F7CCE7A8
:10116000D2E003E110E0C80168810E945E08899125
:10117000E80EF11C0F5F1F4F82E0C238D80799F7C5
:1011800089E190E0609187020E945E088091870269
:10119000E701C80FD11D8AE190E0609188020E94AA
:1011A0005E0880918802C80FD11D8CE190E06091AB
:1011B00089020E945E0880918902C80FD11D04E84F
:1011C00012E098E2E92EF12CC701F80160810E943B
:1011D0005E08F80181918F01C80FD11D0894E11CB0
:1011E000F11CF2E007381F0779F78AE090E0BE01B2
:1011F0000E946708DF91CF911F910F91FF90EF90B0
:101200000895AF92BF92CF92DF92EF92FF921F9319
:10121000CF93DF934DE0C42E42E0D42E30E4E32E92
:10122000F12C28EBA22E2BE0B22E80EF93E0B70139
:101230000E94601D182FB7016F5F7F4F80EF93E012
:101240000E94601DD12FC0E09E01280F311DC901F1
:10125000F601318320838C5697408959984018F0C5
:10126000F601B182A08222E030E0E20EF31EC20E4F
:10127000D31E38E5E316F104C1F6DF91CF911F913B
:10128000FF90EF90DF90CF90BF90AF900895BC019A
:101290006F5E7F4F80EF93E00E94601D0895DF92A4
:1012A000EF92FF920F931F938C0150EFE52E53E0C6
:1012B000F52EC701B8010E94601DD82E0F5F1F4F89
:1012C000C701B8010E94601D3D2D20E0280F311D8F
:1012D000C9011F910F91FF90EF90DF9008950F9338
:1012E0001F93CF93DF9300E010E0C0E0D0E0CE0189
:1012F0000E944709FE01E359FD4F8083080F111D2D
:101300002196C730D10599F7CBE0D0E0CE010E94FD
:101310004709FE01E759FD4F8083080F111D2196F3
:10132000C331D10599F7C3E1D0E0CE010E9447094E
:10133000FE01E759FD4F8083080F111D2196C93129
:10134000D10599F780917D02883008F05BC0863026
:1013500008F059C0823010F491E002C091E0891B7E
:1013600080937E02981708F4891B80937F02109265
:10137000800289E190E00E94470980938702080F6C
:10138000111D8AE190E00E94470980938802080FAE
:10139000111D8CE190E00E944709982F8150883000
:1013A00020F490938902090F111DC8E2D0E0CE010C
:1013B0000E944709FE01E45AFD4F8083080F111D6A
:1013C0002196CB32D10599F78AE290E00E94470935
:1013D0008093860281508C3010F0109286028091AA
:1013E0008602080F111D8AE090E00E944F0920E05C
:1013F0008017910709F421E0822FDF91CF911F918F
:101400000F91089587E092E0AACF0F931F93CF9397
:10141000DF9320910A02222379F1E0E0F0E000E07E
:1014200010E08491080F111D319680E4E030F80738
:10143000C1F7922F80E020910902EC01C20FD11D6B
:1014400086E090E00E944F09C817D90761F086E056
:1014500090E0BE010E94670888E090E0B8010E9419
:10146000670881E00AC088E090E00E944F09801779
:10147000910711F08FEF01C080E0DF91CF911F91B4
:101480000F9108950F931F93E2E0F0E081E28093C3
:1014900057008491843931F488EF91E090936A0287
:1014A0008093690280EF93E06CE070E00E94601D21
:1014B000082F10E010936C0200936B0280EF93E012
:1014C0006DE070E00E94601D382F20E0200F311F7A
:1014D00030936C0220936B022835310538F08091EF
:1014E000690290916A0228173907C0F088E590E0F8
:1014F00090936C0280936B0280EF93E06CE070E05D
:1015000048E50E94671D40916C0280EF93E06DE01A
:1015100070E00E94671D1092C60316C0C901CE97E5
:101520006AE170E00E949525882331F0281B31097B
:1015300030936C0220936B0280EF93E06EE070E0DA
:101540000E94601D8093C6038091C6038F5F8093C5
:10155000C603843610F01092C603ABE4B3E0FD017D
:10156000B09651961C921E9250971D921D92108219
:101570001086B8971082B99683E0AB35B80789F723
:101580001092400310923F031092420310924103C5
:101590008AE18093C5030E94381E6093C70370934D
:1015A000C8038093C9039093CA031F910F910895B4
:1015B00080913E03813019F482E080933E03809154
:1015C0003E03833069F484E080933E030E94381E1A
:1015D0006093930370939403809395039093960381
:1015E000089580912003823011F0E0E015C00E9440
:1015F000461EE0E02091A7033091A8034091A90383
:101600005091AA03621B730B840B950B63567941AF
:101610008040904008F0E1E08E2F0895EF92FF9215
:101620000F931F9380917102882309F496C00E9442
:10163000F10A882309F091C08AC0F0E060916B0242
:1016400070916C026E0F7F1FE555FC4F80EF93E0A9
:1016500040810E94671D8091C5038F5F8093C50301
:101660008A3109F04CC080916B0290916C024A96CD
:1016700090936C0280936B022091690230916A0210
:1016800082179307E0F188E590E090936C028093D5
:101690006B0235C0EA3139F440916C0280EF93E07F
:1016A0006DE070E008C0EB3171F480EF93E06CE026
:1016B00070E040916B020E94671D8091C5038F5FAF
:1016C0008093C5031CC0EC31D1F48DE18093C50338
:1016D0008091410390914203892B41F480EF93E084
:1016E0006EE070E04091C6030E94671D8091410347
:1016F000909142030196909342038093410320917D
:1017000023033091240340912503509126038091B7
:10171000C7039091C803A091C903B091CA0379018E
:101720008A01E81AF90A0A0B1B0BD801C701805677
:101730009A4EA040B04088F02093C7033093C8036E
:101740004093C9035093CA030E94CE0706C0E0919C
:10175000C503EA3108F09ECF70CF1F910F91FF9023
:10176000EF9008950F931F93CF93DF938091200301
:10177000823009F057C080912203882309F452C0B7
:101780000E94461EAB01BC018091A7039091A80363
:10179000A091A903B091AA038A019B01081B190B10
:1017A0002A0B3B0BD901C80183569941A040B04098
:1017B000C8F1209184003091850080910B029091B6
:1017C0000C028F5F98418217930760F11EC08091D1
:1017D000E30384608093E3031092E5031092E60331
:1017E000F89480918400909185009093E803809311
:1017F000E7035D9ACCECD3E089910E94DC0623E0FC
:10180000C53ED207C9F778940DC04093A703509303
:10181000A8036093A9037093AA0380913D038823D2
:10182000B1F6DACFDF91CF911F910F910895EF922A
:10183000FF920F931F938C010E94461E780100E0D7
:1018400010E0E60EF71E081F191F02C00E94B20B1F
:101850000E94461E6E157F0580079107B8F31F9101
:101860000F91FF90EF900895EF92FF920F931F93C7
:10187000CF93DF937B01142F9C01442737FD4095C4
:10188000542F60E271EA87E090E00E94DE25E901D2
:101890002530310514F4C5E0D0E0177018608DE6EE
:1018A000612F0E9471052D9A61E070E080E090E068
:1018B0000E946C1E2D98A895B701882777FD80950A
:1018C000982F20E930ED43E050E00E946A259E0108
:1018D000442737FD4095542F0E94DE25790100E012
:1018E00010E00AC0419ACE010E94170C4198CE0127
:1018F0000E94170C0F5F1F4F0E151F0598F3DF9105
:10190000CF911F910F91FF90EF90089583E00E9477
:10191000AF058093A50384E00E94AF058093A603E2
:1019200086E060E00E94710587E061E00E94710539
:1019300089E060913F020E9471058AE065E00E94A3
:1019400071058BE062E10E9471058CE065E10E9407
:1019500071058DE06AE00E9471058EE060E00E94F2
:10196000710580E76CE20E94710580E360E00E94EF
:10197000710589E760917C020E9471058AE766E043
:101980000E94710581E762E10E94710582E762E0D1
:101990000E94710583E760E00E94710584E760E0C2
:1019A0000E9471058EE060E00E94710560917D02E9
:1019B000677068608DE60E9471056AE070E080E003
:1019C00090E00E946C1E87E069E00E94710588EB40
:1019D00091E061E070E040917D020E94340C8DE561
:1019E00091E061E070E040917E020E94340C85E05D
:1019F00091E061E070E040917F020E94340C8FEA38
:101A000090E061E070E0409180020E94340C87E039
:101A100061E00E94710508950E94990662E370E0FA
:101A200080E090E00E946C1E0E94760600000895FF
:101A3000CF92DF92EF92FF920F931F93CF93DF939A
:101A4000982FEB01D42EC22EA89589E7692F0E940A
:101A50007105CC2021F08DE160E40E9471050E94A7
:101A60000C0D0E94381E7B018C01CE01A0E0B0E07D
:101A7000E80EF91E0A1F1B1F83E080933E0307C078
:101A80000E94381EE616F7060807190720F0809115
:101A90003E038330A9F380913E03843009F07AC07D
:101AA0008FE70E945605C2E0D3E00E94A10589930A
:101AB00083E0C231D807C9F70E9476068091E90316
:101AC000882329F0CE0140970E94FF043EC0FE010A
:101AD0003E9790E05CE88081982740E0892F90E075
:101AE0009C013595279580FF03C0952F922701C053
:101AF000922F4F5F483091F7319683E0E131F8073C
:101B000051F7992321F48091720281701CC03E9795
:101B100090E05CE88081982740E0892F90E09C016C
:101B20003595279580FF03C0952F922701C0922FEE
:101B30004F5F483091F7319683E0E231F80751F773
:101B4000992341F582E08093720281E08093E9035A
:101B5000DD2021F080910203D816E1F4CC20C1F001
:101B60008BE20E94AF052091EB033091EC03482FEC
:101B700050E0813810F020503140240F351F309351
:101B8000EC032093EB038091EA038F5F8093EA03D9
:101B900081E001C080E0DF91CF911F910F91FF9014
:101BA000EF90DF90CF9008951F9380916F0288236C
:101BB00009F054C086E894E00E94612118161906C5
:101BC0000CF04CC086E894E00E9492218D30910583
:101BD00091F48091820280936F0280933F020E9471
:101BE000840886E894E060E071E00E9422240E946C
:101BF000B50581E034C08E33910531F08E32910508
:101C000019F08E3E910521F4809182028F5F0CC005
:101C10008C33910531F08C32910519F0813A9105A0
:101C2000E9F4809182028150809382028091820245
:101C3000882319F48FEF809382021091820289E049
:101C4000612F0E94710586E894E0612F4AE050E020
:101C50000E948F238091820280933F0280E01F9137
:101C6000089586E894E00E9461211816190614F080
:101C700020E00CC086E894E00E9492218D36910508
:101C800021F020E08D34910509F421E0822F0895A0
:101C9000FF920F931F938091230390912403A091AF
:101CA0002503B091260320918E0330918F0340913C
:101CB000900350919103821B930BA40BB50B449797
:101CC000A105B10508F446C086E894E00E946121B0
:101CD000082F10E0FF24F3943BC086E894E00E94B4
:101CE0009221982F80918B03882359F4963179F5AE
:101CF00090937B03F0928B0310928D0310928302DA
:101D000026C0E82FF0E0E558FC4F90838F5F80936A
:101D10008B038031E0F010928B038BE793E00E94FD
:101D2000FF048823A1F48091230390912403A091C0
:101D30002503B091260380938E0390938F03A09385
:101D40009003B093910381E080938D0303C01F5FE4
:101D500010171CF21F910F91FF9008951F93182FD9
:101D600006C086E894E060E20E94CB211150112366
:101D7000C1F71F9108951F9394E6899FC001112414
:101D80006EEE70E00E94A925162F643610F013E65F
:101D900005C06A3018F481E00E94AE0E86E894E037
:101DA000612F4AE050E00E947D2381E00E94AE0E48
:101DB0001F9108951F93182F8A3010F482E003C0FA
:101DC000843618F481E00E94AE0E86E894E0612F1C
:101DD0004AE050E00E947D2381E00E94AE0E1F91F8
:101DE0000895982F8091CB0381119695892F0E9499
:101DF000DA0E0895CF93DF9386E894E067E071E010
:101E00000E941F24C8E5D0E012C080EF93E0BE011D
:101E10004FEF0E94671DCE018F779070892B29F4B8
:101E200086E894E06EE20E94CB21A89521968091ED
:101E3000690290916A02C817D90738F388E590E0E3
:101E400090936C0280936B021092C60380EF93E034
:101E50006CE070E048E50E94671D40916C0280EFE5
:101E600093E06DE070E00E94671D80EF93E06EE00C
:101E700070E04091C6030E94671D0E94420A86E8F6
:101E800094E063E271E00E942224DF91CF910895F3
:101E90001F93CF93DF93EC01162FFE0121966491DF
:101EA000662329F086E894E00E94CB21F6CF112327
:101EB00021F086E894E00E94A022DF91CF911F914B
:101EC00008955F926F927F928F929F92AF92BF928E
:101ED000CF92DF92EF92FF920F931F93CF93DF93F6
:101EE000833719F020E0833509F421E0822E8C3607
:101EF00019F090E08C3409F491E0592E823719F0F2
:101F0000BB24823519F4BB24B39402C0843619F083
:101F10006624843411F4662463941092CB038A35CA
:101F200018F481E08093CB03222341F4992331F408
:101F3000BB2021F4882483945524539486E894E0AC
:101F400069E271E00E941F2486E894E068E570E091
:101F50004AE050E00E94ED2386E894E06AE371E0F5
:101F60000E941F246091690270916A0286E894E0E1
:101F70004AE050E00E944F2386E894E06CE371E071
:101F80000E941F2460916B0270916C0286E894E0BD
:101F90004AE050E00E94602386E894E064E471E047
:101FA0000E941F24882029F084EC91E060E00E94C8
:101FB000480FBB2019F08BE392E004C0552031F0AC
:101FC00084EF91E061E00E94480F04C086E894E04D
:101FD0000E94A022C0916B02D0916C02782C770CE9
:101FE00083E0780E9924FF248E010F5F1F4F80EF4E
:101FF00093E0BE010E94601DA82E84E68A1520F49D
:10200000662011F46A96AFC0AF1099248A2D0E9401
:10201000DA0E9394892D0E94DA0E882019F4BB20E1
:1020200009F440C078010894E11CF11C80EF93E0B2
:10203000B8010E94601D182F8F770E94DA0E81E090
:102040000E94AE0E812F881F8827881F0E94DA0EFB
:10205000872D0E94AE0E882089F0B7018E01065FA1
:102060001F4FEB01219680EF93E00E94601D0E94BC
:10207000DA0EC017D10799F0BE01F3CFB7018E0178
:10208000065F1F4FEB01219680EF93E00E94601DD9
:102090000E94BB0EC017D10711F0BE01F3CFE701BC
:1020A000289602C0E8012996552019F4BB2009F4AE
:1020B00053C083E00E94AE0E882019F081E00E9498
:1020C000AE0EBB2009F18E01E8E0CE2ED12CCC0E55
:1020D000DD1E80EF93E0B8010E94601DF82E085FBE
:1020E0001F4F80EF93E0B8010E94601D0750104021
:1020F000F81610F480E002C0F81A8F2D0E94F10E3D
:102100000C151D0531F728C0BE018E01085F1F4F59
:102110007B010894E11CF11C80EF93E00E94601D9C
:102120000E94F10EE016F10611F0B701F1CF84E044
:102130000E94AE0EB80160968B010F5F1F4F80EFBB
:1021400093E00E94601D0E94F10EB8010C171D075C
:1021500099F7E701289601C0609686E894E00E940E
:10216000A022A895FA2C8091690290916A02C81762
:10217000D90710F0C8E5D0E080916B0290916C0215
:10218000C817D90709F030CFDF91CF911F910F9178
:10219000FF90EF90DF90CF90BF90AF909F908F9087
:1021A0007F906F905F90089587EE90E061E00E94CD
:1021B000480F8AEF90E060E00E94480F86E894E0C4
:1021C000609109024AE050E00E948F230895FF9237
:1021D0000F931F93CF93DF9388E791E060E00E9415
:1021E000480F88E091E060E00E94480F86E894E0A4
:1021F000609109024AE050E00E948F23FF2401E031
:1022000010E0CF2DD0E0FE01E057FD4F808190E03F
:102210008017910729F586E894E0B8014AE050E07C
:102220000E94ED2386E894E06DE30E94CB21C80173
:102230000E944709682F86E894E04AE050E00E9437
:102240007D2386E894E069E00E94CB21CC0FDD1F5E
:10225000C955DD4F8881998161E00E94480FF39450
:102260000F5F1F4F0B32110561F6DF91CF911F9168
:102270000F91FF900895AF92BF92CF92DF92EF92AD
:10228000FF920F931F93CF93DF935C0101960E94FF
:1022900078029C0101978E3F910510F010E01EC05E
:1022A000122F82E090E0F501E80FF91FE081EE23A4
:1022B000A9F00196ED3279F48A0D9B1D0E947802F7
:1022C0009C01812F90E08217930740F42F3F310546
:1022D00028F4C22E05C08A30910529F72EEFC22EB0
:1022E0000E94B5050E940C0D8EE060E00E94710511
:1022F00086ED90E061E00E94480FE12EAEC089E7D4
:102300006E2D0E9471058DEE92E00E94C51E0FEFAA
:10231000FF24C0E0D0E010E083E690E00E94C51EFC
:1023200086E20E94AF05C80FD11D801708F4082F60
:10233000F81608F4F82E1F5F173C71F789E08E1528
:1023400038F086E894E06DE471E00E941F2408C034
:10235000E3E6EE1528F086E894E060E20E94CB21E7
:1023600086E894E06E2D4AE050E00E947D23E4E789
:10237000F2E06AE380818E1509F463E2319682E02F
:10238000EC37F807B9F786E894E00E94CB2186E89D
:1023900094E060E20E94CB21802F0E94DA0ECE01F1
:1023A00067EC70E00E949525162F862F0E94DA0EAA
:1023B0008F2D0E94DA0EF50180818E3409F047C01E
:1023C0000A3010F4DD2408C0083418F09DE3D92E3B
:1023D00003C086EFD82ED00EF9E0FF1510F000E014
:1023E00007C087E48F1510F40DE302C00F2D0A50CB
:1023F0001A3010F4FF2408C0183418F0BDE3FB2E87
:1024000003C0A6EFFA2EF10E10E01F1521F486E8A6
:1024100094E06AE217C01D1521F486E894E06CE3AD
:1024200011C0101721F486E894E06EE30BC0D116BA
:1024300030F4101720F486E894E06EE203C086E8DA
:1024400094E060E20E94CB211F5F0117F0F686E85E
:1024500094E00E94A022A895E394CE1408F04FCFF8
:10246000DF91CF911F910F91FF90EF90DF90CF9070
:10247000BF90AF900895EF92FF920F931F93CF9369
:10248000DF937C01FC01108200E010E086E894E01C
:102490000E94612118161906CCF586E894E00E9486
:1024A0007221469739F481E7F701808311821092F7
:1024B000830234C086E894E00E949221EC01181651
:1024C000190654F586E894E06C2F0E94CB21CD309C
:1024D000D10519F0CA30D10529F486E894E00E94AC
:1024E000A0221CC0C830D10531F40115110571F2CC
:1024F00001501040CBCFF701E00FF11FC0831182D4
:102500000A3011054CF40F5F1F4F06C061E070E008
:1025100080E090E00E946C1EA895B8CFDF91CF912B
:102520001F910F91FF90EF900895FF920F931F93CB
:102530008730A8F5880F082F10E0000F111FF80151
:10254000EB52FD4FF0808F2D60E00E946A1F8F2DAF
:1025500061E00E94A91F09521D4FF8010081802FE0
:1025600061E00E94A91F82E090E00E94C51E8F2DAD
:102570000E94FD1F019779F4802F60E00E94A91F3F
:1025800082E090E00E94C51E8F2D0E94FD1F892BC6
:1025900011F481E005C08F2D61E00E946A1F80E088
:1025A0001F910F91FF9008952F923F924F925F924B
:1025B0006F927F928F929F92AF92BF92CF92DF9253
:1025C000EF92FF920F931F93DF93CF93CDB7DEB7B8
:1025D00062970FB6F894DEBF0FBECDBF80E091E0EA
:1025E0000E947322988B8F8785E00E9495121B862C
:1025F000882311F481E08B877894AF85B889A15046
:10260000BF4FBA8BA98B1092E9031092EA03109284
:10261000EC031092EB0380916F028A5A8D3318F00D
:1026200087EC80936F020E94B5050E940C0D8EE02E
:1026300060E00E9471058DE160E00E9471050E94DA
:102640007606BB85BB2331F086E894E060E571E057
:102650000E941F24EF85F889FA87E98711928989FA
:102660009A89E817F907D1F70E94381E5B016C01BF
:102670008FE19EE4A0E0B0E0A80EB91ECA1EDB1EEA
:1026800066241C86A8950F851889FF249924EE24BA
:10269000D8018C918A3FA8F489E76F2D0E947105BB
:1026A00089E892E00E94C51E86E20E94AF05982F3D
:1026B000F8018081891708F49083E91610F49F2CA3
:1026C000E92EF3940F5F1F4FFFEFFF1609F72D98C8
:1026D000662009F58B858823D1F086E894E064E6CE
:1026E00071E00E941F2486E894E0692D4AE050E0E2
:1026F0000E947D2386E894E06FE671E00E941F242B
:1027000086E894E06E2D4AE050E00E948F2395E920
:102710009E1528F078CFA5E9AE1508F0B3CF892D26
:1027200063E071E04C8520E00E94180D8823D9F009
:10273000B0910203BC87EB85EE2361F086E894E05C
:10274000692D4AE050E00E947D2386E894E060E233
:102750000E94CB21E1E0F0E0EC0FFD1FE60DF11D42
:10276000908263942D9AEF85F889E90DF11D8FEF22
:102770008083662009F447CF0E94381EA616B7064C
:10278000C806D90660F4862D8150823060F094E04E
:10279000691649F0A8E06A1609F035CF04C0B7E021
:1027A000B61508F06FCF0E94381E4B015C018AE01D
:1027B0009AE1A0E0B0E0880E991EAA1EBB1E7980A7
:1027C0009B85992331F086E894E062E771E00E94EE
:1027D0001F2472E0C72ED12CCC0EDD1E16014F84B3
:1027E0005888A1E0AE871D8660C00E94381E8616FC
:1027F0009706A806B90608F406CF872D63E071E0B6
:102800004C8521E00E94180D882379F30E94381E20
:102810007B018C01F101808167E572E04C8521E04C
:102820000E94180D8823C1F10E94381E28EF3FEF47
:102830004FEF5FEF2E193F09400B510B260F371F4B
:10284000481F591F65E056954795379527956A9516
:10285000D1F7622F283008F06850EF85F88990E0B2
:102860008191861709F4ACCF9F5F8E859817C0F3CE
:10287000D20111966C93BB85BB2359F086E894E096
:102880004AE050E00E947D2386E894E060E20E94E6
:10289000CB21ED85EF5FED87FE85FF5FFE87089416
:1028A000211C311C0894411C511C8E85861508F48E
:1028B0009CCF9B85992321F086E894E00E94A0227A
:1028C00070927402A1E06A1641F4E5E7F2E07192B9
:1028D000B2E0EC37FB07D9F750C0E2E06E1691F496
:1028E0008A8170927402809375027092760280934E
:1028F0007702709278028093790270927A028093C4
:102900007B023BC0F4E06F16E9F49E012B5F3F4F62
:10291000A985BA851196EC91EF5FE43038F4F0E0C8
:10292000D6018C91EC58FD4F80838483E985FA852C
:102930003196FA87E9870894C11CD11CC216D306C8
:1029400039F71BC0FD85F73008F45DCE9E01275F87
:102950003F4FA985BA851196EC91EF5FF0E0EC58F6
:10296000FD4FD6018D916D018083E985FA85319601
:10297000FA87E987A217B30761F76091EA038091AC
:10298000EB039091EC0370E00E94A9257093EC0397
:102990006093EB03FC85F0936E02CB018296853445
:1029A000910528F480916F02861B80936F028B85BE
:1029B0008823D9F186E894E06CE771E00E941F2437
:1029C00086E894E06C854AE050E00E947D2386E82A
:1029D00094E062E871E00E941F2486E894E0609130
:1029E0006F024AE050E00E947D2386E894E06AE8A6
:1029F00071E00E941F2404E712E086E894E0D80109
:102A00006D918D014AE050E00E947D2386E894E0BC
:102A100060E20E94CB21B2E00C371B0771F786E819
:102A200094E066E971E00E942224109273021092F1
:102A3000700280917102823010F0109271028F85C5
:102A400098890E9470220E948408439A62960FB669
:102A5000F894DEBF0FBECDBFCF91DF911F910F91D4
:102A6000FF90EF90DF90CF90BF90AF909F908F90AE
:102A70007F906F905F904F903F902F900895CF92EE
:102A8000DF92EF92FF920F931F93DF93CF93CDB717
:102A9000DEB72C970FB6F894DEBF0FBECDBF8EE029
:102AA00091E061E00E94480F8E010F5F1F4FC80147
:102AB0000E943B128981813709F486C0813509F46F
:102AC00083C068010E94E71088E291E061E00E9403
:102AD000480FC6010E943B1289818E3611F08E3458
:102AE00021F4C6010E943B11F4CF833711F08335E6
:102AF00049F48A81853619F40E94FA0EEACF0E94C1
:102B0000610FE7CF8237F9F48A818536E1F48B8152
:102B10008236C9F48C818936B1F48D818E3699F470
:102B20008E81843681F481EA91E060E00E94480F52
:102B3000C6010E943B128981893711F0893519F449
:102B40000E94D41241C089818137F1F18135E1F1D0
:102B5000C6010E9478027C018BE2E816F10408F0BD
:102B6000B1CFC6010E943B128981813769F181355D
:102B700059F1C6010E9478028C018F3F910511F036
:102B800008F0A0CFE114F10419F4009709F49ACFEA
:102B900086E894E0B7014AE050E00E94ED2386E821
:102BA00094E06DE30E94CB2186E894E0B8014AE00E
:102BB00050E00E940024C701602F0E945E080E941E
:102BC0006F090E9484087ECF2C960FB6F894DEBF62
:102BD0000FBECDBFCF91DF911F910F91FF90EF906E
:102BE000DF90CF9008951F93CF93DF93EC0110E017
:102BF00011C0A8956DE770E080E090E00E946C1E27
:102C0000CB30D10568F00E94310E882349F00E9434
:102C10003F1510C0812F90E08C179D0750F30AC01C
:102C2000439A6DE770E080E090E00E946C1E43984C
:102C30001F5FF0CFDF91CF911F910895EF92FF9228
:102C40000F931F930E94050A182F8F3F69F48091FC
:102C50008C03882329F48AE890E061E00E94480F01
:102C60008FE295E70E94F31582E00E949512882377
:102C700091F084E090E00E94F3150E948408809116
:102C80008C03882329F48AEB90E061E00E94480FCE
:102C900084E090E079C00E946F09882309F076C033
:102CA00080918C03882329F485EA90E061E00E94FA
:102CB000480F113009F066C00E94381E7B018C015C
:102CC0008FE097E2A0E0B0E0E80EF91E0A1F1B1F9C
:102CD0000BC081E090E00E94F3150E94310E882322
:102CE00019F00E943F1552C00E94381E6E157F05D4
:102CF0008007910770F388E480936E0287EC8093DD
:102D00006F0291E09093710210927302109272021E
:102D1000109270028BE48093870282ED8093880288
:102D200084E680937C0284E080937D0282E080933D
:102D30007E0290937F02109280028EE18093810246
:102D400087E08093840290938502109286028DE43E
:102D50008093740283E98093750289E580937602FB
:102D600087EA809377028DE6809378028DEB8093DB
:102D700079028FE780937A0281ED80937B020E9433
:102D8000840804C088E790E00E94F3151F910F911A
:102D9000FF90EF9008951F93482FF62FE091840243
:102DA000EE2321F4882351F41FE724C0882341F443
:102DB000683031F41092EE031092ED0310E01AC067
:102DC0002091ED033091EE03C9016E2F70E00E9457
:102DD0009525261B370BF49FC0011124280F391F9E
:102DE0003093EE032093ED03C9016E2F70E00E9433
:102DF0009525162F83E0612F70E00E940A1F109323
:102E00001E0310921F031F9108952F923F924F921D
:102E10005F926F927F928F929F92AF92BF92CF926A
:102E2000DF92EF92FF920F931F93CF93DF9380E097
:102E30000E94951280932003882321F08AE08093DA
:102E40003D021DC086E00E9495128823C1F082E0F9
:102E50008093200384E080933D0280E69DE690937A
:102E60000C0280930B02909387008093860010924F
:102E70005702809142028062809342025D9884E012
:102E80000E94951280938C0381E090E00E94F315DC
:102E900085E00E949512882311F00E94D41286E8E2
:102EA00094E040E056E960E070E00E94DA20809112
:102EB0008C03882331F40E94D41081E090E00E94BA
:102EC000F3150E941E1680916F0280933F020E94AC
:102ED000420A0E9461030E9401090E94B5051092F6
:102EE00022032EE088E190E00FB6F894A895809335
:102EF00060000FBE2093600080918C03882309F04E
:102F000073C086E894E06BE971E00E941F2486E8B4
:102F100094E060916D024AE050E00E948F230E948D
:102F2000E71086E894E060EA71E00E941F2484E0E4
:102F30000E94AF05682F70E06170707086E894E0C1
:102F40004AE050E00E94002486E894E065EA71E0DF
:102F50000E94222480E00E94AF05682F86E894E05A
:102F60004AE050E00E948F2381E00E94AF05682F65
:102F700086E894E04AE050E00E948F2382E00E94BD
:102F8000AF05682F86E894E04AE050E00E948F2366
:102F900086E894E06BEA71E00E941F2481E10E94C0
:102FA000AF05682F70E06054704086E894E04AE016
:102FB00050E00E94002488E690E061E00E94480F03
:102FC00080912003813031F486E894E06EEA71E06C
:102FD0000E94222480912003823031F486E894E01C
:102FE00066EB71E00E942224442481E080933E023B
:102FF0000E9476060E940C0D789483E080933E0335
:103000000E94381E6093230370932403809325034A
:1030100090932603609327037093280380932903DA
:1030200090932A0360932B0370932C0380932D03BA
:1030300090932E0360932F0370933003809331039A
:10304000909332035524AA24BB243324339483E081
:10305000282EA8958CE00E94AF05882371F40E9469
:10306000B5050E940C0D80918C03882331F486E80D
:1030700094E06FEB71E00E94222480913E03843043
:1030800009F0F1C143982D9A8FE70E945605C2E0DE
:10309000D3E00E94A105899323E0C231D207C9F78A
:1030A0000E947606109121030E947C058091930373
:1030B00090919403A0919503B091960380932F0370
:1030C00090933003A0933103B093320320923E03D8
:1030D0006097CE010E94FF04882351F080918C03F9
:1030E000882309F0BCC186E894E066EC71E00FC06B
:1030F0009091020380916E02981761F080918C0389
:10310000882309F0ACC186E894E06BEC71E00E9482
:103110002224A5C1CE010E949903882389F044206E
:1031200081F480918C03882331F486E894E061ED8A
:1031300071E00E9422240E943B084424439401C071
:10314000442460911803709119036115710551F0C1
:1031500080911603909117030E9495257093170391
:1031600060931603809116039091170390931903AF
:103170008093180360911C0370911D036115710504
:1031800069F080911A0390911B030E94952560932A
:103190001A0370931B036093920306C080919203FD
:1031A00080931A0310921B0320911A0330911B0382
:1031B00080911603909117038217930728F41092B9
:1031C00017031092160306C0821B930B90931703EC
:1031D0008093160380918502882329F0809116033D
:1031E0009091170304C08091180390911903909354
:1031F0001F0380931E0380911E0361E00E94CB1683
:103200008BE20E94AF05C82FD0E080918C03882309
:1032100009F04DC086E894E066ED71E00E941F243D
:10322000609118037091190386E894E04AE050E039
:103230000E944F2386E894E069ED71E00E941F240C
:10324000609141037091420386E894E04AE050E0C7
:103250000E944F2386E894E06DED71E00E941F24E8
:10326000612F70E06F5F7F4F86E894E04AE050E0A6
:103270000E94ED2386E894E061EE71E00E941F2435
:1032800086E894E0BE014AE050E00E94ED2386E823
:1032900094E065EE71E00E941F2460911A03709122
:1032A0001B0386E894E04AE050E00E946023A12FCF
:1032B000B0E0FD01EE0FFF1FE55BFC4F80819181C7
:1032C0002091180330911903820F931F91838083FB
:1032D000FD01EE0FFF1FE55AFC4F80819181209187
:1032E0001A0330911B03820F931F91838083A15C8B
:1032F000BC4F9C968C919C978F5F9C968C939C97CF
:10330000D4968C91D4978F5FD4968C931092170398
:1033100010921603109219031092180310921B03B7
:1033200010921A0310921D0310921C0340916F0219
:10333000442309F453C0C038D10514F0C050D14023
:10334000CE014996C39718F020E030E006C09E01F8
:10335000B4E0220F331FBA95E1F75394C50160E141
:1033600070E00E94A925A61AB70AC90160E170E0C1
:103370000E94A925A60EB71EC501B7FE04C0882766
:1033800099278A199B098134910554F180E28515AA
:1033900038F5C50160E170E00E94A925EB01D095E8
:1033A000C195DF4F642F6C0F60936F0289E00E941C
:1033B000710580918C03882369F486E894E06AEEB5
:1033C00071E00E941F2486E894E0BE014AE050E0CC
:1033D0000E9400245524AA24BB2402C030923D033D
:1033E00010923C0310923B030E94381E609323030B
:1033F00070932403809325039093260360932B03FB
:1034000070932C0380932D0390932E0360933303CA
:10341000709334038093350390933603609337039E
:10342000709338038093390390933A0310923E02CD
:10343000109215031092140310923D030E949D07F1
:1034400080918C03882359F026E12093020386E8BB
:1034500094E062E073E040E150E00E9476222D9813
:103460000E94B20BF6CD0E94381E7B018C01609346
:103470002303709324038093250390932603609085
:103480002F037090300380903103909032030E949C
:10349000B20B0E94D40D882309F0A7CD809183023E
:1034A000882311F18091230390912403A091250397
:1034B000B0912603209127033091280340912903DE
:1034C00050912A03821B930BA40BB50B8F5097428C
:1034D000A040B04048F40E94310E882339F00E9489
:1034E0003F150E94B50581CD0E94480E80918D0345
:1034F000882309F44FC08091370390913803A0913D
:103500003903B0913A038196A11DB11D20918E031C
:1035100030918F034091900350919103821793074C
:10352000A407B507B8F58BE793E00E9499030E94C2
:103530009D0710928D0310923C0310923B038091E3
:10354000230390912403A0912503B0912603809337
:103550002B0390932C03A0932D03B0932E03809301
:10356000330390933403A0933503B09336038091D3
:103570008C03882339F486E894E061EF71E00E94BF
:10358000222408C086E894E06BE773E040E150E055
:103590000E9476228091230390912403A091250319
:1035A000B091260320912B0330912C0340912D03E1
:1035B00050912E03821B930BA40BB50B88559240A0
:1035C000A040B040B0F180913C03882391F58091F8
:1035D0002203882371F180918C03882331F486E8DB
:1035E00094E066EF71E00E94222430923C038091C7
:1035F000230390912403A0912503B0912603809387
:10360000330390933403A0933503B09336030E94A1
:1036100001090E949D07439880E068E00E94CB1654
:1036200080913F03909140030196909340038093D3
:103630003F038091230390912403A0912503B0912F
:10364000260320913703309138034091390350917C
:103650003A03821B930BA40BB50B885B9B40A040E5
:10366000B04010F030923E0267017801C618D708CA
:10367000E808F908D701C6010297A109B109049722
:10368000A105B105D0F483E690E00E94C51E00912B
:103690001A0310911B0386E20E94AF05080F111D4B
:1036A00010931B0300931A0380911C0390911D0338
:1036B000019690931D0380931C0380913E02882302
:1036C00019F02FEF30E02EC0D701C6010C97A109E9
:1036D000B1090B97A105B105D8F483E690E00E94EB
:1036E000C51E009116031091170386E20E94AF05D4
:1036F000080F111D109317030093160380911803F0
:10370000909119030196909319038093180308C0B0
:1037100089E1C816D104E104F10414F40E940E0BEF
:1037200023E230E0C901AA2797FDA095BA2FC81659
:10373000D906EA06FB060CF4DCC080913E02882321
:1037400019F580913C03882309F4439A8091210361
:1037500020912F0330913003409131035091320377
:1037600080FF05C0205E3F4F4F4F5F4F04C0215E7A
:103770003F4F4F4F5F4F20932F03309330034093C1
:1037800031035093320310C080912303909124039E
:10379000A0912503B091260380932F0390933003CB
:1037A000A0933103B0933203109121030E947C0552
:1037B000C12FD0E0FE01E15CFC4F84818F5F8483E8
:1037C00030923D0360913E0227E0629FB0011124D8
:1037D0006F5F80E00E94CB1680918C03882309F0F4
:1037E00063C086E894E06CEF71E00E941F24609152
:1037F0001403709115036F5F7F4F709315036093EF
:10380000140386E894E04AE050E00E944F23609160
:103810001C0370911D036115710569F080911A03F5
:1038200090911B030E94952560931A0370931B03CC
:103830006093920306C08091920380931A031092C2
:103840001B0386E894E069ED71E00E941F246091FB
:1038500041037091420386E894E04AE050E00E9400
:103860004F2386E894E06DED71E00E941F24BE01B5
:103870006F5F7F4F86E894E04AE050E00E94ED23BE
:1038800086E894E065EE71E00E941F2460911A03BF
:1038900070911B0386E894E04AE050E00E944F23B9
:1038A00086E894E00E94A022FE01EE0FFF1FE55A79
:1038B000FC4F8081918120911A0330911B03820F6C
:1038C000931F91838083FE01E15CFC4F84A98F5F8D
:1038D00084AB1092170310921603109219031092E2
:1038E000180310921B0310921A0310921D031092DA
:1038F0001C0380913C03882309F4ABCB0E940E0B80
:10390000E0902303F09024030091250310912603F7
:103910008091330390913403A0913503B091360325
:10392000E81AF90A0A0B1B0B6091810280913B0394
:10393000882349F088E8E81683E1F80680E0080764
:1039400080E018077CF470E080E090E028EE33E03F
:1039500040E050E00E946A256E157F0580079107C0
:103960000CF077CB30923B03809181028F3F61F066
:1039700080918C03882331F486E894E060E072E063
:103980000E9422240E94860C80918C03882331F4AB
:1039900086E894E064E072E00E9422240E94B5056B
:1039A0000E9476068091230390912403A091250321
:1039B000B09126038093330390933403A09335038F
:1039C000B09336030E94381E60932F037093300328
:1039D00080933103909332033CCB8DE061E00E94F1
:1039E0006A1F81E161E00E946A1F8EE060E00E9430
:1039F0006A1F8FE061E00E946A1F80E161E00E941F
:103A00006A1F82E060E00E946A1F84E061E00E9419
:103A10006A1F80E060E00E946A1F81E061E00E940E
:103A20006A1F80E061E00E94A91F83E061E00E94BC
:103A30006A1F85E061E00E946A1F86E061E00E94E3
:103A40006A1F87E061E00E946A1F88E061E00E94CF
:103A50006A1F89E061E00E946A1F8AE061E00E94BB
:103A60006A1F8BE061E00E946A1F8CE061E00E94A7
:103A70006A1F82E161E00E946A1F83E161E00E94A7
:103A80006A1FE1E8F0E01082109285001092840035
:103A900080910B0290910C02909387008093860096
:103AA00082E0809380008AE1808381E080936F00D0
:103AB00080E068ED7AE042E050E00E94731D0895D6
:103AC000F999FECF72BD61BDF89A80B50895F99954
:103AD000FECF1FBA72BD61BD40BD0FB6F894FA9A11
:103AE000F99A0FBE0895823000F5E82FF0E0EE0F4E
:103AF000FF1FEF50FC4F71836083882319F08130E2
:103B0000A1F408C0809169008C7F842B80936900A8
:103B1000E89A089580916900440F551F440F551F7E
:103B2000837F842B80936900E99A08951F920F92F6
:103B30000FB60F9211242F933F934F935F936F9380
:103B40007F938F939F93AF93BF93EF93FF93809156
:103B5000F1039091F203892B29F0E091F103F091A8
:103B6000F2030995FF91EF91BF91AF919F918F91D2
:103B70007F916F915F914F913F912F910F900FBE69
:103B80000F901F9018951F920F920FB60F9211244D
:103B90002F933F934F935F936F937F938F939F9355
:103BA000AF93BF93EF93FF938091F3039091F4034E
:103BB000892B29F0E091F303F091F4030995FF912B
:103BC000EF91BF91AF919F918F917F916F915F9195
:103BD0004F913F912F910F900FBE0F901F9018950E
:103BE0001F920F920FB60F9211242F933F938F9332
:103BF0009F93AF93BF938091F9039091FA03A091A3
:103C0000FB03B091FC033091FD030196A11DB11D92
:103C1000232F2D5F2D3720F02D570196A11DB11DAB
:103C20002093FD038093F9039093FA03A093FB0381
:103C3000B093FC038091F5039091F603A091F703F4
:103C4000B091F8030196A11DB11D8093F5039093E7
:103C5000F603A093F703B093F803BF91AF919F9140
:103C60008F913F912F910F900FBE0F901F9018953D
:103C70008FB7F8942091F9033091FA034091FB0338
:103C80005091FC038FBFB901CA0108959FB7F89402
:103C90002091F5033091F6034091F7035091F8031A
:103CA00086B5A89B06C08F3F21F02F5F3F4F4F4F37
:103CB0005F4F9FBF542F432F322F2227280F311DD4
:103CC000411D511D82E0220F331F441F551F8A954D
:103CD000D1F7B901CA0108959B01AC017FB7F894EF
:103CE0008091F5039091F603A091F703B091F8034A
:103CF00066B5A89B05C06F3F19F00196A11DB11DC7
:103D00007FBFBA2FA92F982F8827860F911DA11D3D
:103D1000B11D62E0880F991FAA1FBB1F6A95D1F7DA
:103D2000BC012DC0FFB7F8948091F5039091F60384
:103D3000A091F703B091F803E6B5A89B05C0EF3F4B
:103D400019F00196A11DB11DFFBFBA2FA92F982F01
:103D500088278E0F911DA11DB11DE2E0880F991FCC
:103D6000AA1FBB1FEA95D1F7861B970B885E93406D
:103D7000C8F2215030404040504068517C4F2115DE
:103D800031054105510571F60895019739F0880F05
:103D9000991F880F991F02970197F1F7089578945A
:103DA00084B5826084BD84B5816084BD85B5826040
:103DB00085BD85B5816085BDEEE6F0E080818160DE
:103DC0008083E1E8F0E010828081826080838081DE
:103DD00081608083E0E8F0E0808181608083E1EBB6
:103DE000F0E0808184608083E0EBF0E0808181609E
:103DF0008083EAE7F0E08081846080838081826054
:103E0000808380818160808380818068808310923C
:103E1000C10008951F93CF93DF93182FEB0161E04A
:103E20000E946A1F209709F44AC0CF3FD10509F4C8
:103E300049C0E12FF0E0EB57FB4F84918330C1F094
:103E4000843028F4813051F08230B1F50CC08630D6
:103E500019F1873049F1843079F514C084B5806850
:103E600084BDC7BD33C084B5806284BDC8BD2EC0CB
:103E700080918000806880938000D0938900C093F7
:103E8000880024C080918000806280938000D0935D
:103E90008B00C0938A001AC08091B0008068809324
:103EA000B000C093B30012C08091B00080628093D4
:103EB000B000C093B4000AC0C038D1051CF4812FF3
:103EC00060E002C0812F61E00E94A91FDF91CF91C5
:103ED0001F910895CF93DF93482F50E0CA018F5868
:103EE0009B4FFC013491435A5B4FFA018491882324
:103EF00069F190E0880F991FFC01E15CFB4FA591EF
:103F0000B491FC01E75BFB4FC591D491662351F45A
:103F10002FB7F8948C91932F909589238C93888157
:103F200089230BC0623061F42FB7F8948C91932FE2
:103F3000909589238C938881832B88832FBF06C01B
:103F40009FB7F8948C91832B8C939FBFDF91CF9177
:103F50000895482F50E0CA018B579B4FFC012491D4
:103F6000CA018F589B4FFC019491435A5B4FFA0151
:103F70003491332309F440C0222351F1233071F0EE
:103F8000243028F42130A1F0223011F514C026305D
:103F9000B1F02730C1F02430D9F404C08091800002
:103FA0008F7703C0809180008F7D8093800010C048
:103FB00084B58F7702C084B58F7D84BD09C08091A0
:103FC000B0008F7703C08091B0008F7D8093B000E8
:103FD000E32FF0E0EE0FFF1FE75BFB4FA591B491DD
:103FE0002FB7F894662321F48C919095892302C011
:103FF0008C91892B8C932FBF0895682F70E0CB0193
:104000008B579B4FFC012491CB018F589B4FFC0198
:104010004491635A7B4FFB019491992319F420E05A
:1040200030E03CC0222351F1233071F0243028F4D9
:104030002130A1F0223011F514C02630B1F0273024
:10404000C1F02430D9F404C0809180008F7703C080
:10405000809180008F7D8093800010C084B58F7721
:1040600002C084B58F7D84BD09C08091B0008F7778
:1040700003C08091B0008F7D8093B000892F90E0C5
:10408000880F991F8D5A9B4FFC01A591B4918C917B
:1040900020E030E0842311F021E030E0C9010895F0
:1040A00008951F920F920FB60F9211242F933F93F2
:1040B0004F938F939F93EF93FF938091C00082FD66
:1040C0001DC04091C60020913E0430913F042F5FF7
:1040D0003F4F2F7330708091400490914104281716
:1040E000390771F0E0913E04F0913F04E250FC4F3B
:1040F000408330933F0420933E0402C08091C60069
:10410000FF91EF919F918F914F913F912F910F9040
:104110000FBE0F901F901895E0919204F0919304B8
:10412000E05CFF4F8191919120813181821B930B43
:104130008F739070892B11F00E94502008951F9268
:104140000F920FB60F9211242F933F938F939F934B
:10415000EF93FF9320918204309183048091840433
:10416000909185042817390731F48091C1008F7D23
:104170008093C10014C0E0918404F0918504EE5B4B
:10418000FB4F2081809184049091850401968F7368
:10419000907090938504809384042093C600FF91CF
:1041A000EF919F918F913F912F910F900FBE0F90A4
:1041B0001F901895AF92BF92DF92EF92FF920F93EC
:1041C0001F93CF93DF93EC017A018B01DD24403004
:1041D00081EE580780E0680780E0780711F0DD2461
:1041E000D39491E0A92EB12CEC89FD89DD2069F0F2
:1041F000C50108A002C0880F991F0A94E2F78083C6
:1042000060E079E08DE390E005C0108260E874E83A
:104210008EE190E0A80197010E94BC25215030401A
:1042200040405040569547953795279580E120307E
:10423000380720F0DD2011F0DD24D6CFE889F98998
:104240003083EA89FB89208319A2EE89FF894081A6
:1042500021E030E0C9010C8C02C0880F991F0A943C
:10426000E2F7482B4083EE89FF894081C9010D8C1C
:1042700002C0880F991F0A94E2F7482B4083EE8909
:10428000FF894081C9010E8C02C0880F991F0A94D2
:10429000E2F7482B4083EE89FF8980810F8C02C0B2
:1042A000220F331F0A94E2F7209528232083DF9101
:1042B000CF911F910F91FF90EF90DF90BF90AF9043
:1042C0000895DC011C96ED91FC911D97E05CFF4F79
:1042D0002191319180819181281B390B2F7330708E
:1042E000C9010895DC011C96ED91FC911D97E05CDD
:1042F000FF4F20813181E054F040DF01AE5BBF4FC2
:104300008D919C9111972817390719F42FEF3FEFE2
:1043100007C08D919C91E80FF91F8081282F30E014
:10432000C9010895DC011C96ED91FC911D97E05C9C
:10433000FF4F20813181E054F040DF01AE5BBF4F81
:104340008D919C9111972817390719F42FEF3FEFA2
:1043500010C08D919C911197E80FF91F20818D91CC
:104360009C91119701968F73907011969C938E93E8
:1043700030E0C9010895DC0191968C9191978823D2
:1043800039F05496ED91FC915597808186FFF9CFD5
:1043900091961C920895CF93DF93EC01EE85FF85F3
:1043A000E05CFF4F20813181E054F0402F5F3F4FB0
:1043B0002F733070DF01AE5BBF4F8D919C911197D1
:1043C00028173907D1F3E05CFF4F80819181E054D9
:1043D000F040E80FF91F6083EE85FF85E05CFF4F3A
:1043E00031832083EE89FF89208181E090E00F8C6A
:1043F00002C0880F991F0A94E2F7282B208381E0DE
:1044000089A3EC89FD8980818064808381E090E0CC
:10441000DF91CF910895109289041092880488EE5C
:1044200093E0A0E0B0E080938A0490938B04A09383
:104430008C04B0938D0485EF92E090938704809371
:1044400086048EEF93E0909393048093920482E429
:1044500094E0909395048093940485EC90E090937D
:1044600097048093960484EC90E090939904809351
:10447000980480EC90E090939B0480939A0481ECE4
:1044800090E090939D0480939C0482EC90E0909344
:104490009F0480939E0486EC90E09093A104809307
:1044A000A00484E08093A20483E08093A30487E0C7
:1044B0008093A40485E08093A50481E08093A60402
:1044C0000895CF93DF930E94CF1E0E94ED1CCCE88D
:1044D000D0E20E9405172097E1F30E948C20F9CFCB
:1044E0000E94D22408950E9435240895CF92DF922D
:1044F000EF92FF920F931F93CF93DF937C016B0199
:104500008A01C0E0D0E00FC0D6016D916D01D701E6
:10451000ED91FC910190F081E02DC7010995C80F44
:10452000D91F015010400115110571F7CE01DF911F
:10453000CF911F910F91FF90EF90DF90CF90089552
:10454000EF92FF920F931F938C01DC01ED91FC9190
:104550000190F081E02D6DE009957C01D801ED918D
:10456000FC910190F081E02DC8016AE009959C0161
:104570002E0D3F1DC9011F910F91FF90EF900895DF
:10458000CF93DF93EC016115710519F420E030E061
:104590000FC0DB010D900020E9F71197A61BB70BA8
:1045A000E881F9810280F381E02DAD0109959C013C
:1045B000C901DF91CF9108954F925F927F928F92C0
:1045C0009F92AF92BF92CF92DF92EF92FF920F93A2
:1045D0001F93DF93CF93CDB7DEB7A1970FB6F894B3
:1045E000DEBF0FBECDBF2C01742ECB01223008F4EC
:1045F0002AE019A231E2C32ED12CCC0EDD1E822E70
:104600009924AA24BB24672D752FA50194010E942B
:10461000BC2579018A01C801B701A50194010E9456
:104620006A25472D461B0894C108D1084A3014F466
:10463000405D01C0495CF6014083E114F1040105CD
:10464000110521F07E2C5F2DC801DDCFC201B6011E
:104650000E94C022A1960FB6F894DEBF0FBECDBF58
:10466000CF91DF911F910F91FF90EF90DF90CF904E
:10467000BF90AF909F908F907F905F904F900895E4
:10468000DC012115310541F4ED91FC910190F0819F
:10469000E02D642F099508950E94DC220895EF9281
:1046A000FF920F931F939A017B0100E010E0B80185
:1046B000A7010E9440231F910F91FF90EF90089552
:1046C000CF92DF92EF92FF920F931F936C017B01C9
:1046D0009A0100E010E0B801A7010E9440238C017C
:1046E000C6010E94A022080F191FC8011F910F9137
:1046F000FF90EF90DF90CF900895EF92FF920F938D
:104700001F939A01E62EFF2400E010E0B801A701F4
:104710000E9440231F910F91FF90EF900895CF9238
:10472000DF92EF92FF920F931F936C01E62E9A0196
:10473000FF2400E010E0B801A7010E9440238C0193
:10474000C6010E94A022080F191FC8011F910F91D6
:10475000FF90EF90DF90CF900895CF92DF92EF928D
:10476000FF920F931F93CF93DF93EC016A017B01BC
:104770002115310541F4E881F9810190F081E02DA6
:10478000642F09951FC02A303105D1F477FF17C077
:10479000E881F9810190F081E02D6DE209958C01AD
:1047A00044275527BA014C195D096E097F09CE01CE
:1047B0002AE00E94DC229801280F391F04C02AE059
:1047C0000E94DC229C01C901DF91CF911F910F91C2
:1047D000FF90EF90DF90CF900895EF92FF920F93AC
:1047E0001F937B019A010027F7FC0095102FB80159
:1047F000A7010E94AD231F910F91FF90EF900895A4
:10480000CF92DF92EF92FF920F931F936C017B0187
:104810009A010027F7FC0095102FB801A7010E940C
:10482000AD238C01C6010E94A022080F191FC801E8
:104830001F910F91FF90EF90DF90CF9008950E940D
:10484000C0220895EF92FF920F931F937C010E9464
:10485000C0228C01C7010E94A022080F191FC801A5
:104860001F910F91FF90EF9008950F931F93CF9397
:10487000DF93BC018230910510F462E070E0E091BA
:10488000AA04F091AB0440E050E0A0E0B0E024C006
:104890008081918186179707D0F08617970771F46A
:1048A00082819381109729F013969C938E9312978F
:1048B0002CC09093AB048093AA0427C041155105E6
:1048C00019F08417950718F48D01AC01EF01DF0191
:1048D000828193819C01F9013097D1F641155105F0
:1048E000F9F0CA01861B970B8430910580F48A8108
:1048F0009B810115110521F0F8019383828304C087
:104900009093AB048093AA04FE01329645C0FE0149
:10491000E80FF91F619371930297998388833CC0D4
:104920008091A8049091A904892B41F480918C0274
:1049300090918D029093A9048093A80440918E02D7
:1049400050918F024115510541F44DB75EB78091EA
:104950008A0290918B02481B590B2091A804309138
:10496000A90424173507B0F4CA01821B930B8617DC
:10497000970780F0AB014E5F5F4F8417950750F0AB
:10498000420F531F5093A9044093A804F901619367
:10499000719302C0E0E0F0E0CF01DF91CF911F9171
:1049A0000F910895CF93DF939C01009709F48FC076
:1049B000EC0122971B821A826091AA047091AB04C9
:1049C0006115710581F488819981820F931F20916F
:1049D000A8043091A9042817390739F5D093A90400
:1049E000C093A80474C0DB0140E050E0AC17BD07E1
:1049F00008F1BB83AA83FE0121913191E20FF31FDD
:104A0000AE17BF0779F48D919C911197280F391F2C
:104A10002E5F3F4F3983288312968D919C91139777
:104A20009B838A834115510571F4D093AB04C093E5
:104A3000AA044DC012968D919C911397AD010097D9
:104A400011F0DC01D3CFDA011396DC93CE931297E9
:104A5000FA0121913191E20FF31FCE17DF0769F4BC
:104A600088819981280F391F2E5F3F4FFA013183CA
:104A700020838A819B8193838283E0E0F0E0DB01E5
:104A800012968D919C911397009719F0BC01FD012E
:104A9000F6CFAB014E5F5F4FDB018D919C91840F90
:104AA000951F2091A8043091A9042817390779F49B
:104AB000309729F41092AB041092AA0402C013821A
:104AC0001282425050405093A9044093A804DF91B1
:104AD000CF910895629FD001739FF001829FE00DF6
:104AE000F11D649FE00DF11D929FF00D839FF00D6D
:104AF000749FF00D659FF00D9927729FB00DE11D19
:104B0000F91F639FB00DE11DF91FBD01CF011124F5
:104B10000895991B79E004C0991F961708F0961B19
:104B2000881F7A95C9F780950895AA1BBB1B51E190
:104B300007C0AA1FBB1FA617B70710F0A61BB70B0D
:104B4000881F991F5A95A9F780959095BC01CD01B2
:104B5000089597FB092E07260AD077FD04D0E5DFDC
:104B600006D000201AF4709561957F4F0895F6F7EE
:104B7000909581959F4F0895A1E21A2EAA1BBB1B09
:104B8000FD010DC0AA1FBB1FEE1FFF1FA217B30719
:104B9000E407F50720F0A21BB30BE40BF50B661F2F
:104BA000771F881F991F1A9469F7609570958095F3
:104BB00090959B01AC01BD01CF01089597FB092E93
:104BC00005260ED057FD04D0D7DF0AD0001C38F4DC
:104BD00050954095309521953F4F4F4F5F4F089529
:104BE000F6F790958095709561957F4F8F4F9F4F09
:104BF0000895EE0FFF1F0590F491E02D0994F894AD
:024C0000FFCFE4
:104C020046697865642100537461746973746963D9
:104C12007320696E20454550524F4D206572617375
:104C220065200020646F6E65004C6173742073749C
:104C3200617469736963733A28002D002920666FD5
:104C4200726D2000464E2020636E742000202000EA
:104C52000D0A42696E642066696E64207374617223
:104C6200743A2000204D61786C6576656C5B005D5E
:104C72003D000D0A54696D65733A200042696E6405
:104C82003D002046636F72723D0020536571756569
:104C92006E63653A200020456E6400532F4E3D003E
:104CA2004952513D00535441525400543D0050501A
:104CB2004D206F75740053425553206F7574004632
:104CC200694572722100435243210042494E4421F8
:104CD200004653205700523D0020533D0020433DE3
:104CE2000020413D0020526E3D0046636F72723DCE
:104CF200002453415400746F2066730024524C0008
:104D0200534F5300496E6974000B01409CB80BB8B5
:104D12000BB80BB80BB80BB80BB80BB80BB80BB879
:104D22000BB80BB80BB80BB80BB80BB80BB80BB869
:104D32000BB80BB80BB80BB80BB80BB80B0A01C702
:104D4200E0CF1F2B002B002B00250025002500257E
:104D520000250028002800204080010204081010CD
:104D6200202040800102040810000458006348CC4F
:104D7200000100004D9359A76DBD7FD1650402016A
:104D8200001EC7010100004BD2048000AC040000E9
:104D92000102030405060B0C0D0E0F101112131461
:104DA20018191A1C28292A820289029302B002C207
:104DB20002DF02F502FC0203030A03110318031FB8
:104DC2000326032D03440385039D03A603AF03D4E7
:104DD20003FC031C04050006000700080009000A82
:104DE200000B000C00120013000000010006000777
:104DF2000000000000CB217622612192217221BBAA
:024E020021008D
:00000001FF
