:100000000C941A020C94D7150C9404160C9442020A
:100010000C9442020C9442020C9442020C94420250
:100020000C9442020C9442020C9442020C94420240
:100030000C9442020C94EB080C9442020C94420281
:100040000C9431160C9442020C946C180C94BA184F
:100050000C9442020C9442020C9442020C94420210
:100060000C9442020C944202507265737320276D07
:100070002720746F207374617274204D454E552093
:10008000696E2031302073656300464C415348202F
:100090004552524F522121212043616E277420770F
:1000A0006F726B21004572726F72207265616420FD
:1000B00073657474696E6773210053657474696E37
:1000C000677320726573657420746F206465666160
:1000D000756C7473210046486E3A204D696E20415C
:1000E0007672204D617800546F20456E74657220E1
:1000F0004D454E5520507265737320454E54455200
:1001000000547970652052656720616E64207072BA
:1001100065737320454E5445522C207479706520C8
:1001200056616C756520616E642070726573732012
:10013000454E5445522028713D517569743B2073DA
:10014000732F736C2F73613D537461742900526770
:100150003D56616C2009436F6D6D656E7473202D83
:100160002D2D2D2D2D2D2D2D2D2D2D2D2D2D2D2DBF
:100170002D2D2D2D2D2D004578656375746520720C
:100180006562696E643F2041726520796F752073E6
:1001900075726528792F6E293F000D0A42617963D7
:1001A000686920736F6674203230313300525820F2
:1001B0004F70656E20457870657274205632204607
:1001C0000046536E20496E4653202044726F707370
:1001D0003A312020203220202033202020342020BB
:1001E00020352020203620202037202020382020B5
:1001F00000525353493A312020203220202033200E
:100200002020342020203520202036202020372098
:10021000202038204E6F6973653A3120202032202B
:10022000202033202020342020203520202036207C
:10023000202037202020380042696E64204E00467E
:1002400072657120436F727200536572766F203150
:1002500035302520737472656368206E756D2028B3
:10026000312D313229005374617469737469637379
:1002700020656E61626C65003131206269742F31D6
:100280003120636820656E61626C6500486F70653F
:1002900020463100486F706520463200486F706517
:1002A00020463300486F706520463400486F706503
:1002B00020463500486F706520463600486F7065EF
:1002C00020463700486F70652046380042656163FC
:1002D0006F6E2046202846463D64697361626C65F6
:1002E0002900426561636F6E20506D617820286D32
:1002F0005774293A20302D312E323B20312D323B9C
:1003000020322D333B20332D363B20342D31323BF0
:1003100020352D32353B20362D35303B20372D31E1
:10032000303000426561636F6E20737461727420B7
:1003300074696D6520287365632900534157204611
:100340006D696E0053415720466D61780050504DE5
:10035000206D6F6465203173742050574D206368A1
:100360006E6C2028312D3829205B345D00525353A8
:100370004920747970653A20736F756E642830294E
:100380002F6C6576656C28312D39393D6176657243
:10039000616765290052535349206D6F64653A20A7
:1003A0006C6576656C2830292F534E207261746914
:1003B0006F2831290052535349206F7665722050BF
:1003C000574D286368616E3A312D31322920302D26
:1003D0006E6F742075736500000000002400270014
:1003E0002A0000000000250028002B00000000006B
:1003F0002300260029000404040404040404020267
:100400000202020203030303030301020408102093
:10041000408001020408102001020408102000009E
:1004200000070002010000030406000000000000B5
:100430000000261A11241FBECFEFD4E0DEBFCDBFCF
:1004400012E0A0E0B1E0EAEAF9E302C005900D9203
:10045000AC36B107D9F713E0ACE6B2E001C01D92AB
:10046000A83DB107E1F714E0C4E3D4E004C022974B
:10047000FE010E94CF1CC233D107C9F70E947C1A2B
:100480000C94D31C0C940000FC0188279927E89455
:1004900021912032E9F3293010F02E30C8F32B32AD
:1004A00041F02D3239F4689404C00E946202820F38
:1004B000911D219120532A30C0F31EF4909581950F
:1004C0009F4F08957AE0979F902D879F802D910DE3
:1004D000112408958091A502813019F482E080935F
:1004E000A5028091A502833019F484E08093A502CF
:1004F0000895AF92BF92DF92EF92FF920F931F93F6
:10050000CF93DF93FC01978585857091E801715049
:10051000D090EA01DF01CFEAD1E040E050E0E82EE0
:10052000FF2422E0A22EB12C092F10E012968C910C
:100530001297282F30E0220F331F220F331F642F12
:10054000483048F5473069F0C501042E02C0880FD5
:10055000991F0A94E2F780239123892B11F02E5FD3
:100560003F4FDD2059F0C701042E02C095958795B5
:100570000A94E2F780FF02C02F5F3F4F818190E035
:10058000042E02C0959587950A94E2F780FF05C076
:1005900020503C4F02C0220F331F6717C1F4C9011E
:1005A000805094409C0135952795280F391F8BEF7B
:1005B0002035380714F420E53BEFC90124E0813BE6
:1005C000920714F080EB94E09C0120503C4F24549F
:1005D000384F299339934F5F5F4F11964C30510537
:1005E00009F0A4CFDD2031F08CEB9BE09093C601A5
:1005F0008093C501DF91CF911F910F91FF90EF90F4
:10060000DF90BF90AF9008955C9A42985C9898E014
:1006100010C087FF07C042980000419A0000429A2C
:10062000000006C04298000041980000429A000075
:10063000880F915070F7429808958F770E940403B5
:100640000895429898E010C087FF07C042980000C4
:10065000419A0000429A000006C04298000041986A
:100660000000429A0000880F915070F74298089558
:100670001F93162F80680E940403812F0E9421037C
:100680005C9A1F9108951F9380911B038F5F809345
:100690001B03883010F010921B03E0911B03F0E065
:1006A000EF50FE4F108189E7612F0E94380380913F
:1006B000FD01181738F08091FE01811718F08EE0C7
:1006C00064E002C08EE060E00E9438031092810274
:1006D0001092800210928302109282021092850280
:1006E0001092840210928702109286021F91089540
:1006F000429880E090E0880F429A00003099816033
:10070000429800009F5F9830B1F708950E941D0342
:100710000E9478035C9A089583E00E948603809388
:10072000F90284E00E9486038093FA0286E060E08A
:100730000E94380387E061E00E9438036091E7017E
:10074000662311F089E002C089E067EC0E9438035B
:100750008AE065E00E9438038BE062E10E94380382
:100760008CE065E10E9438038DE06AE00E94380366
:100770008EE060E00E9438038FE163E00E9438035E
:100780008EE16AE00E94380382E160E60E9438034D
:1007900083E168EF0E9438038FE060E80E9438032D
:1007A0008DE160E40E9438038CE166E20E94380328
:1007B00080E264E40E94380381E260E00E94380332
:1007C00082E262EF0E94380383E26CE70E94380302
:1007D00084E266E00E94380385E26DE70E943803F8
:1007E0008AE26EE10E94380380E36CEA0E943803DB
:1007F00082E36CE80E94380383E36AE00E943803D6
:1008000084E364E00E94380385E362E20E943803D7
:1008100086E36DE20E94380387E364ED0E943803AB
:1008200088E360E00E94380389E360E00E943803B7
:100830008EE360E10E9438038DE66FE00E9438038A
:100840008EE66CE30E9438038FE66FE90E9438035E
:1008500089E660E60E94380380E76EE20E94380372
:1008600089E760E00E9438038AE766E00E94380367
:1008700081E763E20E94380382E76EE00E9438035A
:1008800085E763E50E94380386E76CE40E9438033D
:1008900087E760EE0E943803089587E061E00E94D8
:1008A00038038EE764E20E94380388E063E00E9428
:1008B000380388E060E00E94380387E065E00E942A
:1008C000380385E062E00E94380383E00E948603DB
:1008D0008093F90284E00E9486038093FA020895CF
:1008E00083E00E9486038093F90284E00E948603DD
:1008F0008093FA0287E061E00E94380308950F9325
:100900001F93CF93DF93809116038093FB02909106
:10091000B9029093FC028091A402882321F4809173
:100920008A02882319F490689093FC021092B9020D
:1009300006EA12E02AEB32E0CDEFD2E0F901389678
:10094000D8016D917C916115710511F441E001C0F0
:10095000462FD9018C91888380819181642F70E02A
:100960000E94691C688780899189642F70E00E94C9
:10097000691C688BD9011D929D0111821082118A18
:10098000108AD8011D921D928D0121963296B2E0F7
:10099000063B1B07A9F610921503DF91CF911F911B
:1009A0000F910895EF92FF920F931F938091E901A9
:1009B000882309F48DC0E0911503EA3168F5F0E071
:1009C0006091E3017091E4016E0F7F1FE550FD4FD0
:1009D00080E293E040810E94A815809115038F5F0B
:1009E000809315038A3109F04CC08091E301909106
:1009F000E4014A969093E4018093E3012091E101A0
:100A00003091E20182179307E0F188E590E090933E
:100A1000E4018093E30135C0EA3139F44091E40107
:100A200080E293E06DE070E008C0EB3171F480E2A9
:100A300093E06CE070E04091E3010E94A815809182
:100A400015038F5F809315031CC0EC31D1F48DE149
:100A5000809315038091B6029091B702892B41F4DF
:100A600080E293E06EE070E0409116030E94A815CA
:100A70008091B6029091B70201969093B70280934D
:100A8000B60220918B0230918C0240918D025091E0
:100A90008E028091170390911803A0911903B091D1
:100AA0001A0379018A01E81AF90A0A0B1B0BD8010B
:100AB000C70180569A4EA040B04050F020931703D3
:100AC000309318034093190350931A030E947F0434
:100AD0001F910F91FF90EF9008950F931F93CF9365
:100AE000DF930FEA11E0C0E4D0E0F801418180E239
:100AF00093E0BE010E94A815219680E293E0BE011A
:100B0000F80140810E94A8150E5F1F4F2196F1E069
:100B1000073C1F0751F7DF91CF911F910F91089567
:100B2000462FBC016F5E7F4F80E293E00E94A815C4
:100B30000895DF92EF92FF920F931F938C01D62EB0
:100B4000472FB0E2EB2EB3E0FB2EC701B8010E94A5
:100B5000A8150F5F1F4FC701B8014D2D0E94A815A2
:100B60001F910F91FF90EF90DF900895EF92FF9209
:100B70000F931F93CF93DF9305EE11E0EE24FF2434
:100B8000C0E0D0E0CE01F80160810E949005F8013C
:100B900081918F01E80EF11C2196C630D10591F7A5
:100BA000C1EFD1E00BE010E0C80168810E94900520
:100BB0008991E80EF11C0F5F1F4FF1E0C93FDF077D
:100BC00099F7CBEED1E003E110E0C80168810E9403
:100BD00090058991E80EF11C0F5F1F4F81E0C13F26
:100BE000D80799F789E190E06091FD010E94900596
:100BF0008091FD01E701C80FD11D8AE190E060916D
:100C0000FE010E9490058091FE01C80FD11D8CE16C
:100C100090E06091FF010E9490058091FF01C80F54
:100C2000D11D0AEF11E088E2E82EF12CC701F8018E
:100C300060810E949005F80181918F01C80FD11D3C
:100C40000894E11CF11CF1E00D3F1F0779F78AE0E1
:100C500090E0BE010E949905DF91CF911F910F9105
:100C6000FF90EF900895AF92BF92CF92DF92EF92F4
:100C7000FF921F93CF93DF933FEAC32E31E0D32E31
:100C800020E4E22EF12C98EBA92E9BE0B92E80E215
:100C900093E0B7010E94A115182FB7016F5F7F4F36
:100CA00080E293E00E94A115D12FC0E09E01280FA1
:100CB000311DC901F601318320838C569740895933
:100CC000984018F0F601B182A08222E030E0E20EF6
:100CD000F31EC20ED31E38E5E316F104C1F6DF9110
:100CE000CF911F91FF90EF90DF90CF90BF90AF908A
:100CF0000895BC016F5E7F4F80E293E00E94A115D2
:100D00000895DF92EF92FF920F931F938C0140E2C0
:100D1000E42E43E0F42EC701B8010E94A115D82E9D
:100D20000F5F1F4FC701B8010E94A1153D2D20E0A4
:100D3000280F311DC9011F910F91FF90EF90DF9097
:100D400008950F931F93CF93DF9300E010E0C0E06E
:100D5000D0E0CE010E947906FE01EB51FE4F808368
:100D6000080F111D2196C630D10599F7CBE0D0E0D0
:100D7000CE010E947906FE01EA51FE4F8083080FE2
:100D8000111D2196C331D10599F7C3E1D0E0CE0101
:100D90000E947906FE01E852FE4F8083080F111D64
:100DA0002196C931D10599F78091EC01883008F07E
:100DB0005BC0863008F059C0823010F491E002C068
:100DC00091E0891B8093ED01981708F4891B8093AB
:100DD000EE011092EF0189E190E00E947906809384
:100DE000FD01080F111D8AE190E00E9479068093B1
:100DF000FE01080F111D8CE190E00E947906982FEA
:100E00008150883020F49093FF01090F111DC8E232
:100E1000D0E0CE010E947906FE01EE52FE4F8083A3
:100E2000080F111D2196CB32D10599F78AE290E087
:100E30000E9479068093FC0181508C3010F0109252
:100E4000FC018091FC01080F111D8AE090E00E94D6
:100E5000810620E08017910709F421E0822FDF91BD
:100E6000CF911F910F91089587E092E0AACF0F9341
:100E70001F93CF93DF93E0E0F0E000E010E004C0C8
:100E80008491080F111D3196F7FFFACF9091AE01B2
:100E900080E02091AD01EC01C20FD11D86E090E011
:100EA0000E948106C817D90761F086E090E0BE0174
:100EB0000E94990588E090E0B8010E94990520E021
:100EC00009C088E090E00E94810620E08017910729
:100ED00009F021E0822FDF91CF911F910F910895AA
:100EE0000F931F93CF93DF93E2E0F0E081E28093D2
:100EF00057008491843931F488EF91E09093E201B6
:100F00008093E10180E293E06CE070E00E94A11523
:100F1000082F10E01093E4010093E30180E293E0D6
:100F20006DE070E00E94A115382F20E0200F311FE6
:100F30003093E4012093E3012835310538F08091A6
:100F4000E1019091E20128173907C0F088E590E0AF
:100F50009093E4018093E30180E293E06CE070E021
:100F600048E50E94A8154091E40180E293E06DE01D
:100F700070E00E94A8151092160316C0C901CE9702
:100F80006AE170E00E94691C882331F0281B310956
:100F90003093E4012093E30180E293E06EE070E09F
:100FA0000E94A11580931603809116038F5F809392
:100FB0001603843610F010921603AAEBB2E0FD017E
:100FC0003896C6EAD2E01D9211821082118A108AE8
:100FD00019921992329682E0A23CB807A1F71092BA
:100FE000B9028AE1809315031092B7021092B602FB
:100FF0000E94791660931703709318038093190366
:1010000090931A03DF91CF911F910F9108950E9441
:10101000700462E370E080E090E00E9487160E9416
:101020004D0400000895EF92FF920F931F93CF930A
:10103000DF937B01142F9C01442737FD4095542FEB
:1010400060E271EA87E090E00E94B21CE90125307D
:10105000310514F4C5E0D0E0177018608DE6612FFB
:101060000E9438032D9A6AE070E080E090E00E94D0
:1010700087162D98A895B701882777FD8095982F1A
:1010800020E930ED43E050E00E944A1C9E014427D5
:1010900037FD4095542F0E94B21C790100E010E00A
:1010A0000AC0419ACE010E94E0164198CE010E94EA
:1010B000E0160F5F1F4F0E151F059CF3DF91CF91B8
:1010C0001F910F91FF90EF90089583E00E94860397
:1010D0008093F90284E00E9486038093FA0286E0FE
:1010E00060E00E94380387E061E00E94380389E0F5
:1010F0006091E0010E9438038AE065E00E943803B5
:101100008BE062E10E9438038CE065E10E943803C5
:101110008DE06AE00E9438038EE060E00E943803B0
:1011200080E76CE20E94380380E360E00E943803AD
:1011300089E76091EB010E9438038AE766E00E942C
:10114000380381E762E10E94380382E762E00E948F
:10115000380383E760E00E94380384E760E00E9480
:1011600038038EE060E00E9438036091EC01677004
:1011700068608DE60E9438036AE070E080E090E0ED
:101180000E94871687E069E00E94380388EB91E0AF
:1011900061E070E04091EC010E9413088DE591E060
:1011A00061E070E04091ED010E9413088FEA90E049
:1011B00061E070E04091EE010E94130885E091E04B
:1011C00061E070E04091EF010E94130887E061E068
:1011D0000E94380308951F920F920FB60F921124A8
:1011E0002F933F934F935F936F937F938F939F932F
:1011F000AF93BF93CF93DF93EF93FF9380918400DE
:10120000909185008097D0F385B1807E85B988B1B3
:101210008F7C88B98BB18F718BB980918A028823BA
:1012200019F4C0E4DCE99EC080911F038F5F8093B6
:101230001F0330910002381730F410927D02109293
:101240007C0210921F0320911F0380917C029091D9
:101250007D02231761F434E8803D930718F0C0E75E
:10126000D7E113C0C0E4DCE9C81BD90B0EC0E22FE4
:10127000F0E0EE0FFF1FE953FE4FC081D1818C0FCC
:101280009D1F90937D0280937C0280911C03882394
:1012900089F5243019F1253058F42130D9F0213066
:1012A000B8F0223009F45DC0233009F05BC014C0EF
:1012B0002730D1F0283030F4253091F0263009F075
:1012C00051C010C0283091F0293009F04BC010C037
:1012D0005D9A48C05E9A46C0289A44C0299A42C086
:1012E0002A9A40C02B9A3EC02C9A3CC0449A3AC0DD
:1012F000459A38C08AEF90E00E94E01680911F0363
:10130000282F30E02C5F3F4F8091FF01281B3109CF
:1013100026303105E9F02730310554F42430310509
:1013200099F02530310594F423303105C1F40AC019
:101330002830310589F02830310564F02930310535
:1013400071F40CC0289A0BC0299A09C02A9A07C0C8
:101350002B9A05C02C9A03C0449A01C0459AC45FD9
:10136000D1405F9A80E49CE98C1B9D0B9093850093
:1013700080938400FF91EF91DF91CF91BF91AF9166
:101380009F918F917F916F915F914F913F912F919D
:101390000F900FBE0F901F9018951F93182F06C027
:1013A00086EB93E060E20E94E61911501123C1F729
:1013B0001F9108951F93182F8A3020F482E00E9415
:1013C000CD0907C0843628F486EB93E060E20E94E2
:1013D000E61986EB93E0612F4AE050E00E94921BF1
:1013E00086EB93E060E20E94E6191F910895CF9387
:1013F000DF9386EB93E060E071E00E94341CC8E567
:10140000D0E012C080E293E0BE014FEF0E94A81529
:10141000CE018F779070892B29F486EB93E06EE2F2
:101420000E94E619A89521968091E1019091E20130
:10143000C817D90738F388E590E09093E4018093CA
:10144000E3011092160380E293E06CE070E048E55F
:101450000E94A8154091E40180E293E06DE070E005
:101460000E94A81580E293E06EE070E040911603C0
:101470000E94A8150E94700786EB93E06CE171E072
:101480000E94371CDF91CF9108951F93CF93DF9374
:10149000EC01162FFE0121966491662329F086EB5C
:1014A00093E00E94E619F6CF112321F086EB93E03A
:1014B0000E94B51ADF91CF911F9108958AE991E0BA
:1014C00061E00E94450A8DEA91E060E00E94450AD1
:1014D00086EB93E06091AD014AE050E00E94A41BCE
:1014E00008959F92AF92BF92CF92DF92EF92FF92B8
:1014F0000F931F93CF93DF93833719F020E0833549
:1015000009F421E0A22E8C3619F090E08C3409F415
:1015100091E0B92E843619F09924843411F4992479
:101520009394222331F4992311F4AA24A394BB2485
:10153000B39486EB93E062E271E00E94341C86EB88
:1015400093E068E570E04AE050E00E94021C86EB00
:1015500093E063E371E00E94341C6091E1017091BB
:10156000E20186EB93E04AE050E00E94641B86EBC8
:1015700093E065E371E00E94341C6091E301709197
:10158000E40186EB93E04AE050E00E94751B86EB95
:1015900093E06DE371E00E94341CAA2029F081ECF5
:1015A00091E060E00E94450ABB2031F081EF91E0BC
:1015B00061E00E94450A04C086EB93E00E94B51AE0
:1015C000C091E301D091E401FF24CC248E010F5F90
:1015D0001F4F80E293E0BE010E94A115D82E84E641
:1015E0008D1520F4992011F46A9675C0DF10CC2473
:1015F0008D2D0E94DA09C3948C2D0E94DA09AA204D
:1016000069F178010894E11CF11C80E293E0B801D3
:101610000E94A115182F8F770E94DA0986EB93E0BC
:1016200060E20E94E619812F881F8827881F0E9488
:10163000DA0985E00E94CD09B7012A968B010F5F78
:101640001F4F80E293E00E94A1150E94DA09B801C1
:101650000C171D0799F7E701289602C0E8012996A3
:10166000BB2091F183E00E94CD09AA2029F086EBEE
:1016700093E060E20E94E619BE018E01085F1F4FF1
:101680007B010894E11CF11C80E293E00E94A1150B
:101690000E94DA09E016F10611F0B701F1CF84E0FB
:1016A0000E94CD09B80160968B010F5F1F4F80E249
:1016B00093E00E94A1150E94DA09B8010C171D07DA
:1016C00099F7E701289601C0609686EB93E00E94A7
:1016D000B51AA895FD2C8091E1019091E201C817FF
:1016E000D90710F0C8E5D0E08091E3019091E401C2
:1016F000C817D90709F06ACFDF91CF911F910F91D9
:10170000FF90EF90DF90CF90BF90AF909F900895A3
:10171000FF920F931F93CF93DF938EE491E061E0EC
:101720000E94450A01E010E0FF24CF2DD0E0FE0129
:10173000EF5FFD4F808190E08017910729F586EBE0
:1017400093E0B8014AE050E00E94021C86EB93E06F
:101750006DE30E94E619C8010E947906682F86EBA6
:1017600093E04AE050E00E94921B86EB93E069E030
:101770000E94E619CC0FDD1FC95EDD4F888199817B
:1017800061E00E94450AF3940F5F1F4F0B32110571
:1017900061F6DF91CF911F910F91FF900895AF9265
:1017A000BF92CF92DF92EF92FF920F931F93CF934E
:1017B000DF935C0101960E9444029C0101978E3FD9
:1017C000910510F010E01EC0122F82E090E0F501AC
:1017D000E80FF91FE081EE23A9F00196ED3279F4CC
:1017E0008A0D9B1D0E9444029C01812F90E082176C
:1017F000930740F42F3F310528F4C22E05C08A30EC
:10180000910529F7BEEFCB2E0E948C030E9407089A
:101810008EE060E00E94380386ED90E061E00E9477
:10182000450AE12EAEC089E76E2D0E9438038DEE89
:1018300092E00E94E0160FEFFF24C0E0D0E010E03D
:1018400083E690E00E94E01686E20E948603C80FBD
:10185000D11D801708F4082FF81608F4F82E1F5F22
:10186000173C71F789E08E1538F086EB93E066E45B
:1018700071E00E94341C08C0E3E6EE1528F086EB08
:1018800093E060E20E94E61986EB93E06E2D4AE059
:1018900050E00E94921BE1EFF1E06AE380818E1537
:1018A00009F463E2319681E0E93FF807B9F786EB86
:1018B00093E00E94E61986EB93E060E20E94E6194D
:1018C000802F0E94DA09CE0167EC70E00E94691C4B
:1018D000162F862F0E94DA098F2D0E94DA09F50152
:1018E00080818E3409F047C00A3010F4DD2408C02E
:1018F000083418F0ADE3DA2E03C0F6EFDF2ED00E79
:10190000F9E0FF1510F000E007C087E48F1510F430
:101910000DE302C00F2D0A501A3010F4FF2408C046
:10192000183418F0EDE3FE2E03C076EFF72EF10E1B
:1019300010E01F1521F486EB93E06AE217C01D1535
:1019400021F486EB93E06CE311C0101721F486EBD1
:1019500093E06EE30BC0D11630F4101720F486EB41
:1019600093E06EE203C086EB93E060E20E94E6192A
:101970001F5F0117F0F686EB93E00E94B51AA89559
:10198000E394CE1408F04FCFDF91CF911F910F91C8
:10199000FF90EF90DF90CF90BF90AF900895EF92BF
:1019A000FF920F931F93CF93DF937C01FC01108272
:1019B00000E010E086EB93E00E947C1918161906EF
:1019C000CCF586EB93E00E948D19469739F481E7B8
:1019D000F701808311821092F90134C086EB93E005
:1019E0000E94AD19EC011816190654F586EB93E028
:1019F0006C2F0E94E619CD30D10519F0CA30D105FF
:101A000029F486EB93E00E94B51A1CC0C830D105BA
:101A100031F40115110571F201501040CBCFF701DF
:101A2000E00FF11FC08311820A3011054CF40F5FE3
:101A30001F4F06C061E070E080E090E00E948716D2
:101A4000A895B8CFDF91CF911F910F91FF90EF90A4
:101A50000895CF92DF92EF92FF920F931F93DF933F
:101A6000CF93CDB7DEB72C970FB6F894DEBF0FBE7D
:101A7000CDBF87EE90E061E00E94450A8E010F5FC6
:101A80001F4FC8010E94CF0C8981813709F462C0C1
:101A9000813509F45FC068010E94880B81E091E004
:101AA00061E00E94450AC6010E94CF0C89818E36F2
:101AB00011F08E3421F4C6010E94CF0BF4CF83378E
:101AC00011F0833549F48A81853619F40E94F709AB
:101AD000EACF0E94710AE7CF8137E1F18135D1F178
:101AE000C6010E9444027C018BE2E816F104A0F6D4
:101AF000C6010E94CF0C8981813761F1813551F196
:101B0000C6010E9444028C018F3F910509F020F626
:101B1000E114F10419F4009709F4BECF86EB93E0C9
:101B2000B7014AE050E00E94021C86EB93E06DE3AF
:101B30000E94E61986EB93E0B8014AE050E00E946B
:101B4000151CC701602F0E9490050E94A1060E94EB
:101B5000B605A2CF2C960FB6F894DEBF0FBECDBF50
:101B6000CF91DF911F910F91FF90EF90DF90CF9079
:101B7000089586EB93E00E947C191816190614F05C
:101B800020E00CC086EB93E00E94AD198D369105E4
:101B900021F020E08D34910509F421E0822F089591
:101BA0001F93CF93DF93EC0110E011C0A8956DE770
:101BB00070E080E090E00E948716CB30D10568F09D
:101BC0000E94B90D882349F00E94290D10C0812F71
:101BD00090E08C179D0750F30AC0439A6DE770E0C0
:101BE00080E090E00E94871643981F5FF0CFDF915E
:101BF000CF911F910895EF92FF920F931F938091C1
:101C00008B0290918C02A0918D02B0918E02209156
:101C1000F5023091F6024091F7025091F802821BD2
:101C2000930BA40BB50B4497A105B10508F45FC055
:101C300086EB93E00E947C19082F10E02CE8E22E3E
:101C4000FF24F39451C086EB93E00E94AD19982FC6
:101C50008091F202882361F4963109F044C0909398
:101C6000E202F092F2021092F4021092F9013BC0EB
:101C7000E82FF0E0EE51FD4F90838F5F8093F202EA
:101C8000803188F11092F202E4EEF2E090E080817F
:101C9000982740E0892F90E09C013595279580FF9B
:101CA00003C09E2D922701C0922F4F5F483091F7BD
:101CB000319682E0E13FF80751F79923A1F4809132
:101CC0008B0290918C02A0918D02B0918E02809334
:101CD000F5029093F602A093F702B093F80281E028
:101CE0008093F40204C01F5F10170CF4ACCF1F9157
:101CF0000F91FF90EF900895FF920F931F938630FE
:101D0000A8F5880F082F10E0000F111FF801ED5BF8
:101D1000FD4FF0808F2D60E00E9485178F2D61E0D0
:101D20000E94C4170B5B1D4FF8010081802F61E0FA
:101D30000E94C41782E090E00E94E0168F2D0E945E
:101D40001818019779F4802F60E00E94C41782E090
:101D500090E00E94E0168F2D0E941818892B11F434
:101D600081E005C08F2D61E00E94851780E01F9102
:101D70000F91FF9008950E943707882369F08091A2
:101D8000F302882329F48AE890E061E00E94450A82
:101D900088E790E00E94D00D82E00E947C0E8823AC
:101DA000A1F084E090E00E94D00D0E94B6058091E1
:101DB000F302882329F48AEB90E061E00E94450A4F
:101DC00084E090E00E94D00D08950E94A10688232F
:101DD00069F48091F302882329F485EA90E061E0B8
:101DE0000E94450A88E790E00E94D00D08951F9355
:101DF000E82FF62F4091FA01442331F4882311F0A3
:101E000010E01CC01FE71AC020911D0330911E0373
:101E1000C901642F70E00E94691C261B370BFE9FCE
:101E2000C0011124280F391F30931E0320931D0376
:101E3000C901642F70E00E94691C162F83E0612F96
:101E400070E00E94251710938802109289021F915A
:101E500008955F926F927F928F929F92AF92BF92FE
:101E6000CF92DF92EF92FF920F931F93CF93DF9366
:101E700080E00E947C0E80931C03882319F08AE086
:101E80008093000284E00E947C0E8093F30281E044
:101E900090E00E94D00D8091F302882331F40E94DB
:101EA0005E0A81E090E00E94D00D85E00E947C0EE9
:101EB00086EB93E040E056E960E070E00E94F518A0
:101EC0000E94BB0E8091E7018093E0010E947007A1
:101ED0000E9433060E948C0310928A022EE088E151
:101EE00090E00FB6F894A895809360000FBE209301
:101EF00060008091F302882309F05FC086EB93E0D5
:101F000069E471E00E94341C86EB93E06091E50186
:101F10004AE050E00E94A41B0E94880B86EB93E0ED
:101F20006EE471E00E94341C84E00E948603682FF6
:101F300070E06170707086EB93E04AE050E00E94C0
:101F4000151C86EB93E063E571E00E94371C80E08E
:101F50000E948603682F86EB93E04AE050E00E94DF
:101F6000A41B81E00E948603682F86EB93E04AE081
:101F700050E00E94A41B82E00E948603682F86EB3B
:101F800093E04AE050E00E94A41B86EB93E069E5F1
:101F900071E00E94341C81E10E948603682F70E08A
:101FA0006054704086EB93E04AE050E00E94151CBC
:101FB00088E690E061E00E94450A57EC952E772470
:101FC0004CE8542E81E08093DF010E944D040E9472
:101FD0000708789483E08093A5020E9479166093A5
:101FE0008B0270938C0280938D0290938E0260938B
:101FF0008F0270939002809391029093920260936B
:10200000930270939402809395029093960260934A
:102010009702709398028093990290939A02882471
:10202000AA24BB2466246394A8958CE00E948603AE
:10203000882371F40E948C030E9407088091F302A8
:10204000882331F486EB93E06CE571E00E94371C45
:102050000E9479169B01AC0160938B0270938C02F5
:1020600080938D0290938E028091970290919802B6
:10207000A0919902B0919A0269017A01C81AD90A0D
:10208000EA0AFB0A8091F9018823C1F080918F024E
:1020900090919002A0919102B0919202281B390B6D
:1020A0004A0B5B0B2F5037424040504038F40E949F
:1020B000B90D882329F00E94290D1DC00E94FB0D37
:1020C0008091E7018823C9F586EB93E00E947C1993
:1020D0001816190694F586EB93E00E94AD198D3021
:1020E00069F49092E7010E94B60586EB93E063E6FF
:1020F00071E00E94371C0E948C0364CF8E3321F064
:102100008E3211F08E3E11F4939408C08C3329F076
:102110008C3219F0813A09F087CF9A94992011F402
:1021200099249A9489E0692D0E94380386EB93E004
:10213000692D4AE050E00E94A41B80918B0290918F
:102140008C02A0918D02B0918E0220919302309169
:1021500094024091950250919602821B930BA40B1E
:10216000B50B88559240A040B04008F45BC0809108
:10217000A402882309F056C080918A02882309F4BA
:1021800051C08091F302882331F486EB93E06AE634
:1021900071E00E94371C6092A40280918B029091A2
:1021A0008C02A0918D02B0918E0280939B0290933D
:1021B0009C02A0939D02B0939E020E94330620E0F1
:1021C00030E0F901E953FE4FD901A155BE4F8D9181
:1021D0009C91918380832E5F3F4F2831310589F791
:1021E000E091FC01EE2391F0F0E0EE0FFF1FEB53C6
:1021F000FE4F809188029091890286509F4F23E084
:10220000880F991F2A95E1F79183808360928A0253
:10221000439880E068E00E94F70E8091B9028F5FDA
:102220008093B90280918B0290918C02A0918D02D3
:10223000B0918E0220919F023091A0024091A102A4
:102240005091A202821B930BA40BB50B885B9B40A1
:10225000A040B04010F06092DF0187E0C816D104C2
:10226000E104F104D4F48BE291E00E94E0160091C5
:1022700084021091850286E20E948603080F111DD8
:1022800010938502009384028091860290918702C8
:10229000019690938702809386028091DF018823C4
:1022A00019F02FEF30E02EC0D701C6010A97A1091F
:1022B000B1090997A105B105D8F483EF91E00E9417
:1022C000E016009180021091810286E20E9486034E
:1022D000080F111D109381020093800280918202E9
:1022E000909183020196909383028093820208C0AA
:1022F00027E1C216D104E104F10414F40E94D204CF
:1023000023E230E0C901AA2797FDA095BA2FC8168D
:10231000D906EA06FB060CF4ACC08091DF018823E5
:1023200019F58091A402882309F4439A80911B0334
:1023300020919702309198024091990250919A020F
:1023400080FF05C0205E3F4F4F4F5F4F04C0215EAE
:102350003F4F4F4F5F4F2093970230939802409327
:10236000990250939A0210C080918B0290918C0236
:10237000A0918D02B0918E02809397029093980263
:10238000A0939902B0939A026091DF0187E0689F61
:10239000B00111246F5F80E00E94F70E8091F3027C
:1023A000882309F05CC086EB93E060E771E00E944F
:1023B000341C60917E0270917F026F5F7F4F70933B
:1023C0007F0260937E0286EB93E04AE050E00E9439
:1023D000641B60918602709187026115710551F04E
:1023E00080918402909185020E94691C70938502FD
:1023F0006093840286EB93E064E771E00E94341CF2
:102400006091B6027091B70286EB93E04AE050E02B
:102410000E94641B86EB93E068E771E00E94341C25
:1024200060911B0370E06F5F7F4F86EB93E04AE0A3
:1024300050E00E94021C86EB93E06CE771E00E9482
:10244000341C609184027091850286EB93E04AE02F
:1024500050E00E94641B86EB93E00E94B51AE09165
:102460001B03F0E0E854FD4F82818F5F82830E945E
:1024700043038091A502843009F00CC243982D9A41
:102480008FE70E941D03CCE6D2E00E947803899377
:1024900082E0CC37D807C9F70E944D04FE013E9771
:1024A00090E08081982740E0892F90E09C0135954D
:1024B000279580FF03C0952D922701C0922F4F5F73
:1024C000483091F7319622E0EB37F20751F7992324
:1024D00051F08091F302882309F0C0C186EB93E0AC
:1024E00061E871E00FC090916C028091E60198174D
:1024F00061F08091F302882309F0B0C186EB93E08C
:1025000066E871E00E94371CA9C1CF010F970E94B5
:10251000790280917B02813089F4772081F4809167
:10252000F302882331F486EB93E06CE871E00E94BB
:10253000371C0E946D057724739401C07724609145
:102540008202709183026115710551F080918002C1
:10255000909181020E94691C7093810260938002B5
:1025600080918002909181029093830280938202F5
:1025700060918602709187026115710551F080911A
:102580008402909185020E94691C70938502609379
:102590008402209184023091850280918002909182
:1025A00081028217930728F4109281021092800210
:1025B00006C0821B930B90938102809380028091CE
:1025C000FB01882329F0809180029091810204C050
:1025D0008091820290918302909389028093880275
:1025E0008091880261E00E94F70E8BE20E948603D0
:1025F000C82FD0E08091F302882309F04EC086EB0B
:1026000093E061E971E00E94341C60918202709154
:10261000830286EB93E04AE050E00E94641B86EB65
:1026200093E064E771E00E94341C6091B6027091FF
:10263000B70286EB93E04AE050E00E94641B86EB11
:1026400093E068E771E00E94341C60911B0370E026
:102650006F5F7F4F86EB93E04AE050E00E94021CE0
:1026600086EB93E064E971E00E94341C86EB93E012
:10267000BE014AE050E00E94021C86EB93E06CE74A
:1026800071E00E94341C609184027091850286EB97
:1026900093E04AE050E00E94751BE0911B03F0E0DC
:1026A000EE0FFF1FDF01AE53BD4F8D919C9111972F
:1026B0002091820230918302820F931F8D939C930D
:1026C000DF01AE52BD4F8D919C91119720918402F4
:1026D00030918502820F931F8D939C93EA55FD4F95
:1026E000808191810196918380834091E701442309
:1026F00009F452C0C038D10514F0C050D140CE0109
:102700004496899718F020E030E006C09E01B4E0BE
:10271000220F331FBA95E1F78394C50160E170E0A1
:102720000E947D1CA61AB70AC90160E170E00E94F0
:102730007D1CA60EB71EC501B7FE04C088279927C9
:102740008A199B09813491053CF180E2881520F5B6
:10275000C50160E170E00E947D1CEB01D095C19540
:10276000DF4F642F6C0F6093E70189E00E9438030C
:102770008091F302882369F486EB93E068E971E0C5
:102780000E94341C86EB93E0BE014AE050E00E94B8
:10279000151C8824AA24BB241092A4021092A30220
:1027A00080918B0290918C02A0918D02B0918E024B
:1027B0008093930290939402A0939502B093960213
:1027C00080939B0290939C02A0939D02B0939E02E3
:1027D00080939F029093A002A093A102B093A202C3
:1027E0001092DF0110927F0210927E0220E030E012
:1027F000F901E953FE4FD901A155BE4F8D919C912E
:10280000918380832E5F3F4F2831310589F7E09116
:10281000FC01EE2391F0F0E0EE0FFF1FEB53FE4FB3
:10282000809188029091890286509F4F73E0880FB3
:10283000991F7A95E1F79183808360928A02809153
:10284000F302882359F086E180936C0286EB93E0D3
:102850006CE672E040E150E00E948B1A0E94430354
:1028600080918B0290918C02A0918D02B0918E028A
:102870008093970290939802A0939902B0939A0242
:1028800061E070E080E090E00E94871683E0809332
:10289000A5022D988091F402882309F477C08091D5
:1028A0009F029091A002A091A102B091A2028196F4
:1028B000A11DB11D2091F5023091F6024091F70261
:1028C0005091F80282179307A407B50708F05EC07D
:1028D00082EE92E00E94790220E030E0F901E953B3
:1028E000FE4FD901A155BE4F8D919C91918380835C
:1028F0002E5F3F4F2831310589F7E091FC01EE232F
:1029000091F0F0E0EE0FFF1FEB53FE4F8091880235
:102910009091890286509F4F53E0880F991F5A95D6
:10292000E1F79183808360928A021092F402109200
:10293000A4021092A30280918B0290918C02A0912C
:102940008D02B0918E028093930290939402A09393
:102950009502B093960280939B0290939C02A09361
:102960009D02B0939E028091F302882339F486EB96
:1029700093E06FE971E00E94371C08C086EB93E09A
:1029800062EE72E040E150E00E948B1A8091A40256
:10299000882309F449CB0E94D204E0908B02F09086
:1029A0008C0200918D0210918E0280919B02909179
:1029B0009C02A0919D02B0919E02E81AF90A0A0BAE
:1029C0001B0B6091F0018091A302882349F028E855
:1029D000E21623E1F20620E0020720E012077CF471
:1029E00070E080E090E028EE33E040E050E00E94AC
:1029F0004A1C6E157F05800791070CF015CB60927D
:102A0000A3028091F0018F3F61F08091F30288234F
:102A100031F486EB93E064EA71E00E94371C0E9477
:102A200065088091F302882331F486EB93E068EA2D
:102A300071E00E94371C0E948C030E944D0480911B
:102A40008B0290918C02A0918D02B0918E028093A6
:102A50009B0290939C02A0939D02B0939E02E4CAB5
:102A60008DE061E00E94851781E161E00E94851799
:102A70008EE060E00E9485178FE061E00E9485177C
:102A800080E161E00E94851782E060E00E94851786
:102A900084E061E00E94851780E060E00E94851775
:102AA00081E061E00E94851780E061E00E94C41728
:102AB00083E061E00E94851785E061E00E94851750
:102AC00086E061E00E94851787E061E00E9485173B
:102AD00088E061E00E94851789E061E00E94851727
:102AE0008AE061E00E9485178BE061E00E94851713
:102AF0008CE061E00E94851782E161E00E94851709
:102B000083E161E00E948517E1E8F0E01082109215
:102B100085001092840080E49CE990938700809364
:102B2000860082E0809380008AE1808381E0809348
:102B30006F0080E06AE672E042E050E00E94B41567
:102B40000895F999FECF72BD61BDF89A80B50895D8
:102B5000F999FECF1FBA72BD61BD40BD0FB6F894A2
:102B6000FA9AF99A0FBE0895823000F5E82FF0E046
:102B7000EE0FFF1FEF5DFC4F71836083882319F018
:102B80008130A1F408C0809169008C7F842B8093F0
:102B90006900E89A089580916900440F551F440F19
:102BA000551F837F842B80936900E99A08951F92B3
:102BB0000F920FB60F9211242F933F934F935F9371
:102BC0006F937F938F939F93AF93BF93EF93FF93F5
:102BD0008091210390912203892B29F0E091210318
:102BE000F09122030995FF91EF91BF91AF919F91D1
:102BF0008F917F916F915F914F913F912F910F90A6
:102C00000FBE0F901F9018951F920F920FB60F9244
:102C100011242F933F934F935F936F937F938F93E1
:102C20009F93AF93BF93EF93FF9380912303909172
:102C30002403892B29F0E0912303F09124030995C3
:102C4000FF91EF91BF91AF919F918F917F916F9184
:102C50005F914F913F912F910F900FBE0F901F905A
:102C600018951F920F920FB60F9211242F933F9336
:102C70008F939F93AF93BF938091290390912A03E1
:102C8000A0912B03B0912C0330912D030196A11D2F
:102C9000B11D232F2D5F2D3720F02D570196A11D3B
:102CA000B11D20932D038093290390932A03A093B1
:102CB0002B03B0932C038091250390912603A091C0
:102CC0002703B09128030196A11DB11D8093250310
:102CD00090932603A0932703B0932803BF91AF914D
:102CE0009F918F913F912F910F900FBE0F901F904A
:102CF00018958FB7F8942091290330912A034091B9
:102D00002B0350912C038FBFB901CA0108959B0179
:102D1000AC017FB7F8948091250390912603A09190
:102D20002703B091280366B5A89B05C06F3F19F033
:102D30000196A11DB11D7FBFBA2FA92F982F8827FB
:102D4000860F911DA11DB11D62E0880F991FAA1F5A
:102D5000BB1F6A95D1F7BC012DC0FFB7F8948091D5
:102D6000250390912603A0912703B0912803E6B58F
:102D7000A89B05C0EF3F19F00196A11DB11DFFBF33
:102D8000BA2FA92F982F88278E0F911DA11DB11D35
:102D9000E2E0880F991FAA1FBB1FEA95D1F7861B97
:102DA000970B885E9340C8F221503040404050401D
:102DB00068517C4F211531054105510571F6089583
:102DC000019739F0880F991F880F991F0297019773
:102DD000F1F70895789484B5826084BD84B58160EC
:102DE00084BD85B5826085BD85B5816085BDEEE613
:102DF000F0E0808181608083E1E8F0E010828081F2
:102E000082608083808181608083E0E8F0E080815F
:102E100081608083E1EBF0E0808184608083E0EB7F
:102E2000F0E0808181608083EAE7F0E08081846067
:102E300080838081826080838081816080838081C3
:102E4000806880831092C10008951F93CF93DF9311
:102E5000182FEB0161E00E948517209709F44AC002
:102E6000CF3FD10509F449C0E12FF0E0E25EFB4F0E
:102E700084918330C1F0843028F4813051F0823065
:102E8000B1F50CC0863019F1873049F1843079F5FD
:102E900014C084B5806884BDC7BD33C084B580626A
:102EA00084BDC8BD2EC08091800080688093800062
:102EB000D0938900C093880024C0809180008062F4
:102EC00080938000D0938B00C0938A001AC08091B9
:102ED000B00080688093B000C093B30012C08091AE
:102EE000B00080628093B000C093B4000AC0C038C4
:102EF000D1051CF4812F60E002C0812F61E00E94A7
:102F0000C417DF91CF911F910895CF93DF93482F7E
:102F100050E0CA01865F9B4FFC0134914A505C4FE0
:102F2000FA018491882369F190E0880F991FFC01D0
:102F3000E852FC4FA591B491FC01EE51FC4FC591B4
:102F4000D491662351F42FB7F8948C91932F9095D8
:102F500089238C93888189230BC0623061F42FB759
:102F6000F8948C91932F909589238C938881832B4F
:102F700088832FBF06C09FB7F8948C91832B8C93C6
:102F80009FBFDF91CF910895482F50E0CA01825E24
:102F90009B4FFC012491CA01865F9B4FFC019491D9
:102FA0004A505C4FFA013491332309F440C0222384
:102FB00051F1233071F0243028F42130A1F0223077
:102FC00011F514C02630B1F02730C1F02430D9F407
:102FD00004C0809180008F7703C0809180008F7D36
:102FE0008093800010C084B58F7702C084B58F7D38
:102FF00084BD09C08091B0008F7703C08091B0007C
:103000008F7D8093B000E32FF0E0EE0FFF1FEE51B5
:10301000FC4FA591B4912FB7F894662321F48C91BD
:103020009095892302C08C91892B8C932FBF089592
:10303000682F70E0CB01825E9B4FFC012491CB0195
:10304000865F9B4FFC0144916A507C4FFB01949139
:10305000992319F420E030E03CC0222351F12330C1
:1030600071F0243028F42130A1F0223011F514C081
:103070002630B1F02730C1F02430D9F404C080915B
:1030800080008F7703C0809180008F7D80938000C7
:1030900010C084B58F7702C084B58F7D84BD09C010
:1030A0008091B0008F7703C08091B0008F7D8093B6
:1030B000B000892F90E0880F991F84519C4FFC012C
:1030C000A591B4918C9120E030E0842311F021E0AF
:1030D00030E0C901089508951F920F920FB60F9224
:1030E00011242F933F934F938F939F93EF93FF93CD
:1030F0008091C00082FD1DC04091C60020916E03EA
:1031000030916F032F5F3F4F2F73307080917003AA
:10311000909171032817390771F0E0916E03F091D7
:103120006F03E25DFC4F408330936F0320936E0387
:1031300002C08091C600FF91EF919F918F914F91B6
:103140003F912F910F900FBE0F901F901895E09117
:10315000C203F091C303E05CFF4F81919191208104
:103160003181821B930B8F739070892B11F00E9419
:103170006B1808951F920F920FB60F9211242F9380
:103180003F938F939F93EF93FF932091B2033091DE
:10319000B3038091B4039091B5032817390731F434
:1031A0008091C1008F7D8093C10014C0E091B40371
:1031B000F091B503EE58FC4F20818091B4039091BB
:1031C000B50301968F7390709093B5038093B40309
:1031D0002093C600FF91EF919F918F913F912F9186
:1031E0000F900FBE0F901F901895AF92BF92DF9275
:1031F000EF92FF920F931F93CF93DF93EC017A012D
:103200008B01DD24403081EE580780E0680780E0C4
:10321000780711F0DD24D39491E0A92EB12CEC892C
:10322000FD89DD2069F0C50108A002C0880F991F43
:103230000A94E2F7808360E079E08DE390E005C0D6
:10324000108260E874E88EE190E0A80197010E9486
:10325000901C21503040404050405695479537953E
:10326000279580E12030380720F0DD2011F0DD24A3
:10327000D6CFE889F9893083EA89FB89208319A2AE
:10328000EE89FF89408121E030E0C9010C8C02C049
:10329000880F991F0A94E2F7482B4083EE89FF8933
:1032A0004081C9010D8C02C0880F991F0A94E2F772
:1032B000482B4083EE89FF894081C9010E8C02C0F2
:1032C000880F991F0A94E2F7482B4083EE89FF8903
:1032D00080810F8C02C0220F331F0A94E2F72095E1
:1032E00028232083DF91CF911F910F91FF90EF90C2
:1032F000DF90BF90AF900895DC011C96ED91FC919A
:103300001D97E05CFF4F2191319180819181281BB5
:10331000390B2F733070C9010895DC011C96ED91B3
:10332000FC911D97E05CFF4F20813181E054F0401B
:10333000DF01AE5BBF4F8D919C9111972817390724
:1033400019F42FEF3FEF07C08D919C91E80FF91F03
:103350008081282F30E0C9010895DC011C96ED9191
:10336000FC911D97E05CFF4F20813181E054F040DB
:10337000DF01AE5BBF4F8D919C91119728173907E4
:1033800019F42FEF3FEF10C08D919C911197E80F2A
:10339000F91F20818D919C91119701968F739070E8
:1033A00011969C938E9330E0C9010895DC019196AB
:1033B0008C919197882339F05496ED91FC91559713
:1033C000808186FFF9CF91961C920895CF93DF9369
:1033D000EC01EE85FF85E05CFF4F20813181E054F8
:1033E000F0402F5F3F4F2F733070DF01AE5BBF4F58
:1033F0008D919C91119728173907D1F3E05CFF4F0D
:1034000080819181E054F040E80FF91F6083EE85E0
:10341000FF85E05CFF4F31832083EE89FF892081A7
:1034200081E090E00F8C02C0880F991F0A94E2F7A8
:10343000282B208381E089A3EC89FD898081806429
:10344000808381E090E0DF91CF9108951092B903DD
:103450001092B80388EE93E0A0E0B0E08093BA0346
:103460009093BB03A093BC03B093BD038FE592E0A0
:103470009093B7038093B6038EE293E09093C303D7
:103480008093C20382E793E09093C5038093C403C3
:1034900085EC90E09093C7038093C60384EC90E0A2
:1034A0009093C9038093C80380EC90E09093CB0382
:1034B0008093CA0381EC90E09093CD038093CC037A
:1034C00082EC90E09093CF038093CE0386EC90E063
:1034D0009093D1038093D00384E08093D20383E060
:1034E0008093D30387E08093D40385E08093D50352
:1034F00081E08093D6030895CF93DF930E94EA166C
:103500000E943015C7EAD8E10E94290F2097E1F305
:103510000E94A718F9CFCF92DF92EF92FF920F93FC
:103520001F93CF93DF937C016B018A01C0E0D0E051
:103530000FC0D6016D916D01D701ED91FC91019005
:10354000F081E02DC7010995C80FD91F0150104027
:103550000115110571F7CE01DF91CF911F910F91E8
:10356000FF90EF90DF90CF900895EF92FF920F932E
:103570001F938C01DC01ED91FC910190F081E02D15
:103580006DE009957C01D801ED91FC910190F081ED
:10359000E02DC8016AE009959C012E0D3F1DC9016F
:1035A0001F910F91FF90EF900895CF93DF93EC015F
:1035B0006115710519F420E030E00FC0DB010D90BA
:1035C0000020E9F71197A61BB70BE881F98102806B
:1035D000F381E02DAD0109959C01C901DF91CF91E7
:1035E00008954F925F927F928F929F92AF92BF9277
:1035F000CF92DF92EF92FF920F931F93DF93CF93BF
:10360000CDB7DEB7A1970FB6F894DEBF0FBECDBF22
:103610002C01742ECB01223008F42AE019A231E2E9
:10362000C32ED12CCC0EDD1E822E9924AA24BB24BD
:10363000672D752FA50194010E94901C79018A01C4
:10364000C801B701A50194010E944A1C472D461BE1
:103650000894C108D1084A3014F4405D01C0495CA7
:10366000F6014083E114F1040105110521F07E2CDF
:103670005F2DC801DDCFC201B6010E94D51AA19607
:103680000FB6F894DEBF0FBECDBFCF91DF911F9173
:103690000F91FF90EF90DF90CF90BF90AF909F90F1
:1036A0008F907F905F904F900895DC012115310538
:1036B00041F4ED91FC910190F081E02D642F09958A
:1036C00008950E94F11A0895EF92FF920F931F93AD
:1036D0009A017B0100E010E0B801A7010E94551B90
:1036E0001F910F91FF90EF900895CF92DF92EF928C
:1036F000FF920F931F936C017B019A0100E010E091
:10370000B801A7010E94551B8C01C6010E94B51A81
:10371000080F191FC8011F910F91FF90EF90DF90C4
:10372000CF900895EF92FF920F931F939A01E62E88
:10373000FF2400E010E0B801A7010E94551B1F9173
:103740000F91FF90EF900895CF92DF92EF92FF924A
:103750000F931F936C01E62E9A01FF2400E010E006
:10376000B801A7010E94551B8C01C6010E94B51A21
:10377000080F191FC8011F910F91FF90EF90DF9064
:10378000CF900895CF92DF92EF92FF920F931F9305
:10379000CF93DF93EC016A017B012115310541F4E0
:1037A000E881F9810190F081E02D642F09951FC017
:1037B0002A303105D1F477FF17C0E881F9810190F3
:1037C000F081E02D6DE209958C0144275527BA015F
:1037D0004C195D096E097F09CE012AE00E94F11A99
:1037E0009801280F391F04C02AE00E94F11A9C0199
:1037F000C901DF91CF911F910F91FF90EF90DF9062
:10380000CF900895EF92FF920F931F937B019A013F
:103810000027F7FC0095102FB801A7010E94C21BDA
:103820001F910F91FF90EF900895CF92DF92EF924A
:10383000FF920F931F936C017B019A010027F7FC05
:103840000095102FB801A7010E94C21B8C01C60170
:103850000E94B51A080F191FC8011F910F91FF9000
:10386000EF90DF90CF9008950E94D51A0895EF92BF
:10387000FF920F931F937C010E94D51A8C01C70100
:103880000E94B51A080F191FC8011F910F91FF90D0
:10389000EF900895629FD001739FF001829FE00D29
:1038A000F11D649FE00DF11D929FF00D839FF00DBF
:1038B000749FF00D659FF00D9927729FB00DE11D6B
:1038C000F91F639FB00DE11DF91FBD01CF01112448
:1038D0000895AA1BBB1B51E107C0AA1FBB1FA61757
:1038E000B70710F0A61BB70B881F991F5A95A9F7A9
:1038F00080959095BC01CD01089597FB092E072670
:103900000AD077FD04D0E5DF06D000201AF47095C8
:1039100061957F4F0895F6F7909581959F4F089593
:10392000A1E21A2EAA1BBB1BFD010DC0AA1FBB1FC3
:10393000EE1FFF1FA217B307E407F50720F0A21B35
:10394000B30BE40BF50B661F771F881F991F1A94A2
:1039500069F760957095809590959B01AC01BD01CC
:10396000CF01089597FB092E05260ED057FD04D0F0
:10397000D7DF0AD0001C38F450954095309521953A
:103980003F4F4F4F5F4F0895F6F790958095709594
:1039900061957F4F8F4F9F4F0895EE0FFF1F05904A
:0A39A000F491E02D0994F894FFCF94
:1039AA005374617469737469637320696E20454541
:1039BA0050524F4D206572617365200020646F6E0E
:1039CA0065004C61737420737461746973696373FD
:1039DA003A28002D002920666F726D2000464E207D
:1039EA0020636E742000202000532F4E3D00495260
:1039FA00513D00535441525400543D0046694572AA
:103A0A0072210046697865642100746F206673002C
:103A1A0024524C0020533D0020433D0020526E3D6D
:103A2A0000435243210042494E4421004653205745
:103A3A0000523D0020413D0046636F72723D0024F2
:103A4A0053415400534F5300496E6974000702B83A
:103A5A000BB80BB80BB80BB80BB80BB80BB80BB844
:103A6A000BB80BB80BB80BB80BB80BB80BB80BB834
:103A7A000BB80BB80BB80BB80BB80BB80BB80B01DB
:103A8A00C7000458006348CC000100650402010025
:103A9A001E4D9359A76DBD7FD1010100004BD20481
:103AAA000A01020304050B0C0D0E0F101112131458
:103ABA0018191A1C28292A38023F02490266027874
:103ACA00028C0294029C02A402AC02B402BC02C49C
:103ADA0002CC02E20223033B0344034D036D039528
:103AEA0003B503050006000700080009000A000BD9
:103AFA00000C00120013000000010000000000E6A4
:0C3B0A00198B1A7C19AD198D19D6190001
:00000001FF
