:100000000C9429020C94A41C0C94D11C0C94510245
:100010000C9451020C9451020C9451020C94510214
:100020000C9451020C9451020C9451020C94510204
:100030000C9451020C9479020C9451020C945102CC
:100040000C94FE1C0C9451020C945F1F0C94AD1F79
:100050000C9451020C9451020C9451020C945102D4
:100060000C9451020C945102507265737320276DE9
:100070002720746F207374617274204D454E552093
:10008000696E2031302073656300464C415348202F
:100090004552524F522121212043616E277420770F
:1000A0006F726B21004572726F72207265616420FD
:1000B00073657474696E6773210053657474696E37
:1000C000677320726573657420746F206465666160
:1000D000756C7473210046486E3A204D696E20415C
:1000E0007672204D617800546F20456E74657220E1
:1000F0004D454E5520507265737320454E54455200
:1001000000547970652052656720616E64207072BA
:1001100065737320454E5445522C207479706520C8
:1001200056616C756520616E642070726573732012
:10013000454E5445522028713D517569743B2073DA
:10014000732F736C2F73613D537461742900526770
:100150003D56616C2009436F6D6D656E7473202D83
:100160002D2D2D2D2D2D2D2D2D2D2D2D2D2D2D2DBF
:100170002D2D2D2D2D2D004578656375746520720C
:100180006562696E643F2041726520796F752073E6
:1001900075726528792F6E293F000A0D42617963D7
:1001A000686920736F6674203230313300525820F2
:1001B0004F70656E20457870657274205632204607
:1001C0000046536E20496E4653202044726F707370
:1001D0003A312020203220202033202020342020BB
:1001E00020352020203620202037202020382020B5
:1001F00000525353493A312020203220202033200E
:100200002020342020203520202036202020372098
:10021000202038204E6F6973653A3120202032202B
:10022000202033202020342020203520202036207C
:10023000202037202020380042696E64204E00467E
:1002400072657120436F727200536572766F203150
:1002500035302520737472656368206E756D2028B3
:10026000312D313229005374617469737469637379
:1002700020656E61626C650031316269742F3130C6
:1002800063682028313D7965732C20323D467574B2
:1002900061626129004469736372657465206F75DA
:1002A0007470757473206D61736B00486F702046B5
:1002B0003100486F7020463200486F70204633008E
:1002C000486F7020463400486F7020463500486FF4
:1002D0007020463600486F7020463700486F702007
:1002E000463800426561636F6E20462028323535FE
:1002F0003D64697361626C652900426561636F6E7C
:1003000020506D617820286D5774293A20302D31A6
:100310002E323B20312D323B20322D333B20332DEA
:10032000363B20342D31323B20352D32353B2036C3
:100330002D35303B20372D31303000426561636F01
:100340006E2073746172742074696D652028736502
:1003500063290053415720466D696E005341572071
:10036000466D61780050504D2F53425553206D6FAC
:100370006465203173742050574D2063686E6C2083
:1003800028312D3829205B345D00525353492074A5
:100390007970653A20736F756E642830292F6C650B
:1003A00076656C28312D39393D61766572616765F6
:1003B000290052535349206D6F64653A206C65766D
:1003C000656C2830292F534E20726174696F283173
:1003D000290052535349206F7665722050574D289B
:1003E0006368616E3A312D31322920302D6E6F7481
:1003F000207573650000000000240027002A00001B
:10040000000000250028002B00000000002300262B
:100410000029000404040404040404020202020289
:1004200002030303030303010204081020408001B8
:100430000204081020010204081020000000070038
:10044000020100000304060000000000000000009C
:10045000192111241FBECFEFD8E0DEBFCDBF13E0BE
:10046000A0E0B1E0EEE1FAE402C005900D92A83000
:10047000B107D9F714E0A8E0B3E001C01D92A13B99
:10048000B107E1F714E0C2E5D4E004C02297FE0111
:100490000E940925C035D107C9F70E946F210C942D
:1004A0000D250C940000FC0188279927E8942191E0
:1004B0002032E9F3293010F02E30C8F32B3241F00E
:1004C0002D3239F4689404C00E947102820F911D8C
:1004D000219120532A30C0F31EF4909581959F4FAF
:1004E00008957AE0979F902D879F802D910D11247C
:1004F00008951F920F920FB60F9211242F933F93DE
:100500004F935F938F939F93AF93BF93EF93FF931B
:1005100080918400909185008097D0F385B190916F
:100520004002892385B988B190914102892388B915
:100530008BB19091420289238BB980912803882343
:1005400009F47BC08091F4038F5F8093F403909152
:100550003D02981730F4109219031092180310926C
:10056000F4034091F4034917B1F42091180330913A
:100570001903E0910B02F0910C02CF0180579741D3
:100580002817390718F020E737E145C0CF01821B53
:10059000930B9C0140C0A42F50912603523011F0C0
:1005A000E42F04C0E0918F02E40FE150FF27E7FD44
:1005B000F095EE0FFF1FEB5DFD4F208131818091A3
:1005C000180390911903820F931F9093190380933E
:1005D0001803552369F0513049F44C5F80918F0224
:1005E000A42FA81B4450A3301CF415C0A42FAD5F4A
:1005F000AC3088F4BB27A7FDB095FD01EE0FFF1FBF
:10060000ED5BFD4F0190F081E02D8081A55ABD4F3B
:100610009C91892B808380912603813091F44B300B
:1006200080F4289A8091840090918500845F9140A5
:10063000C8F3275F3140289804C020910B02309105
:100640000C0280910B0290910C02821B930B9093F1
:10065000850080938400FF91EF91BF91AF919F91AE
:100660008F915F914F913F912F910F900FBE0F90FF
:100670001F901895CF93DF9380917902882379F1A9
:10068000C3E4D2E020E030E0482F50E0CA01022E5F
:1006900002C0959587950A94E2F780FF1AC0888179
:1006A00099818832910511F4E1E005C08B9711F42E
:1006B000E2E001C0E0E0F0E0E05CFD4FD901A959C3
:1006C000BD4F80819C91892B8083F901E55AFD4FB4
:1006D00010822F5F3F4F229628303105B9F6DF9107
:1006E000CF9108956F927F928F929F92AF92BF9217
:1006F000CF92DF92EF92FF920F931F93CF93DF93EE
:10070000EC0120917602822F6AE00E949724892EC4
:100710008A94822F0E949724982E9A94709178023E
:10072000723009F49AC09F858D853E010DE012E07C
:10073000E0E0F0E0C82EDD24A2E0AA2EB12CE92EE4
:10074000FF24D30112968C91482F50E0440F551F7F
:10075000440F551F6E2FE83028F52E2F898190E029
:100760000E2E02C0959587950A94E2F780FD54609D
:10077000673061F0C501022E02C0880F991F0A94EC
:10078000E2F78E219F21892B09F042607723C1F186
:10079000C60102C0959587952A95E2F780FF30C083
:1007A00041602EC0440F551F772351F1E83039F4D2
:1007B0008C8590E087709070482B592B21C0E930D0
:1007C00019F040E050E01CC08C8590E023E0959546
:1007D00087952A95E1F79C0127703070422B532BA7
:1007E00095958795959587958270907020911B02BD
:1007F00030911C02822B932B90931C0280931B023E
:10080000681511F06915C1F4CA01805094409C012B
:1008100035952795280F391FBBEF20353B0714F47A
:1008200020E53BEFC90124E0813B920714F080EB07
:1008300094E0AC0140505C4F4854584FD8014D9360
:100840005D938D0131960894611C711CEC30F105AB
:1008500009F077CF3F85317066C0DE01EDE9F3E046
:1008600011968C9111978193119623E0EB3AF20740
:10087000B9F7FDE0EF2EF2E0FF2E11E001E0B0E06D
:1008800048C0660F771FFE01E00FF11D808190E0E8
:10089000212F30E082239323892B11F0462B572BF5
:1008A000103819F40F5F11E001C0110FAF5FAB30CA
:1008B00041F7B81511F0B915C1F4CA018050944040
:1008C0009C0135952795280F391F7BEF2035370779
:1008D00014F420E53BEFC901A4E0213B3A0714F0F2
:1008E00080EB94E0AC0140505C4FCA01880F991F27
:1008F000880F991F840F951F9595879595958795D6
:100900008052994FF701819391937F01BF5FBA3075
:1009100031F040E050E0A0E061E070E0B4CFC00F03
:10092000D11D3881307880917902882389F1A3E440
:10093000B2E047E652E02DE0E22E22E0F22E61E046
:10094000082F10E0862F90E080239123892B99F0C7
:10095000E70188819981ED91FC911197EA01288145
:10096000895B9B4020F08081822B808304C0808142
:1009700020952823208312964F5F5F4F82E090E0FE
:10098000E80EF91E92E0A335B90711F0660FDACF31
:10099000832FDF91CF911F910F91FF90EF90DF9008
:1009A000CF90BF90AF909F908F907F906F90089561
:1009B0009C01809178028230E1F4F90190E05CE8DA
:1009C000B901615F7F4F8181982740E0892F90E0D6
:1009D0009C013595279580FF03C0952F922701C074
:1009E000922F4F5F483091F73196E617F70759F786
:1009F0001BC0F90190E05CE8B901635F7F4F828121
:100A0000982740E0892F90E09C013595279580FF3D
:100A100003C0952F922701C0922F4F5F483091F766
:100A20003196E617F70759F7892F0895409A2D98C0
:100A3000409898E010C087FF07C02D9800002B9ABF
:100A400000002D9A000006C02D9800002B98000091
:100A50002D9A0000880F915070F72D9808958F7788
:100A60000E94160508952D9898E010C087FF07C0D2
:100A70002D9800002B9A00002D9A000006C02D989A
:100A800000002B9800002D9A0000880F915070F7FD
:100A90002D9808951F93162F80680E941605812FA8
:100AA0000E943305409A1F9108951F938091270358
:100AB0008F5F80932703883010F010922703E09116
:100AC0002703F0E0E658FD4F108189E7612F0E946F
:100AD0004A0580918D02181730F080918E0281179F
:100AE00010F0479A01C047981F9108952D9880E013
:100AF00090E0880F2D9A00001C9981602D980000CD
:100B00009F5F9830B1F708950E942F050E947605E7
:100B1000409A089583E00E9484058093AB0384E0AB
:100B20000E9484058093AC0386E060E00E944A0541
:100B300087E061E00E944A0560917502662311F02A
:100B400089E002C089E067EC0E944A058AE065E01E
:100B50000E944A058BE062E10E944A058CE065E153
:100B60000E944A058DE06BE10E944A058EE060E03C
:100B70000E944A058FE163E00E944A058EE16AE027
:100B80000E944A0582E160E60E944A0583E168EF1F
:100B90000E944A058FE060E80E944A058DE160E40A
:100BA0000E944A058CE166E20E944A0580E264E404
:100BB0000E944A0581E260E00E944A0582E262EFFB
:100BC0000E944A0583E26CE70E944A0584E266E0DF
:100BD0000E944A0585E26DE70E944A058AE26EE1BD
:100BE0000E944A0580E36CEA0E944A0582E36CE8B1
:100BF0000E944A0583E36AE00E944A0584E364E0B8
:100C00000E944A0585E362E20E944A0586E36DE29E
:100C10000E944A0587E364ED0E944A0588E360E08C
:100C20000E944A0589E360E00E944A058EE360E184
:100C30000E944A058DE66FE00E944A058EE66CE34D
:100C40000E944A058FE66FE90E944A0589E660E640
:100C50000E944A0580E76EE20E944A0589E760E04B
:100C60000E944A058AE766E00E944A0581E763E23E
:100C70000E944A0582E76EE00E944A0585E763E527
:100C80000E944A0586E76CE40E944A0587E760EE09
:100C90000E944A05089587E061E00E944A058EE7B8
:100CA00064E20E944A0588E063E00E944A0588E009
:100CB00060E00E944A0587E065E00E944A0585E001
:100CC00062E00E944A0583E00E9484058093AB03A2
:100CD00084E00E9484058093AC03089583E00E9421
:100CE00084058093AB0384E00E9484058093AC0369
:100CF00087E061E00E944A050895482F8091EA0349
:100D00009091EB03481721F49C5E9093EB030895B8
:100D10002091EC033091ED03290F311D3093ED0349
:100D20002093EC0301C07894809184009091850019
:100D3000B901681B790B62327105A8F7F8948091AC
:100D400084009091850028173907C9F7442311F0D2
:100D50002A9801C02A9A4093EA0384E18093EB0326
:100D60000895EF92FF920F931F93CF93DF93E82E96
:100D700080E00E947D06FF2410E001E0CE2DD0E04F
:100D8000802F90E08C239D23892B29F081E00E9405
:100D90007D061F5F03C080E00E947D06F39488E01B
:100DA000F81611F0000FECCF812F81700E947D06A4
:100DB00081E00E947D0681E00E947D06DF91CF9157
:100DC0001F910F91FF90EF900895DF92EF92FF92A5
:100DD0000F931F93CF93DF9380912603823009F006
:100DE00079C08FE08093D10390914203992311F051
:100DF00018E001C010E01093E8031092E90380911D
:100E000078028230A1F4992391F4EDE9F3E0A2EDA8
:100E1000B3E081918D9383E0EB3AF807D1F710911D
:100E2000AA031F734AE07EE0D72E00E404C040E02E
:100E3000DD24D39401E080919803E82EFF2463E041
:100E4000EE0CFF1C6A95E1F7C0912403D0912503B5
:100E500053E0CC0FDD1F5A95E1F74C30A0F4E42F9E
:100E6000F0E0EE0FFF1FEB5DFD4F80819181805E12
:100E70009640880F991F880F991F65E070E00E94C7
:100E8000A324CB0107C04D3011F4C70103C04E307D
:100E900019F4CE0120E00AC04F3019F480E096E04A
:100EA000F9CF80E090E0F6CF9695879580FD102BE6
:100EB000003849F4ED2DF0E0EF52FC4F1083D3944D
:100EC00010E001E001C0000F2F5F2B3069F74F5F8A
:100ED000403118F2DF91CF911F910F91FF90EF9069
:100EE000DF90089520E030E0F894F901EB5DFD4FCC
:100EF000D901A35FBD4F8D919C919183808378949C
:100F00002E5F3F4F2831310579F7E0918C02EE23B7
:100F1000A1F0F894F0E0EE0FFF1FED5DFD4F809122
:100F200024039091250386509F4FA3E0880F991FBB
:100F3000AA95E1F791838083789481E080932803D8
:100F40000E94E50608950F931F93CF93DF9380913E
:100F5000CC038093B103909158039093B203809196
:100F60004203882321F480912803882319F4906890
:100F70009093B2031092580305E413E029E533E09F
:100F8000C3EBD3E0F9013896D8016D917C916115DE
:100F9000710511F441E001C0462FD9018C9188837D
:100FA00080819181642F70E00E94A32468878089EA
:100FB0009189642F70E00E94A324688BD9011D924F
:100FC0009D0111821082118A108AD8011D921D92F2
:100FD0008D0121963296B3E005351B07A9F61092D4
:100FE000CB03DF91CF911F910F9108950F931F9322
:100FF000CF93DF930DE012E0C0E4D0E0F80141812F
:1010000085EF93E0BE010E94751C219685EF93E069
:10101000BE01F80140810E94751C0E5F1F4F219692
:10102000F2E005321F0751F7DF91CF911F910F9129
:101030000895462FBC016F5E7F4F85EF93E00E94BD
:10104000751C0895DF92EF92FF920F931F938C010E
:10105000D62E472F85EFE82E83E0F82EC701B80182
:101060000E94751C0F5F1F4FC701B8014D2D0E94D4
:10107000751C1F910F91FF90EF90DF900895EF92F4
:10108000FF920F931F93CF93DF9303E712E0EE24B9
:10109000FF24C0E0D0E0CE01F80160810E94190871
:1010A000F80181918F01E80EF11C2196C730D1051E
:1010B00091F7CAE7D2E00BE010E0C80168810E9416
:1010C00019088991E80EF11C0F5F1F4FF2E0C2383A
:1010D000DF0799F7C2E8D2E003E110E0C8016881B8
:1010E0000E9419088991E80EF11C0F5F1F4F82E0E2
:1010F000C838D80799F789E190E060918D020E9485
:10110000190880918D02E701C80FD11D8AE190E096
:1011100060918E020E94190880918E02C80FD11D25
:101120008CE190E060918F020E94190880918F02FB
:10113000C80FD11D0AE812E098E2E92EF12CC70190
:10114000F80160810E941908F80181918F01C80F90
:10115000D11D0894E11CF11CF2E00D381F0779F74E
:101160008AE090E0BE010E942208DF91CF911F919A
:101170000F91FF90EF900895AF92BF92CF92DF92C0
:10118000EF92FF921F93CF93DF934DE0C42E42E086
:10119000D42E30E4E32EF12C28EBA22E2BE0B22E3D
:1011A00085EF93E0B7010E946E1C182FB7016F5FA7
:1011B0007F4F85EF93E00E946E1CD12FC0E09E010F
:1011C000280F311DC901F601318320838C569740C9
:1011D0008959984018F0F601B182A08222E030E0EF
:1011E000E20EF31EC20ED31E38E5E316F104C1F67B
:1011F000DF91CF911F91FF90EF90DF90CF90BF9044
:10120000AF900895BC016F5E7F4F85EF93E00E9421
:101210006E1C0895DF92EF92FF920F931F938C0143
:1012200055EFE52E53E0F52EC701B8010E946E1C64
:10123000D82E0F5F1F4FC701B8010E946E1C3D2DB5
:1012400020E0280F311DC9011F910F91FF90EF90F1
:10125000DF9008950F931F93CF93DF9300E010E08A
:10126000C0E0D0E0CE010E940209FE01ED58FD4F22
:101270008083080F111D2196C730D10599F7CBE067
:10128000D0E0CE010E940209FE01E159FD4F8083AA
:10129000080F111D2196C331D10599F7C3E1D0E0A4
:1012A000CE010E940209FE01E159FD4F8083080F23
:1012B000111D2196C931D10599F78091830288309B
:1012C00008F05BC0863008F059C0823010F491E01D
:1012D00002C091E0891B80938402981708F4891B4F
:1012E000809385021092860289E190E00E940209B3
:1012F00080938D02080F111D8AE190E00E9402097F
:1013000080938E02080F111D8CE190E00E9402096B
:10131000982F8150883020F490938F02090F111D6F
:10132000C8E2D0E0CE010E940209FE01EE59FD4F55
:101330008083080F111D2196CB32D10599F78AE2DF
:1013400090E00E94020980938C0281508C3010F052
:1013500010928C0280918C02080F111D8AE090E09F
:101360000E940A0920E08017910709F421E0822FEA
:10137000DF91CF911F910F91089587E092E0AACF5E
:101380000F931F93CF93DF9320910A02222379F1C9
:10139000E0E0F0E000E010E08491080F111D3196CC
:1013A00080E4E030F807C1F7922F80E02091090235
:1013B000EC01C20FD11D86E090E00E940A09C81717
:1013C000D90761F086E090E0BE010E94220888E023
:1013D00090E0B8010E94220881E00AC088E090E015
:1013E0000E940A098017910711F08FEF01C080E079
:1013F000DF91CF911F910F9108950F931F93CF937A
:10140000DF93E2E0F0E081E2809357008491843939
:1014100031F488EF91E09093700280936F0285EF32
:1014200093E06CE070E00E946E1C082F10E01093B7
:1014300072020093710285EF93E06DE070E00E940C
:101440006E1C382F20E0200F311F30937202209342
:1014500071022835310538F080916F029091700249
:1014600028173907C0F088E590E0909372028093C6
:10147000710285EF93E06CE070E048E50E94751C16
:101480004091720285EF93E06DE070E00E94751C60
:101490001092CC0316C0C901CE976AE170E00E9499
:1014A000A324882331F0281B310930937202209342
:1014B000710285EF93E06EE070E00E946E1C8093F5
:1014C000CC038091CC038F5F8093CC03843610F0E3
:1014D0001092CC03A9E5B3E0FD013896C5E4D3E052
:1014E0001D9211821082118A108A199219923296D5
:1014F00083E0A136B807A1F7109258038AE18093E0
:10150000CB0310925603109255030E94461D609320
:10151000CD037093CE038093CF039093D003DF91DC
:10152000CF911F910F91089580914403813019F458
:1015300082E08093440380914403833069F484E023
:10154000809344030E94461D6093990370939A030D
:1015500080939B0390939C0308958091260382308F
:1015600011F0E0E015C00E94541DE0E02091AD03B1
:101570003091AE034091AF035091B003621B730BE7
:10158000840B950B635679418040904008F0E1E070
:101590008E2F0895EF92FF920F931F938091770201
:1015A000882309F496C00E94AD0A882309F091C0EF
:1015B0008AC0F0E060917102709172026E0F7F1F1D
:1015C000EF54FC4F85EF93E040810E94751C8091A1
:1015D000CB038F5F8093CB038A3109F04CC080919D
:1015E0007102909172024A969093720280937102F6
:1015F00020916F023091700282179307E0F188E525
:1016000090E0909372028093710235C0EA3139F410
:101610004091720285EF93E06DE070E008C0EB311D
:1016200071F485EF93E06CE070E0409171020E94EC
:10163000751C8091CB038F5F8093CB031CC0EC3172
:10164000D1F48DE18093CB038091550390915603A3
:10165000892B41F485EF93E06EE070E04091CC037C
:101660000E94751C809155039091560301969093AA
:101670005603809355032091290330912A0340910A
:101680002B0350912C038091CD039091CE03A09118
:10169000CF03B091D00379018A01E81AF90A0A0B45
:1016A0001B0BD801C70180569A4EA040B04088F06D
:1016B0002093CD033093CE034093CF035093D003B8
:1016C0000E94A30706C0E091CB03EA3108F09ECF49
:1016D00070CF1F910F91FF90EF9008950F931F937C
:1016E000CF93DF9380912603823009F057C0809119
:1016F0002803882309F452C00E94541DAB01BC0189
:101700008091AD039091AE03A091AF03B091B0036F
:101710008A019B01081B190B2A0B3B0BD901C8013D
:1017200083569941A040B040C8F120918400309187
:10173000850080910B0290910C028F5F9841821777
:10174000930760F11EC08091E80384608093E803F2
:101750001092EA031092EB03F89480918400909128
:1017600085009093ED038093EC032A9AC1EDD3E0BA
:1017700089910E94B10623E0CA3ED207C9F7789446
:101780000DC04093AD035093AE036093AF037093CD
:10179000B003809143038823B1F6DACFDF91CF9174
:1017A0001F910F910895EF92FF920F931F938C0159
:1017B0000E94541D780100E010E0E60EF71E081F9D
:1017C000191F02C00E946E0B0E94541D6E157F05EA
:1017D00080079107B8F31F910F91FF90EF90089544
:1017E000EF92FF920F931F93CF93DF93EB01F42EB1
:1017F0009C01442737FD4095542F60E271EA87E051
:1018000090E00E94EC2489012530310514F405E0B4
:1018100010E087E0F82288E0F82A8DE66F2D0E941C
:101820004A058EE064E00E944A0561E070E080E0D5
:1018300090E00E947A1D8EE060E00E944A05A89523
:10184000BE01882777FD8095982F20E930ED43E091
:1018500050E00E9478249801442737FD4095542F8A
:101860000E94EC247901C0E0D0E009C02B9AC801A5
:101870000E94D30B2B98C8010E94D30B2196CE1542
:10188000DF05A0F3DF91CF911F910F91FF90EF90B3
:10189000089583E00E9484058093AB0384E00E9456
:1018A00084058093AC0386E060E00E944A0587E0EF
:1018B00061E00E944A0589E060913F020E944A056A
:1018C0008AE065E00E944A058BE062E10E944A05D9
:1018D0008CE065E10E944A058DE06AE00E944A05BD
:1018E0008EE060E00E944A0580E76CE20E944A05B3
:1018F00080E360E00E944A0589E7609182020E94CD
:101900004A058AE766E00E944A0581E762E10E9493
:101910004A0582E762E00E944A0583E760E00E9490
:101920004A0584E760E00E944A0547986091830277
:10193000677068608DE60E944A056AE070E080E0AA
:1019400090E00E947A1D87E069E00E944A0588EBDA
:1019500091E061E070E0409183020E94F00B8DE520
:1019600091E061E070E0409184020E94F00B85E01C
:1019700091E061E070E0409185020E94F00B8FEAF7
:1019800090E061E070E0409186020E94F00B87E0F9
:1019900061E00E944A0508950E946E0662E370E0CD
:1019A00080E090E00E947A1D0E944B06000008959E
:1019B000CF92DF92EF92FF920F931F93CF93DF931B
:1019C000982FEB01D42EC22EA89589E7692F0E948B
:1019D0004A05CC2021F08DE160E40E944A050E9476
:1019E000CC0C0E94461D7B018C01CE01A0E0B0E032
:1019F000E80EF91E0A1F1B1F83E08093440307C0F3
:101A00000E94461DE616F7060807190720F0809188
:101A100044038330A9F380914403843009F07AC0F1
:101A20008FE70E942F05C8E0D3E00E9476058993D6
:101A300083E0C831D807C9F70E944B068091EE03B6
:101A4000882329F0CE0140970E94D8043EC0FE01B1
:101A50003E9790E05CE88081982740E0892F90E0F5
:101A60009C013595279580FF03C0952F922701C0D3
:101A7000922F4F5F483091F7319683E0E731F807B6
:101A800051F7992321F48091780281701CC03E9710
:101A900090E05CE88081982740E0892F90E09C01ED
:101AA0003595279580FF03C0952F922701C0922F6F
:101AB0004F5F483091F7319683E0E831F80751F7EE
:101AC000992341F582E08093780281E08093EE03D0
:101AD000DD2021F080910803D816E1F4CC20C1F07C
:101AE0008BE20E9484052091F0033091F103482F8E
:101AF00050E0813810F020503140240F351F3093D2
:101B0000F1032093F0038091EF038F5F8093EF0345
:101B100081E001C080E0DF91CF911F910F91FF9094
:101B2000EF90DF90CF9008951F93809175028823E6
:101B300009F054C08BE894E00E946F201816190633
:101B40000CF04CC08BE894E00E94A0208D309105F1
:101B500091F4809188028093750280933F020E94E5
:101B60003F088BE894E060E071E00E9430230E941F
:101B70008A0581E034C08E33910531F08E329105B3
:101B800019F08E3E910521F4809188028F5F0CC080
:101B90008C33910531F08C32910519F0813A910521
:101BA000E9F48091880281508093880280918802B4
:101BB000882319F48FEF809388021091880289E0BE
:101BC000612F0E944A058BE894E0612F4AE050E0C3
:101BD0000E949D228091880280933F0280E01F91A5
:101BE00008958BE894E00E946F201816190614F0EF
:101BF00020E00CC08BE894E00E94A0208D36910577
:101C000021F020E08D34910509F421E0822F089520
:101C1000FF920F931F938091290390912A03A09123
:101C20002B03B0912C0320919403309195034091A4
:101C3000960350919703821B930BA40BB50B44970B
:101C4000A105B10508F446C08BE894E00E946F201E
:101C5000082F10E0FF24F3943BC08BE894E00E942F
:101C6000A020982F80919103882359F4963179F51B
:101C700090938103F0929103109293031092890242
:101C800026C0E82FF0E0EF57FC4F90838F5F8093E2
:101C900091038031E0F01092910381E893E00E947B
:101CA000D8048823A1F48091290390912A03A0915C
:101CB0002B03B0912C038093940390939503A093EE
:101CC0009603B093970381E08093930303C01F5F53
:101CD00010171CF21F910F91FF9008951F93182F5A
:101CE00006C08BE894E060E20E94D92011501123D5
:101CF000C1F71F9108951F93182F8A3020F482E0B6
:101D00000E946E0E07C0843628F48BE894E060E2EF
:101D10000E94D9208BE894E0612F4AE050E00E94B5
:101D20008B228BE894E060E20E94D9201F910895F5
:101D3000CF93DF938BE894E067E071E00E942D235E
:101D4000C8E5D0E012C085EF93E0BE014FEF0E94DE
:101D5000751CCE018F779070892B29F48BE894E065
:101D60006EE20E94D920A895219680916F029091F1
:101D70007002C817D90738F388E590E09093720293
:101D8000809371021092CC0385EF93E06CE070E0D9
:101D900048E50E94751C4091720285EF93E06DE06A
:101DA00070E00E94751C85EF93E06EE070E040915A
:101DB000CC030E94751C0E94FD098BE894E063E24D
:101DC00071E00E943023DF91CF9108951F93CF934C
:101DD000DF93EC01162FFE0121966491662329F012
:101DE0008BE894E00E94D920F6CF112321F08BE8F4
:101DF00094E00E94AE21DF91CF911F9108958AE96E
:101E000091E061E00E94E60E8DEA91E060E00E94C0
:101E1000E60E8BE894E0609109024AE050E00E94EF
:101E20009D2208959F92AF92BF92CF92DF92EF9240
:101E3000FF920F931F93CF93DF93833719F020E026
:101E4000833509F421E0A22E8C3619F090E08C3411
:101E500009F491E0B92E843619F09924843411F4F0
:101E600099249394222331F4992311F4AA24A3945E
:101E7000BB24B3948BE894E069E271E00E942D23C7
:101E80008BE894E068E570E04AE050E00E94FB22B5
:101E90008BE894E06AE371E00E942D2360916F0269
:101EA000709170028BE894E04AE050E00E945D225D
:101EB0008BE894E06CE371E00E942D236091710245
:101EC000709172028BE894E04AE050E00E946E222A
:101ED0008BE894E064E471E00E942D23AA2029F0AD
:101EE00081EC91E060E00E94E60EBB2031F081EFD2
:101EF00091E061E00E94E60E04C08BE894E00E944D
:101F0000AE21C0917102D0917202CC24FF248E01C7
:101F10000F5F1F4F85EF93E0BE010E946E1CD82E0D
:101F200084E68D1520F4992011F46A9675C0DF10AF
:101F3000CC248D2D0E947B0EC3948C2D0E947B0E91
:101F4000AA2069F178010894E11CF11C85EF93E067
:101F5000B8010E946E1C182F8F770E947B0E8BE8B1
:101F600094E060E20E94D920812F881F8827881F73
:101F70000E947B0E85E00E946E0EB7012A968B01AF
:101F80000F5F1F4F85EF93E00E946E1C0E947B0E37
:101F9000B8010C171D0799F7E701289602C0E80160
:101FA0002996BB2091F183E00E946E0EAA2029F0B1
:101FB0008BE894E060E20E94D920BE018E01085FA8
:101FC0001F4F7B010894E11CF11C85EF93E00E94F8
:101FD0006E1C0E947B0EE016F10611F0B701F1CFE6
:101FE00084E00E946E0EB80160968B010F5F1F4F58
:101FF00085EF93E00E946E1C0E947B0EB8010C17C7
:102000001D0799F7E701289601C060968BE894E0D8
:102010000E94AE21A895FD2C80916F0290917002D4
:10202000C817D90710F0C8E5D0E0809171029091EF
:102030007202C817D90709F06ACFDF91CF911F91BB
:102040000F91FF90EF90DF90CF90BF90AF909F9057
:102050000895FF920F931F93CF93DF938EE491E047
:1020600061E00E94E60EFF2401E010E0CF2DD0E0F9
:10207000FE01EA56FD4F808190E08017910729F517
:102080008BE894E0B8014AE050E00E94FB228BE824
:1020900094E06DE30E94D920C8010E940209682FD4
:1020A0008BE894E04AE050E00E948B228BE894E0B9
:1020B00069E00E94D920CC0FDD1FC355DD4F888118
:1020C000998161E00E94E60EF3940F5F1F4F0B327F
:1020D000110561F6DF91CF911F910F91FF90089547
:1020E000AF92BF92CF92DF92EF92FF920F931F9326
:1020F000CF93DF935C0101960E9453029C010197EC
:102100008E3F910510F010E01EC0122F82E090E08B
:10211000F501E80FF91FE081EE23A9F00196ED32F9
:1021200079F48A0D9B1D0E9453029C01812F90E03F
:102130008217930740F42F3F310528F4C22E05C0C3
:102140008A30910529F78EEFC82E0E948A050E94D9
:10215000CC0C479886ED90E061E00E94E60EE12EFF
:10216000AEC089E76E2D0E944A058DEE92E00E9476
:10217000D31D0FEFFF24C0E0D0E010E083E690E035
:102180000E94D31D86E20E948405C80FD11D8017CE
:1021900008F4082FF81608F4F82E1F5F173C71F7A3
:1021A00089E08E1538F08BE894E06DE471E00E94D0
:1021B0002D2308C0E3E6EE1528F08BE894E060E2FA
:1021C0000E94D9208BE894E06E2D4AE050E00E94F6
:1021D0008B22EAE7F2E06AE380818E1509F463E27C
:1021E000319682E0E238F807B9F78BE894E00E9474
:1021F000D9208BE894E060E20E94D920802F0E94D1
:102200007B0ECE0167EC70E00E94A324162F862F70
:102210000E947B0E8F2D0E947B0EF50180818E34F3
:1022200009F047C00A3010F4DD2408C0083418F063
:102230000DE3D02E03C0B6EFDB2ED00EF9E0FF1574
:1022400010F000E007C087E48F1510F40DE302C022
:102250000F2D0A501A3010F4FF2408C0183418F05B
:10226000ADE3FA2E03C0F6EFFF2EF10E10E01F15BE
:1022700021F48BE894E06AE217C01D1521F48BE885
:1022800094E06CE311C0101721F48BE894E06EE346
:102290000BC0D11630F4101720F48BE894E06EE2F6
:1022A00003C08BE894E060E20E94D9201F5F011711
:1022B000F0F68BE894E00E94AE21A895E394CE144A
:1022C00008F04FCFDF91CF911F910F91FF90EF90CA
:1022D000DF90CF90BF90AF900895EF92FF920F9351
:1022E0001F93CF93DF937C01FC01108200E010E08C
:1022F0008BE894E00E946F2018161906CCF58BE845
:1023000094E00E948020469739F481E7F7018083AA
:1023100011821092890234C08BE894E00E94A020C0
:10232000EC011816190654F58BE894E06C2F0E9406
:10233000D920CD30D10519F0CA30D10529F48BE868
:1023400094E00E94AE211CC0C830D10531F40115C3
:10235000110571F201501040CBCFF701E00FF11FD2
:10236000C08311820A3011054CF40F5F1F4F06C065
:1023700061E070E080E090E00E947A1DA895B8CFFF
:10238000DF91CF911F910F91FF90EF9008950F93E0
:102390001F93CF93DF93873008F5182F110FC12FAC
:1023A000D0E0FE01EE0FFF1FE552FD4F0081802FB0
:1023B00060E00E94781E802F61E00E94B71E1830F6
:1023C00079F482E090E00E94D31D802F0E940B1FC1
:1023D000892BE9F0802F61E00E94781E80E018C010
:1023E000CC0FDD1FC352DD4F1881812F61E00E94A9
:1023F000B71E82E090E00E94D31D802F0E940B1F29
:10240000019741F7812F60E00E94B71EDACF81E08B
:10241000DF91CF911F910F9108952F923F924F928C
:102420005F926F927F928F929F92AF92BF92CF9264
:10243000DF92EF92FF920F931F93DF93CF93CDB76D
:10244000DEB762970FB6F894DEBF0FBECDBF80E057
:1024500091E00E948121988B8F8785E00E94C711AF
:102460001B86882311F481E08B877894AF85B88927
:10247000A150BF4FBA8BA98B1092EE031092EF03BD
:102480001092F1031092F003809175028A5A8D33F5
:1024900018F087EC809375020E948A050E94CC0C8C
:1024A00047988DE160E00E944A050E944B06BB857B
:1024B000BB2331F08BE894E060E571E00E942D23AE
:1024C000EF85F889FA87E987119289899A89E8174F
:1024D000F907D1F70E94461D5B016C018FE19EE474
:1024E000A0E0B0E0A80EB91ECA1EDB1E66241C8642
:1024F000A8950F851889FF249924EE24D8018C9182
:102500008A3FA8F489E76F2D0E944A0589E892E086
:102510000E94D31D86E20E948405982FF8018081D5
:10252000891708F49083E91610F49F2CE92EF39490
:102530000F5F1F4FFFEFFF1609F788B188B96620BC
:1025400009F58B858823D1F08BE894E064E671E08F
:102550000E942D238BE894E0692D4AE050E00E9410
:102560008B228BE894E06FE671E00E942D238BE8CC
:1025700094E06E2D4AE050E00E949D2295E99E1560
:1025800028F07ACFA5E9AE1508F0B2CF892D63E027
:1025900071E04C8520E00E94D80C8823E1F0B091D6
:1025A0000803BC87EB85EE2361F08BE894E0692D8E
:1025B0004AE050E00E948B228BE894E060E20E94A7
:1025C000D920E1E0F0E0EC0FFD1FE60DF11D908257
:1025D000639488B188B9EF85F889E90DF11D8FEF13
:1025E0008083662009F448CF0E94461DA616B706D0
:1025F000C806D90660F4862D8150823060F094E0E0
:10260000691649F0A8E06A1609F036CF04C0B7E0B1
:10261000B61508F06DCF0E94461D4B015C018AE0A3
:102620009AE1A0E0B0E0880E991EAA1EBB1E798038
:102630009B85992331F08BE894E062E771E00E947A
:102640002D2372E0C72ED12CCC0EDD1E16014F8437
:102650005888A1E0AE871D8660C00E94461D861680
:102660009706A806B90608F407CF872D63E071E046
:102670004C8521E00E94D80C882379F30E94461DE6
:102680007B018C01F101808167E572E04C8521E0DE
:102690000E94D80C8823C1F10E94461D28EF3FEF0D
:1026A0004FEF5FEF2E193F09400B510B260F371FDD
:1026B000481F591F65E056954795379527956A95A8
:1026C000D1F7622F283008F06850EF85F88990E044
:1026D0008191861709F4ACCF9F5F8E859817C0F360
:1026E000D20111966C93BB85BB2359F08BE894E023
:1026F0004AE050E00E948B228BE894E060E20E9466
:10270000D920ED85EF5FED87FE85FF5FFE8708949A
:10271000211C311C0894411C511C8E85861508F41F
:102720009CCF9B85992321F08BE894E00E94AE21F9
:1027300070927A02A1E06A1641F4EBE7F2E071923E
:10274000B2E0E238FB07D9F750C0E2E06E1691F430
:102750008A8170927A0280937B0270927C028093CD
:102760007D0270927E0280937F027092800280933D
:1027700081023BC0F4E06F16E9F49E012B5F3F4FEE
:10278000A985BA851196EC91EF5FE43038F4F0E05A
:10279000D6018C91E658FD4F80838483E985FA85C4
:1027A0003196FA87E9870894C11CD11CC216D3065A
:1027B00039F71BC0FD85F73008F45ECE9E01275F18
:1027C0003F4FA985BA851196EC91EF5FF0E0E6588E
:1027D000FD4FD6018D916D018083E985FA85319693
:1027E000FA87E987A217B30761F76091EF03809139
:1027F000F0039091F10370E00E94B7247093F1030D
:102800006093F003FC85F0937402CB0182968534CB
:10281000910528F480917502861B809375028B8543
:102820008823D9F18BE894E06CE771E00E942D23B6
:102830008BE894E06C854AE050E00E948B228BE8A4
:1028400094E062E871E00E942D238BE894E06091AF
:1028500075024AE050E00E948B228BE894E06AE81F
:1028600071E00E942D230AE712E08BE894E0D80182
:102870006D918D014AE050E00E948B228BE894E03C
:1028800060E20E94D920B2E002381B0771F78BE8A2
:1028900094E066E971E00E94302310927902109270
:1028A000760280917702823010F0109277028F8545
:1028B00098890E947E210E943F08469A62960FB630
:1028C000F894DEBF0FBECDBFCF91DF911F910F9166
:1028D000FF90EF90DF90CF90BF90AF909F908F9040
:1028E0007F906F905F904F903F902F900895CF9280
:1028F000DF92EF92FF920F931F93DF93CF93CDB7A9
:10290000DEB72C970FB6F894DEBF0FBECDBF87EEB3
:1029100090E061E00E94E60E8E010F5F1F4FC8013C
:102920000E946D118981813709F486C0813509F4CF
:1029300083C068010E94291081E091E061E00E945B
:10294000E60EC6010E946D1189818E3611F08E341B
:1029500021F4C6010E947010F4CF833711F0833543
:1029600049F48A81853619F40E94980EEACF0E94B4
:10297000120FE7CF8237F9F48A818536E1F48B8133
:102980008236C9F48C818936B1F48D818E3699F402
:102990008E81843681F487E791E060E00E94E60E44
:1029A000C6010E946D118981893711F0893519F4AA
:1029B0000E940D1241C089818137F1F18135E1F129
:1029C000C6010E9453027C018BE2E816F10408F074
:1029D000B1CFC6010E946D118981813769F18135BE
:1029E00059F1C6010E9453028C018F3F910511F0ED
:1029F00008F0A0CFE114F10419F4009709F49ACF7C
:102A00008BE894E0B7014AE050E00E94FB228BE89B
:102A100094E06DE30E94D9208BE894E0B8014AE08D
:102A200050E00E940E23C701602F0E9419080E94E7
:102A30002A090E943F087ECF2C960FB6F894DEBF7D
:102A40000FBECDBFCF91DF911F910F91FF90EF90FF
:102A5000DF90CF9008951F93CF93DF93EC0110E0A8
:102A600011C0A8956DE770E080E090E00E947A1DAB
:102A7000CB30D10568F00E94F10D882349F00E9407
:102A8000771410C0812F90E08C179D0750F30AC077
:102A9000469A6DE770E080E090E00E947A1D4698CB
:102AA0001F5FF0CFDF91CF911F910895EF92FF92BA
:102AB0000F931F930E94C009182F8F3F69F48091D4
:102AC0009203882329F48AE890E061E00E94E60EF0
:102AD0008FE295E70E942B1582E00E94C7118823A0
:102AE00091F084E090E00E942B150E943F088091B5
:102AF0009203882329F48AEB90E061E00E94E60EBD
:102B000084E090E079C00E942A09882309F076C009
:102B100080919203882329F485EA90E061E00E9485
:102B2000E60E113009F066C00E94461D7B018C0143
:102B30008FE097E2A0E0B0E0E80EF91E0A1F1B1F2D
:102B40000BC081E090E00E942B150E94F10D8823BC
:102B500019F00E94771452C00E94461D6E157F0521
:102B60008007910770F388E48093740287EC809368
:102B7000750291E090937702109279021092780298
:102B8000109276028BE480938D0282ED80938E0208
:102B900084E68093820284E08093830282E08093C3
:102BA000840290938502109286028EE180938702C0
:102BB00087E080938A0290938B0210928C028DE4BE
:102BC00080937A0283E980937B0289E580937C027B
:102BD00087EA80937D028DE680937E028DEB809361
:102BE0007F028FE78093800281ED809381020E94B3
:102BF0003F0804C088E790E00E942B151F910F91B9
:102C0000FF90EF9008951F93482FF62FE0918A02CE
:102C1000EE2321F4882351F41FE724C0882341F4D4
:102C2000683031F41092F3031092F20310E01AC0EE
:102C30002091F2033091F303C9016E2F70E00E94DE
:102C4000A324261B370BF49FC0011124280F391F22
:102C50003093F3032093F203C9016E2F70E00E94BA
:102C6000A324162F83E0612F70E00E94181E10939A
:102C70002403109225031F9108952F923F924F92A3
:102C80005F926F927F928F929F92AF92BF92CF92FC
:102C9000DF92EF92FF920F931F93CF93DF9380E029
:102CA0000E94C71180932603882321F08AE0809335
:102CB0003D021DC086E00E94C7118823C1F082E05A
:102CC0008093260384E080933D0280E69DE6909306
:102CD0000C0280930B0290938700809386001092E1
:102CE0005B02809140028460809340022A9884E0D5
:102CF0000E94C7118093920381E090E00E942B15FF
:102D000085E00E94C711882311F00E940D128BE804
:102D100094E040E056E960E070E00E94E81F809196
:102D20009203882331F40E94FF0E81E090E00E941C
:102D30002B150E9456158091750280933F020E94C8
:102D4000FD090E943A030E94BC080E948A05109265
:102D500028032EE088E190E00FB6F894A8958093C0
:102D600060000FBE2093600080919203882309F0D9
:102D700073C08BE894E06BE971E00E942D238BE82F
:102D800094E0609173024AE050E00E949D220E940C
:102D900029108BE894E060EA71E00E942D2384E022
:102DA0000E948405682F70E0617070708BE894E079
:102DB0004AE050E00E940E238BE894E065EA71E05F
:102DC0000E94302380E00E948405682F8BE894E005
:102DD0004AE050E00E949D2281E00E948405682F15
:102DE0008BE894E04AE050E00E949D2282E00E943D
:102DF0008405682F8BE894E04AE050E00E949D2211
:102E00008BE894E06BEA71E00E942D2381E10E943F
:102E10008405682F70E0605470408BE894E04AE0CD
:102E200050E00E940E2388E690E061E00E94E60EEA
:102E300080912603813031F48BE894E06EEA71E0F2
:102E40000E94302380912603823031F48BE894E095
:102E500066EB71E00E943023442481E080933E02BF
:102E60000E944B060E94CC0C789483E0809344032C
:102E70000E94461D6093290370932A0380932B03BD
:102E800090932C0360932D0370932E0380932F0354
:102E90009093300360933103709332038093330334
:102EA0009093340360933503709336038093370314
:102EB000909338035524AA24BB243324339403E08D
:102EC000202EA8958CE00E948405882371F40E942E
:102ED0008A050E94CC0C80919203882331F48BE800
:102EE00094E06FEB71E00E943023809144038430C2
:102EF00009F0EBC1469888B188B98FE70E942F0589
:102F0000C8E0D3E00E947605899323E0C831D20758
:102F1000C9F70E944B06109127030E945505809126
:102F2000990390919A03A0919B03B0919C03809385
:102F3000350390933603A0933703B0933803209260
:102F400044036097CE010E94D804882351F08091F9
:102F50009203882309F0B4C18BE894E066EC71E039
:102F60000FC09091080380917402981761F08091CE
:102F70009203882309F0A4C18BE894E06BEC71E024
:102F80000E9430239DC1CE010E947203882389F0E4
:102F9000442081F480919203882331F48BE894E0FB
:102FA00061ED71E00E9430230E94F60744244394AF
:102FB00001C0442460911E0370911F0361157105C7
:102FC00051F080911C0390911D030E94A3247093E3
:102FD0001D0360931C0380911C0390911D0390932B
:102FE0001F0380931E0360912203709123036115D8
:102FF000710569F080912003909121030E94A32420
:1030000060932003709321036093980306C080911E
:103010009803809320031092210320912003309184
:10302000210380911C0390911D038217930728F4BC
:1030300010921D0310921C0306C0821B930B9093E9
:103040001D0380931C0380918B02882329F08091BB
:103050001C0390911D0304C080911E0390911F03D7
:1030600090932503809324038091240361E00E94C0
:1030700003168BE20E948405C82FD0E08091920352
:10308000882309F04DC08BE894E066ED71E00E9462
:103090002D2360911E0370911F038BE894E04AE09A
:1030A00050E00E945D228BE894E069ED71E00E949F
:1030B0002D2360915503709156038BE894E04AE00C
:1030C00050E00E945D228BE894E06DED71E00E947B
:1030D0002D23612F70E06F5F7F4F8BE894E04AE013
:1030E00050E00E94FB228BE894E061EE71E00E94C8
:1030F0002D238BE894E0BE014AE050E00E94FB22C1
:103100008BE894E065EE71E00E942D23609120032E
:10311000709121038BE894E04AE050E00E946E2217
:10312000E12FF0E0EE0FFF1FDF01AF59BC4F8D9193
:103130009C91119720911E0330911F03820F931FC2
:103140008D939C93DF01AF58BC4F8D919C9111974B
:103150002091200330912103820F931F8D939C9324
:10316000EB5BFC4F8081918101969183808310926B
:103170001D0310921C0310921F0310921E03109245
:1031800021031092200310922303109222034091F6
:103190007502442309F453C0C038D10514F0C0505F
:1031A000D140CE014996C39718F020E030E006C028
:1031B0009E01E4E0220F331FEA95E1F75394C50125
:1031C00060E170E00E94B724A61AB70AC90160E165
:1031D00070E00E94B724A60EB71EC501B7FE04C05A
:1031E000882799278A199B098134910554F180E237
:1031F000851538F5C50160E170E00E94B724EB0148
:10320000D095C195DF4F642F6C0F6093750289E0F4
:103210000E944A0580919203882369F48BE894E028
:103220006AEE71E00E942D238BE894E0BE014AE033
:1032300050E00E940E235524AA24BB2402C03092E1
:10324000430310924203109241030E94461D609373
:10325000290370932A0380932B0390932C0360938C
:10326000310370933203809333039093340360935C
:10327000390370933A0380933B0390933C0360932C
:103280003D0370933E0380933F039093400310925D
:103290003E0210921B0310921A03109243030E94E5
:1032A000720780919203882359F026E12093080346
:1032B0008BE894E068E073E040E150E00E948421F4
:1032C00088B188B90E946E0BFCCD0E94461D7B011F
:1032D0008C016093290370932A0380932B039093AE
:1032E0002C036090350370903603809037039090E4
:1032F00038030E946E0B0E94940D882309F0ADCD17
:1033000080918902882311F18091290390912A03E9
:10331000A0912B03B0912C0320912D0330912E030B
:1033200040912F0350913003821B930BA40BB50BDC
:103330008F509742A040B04048F40E94F10D88237E
:1033400039F00E9477140E948A0587CD0E94080EEA
:1033500080919303882309F44FC080913D0390919D
:103360003E03A0913F03B09140038196A11DB11D82
:1033700020919403309195034091960350919703C7
:1033800082179307A407B507B8F581E893E00E9478
:1033900072030E94720710929303109242031092DC
:1033A00041038091290390912A03A0912B03B091AE
:1033B0002C038093310390933203A0933303B09393
:1033C00034038093390390933A03A0933B03B09363
:1033D0003C0380919203882339F48BE894E061EFF9
:1033E00071E00E94302308C08BE894E061E873E04C
:1033F00040E150E00E9484218091290390912A03AA
:10340000A0912B03B0912C03209131033091320312
:103410004091330350913403821B930BA40BB50BE3
:1034200088559240A040B04090F18091420388239B
:1034300071F580912803882351F1809192038823AC
:1034400031F48BE894E066EF71E00E943023309213
:1034500042038091290390912A03A0912B03B091FC
:103460002C038093390390933A03A0933B03B093CA
:103470003C030E94BC080E947207469880E068E006
:103480000E940316809158038F5F809358038091A8
:10349000290390912A03A0912B03B0912C03209132
:1034A0003D0330913E0340913F0350914003821B06
:1034B000930BA40BB50B885B9B40A040B04010F071
:1034C00030923E0267017801C618D708E808F9086B
:1034D000D701C6010197A109B1090497A105B1055A
:1034E000D0F483E690E00E94D31D00912003109158
:1034F000210386E20E948405080F111D1093210309
:1035000000932003809122039091230301969093CE
:1035100023038093220380913E02882319F02FEF2A
:1035200030E02EC0D701C6010B97A109B1090A9757
:10353000A105B105D8F483E690E00E94D31D009167
:103540001C0310911D0386E20E948405080F111DC3
:1035500010931D0300931C0380911E0390911F0381
:10356000019690931F0380931E0308C089E1C8163B
:10357000D104E104F10414F40E94CA0A23E230E009
:10358000C901AA2797FDA095BA2FC816D906EA0641
:10359000FB060CF4C6C080913E02882319F5809189
:1035A0004203882309F4469A80912703209135032A
:1035B00030913603409137035091380380FF05C0A6
:1035C000205E3F4F4F4F5F4F04C0215E3F4F4F4F34
:1035D0005F4F209335033093360340933703509366
:1035E000380310C08091290390912A03A0912B03E6
:1035F000B0912C038093350390933603A093370347
:10360000B0933803109127030E945505C12FD0E0D5
:10361000FE01E95AFC4F82818F5F8283309243031F
:1036200060913E0227E0629FB00111246F5F80E04D
:103630000E94031680919203882309F062C08BE8F0
:1036400094E06CEF71E00E942D2360911A03709159
:103650001B036F5F7F4F70931B0360931A038BE80C
:1036600094E04AE050E00E945D2260912203709154
:1036700023036115710569F0809120039091210366
:103680000E94A32460932003709321036093980306
:1036900006C08091980380932003109221038BE849
:1036A00094E069ED71E00E942D23609155037091C3
:1036B00056038BE894E04AE050E00E945D228BE8DC
:1036C00094E06DED71E00E942D2321968BE894E04B
:1036D000BE014AE050E00E94FB228BE894E065EED8
:1036E00071E00E942D2360912003709121038BE8EB
:1036F00094E04AE050E00E945D228BE894E00E9452
:10370000AE2110921D0310921C0310921F03109201
:103710001E03109221031092200310922303109293
:10372000220380914203882309F4CBCB0E94CA0A6A
:10373000E0902903F0902A0300912B0310912C03B1
:103740008091390390913A03A0913B03B0913C03DF
:10375000E81AF90A0A0B1B0B60918702809141035A
:10376000882349F088E8E81683E1F80680E0080736
:1037700080E018077CF470E080E090E028EE33E011
:1037800040E050E00E9478246E157F058007910785
:103790000CF097CB30924103809187028F3F61F00C
:1037A00080919203882331F48BE894E060E072E02A
:1037B0000E9430230E94490C80919203882331F4A7
:1037C0008BE894E064E072E00E9430230E948A0556
:1037D0000E944B068091290390912A03A0912B030C
:1037E000B0912C038093390390933A03A0933B0349
:1037F000B0933C0366CB84E161E00E94781E85E1D2
:1038000061E00E94781E8CE060E00E94781E8BE0F0
:1038100061E00E94781E8DE061E00E94781E82E0E7
:1038200060E00E94781E8EE061E00E94781E80E0D9
:1038300060E00E94781E81E061E00E94781E80E0D6
:1038400061E00E94B71E83E061E00E94781E8AE07A
:1038500061E00E94781E89E061E00E94781E88E0A5
:1038600061E00E94781E87E061E00E94781E86E099
:1038700061E00E94781E85E061E00E94781E84E08D
:1038800061E00E94781E83E161E00E94781E82E17F
:1038900061E00E94781E81E161E00E94781EE1E80B
:1038A000F0E01082109285001092840080910B024B
:1038B00090910C02909387008093860082E0809321
:1038C00080008AE1808381E080936F0080E064E97A
:1038D0007AE042E050E00E94811C0895F999FECF01
:1038E00072BD61BDF89A80B50895F999FECF1FBAEF
:1038F00072BD61BD40BD0FB6F894FA9AF99A0FBE39
:103900000895823000F5E82FF0E0EE0FFF1FEA5037
:10391000FC4F71836083882319F08130A1F408C0C3
:10392000809169008C7F842B80936900E89A0895C8
:1039300080916900440F551F440F551F837F842BCE
:1039400080936900E99A08951F920F920FB60F9223
:1039500011242F933F934F935F936F937F938F9394
:103960009F93AF93BF93EF93FF938091F603909152
:10397000F703892B29F0E091F603F091F7030995FD
:10398000FF91EF91BF91AF919F918F917F916F9137
:103990005F914F913F912F910F900FBE0F901F900D
:1039A00018951F920F920FB60F9211242F933F93E9
:1039B0004F935F936F937F938F939F93AF93BF9337
:1039C000EF93FF938091F8039091F903892B29F0ED
:1039D000E091F803F091F9030995FF91EF91BF9100
:1039E000AF919F918F917F916F915F914F913F9197
:1039F0002F910F900FBE0F901F9018951F920F924E
:103A00000FB60F9211242F933F938F939F93AF93F1
:103A1000BF938091FE039091FF03A0910004B091A9
:103A20000104309102040196A11DB11D232F2D5FC9
:103A30002D3720F02D570196A11DB11D20930204B2
:103A40008093FE039093FF03A0930004B0930104BE
:103A50008091FA039091FB03A091FC03B091FD03C8
:103A60000196A11DB11D8093FA039093FB03A093CF
:103A7000FC03B093FD03BF91AF919F918F913F9154
:103A80002F910F900FBE0F901F9018958FB7F8943D
:103A90002091FE033091FF034091000450910104F6
:103AA0008FBFB901CA0108959FB7F8942091FA0316
:103AB0003091FB034091FC035091FD0386B5A89B18
:103AC00006C08F3F21F02F5F3F4F4F4F5F4F9FBF8B
:103AD000542F432F322F2227280F311D411D511DF6
:103AE00082E0220F331F441F551F8A95D1F7B90179
:103AF000CA0108959B01AC017FB7F8948091FA0345
:103B00009091FB03A091FC03B091FD0366B5A89BC7
:103B100005C06F3F19F00196A11DB11D7FBFBA2FDF
:103B2000A92F982F8827860F911DA11DB11D62E036
:103B3000880F991FAA1FBB1F6A95D1F7BC012DC022
:103B4000FFB7F8948091FA039091FB03A091FC03D6
:103B5000B091FD03E6B5A89B05C0EF3F19F00196B3
:103B6000A11DB11DFFBFBA2FA92F982F88278E0F37
:103B7000911DA11DB11DE2E0880F991FAA1FBB1F57
:103B8000EA95D1F7861B970B885E9340C8F22150C7
:103B900030404040504068517C4F2115310541056F
:103BA000510571F60895019739F0880F991F880F14
:103BB000991F02970197F1F70895789484B5826070
:103BC00084BD84B5816084BD85B5826085BD85B5C1
:103BD000816085BDEEE6F0E0808181608083E1E870
:103BE000F0E01082808182608083808181608083A8
:103BF000E0E8F0E0808181608083E1EBF0E08081AB
:103C000084608083E0EBF0E0808181608083EAE77C
:103C1000F0E0808184608083808182608083808105
:103C2000816080838081806880831092C1000895C4
:103C30001F93CF93DF93182FEB0161E00E94781E52
:103C4000209709F44AC0CF3FD10509F449C0E12FBC
:103C5000F0E0E55CFB4F84918330C1F0843028F4C0
:103C6000813051F08230B1F50CC0863019F18730C7
:103C700049F1843079F514C084B5806884BDC7BD2E
:103C800033C084B5806284BDC8BD2EC080918000E1
:103C9000806880938000D0938900C093880024C0FE
:103CA00080918000806280938000D0938B00C093CD
:103CB0008A001AC08091B00080688093B000C093E1
:103CC000B30012C08091B00080628093B000C093B6
:103CD000B4000AC0C038D1051CF4812F60E002C0D6
:103CE000812F61E00E94B71EDF91CF911F9108954F
:103CF000CF93DF93482F50E0CA01895D9B4FFC01B1
:103D000034914D5E5B4FFA018491882369F190E014
:103D1000880F991FFC01EB50FC4FA591B491FC0159
:103D2000E150FC4FC591D491662351F42FB7F8941C
:103D30008C91932F909589238C93888189230BC034
:103D4000623061F42FB7F8948C91932F909589236A
:103D50008C938881832B88832FBF06C09FB7F894EC
:103D60008C91832B8C939FBFDF91CF910895482F27
:103D700050E0CA01855C9B4FFC012491CA01895D1A
:103D80009B4FFC0194914D5E5B4FFA0134913323BC
:103D900009F440C0222351F1233071F0243028F47B
:103DA0002130A1F0223011F514C02630B1F02730B7
:103DB000C1F02430D9F404C0809180008F7703C013
:103DC000809180008F7D8093800010C084B58F77B4
:103DD00002C084B58F7D84BD09C08091B0008F770B
:103DE00003C08091B0008F7D8093B000E32FF0E09E
:103DF000EE0FFF1FE150FC4FA591B4912FB7F8943F
:103E0000662321F48C919095892302C08C91892B93
:103E10008C932FBF0895682F70E0CB01855C9B4F7A
:103E2000FC012491CB01895D9B4FFC0144916D5EA7
:103E30007B4FFB019491992319F420E030E03CC0C2
:103E4000222351F1233071F0243028F42130A1F0E5
:103E5000223011F514C02630B1F02730C1F02430E3
:103E6000D9F404C0809180008F7703C080918000D6
:103E70008F7D8093800010C084B58F7702C084B599
:103E80008F7D84BD09C08091B0008F7703C0809181
:103E9000B0008F7D8093B000892F90E0880F991F2C
:103EA000875F9B4FFC01A591B4918C9120E030E09D
:103EB000842311F021E030E0C901089508951F9294
:103EC0000F920FB60F9211242F933F934F938F931E
:103ED0009F93EF93FF938091C00082FD1DC040919E
:103EE000C60020914304309144042F5F3F4F2F734D
:103EF000307080914504909146042817390771F07D
:103F0000E0914304F0914404ED5FFB4F4083309314
:103F100044042093430402C08091C600FF91EF91B6
:103F20009F918F914F913F912F910F900FBE0F90C6
:103F30001F901895E0919704F0919804E05CFF4F72
:103F40008191919120813181821B930B8F739070AD
:103F5000892B11F00E945E1F08951F920F920FB6D9
:103F60000F9211242F933F938F939F93EF93FF937F
:103F700020918704309188048091890490918A046B
:103F80002817390731F48091C1008F7D8093C100DB
:103F900014C0E0918904F0918A04E95BFB4F208111
:103FA0008091890490918A0401968F739070909308
:103FB0008A04809389042093C600FF91EF919F911A
:103FC0008F913F912F910F900FBE0F901F901895DA
:103FD000AF92BF92DF92EF92FF920F931F93CF9316
:103FE000DF93EC017A018B01DD24403081EE58072C
:103FF00080E0680780E0780711F0DD24D39491E039
:10400000A92EB12CEC89FD89DD2069F0C50108A03D
:1040100002C0880F991F0A94E2F7808360E079E07C
:104020008DE390E005C0108260E874E88EE190E0D6
:10403000A80197010E94CA242150304040405040BE
:10404000569547953795279580E12030380720F021
:10405000DD2011F0DD24D6CFE889F9893083EA89A3
:10406000FB89208319A2EE89FF89408121E030E09D
:10407000C9010C8C02C0880F991F0A94E2F7482BE3
:104080004083EE89FF894081C9010D8C02C0880FF1
:10409000991F0A94E2F7482B4083EE89FF894081FB
:1040A000C9010E8C02C0880F991F0A94E2F7482BB1
:1040B0004083EE89FF8980810F8C02C0220F331F5D
:1040C0000A94E2F7209528232083DF91CF911F9156
:1040D0000F91FF90EF90DF90BF90AF900895DC01BB
:1040E0001C96ED91FC911D97E05CFF4F2191319161
:1040F00080819181281B390B2F733070C90108957D
:10410000DC011C96ED91FC911D97E05CFF4F208136
:104110003181E054F040DF01AE5BBF4F8D919C9147
:1041200011972817390719F42FEF3FEF07C08D912A
:104130009C91E80FF91F8081282F30E0C901089574
:10414000DC011C96ED91FC911D97E05CFF4F2081F6
:104150003181E054F040DF01AE5BBF4F8D919C9107
:1041600011972817390719F42FEF3FEF10C08D91E1
:104170009C911197E80FF91F20818D919C911197C7
:1041800001968F73907011969C938E9330E0C901C5
:104190000895DC0191968C919197882339F054967B
:1041A000ED91FC915597808186FFF9CF91961C92F5
:1041B0000895CF93DF93EC01EE85FF85E05CFF4F20
:1041C00020813181E054F0402F5F3F4F2F733070DA
:1041D000DF01AE5BBF4F8D919C9111972817390776
:1041E000D1F3E05CFF4F80819181E054F040E80F13
:1041F000F91F6083EE85FF85E05CFF4F31832083EC
:10420000EE89FF89208181E090E00F8C02C0880F49
:10421000991F0A94E2F7282B208381E089A3EC8977
:10422000FD8980818064808381E090E0DF91CF917F
:10423000089510928E0410928D0488EE93E0A0E011
:10424000B0E080938F0490939004A0939104B09376
:1042500092048BEF92E090938C0480938B0483E024
:1042600094E0909398048093970487E494E090936B
:104270009A048093990485EC90E090939C04809339
:104280009B0484EC90E090939E0480939D0480ECCA
:1042900090E09093A00480939F0481EC90E0909331
:1042A000A2048093A10482EC90E09093A4048093F4
:1042B000A30486EC90E09093A6048093A50484E088
:1042C0008093A70483E08093A80487E08093A904E7
:1042D00085E08093AA0481E08093AB040895CF9396
:1042E000DF930E94DD1D0E94FB1BCAE9DFE10E94F3
:1042F0003D162097E1F30E949A1FF9CF0E94E02318
:1043000008950E9443230895CF92DF92EF92FF9287
:104310000F931F93CF93DF937C016B018A01C0E061
:10432000D0E00FC0D6016D916D01D701ED91FC91E8
:104330000190F081E02DC7010995C80FD91F0150E8
:1043400010400115110571F7CE01DF91CF911F913A
:104350000F91FF90EF90DF90CF900895EF92FF9232
:104360000F931F938C01DC01ED91FC910190F08182
:10437000E02D6DE009957C01D801ED91FC91019053
:10438000F081E02DC8016AE009959C012E0D3F1DCA
:10439000C9011F910F91FF90EF900895CF93DF9384
:1043A000EC016115710519F420E030E00FC0DB016C
:1043B0000D900020E9F71197A61BB70BE881F98152
:1043C0000280F381E02DAD0109959C01C901DF91C7
:1043D000CF9108954F925F927F928F929F92AF926A
:1043E000BF92CF92DF92EF92FF920F931F93DF93D2
:1043F000CF93CDB7DEB7A1970FB6F894DEBF0FBE4F
:10440000CDBF2C01742ECB01223008F42AE019A272
:1044100031E2C32ED12CCC0EDD1E822E9924AA248B
:10442000BB24672D752FA50194010E94CA24790130
:104430008A01C801B701A50194010E947824472D83
:10444000461B0894C108D1084A3014F4405D01C0ED
:10445000495CF6014083E114F1040105110521F0E6
:104460007E2C5F2DC801DDCFC201B6010E94CE2196
:10447000A1960FB6F894DEBF0FBECDBFCF91DF91EE
:104480001F910F91FF90EF90DF90CF90BF90AF9072
:104490009F908F907F905F904F900895DC01211541
:1044A000310541F4ED91FC910190F081E02D642FF4
:1044B000099508950E94EA210895EF92FF920F93C3
:1044C0001F939A017B0100E010E0B801A7010E9450
:1044D0004E221F910F91FF90EF900895CF92DF929F
:1044E000EF92FF920F931F936C017B019A0100E002
:1044F00010E0B801A7010E944E228C01C6010E9463
:10450000AE21080F191FC8011F910F91FF90EF9066
:10451000DF90CF900895EF92FF920F931F939A012F
:10452000E62EFF2400E010E0B801A7010E944E2211
:104530001F910F91FF90EF900895CF92DF92EF922D
:10454000FF920F931F936C01E62E9A01FF2400E067
:1045500010E0B801A7010E944E228C01C6010E9402
:10456000AE21080F191FC8011F910F91FF90EF9006
:10457000DF90CF900895CF92DF92EF92FF920F934A
:104580001F93CF93DF93EC016A017B012115310565
:1045900041F4E881F9810190F081E02D642F0995C3
:1045A0001FC02A303105D1F477FF17C0E881F981A7
:1045B0000190F081E02D6DE209958C01442755278B
:1045C000BA014C195D096E097F09CE012AE00E94EB
:1045D000EA219801280F391F04C02AE00E94EA212D
:1045E0009C01C901DF91CF911F910F91FF90EF9036
:1045F000DF90CF900895EF92FF920F931F937B016E
:104600009A010027F7FC0095102FB801A7010E941E
:10461000BB221F910F91FF90EF900895CF92DF92F0
:10462000EF92FF920F931F936C017B019A01002779
:10463000F7FC0095102FB801A7010E94BB228C0146
:10464000C6010E94AE21080F191FC8011F910F91CA
:10465000FF90EF90DF90CF9008950E94CE210895B3
:10466000EF92FF920F931F937C010E94CE218C0149
:10467000C7010E94AE21080F191FC8011F910F9199
:10468000FF90EF9008950F931F93CF93DF93BC019A
:104690008230910510F462E070E0E091AF04F09197
:1046A000B00440E050E0A0E0B0E024C080819181FF
:1046B00086179707D0F08617970771F48281938148
:1046C000109729F013969C938E9312972CC0909379
:1046D000B0048093AF0427C04115510519F0841729
:1046E000950718F48D01AC01EF01DF018281938100
:1046F0009C01F9013097D1F641155105F9F0CA0135
:10470000861B970B8430910580F48A819B8101156B
:10471000110521F0F8019383828304C09093B004C3
:104720008093AF04FE01329645C0FE01E80FF91FE9
:10473000619371930297998388833CC08091AD0403
:104740009091AE04892B41F4809192029091930252
:104750009093AE048093AD044091940250919502E1
:104760004115510541F44DB75EB78091900290918B
:104770009102481B590B2091AD043091AE042417CF
:104780003507B0F4CA01821B930B8617970780F098
:10479000AB014E5F5F4F8417950750F0420F531FD8
:1047A0005093AE044093AD04F9016193719302C03C
:1047B000E0E0F0E0CF01DF91CF911F910F910895DC
:1047C000CF93DF939C01009709F48FC0EC012297EF
:1047D0001B821A826091AF047091B004611571055B
:1047E00081F488819981820F931F2091AD043091CB
:1047F000AE042817390739F5D093AE04C093AD0441
:1048000074C0DB0140E050E0AC17BD0708F1BB838A
:10481000AA83FE0121913191E20FF31FAE17BF076A
:1048200079F48D919C911197280F391F2E5F3F4F7E
:104830003983288312968D919C9113979B838A8349
:104840004115510571F4D093B004C093AF044DC02D
:1048500012968D919C911397AD01009711F0DC0198
:10486000D3CFDA011396DC93CE931297FA012191FC
:104870003191E20FF31FCE17DF0769F48881998128
:10488000280F391F2E5F3F4FFA01318320838A8121
:104890009B8193838283E0E0F0E0DB0112968D91AF
:1048A0009C911397009719F0BC01FD01F6CFAB0165
:1048B0004E5F5F4FDB018D919C91840F951F20917E
:1048C000AD043091AE042817390779F4309729F4F4
:1048D0001092B0041092AF0402C0138212824250B0
:1048E00050405093AE044093AD04DF91CF910895B2
:1048F000629FD001739FF001829FE00DF11D649FC4
:10490000E00DF11D929FF00D839FF00D749FF00D4F
:10491000659FF00D9927729FB00DE11DF91F639FF0
:10492000B00DE11DF91FBD01CF0111240895991BA0
:1049300079E004C0991F961708F0961B881F7A9596
:10494000C9F780950895AA1BBB1B51E107C0AA1F98
:10495000BB1FA617B70710F0A61BB70B881F991F20
:104960005A95A9F780959095BC01CD01089597FBC4
:10497000092E07260AD077FD04D0E5DF06D00020F7
:104980001AF4709561957F4F0895F6F7909581958B
:104990009F4F0895A1E21A2EAA1BBB1BFD010DC05B
:1049A000AA1FBB1FEE1FFF1FA217B307E407F507DF
:1049B00020F0A21BB30BE40BF50B661F771F881FBB
:1049C000991F1A9469F760957095809590959B0151
:1049D000AC01BD01CF01089597FB092E05260ED02D
:1049E00057FD04D0D7DF0AD0001C38F4509540950D
:1049F000309521953F4F4F4F5F4F0895F6F79095B3
:104A00008095709561957F4F8F4F9F4F0895EE0F62
:0E4A1000FF1F0590F491E02D0994F894FFCF5C
:104A1E0046697865642100537461746973746963BF
:104A2E007320696E20454550524F4D20657261735B
:104A3E0065200020646F6E65004C61737420737482
:104A4E00617469736963733A28002D002920666FBB
:104A5E00726D2000464E2020636E742000202000D0
:104A6E000D0A42696E642066696E64207374617209
:104A7E00743A2000204D61786C6576656C5B005D44
:104A8E003D000D0A54696D65733A200042696E64EB
:104A9E003D002046636F72723D002053657175654F
:104AAE006E63653A200020456E6400532F4E3D0024
:104ABE004952513D00535441525400543D00505000
:104ACE004D206F75740053425553206F7574004618
:104ADE00694572722100435243210042494E4421DE
:104AEE00004653205700523D0020533D0020433DC9
:104AFE000020413D0020526E3D0046636F72723DB4
:104B0E00002453415400746F2066730024524C00ED
:104B1E00534F5300496E6974000901409CB80BB89D
:104B2E000BB80BB80BB80BB80BB80BB80BB80BB85F
:104B3E000BB80BB80BB80BB80BB80BB80BB80BB84F
:104B4E000BB80BB80BB80BB80BB80BB80B0A01C7E8
:104B5E00F8C10F2500250025002B002B002B002B64
:104B6E0000280028002800280028000402018040A8
:104B7E0020102010080402040201804020102000A2
:104B8E000458006348CC000100004D9359A76DBD39
:104B9E007FD165040201001EC7010100004BD20443
:104BAE008000B10400000102030405060B0C0D0E7B
:104BBE000F101112131418191A1C28292A38023F23
:104BCE00024902660278029502AB02B202B902C035
:104BDE0002C702CE02D502DC02E302FA023B035305
:104BEE00035C0365038A03B203D2030A00090008BB
:104BFE00000700060005000400130012001100005B
:104C0E000001000900080000000000D92084216F77
:084C1E0020A0208020C9200025
:00000001FF
