:027C00000C94E2
:107C0200343E0C94003E0C94003E0C94003E0C94C6
:107C1200003E0C94003E0C94003E0C94003E0C94EA
:107C2200003E0C94003E0C94003E0C94003E0C94DA
:107C3200003E0C94003E0C94003E0C94003E0C94CA
:107C4200003E0C94003E0C94003E0C94003E0C94BA
:107C5200003E0C94003E0C94003E0C94003E0C94AA
:107C6200003E0C94003EF894EE27EFBBF1E0F5BF26
:107C7200F2E0F5BFF8E1A895A4B7A77FA4BFF093FF
:107C82006000E09360008DE0A2E0BB27ED938A954F
:107C9200E9F780E098E0A0E0B1E0ED930197E9F721
:107CA200E0E0EEBBEABDEBBDEFEFEDBFE8E0EEBF1B
:107CB200C0E0D3E00C94163FE0915700E0FDFCCF0A
:107CC20008950E945D3EE981FA81A881A093570040
:107CD200E89515C00E945D3EF981E8811B800A800B
:107CE200A1E0A0935700E89524960895FA81E981CE
:107CF200A881A0FDA0935700A591B491FD01239600
:107D020008950E945D3EB1E1B0935700E895089551
:107D12001A936AD01E2FF12FE0E0FF93EF9364D005
:107D2200AF91BF91F0E0EA0FFB1F2F01D201E7E014
:107D32000E94523F1F011991089522970E945B3FB2
:107D420050E040E000E010E00038E0E01E07C0F440
:107D52004BD0EE8349D0EF83AE81B0E0E0E0FF810B
:107D6200EA0FFB1F9F01EF81AE81EA0F4E0F3A939C
:107D72002A931A930A930E946B3E0E5F1F4FE4CF21
:107D820033D0E41711F0E0E02BC03A922A92E3E0FC
:107D9200EA930E94623E3A922A92E5E0EA930E94B6
:107DA200623EAFDF00E010E00038E0E01E0798F42A
:107DB200F801E20DF31DFA93EA93E0E0EA9396DF0D
:107DC2009F01F901F0E0AE2FE32FF0E0EA0F5E0F22
:107DD2000E5F1F4FE9CF541711F0E0E001C0E1E060
:107DE2000E94623F289608951A930A9300E010E0D9
:107DF200E091C000E07849F4A8950E5F1F4F015052
:107E020010400B3FEFEF1E0798F3E091C600099177
:107E120019910895E091C000E07211F4A895FACF8B
:107E2200E881E093C60021960895E1E0EBB9E0E134
:107E3200E093C400E8E1E093C100E6E8E093C20009
:107E4200D3DFEEE3EA93E6DFCFDFEC3319F5E3E5C8
:107E5200EA93E0DFEBE8EA93DDDFEEE6EA93DADFCE
:107E6200E3E6EA93D7DFE2E3EA93D4DFBDDFE1E2C0
:107E7200EA93D0DFA8954CDFEFEFFFEFE415F505AD
:107E820049F05BDFE03011F0E1E201C0E0E4EA93A7
:107E9200C1DFF0CFE1E0E5BFE0E0E5BF0C94000018
:107EA200FFCFEE230E2EFD0121F0EE0FFF1F0A94ED
:107EB200E1F708955A934A933A932A931A930A93AD
:107EC20008955D814C813B812A8119810881089541
:00000001FF
