:100000000C944F020C94061E0C94331E0C94770231
:100010000C9477020C9477020C9477020C9477027C
:100020000C9477020C9477020C9477020C9477026C
:100030000C9477020C949F020C9477020C94770234
:100040000C94601E0C9477020C94C1200C940F2128
:100050000C9477020C9477020C9477020C9477023C
:100060000C9477020C947702507265737320276D9D
:100070002720746F207374617274204D454E552093
:10008000696E2031302073656300464C415348202F
:100090004552524F522121212043616E277420770F
:1000A0006F726B21004572726F72207265616420FD
:1000B00073657474696E6773210053657474696E37
:1000C000677320726573657420746F206465666160
:1000D000756C7473210046486E3A204D696E20415C
:1000E0007672204D6178000A0D426179636869205B
:1000F000736F66742032303133005258204F706570
:100100006E20457870657274205632204600546F18
:1001100020456E746572204D454E552050726573B2
:100120007320454E544552005479706520526567DE
:1001300020616E6420707265737320454E54455281
:100140002C20747970652056616C756520616E6431
:1001500020707265737320454E5445522028713DBE
:10016000517569743B2073732F736C2F73722F73E7
:10017000613D53746174290052673D56616C2009DA
:10018000436F6D6D656E7473202D2D2D2D2D2D2DCE
:100190002D2D2D2D2D2D2D2D2D2D2D2D2D2D2D2D8F
:1001A000004578656375746520726562696E643FA9
:1001B0002041726520796F75207375726528792FDB
:1001C0006E293F0046536E20496E465320204472EC
:1001D0006F70733A312020203220202033202020DD
:1001E00034202020352020203620202037202020B9
:1001F00038202000525353493A3120202032202009
:10020000203320202034202020352020203620209C
:10021000203720202038204E6F6973653A31202026
:100220002032202020332020203420202035202080
:10023000203620202037202020380046536E2049C9
:100240006E4653204472253A31202032202033203C
:100250002034202035202036202037202038202030
:10026000532F4E3A312020203220202033202020CE
:100270003420202035202020362020203720202028
:10028000380042696E64204E004672657120436FEB
:10029000727200536572766F203135302520737489
:1002A00072656368206E756D2028312D313229000A
:1002B0005374617469737469637320656E61626CF1
:1002C000650031316269742F313063682028313D17
:1002D0007965732C20322F333D4675746162612934
:1002E000004469736372657465206F75747075740A
:1002F00073206D61736B00486F7020463100486F4A
:100300007020463200486F7020463300486F7020DE
:10031000463400486F7020463500486F70204636DE
:1003200000486F7020463700486F70204638004202
:100330006561636F6E204620283235353D646973F0
:1003400061626C652900426561636F6E20506D616A
:100350007820286D5774293A20302D312E323B20D9
:10036000312D323B20322D333B20332D363B203490
:100370002D31323B20352D32353B20362D35303B6B
:1003800020372D31303000426561636F6E20737409
:100390006172742074696D65202873656329005348
:1003A000415720466D696E0053415720466D617874
:1003B0000050504D2F53425553206D6F64652031CE
:1003C00073742050574D2063686E6C2028312D388F
:1003D00029205B345D005253534920747970653A8B
:1003E00020736F756E642830292F6C6576656C28D4
:1003F000312D39393D617665726167652900525347
:100400005349206D6F64653A206C6576656C2830C1
:10041000292F534E20726174696F2831290052537D
:100420005349206F7665722050574D286368616E7E
:100430003A312D31322920302D6E6F74207573655D
:100440000000000000240027002A00000000002512
:100450000028002B000000000023002600290004D3
:10046000040404040404040202020202020303035B
:100470000303030102040810204080010204081055
:100480002001020408102000000007000201000003
:100490000304060000000000000000007B2211247D
:1004A0001FBECFEFD8E0DEBFCDBF13E0A0E0B1E0CC
:1004B000E2EEFCE402C005900D92A230B107D9F73C
:1004C00014E0A2E0B3E001C01D92AC3AB107E1F73D
:1004D00014E0CEE9D4E004C02297FE010E946B260E
:1004E000CC39D107C9F70E94D1220C946F260C9405
:1004F0000000FC0188279927E89421912032E9F334
:10050000293010F02E30C8F32B3241F02D3239F45F
:10051000689404C00E949702820F911D219120537C
:100520002A30C0F31EF4909581959F4F08957AE08C
:10053000979F902D879F802D910D112408951F92D4
:100540000F920FB60F9211242F933F934F935F9307
:100550008F939F93AF93BF93EF93FF93809184000A
:10056000909185008097D0F385B1909140028923C6
:1005700085B988B190914102892388B98BB1909156
:10058000420289238BB980912203882309F47DC01C
:100590008091EF038F5F8093EF0390913D02981756
:1005A00030F410921303109212031092EF03409153
:1005B000EF034917B1F42091120330911303E09136
:1005C0000B02F0910C02CF01805797412817390791
:1005D00018F020E737E147C0CF01821B930B9C0145
:1005E00042C0A42F50912003523011F0E42F04C0D8
:1005F000E0918902E40FE150FF27E7FDF095EE0F4F
:10060000FF1FEB5DFD4F20813181245230408091EE
:10061000120390911303820F931F909313038093FF
:100620001203552369F0513049F44C5F80918902DF
:10063000A42FA81B4450A3301CF415C0A42FAD5FF9
:10064000AA3088F4BB27A7FDB095FD01EE0FFF1F70
:10065000ED5BFD4F0190F081E02D8081A95ABD4FE7
:100660009C91892B808380912003813091F44B30C1
:1006700080F45F9A8091840090918500845192402B
:10068000C8F3245F31405F9804C020910B02309181
:100690000C0280910B0290910C02821B930B9093A1
:1006A000850080938400FF91EF91BF91AF919F915E
:1006B0008F915F914F913F912F910F900FBE0F90AF
:1006C0001F901895CF93DF9380917302882379F15F
:1006D000C3E4D2E020E030E0482F50E0CA01022E0F
:1006E00002C0959587950A94E2F780FF1AC0888129
:1006F00099818832910511F4E1E005C08B9711F4DE
:10070000E2E001C0E0E0F0E0E05CFD4FD901AF596C
:10071000BD4F80819C91892B8083F901E95AFD4F5F
:1007200010822F5F3F4F229628303105B9F6DF91B6
:10073000CF9108951F939BE0899F802D1124182F3E
:100740001695169516958770A82FB0E048E050E0F2
:100750004A1B5B0BE12FF0E0E956FC4F21E030E053
:10076000042E02C0220F331F0A94E2F7215030E01A
:1007700026233723082E02C0220F331F0A94E2F7E4
:100780009081922B90831F5F02C0769567954A9562
:10079000E2F7E12FF0E0E956FC4F9081962B908331
:1007A000863040F01F5FE12FF0E0E956FC4F80817A
:1007B000872B80831F9108954F925F927F928F9233
:1007C0009F92AF92BF92CF92DF92EF92FF920F93E0
:1007D0001F93CF93DF937C0120917002822F6AE0F8
:1007E0000E94F925792E7A94822F0E94F925A82E4D
:1007F000AA94B090720221E02B1508F49FC0E70183
:100800009F858D85D701EDE04E2EE2E05E2EE0E083
:10081000F0E0C82EDD2472E0872E912C092F10E025
:1008200012968C911297482F50E0440F551F440F99
:10083000551F6E2FE83030F52E2FE701898190E0AB
:100840000E2E02C0959587950A94E2F780FD5460BC
:10085000673061F0C401022E02C0880F991F0A940C
:10086000E2F780239123892B09F04260BB20D1F16C
:10087000C60102C0959587952A95E2F780FF32C0A0
:10088000416030C0440F551FBB2061F1E83041F496
:10089000E7018C8590E087709070482B592B22C01F
:1008A000E93019F040E050E01DC0E7018C8590E090
:1008B00023E0959587952A95E1F79C012770307084
:1008C000422B532B959587959595879582709070BF
:1008D00020911B0230911C02822B932B90931C02BF
:1008E00080931B02671511F06A15C1F4CA0180508C
:1008F00094409C0135952795280F391F7BEF2035B3
:10090000370714F420E53BEFC90124E0813B92074F
:1009100014F080EB94E0AC0140505C4F4854584FC9
:10092000E201499359932E0131961196EC30F1056D
:1009300009F076CFF701378531708BC080912003A5
:100940008230B9F4F3E0BF1641F4E7E9F3E0119225
:1009500023E0E53AF207D9F70CC0D701E7E9F3E065
:1009600011968C9111978193119673E0E53AF707F0
:10097000B9F7DD24D394CC24C39400E0E9E09E2EA3
:100980005DC0440F551FF701EC0DF11D808190E013
:100990002D2D30E082239323892B11F0C42BD52BEE
:1009A00080E8D81621F4C394DD24D39401C0DD0C73
:1009B0006F5F6B3031F793E0B91611F0102F0AC05A
:1009C000192D101B80912003823021F4812FBE014C
:1009D0000E949A03171511F01A15C1F4CE01805028
:1009E00094409C0135952795280F391FEBEF203552
:1009F0003E0714F420E53BEFB901F4E0213B3F074B
:100A000014F060EB74E0EB01C050DC4FE12FF0E03C
:100A1000EE0FFF1FE35FFD4FCE01880F991F880F78
:100A2000991F8C0F9D1F9595879595958795805259
:100A3000994F918380830F5F0A3031F0C0E0D0E09E
:100A400060E041E050E09FCFEC0CF11CE701388101
:100A5000307880917302882389F1A3E4B2E041E603
:100A600052E02DE0E22E22E0F22E61E0082F10E0AD
:100A7000862F90E080239123892B99F0F7018081C4
:100A80009181ED91FC911197EA012881895B9B404E
:100A900020F08081822B808304C0808120952823D0
:100AA000208312964F5F5F4F82E090E0E80EF91EC0
:100AB00092E0A335B90711F0660FDACF832FDF91EB
:100AC000CF911F910F91FF90EF90DF90CF90BF904B
:100AD000AF909F908F907F905F904F9008959C0172
:100AE000809172028230E0F0F90190E05CE8B90197
:100AF000615F7F4F8181982740E0892F90E09C01C2
:100B00003595279580FF03C0952F922701C0922F1E
:100B10004F5F483091F73196E617F70759F71BC03A
:100B2000F90190E05CE8B901635F7F4F828198270B
:100B300040E0892F90E09C013595279580FF03C008
:100B4000952F922701C0922F4F5F483091F7319631
:100B5000E617F70759F7892F08955C9A42985C9831
:100B600098E010C087FF07C042980000419A00003B
:100B7000429A000006C04298000041980000429A44
:100B80000000880F915070F7429808958F770E9467
:100B9000AD050895429898E010C087FF07C04298BD
:100BA0000000419A0000429A000006C042980000EE
:100BB00041980000429A0000880F915070F74298C7
:100BC00008951F93162F80680E94AD05812F0E9403
:100BD000CA055C9A1F9108951F93809121038F5F2E
:100BE00080932103883010F010922103E0912103BB
:100BF000F0E0EC58FD4F108189E7612F0E94E1057C
:100C000080918702181738F080918802811718F0B8
:100C10008EE064E002C08EE060E00E94E1051F917A
:100C20000895429880E090E0880F429A0000309941
:100C30008160429800009F5F9830B1F708950E944C
:100C4000C6050E9411065C9A089583E00E941F0663
:100C50008093A50384E00E941F068093A60386E08C
:100C600060E00E94E10587E061E00E94E10560919B
:100C70006F02662311F089E002C089E067EC0E94F0
:100C8000E1058AE065E00E94E1058BE062E10E94F7
:100C9000E1058CE065E10E94E1058DE06AE00E94DB
:100CA000E1058EE060E00E94E1058FE163E00E94D3
:100CB000E1058EE16AE00E94E10582E160E60E94C2
:100CC000E10583E168EF0E94E1058FE060E80E94A2
:100CD000E1058DE160E40E94E1058CE166E20E949D
:100CE000E10580E264E40E94E10581E260E00E94A7
:100CF000E10582E262EF0E94E10583E26CE70E9477
:100D0000E10584E266E00E94E10585E26DE70E946C
:100D1000E1058AE26EE10E94E10580E36CEA0E944F
:100D2000E10582E36CE80E94E10583E36AE00E944A
:100D3000E10584E364E00E94E10585E362E20E944C
:100D4000E10586E36DE20E94E10587E364ED0E9420
:100D5000E10588E360E00E94E10589E360E00E942C
:100D6000E1058EE360E10E94E1058DE66FE00E94FF
:100D7000E1058EE66CE30E94E1058FE66FE90E94D3
:100D8000E10589E660E60E94E10580E76EE20E94E7
:100D9000E10589E760E00E94E1058AE766E00E94DC
:100DA000E10581E763E20E94E10582E76EE00E94CF
:100DB000E10585E763E50E94E10586E76CE40E94B2
:100DC000E10587E760EE0E94E105089587E061E0B4
:100DD0000E94E1058EE764E20E94E10588E063E09D
:100DE0000E94E10588E060E00E94E10587E065E09F
:100DF0000E94E10585E062E00E94E10583E00E9437
:100E00001F068093A50384E00E941F068093A6031B
:100E1000089583E00E941F068093A50384E00E944A
:100E20001F068093A60387E061E00E94E105089514
:100E3000482F8091E5039091E603481721F49C5ECA
:100E40009093E60308952091E7033091E803290F7A
:100E5000311D3093E8032093E70301C0789480911B
:100E6000840090918500B901681B790B623271058D
:100E7000A8F7F8948091840090918500281739078D
:100E8000C9F7442311F05D9801C05D9A4093E503D2
:100E900084E18093E6030895EF92FF920F931F93EE
:100EA000CF93DF93E82E80E00E941807FF2410E024
:100EB00001E0CE2DD0E0802F90E08C239D23892B64
:100EC00029F081E00E9418071F5F03C080E00E94A4
:100ED0001807F39488E0F81611F0000FECCF812F7B
:100EE00081700E94180781E00E94180781E00E942B
:100EF0001807DF91CF911F910F91FF90EF90089508
:100F0000DF92EF92FF920F931F93CF93DF93809125
:100F10002003823009F079C08FE08093CC03909158
:100F20003C03992311F018E001C010E01093E30393
:100F30001092E403809172028230A0F0992391F420
:100F4000E7E9F3E0ADECB3E081918D9383E0E53A1E
:100F5000F807D1F71091A4031F734AE0FEE0DF2EDB
:100F600000E404C040E0DD24D39401E080919203CA
:100F7000E82EFF24E3E0EE0CFF1CEA95E1F7C091B8
:100F80001E03D0911F0373E0CC0FDD1F7A95E1F7AC
:100F90004C30A0F4E42FF0E0EE0FFF1FEB5DFD4FAF
:100FA00080819181805E9640880F991F880F991FDC
:100FB00065E070E00E940526CB0107C04D3011F4BA
:100FC000C70103C04E3019F4CE0120E00AC04F30F3
:100FD00019F480E096E0F9CF80E090E0F6CF9695A6
:100FE000879580FD102B003849F4ED2DF0E0E45397
:100FF000FC4F1083D39410E001E001C0000F2F5F7D
:101000002B3069F74F5F403118F2DF91CF911F917C
:101010000F91FF90EF90DF90089520E030E0F8947A
:10102000F901EB5DFD4FD901A35FBD4F8D919C91FF
:101030009183808378942E5F3F4F2831310579F773
:10104000E0918602EE23A1F0F894F0E0EE0FFF1F8E
:10105000ED5DFD4F80911E0390911F0386509F4FC1
:10106000A3E0880F991FAA95E1F791838083789474
:1010700081E0809322030E9480070895EF92FF92FF
:101080000F931F93CF93DF938091C6038093AB039D
:1010900090913F039093AC0380913C03882389F4A3
:1010A00080912203882369F0CDEAD3E02BE633E078
:1010B00010EEE12E1FEFF12EE20EF31EF901870173
:1010C00004C090689093AC03EFCFB8978081B89636
:1010D0008883188A18866081662339F0D8018D913B
:1010E0009C9170E00E94052668876085662349F020
:1010F000D80150968D919C91519770E00E940526E1
:10110000688B219631960E5F1F4FB3E0C53BDB071E
:10111000E1F6F701118A108AD7011D921D927D0117
:10112000F9011082108628523040D9011C92275DA7
:101130003F4FBBE5EB16B3E0FB0659F710924003B7
:1011400010923F031092C503DF91CF911F910F9131
:10115000FF90EF9008950F931F93CF93DF930DE0CF
:1011600012E0C0E4D0E0F801418180EF93E0BE01DD
:101170000E94D71D219680EF93E0BE01F8014081C7
:101180000E94D71D0E5F1F4F2196F2E005321F0708
:1011900051F7DF91CF911F910F910895462FBC0118
:1011A0006F5E7F4F80EF93E00E94D71D0895DF921E
:1011B000EF92FF920F931F938C01D62E472F80EF53
:1011C000E82E83E0F82EC701B8010E94D71D0F5FFB
:1011D0001F4FC701B8014D2D0E94D71D1F910F91C0
:1011E000FF90EF90DF900895EF92FF920F931F937F
:1011F000CF93DF930DE612E0EE24FF24C0E0D0E0B1
:10120000CE01F80160810E94CE08F80181918F0122
:10121000E80EF11C2196C730D10591F7C4E7D2E062
:101220000BE010E0C80168810E94CE088991E80EA9
:10123000F11C0F5F1F4FF2E0CC37DF0799F7CCE7C7
:10124000D2E003E110E0C80168810E94CE088991D4
:10125000E80EF11C0F5F1F4F82E0C238D80799F7E4
:1012600089E190E0609187020E94CE088091870218
:10127000E701C80FD11D8AE190E0609188020E94C9
:10128000CE0880918802C80FD11D8CE190E060915A
:1012900089020E94CE0880918902C80FD11D04E8FE
:1012A00012E098E2E92EF12CC701F80160810E945A
:1012B000CE08F80181918F01C80FD11D0894E11C5F
:1012C000F11CF2E007381F0779F78AE090E0BE01D1
:1012D0000E94D708DF91CF911F910F91FF90EF905F
:1012E0000895AF92BF92CF92DF92EF92FF921F9339
:1012F000CF93DF934DE0C42E42E0D42E30E4E32EB2
:10130000F12C28EBA22E2BE0B22E80EF93E0B70158
:101310000E94D01D182FB7016F5F7F4F80EF93E0C1
:101320000E94D01DD12FC0E09E01280F311DC901A0
:10133000F601318320838C5697408959984018F0E4
:10134000F601B182A08222E030E0E20EF31EC20E6E
:10135000D31E38E5E316F104C1F6DF91CF911F915A
:10136000FF90EF90DF90CF90BF90AF900895BC01B9
:101370006F5E7F4F80EF93E00E94D01D0895DF9253
:10138000EF92FF920F931F938C0150EFE52E53E0E5
:10139000F52EC701B8010E94D01DD82E0F5F1F4F38
:1013A000C701B8010E94D01D3D2D20E0280F311D3E
:1013B000C9011F910F91FF90EF90DF9008950F9357
:1013C0001F93CF93DF9300E010E0C0E0D0E0CE01A8
:1013D0000E94B709FE01E359FD4F8083080F111DDC
:1013E0002196C730D10599F7CBE0D0E0CE010E941D
:1013F000B709FE01E759FD4F8083080F111D2196A3
:10140000C331D10599F7C3E1D0E0CE010E94B709FD
:10141000FE01E759FD4F8083080F111D2196C93148
:10142000D10599F780917D02883008F05BC0863045
:1014300008F059C0823010F491E002C091E0891B9D
:1014400080937E02981708F4891B80937F02109284
:10145000800289E190E00E94B70980938702080F1B
:10146000111D8AE190E00E94B70980938802080F5D
:10147000111D8CE190E00E94B709982F81508830AF
:1014800020F490938902090F111DC8E2D0E0CE012B
:101490000E94B709FE01E45AFD4F8083080F111D19
:1014A0002196CB32D10599F78AE290E00E94B709E4
:1014B0008093860281508C3010F0109286028091C9
:1014C0008602080F111D8AE090E00E94BF0920E00B
:1014D0008017910709F421E0822FDF91CF911F91AE
:1014E0000F91089587E092E0AACF0F931F93CF93B7
:1014F000DF9320910A02222379F1E0E0F0E000E09E
:1015000010E08491080F111D319680E4E030F80757
:10151000C1F7922F80E020910902EC01C20FD11D8A
:1015200086E090E00E94BF09C817D90761F086E005
:1015300090E0BE010E94D70888E090E0B8010E94C8
:10154000D70881E00AC088E090E00E94BF098017B8
:10155000910711F08FEF01C080E0DF91CF911F91D3
:101560000F9108950F931F93E2E0F0E081E28093E2
:1015700057008491843931F488EF91E090936A02A6
:101580008093690280EF93E06CE070E00E94D01DD0
:10159000082F10E010936C0200936B0280EF93E031
:1015A0006DE070E00E94D01D382F20E0200F311F29
:1015B00030936C0220936B022835310538F080910E
:1015C000690290916A0228173907C0F088E590E017
:1015D00090936C0280936B0280EF93E06CE070E07C
:1015E00048E50E94D71D40916C0280EF93E06DE0CA
:1015F00070E00E94D71D1092C60316C0C901CE9795
:101600006AE170E00E940526882331F0281B310929
:1016100030936C0220936B0280EF93E06EE070E0F9
:101620000E94D01D8093C6038091C6038F5F809374
:10163000C603843610F01092C603ABE4B3E0FD019C
:10164000B09651961C921E9250971D921D92108238
:101650001086B8971082B99683E0AB35B80789F742
:101660001092400310923F031092420310924103E4
:101670008AE18093C5030E94A81E6093C7037093FC
:10168000C8038093C9039093CA031F910F910895D3
:1016900080913E03813019F482E080933E03809173
:1016A0003E03833069F484E080933E030E94A81EC9
:1016B00060939303709394038093950390939603A0
:1016C000089580912003823011F0E0E015C00E945F
:1016D000B61EE0E02091A7033091A8034091A90332
:1016E0005091AA03621B730B840B950B63567941CF
:1016F0008040904008F0E1E08E2F0895EF92FF9235
:101700000F931F9380917102882309F496C00E9461
:10171000610B882309F091C08AC0F0E060916B02F0
:1017200070916C026E0F7F1FE555FC4F80EF93E0C8
:1017300040810E94D71D8091C5038F5F8093C503B0
:101740008A3109F04CC080916B0290916C024A96EC
:1017500090936C0280936B022091690230916A022F
:1017600082179307E0F188E590E090936C028093F4
:101770006B0235C0EA3139F440916C0280EF93E09E
:101780006DE070E008C0EB3171F480EF93E06CE045
:1017900070E040916B020E94D71D8091C5038F5F5E
:1017A0008093C5031CC0EC31D1F48DE18093C50357
:1017B0008091410390914203892B41F480EF93E0A3
:1017C0006EE070E04091C6030E94D71D80914103F6
:1017D000909142030196909342038093410320919C
:1017E00023033091240340912503509126038091D7
:1017F000C7039091C803A091C903B091CA037901AE
:101800008A01E81AF90A0A0B1B0BD801C701805696
:101810009A4EA040B04088F02093C7033093C8038D
:101820004093C9035093CA030E943E0806C0E0914A
:10183000C503EA3108F09ECF70CF1F910F91FF9042
:10184000EF9008950F931F93CF93DF938091200320
:10185000823009F057C080912203882309F452C0D6
:101860000E94B61EAB01BC018091A7039091A80312
:10187000A091A903B091AA038A019B01081B190B2F
:101880002A0B3B0BD901C80183569941A040B040B7
:10189000C8F1209184003091850080910B029091D5
:1018A0000C028F5F98418217930760F11EC08091F0
:1018B000E30384608093E3031092E5031092E60350
:1018C000F89480918400909185009093E803809330
:1018D000E7035D9ACCECD3E089910E944C0723E0AA
:1018E000C53ED207C9F778940DC04093A703509323
:1018F000A8036093A9037093AA0380913D038823F2
:10190000B1F6DACFDF91CF911F910F910895EF9249
:10191000FF920F931F938C010E94B61E780100E086
:1019200010E0E60EF71E081F191F02C00E94220CCD
:101930000E94B61E6E157F0580079107B8F31F91B0
:101940000F91FF90EF900895EF92FF920F931F93E6
:10195000CF93DF937B01142F9C01442737FD4095E3
:10196000542F60E271EA87E090E00E944E26E90180
:101970002530310514F4C5E0D0E0177018608DE60D
:10198000612F0E94E1052D9A61E070E080E090E017
:101990000E94DC1E2D98A895B701882777FD8095B9
:1019A000982F20E930ED43E050E00E94DA259E01B7
:1019B000442737FD4095542F0E944E26790100E0C0
:1019C00010E00AC0419ACE010E94870C4198CE01D6
:1019D0000E94870C0F5F1F4F0E151F0598F3DF91B4
:1019E000CF911F910F91FF90EF90089583E00E9497
:1019F0001F068093A50384E00E941F068093A60320
:101A000086E060E00E94E10587E061E00E94E10578
:101A100089E060913F020E94E1058AE065E00E9452
:101A2000E1058BE062E10E94E1058CE065E10E9446
:101A3000E1058DE06AE00E94E1058EE060E00E9431
:101A4000E10580E76CE20E94E10580E360E00E942E
:101A5000E10589E760917C020E94E1058AE766E082
:101A60000E94E10581E762E10E94E10582E762E010
:101A70000E94E10583E760E00E94E10584E760E001
:101A80000E94E1058EE060E00E94E10560917D0228
:101A9000677068608DE60E94E1056AE070E080E0B2
:101AA00090E00E94DC1E87E069E00E94E10588EB7F
:101AB00091E061E070E040917D020E94A40C8DE510
:101AC00091E061E070E040917E020E94A40C85E00C
:101AD00091E061E070E040917F020E94A40C8FEAE7
:101AE00090E061E070E0409180020E94A40C87E0E9
:101AF00061E00E94E10508950E94090762E370E039
:101B000080E090E00E94DC1E0E94E606000008953E
:101B1000CF92DF92EF92FF920F931F93CF93DF93B9
:101B2000982FEB01D42EC22EA89589E7692F0E9429
:101B3000E105CC2021F08DE160E40E94E1050E94E6
:101B40007C0D0E94A81E7B018C01CE01A0E0B0E0BC
:101B5000E80EF91E0A1F1B1F83E080933E0307C097
:101B60000E94A81EE616F7060807190720F08091C4
:101B70003E038330A9F380913E03843009F07AC09C
:101B80008FE70E94C605C2E0D3E00E941106899348
:101B900083E0C231D807C9F70E94E6068091E903C5
:101BA000882329F0CE0140970E946F053EC0FE01B8
:101BB0003E9790E05CE88081982740E0892F90E094
:101BC0009C013595279580FF03C0952F922701C072
:101BD000922F4F5F483091F7319683E0E131F8075B
:101BE00051F7992321F48091720281701CC03E97B5
:101BF00090E05CE88081982740E0892F90E09C018C
:101C00003595279580FF03C0952F922701C0922F0D
:101C10004F5F483091F7319683E0E231F80751F792
:101C2000992341F582E08093720281E08093E90379
:101C3000DD2021F080910203D816E1F4CC20C1F020
:101C40008BE20E941F062091EB033091EC03482F9A
:101C500050E0813810F020503140240F351F309370
:101C6000EC032093EB038091EA038F5F8093EA03F8
:101C700081E001C080E0DF91CF911F910F91FF9033
:101C8000EF90DF90CF9008951F9380916F0288238B
:101C900009F054C086E894E00E94D1211816190674
:101CA0000CF04CC086E894E00E9402228D30910531
:101CB00091F48091820280936F0280933F020E9490
:101CC000F40886E894E060E071E00E9492240E94AB
:101CD000250681E034C08E33910531F08E329105B6
:101CE00019F08E3E910521F4809182028F5F0CC025
:101CF0008C33910531F08C32910519F0813A9105C0
:101D0000E9F4809182028150809382028091820264
:101D1000882319F48FEF809382021091820289E068
:101D2000612F0E94E10586E894E0612F4AE050E0CF
:101D30000E94FF238091820280933F0280E01F91E6
:101D4000089586E894E00E94D1211816190614F02F
:101D500020E00CC086E894E00E9402228D369105B6
:101D600021F020E08D34910509F421E0822F0895BF
:101D7000FF920F931F938091230390912403A091CE
:101D80002503B091260320918E0330918F0340915B
:101D9000900350919103821B930BA40BB50B4497B6
:101DA000A105B10508F446C086E894E00E94D1215F
:101DB000082F10E0FF24F3943BC086E894E00E94D3
:101DC0000222982F80918B03882359F4963179F55C
:101DD00090937B03F0928B0310928D0310928302F9
:101DE00026C0E82FF0E0E558FC4F90838F5F80938A
:101DF0008B038031E0F010928B038BE793E00E941D
:101E00006F058823A1F48091230390912403A0916E
:101E10002503B091260380938E0390938F03A093A4
:101E20009003B093910381E080938D0303C01F5F03
:101E300010171CF21F910F91FF9008951F93182FF8
:101E400006C086E894E060E20E943B221150112314
:101E5000C1F71F9108951F9394E6899FC001112433
:101E60006EEE70E00E941926162F643610F013E60D
:101E700005C06A3018F481E00E941E0F86E894E0E5
:101E8000612F4AE050E00E94ED2381E00E941E0F86
:101E90001F9108951F93182F8A3010F482E003C019
:101EA000843618F481E00E941E0F86E894E0612FCA
:101EB0004AE050E00E94ED2381E00E941E0F1F9136
:101EC0000895982F8091CB0381119695892F0E94B8
:101ED0004A0F0895CF93DF9386E894E067E071E0BE
:101EE0000E948F24C8E5D0E012C080EF93E0BE01CD
:101EF0004FEF0E94D71DCE018F779070892B29F468
:101F000086E894E06EE20E943B22A895219680919B
:101F1000690290916A02C817D90738F388E590E002
:101F200090936C0280936B021092C60380EF93E053
:101F30006CE070E048E50E94D71D40916C0280EF94
:101F400093E06DE070E00E94D71D80EF93E06EE0BB
:101F500070E04091C6030E94D71D0E94B20A86E835
:101F600094E063E271E00E949224DF91CF910895A2
:101F70001F93CF93DF93EC01162FFE0121966491FE
:101F8000662329F086E894E00E943B22F6CF1123D5
:101F900021F086E894E00E941023DF91CF911F91F9
:101FA00008955F926F927F928F929F92AF92BF92AD
:101FB000CF92DF92EF92FF920F931F93CF93DF9315
:101FC000833719F020E0833509F421E0822E8C3626
:101FD00019F090E08C3409F491E0592E823719F011
:101FE000BB24823519F4BB24B39402C0843619F0A3
:101FF0006624843411F4662463941092CB038A35EA
:1020000018F481E08093CB03222341F4992331F427
:10201000BB2021F4882483945524539486E894E0CB
:1020200069E271E00E948F2486E894E068E570E040
:102030004AE050E00E945D2486E894E06AE371E0A3
:102040000E948F246091690270916A0286E894E090
:102050004AE050E00E94BF2386E894E06CE371E020
:102060000E948F2460916B0270916C0286E894E06C
:102070004AE050E00E94D02386E894E064E471E0F6
:102080000E948F24882029F084EC91E060E00E9477
:10209000B80FBB2019F08BE392E004C0552031F05B
:1020A00084EF91E061E00E94B80F04C086E894E0FC
:1020B0000E941023C0916B02D0916C02782C770C97
:1020C00083E0780E9924FF248E010F5F1F4F80EF6D
:1020D00093E0BE010E94D01DA82E84E68A1520F44C
:1020E000662011F46A96AFC0AF1099248A2D0E9421
:1020F0004A0F9394892D0E944A0F882019F4BB201F
:1021000009F440C078010894E11CF11C80EF93E0D1
:10211000B8010E94D01D182F8F770E944A0F81E0CE
:102120000E941E0F812F881F8827881F0E944A0F38
:10213000872D0E941E0F882089F0B7018E01065F4F
:102140001F4FEB01219680EF93E00E94D01D0E946B
:102150004A0FC017D10799F0BE01F3CFB7018E0126
:10216000065F1F4FEB01219680EF93E00E94D01D88
:102170000E942B0FC017D10711F0BE01F3CFE7016A
:10218000289602C0E8012996552019F4BB2009F4CD
:1021900053C083E00E941E0F882019F081E00E9446
:1021A0001E0FBB2009F18E01E8E0CE2ED12CCC0E03
:1021B000DD1E80EF93E0B8010E94D01DF82E085F6D
:1021C0001F4F80EF93E0B8010E94D01D07501040D0
:1021D000F81610F480E002C0F81A8F2D0E94610FEB
:1021E0000C151D0531F728C0BE018E01085F1F4F79
:1021F0007B010894E11CF11C80EF93E00E94D01D4C
:102200000E94610FE016F10611F0B701F1CF84E0F2
:102210000E941E0FB80160968B010F5F1F4F80EF69
:1022200093E00E94D01D0E94610FB8010C171D079A
:1022300099F7E701289601C0609686E894E00E942D
:102240001023A895FA2C8091690290916A02C81710
:10225000D90710F0C8E5D0E080916B0290916C0234
:10226000C817D90709F030CFDF91CF911F910F9197
:10227000FF90EF90DF90CF90BF90AF909F908F90A6
:102280007F906F905F90089587EE90E061E00E94EC
:10229000B80F8AEF90E060E00E94B80F86E894E003
:1022A000609109024AE050E00E94FF230895FF92E6
:1022B0000F931F93CF93DF9388E791E060E00E9434
:1022C000B80F88E091E060E00E94B80F86E894E0E3
:1022D000609109024AE050E00E94FF23FF2401E0E0
:1022E00010E0CF2DD0E0FE01E057FD4F808190E05F
:1022F0008017910729F586E894E0B8014AE050E09C
:102300000E945D2486E894E06DE30E943B22C801B0
:102310000E94B709682F86E894E04AE050E00E94E6
:10232000ED2386E894E069E00E943B22CC0FDD1F9C
:10233000C955DD4F8881998161E00E94B80FF394FF
:102340000F5F1F4F0B32110561F6DF91CF911F9187
:102350000F91FF900895AF92BF92CF92DF92EF92CC
:10236000FF920F931F93CF93DF935C0101960E941E
:1023700079029C0101978E3F910510F010E01EC07C
:10238000122F82E090E0F501E80FF91FE081EE23C3
:10239000A9F00196ED3279F48A0D9B1D0E94790215
:1023A0009C01812F90E08217930740F42F3F310565
:1023B00028F4C22E05C08A30910529F72EEFC22ECF
:1023C0000E9425060E947C0D8EE060E00E94E105DF
:1023D00086ED90E061E00E94B80FE12EAEC089E783
:1023E0006E2D0E94E1058DEE92E00E94351F0FEFE9
:1023F000FF24C0E0D0E010E083E690E00E94351FAB
:1024000086E20E941F06C80FD11D801708F4082F0E
:10241000F81608F4F82E1F5F173C71F789E08E1547
:1024200038F086E894E06DE471E00E948F2408C0E3
:10243000E3E6EE1528F086E894E060E20E943B2295
:1024400086E894E06E2D4AE050E00E94ED23E4E738
:10245000F2E06AE380818E1509F463E2319682E04E
:10246000EC37F807B9F786E894E00E943B2286E84B
:1024700094E060E20E943B22802F0E944A0FCE012E
:1024800067EC70E00E940526162F862F0E944A0FE7
:102490008F2D0E944A0FF50180818E3409F047C0CC
:1024A0000A3010F4DD2408C0083418F09DE3D92E5A
:1024B00003C086EFD82ED00EF9E0FF1510F000E033
:1024C00007C087E48F1510F40DE302C00F2D0A50EA
:1024D0001A3010F4FF2408C0183418F0BDE3FB2EA6
:1024E00003C0A6EFFA2EF10E10E01F1521F486E8C6
:1024F00094E06AE217C01D1521F486E894E06CE3CD
:1025000011C0101721F486E894E06EE30BC0D116D9
:1025100030F4101720F486E894E06EE203C086E8F9
:1025200094E060E20E943B221F5F0117F0F686E80C
:1025300094E00E941023A895E394CE1408F04FCFA6
:10254000DF91CF911F910F91FF90EF90DF90CF908F
:10255000BF90AF900895EF92FF920F931F93CF9388
:10256000DF937C01FC01108200E010E086E894E03B
:102570000E94D12118161906CCF586E894E00E9435
:10258000E221469739F481E7F701808311821092A6
:10259000830234C086E894E00E940222EC011816FF
:1025A000190654F586E894E06C2F0E943B22CD304A
:1025B000D10519F0CA30D10529F486E894E00E94CB
:1025C00010231CC0C830D10531F40115110571F27A
:1025D00001501040CBCFF701E00FF11FC0831182F3
:1025E0000A3011054CF40F5F1F4F06C061E070E028
:1025F00080E090E00E94DC1EA895B8CFDF91CF91DB
:102600001F910F91FF90EF900895FF920F931F93EA
:102610008730A8F5880F082F10E0000F111FF80170
:10262000EB52FD4FF0808F2D60E00E94DA1F8F2D5E
:1026300061E00E94192009521D4FF8010081802F8E
:1026400061E00E94192087EC90E00E94351F8F2DD9
:102650000E946D20019779F4802F60E00E9419207C
:1026600087EC90E00E94351F8F2D0E946D20892BF2
:1026700011F481E005C08F2D61E00E94DA1F80E037
:102680001F910F91FF9008952F923F924F925F926A
:102690006F927F928F929F92AF92BF92CF92DF9272
:1026A000EF92FF920F931F93DF93CF93CDB7DEB7D7
:1026B00062970FB6F894DEBF0FBECDBF80E091E009
:1026C0000E94E322988B8F8785E00E9405131B866A
:1026D000882311F481E08B877894AF85B889A15065
:1026E000BF4FBA8BA98B1092E9031092EA031092A4
:1026F000EC031092EB0380916F028A5A8D3318F02D
:1027000087EC80936F020E9425060E947C0D8EE06C
:1027100060E00E94E1058DE160E00E94E1050E9419
:10272000E606BB85BB2331F086E894E060E571E006
:102730000E948F24EF85F889FA87E98711928989A9
:102740009A89E817F907D1F70E94A81E5B016C016E
:102750008FE19EE4A0E0B0E0A80EB91ECA1EDB1E09
:1027600066241C86A8950F851889FF249924EE24D9
:10277000D8018C918A3FA8F489E76F2D0E94E1056A
:1027800089E892E00E94351F86E20E941F06982F7A
:10279000F8018081891708F49083E91610F49F2CC2
:1027A000E92EF3940F5F1F4FFFEFFF1609F72D98E7
:1027B000662009F58B858823D1F086E894E064E6ED
:1027C00071E00E948F2486E894E0692D4AE050E091
:1027D0000E94ED2386E894E06FE671E00E948F246A
:1027E00086E894E06E2D4AE050E00E94FF2395E9D0
:1027F0009E1528F078CFA5E9AE1508F0B3CF892D46
:1028000063E071E04C8520E00E94880D8823D9F0B8
:10281000B0910203BC87EB85EE2361F086E894E07B
:10282000692D4AE050E00E94ED2386E894E060E2E2
:102830000E943B22E1E0F0E0EC0FFD1FE60DF11DF0
:10284000908263942D9AEF85F889E90DF11D8FEF41
:102850008083662009F447CF0E94A81EA616B706FB
:10286000C806D90660F4862D8150823060F094E06D
:10287000691649F0A8E06A1609F035CF04C0B7E040
:10288000B61508F06FCF0E94A81E4B015C018AE0CC
:102890009AE1A0E0B0E0880E991EAA1EBB1E7980C6
:1028A0009B85992331F086E894E062E771E00E940D
:1028B0008F2472E0C72ED12CCC0EDD1E16014F8462
:1028C0005888A1E0AE871D8660C00E94A81E8616AB
:1028D0009706A806B90608F406CF872D63E071E0D5
:1028E0004C8521E00E94880D882379F30E94A81E60
:1028F0007B018C01F101808167E572E04C8521E06C
:102900000E94880D8823C1F10E94A81E28EF3FEF86
:102910004FEF5FEF2E193F09400B510B260F371F6A
:10292000481F591F65E056954795379527956A9535
:10293000D1F7622F283008F06850EF85F88990E0D1
:102940008191861709F4ACCF9F5F8E859817C0F3ED
:10295000D20111966C93BB85BB2359F086E894E0B5
:102960004AE050E00E94ED2386E894E060E20E9495
:102970003B22ED85EF5FED87FE85FF5FFE870894C4
:10298000211C311C0894411C511C8E85861508F4AD
:102990009CCF9B85992321F086E894E00E94102328
:1029A00070927402A1E06A1641F4E5E7F2E07192D8
:1029B000B2E0EC37FB07D9F750C0E2E06E1691F4B5
:1029C0008A8170927402809375027092760280936D
:1029D0007702709278028093790270927A028093E3
:1029E0007B023BC0F4E06F16E9F49E012B5F3F4F82
:1029F000A985BA851196EC91EF5FE43038F4F0E0E8
:102A0000D6018C91EC58FD4F80838483E985FA854B
:102A10003196FA87E9870894C11CD11CC216D306E7
:102A200039F71BC0FD85F73008F45DCE9E01275FA6
:102A30003F4FA985BA851196EC91EF5FF0E0EC5815
:102A4000FD4FD6018D916D018083E985FA85319620
:102A5000FA87E987A217B30761F76091EA038091CB
:102A6000EB039091EC0370E00E9419267093EC0345
:102A70006093EB03FC85F0936E02CB018296853464
:102A8000910528F480916F02861B80936F028B85DD
:102A90008823D9F186E894E06CE771E00E948F24E6
:102AA00086E894E06C854AE050E00E94ED2386E8D9
:102AB00094E062E871E00E948F2486E894E06091DF
:102AC0006F024AE050E00E94ED2386E894E06AE855
:102AD00071E00E948F2404E712E086E894E0D801B8
:102AE0006D918D014AE050E00E94ED2386E894E06C
:102AF00060E20E943B22B2E00C371B0771F786E8C8
:102B000094E066E971E00E949224109273021092A0
:102B1000700280917102823010F0109271028F85E4
:102B200098890E94E0220E94F408439A439A629690
:102B30000FB6F894DEBF0FBECDBFCF91DF911F91CE
:102B40000F91FF90EF90DF90CF90BF90AF909F904C
:102B50008F907F906F905F904F903F902F9008954F
:102B6000CF92DF92EF92FF920F931F93DF93CF9359
:102B7000CDB7DEB72C970FB6F894DEBF0FBECDBF32
:102B80008EE091E061E00E94B80F8E010F5F1F4F51
:102B9000C8010E94AB128981813709F486C0813552
:102BA00009F483C068010E94571188E291E061E056
:102BB0000E94B80FC6010E94AB1289818E3611F0B7
:102BC0008E3421F4C6010E94AB11F4CF833711F08B
:102BD000833549F48A81853619F40E946A0FEACF59
:102BE0000E94D10FE7CF8237F9F48A818536E1F46C
:102BF0008B818236C9F48C818936B1F48D818E3611
:102C000099F48E81843681F481EA91E060E00E943B
:102C1000B80FC6010E94AB128981893711F089353E
:102C200019F40E94441341C089818137F1F1813543
:102C3000E1F1C6010E9479027C018BE2E816F10401
:102C400008F0B1CFC6010E94AB128981813769F1CA
:102C5000813559F1C6010E9479028C018F3F91059F
:102C600011F008F0A0CFE114F10419F4009709F471
:102C70009ACF86E894E0B7014AE050E00E945D24D4
:102C800086E894E06DE30E943B2286E894E0B80178
:102C90004AE050E00E947024C701602F0E94CE08D5
:102CA0000E94DF090E94F4087ECF2C960FB6F8949C
:102CB000DEBF0FBECDBFCF91DF911F910F91FF906F
:102CC000EF90DF90CF9008951F93CF93DF93EC01A7
:102CD00010E011C0A8956DE770E080E090E00E94E0
:102CE000DC1ECB30D10568F00E94A10E882349F08C
:102CF0000E94B0150FC0812F90E08C179D0750F3F4
:102D000009C0439A6DE770E080E090E00E94DC1E0D
:102D10001F5FF1CFDF91CF911F910895EF92FF9246
:102D20000F931F930E94750A182F8F3F69F48091AB
:102D30008C03882329F48AE890E061E00E94B80FB0
:102D40008FE295E70E94641682E00E9405138823B3
:102D500091F084E090E00E9464160E94F408809153
:102D60008C03882329F48AEB90E061E00E94B80F7D
:102D700084E090E079C00E94DF09882309F076C0E2
:102D800080918C03882329F485EA90E061E00E9419
:102D9000B80F113009F066C00E94A81E7B018C019B
:102DA0008FE097E2A0E0B0E0E80EF91E0A1F1B1FBB
:102DB0000BC081E090E00E9464160E94A10E88235F
:102DC00019F00E94B01552C00E94A81E6E157F0512
:102DD0008007910770F388E480936E0287EC8093FC
:102DE0006F0291E09093710210927302109272023E
:102DF000109270028BE48093870282ED80938802A8
:102E000084E680937C0284E080937D0282E080935C
:102E10007E0290937F02109280028EE18093810265
:102E200087E08093840290938502109286028DE45D
:102E30008093740283E98093750289E5809376021A
:102E400087EA809377028DE6809378028DEB8093FA
:102E500079028FE780937A0281ED80937B020E9452
:102E6000F40804C088E790E00E9464161F910F9157
:102E7000FF90EF9008951F93482FF62FE091840262
:102E8000EE2321F4882351F41FE724C0882341F462
:102E9000683031F41092EE031092ED0310E01AC086
:102EA0002091ED033091EE03C9016E2F70E00E9476
:102EB0000526261B370BF49FC0011124280F391F4C
:102EC0003093EE032093ED03C9016E2F70E00E9452
:102ED0000526162F83E0612F70E00E947A1F109361
:102EE0001E0310921F031F9108952F923F924F923D
:102EF0005F926F927F928F929F92AF92BF92CF928A
:102F0000DF92EF92FF920F931F93CF93DF9380E0B6
:102F10000E94051380932003882321F08AE0809388
:102F20003D021DC086E00E9405138823C1F082E0A7
:102F30008093200384E080933D0280E69DE6909399
:102F40000C0280930B02909387008093860010926E
:102F50005702809142028062809342025D9884E031
:102F60000E94051380938C0381E090E00E94641618
:102F700085E00E940513882311F00E94441386E81F
:102F800094E040E056E960E070E00E944A218091C0
:102F90008C03882331F40E94441181E090E00E9468
:102FA00064160E948E1680916F0280933F020E94E9
:102FB000B20A0E9462030E9471090E9425061092C3
:102FC00022032EE088E190E00FB6F894A895809354
:102FD00060000FBE2093600080918C03882309F06D
:102FE00073C086E894E06BE971E00E948F2486E864
:102FF00094E060916D024AE050E00E94FF230E943D
:10300000571186E894E060EA71E00E948F2484E022
:103010000E941F06682F70E06170707086E894E06F
:103020004AE050E00E94702486E894E065EA71E08E
:103030000E94922480E00E941F06682F86E894E098
:103040004AE050E00E94FF2381E00E941F06682FA3
:1030500086E894E04AE050E00E94FF2382E00E946C
:103060001F06682F86E894E04AE050E00E94FF23A4
:1030700086E894E06BEA71E00E948F2481E10E946F
:103080001F06682F70E06054704086E894E04AE0C4
:1030900050E00E94702488E690E061E00E94B80F42
:1030A00080912003813031F486E894E06EEA71E08B
:1030B0000E94922480912003823031F486E894E0CB
:1030C00066EB71E00E949224442481E080933E02EA
:1030D0000E94E6060E947C0D789483E080933E0374
:1030E0000E94A81E609323037093240380932503FA
:1030F00090932603609327037093280380932903FA
:1031000090932A0360932B0370932C0380932D03D9
:1031100090932E0360932F037093300380933103B9
:10312000909332035524AA24BB243324339483E0A0
:10313000282EA8958CE00E941F06882371F40E9417
:1031400025060E947C0D80918C03882331F486E84B
:1031500094E06FEB71E00E94922480913E038430F2
:1031600009F0F1C143982D9A8FE70E94C605C2E08D
:10317000D3E00E941106899323E0C231D207C9F738
:103180000E94E606109121030E94EC0580919303B2
:1031900090919403A0919503B091960380932F038F
:1031A00090933003A0933103B093320320923E03F7
:1031B0006097CE010E946F05882351F080918C03A7
:1031C000882309F0BCC186E894E066EC71E00FC08A
:1031D0009091020380916E02981761F080918C03A8
:1031E000882309F0ACC186E894E06BEC71E00E94A2
:1031F0009224A5C1CE010E94DC03882389F04420DB
:1032000081F480918C03882331F486E894E061EDA9
:1032100071E00E9492240E94AB084424439401C0B0
:10322000442460911803709119036115710551F0E0
:1032300080911603909117030E940526709317033F
:1032400060931603809116039091170390931903CE
:103250008093180360911C0370911D036115710523
:1032600069F080911A0390911B030E9405266093D8
:103270001A0370931B036093920306C0809192031C
:1032800080931A0310921B0320911A0330911B03A1
:1032900080911603909117038217930728F41092D8
:1032A00017031092160306C0821B930B909317030B
:1032B0008093160380918502882329F0809116035C
:1032C0009091170304C08091180390911903909373
:1032D0001F0380931E0380911E0361E00E943B1731
:1032E0008BE20E941F06C82FD0E080918C038823B8
:1032F00009F04DC086E894E066ED71E00E948F24ED
:10330000609118037091190386E894E04AE050E058
:103310000E94BF2386E894E069ED71E00E948F244B
:10332000609141037091420386E894E04AE050E0E6
:103330000E94BF2386E894E06DED71E00E948F2427
:10334000612F70E06F5F7F4F86E894E04AE050E0C5
:103350000E945D2486E894E061EE71E00E948F2473
:1033600086E894E0BE014AE050E00E945D2486E8D1
:1033700094E065EE71E00E948F2460911A037091D1
:103380001B0386E894E04AE050E00E94D023A12F7E
:10339000B0E0FD01EE0FFF1FE55BFC4F80819181E6
:1033A0002091180330911903820F931F918380831A
:1033B000FD01EE0FFF1FE55AFC4F808191812091A6
:1033C0001A0330911B03820F931F91838083A15CAA
:1033D000BC4F9C968C919C978F5F9C968C939C97EE
:1033E000D4968C91D4978F5FD4968C9310921703B8
:1033F00010921603109219031092180310921B03D7
:1034000010921A0310921D0310921C0340916F0238
:10341000442309F453C0C038D10514F0C050D14042
:10342000CE014996C39718F020E030E006C09E0117
:10343000B4E0220F331FBA95E1F75394C50160E160
:1034400070E00E941926A61AB70AC90160E170E06F
:103450000E941926A60EB71EC501B7FE04C0882714
:1034600099278A199B098134910554F180E28515C9
:1034700038F5C50160E170E00E941926EB01D09596
:10348000C195DF4F642F6C0F60936F0289E00E943B
:10349000E10580918C03882369F486E894E06AEE64
:1034A00071E00E948F2486E894E0BE014AE050E07B
:1034B0000E9470245524AA24BB2402C030923D03EC
:1034C00010923C0310923B030E94A81E60932303BA
:1034D00070932403809325039093260360932B031A
:1034E00070932C0380932D0390932E0360933303EA
:1034F00070933403809335039093360360933703BE
:10350000709338038093390390933A0310923E02EC
:10351000109215031092140310923D030E940D089F
:1035200080918C03882359F026E12093020386E8DA
:1035300094E062E073E040E150E00E94E6222D98C2
:103540000E94220CF6CD0E94A81E7B018C01609384
:1035500023037093240380932503909326036090A4
:103560002F037090300380903103909032030E94BB
:10357000220C0E94440E882309F0A7CD809183027B
:10358000882311F18091230390912403A0912503B6
:10359000B0912603209127033091280340912903FD
:1035A00050912A03821B930BA40BB50B8F509742AB
:1035B000A040B04048F40E94A10E882339F00E9438
:1035C000B0150E94250681CD0E94B80E80918D0312
:1035D000882309F44FC08091370390913803A0915C
:1035E0003903B0913A038196A11DB11D20918E033C
:1035F00030918F034091900350919103821793076C
:10360000A407B507B8F58BE793E00E94DC030E949E
:103610000D0810928D0310923C0310923B03809191
:10362000230390912403A0912503B0912603809356
:103630002B0390932C03A0932D03B0932E03809320
:10364000330390933403A0933503B09336038091F2
:103650008C03882339F486E894E061EF71E00E94DE
:10366000922408C086E894E06BE773E040E150E004
:103670000E94E6228091230390912403A0912503C8
:10368000B091260320912B0330912C0340912D0300
:1036900050912E03821B930BA40BB50B88559240BF
:1036A000A040B040B0F180913C03882391F5809117
:1036B0002203882371F180918C03882331F486E8FA
:1036C00094E066EF71E00E94922430923C03809176
:1036D000230390912403A0912503B09126038093A6
:1036E000330390933403A0933503B09336030E94C1
:1036F00071090E940D08439880E068E00E943B1722
:1037000080913F03909140030196909340038093F2
:103710003F038091230390912403A0912503B0914E
:10372000260320913703309138034091390350919B
:103730003A03821B930BA40BB50B885B9B40A04004
:10374000B04010F030923E0267017801C618D708E9
:10375000E808F908D701C6010297A109B109049741
:10376000A105B105D0F483E690E00E94351F0091D9
:103770001A0310911B0386E20E941F06080F111DF9
:1037800010931B0300931A0380911C0390911D0357
:10379000019690931D0380931C0380913E02882321
:1037A00019F02FEF30E02EC0D701C6010C97A10908
:1037B000B1090B97A105B105D8F483E690E00E940A
:1037C000351F009116031091170386E20E941F0611
:1037D000080F111D1093170300931603809118030F
:1037E000909119030196909319038093180308C0D0
:1037F00089E1C816D104E104F10414F40E947E0B9F
:1038000023E230E0C901AA2797FDA095BA2FC81678
:10381000D906EA06FB060CF4DCC080913E02882340
:1038200019F580913C03882309F4439A8091210380
:1038300020912F0330913003409131035091320396
:1038400080FF05C0205E3F4F4F4F5F4F04C0215E99
:103850003F4F4F4F5F4F20932F03309330034093E0
:1038600031035093320310C08091230390912403BD
:10387000A0912503B091260380932F0390933003EA
:10388000A0933103B0933203109121030E94EC0501
:10389000C12FD0E0FE01E15CFC4F84818F5F848307
:1038A00030923D0360913E0227E0629FB0011124F7
:1038B0006F5F80E00E943B1780918C03882309F0A2
:1038C00063C086E894E06CEF71E00E948F24609101
:1038D0001403709115036F5F7F4F7093150360930E
:1038E000140386E894E04AE050E00E94BF23609110
:1038F0001C0370911D036115710569F080911A0315
:1039000090911B030E94052660931A0370931B037A
:103910006093920306C08091920380931A031092E1
:103920001B0386E894E069ED71E00E948F246091AA
:1039300041037091420386E894E04AE050E00E941F
:10394000BF2386E894E06DED71E00E948F24BE01F4
:103950006F5F7F4F86E894E04AE050E00E945D246C
:1039600086E894E065EE71E00E948F2460911A036E
:1039700070911B0386E894E04AE050E00E94BF2368
:1039800086E894E00E941023FE01EE0FFF1FE55A27
:10399000FC4F8081918120911A0330911B03820F8B
:1039A000931F91838083FE01E15CFC4F84A98F5FAC
:1039B00084AB109217031092160310921903109201
:1039C000180310921B0310921A0310921D031092F9
:1039D0001C0380913C03882309F4ABCB0E947E0B2F
:1039E000E0902303F0902403009125031091260317
:1039F0008091330390913403A0913503B091360345
:103A0000E81AF90A0A0B1B0B6091810280913B03B3
:103A1000882349F088E8E81683E1F80680E0080783
:103A200080E018077CF470E080E090E028EE33E05E
:103A300040E050E00E94DA256E157F05800791076F
:103A40000CF077CB30923B0380917C028F3F61F08A
:103A500080918C03882331F486E894E060E072E082
:103A60000E9492240E94F60C80918C03882331F4EA
:103A700086E894E064E072E00E9492240E942506A9
:103A80000E94E6068091230390912403A0912503D0
:103A9000B09126038093330390933403A0933503AE
:103AA000B09336030E94A81E60932F0370933003D7
:103AB00080933103909332033CCB8DE061E00E9410
:103AC000DA1F81E161E00E94DA1F8EE060E00E946F
:103AD000DA1F8FE061E00E94DA1F80E161E00E945E
:103AE000DA1F82E060E00E94DA1F84E061E00E9459
:103AF000DA1F80E060E00E94DA1F81E061E00E944E
:103B0000DA1F80E061E00E94192083E061E00E94FA
:103B1000DA1F85E061E00E94DA1F86E061E00E9422
:103B2000DA1F87E061E00E94DA1F88E061E00E940E
:103B3000DA1F89E061E00E94DA1F8AE061E00E94FA
:103B4000DA1F8BE061E00E94DA1F8CE061E00E94E6
:103B5000DA1F82E161E00E94DA1F83E161E00E94E6
:103B6000DA1FE1E8F0E010821092850010928400E4
:103B700080910B0290910C029093870080938600B5
:103B800082E0809380008AE1808381E080936F00EF
:103B900080E068E47BE042E050E00E94E31D08958D
:103BA000F999FECF72BD61BDF89A80B50895F99973
:103BB000FECF1FBA72BD61BD40BD0FB6F894FA9A30
:103BC000F99A0FBE0895823000F5E82FF0E0EE0F6D
:103BD000FF1FEF50FC4F71836083882319F0813001
:103BE000A1F408C0809169008C7F842B80936900C8
:103BF000E89A089580916900440F551F440F551F9E
:103C0000837F842B80936900E99A08951F920F9215
:103C10000FB60F9211242F933F934F935F936F939F
:103C20007F938F939F93AF93BF93EF93FF93809175
:103C3000F1039091F203892B29F0E091F103F091C7
:103C4000F2030995FF91EF91BF91AF919F918F91F1
:103C50007F916F915F914F913F912F910F900FBE88
:103C60000F901F9018951F920F920FB60F9211246C
:103C70002F933F934F935F936F937F938F939F9374
:103C8000AF93BF93EF93FF938091F3039091F4036D
:103C9000892B29F0E091F303F091F4030995FF914A
:103CA000EF91BF91AF919F918F917F916F915F91B4
:103CB0004F913F912F910F900FBE0F901F9018952D
:103CC0001F920F920FB60F9211242F933F938F9351
:103CD0009F93AF93BF938091F9039091FA03A091C2
:103CE000FB03B091FC033091FD030196A11DB11DB2
:103CF000232F2D5F2D3720F02D570196A11DB11DCB
:103D00002093FD038093F9039093FA03A093FB03A0
:103D1000B093FC038091F5039091F603A091F70313
:103D2000B091F8030196A11DB11D8093F503909306
:103D3000F603A093F703B093F803BF91AF919F915F
:103D40008F913F912F910F900FBE0F901F9018955C
:103D50008FB7F8942091F9033091FA034091FB0357
:103D60005091FC038FBFB901CA0108959FB7F89421
:103D70002091F5033091F6034091F7035091F80339
:103D800086B5A89B06C08F3F21F02F5F3F4F4F4F56
:103D90005F4F9FBF542F432F322F2227280F311DF3
:103DA000411D511D82E0220F331F441F551F8A956C
:103DB000D1F7B901CA0108959B01AC017FB7F8940E
:103DC0008091F5039091F603A091F703B091F80369
:103DD00066B5A89B05C06F3F19F00196A11DB11DE6
:103DE0007FBFBA2FA92F982F8827860F911DA11D5D
:103DF000B11D62E0880F991FAA1FBB1F6A95D1F7FA
:103E0000BC012DC0FFB7F8948091F5039091F603A3
:103E1000A091F703B091F803E6B5A89B05C0EF3F6A
:103E200019F00196A11DB11DFFBFBA2FA92F982F20
:103E300088278E0F911DA11DB11DE2E0880F991FEB
:103E4000AA1FBB1FEA95D1F7861B970B885E93408C
:103E5000C8F2215030404040504068517C4F2115FD
:103E600031054105510571F60895019739F0880F24
:103E7000991F880F991F02970197F1F70895789479
:103E800084B5826084BD84B5816084BD85B582605F
:103E900085BD85B5816085BDEEE6F0E080818160FD
:103EA0008083E1E8F0E010828081826080838081FD
:103EB00081608083E0E8F0E0808181608083E1EBD5
:103EC000F0E0808184608083E0EBF0E080818160BD
:103ED0008083EAE7F0E08081846080838081826073
:103EE000808380818160808380818068808310925C
:103EF000C10008951F93CF93DF93182FEB0161E06A
:103F00000E94DA1F209709F44AC0CF3FD10509F477
:103F100049C0E12FF0E0E957FB4F84918330C1F0B5
:103F2000843028F4813051F08230B1F50CC08630F5
:103F300019F1873049F1843079F514C084B580686F
:103F400084BDC7BD33C084B5806284BDC8BD2EC0EA
:103F500080918000806880938000D0938900C09316
:103F6000880024C080918000806280938000D0937C
:103F70008B00C0938A001AC08091B0008068809343
:103F8000B000C093B30012C08091B00080628093F3
:103F9000B000C093B4000AC0C038D1051CF4812F12
:103FA00060E002C0812F61E00E941920DF91CF9173
:103FB0001F910895CF93DF93482F50E0CA018D5889
:103FC0009B4FFC013491415A5B4FFA018491882345
:103FD00069F190E0880F991FFC01EF5BFB4FA59101
:103FE000B491FC01E55BFB4FC591D491662351F47C
:103FF0002FB7F8948C91932F909589238C93888177
:1040000089230BC0623061F42FB7F8948C91932F01
:10401000909589238C938881832B88832FBF06C03A
:104020009FB7F8948C91832B8C939FBFDF91CF9196
:104030000895482F50E0CA0189579B4FFC012491F5
:10404000CA018D589B4FFC019491415A5B4FFA0174
:104050003491332309F440C0222351F1233071F00D
:10406000243028F42130A1F0223011F514C026307C
:10407000B1F02730C1F02430D9F404C08091800021
:104080008F7703C0809180008F7D8093800010C067
:1040900084B58F7702C084B58F7D84BD09C08091BF
:1040A000B0008F7703C08091B0008F7D8093B00007
:1040B000E32FF0E0EE0FFF1FE55BFB4FA591B491FE
:1040C0002FB7F894662321F48C919095892302C030
:1040D0008C91892B8C932FBF0895682F70E0CB01B2
:1040E00089579B4FFC012491CB018D589B4FFC01BC
:1040F0004491615A7B4FFB019491992319F420E07C
:1041000030E03CC0222351F1233071F0243028F4F8
:104110002130A1F0223011F514C02630B1F0273043
:10412000C1F02430D9F404C0809180008F7703C09F
:10413000809180008F7D8093800010C084B58F7740
:1041400002C084B58F7D84BD09C08091B0008F7797
:1041500003C08091B0008F7D8093B000892F90E0E4
:10416000880F991F8B5A9B4FFC01A591B4918C919C
:1041700020E030E0842311F021E030E0C90108950F
:1041800008951F920F920FB60F9211242F933F9311
:104190004F938F939F93EF93FF938091C00082FD85
:1041A0001DC04091C60020913E0430913F042F5F16
:1041B0003F4F2F7330708091400490914104281735
:1041C000390771F0E0913E04F0913F04E250FC4F5A
:1041D000408330933F0420933E0402C08091C60088
:1041E000FF91EF919F918F914F913F912F910F9060
:1041F0000FBE0F901F901895E0919204F0919304D8
:10420000E05CFF4F8191919120813181821B930B62
:104210008F739070892B11F00E94C02008951F9217
:104220000F920FB60F9211242F933F938F939F936A
:10423000EF93FF9320918204309183048091840452
:10424000909185042817390731F48091C1008F7D42
:104250008093C10014C0E0918404F0918504EE5B6A
:10426000FB4F2081809184049091850401968F7387
:10427000907090938504809384042093C600FF91EE
:10428000EF919F918F913F912F910F900FBE0F90C3
:104290001F901895AF92BF92DF92EF92FF920F930B
:1042A0001F93CF93DF93EC017A018B01DD24403023
:1042B00081EE580780E0680780E0780711F0DD2480
:1042C000D39491E0A92EB12CEC89FD89DD2069F011
:1042D000C50108A002C0880F991F0A94E2F78083E5
:1042E00060E079E08DE390E005C0108260E874E85A
:1042F0008EE190E0A80197010E942C2621503040C9
:1043000040405040569547953795279580E120309D
:10431000380720F0DD2011F0DD24D6CFE889F989B7
:104320003083EA89FB89208319A2EE89FF894081C5
:1043300021E030E0C9010C8C02C0880F991F0A945B
:10434000E2F7482B4083EE89FF894081C9010D8C3B
:1043500002C0880F991F0A94E2F7482B4083EE8928
:10436000FF894081C9010E8C02C0880F991F0A94F1
:10437000E2F7482B4083EE89FF8980810F8C02C0D1
:10438000220F331F0A94E2F7209528232083DF9120
:10439000CF911F910F91FF90EF90DF90BF90AF9062
:1043A0000895DC011C96ED91FC911D97E05CFF4F98
:1043B0002191319180819181281B390B2F733070AD
:1043C000C9010895DC011C96ED91FC911D97E05CFC
:1043D000FF4F20813181E054F040DF01AE5BBF4FE1
:1043E0008D919C9111972817390719F42FEF3FEF02
:1043F00007C08D919C91E80FF91F8081282F30E034
:10440000C9010895DC011C96ED91FC911D97E05CBB
:10441000FF4F20813181E054F040DF01AE5BBF4FA0
:104420008D919C9111972817390719F42FEF3FEFC1
:1044300010C08D919C911197E80FF91F20818D91EB
:104440009C91119701968F73907011969C938E9307
:1044500030E0C9010895DC0191968C9191978823F1
:1044600039F05496ED91FC915597808186FFF9CFF4
:1044700091961C920895CF93DF93EC01EE85FF8512
:10448000E05CFF4F20813181E054F0402F5F3F4FCF
:104490002F733070DF01AE5BBF4F8D919C911197F0
:1044A00028173907D1F3E05CFF4F80819181E054F8
:1044B000F040E80FF91F6083EE85FF85E05CFF4F59
:1044C00031832083EE89FF89208181E090E00F8C89
:1044D00002C0880F991F0A94E2F7282B208381E0FD
:1044E00089A3EC89FD8980818064808381E090E0EC
:1044F000DF91CF910895109289041092880488EE7C
:1045000093E0A0E0B0E080938A0490938B04A093A2
:104510008C04B0938D0485EF92E090938704809390
:1045200086048EEF93E0909393048093920482E448
:1045300094E0909395048093940485EC90E090939C
:1045400097048093960484EC90E090939904809370
:10455000980480EC90E090939B0480939A0481EC03
:1045600090E090939D0480939C0482EC90E0909363
:104570009F0480939E0486EC90E09093A104809326
:10458000A00484E08093A20483E08093A30487E0E6
:104590008093A40485E08093A50481E08093A60421
:1045A0000895CF93DF930E943F1F0E945D1DCCEFC3
:1045B000D0E20E9475172097E1F30E94FC20F9CF0A
:1045C0000E94422508950E94A5240895CF92DF926B
:1045D000EF92FF920F931F93CF93DF937C016B01B8
:1045E0008A01C0E0D0E00FC0D6016D916D01D70106
:1045F000ED91FC910190F081E02DC7010995C80F64
:10460000D91F015010400115110571F7CE01DF913E
:10461000CF911F910F91FF90EF90DF90CF90089571
:10462000EF92FF920F931F938C01DC01ED91FC91AF
:104630000190F081E02D6DE009957C01D801ED91AC
:10464000FC910190F081E02DC8016AE009959C0180
:104650002E0D3F1DC9011F910F91FF90EF900895FE
:10466000CF93DF93EC016115710519F420E030E080
:104670000FC0DB010D900020E9F71197A61BB70BC7
:10468000E881F9810280F381E02DAD0109959C015B
:10469000C901DF91CF9108954F925F927F928F92DF
:1046A0009F92AF92BF92CF92DF92EF92FF920F93C1
:1046B0001F93DF93CF93CDB7DEB7A1970FB6F894D2
:1046C000DEBF0FBECDBF2C01742ECB01223008F40B
:1046D0002AE019A231E2C32ED12CCC0EDD1E822E8F
:1046E0009924AA24BB24672D752FA50194010E944B
:1046F0002C2679018A01C801B701A50194010E9405
:10470000DA25472D461B0894C108D1084A3014F415
:10471000405D01C0495CF6014083E114F1040105EC
:10472000110521F07E2C5F2DC801DDCFC201B6013D
:104730000E943023A1960FB6F894DEBF0FBECDBF06
:10474000CF91DF911F910F91FF90EF90DF90CF906D
:10475000BF90AF909F908F907F905F904F90089503
:10476000DC012115310541F4ED91FC910190F081BE
:10477000E02D642F099508950E944C230895EF922F
:10478000FF920F931F939A017B0100E010E0B801A4
:10479000A7010E94B0231F910F91FF90EF90089501
:1047A000CF92DF92EF92FF920F931F936C017B01E8
:1047B0009A0100E010E0B801A7010E94B0238C012B
:1047C000C6010E941023080F191FC8011F910F91E5
:1047D000FF90EF90DF90CF900895EF92FF920F93AC
:1047E0001F939A01E62EFF2400E010E0B801A70114
:1047F0000E94B0231F910F91FF90EF900895CF92E8
:10480000DF92EF92FF920F931F936C01E62E9A01B5
:10481000FF2400E010E0B801A7010E94B0238C0142
:10482000C6010E941023080F191FC8011F910F9184
:10483000FF90EF90DF90CF900895CF92DF92EF92AC
:10484000FF920F931F93CF93DF93EC016A017B01DB
:104850002115310541F4E881F9810190F081E02DC5
:10486000642F09951FC02A303105D1F477FF17C096
:10487000E881F9810190F081E02D6DE209958C01CC
:1048800044275527BA014C195D096E097F09CE01ED
:104890002AE00E944C239801280F391F04C02AE007
:1048A0000E944C239C01C901DF91CF911F910F9170
:1048B000FF90EF90DF90CF900895EF92FF920F93CB
:1048C0001F937B019A010027F7FC0095102FB80178
:1048D000A7010E941D241F910F91FF90EF90089552
:1048E000CF92DF92EF92FF920F931F936C017B01A7
:1048F0009A010027F7FC0095102FB801A7010E942C
:104900001D248C01C6010E941023080F191FC80125
:104910001F910F91FF90EF90DF90CF9008950E942C
:1049200030230895EF92FF920F931F937C010E9412
:1049300030238C01C7010E941023080F191FC801E2
:104940001F910F91FF90EF9008950F931F93CF93B6
:10495000DF93BC018230910510F462E070E0E091D9
:10496000AA04F091AB0440E050E0A0E0B0E024C025
:104970008081918186179707D0F08617970771F489
:1049800082819381109729F013969C938E931297AE
:104990002CC09093AB048093AA0427C04115510505
:1049A00019F08417950718F48D01AC01EF01DF01B0
:1049B000828193819C01F9013097D1F6411551050F
:1049C000F9F0CA01861B970B8430910580F48A8127
:1049D0009B810115110521F0F8019383828304C0A6
:1049E0009093AB048093AA04FE01329645C0FE0169
:1049F000E80FF91F619371930297998388833CC0F4
:104A00008091A8049091A904892B41F480918C0293
:104A100090918D029093A9048093A80440918E02F6
:104A200050918F024115510541F44DB75EB7809109
:104A30008A0290918B02481B590B2091A804309157
:104A4000A90424173507B0F4CA01821B930B8617FB
:104A5000970780F0AB014E5F5F4F8417950750F0CA
:104A6000420F531F5093A9044093A804F901619386
:104A7000719302C0E0E0F0E0CF01DF91CF911F9190
:104A80000F910895CF93DF939C01009709F48FC095
:104A9000EC0122971B821A826091AA047091AB04E8
:104AA0006115710581F488819981820F931F20918E
:104AB000A8043091A9042817390739F5D093A9041F
:104AC000C093A80474C0DB0140E050E0AC17BD0700
:104AD00008F1BB83AA83FE0121913191E20FF31FFC
:104AE000AE17BF0779F48D919C911197280F391F4C
:104AF0002E5F3F4F3983288312968D919C91139797
:104B00009B838A834115510571F4D093AB04C09304
:104B1000AA044DC012968D919C911397AD010097F8
:104B200011F0DC01D3CFDA011396DC93CE93129708
:104B3000FA0121913191E20FF31FCE17DF0769F4DB
:104B400088819981280F391F2E5F3F4FFA013183E9
:104B500020838A819B8193838283E0E0F0E0DB0104
:104B600012968D919C911397009719F0BC01FD014D
:104B7000F6CFAB014E5F5F4FDB018D919C91840FAF
:104B8000951F2091A8043091A9042817390779F4BA
:104B9000309729F41092AB041092AA0402C0138239
:104BA0001282425050405093A9044093A804DF91D0
:104BB000CF910895629FD001739FF001829FE00D15
:104BC000F11D649FE00DF11D929FF00D839FF00D8C
:104BD000749FF00D659FF00D9927729FB00DE11D38
:104BE000F91F639FB00DE11DF91FBD01CF01112415
:104BF0000895991B79E004C0991F961708F0961B39
:104C0000881F7A95C9F780950895AA1BBB1B51E1AF
:104C100007C0AA1FBB1FA617B70710F0A61BB70B2C
:104C2000881F991F5A95A9F780959095BC01CD01D1
:104C3000089597FB092E07260AD077FD04D0E5DFFB
:104C400006D000201AF4709561957F4F0895F6F70D
:104C5000909581959F4F0895A1E21A2EAA1BBB1B28
:104C6000FD010DC0AA1FBB1FEE1FFF1FA217B30738
:104C7000E407F50720F0A21BB30BE40BF50B661F4E
:104C8000771F881F991F1A9469F760957095809512
:104C900090959B01AC01BD01CF01089597FB092EB2
:104CA00005260ED057FD04D0D7DF0AD0001C38F4FB
:104CB00050954095309521953F4F4F4F5F4F089548
:104CC000F6F790958095709561957F4F8F4F9F4F28
:104CD0000895EE0FFF1F0590F491E02D0994F894CC
:024CE000FFCF04
:104CE20046697865642100537461746973746963F9
:104CF2007320696E20454550524F4D206572617395
:104D020065200020646F6E65004C617374207374BB
:104D1200617469736963733A28002D002920666FF4
:104D2200726D2000464E2020636E74200020200009
:104D32000D0A42696E642066696E64207374617242
:104D4200743A2000204D61786C6576656C5B005D7D
:104D52003D000D0A54696D65733A200042696E6424
:104D62003D002046636F72723D0020536571756588
:104D72006E63653A200020456E6400532F4E3D005D
:104D82004952513D00535441525400543D00505039
:104D92004D206F75740053425553206F7574004651
:104DA200694572722100435243210042494E442117
:104DB200004653205700523D0020533D0020433D02
:104DC2000020413D0020526E3D0046636F72723DED
:104DD200002453415400746F2066730024524C0027
:104DE200534F5300496E6974000C01409CB80BB8D4
:104DF2000BB80BB80BB80BB80BB80BB80BB80BB899
:104E02000BB80BB80BB80BB80BB80BB80BB80BB888
:104E12000BB80BB80BB80BB80BB80BB80B0A01C721
:104E2200E0CF1F2B002B002B00250025002500259D
:104E320000250028002800204080010204081010EC
:104E4200202040800102040810000458006348CC6E
:104E5200000100004D9359A76DBD7FD16504020189
:104E6200001EC7010100004BD2048000AC04000008
:104E72000102030405060B0C0D0E0F101112131480
:104E820018191A1C28292A820289029302B002C226
:104E920002E102F702FE0205030C0313031A0321C7
:104EA2000328032F03460387039F03A803B103D6F6
:104EB20003FE031E04050006000700080009000A9D
:104EC200000B000C00120013000000010006000796
:104ED20000000000003B22E622D1210222E2212B27
:024EE2002200AC
:00000001FF
