:100000000C9475020C94DC1E0C94091F0C949D0238
:100010000C949D020C949D020C949D020C949D02E4
:100020000C949D020C949D020C949D020C949D02D4
:100030000C949D020C94C5020C949D020C949D029C
:100040000C94361F0C949D020C9497210C94E5217E
:100050000C949D020C949D020C949D020C949D02A4
:100060000C949D020C949D02507265737320276D51
:100070002720746F207374617274204D454E552093
:10008000696E2031302073656300464C415348202F
:100090004552524F522121212043616E277420770F
:1000A0006F726B21004572726F72207265616420FD
:1000B00073657474696E6773210053657474696E37
:1000C000677320726573657420746F206465666160
:1000D000756C7473210046486E3A204D696E20415C
:1000E0007672204D6178000A0D426179636869205B
:1000F000736F66742032303134005258204F70656F
:100100006E20457870657274205632204600546F18
:1001100020456E746572204D454E552050726573B2
:100120007320454E544552005479706520526567DE
:1001300020616E6420707265737320454E54455281
:100140002C20747970652056616C756520616E6431
:1001500020707265737320454E5445522028713DBE
:10016000517569743B2073732F736C2F73722F73E7
:10017000613D53746174290052673D56616C2009DA
:10018000436F6D6D656E7473202D2D2D2D2D2D2DCE
:100190002D2D2D2D2D2D2D2D2D2D2D2D2D2D2D2D8F
:1001A000004578656375746520726562696E643FA9
:1001B0002041726520796F75207375726528792FDB
:1001C0006E293F0046536E20496E465320204472EC
:1001D0006F70733A312020203220202033202020DD
:1001E00034202020352020203620202037202020B9
:1001F00038202000525353493A3120202032202009
:10020000203320202034202020352020203620209C
:10021000203720202038204E6F6973653A31202026
:100220002032202020332020203420202035202080
:10023000203620202037202020380046536E2049C9
:100240006E4653204472253A31202032202033203C
:100250002034202035202036202037202038202030
:10026000532F4E3A312020203220202033202020CE
:100270003420202035202020362020203720202028
:10028000380042696E64204E004672657120436FEB
:10029000727200536572766F203135302520737489
:1002A00072656368206E756D2028312D313229000A
:1002B0005374617469737469637320656E61626CF1
:1002C000650031316269742F313063682028313D17
:1002D0007965732C20322F333D4675746162612934
:1002E000004469736372657465206F75747075740A
:1002F00073206D61736B0031206F7574707574209D
:100300006D6F64653A2050574D2F50504D2F53421A
:100310005553203D20302F312F32005061636B65E3
:1003200074206C6F737420736F756E64206F7574B6
:100330007075742028303D6F66662C20312C322C6D
:10034000372900486F7020463100486F70204632D0
:1003500000486F7020463300486F702046340048D4
:100360006F7020463500486F7020463600486F7029
:1003700020463700486F7020463800426561636F41
:100380006E204620283235353D64697361626C65A4
:100390002900426561636F6E20506D617820286D81
:1003A0005774293A20302D312E323B20312D323BEB
:1003B00020322D333B20332D363B20342D31323B40
:1003C00020352D32353B20362D35303B20372D3131
:1003D000303000426561636F6E2073746172742007
:1003E00074696D6520287365632900534157204661
:1003F0006D696E0053415720466D61780050504D35
:100400002F53425553206D6F646520317374205013
:10041000574D2063686E6C2028312D3829205B32BF
:100420005D005253534920747970653A20736F759B
:100430006E642830292F6C6576656C28312D39392A
:100440003D61766572616765290052535349206D9D
:100450006F64653A206C6576656C2830292F534EA1
:1004600020726174696F2831290052535349206FFB
:100470007665722050574D286368616E3A312D3190
:10048000322920302D6E6F742075736500000000D6
:1004900000240027002A0000000000250028002B6F
:1004A00000000000002300260029000404040404C6
:1004B0000404040202020202020303030303030111
:1004C00002040810204080010204081020010204E8
:1004D00008102000000007000201000003040600CD
:1004E0000000000000000000512311241FBECFEFC8
:1004F000D8E0DEBFCDBF13E0A0E0B1E0EEE8FEE45F
:1005000002C005900D92A231B107D9F714E0A2E123
:10051000B3E001C01D92A03CB107E1F714E0CAEEC0
:10052000D4E004C02297FE010E944127C83ED107B3
:10053000C9F70E94A7230C9445270C940000FC01E6
:1005400088279927E89421912032E9F3293010F087
:100550002E30C8F32B3241F02D3239F4689404C0A8
:100560000E94BD02820F911D219120532A30C0F3B9
:100570001EF4909581959F4F08957AE0979F902D56
:10058000879F802D910D112408951F920F920FB611
:100590000F9211242F933F934F935F938F939F93C9
:1005A000AF93BF93EF93FF93809184009091850068
:1005B0008097D0F385B190914802892385B988B19D
:1005C00090914902892388B98BB190914A0289237D
:1005D0008BB980913203882309F47DC08091030494
:1005E0008F5F8093030490914502981730F4109226
:1005F000230310922203109203044091030449172D
:10060000B1F42091220330912303E0911302F09181
:100610001402CF01805797412817390718F020E7B7
:1006200037E147C0CF01821B930B9C0142C0A42F2E
:1006300050913003523011F0E42F04C0E091940245
:10064000E40FE150FF27E7FDF095EE0FFF1FE35D9C
:10065000FD4F2081318124523040809122039091BE
:100660002303820F931F9093230380932203552328
:1006700069F0513049F44E5F80919402A42FA81B79
:1006800042501A161CF015C0A42FAF5FAA3088F490
:10069000BB27A7FDB095FD01EE0FFF1FE55BFD4FEA
:1006A0000190F081E02D8081A15ABD4F9C91892B52
:1006B000808380913003813091F44B3080F45D9AD7
:1006C000809184009091850084519240C8F3245F0A
:1006D00031405D9804C02091130230911402809142
:1006E000130290911402821B930B909385008093C8
:1006F0008400FF91EF91BF91AF919F918F915F9196
:100700004F913F912F910F900FBE0F901F90189512
:10071000CF93DF9380913003882359F080917E023C
:100720008E7F80937E028091FE03813011F41092BF
:10073000FE0390917E02992359F08091FE03682F69
:1007400070E0CBE4D2E020E030E0492F50E005C07B
:100750008091FE03882389F72EC0CA01022E02C0B1
:10076000959587950A94E2F780FD05C0C901019629
:1007700086179707D1F4888199818832910511F401
:10078000E1E005C08B9711F4E2E001C0E0E0F0E0A9
:10079000E85BFD4FD901A759BD4F80819C91892B02
:1007A0008083F901E15AFD4F10822F5F3F4F22965F
:1007B0002830310591F6DF91CF9108951F939BE08A
:1007C000899F802D1124182F1695169516958770E0
:1007D000A82FB0E048E050E04A1B5B0BE12FF0E0AF
:1007E000E955FC4F21E030E0042E02C0220F331FF8
:1007F0000A94E2F7215030E026233723082E02C066
:10080000220F331F0A94E2F79081922B90831F5F8F
:1008100002C0769567954A95E2F7E12FF0E0E95539
:10082000FC4F9081962B9083863040F01F5FE12F24
:10083000F0E0E955FC4F8081872B80831F9108955C
:100840004F925F927F928F929F92AF92BF92CF9280
:10085000DF92EF92FF920F931F93CF93DF937C0170
:1008600020917B02822F6AE00E94CF26792E7A9413
:10087000822F0E94CF26A82EAA94B0907D0221E05C
:100880002B1508F49FC0E7019F858D85D701E5E111
:100890004E2EE2E05E2EE0E0F0E0C82EDD2472E0B5
:1008A000872E912C092F10E012968C911297482FC9
:1008B00050E0440F551F440F551F6E2FE83030F5A0
:1008C0002E2FE701898190E00E2E02C09595879525
:1008D0000A94E2F780FD5460673061F0C401022E93
:1008E00002C0880F991F0A94E2F780239123892B75
:1008F00009F04260BB20D1F1C60102C095958795F1
:100900002A95E2F780FF32C0416030C0440F551F86
:10091000BB2061F1E83041F4E7018C8590E08770FD
:100920009070482B592B22C0E93019F040E050E07C
:100930001DC0E7018C8590E023E0959587952A9569
:10094000E1F79C0127703070422B532B95958795CA
:1009500095958795827090702091230230912402A2
:10096000822B932B9093240280932302671511F01E
:100970006A15C1F4CA01805094409C0135952795B1
:10098000280F391F7BEF2035370714F420E53BEFA4
:10099000C90124E0813B920714F080EB94E0AC01A4
:1009A00040505C4F4854584FE201499359932E01EF
:1009B00031961196EC30F10509F076CFF7013785C5
:1009C000317089C0809130038230B9F4F3E0BF16F2
:1009D00041F4E7EAF3E0119223E0E53BF207D9F7AF
:1009E0000CC0D701E7EAF3E011968C91119781933F
:1009F000119673E0E53BF707B9F7CC24C39401E007
:100A0000DD24E9E09E2E5CC0440F551FF701EC0D7C
:100A1000F11D808190E0202F30E082239323892BE9
:100A200011F0C42BD52B003819F4C39401E001C098
:100A3000000F6F5F6B3041F783E0B81611F01D2D8A
:100A40000AC0192D1D1980913003823021F4812FA5
:100A5000BE010E94DE03171511F01A15C1F4CE0174
:100A6000805094409C0135952795280F391F9BEFA6
:100A70002035390714F420E53BEFB901E4E0213BD0
:100A80003E0714F060EB74E0EB01C050DC4FE12F47
:100A9000F0E0EE0FFF1FEB5EFD4FCE01880F991FB8
:100AA000880F991F8C0F9D1F959587959595879514
:100AB0008052994F91838083D394FAE0DF1631F00E
:100AC00060E041E050E0C0E0D0E0A0CFEC0CF11CD1
:100AD000E7013881307880917E02882389F1ABE488
:100AE000B2E049E652E025E1E22E22E0F22E61E09A
:100AF000082F10E0862F90E080239123892B99F016
:100B0000F70180819181ED91FC911197EA01288193
:100B1000895B9B4020F08081822B808304C0808190
:100B200020952823208312964F5F5F4F82E090E04C
:100B3000E80EF91E92E0AB35B90711F0660FDACF77
:100B4000832FDF91CF911F910F91FF90EF90DF9056
:100B5000CF90BF90AF909F908F907F905F904F907D
:100B600008959C0180917D028230E0F0F90190E0CF
:100B70005CE8B901615F7F4F8181982740E0892F50
:100B800090E09C013595279580FF03C0952F922713
:100B900001C0922F4F5F483091F73196E617F70763
:100BA00059F71BC0F90190E05CE8B901635F7F4F22
:100BB0008281982740E0892F90E09C013595279508
:100BC00080FF03C0952F922701C0922F4F5F4830BE
:100BD00091F73196E617F70759F7892F08955C9A30
:100BE00042985C9898E010C087FF07C042980000C8
:100BF000419A0000429A000006C0429800004198C5
:100C00000000429A0000880F915070F742980895B2
:100C10008F770E94EF050895429898E010C087FFF3
:100C200007C042980000419A0000429A000006C0A6
:100C30004298000041980000429A0000880F9150AD
:100C400070F7429808951F93162F80680E94EF0551
:100C5000812F0E940C065C9A1F9108951F9380912A
:100C600031038F5F80933103883010F0109231038D
:100C7000E0913103F0E0E158FD4F108189E7612FE9
:100C80000E94230680919202181738F080919302F7
:100C9000811718F08EE064E002C08EE060E00E94F0
:100CA00023061F910895429880E090E0880F429AB1
:100CB000000030998160429800009F5F9830B1F742
:100CC00008950E9408060E9453065C9A089583E0E6
:100CD0000E9461068093B50384E00E9461068093C0
:100CE000B60386E060E00E94230687E061E00E9490
:100CF000230660917A02662311F089E002C089E040
:100D000067EC0E9423068AE065E00E9423068BE0E0
:100D100062E10E9423068CE065E10E9423068DE0DB
:100D20006AE00E9423068EE060E00E9423068FE1C5
:100D300063E00E9423068EE16AE00E94230682E1BE
:100D400060E60E94230683E168EF0E9423068FE09D
:100D500060E80E9423068DE160E40E9423068CE196
:100D600066E20E94230680E264E40E94230681E298
:100D700060E00E94230682E262EF0E94230683E283
:100D80006CE70E94230684E266E00E94230685E267
:100D90006DE70E9423068AE26EE10E94230680E34B
:100DA0006CEA0E94230682E36CE80E94230683E338
:100DB0006AE00E94230684E364E00E94230685E340
:100DC00062E20E94230686E36DE20E94230687E327
:100DD00064ED0E94230688E360E00E94230689E315
:100DE00060E00E9423068EE360E10E9423068DE608
:100DF0006FE00E9423068EE66CE30E9423068FE6D6
:100E00006FE90E94230689E660E60E94230680E7D8
:100E10006EE20E94230689E760E00E9423068AE7CB
:100E200066E00E94230681E763E20E94230682E7D0
:100E30006EE00E94230685E763E50E94230686E7AD
:100E40006CE40E94230687E760EE0E942306089563
:100E500087E061E00E9423068EE764E20E94230699
:100E600088E063E00E94230688E060E00E94230699
:100E700087E065E00E94230685E062E00E94230689
:100E800083E00E9461068093B50384E00E946106BE
:100E90008093B603089583E00E9461068093B503B2
:100EA00084E00E9461068093B60387E061E00E94BF
:100EB00023060895482F8091F5039091F603481773
:100EC00021F49C5E9093F60308952091F7033091EE
:100ED000F803290F311D3093F8032093F70301C065
:100EE00078948091840090918500B901681B790BFA
:100EF00062327105A8F7F894809184009091850082
:100F000028173907C9F7442311F05D9801C05D9A8D
:100F10004093F50384E18093F6030895EF92FF92E6
:100F20000F931F93CF93DF93E82E80E00E945A0720
:100F3000FF2410E001E0CE2DD0E0802F90E08C2344
:100F40009D23892B29F081E00E945A071F5F03C06F
:100F500080E00E945A07F39488E0F81611F0000F21
:100F6000ECCF812F81700E945A0781E00E945A07BE
:100F700081E00E945A07DF91CF911F910F91FF905E
:100F8000EF900895DF92EF92FF920F931F93CF930C
:100F9000DF9380913003823009F079C08FE0809335
:100FA000DC0390914C03992311F018E001C010E08C
:100FB0001093F3031092F40380917D028230A0F02D
:100FC000992391F4E7EAF3E0ADEDB3E081918D93DD
:100FD00083E0E53BF807D1F71091B4031F734AE0B3
:100FE000FEE0DF2E00E404C040E0DD24D39401E005
:100FF0008091A203E82EFF24E3E0EE0CFF1CEA95AB
:10100000E1F7C0912E03D0912F0373E0CC0FDD1FC9
:101010007A95E1F74C30A0F4E42FF0E0EE0FFF1FDB
:10102000E35DFD4F80819181805E9640880F991F1E
:10103000880F991F65E070E00E94DB26CB0107C096
:101040004D3011F4C70103C04E3019F4CE0120E039
:101050000AC04F3019F480E096E0F9CF80E090E0CC
:10106000F6CF9695879580FD102B003849F4ED2D2D
:10107000F0E0E452FC4F1083D39410E001E001C093
:10108000000F2F5F2B3069F74F5F403118F2DF916F
:10109000CF911F910F91FF90EF90DF90089520E086
:1010A00030E0F894F901E35DFD4FD901AB5EBD4F2F
:1010B0008D919C919183808378942E5F3F4F28314E
:1010C000310579F7E0919102EE23A1F0F894F0E078
:1010D000EE0FFF1FE55DFD4F80912E0390912F03D2
:1010E00086509F4FA3E0880F991FAA95E1F791833F
:1010F0008083789481E0809332030E94C207089530
:10110000EF92FF920F931F93CF93DF938091D603BB
:101110008093BB0390914F039093BC0380914C0349
:10112000882389F480913203882369F0CDEBD3E0E2
:101130002BE733E010EEE12E1FEFF12EE20EF31E4F
:10114000F901870104C090689093BC03EFCFB89772
:101150008081B8968883188A18866081662339F062
:10116000D8018D919C9170E00E94DB266887608594
:10117000662349F0D80150968D919C91519770E06B
:101180000E94DB26688B219631960E5F1F4FB3E0DD
:10119000C53CDB07E1F6F701118A108AD7011D92E1
:1011A0001D927D01F9011082108628523040D9012C
:1011B0001C92275D3F4FBBE6EB16B3E0FB0659F7E9
:1011C0001092500310924F031092D503DF91CF91EC
:1011D0001F910F91FF90EF9008950F931F93CF935E
:1011E000DF9305E112E0C0E4D0E0F801418184E042
:1011F00094E0BE010E94AD1E219684E094E0BE0101
:10120000F80140810E94AD1E0E5F1F4F2196F2E053
:101210000D321F0751F7DF91CF911F910F91089564
:10122000462FBC016F5E7F4F84E094E00E94AD1EAC
:101230000895DF92EF92FF920F931F938C01D62EA9
:10124000472F84E0E82E84E0F82EC701B8010E9401
:10125000AD1E0F5F1F4FC701B8014D2D0E94AD1E7F
:101260001F910F91FF90EF90DF900895EF92FF9202
:101270000F931F93CF93DF9308E712E0EE24FF2430
:10128000C0E0D0E0CE01F80160810E941009F801B1
:1012900081918F01E80EF11C2196C730D10591F79D
:1012A000CDEFD3E007E010E0C80168810E9410098B
:1012B0008991E80EF11C0F5F1F4FF4E0C130DF078A
:1012C00099F7CFE7D2E00BE010E0C80168810E94F7
:1012D00010098991E80EF11C0F5F1F4F82E0C7389B
:1012E000D80799F7C7E8D2E003E110E0C8016881A8
:1012F0000E9410098991E80EF11C0F5F1F4FE2E078
:10130000CD38DE0799F789E190E0609192020E9462
:10131000100980919202E701C80FD11D8AE190E087
:10132000609193020E94100980919302C80FD11D11
:101330008CE190E0609194020E94100980919402E7
:10134000C80FD11D0FE812E098E2E92EF12CC70179
:10135000F80160810E941009F80181918F01C80F86
:10136000D11D0894E11CF11CF2E002391F0779F746
:101370008AE090E0BE010E941909DF91CF911F9190
:101380000F91FF90EF900895AF92BF92CF92DF92AE
:10139000EF92FF921F93CF93DF9345E1C42E42E07B
:1013A000D42E30E4E32EF12C28EBA22E2BE0B22E2B
:1013B00084E094E0B7010E94A61E182FB7016F5F6A
:1013C0007F4F84E094E00E94A61ED12FC0E09E01D2
:1013D000280F311DC901F601318320838C569740B7
:1013E0008959984018F0F601B182A08222E030E0DD
:1013F000E20EF31EC20ED31E38E5E316F104C1F669
:10140000DF91CF911F91FF90EF90DF90CF90BF9031
:10141000AF900895BC016F5E7F4F84E094E00E941E
:10142000A61E0895DF92EF92FF920F931F938C01F7
:1014300054E0E52E54E0F52EC701B8010E94A61E27
:10144000D82E0F5F1F4FC701B8010E94A61E3D2D69
:1014500020E0280F311DC9011F910F91FF90EF90DF
:10146000DF9008950F931F93CF93DF9300E010E078
:10147000C0E0D0E0CE010E940A0AFE01E858FD4F0C
:101480008083080F111D2196C730D10599F7C7E059
:10149000D0E0CE010E940A0AFE01EA50FC4F808390
:1014A000080F111D2196CB30D10599F7CBE0D0E084
:1014B000CE010E940A0AFE01EC58FD4F8083080FFE
:1014C000111D2196C331D10599F7C3E1D0E0CE01BA
:1014D0000E940A0AFE01EC58FD4F8083080F111D7F
:1014E0002196C931D10599F780918802883008F09A
:1014F00053C0863008F051C0823010F491E002C031
:1015000091E0891B80938902981708F4891B8093C6
:101510008A0210928B0289E190E00E940A0A80936D
:101520009202080F111D8AE190E00E940A0A80933E
:101530009302080F111D8CE190E00E940A0A982F77
:101540008150883020F490939402090F111DC8E255
:10155000D0E0CE010E940A0AFE01E959FD4F8083C6
:10156000080F111D2196CB32D10599F78091910278
:1015700081508C3010F0109291028AE090E00E942D
:10158000120A20E08017910709F421E0822FDF91F1
:10159000CF911F910F91089587E092E0B2CF0F9302
:1015A0001F93CF93DF9320911202222379F1E0E081
:1015B000F0E000E010E08491080F111D319680E406
:1015C000E030F807C1F7922F80E020911102EC0182
:1015D000C20FD11D86E090E00E94120AC817D907F9
:1015E00061F086E090E0BE010E94190988E090E079
:1015F000B8010E94190981E00AC088E090E00E94C9
:10160000120A8017910711F08FEF01C080E0DF917F
:10161000CF911F910F9108950F931F93E2E0F0E097
:1016200081E2809357008491843931F488EF91E00E
:10163000909375028093740284E094E06CE070E013
:101640000E94A61E082F10E01093770200937602E6
:1016500084E094E06DE070E00E94A61E382F20E048
:10166000200F311F30937702209376022835310501
:1016700038F0809174029091750228173907C0F0F4
:1016800088E590E0909377028093760284E094E07E
:101690006CE070E048E50E94AD1E4091770284E066
:1016A00094E06DE070E00E94AD1E1092D60316C06B
:1016B000C901CE976AE170E00E94DB26882331F0F1
:1016C000281B3109309377022093760284E094E05E
:1016D0006EE070E00E94A61E8093D6038091D60330
:1016E0008F5F8093D603843610F01092D603ABE55B
:1016F000B3E0FD01B09651961C921E9250971D9238
:101700001D9210821086B8971082B99683E0AB368E
:10171000B80789F71092500310924F0310925203AA
:10172000109251038AE18093D5030E947E1F60933B
:10173000D7037093D8038093D9039093DA031F9152
:101740000F91089580914E03813019F482E08093C7
:101750004E0380914E03833069F484E080934E03FE
:101760000E947E1F6093A3037093A4038093A5033C
:101770009093A603089580913003823011F0E0E049
:1017800015C00E948C1FE0E02091B7033091B80390
:101790004091B9035091BA03621B730B840B950BF4
:1017A000635679418040904008F0E1E08E2F089523
:1017B000EF92FF920F931F9380917C02882309F48C
:1017C00096C00E94BB0B882309F091C08AC0F0E04C
:1017D00060917602709177026E0F7F1FE554FC4F87
:1017E00084E094E040810E94AD1E8091D5038F5F1C
:1017F0008093D5038A3109F04CC080917602909194
:1018000077024A9690937702809376022091740231
:101810003091750282179307E0F188E590E090938C
:1018200077028093760235C0EA3139F4409177022D
:1018300084E094E06DE070E008C0EB3171F484E086
:1018400094E06CE070E0409176020E94AD1E8091C1
:10185000D5038F5F8093D5031CC0EC31D1F48DE1AB
:101860008093D5038091510390915203892B41F4C9
:1018700084E094E06EE070E04091D6030E94AD1EDB
:10188000809151039091520301969093520380935B
:10189000510320913303309134034091350350912B
:1018A00036038091D7039091D803A091D903B091CA
:1018B000DA0379018A01E81AF90A0A0B1B0BD8012D
:1018C000C70180569A4EA040B04088F02093D703BD
:1018D0003093D8034093D9035093DA030E948008D1
:1018E00006C0E091D503EA3108F09ECF70CF1F917A
:1018F0000F91FF90EF9008950F931F93CF93DF9375
:1019000080913003823009F057C0809132038823E0
:1019100009F452C00E948C1FAB01BC018091B70337
:101920009091B803A091B903B091BA038A019B01C9
:10193000081B190B2A0B3B0BD901C801835699418F
:10194000A040B040C8F12091840030918500809182
:101950001302909114028F5F98418217930760F1F0
:101960001EC08091F30384608093F3031092F5030B
:101970001092F603F89480918400909185009093E2
:10198000F8038093F7035D9ACCEDD3E089910E9430
:101990008E0723E0C53FD207C9F778940DC0409366
:1019A000B7035093B8036093B9037093BA0380915F
:1019B0004D038823B1F6DACFDF91CF911F910F91BC
:1019C0000895EF92FF920F931F938C010E948C1F3A
:1019D000780100E010E0E60EF71E081F191F02C094
:1019E0000E947C0C0E948C1F6E157F05800791075A
:1019F000B8F31F910F91FF90EF900895EF92FF922F
:101A00000F931F93CF93DF937B01142F9C014427E7
:101A100037FD4095542F60E271EA87E090E00E9424
:101A20002427E9012530310514F4C5E0D0E0177012
:101A300018608DE6612F0E9423062D9A61E070E008
:101A400080E090E00E94B21F2D98A895B7018827EA
:101A500077FD8095982F20E930ED43E050E00E941B
:101A6000B0269E01442737FD4095542F0E9424271D
:101A7000790100E010E00AC0419ACE010E94E10C19
:101A80004198CE010E94E10C0F5F1F4F0E151F05FC
:101A900098F3DF91CF911F910F91FF90EF900895F0
:101AA00083E00E9461068093B50384E00E94610692
:101AB0008093B60386E060E00E94230687E061E041
:101AC0000E94230689E0609147020E9423068AE073
:101AD00065E00E9423068BE062E10E9423068CE011
:101AE00065E10E9423068DE06AE00E9423068EE0F5
:101AF00060E00E94230680E76CE20E94230680E3F8
:101B000060E00E94230689E7609187020E94230615
:101B10008AE766E00E94230681E762E10E942306CD
:101B200082E762E00E94230683E760E00E942306CA
:101B300084E760E00E9423068EE060E00E942306B6
:101B400060918802677068608DE60E9423066AE0F3
:101B500070E080E090E00E94B21F87E069E00E94A0
:101B6000230688EB91E061E070E0409188020E94DA
:101B7000FE0C8DE591E061E070E0409189020E94E9
:101B8000FE0C85E091E061E070E040918A020E94E5
:101B9000FE0C8FEA90E061E070E040918B020E94C1
:101BA000FE0C87E061E00E94230608950E944B0727
:101BB00062E370E080E090E00E94B21F0E9428077C
:101BC00000000895CF92DF92EF92FF920F931F9340
:101BD000CF93DF93982FEB01D42EC22EA89589E7DF
:101BE000692F0E942306CC2021F08DE160E40E9441
:101BF00023060E94D60D0E947E1F7B018C01CE0120
:101C0000A0E0B0E0E80EF91E0A1F1B1F83E08093DE
:101C10004E0307C00E947E1FE616F7060807190745
:101C200020F080914E038330A9F380914E038430DD
:101C300009F07AC08FE70E940806C2E1D3E00E9453
:101C40005306899383E0C232D807C9F70E94280758
:101C50008091F903882329F0CE0140970E94B105B5
:101C60003EC0FE013E9790E05CE88081982740E00E
:101C7000892F90E09C013595279580FF03C0952F13
:101C8000922701C0922F4F5F483091F7319683E041
:101C9000E132F80751F7992321F480917D02817098
:101CA0001CC03E9790E05CE88081982740E0892F37
:101CB00090E09C013595279580FF03C0952F9227D2
:101CC00001C0922F4F5F483091F7319683E0E232A6
:101CD000F80751F7992341F582E080937D0281E076
:101CE0008093F903DD2021F080911203D816E1F4EE
:101CF000CC20C1F08BE20E9461062091FB03309161
:101D0000FC03482F50E0813810F020503140240F60
:101D1000351F3093FC032093FB038091FA038F5F00
:101D20008093FA0381E001C080E0DF91CF911F91A1
:101D30000F91FF90EF90DF90CF9008951F938091C7
:101D40007A02882309F054C08AE994E00E94A7220D
:101D5000181619060CF04CC08AE994E00E94D822AB
:101D60008D30910591F480918D0280937A02809359
:101D700047020E9436098AE994E060E071E00E941F
:101D800068250E94670681E034C08E33910531F0EA
:101D90008E32910519F08E3E910521F480918D02CD
:101DA0008F5F0CC08C33910531F08C32910519F0A6
:101DB000813A9105E9F480918D02815080938D02E2
:101DC00080918D02882319F48FEF80938D021091FA
:101DD0008D0289E0612F0E9423068AE994E0612F39
:101DE0004AE050E00E94D52480918D028093470202
:101DF00080E01F9108958AE994E00E94A7221816B6
:101E0000190614F020E00CC08AE994E00E94D82260
:101E10008D36910521F020E08D34910509F421E003
:101E2000822F0895FF920F931F9380913303909117
:101E30003403A0913503B091360320919E03309175
:101E40009F034091A0035091A103821B930BA40B0D
:101E5000B50B4497A105B10508F446C08AE994E0A2
:101E60000E94A722082F10E0FF24F3943BC08AE9C8
:101E700094E00E94D822982F80919B03882359F4E4
:101E8000963179F590938B03F0929B0310929D030A
:101E900010928E0226C0E82FF0E0E557FC4F9083A9
:101EA0008F5F80939B038031E0F010929B038BE85F
:101EB00093E00E94B1058823A1F4809133039091AF
:101EC0003403A0913503B091360380939E03909321
:101ED0009F03A093A003B093A10381E080939D038F
:101EE00003C01F5F10171CF21F910F91FF90089500
:101EF0001F93182F06C08AE994E060E20E94112324
:101F000011501123C1F71F9108951F9394E6899FE3
:101F1000C00111246EEE70E00E94EF26162F643689
:101F200010F013E605C06A3018F481E00E94780FC3
:101F30008AE994E0612F4AE050E00E94C32481E0E6
:101F40000E94780F1F9108951F93182F8A3010F464
:101F500082E003C0843618F481E00E94780F8AE999
:101F600094E0612F4AE050E00E94C32481E00E9487
:101F7000780F1F910895982F8091DB03811196951A
:101F8000892F0E94A40F0895CF93DF938AE994E0EC
:101F900067E071E00E946525C8E5D0E012C084E0EA
:101FA00094E0BE014FEF0E94AD1ECE018F7790707E
:101FB000892B29F48AE994E06EE20E941123A89506
:101FC00021968091740290917502C817D90738F351
:101FD00088E590E090937702809376021092D60382
:101FE00084E094E06CE070E048E50E94AD1E409112
:101FF000770284E094E06DE070E00E94AD1E84E022
:1020000094E06EE070E04091D6030E94AD1E0E9405
:102010000C0B8AE994E063E271E00E946825DF918D
:10202000CF9108951F93CF93DF93EC01162FFE01FC
:1020300021966491662329F08AE994E00E94112395
:10204000F6CF112321F08AE994E00E94E623DF9184
:10205000CF911F9108955F926F927F928F929F927E
:10206000AF92BF92CF92DF92EF92FF920F931F93A6
:10207000CF93DF93833719F020E0833509F421E013
:10208000822E8C3619F090E08C3409F491E0592EB0
:10209000823719F0BB24823519F4BB24B39402C0F3
:1020A000843619F06624843411F466246394109203
:1020B000DB038A3518F481E08093DB03222341F4AB
:1020C000992331F4BB2021F488248394552453941C
:1020D0008AE994E069E271E00E9465258AE994E06A
:1020E00068E570E04AE050E00E9433258AE994E018
:1020F0006AE371E00E946525609174027091750237
:102100008AE994E04AE050E00E9495248AE994E04C
:102110006CE371E00E946525609176027091770210
:102120008AE994E04AE050E00E94A6248AE994E01B
:1021300064E471E00E946525882029F084EC91E038
:1021400060E00E941210BB2019F08BE392E004C003
:10215000552031F084EF91E061E00E94121004C03C
:102160008AE994E00E94E623C0917602D09177023A
:10217000782C770C83E0780E9924FF248E010F5F72
:102180001F4F84E094E0BE010E94A61EA82E84E6A4
:102190008A1520F4662011F46A96AFC0AF10992416
:1021A0008A2D0E94A40F9394892D0E94A40F882049
:1021B00019F4BB2009F440C078010894E11CF11C1B
:1021C00084E094E0B8010E94A61E182F8F770E9429
:1021D000A40F81E00E94780F812F881F8827881F15
:1021E0000E94A40F872D0E94780F882089F0B701E4
:1021F0008E01065F1F4FEB01219684E094E00E9460
:10220000A61E0E94A40FC017D10799F0BE01F3CFFC
:10221000B7018E01065F1F4FEB01219684E094E029
:102220000E94A61E0E94850FC017D10711F0BE01A3
:10223000F3CFE701289602C0E8012996552019F44A
:10224000BB2009F453C083E00E94780F882019F066
:1022500081E00E94780FBB2009F18E01E8E0CE2ECC
:10226000D12CCC0EDD1E84E094E0B8010E94A61EA5
:10227000F82E085F1F4F84E094E0B8010E94A61E6C
:1022800007501040F81610F480E002C0F81A8F2DA5
:102290000E94BB0F0C151D0531F728C0BE018E0131
:1022A000085F1F4F7B010894E11CF11C84E094E05F
:1022B0000E94A61E0E94BB0FE016F10611F0B701A6
:1022C000F1CF84E00E94780FB80160968B010F5F18
:1022D0001F4F84E094E00E94A61E0E94BB0FB8012D
:1022E0000C171D0799F7E701289601C060968AE947
:1022F00094E00E94E623A895FA2C809174029091B4
:102300007502C817D90710F0C8E5D0E080917602B1
:1023100090917702C817D90709F030CFDF91CF919C
:102320001F910F91FF90EF90DF90CF90BF90AF90F3
:102330009F908F907F906F905F90089587EE90E0D0
:1023400061E00E9412108AEF90E060E00E9412109B
:102350008AE994E0609111024AE050E00E94D5249D
:102360000895FF920F931F93CF93DF9388E791E037
:1023700060E00E94121088E091E060E00E9412107C
:102380008AE994E0609111024AE050E00E94D5246D
:10239000FF2401E010E0CF2DD0E0FE01E556FD4F17
:1023A000808190E08017910729F58AE994E0B801CF
:1023B0004AE050E00E9433258AE994E06DE30E94F0
:1023C0001123C8010E940A0A682F8AE994E04AE0B2
:1023D00050E00E94C3248AE994E069E00E9411233E
:1023E000CC0FDD1FCC54DD4F8881998161E00E94C4
:1023F0001210F3940F5F1F4F0B32110561F6DF913E
:10240000CF911F910F91FF900895AF92BF92CF92FD
:10241000DF92EF92FF920F931F93CF93DF935C01B4
:1024200001960E949F029C0101978E3F910510F03A
:1024300010E01EC0122F82E090E0F501E80FF91FB6
:10244000E081EE23A9F00196ED3279F48A0D9B1D0F
:102450000E949F029C01812F90E08217930740F415
:102460002F3F310528F4C22E05C08A30910529F787
:102470002EEFC22E0E9467060E94D60D8EE060E00D
:102480000E94230686ED90E061E00E941210E12E8A
:10249000AEC089E76E2D0E9423068DEE92E00E9469
:1024A0000B200FEFFF24C0E0D0E010E083E690E0C7
:1024B0000E940B2086E20E946106C80FD11D801782
:1024C00008F4082FF81608F4F82E1F5F173C71F770
:1024D00089E08E1538F08AE994E06DE471E00E949D
:1024E000652508C0E3E6EE1528F08AE994E060E28D
:1024F0000E9411238AE994E06E2D4AE050E00E9488
:10250000C324EFE7F2E06AE380818E1509F463E209
:10251000319682E0E738F807B9F78AE994E00E943B
:1025200011238AE994E060E20E941123802F0E9427
:10253000A40FCE0167EC70E00E94DB26162F862FD9
:102540000E94A40F8F2D0E94A40FF50180818E346C
:1025500009F047C00A3010F4DD2408C0083418F030
:102560009DE3D92E03C086EFD82ED00EF9E0FF15DB
:1025700010F000E007C087E48F1510F40DE302C0EF
:102580000F2D0A501A3010F4FF2408C0183418F028
:10259000BDE3FB2E03C0A6EFFA2EF10E10E01F15CF
:1025A00021F48AE994E06AE217C01D1521F48AE952
:1025B00094E06CE311C0101721F48AE994E06EE313
:1025C0000BC0D11630F4101720F48AE994E06EE2C3
:1025D00003C08AE994E060E20E9411231F5F0117A3
:1025E000F0F68AE994E00E94E623A895E394CE14DD
:1025F00008F04FCFDF91CF911F910F91FF90EF9097
:10260000DF90CF90BF90AF900895EF92FF920F931D
:102610001F93CF93DF937C01FC01108200E010E058
:102620008AE994E00E94A72218161906CCF58AE9D7
:1026300094E00E94B822469739F481E7F70180833D
:10264000118210928E0234C08AE994E00E94D8224E
:10265000EC011816190654F58AE994E06C2F0E94D3
:102660001123CD30D10519F0CA30D10529F48AE9FA
:1026700094E00E94E6231CC0C830D10531F4011556
:10268000110571F201501040CBCFF701E00FF11F9F
:10269000C08311820A3011054CF40F5F1F4F06C032
:1026A00061E070E080E090E00E94B21FA895B8CF92
:1026B000DF91CF911F910F91FF90EF900895FF92BE
:1026C0000F931F938730A8F5880F082F10E0000F95
:1026D000111FF801EA51FD4FF0808F2D60E00E943C
:1026E000B0208F2D61E00E94EF2008511D4FF801AE
:1026F0000081802F61E00E94EF2087EC90E00E9433
:102700000B208F2D0E944321019779F4802F60E0E8
:102710000E94EF2087EC90E00E940B208F2D0E94FA
:102720004321892B11F481E005C08F2D61E00E94C7
:10273000B02080E01F910F91FF9008952F923F925B
:102740004F925F926F927F928F929F92AF92BF92C1
:10275000CF92DF92EF92FF920F931F93DF93CF936D
:10276000CDB7DEB762970FB6F894DEBF0FBECDBF10
:1027700080E091E00E94B923988B8F8785E00E94CA
:102780005F131B86882311F481E08B877894AF85D3
:10279000B889A150BF4FBA8BA98B1092F903109240
:1027A000FA031092FC031092FB0380917A028A5A7A
:1027B0008D3318F087EC80937A020E9467060E949E
:1027C000D60D8EE060E00E9423068DE160E00E945D
:1027D00023060E942807BB85BB2331F08AE994E0D9
:1027E00060E571E00E946525EF85F889FA87E98741
:1027F000119289899A89E817F907D1F70E947E1FFB
:102800005B016C018FE19EE4A0E0B0E0A80EB91E70
:10281000CA1EDB1E66241C86A8950F851889FF2416
:102820009924EE24D8018C918A3FA8F489E76F2D72
:102830000E94230689E892E00E940B2086E20E9413
:102840006106982FF8018081891708F49083E916B2
:1028500010F49F2CE92EF3940F5F1F4FFFEFFF162C
:1028600009F72D98662009F58B858823D1F08AE930
:1028700094E064E671E00E9465258AE994E0692DA0
:102880004AE050E00E94C3248AE994E06FE671E0D8
:102890000E9465258AE994E06E2D4AE050E00E948E
:1028A000D52495E99E1528F078CFA5E9AE1508F056
:1028B000B3CF892D63E071E04C8520E00E94E20DEA
:1028C0008823D9F0B0911203BC87EB85EE2361F029
:1028D0008AE994E0692D4AE050E00E94C3248AE925
:1028E00094E060E20E941123E1E0F0E0EC0FFD1FB4
:1028F000E60DF11D908263942D9AEF85F889E90D1C
:10290000F11D8FEF8083662009F447CF0E947E1F60
:10291000A616B706C806D90660F4862D8150823007
:1029200060F094E0691649F0A8E06A1609F035CF26
:1029300004C0B7E0B61508F06FCF0E947E1F4B01B0
:102940005C018AE09AE1A0E0B0E0880E991EAA1E20
:10295000BB1E79809B85992331F08AE994E062E778
:1029600071E00E94652572E0C72ED12CCC0EDD1ED1
:1029700016014F845888A1E0AE871D8660C00E9472
:102980007E1F86169706A806B90608F406CF872D7F
:1029900063E071E04C8521E00E94E20D882379F329
:1029A0000E947E1F7B018C01F101808167E572E04E
:1029B0004C8521E00E94E20D8823C1F10E947E1F18
:1029C00028EF3FEF4FEF5FEF2E193F09400B510B00
:1029D000260F371F481F591F65E0569547953795B5
:1029E00027956A95D1F7622F283008F06850EF8557
:1029F000F88990E08191861709F4ACCF9F5F8E85AE
:102A00009817C0F3D20111966C93BB85BB2359F084
:102A10008AE994E04AE050E00E94C3248AE994E005
:102A200060E20E941123ED85EF5FED87FE85FF5F79
:102A3000FE870894211C311C0894411C511C8E8572
:102A4000861508F49CCF9B85992321F08AE994E0B0
:102A50000E94E62370927F02A1E06A1641F4E0E84A
:102A6000F2E07192B2E0E738FB07D9F750C0E2E03C
:102A70006E1691F48A8170927F0280938002709228
:102A8000810280938202709283028093840270920A
:102A90008502809386023BC0F4E06F16E9F49E0144
:102AA0002B5F3F4FA985BA851196EC91EF5FE4301B
:102AB00038F4F0E0D6018C91E158FD4F8083848397
:102AC000E985FA853196FA87E9870894C11CD11CFB
:102AD000C216D30639F71BC0FD85F73008F45DCE6A
:102AE0009E01275F3F4FA985BA851196EC91EF5F54
:102AF000F0E0E158FD4FD6018D916D018083E985AD
:102B0000FA853196FA87E987A217B30761F76091D2
:102B1000FA038091FB039091FC0370E00E94EF2682
:102B20007093FC036093FB03FC85F0937902CB0167
:102B300082968534910528F480917A02861B8093D1
:102B40007A028B858823D9F18AE994E06CE771E0F9
:102B50000E9465258AE994E06C854AE050E00E9475
:102B6000C3248AE994E062E871E00E9465258AE95D
:102B700094E060917A024AE050E00E94C3248AE91E
:102B800094E06AE871E00E9465250FE712E08AE9A7
:102B900094E0D8016D918D014AE050E00E94C32479
:102BA0008AE994E060E20E941123B2E007381B0733
:102BB00071F78AE994E066E971E00E946825109255
:102BC0007E0210927B0280917C02823010F0109283
:102BD0007C028F8598890E94B6230E943609439A09
:102BE000439A62960FB6F894DEBF0FBECDBFCF9169
:102BF000DF911F910F91FF90EF90DF90CF90BF90EA
:102C0000AF909F908F907F906F905F904F903F908C
:102C10002F900895CF92DF92EF92FF920F931F9320
:102C2000DF93CF93CDB7DEB72C970FB6F894DEBF06
:102C30000FBECDBF8EE091E061E00E9412108E01C8
:102C40000F5F1F4FC8010E9405138981813709F466
:102C500086C0813509F483C068010E94B11188E201
:102C600091E061E00E941210C6010E940513898163
:102C70008E3611F08E3421F4C6010E940512F4CF75
:102C8000833711F0833549F48A81853619F40E941F
:102C9000C40FEACF0E942B10E7CF8237F9F48A8164
:102CA0008536E1F48B818236C9F48C818936B1F4A2
:102CB0008D818E3699F48E81843681F481EA91E09B
:102CC00060E00E941210C6010E94051389818937B5
:102CD00011F0893519F40E949E1341C08981813712
:102CE000F1F18135E1F1C6010E949F027C018BE286
:102CF000E816F10408F0B1CFC6010E9405138981DE
:102D0000813769F1813559F1C6010E949F028C011A
:102D10008F3F910511F008F0A0CFE114F10419F4F0
:102D2000009709F49ACF8AE994E0B7014AE050E0AD
:102D30000E9433258AE994E06DE30E9411238AE919
:102D400094E0B8014AE050E00E944625C701602F98
:102D50000E9410090E94320A0E9436097ECF2C96EA
:102D60000FB6F894DEBF0FBECDBFCF91DF911F919C
:102D70000F91FF90EF90DF90CF9008951F93CF9326
:102D8000DF93EC0110E011C0A8956DE770E080E0E2
:102D900090E00E94B21FCB30D10568F00E94FB0E7C
:102DA000882349F00E940A1610C0812F90E08C17EA
:102DB0009D0750F30AC0439A6DE770E080E090E011
:102DC0000E94B21F43981F5FF0CFDF91CF911F91F8
:102DD0000895EF92FF920F931F930E94CF0A182F2E
:102DE0008F3F69F480919C03882329F48AE890E05E
:102DF00061E00E9412108FE295E70E94BE1682E009
:102E00000E945F13882391F084E090E00E94BE1638
:102E10000E94360980919C03882329F48AEB90E074
:102E200061E00E94121084E090E079C00E94320AB2
:102E3000882309F076C080919C03882329F485EAD1
:102E400090E061E00E941210113009F066C00E940B
:102E50007E1F7B018C018FE097E2A0E0B0E0E80EDE
:102E6000F91E0A1F1B1F0BC081E090E00E94BE16D6
:102E70000E94FB0E882319F00E940A1652C00E947D
:102E80007E1F6E157F058007910770F388E480939D
:102E9000790287EC80937A0291E090937C02109201
:102EA0007E0210927D0210927B028BE4809392024C
:102EB00082ED8093930284E68093870284E080937E
:102EC000880282E08093890290938A0210928B029A
:102ED0008EE180938C0287E080938F029093900222
:102EE000109291028DE480937F0283E980938002A7
:102EF00089E58093810287EA809382028DE6809340
:102F000083028DEB809384028FE78093850281EDAD
:102F1000809386020E94360904C088E790E00E94F0
:102F2000BE161F910F91FF90EF9008950F931F937E
:102F3000082FE62F40918F02442321F4882351F477
:102F40001FE724C0882341F4683031F41092020452
:102F50001092010410E01AC0209101043091020483
:102F6000C901642F70E00E94DB26261B370BE09F0F
:102F7000C0011124280F391F30930204209301044B
:102F8000C901642F70E00E94DB26162F83E0612FB9
:102F900070E00E94502010932E0310922F03909106
:102FA000FE039923E1F1002311F060E001C06FE717
:102FB00080917102891711F480E02DC08091720216
:102FC000891741F180917302891711F48BE024C0B5
:102FD000A92FB0E0662371F0FD01EE0FFF1FE55B46
:102FE000FD4F0190F081E02D8081A759BD4F9C914C
:102FF000892B0EC0FD01EE0FFF1FE55BFD4F019019
:10300000F081E02D9081A759BD4F8C918095892347
:10301000808305C081E08B5F70E00E9450201F918B
:103020000F9108952F923F924F925F926F927F92ED
:103030008F929F92AF92BF92CF92DF92EF92FF92C8
:103040000F931F93CF93DF9384E00E945F138093CD
:103050009C0381E090E00E94BE162EE088E190E0A3
:103060000FB6F894A895809360000FBE209360007F
:1030700085E00E945F13882311F00E949E138AE965
:1030800094E040E056E960E070E00E9420228091E8
:103090009C03882331F40E949E1181E090E00E94FD
:1030A000BE160E94E91680917A02809347028091B1
:1030B000FD0380933003833010F010923003809131
:1030C0003003882329F486E00E945F138093300345
:1030D00080913003823069F484E08093450280E679
:1030E0009DE690931402809313029093870080933F
:1030F000860080913003882341F010925F02809116
:103100004A02806280934A025D980E940C0B0E94E2
:1031100088030E94C4090E946706109232038091BE
:103120009C03882309F0A6C08AE994E06BE971E06A
:103130000E9465258AE994E0609178024AE050E0B7
:103140000E94D5240E94B1118AE994E060EA71E0FE
:103150000E94652519E0E0E0F0E0109357006491CB
:103160008AE994E040E150E00E94C3248AE994E0B7
:1031700060E20E941123E3E0F0E0109357006491B5
:103180008AE994E040E150E00E94C3248AE994E097
:1031900060E20E941123E2E0F0E0109357001491E6
:1031A0008AE994E0612F40E150E00E94D5248AE949
:1031B00094E068EA71E00E94652584E00E9461065F
:1031C000682F70E0617070708AE994E04AE050E026
:1031D0000E9446258AE994E06DEA71E00E94682524
:1031E00080E00E946106682F8AE994E04AE050E09E
:1031F0000E94D52481E00E946106682F8AE994E04C
:103200004AE050E00E94D52482E00E946106682FC7
:103210008AE994E04AE050E00E94D5248AE994E0EB
:1032200063EB71E00E94652581E10E946106682FD1
:1032300070E0605470408AE994E04AE050E00E94F7
:10324000462588E690E061E00E94121080913003EC
:10325000813031F48AE994E066EB71E00E946825E0
:1032600080913003823031F48AE994E06EEB71E0B2
:103270000E946825442481E0809346020E9428072A
:103280000E94D60D789483E080934E030E947E1FA7
:103290006093330370933403809335039093360324
:1032A00060933703709338038093390390933A0304
:1032B00060933B0370933C0380933D0390933E03E4
:1032C00060933F03709340038093410390934203C4
:1032D0005524AA24BB243324339443E0242EA895F8
:1032E0008CE00E946106882371F40E9467060E94A8
:1032F000D60D80919C03882331F48AE994E067EC31
:1033000071E00E94682580914E03843009F0F1C17C
:1033100043982D9A8FE70E940806C2E1D3E00E94ED
:103320005306899323E0C232D207C9F70E942807C7
:10333000109131030E942E068091A3039091A40363
:10334000A091A503B091A60380933F0390934003FF
:10335000A0934103B093420320924E036097CE01A5
:103360000E94B105882351F080919C03882309F0C5
:10337000BCC18AE994E06EEC71E00FC09091120339
:1033800080917902981761F080919C03882309F05D
:10339000ACC18AE994E063ED71E00E946825A5C1A3
:1033A000CE010E942004882389F0442081F480917A
:1033B0009C03882331F48AE994E069ED71E00E946E
:1033C00068250E94ED084424439401C04424609180
:1033D0002803709129036115710551F0809126032E
:1033E000909127030E94DB267093270360932603A6
:1033F00080912603909127039093290380932803BB
:1034000060912C0370912D036115710569F0809115
:103410002A0390912B030E94DB2660932A0370936A
:103420002B036093A20306C08091A20380932A031A
:1034300010922B0320912A0330912B0380912603B5
:10344000909127038217930728F410922703109274
:10345000260306C0821B930B9093270380932603B9
:1034600080919002882329F0809126039091270370
:1034700004C0809128039091290390932F03809397
:103480002E0380912E0361E00E9496178BE20E942A
:103490006106C82FD0E080919C03882309F04DC0BD
:1034A0008AE994E06EED71E00E9465256091280341
:1034B000709129038AE994E04AE050E00E94952443
:1034C0008AE994E061EE71E00E9465256091510304
:1034D000709152038AE994E04AE050E00E949524FA
:1034E0008AE994E065EE71E00E946525612F70E045
:1034F0006F5F7F4F8AE994E04AE050E00E943325F5
:103500008AE994E069EE71E00E9465258AE994E019
:10351000BE014AE050E00E9433258AE994E06DEE56
:1035200071E00E94652560912A0370912B038AE95E
:1035300094E04AE050E00E94A624A12FB0E0FD01F3
:10354000EE0FFF1FE55AFC4F8081918120912803E7
:1035500030912903820F931F91838083FD01EE0F29
:10356000FF1FE559FC4F8081918120912A03309102
:103570002B03820F931F91838083A15BBC4F9C968A
:103580008C919C978F5F9C968C939C97D4968C91F2
:10359000D4978F5FD4968C931092270310922603B2
:1035A000109229031092280310922B0310922A03E1
:1035B00010922D0310922C0340917A02442309F4B7
:1035C00053C0C038D10514F0C050D140CE01499647
:1035D000C39718F020E030E006C09E0194E0220F6F
:1035E000331F9A95E1F75394C50160E170E00E94A2
:1035F000EF26A61AB70AC90160E170E00E94EF2623
:10360000A60EB71EC501B7FE04C0882799278A19E0
:103610009B098134910554F180E2851538F5C50187
:1036200060E170E00E94EF26EB01D095C195DF4F7D
:10363000642F6C0F60937A0289E00E9423068091C8
:103640009C03882369F48AE994E062EF71E00E94A8
:1036500065258AE994E0BE014AE050E00E944625D3
:103660005524AA24BB2402C030924D0310924C036F
:1036700010924B030E947E1F6093330370933403B8
:10368000809335039093360360933B0370933C0320
:1036900080933D0390933E036093430370934403F0
:1036A00080934503909346036093470370934803C8
:1036B0008093490390934A03109246021092250387
:1036C0001092240310924D030E944F0880919C0396
:1036D000882359F026E1209312038AE994E062E1FD
:1036E00073E040E150E00E94BC232D980E947C0CC6
:1036F000F6CD0E947E1F7B018C0160933303709393
:103700003403809335039093360360903F037090A9
:10371000400380904103909042030E947C0C0E94E1
:103720009E0E882309F0A7CD80918E02882311F187
:103730008091330390913403A0913503B091360307
:1037400020913703309138034091390350913A0367
:10375000821B930BA40BB50B8F509742A040B04037
:1037600048F40E94FB0E882339F00E940A160E943A
:10377000670681CD0E94120F80919D03882309F472
:103780004FC08091470390914803A0914903B091A5
:103790004A038196A11DB11D20919E0330919F0384
:1037A0004091A0035091A10382179307A407B50786
:1037B000B8F58BE893E00E9420040E944F08109215
:1037C0009D0310924C0310924B0380913303909110
:1037D0003403A0913503B091360380933B0390935B
:1037E0003C03A0933D03B0933E0380934303909327
:1037F0004403A0934503B093460380919C03882320
:1038000039F48AE994E069EF71E00E94682508C004
:103810008AE994E06BE873E040E150E00E94BC2349
:103820008091330390913403A0913503B091360316
:1038300020913B0330913C0340913D0350913E0366
:10384000821B930BA40BB50B88559240A040B0404F
:10385000B0F180914C03882391F580913203882345
:1038600071F180919C03882331F48AE994E06EEF32
:1038700071E00E94682530924C038091330390914F
:103880003403A0913503B0913603809343039093A2
:103890004403A0934503B09346030E94C4090E94C9
:1038A0004F08439880E068E00E94961780914F038C
:1038B0009091500301969093500380934F03809111
:1038C000330390913403A0913503B09136032091D6
:1038D0004703309148034091490350914A03821BAA
:1038E000930BA40BB50B885B9B40A040B04010F03D
:1038F0003092460267017801C618D708E808F9082F
:10390000D701C6010297A109B1090497A105B10524
:10391000D0F483E690E00E940B2000912A031091DE
:103920002B0386E20E946106080F111D10932B03E2
:1039300000932A0380912C0390912D03019690937C
:103940002D0380932C0380914602882319F02FEFDA
:1039500030E02EC0D701C6010C97A109B1090B9721
:10396000A105B105D8F483E690E00E940B200091F8
:1039700026031091270386E20E946106080F111D9D
:103980001093270300932603809128039091290325
:103990000196909329038093280308C089E1C816F3
:1039A000D104E104F10414F40E94D80B23E230E0C6
:1039B000C901AA2797FDA095BA2FC816D906EA060D
:1039C000FB060CF4DCC080914602882319F5809137
:1039D0004C03882309F4439A8091310320913F03DB
:1039E00030914003409141035091420380FF05C054
:1039F000205E3F4F4F4F5F4F04C0215E3F4F4F4F00
:103A00005F4F20933F033093400340934103509313
:103A1000420310C08091330390913403A091350389
:103A2000B091360380933F0390934003A0934103EA
:103A3000B0934203109131030E942E06C12FD0E0B3
:103A4000FE01E15BFC4F84818F5F848330924D03E4
:103A50006091460227E0629FB00111246F5F80E011
:103A60000E94961780919C03882309F063C08AE91D
:103A700094E064E072E00E946525609124037091F7
:103A800025036F5F7F4F70932503609324038AE9BA
:103A900094E04AE050E00E94952460912C037091DC
:103AA0002D036115710569F080912A0390912B0314
:103AB0000E94DB2660932A0370932B036093A2037A
:103AC00006C08091A20380932A0310922B038AE9F7
:103AD00094E061EE71E00E94652560915103709160
:103AE00052038AE994E04AE050E00E9495248AE972
:103AF00094E065EE71E00E946525BE016F5F7F4F27
:103B00008AE994E04AE050E00E9433258AE994E093
:103B10006DEE71E00E94652560912A0370912B0380
:103B20008AE994E04AE050E00E9495248AE994E012
:103B30000E94E623FE01EE0FFF1FE559FC4F808136
:103B4000918120912A0330912B03820F931F91833F
:103B50008083FE01E15BFC4F84A98F5F84AB1092F0
:103B60002703109226031092290310922803109223
:103B70002B0310922A0310922D0310922C03809194
:103B80004C03882309F4ABCB0E94D80BE09033039D
:103B9000F090340300913503109136038091430374
:103BA00090914403A0914503B0914603E81AF90AA5
:103BB0000A0B1B0B60918C0280914B03882349F008
:103BC00088E8E81683E1F80680E0080780E0180737
:103BD0007CF470E080E090E028EE33E040E050E0DC
:103BE0000E94B0266E157F05800791070CF077CBF9
:103BF00030924B03809187028F3F61F080919C034C
:103C0000882331F48AE994E068E072E00E94682534
:103C10000E94500D80919C03882331F48AE994E03E
:103C20006CE072E00E9468250E9467060E942807E7
:103C30008091330390913403A0913503B091360302
:103C40008093430390934403A0934503B0934603AA
:103C50000E947E1F60933F03709340038093410353
:103C6000909342033CCB8DE061E00E94B02081E163
:103C700061E00E94B0208EE060E00E94B0208FE002
:103C800061E00E94B02080E161E00E94B02082E00B
:103C900060E00E94B02084E061E00E94B02080E0FB
:103CA00060E00E94B02081E061E00E94B02080E0EE
:103CB00061E00E94EF2083E061E00E94B02085E097
:103CC00061E00E94B02086E061E00E94B02087E0C1
:103CD00061E00E94B02088E061E00E94B02089E0AD
:103CE00061E00E94B0208AE061E00E94B0208BE099
:103CF00061E00E94B0208CE061E00E94B02082E18F
:103D000061E00E94B02083E161E00E94B020E1E820
:103D1000F0E01082109285001092840080911302CE
:103D200090911402909387008093860082E08093A4
:103D300080008AE1808381E080936F0080E062EA06
:103D40007BE042E050E00E94B91E0895F999FECF51
:103D500072BD61BDF89A80B50895F999FECF1FBA7A
:103D600072BD61BD40BD0FB6F894FA9AF99A0FBEC4
:103D70000895823000F5E82FF0E0EE0FFF1FEB5FB3
:103D8000FB4F71836083882319F08130A1F408C050
:103D9000809169008C7F842B80936900E89A089554
:103DA00080916900440F551F440F551F837F842B5A
:103DB00080936900E99A08951F920F920FB60F92AF
:103DC00011242F933F934F935F936F937F938F9320
:103DD0009F93AF93BF93EF93FF93809105049091CE
:103DE0000604892B29F0E0910504F0910604099559
:103DF000FF91EF91BF91AF919F918F917F916F91C3
:103E00005F914F913F912F910F900FBE0F901F9098
:103E100018951F920F920FB60F9211242F933F9374
:103E20004F935F936F937F938F939F93AF93BF93C2
:103E3000EF93FF938091070490910804892B29F058
:103E4000E0910704F09108040995FF91EF91BF916B
:103E5000AF919F918F917F916F915F914F913F9122
:103E60002F910F900FBE0F901F9018951F920F92D9
:103E70000FB60F9211242F933F938F939F93AF937D
:103E8000BF9380910D0490910E04A0910F04B09106
:103E90001004309111040196A11DB11D232F2D5F37
:103EA0002D3720F02D570196A11DB11D209311042F
:103EB00080930D0490930E04A0930F04B09310040C
:103EC0008091090490910A04A0910B04B0910C0414
:103ED0000196A11DB11D8093090490930A04A0933B
:103EE0000B04B0930C04BF91AF919F918F913F91C0
:103EF0002F910F900FBE0F901F9018958FB7F894C9
:103F000020910D0430910E0440910F045091100443
:103F10008FBFB901CA0108959FB7F8942091090491
:103F200030910A0440910B0450910C0486B5A89B73
:103F300006C08F3F21F02F5F3F4F4F4F5F4F9FBF16
:103F4000542F432F322F2227280F311D411D511D81
:103F500082E0220F331F441F551F8A95D1F7B90104
:103F6000CA0108959B01AC017FB7F89480910904C0
:103F700090910A04A0910B04B0910C0466B5A89B23
:103F800005C06F3F19F00196A11DB11D7FBFBA2F6B
:103F9000A92F982F8827860F911DA11DB11D62E0C2
:103FA000880F991FAA1FBB1F6A95D1F7BC012DC0AE
:103FB000FFB7F8948091090490910A04A0910B0432
:103FC000B0910C04E6B5A89B05C0EF3F19F001962F
:103FD000A11DB11DFFBFBA2FA92F982F88278E0FC3
:103FE000911DA11DB11DE2E0880F991FAA1FBB1FE3
:103FF000EA95D1F7861B970B885E9340C8F2215053
:1040000030404040504068517C4F211531054105FA
:10401000510571F60895019739F0880F991F880F9F
:10402000991F02970197F1F70895789484B58260FB
:1040300084BD84B5816084BD85B5826085BD85B54C
:10404000816085BDEEE6F0E0808181608083E1E8FB
:10405000F0E0108280818260808380818160808333
:10406000E0E8F0E0808181608083E1EBF0E0808136
:1040700084608083E0EBF0E0808181608083EAE708
:10408000F0E0808184608083808182608083808191
:10409000816080838081806880831092C100089550
:1040A0001F93CF93DF93182FEB0161E00E94B020A4
:1040B000209709F44AC0CF3FD10509F449C0E12F48
:1040C000F0E0ED52FB4F84918330C1F0843028F44E
:1040D000813051F08230B1F50CC0863019F1873053
:1040E00049F1843079F514C084B5806884BDC7BDBA
:1040F00033C084B5806284BDC8BD2EC0809180006D
:10410000806880938000D0938900C093880024C089
:1041100080918000806280938000D0938B00C09358
:104120008A001AC08091B00080688093B000C0936C
:10413000B30012C08091B00080628093B000C09341
:10414000B4000AC0C038D1051CF4812F60E002C061
:10415000812F61E00E94EF20DF91CF911F910895A0
:10416000CF93DF93482F50E0CA0181549B4FFC014D
:10417000349145555B4FFA018491882369F190E0B1
:10418000880F991FFC01E357FB4FA591B491FC01E7
:10419000E956FB4FC591D491662351F42FB7F8949B
:1041A0008C91932F909589238C93888189230BC0C0
:1041B000623061F42FB7F8948C91932F90958923F6
:1041C0008C938881832B88832FBF06C09FB7F89478
:1041D0008C91832B8C939FBFDF91CF910895482FB3
:1041E00050E0CA018D529B4FFC012491CA018154B9
:1041F0009B4FFC01949145555B4FFA013491332359
:1042000009F440C0222351F1233071F0243028F406
:104210002130A1F0223011F514C02630B1F0273042
:10422000C1F02430D9F404C0809180008F7703C09E
:10423000809180008F7D8093800010C084B58F773F
:1042400002C084B58F7D84BD09C08091B0008F7796
:1042500003C08091B0008F7D8093B000E32FF0E029
:10426000EE0FFF1FE956FB4FA591B4912FB7F894BD
:10427000662321F48C919095892302C08C91892B1F
:104280008C932FBF0895682F70E0CB018D529B4F08
:10429000FC012491CB0181549B4FFC014491655555
:1042A0007B4FFB019491992319F420E030E03CC04E
:1042B000222351F1233071F0243028F42130A1F071
:1042C000223011F514C02630B1F02730C1F024306F
:1042D000D9F404C0809180008F7703C08091800062
:1042E0008F7D8093800010C084B58F7702C084B525
:1042F0008F7D84BD09C08091B0008F7703C080910D
:10430000B0008F7D8093B000892F90E0880F991FB7
:104310008F559B4FFC01A591B4918C9120E030E02A
:10432000842311F021E030E0C901089508951F921F
:104330000F920FB60F9211242F933F934F938F93A9
:104340009F93EF93FF938091C00082FD1DC0409129
:10435000C60020915204309153042F5F3F4F2F73BA
:10436000307080915404909155042817390771F0EA
:10437000E0915204F0915304EE5EFB4F4083309382
:1043800053042093520402C08091C600FF91EF9124
:104390009F918F914F913F912F910F900FBE0F9052
:1043A0001F901895E091A604F091A704E05CFF4FE0
:1043B0008191919120813181821B930B8F73907039
:1043C000892B11F00E94962108951F920F920FB62B
:1043D0000F9211242F933F938F939F93EF93FF930B
:1043E00020919604309197048091980490919904BB
:1043F0002817390731F48091C1008F7D8093C10067
:1044000014C0E0919804F0919904EA5AFB4F20817E
:10441000809198049091990401968F739070909375
:104420009904809398042093C600FF91EF919F9187
:104430008F913F912F910F900FBE0F901F90189565
:10444000AF92BF92DF92EF92FF920F931F93CF93A1
:10445000DF93EC017A018B01DD24403081EE5807B7
:1044600080E0680780E0780711F0DD24D39491E0C4
:10447000A92EB12CEC89FD89DD2069F0C50108A0C9
:1044800002C0880F991F0A94E2F7808360E079E008
:104490008DE390E005C0108260E874E88EE190E062
:1044A000A80197010E94022721503040404050400F
:1044B000569547953795279580E12030380720F0AD
:1044C000DD2011F0DD24D6CFE889F9893083EA892F
:1044D000FB89208319A2EE89FF89408121E030E029
:1044E000C9010C8C02C0880F991F0A94E2F7482B6F
:1044F0004083EE89FF894081C9010D8C02C0880F7D
:10450000991F0A94E2F7482B4083EE89FF89408186
:10451000C9010E8C02C0880F991F0A94E2F7482B3C
:104520004083EE89FF8980810F8C02C0220F331FE8
:104530000A94E2F7209528232083DF91CF911F91E1
:104540000F91FF90EF90DF90BF90AF900895DC0146
:104550001C96ED91FC911D97E05CFF4F21913191EC
:1045600080819181281B390B2F733070C901089508
:10457000DC011C96ED91FC911D97E05CFF4F2081C2
:104580003181E054F040DF01AE5BBF4F8D919C91D3
:1045900011972817390719F42FEF3FEF07C08D91B6
:1045A0009C91E80FF91F8081282F30E0C901089500
:1045B000DC011C96ED91FC911D97E05CFF4F208182
:1045C0003181E054F040DF01AE5BBF4F8D919C9193
:1045D00011972817390719F42FEF3FEF10C08D916D
:1045E0009C911197E80FF91F20818D919C91119753
:1045F00001968F73907011969C938E9330E0C90151
:104600000895DC0191968C919197882339F0549606
:10461000ED91FC915597808186FFF9CF91961C9280
:104620000895CF93DF93EC01EE85FF85E05CFF4FAB
:1046300020813181E054F0402F5F3F4F2F73307065
:10464000DF01AE5BBF4F8D919C9111972817390701
:10465000D1F3E05CFF4F80819181E054F040E80F9E
:10466000F91F6083EE85FF85E05CFF4F3183208377
:10467000EE89FF89208181E090E00F8C02C0880FD5
:10468000991F0A94E2F7282B208381E089A3EC8903
:10469000FD8980818064808381E090E0DF91CF910B
:1046A000089510929D0410929C0488EE93E0A0E07F
:1046B000B0E080939E0490939F04A093A004B093D5
:1046C000A10486E093E090939B0480939A0482E196
:1046D00094E09093A7048093A60486E594E09093D9
:1046E000A9048093A80485EC90E09093AB04809398
:1046F000AA0484EC90E09093AD048093AC0480EC29
:1047000090E09093AF048093AE0481EC90E090939E
:10471000B1048093B00482EC90E09093B304809352
:10472000B20486EC90E09093B5048093B40484E0E6
:104730008093B60483E08093B70487E08093B80445
:1047400085E08093B90481E08093BA040895CF9303
:10475000DF930E9415200E94331EC2EDD1E20E9419
:1047600012182097E1F30E94D221F9CF0E94182657
:1047700008950E947B250895CF92DF92EF92FF92D9
:104780000F931F93CF93DF937C016B018A01C0E0ED
:10479000D0E00FC0D6016D916D01D701ED91FC9174
:1047A0000190F081E02DC7010995C80FD91F015074
:1047B00010400115110571F7CE01DF91CF911F91C6
:1047C0000F91FF90EF90DF90CF900895EF92FF92BE
:1047D0000F931F938C01DC01ED91FC910190F0810E
:1047E000E02D6DE009957C01D801ED91FC910190DF
:1047F000F081E02DC8016AE009959C012E0D3F1D56
:10480000C9011F910F91FF90EF900895CF93DF930F
:10481000EC016115710519F420E030E00FC0DB01F7
:104820000D900020E9F71197A61BB70BE881F981DD
:104830000280F381E02DAD0109959C01C901DF9152
:10484000CF9108954F925F927F928F929F92AF92F5
:10485000BF92CF92DF92EF92FF920F931F93DF935D
:10486000CF93CDB7DEB7A1970FB6F894DEBF0FBEDA
:10487000CDBF2C01742ECB01223008F42AE019A2FE
:1048800031E2C32ED12CCC0EDD1E822E9924AA2417
:10489000BB24672D752FA50194010E940227790181
:1048A0008A01C801B701A50194010E94B026472DD5
:1048B000461B0894C108D1084A3014F4405D01C079
:1048C000495CF6014083E114F1040105110521F072
:1048D0007E2C5F2DC801DDCFC201B6010E940624E7
:1048E000A1960FB6F894DEBF0FBECDBFCF91DF917A
:1048F0001F910F91FF90EF90DF90CF90BF90AF90FE
:104900009F908F907F905F904F900895DC012115CC
:10491000310541F4ED91FC910190F081E02D642F7F
:10492000099508950E9422240895EF92FF920F9313
:104930001F939A017B0100E010E0B801A7010E94DB
:1049400086241F910F91FF90EF900895CF92DF92F0
:10495000EF92FF920F931F936C017B019A0100E08D
:1049600010E0B801A7010E9486248C01C6010E94B4
:10497000E623080F191FC8011F910F91FF90EF90B8
:10498000DF90CF900895EF92FF920F931F939A01BB
:10499000E62EFF2400E010E0B801A7010E94862463
:1049A0001F910F91FF90EF900895CF92DF92EF92B9
:1049B000FF920F931F936C01E62E9A01FF2400E0F3
:1049C00010E0B801A7010E9486248C01C6010E9454
:1049D000E623080F191FC8011F910F91FF90EF9058
:1049E000DF90CF900895CF92DF92EF92FF920F93D6
:1049F0001F93CF93DF93EC016A017B0121153105F1
:104A000041F4E881F9810190F081E02D642F09954E
:104A10001FC02A303105D1F477FF17C0E881F98132
:104A20000190F081E02D6DE209958C014427552716
:104A3000BA014C195D096E097F09CE012AE00E9476
:104A400022249801280F391F04C02AE00E94222442
:104A50009C01C901DF91CF911F910F91FF90EF90C1
:104A6000DF90CF900895EF92FF920F931F937B01F9
:104A70009A010027F7FC0095102FB801A7010E94AA
:104A8000F3241F910F91FF90EF900895CF92DF9242
:104A9000EF92FF920F931F936C017B019A01002705
:104AA000F7FC0095102FB801A7010E94F3248C0198
:104AB000C6010E94E623080F191FC8011F910F911C
:104AC000FF90EF90DF90CF9008950E940624089504
:104AD000EF92FF920F931F937C010E9406248C019A
:104AE000C7010E94E623080F191FC8011F910F91EB
:104AF000FF90EF9008950F931F93CF93DF93BC0126
:104B00008230910510F462E070E0E091BE04F09113
:104B1000BF0440E050E0A0E0B0E024C0808191817B
:104B200086179707D0F08617970771F482819381D3
:104B3000109729F013969C938E9312972CC0909304
:104B4000BF048093BE0427C04115510519F0841796
:104B5000950718F48D01AC01EF01DF01828193818B
:104B60009C01F9013097D1F641155105F9F0CA01C0
:104B7000861B970B8430910580F48A819B810115F7
:104B8000110521F0F8019383828304C09093BF0440
:104B90008093BE04FE01329645C0FE01E80FF91F66
:104BA000619371930297998388833CC08091BC0480
:104BB0009091BD04892B41F48091970290919802C5
:104BC0009093BD048093BC044091990250919A0245
:104BD0004115510541F44DB75EB780919502909112
:104BE0009602481B590B2091BC043091BD04241738
:104BF0003507B0F4CA01821B930B8617970780F024
:104C0000AB014E5F5F4F8417950750F0420F531F63
:104C10005093BD044093BC04F9016193719302C0A9
:104C2000E0E0F0E0CF01DF91CF911F910F91089567
:104C3000CF93DF939C01009709F48FC0EC0122977A
:104C40001B821A826091BE047091BF0461157105C8
:104C500081F488819981820F931F2091BC04309147
:104C6000BD042817390739F5D093BD04C093BC049F
:104C700074C0DB0140E050E0AC17BD0708F1BB8316
:104C8000AA83FE0121913191E20FF31FAE17BF07F6
:104C900079F48D919C911197280F391F2E5F3F4F0A
:104CA0003983288312968D919C9113979B838A83D5
:104CB0004115510571F4D093BF04C093BE044DC09B
:104CC00012968D919C911397AD01009711F0DC0124
:104CD000D3CFDA011396DC93CE931297FA01219188
:104CE0003191E20FF31FCE17DF0769F488819981B4
:104CF000280F391F2E5F3F4FFA01318320838A81AD
:104D00009B8193838283E0E0F0E0DB0112968D913A
:104D10009C911397009719F0BC01FD01F6CFAB01F0
:104D20004E5F5F4FDB018D919C91840F951F209109
:104D3000BC043091BD042817390779F4309729F461
:104D40001092BF041092BE0402C01382128242501D
:104D500050405093BD044093BC04DF91CF9108951F
:104D6000629FD001739FF001829FE00DF11D649F4F
:104D7000E00DF11D929FF00D839FF00D749FF00DDB
:104D8000659FF00D9927729FB00DE11DF91F639F7C
:104D9000B00DE11DF91FBD01CF0111240895991B2C
:104DA00079E004C0991F961708F0961B881F7A9522
:104DB000C9F780950895AA1BBB1B51E107C0AA1F24
:104DC000BB1FA617B70710F0A61BB70B881F991FAC
:104DD0005A95A9F780959095BC01CD01089597FB50
:104DE000092E07260AD077FD04D0E5DF06D0002083
:104DF0001AF4709561957F4F0895F6F79095819517
:104E00009F4F0895A1E21A2EAA1BBB1BFD010DC0E6
:104E1000AA1FBB1FEE1FFF1FA217B307E407F5076A
:104E200020F0A21BB30BE40BF50B661F771F881F46
:104E3000991F1A9469F760957095809590959B01DC
:104E4000AC01BD01CF01089597FB092E05260ED0B8
:104E500057FD04D0D7DF0AD0001C38F45095409598
:104E6000309521953F4F4F4F5F4F0895F6F790953E
:104E70008095709561957F4F8F4F9F4F0895EE0FEE
:0E4E8000FF1F0590F491E02D0994F894FFCFE8
:104E8E00466978656421005374617469737469634B
:104E9E007320696E20454550524F4D2065726173E7
:104EAE0065200020646F6E65004C6173742073740E
:104EBE00617469736963733A28002D002920666F47
:104ECE00726D2000464E2020636E7420002020005C
:104EDE000D0A42696E642066696E64207374617295
:104EEE00743A2000204D61786C6576656C5B005DD0
:104EFE003D000D0A54696D65733A200042696E6477
:104F0E003D002046636F72723D00205365717565DA
:104F1E006E63653A200020456E6400532F4E3D00AF
:104F2E0046757365733A20004952513D0053544102
:104F3E00525400543D0050504D206F757400534232
:104F4E005553206F757400466945727221004352A5
:104F5E0043210042494E4421004653205700523D02
:104F6E000020533D0020433D0020413D0020526E65
:104F7E003D0046636F72723D002453415400746FBE
:104F8E002066730024524C00534F5300496E6974CF
:104F9E00000D01409CB80BB80BB80BB80BB80BB892
:104FAE000BB80BB80BB80BB80BB80BB80BB80BB8DB
:104FBE000BB80BB80BB80BB80BB80BB80BB80BB8CB
:104FCE000BB80BB80B0A01C7E0CF1F2B002B002B21
:104FDE00002500250025002500250028002800209A
:104FEE0040800102040810102020408001020408B5
:104FFE0010010207000458006348CC000100004D68
:10500E009359A76DBD7FD165040201001EC7010132
:10501E0000004BD2028000C0040000010203040510
:10502E000607080B0C0D0E0F101112131418191A77
:10503E001C28292A820289029302B002C202E102CE
:10504E00F7021B0343034A03510358035F0366032E
:10505E006D0374037B039203D303EB03F403FD038D
:10506E0022044A046A04050006000700080009002D
:10507E000A000B000C0012001300000001000600D5
:10508E000700000000001123BC23A722D822B8225B
:02509E000123EC
:00000001FF
