:100000000C9423020C94941B0C94C11B0C944B0273
:100010000C944B020C944B020C944B020C944B022C
:100020000C944B020C944B020C944B020C944B021C
:100030000C944B020C9473020C944B020C944B02E4
:100040000C94EE1B0C944B020C944F1E0C949D1EB2
:100050000C944B020C944B020C944B020C944B02EC
:100060000C944B020C944B02507265737320276DF5
:100070002720746F207374617274204D454E552093
:10008000696E2031302073656300464C415348202F
:100090004552524F522121212043616E277420770F
:1000A0006F726B21004572726F72207265616420FD
:1000B00073657474696E6773210053657474696E37
:1000C000677320726573657420746F206465666160
:1000D000756C7473210046486E3A204D696E20415C
:1000E0007672204D617800546F20456E74657220E1
:1000F0004D454E5520507265737320454E54455200
:1001000000547970652052656720616E64207072BA
:1001100065737320454E5445522C207479706520C8
:1001200056616C756520616E642070726573732012
:10013000454E5445522028713D517569743B2073DA
:10014000732F736C2F73613D537461742900526770
:100150003D56616C2009436F6D6D656E7473202D83
:100160002D2D2D2D2D2D2D2D2D2D2D2D2D2D2D2DBF
:100170002D2D2D2D2D2D004578656375746520720C
:100180006562696E643F2041726520796F752073E6
:1001900075726528792F6E293F000A0D42617963D7
:1001A000686920736F6674203230313300525820F2
:1001B0004F70656E20457870657274205632204607
:1001C0000046536E20496E4653202044726F707370
:1001D0003A312020203220202033202020342020BB
:1001E00020352020203620202037202020382020B5
:1001F00000525353493A312020203220202033200E
:100200002020342020203520202036202020372098
:10021000202038204E6F6973653A3120202032202B
:10022000202033202020342020203520202036207C
:10023000202037202020380042696E64204E00467E
:1002400072657120436F727200536572766F203150
:1002500035302520737472656368206E756D2028B3
:10026000312D313229005374617469737469637379
:1002700020656E61626C65003131206269742F31D6
:1002800030206368206D6F64650044697363726534
:100290007465206F757470757473206D61736B0075
:1002A000486F7020463100486F7020463200486F1A
:1002B0007020463300486F7020463400486F70202D
:1002C000463500486F7020463600486F702046372C
:1002D00000486F7020463800426561636F6E2046AB
:1002E000202846463D64697361626C652900426559
:1002F00061636F6E20506D617820286D5774293AC4
:1003000020302D312E323B20312D323B20322D3307
:100310003B20332D363B20342D31323B20352D32DE
:10032000353B20362D35303B20372D3130300042E3
:100330006561636F6E2073746172742074696D659A
:100340002028736563290053415720466D696E006C
:1003500053415720466D61780050504D2F53425500
:1003600053206D6F6465203173742050574D2063A6
:10037000686E6C2028312D3829205B345D00525383
:10038000534920747970653A20736F756E64283014
:10039000292F6C6576656C28312D39393D6176657C
:1003A00072616765290052535349206D6F64653A45
:1003B000206C6576656C2830292F534E207261744D
:1003C000696F2831290052535349206F7665722096
:1003D00050574D286368616E3A312D3132292030F3
:1003E0002D6E6F74207573650000000000240027D7
:1003F000002A0000000000250028002B000000005B
:100400000023002600290004040404040404040258
:1004100002020202020303030303030102040810A1
:10042000204080010204081020010204081020006E
:1004300000000700020100000304060000000000A5
:1004400000000000092011241FBECFEFD8E0DEBF5E
:10045000CDBF13E0A0E0B1E0EEEFF7E402C00590FD
:100460000D92A230B107D9F714E0A2E0B3E001C0C9
:100470001D92AB39B107E1F714E0C6E4D4E004C043
:100480002297FE010E94F923C434D107C9F70E94C4
:100490005F200C94FD230C940000FC018827992711
:1004A000E89421912032E9F3293010F02E30C8F37E
:1004B0002B3241F02D3239F4689404C00E946B0253
:1004C000820F911D219120532A30C0F31EF4909584
:1004D00081959F4F08957AE0979F902D879F802D5B
:1004E000910D112408951F920F920FB60F921124AF
:1004F0002F933F934F935F938F939F93AF93BF93AC
:10050000EF93FF9380918400909185008097D0F3C2
:1005100085B190914002892385B988B190914102BB
:10052000892388B98BB19091420289238BB980913C
:100530002203882309F47BC08091DE038F5F8093C0
:10054000DE0390913D02981730F41092130310923D
:1005500012031092DE034091DE034917B1F420919B
:10056000120330911303E0910B02F0910C02CF01C2
:10057000805797412817390718F020E737E145C021
:10058000CF01821B930B9C0140C0A42F50912003EC
:10059000523011F0E42F04C0E0918902E40FE150E1
:1005A000FF27E7FDF095EE0FFF1FEB5DFD4F20816C
:1005B00031818091120390911303820F931F9093C6
:1005C000130380931203552369F0513049F44C5FB3
:1005D00080918902A42FA81B4450A3301CF415C09D
:1005E000A42FAD5FAA3088F4BB27A7FDB095FD010D
:1005F000EE0FFF1FED5BFD4F0190F081E02D80813C
:10060000A95ABD4F9C91892B808380912003813012
:1006100091F44B3080F45F9A809184009091850032
:10062000845F9140C8F3275F31405F9804C02091F8
:100630000B0230910C0280910B0290910C02821BF4
:10064000930B9093850080938400FF91EF91BF916D
:10065000AF919F918F915F914F913F912F910F900B
:100660000FBE0F901F901895CF93DF938091730268
:10067000882321F1C3E4D2E020E030E0482F50E0AD
:10068000CA01022E02C0959587950A94E2F780FF71
:100690000FC0E881F981E55EFD4FD901AF59BD4F2B
:1006A00080819C91892B8083F901E95AFD4F10824A
:1006B0002F5F3F4F22962830310511F7DF91CF9100
:1006C00008952F923F925F926F927F928F929F92A6
:1006D000AF92BF92CF92DF92EF92FF920F931F9350
:1006E000CF93DF93DC011F964C911F971D963C9191
:1006F0001D9720917002822F6AE00E948723592E55
:100700005A94822F0E948723882E8A949090720296
:100710001D010DE012E07801E0E0F0E0A32EBB2423
:1007200022E0622E712CC42EDD24E1018A81682F23
:1007300070E0660F771F660F771F5E2FE83038F581
:100740002E2F11968C91119790E00E2E02C0959548
:1007500087950A94E2F780FD7460573061F0C30119
:10076000022E02C0880F991F0A94E2F78C219D2166
:10077000892B09F06260992061F0C50102C095954E
:1007800087952A95E2F780FF04C0616002C0660F7A
:10079000771F551511F05815C1F4CB0180509440C6
:1007A0009C0135952795280F391F8BEF2035380789
:1007B00014F420E53BEFC90124E0813B920714F0DB
:1007C00080EB94E0BC0160507C4F583080F1992060
:1007D00071F1583049F41C968C911C9790E0877009
:1007E0009070682B792B23C0593019F060E070E0CD
:1007F0001EC01C968C911C9790E033E095958795D0
:100800003A95E1F79C0127703070622B732B959518
:100810008795959587958270907020911B023091F5
:100820001C02822B932B90931C0280931B02685412
:10083000784FE701699379937E0131960894211CE2
:10084000311CEC30F10509F070CF809173028823E0
:1008500059F1C3E4D2E0A1E6B2E040E050E0682FF5
:1008600070E0CB01042E02C0959587950A94E2F7BB
:1008700080FF11C0F80180819181E881F9812C917C
:10088000895B9B4020F08081822B808304C0808123
:100890002095282320834F5F5F4F229611960E5F8D
:1008A0001F4F48305105E9F6DF91CF911F910F910D
:1008B000FF90EF90DF90CF90BF90AF909F908F9080
:1008C0007F906F905F903F902F9008955C9A429830
:1008D0005C9898E010C087FF07C042980000419ADA
:1008E0000000429A000006C04298000041980000B3
:1008F000429A0000880F915070F7429808958F77C0
:100900000E9466040895429898E010C087FF07C0CF
:1009100042980000419A0000429A000006C04298A6
:10092000000041980000429A0000880F915070F733
:10093000429808951F93162F80680E946604812FA5
:100940000E9483045C9A1F9108951F938091210354
:100950008F5F80932103883010F010922103E09183
:100960002103F0E0EC58FD4F108189E7612F0E94D0
:100970009A0480918702181738F0809188028117B5
:1009800018F08EE064E002C08EE060E00E949A04FD
:100990001092170310921603109219031092180365
:1009A00010921B0310921A0310921D0310921C0345
:1009B0001F910895429880E090E0880F429A0000CD
:1009C00030998160429800009F5F9830B1F7089598
:1009D0000E947F040E94DA045C9A089583E00E94DA
:1009E000E8048093960384E00E94E80480939703D0
:1009F00086E060E00E949A0487E061E00E949A0429
:100A000060916F02662311F089E002C089E067EC13
:100A10000E949A048AE065E00E949A048BE062E1F9
:100A20000E949A048CE065E10E949A048DE06AE0DD
:100A30000E949A048EE060E00E949A048FE163E0D5
:100A40000E949A048EE16AE00E949A0482E160E6C4
:100A50000E949A0483E168EF0E949A048FE060E8A4
:100A60000E949A048DE160E40E949A048CE166E29F
:100A70000E949A0480E264E40E949A0481E260E0A9
:100A80000E949A0482E262EF0E949A0483E26CE779
:100A90000E949A0484E266E00E949A0485E26DE76F
:100AA0000E949A048AE26EE10E949A0480E36CEA52
:100AB0000E949A0482E36CE80E949A0483E36AE04D
:100AC0000E949A0484E364E00E949A0485E362E24F
:100AD0000E949A0486E36DE20E949A0487E364ED23
:100AE0000E949A0488E360E00E949A0489E360E02F
:100AF0000E949A048EE360E10E949A048DE66FE002
:100B00000E949A048EE66CE30E949A048FE66FE9D5
:100B10000E949A0489E660E60E949A0480E76EE2E9
:100B20000E949A0489E760E00E949A048AE766E0DE
:100B30000E949A0481E763E20E949A0482E76EE0D1
:100B40000E949A0485E763E50E949A0486E76CE4B4
:100B50000E949A0487E760EE0E949A04089587E055
:100B600061E00E949A048EE764E20E949A0488E0A1
:100B700063E00E949A0488E060E00E949A0487E0A3
:100B800065E00E949A0485E062E00E949A0483E096
:100B90000E94E8048093960384E00E94E804809316
:100BA0009703089583E00E94E8048093960384E00D
:100BB0000E94E8048093970387E061E00E949A0412
:100BC00008952091D7033091D803280F311D309319
:100BD000D8032093D7038091840090918500A901C8
:100BE000481B590B4232510560F078948091840083
:100BF00090918500A901481B590B42325105B0F76D
:100C0000F894809184009091850028173907C9F7DE
:100C1000662311F05D9808955D9A08951F93182F2B
:100C20008091D503181721F48091D6038C5E08C0FB
:100C30008091D603612F0E94E1051093D50384E1D2
:100C40008093D6031F910895EF92FF920F931F9305
:100C5000CF93DF93E82E80E00E940E06FF2410E081
:100C600001E0CE2DD0E0802F90E08C239D23892BB6
:100C700029F081E00E940E061F5F03C080E00E9401
:100C80000E06F39488E0F81611F0000FECCF10FF79
:100C900002C081E001C080E00E940E0681E00E9457
:100CA0000E0681E00E940E06DF91CF911F910F91F9
:100CB000FF90EF9008950F931F93CF93DF93809150
:100CC0002003823009F049C0C5E2D2E010E001E023
:100CD00041E088819981805E9640880F991F880F36
:100CE000991F65E070E00E949323CB0120E080FD16
:100CF000142B403849F4E02FF0E0E454FC4F10830B
:100D00000F5F10E041E001C0440F2F5F2B3019F05E
:100D100096958795ECCF229682E0CD33D807C9F619
:100D2000E02FF0E0E454FC4F1083802F05C0E82F43
:100D3000F0E0E454FC4F10828F5F8731C0F38FE006
:100D40008093BC0380913C03882311F088E001C0AC
:100D500080E08093D3031092D403DF91CF911F9151
:100D60000F91089520E030E0F901EB5DFD4FD901CE
:100D7000A35FBD4F8D919C91918380832E5F3F4FE8
:100D80002831310589F7E0918602EE2391F0F0E0F9
:100D9000EE0FFF1FED5DFD4F80911E0390911F032D
:100DA00086509F4F33E0880F991F3A95E1F7918362
:100DB000808381E0809322030E945B0608950F9355
:100DC0001F93CF93DF938091B70380939C039091FF
:100DD000520390939D0380913C03882321F48091DA
:100DE0002203882319F4906890939D031092520374
:100DF0000FE313E023E533E0CEE9D3E0F9013896C1
:100E0000D8016D917C916115710511F441E001C02B
:100E1000462FD9018C91888380819181642F70E065
:100E20000E949323688780899189642F70E00E94D3
:100E30009323688BD9011D929D0111821082118A22
:100E4000108AD8011D921D928D0121963296B3E031
:100E50000F341B07A9F61092B603DF91CF911F91B3
:100E60000F9108950F931F93CF93DF930DE012E03E
:100E7000C0E4D0E0F80141818FED93E0BE010E9413
:100E8000651B21968FED93E0BE01F80140810E9421
:100E9000651B0E5F1F4F2196F2E005321F0751F7C9
:100EA000DF91CF911F910F910895462FBC016F5E86
:100EB0007F4F8FED93E00E94651B0895DF92EF92C4
:100EC000FF920F931F938C01D62E472F5FEDE52ED7
:100ED00053E0F52EC701B8010E94651B0F5F1F4F3D
:100EE000C701B8014D2D0E94651B1F910F91FF9006
:100EF000EF90DF900895EF92FF920F931F93CF939F
:100F0000DF930DE612E0EE24FF24C0E0D0E0CE0136
:100F1000F80160810E945507F80181918F01E80E68
:100F2000F11C2196C730D10591F7C4E7D2E00BE060
:100F300010E0C80168810E9455078991E80EF11CF4
:100F40000F5F1F4FF2E0CC37DF0799F7CCE7D2E015
:100F500003E110E0C80168810E9455078991E80EFD
:100F6000F11C0F5F1F4F82E0C238D80799F789E163
:100F700090E0609187020E94550780918702E70107
:100F8000C80FD11D8AE190E0609188020E94550748
:100F900080918802C80FD11D8CE190E06091890298
:100FA0000E94550780918902C80FD11D04E812E004
:100FB00068E2E62EF12CC701F80160810E94550716
:100FC000F80181918F01C80FD11D0894E11CF11C1B
:100FD000F2E007381F0779F78AE090E0BE010E942F
:100FE0005E07DF91CF911F910F91FF90EF900895D1
:100FF000AF92BF92CF92DF92EF92FF921F93CF9367
:10100000DF93FDE0CF2EF2E0DF2EE0E4EE2EF12CB8
:1010100078EBA72E7BE0B72E8FED93E0B7010E940F
:101020005E1B182FB7016F5F7F4F8FED93E00E941B
:101030005E1BD12FC0E09E01280F311DC901F601B2
:10104000318320838C5697408959984018F0F601D7
:10105000B182A08222E030E0E20EF31EC20ED31E67
:1010600038E5E316F104C1F6DF91CF911F91FF90AF
:10107000EF90DF90CF90BF90AF900895BC016F5E6E
:101080007F4F8FED93E00E945E1B0895DF92EF92F9
:10109000FF920F931F938C01AFEDEA2EA3E0FA2E7F
:1010A000C701B8010E945E1BD82E0F5F1F4FC701FA
:1010B000B8010E945E1B3D2D20E0280F311DC901A3
:1010C0001F910F91FF90EF90DF9008950F931F9362
:1010D000CF93DF9300E010E0C0E0D0E0CE010E94AB
:1010E0003E08FE01E359FD4F8083080F111D219634
:1010F000C730D10599F7CBE0D0E0CE010E943E0881
:10110000FE01E759FD4F8083080F111D2196C33161
:10111000D10599F7C3E1D0E0CE010E943E08FE015F
:10112000E759FD4F8083080F111D2196C931D10564
:1011300099F780917D02883008F05BC0863008F016
:1011400059C0823010F491E002C091E0891B809375
:101150007E02981708F4891B80937F021092800208
:1011600089E190E00E943E0880938702080F111DDC
:101170008AE190E00E943E0880938802080F111DCA
:101180008CE190E00E943E08982F8150883020F436
:1011900090938902090F111DC8E2D0E0CE010E9490
:1011A0003E08FE01E45AFD4F8083080F111D219671
:1011B000CB32D10599F78AE290E00E943E088093F5
:1011C000860281508C3010F0109286028091860247
:1011D000080F111D8AE090E00E94460820E0801769
:1011E000910709F421E0822FDF91CF911F910F9198
:1011F000089587E092E0AACF0F931F93CF93DF93D8
:10120000E0E0F0E000E010E08491080F111D31965D
:1012100080E4E030F807C1F790910A0280E0209165
:101220000902EC01C20FD11D86E090E00E94460841
:10123000C817D90761F086E090E0BE010E945E0702
:1012400088E090E0B8010E945E0781E00AC088E073
:1012500090E00E9446088017910711F480E001C0D9
:101260008FEFDF91CF911F910F9108950F931F93EF
:10127000CF93DF93E2E0F0E081E280935700849126
:10128000843931F488EF91E090936A028093690287
:101290008FED93E06CE070E00E945E1B082F10E081
:1012A00010936C0200936B028FED93E06DE070E0A1
:1012B0000E945E1B382F20E0200F311F30936C02FC
:1012C00020936B022835310538F0809169029091A6
:1012D0006A0228173907C0F088E590E090936C0205
:1012E00080936B028FED93E06CE070E048E50E9424
:1012F000651B40916C028FED93E06DE070E00E9401
:10130000651B1092B70316C0C901CE976AE170E061
:101310000E949323882331F0281B310930936C02FB
:1013200020936B028FED93E06EE070E00E945E1BF5
:101330008093B7038091B7038F5F8093B7038436A0
:1013400010F01092B703A3E5B3E0FD013896CFE3A8
:10135000D3E01D9211821082118A108A199219927B
:10136000329683E0AB35B807A1F7109252038AE1B9
:101370008093B6031092500310924F030E94361CC4
:101380006093B8037093B9038093BA039093BB033F
:10139000DF91CF911F910F91089580913E0381308D
:1013A00019F482E080933E0380913E03833069F418
:1013B00084E080933E030E94361C609392037093F6
:1013C0009303809394039093950308958091200351
:1013D000823011F0E0E015C00E94441CE0E0209152
:1013E00098033091990340919A0350919B03621B9B
:1013F000730B840B950B635679418040904008F045
:10140000E1E08E2F0895EF92FF920F931F9380914A
:101410007102882309F496C00E94E609882309F026
:1014200091C08AC0F0E060916B0270916C026E0F07
:101430007F1FE456FC4F8FED93E040810E94651BB7
:101440008091B6038F5F8093B6038A3109F04CC058
:1014500080916B0290916C024A9690936C028093FB
:101460006B022091690230916A0282179307E0F1C2
:1014700088E590E090936C0280936B0235C0EA316E
:1014800039F440916C028FED93E06DE070E008C09C
:10149000EB3171F48FED93E06CE070E040916B0202
:1014A0000E94651B8091B6038F5F8093B6031CC0BA
:1014B000EC31D1F48DE18093B60380914F0390918C
:1014C0005003892B41F48FED93E06EE070E0409182
:1014D000B7030E94651B80914F03909150030196C2
:1014E0009093500380934F03209123033091240362
:1014F00040912503509126038091B8039091B90340
:10150000A091BA03B091BB0379018A01E81AF90AE4
:101510000A0B1B0BD801C70180569A4EA040B04061
:1015200088F02093B8033093B9034093BA035093E3
:10153000BB030E94DF0606C0E091B603EA3108F063
:101540009ECF70CF1F910F91FF90EF9008950F9352
:101550001F93CF93DF9380912003823009F057C00F
:1015600080912203882309F452C00E94441CAB01DD
:10157000BC018091980390919903A0919A03B09136
:101580009B038A019B01081B190B2A0B3B0BD901FA
:10159000C80183569941A040B040C8F12091840011
:1015A0003091850080910B0290910C028F5F9841E1
:1015B0008217930760F11EC08091D30384608093EB
:1015C000D303F8941092D5031092D603809184002F
:1015D000909185009093D8038093D7035D9ACCEBCC
:1015E000D3E089910E94240623E0C53DD207C9F7C4
:1015F00078940DC0409398035093990360939A0395
:1016000070939B0380913D038823B1F6DACFDF917D
:10161000CF911F910F910895EF92FF920F931F9317
:101620008C010E94441C780100E010E0E60EF71ED9
:10163000081F191F02C00E94A70A0E94441C6E15B1
:101640007F0580079107B8F31F910F91FF90EF90EE
:101650000895EF92FF920F931F93CF93DF937B0137
:10166000142F9C01442737FD4095542F60E271EA06
:1016700087E090E00E94DC23E9012530310514F475
:10168000C5E0D0E0177018608DE6612F0E949A04C3
:101690002D9A61E070E080E090E00E946A1C2D9835
:1016A000A895B701882777FD8095982F20E930ED20
:1016B00043E050E00E9468239E01442737FD409597
:1016C000542F0E94DC23790100E010E00AC0419A07
:1016D000CE010E940C0B4198CE010E940C0B0F5FB3
:1016E0001F4F0E151F0598F3DF91CF911F910F919A
:1016F000FF90EF90089583E00E94E80480939603A2
:1017000084E00E94E8048093970386E060E00E94F2
:101710009A0487E061E00E949A0489E060913F02A8
:101720000E949A048AE065E00E949A048BE062E1DC
:101730000E949A048CE065E10E949A048DE06AE0C0
:101740000E949A048EE060E00E949A0480E76CE2B6
:101750000E949A0480E360E00E949A0489E7609105
:101760007C020E949A048AE766E00E949A0481E75C
:1017700062E10E949A0482E762E00E949A0483E791
:1017800060E00E949A0484E760E00E949A048EE080
:1017900060E00E949A0460917D02677068608DE647
:1017A0000E949A046AE070E080E090E00E946A1C67
:1017B00087E069E00E949A0488EB91E061E070E0C4
:1017C00040917D020E94290B8DE591E061E070E07F
:1017D00040917E020E94290B85E091E061E070E07B
:1017E00040917F020E94290B8FEA90E061E070E057
:1017F000409180020E94290B87E061E00E949A04D8
:1018000008950E94D20562E370E080E090E00E94BB
:101810006A1C0E94AF05000008958F929F92AF92BC
:10182000BF92CF92DF92EF92FF920F931F93CF93CD
:10183000DF93182F6B01042FA8958DE160E40E94BF
:101840009A0489E7612F0E949A040E94010C0E9469
:10185000361C4B015C01EE24FF248C0C9D1CAE1C3D
:10186000BF1C83E080933E0307C00E94361C86168F
:101870009706A806B90620F080913E038330A9F3AD
:1018800080913E03843009F04AC08FE70E947F04B4
:10189000C2E0D3E00E94DA04899383E0C231D80722
:1018A000C9F70E94AF05FE013E9790E05CE8808199
:1018B000982740E0892F90E09C013595279580FF7F
:1018C00003C0952F922701C0922F4F5F483091F7A8
:1018D000319683E0E131F80751F7992301F50023B0
:1018E00021F0809102030817D1F48BE20E94E804F2
:1018F0002091DA033091DB03482F50E0813810F05B
:1019000020503140240F351F3093DB032093DA033E
:101910008091D9038F5F8093D90381E001C080E07B
:10192000DF91CF911F910F91FF90EF90DF90CF90BB
:10193000BF90AF909F908F9008951F9380916F02FA
:10194000882309F054C085E794E00E945F1F1816B1
:1019500019060CF04CC085E794E00E94901F8D3072
:10196000910591F48091820280936F0280933F02EF
:101970000E947B0785E794E060E071E00E942022EE
:101980000E94EE0481E034C08E33910531F08E3236
:10199000910519F08E3E910521F4809182028F5FAE
:1019A0000CC08C33910531F08C32910519F0813ADD
:1019B0009105E9F4809182028150809382028091A6
:1019C0008202882319F48FEF8093820210918202A1
:1019D00089E0612F0E949A0485E794E0612F4AE034
:1019E00050E00E948D218091820280933F0280E02E
:1019F0001F91089585E794E00E945F1F181619064D
:101A000014F020E00CC085E794E00E94901F8D3612
:101A1000910521F020E08D34910509F421E0822F19
:101A20000895EF92FF920F931F938091230390915B
:101A30002403A0912503B091260320918E033091B9
:101A40008F034091900350919103821B930BA40B41
:101A5000B50B4497A105B10508F45FC085E794E094
:101A60000E945F1F082F10E02CE8E22EFF24F39461
:101A700051C085E794E00E94901F982F80918B03BE
:101A8000882361F4963109F044C090937B03F0926F
:101A90008B0310928D03109283023BC0E82FF0E07D
:101AA000E558FC4F90838F5F80938B03803188F1E2
:101AB00010928B03EDE7F3E090E08081982740E0FF
:101AC000892F90E09C013595279580FF03C09E2DBE
:101AD000922701C0922F4F5F483091F7319683E0F3
:101AE000EA38F80751F79923A1F4809123039091E4
:101AF0002403A0912503B091260380938E03909335
:101B00008F03A0939003B093910381E080938D03A2
:101B100004C01F5F10170CF4ACCF1F910F91FF9002
:101B2000EF9008951F93182F06C085E794E060E2B8
:101B30000E94C91F11501123C1F71F9108951F93CF
:101B4000182F8A3020F482E00E94920D07C084365C
:101B500028F485E794E060E20E94C91F85E794E0DD
:101B6000612F4AE050E00E947B2185E794E060E22B
:101B70000E94C91F1F910895CF93DF9385E794E0DA
:101B800067E071E00E941D22C8E5D0E012C08FED31
:101B900093E0BE014FEF0E94651BCE018F779070DE
:101BA000892B29F485E794E06EE20E94C91FA8956D
:101BB00021968091690290916A02C817D90738F37B
:101BC00088E590E090936C0280936B021092B703CB
:101BD0008FED93E06CE070E048E50E94651B40915A
:101BE0006C028FED93E06DE070E00E94651B8FED5D
:101BF00093E06EE070E04091B7030E94651B0E9485
:101C0000360985E794E063E271E00E942022DF91CB
:101C1000CF9108951F93CF93DF93EC01162FFE0110
:101C200021966491662329F085E794E00E94C91FFC
:101C3000F6CF112321F085E794E00E949E20DF91EA
:101C4000CF911F9108958AE991E061E00E940A0E08
:101C50008DEA91E060E00E940A0E85E794E06091D1
:101C600009024AE050E00E948D2108959F92AF92B0
:101C7000BF92CF92DF92EF92FF920F931F93CF9379
:101C8000DF93833719F020E0833509F421E0A22E99
:101C90008C3619F090E08C3409F491E0B92E84363A
:101CA00019F09924843411F499249394222331F463
:101CB000992311F4AA24A394BB24B39485E794E058
:101CC00069E271E00E941D2285E794E068E570E01A
:101CD0004AE050E00E94EB2185E794E06AE371E07E
:101CE0000E941D226091690270916A0285E794E06A
:101CF0004AE050E00E944D2185E794E06CE371E0FA
:101D00000E941D2260916B0270916C0285E794E045
:101D10004AE050E00E945E2185E794E064E471E0CF
:101D20000E941D22AA2029F081EC91E060E00E942F
:101D30000A0EBB2031F081EF91E061E00E940A0EB3
:101D400004C085E794E00E949E20C0916B02D09170
:101D50006C02CC24FF248E010F5F1F4F8FED93E0A8
:101D6000BE010E945E1BD82E84E68D1520F49920BA
:101D700011F46A9675C0DF10CC248D2D0E949F0D42
:101D8000C3948C2D0E949F0DAA2069F178010894BC
:101D9000E11CF11C8FED93E0B8010E945E1B182F2F
:101DA0008F770E949F0D85E794E060E20E94C91F33
:101DB000812F881F8827881F0E949F0D85E00E9421
:101DC000920DB7012A968B010F5F1F4F8FED93E0A5
:101DD0000E945E1B0E949F0DB8010C171D0799F70A
:101DE000E701289602C0E8012996BB2091F183E023
:101DF0000E94920DAA2029F085E794E060E20E94FB
:101E0000C91FBE018E01085F1F4F7B010894E11CB2
:101E1000F11C8FED93E00E945E1B0E949F0DE01667
:101E2000F10611F0B701F1CF84E00E94920DB801E4
:101E300060968B010F5F1F4F8FED93E00E945E1B3A
:101E40000E949F0DB8010C171D0799F7E70128960E
:101E500001C0609685E794E00E949E20A895FD2C25
:101E60008091690290916A02C817D90710F0C8E5FD
:101E7000D0E080916B0290916C02C817D90709F0ED
:101E80006ACFDF91CF911F910F91FF90EF90DF907C
:101E9000CF90BF90AF909F900895FF920F931F93A4
:101EA000CF93DF938EE491E061E00E940A0EFF245D
:101EB00001E010E0CF2DD0E0FE01E057FD4F808122
:101EC00090E08017910729F585E794E0B8014AE092
:101ED00050E00E94EB2185E794E06DE30E94C91F6A
:101EE000C8010E943E08682F85E794E04AE050E070
:101EF0000E947B2185E794E069E00E94C91FCC0F16
:101F0000DD1FC955DD4F8881998161E00E940A0E6D
:101F1000F3940F5F1F4F0B32110561F6DF91CF91E4
:101F20001F910F91FF900895AF92BF92CF92DF92D1
:101F3000EF92FF920F931F93CF93DF935C01019673
:101F40000E944D029C0101978E3F910510F010E018
:101F50001EC0122F82E090E0F501E80FF91FE0812A
:101F6000EE23A9F00196ED3279F48A0D9B1D0E94B3
:101F70004D029C01812F90E08217930740F42F3F80
:101F8000310528F4C22E05C08A30910529F7EEEFFD
:101F9000CE2E0E94EE040E94010C8EE060E00E94B2
:101FA0009A0486ED90E061E00E940A0EE12EAEC038
:101FB00089E76E2D0E949A048DEE92E00E94C31C68
:101FC0000FEFFF24C0E0D0E010E083E690E00E9435
:101FD000C31C86E20E94E804C80FD11D801708F4D4
:101FE000082FF81608F4F82E1F5F173C71F789E0E8
:101FF0008E1538F085E794E06DE471E00E941D22B3
:1020000008C0E3E6EE1528F085E794E060E20E9460
:10201000C91F85E794E06E2D4AE050E00E947B21C5
:10202000E4E7F2E06AE380818E1509F463E2319619
:1020300082E0EC37F807B9F785E794E00E94C91F02
:1020400085E794E060E20E94C91F802F0E949F0DE7
:10205000CE0167EC70E00E949323162F862F0E941A
:102060009F0D8F2D0E949F0DF50180818E3409F008
:1020700047C00A3010F4DD2408C0083418F07DE3AE
:10208000D72E03C066EFD62ED00EF9E0FF1510F064
:1020900000E007C087E48F1510F40DE302C00F2D98
:1020A0000A501A3010F4FF2408C0183418F05DE309
:1020B000F52E03C046EFF42EF10E10E01F1521F4AB
:1020C00085E794E06AE217C01D1521F485E794E0E6
:1020D0006CE311C0101721F485E794E06EE30BC0A8
:1020E000D11630F4101720F485E794E06EE203C0B7
:1020F00085E794E060E20E94C91F1F5F0117F0F6B8
:1021000085E794E00E949E20A895E394CE1408F001
:102110004FCFDF91CF911F910F91FF90EF90DF9004
:10212000CF90BF90AF900895EF92FF920F931F93BF
:10213000CF93DF937C01FC01108200E010E085E783
:1021400094E00E945F1F18161906CCF585E794E00D
:102150000E94701F469739F481E7F701808311824E
:102160001092830234C085E794E00E94901FEC0136
:102170001816190654F585E794E06C2F0E94C91FC4
:10218000CD30D10519F0CA30D10529F485E794E0A6
:102190000E949E201CC0C830D10531F401151105E4
:1021A00071F201501040CBCFF701E00FF11FC08357
:1021B00011820A3011054CF40F5F1F4F06C061E019
:1021C00070E080E090E00E946A1CA895B8CFDF9193
:1021D000CF911F910F91FF90EF900895FF920F9371
:1021E0001F938730A8F5880F082F10E0000F111FEC
:1021F000F801EB52FD4FF0808F2D60E00E94681DCA
:102200008F2D61E00E94A71D09521D4FF80100812A
:10221000802F61E00E94A71D82E090E00E94C31C15
:102220008F2D0E94FB1D019779F4802F60E00E94A2
:10223000A71D82E090E00E94C31C8F2D0E94FB1D11
:10224000892B11F481E005C08F2D61E00E94681D8B
:1022500080E01F910F91FF9008952F923F924F922F
:102260005F926F927F928F929F92AF92BF92CF9226
:10227000DF92EF92FF920F931F93DF93CF93CDB72F
:10228000DEB72E970FB6F894DEBF0FBECDBF80E04D
:1022900091E00E9471201C0185E00E94EE101B86D7
:1022A000882311F481E08B877894D101A150BF4F2E
:1022B000BE87AD871092D9031092DB031092DA0328
:1022C00080916F02855A873418F087EC80936F02F3
:1022D0000E94EE040E94010C8EE060E00E949A04CD
:1022E0008DE160E00E949A040E94AF05BB85BB238C
:1022F00031F085E794E060E571E00E941D223A86A6
:102300002986F10111928D859E85E817F907D1F78D
:102310000E94361C5B016C018FE19EE4A0E0B0E0FE
:10232000A80EB91ECA1EDB1E55241C86A895810165
:10233000FF249924EE24D8018C918A3FA8F489E7E0
:102340006F2D0E949A0489E892E00E94C31C86E2E5
:102350000E94E804982FF8018081891708F490837F
:10236000E91610F49F2CE92EF3940F5F1F4FFFEF37
:10237000FF1609F72D98552009F58B858823D1F094
:1023800085E794E064E671E00E941D2285E794E011
:10239000692D4AE050E00E947B2185E794E06FE6DA
:1023A00071E00E941D2285E794E06E2D4AE050E026
:1023B0000E948D2195E99E1528F07CCFA5E9AE15E8
:1023C00008F0B4CF892D63E071E04C850E940D0CBC
:1023D0008823D9F0B0910203BC87EB85EE2361F02E
:1023E00085E794E0692D4AE050E00E947B2185E773
:1023F00094E060E20E94C91FE1E0F0E0EC0FFD1FF5
:10240000E50DF11D908253942D9AF101E90DF11D16
:102410008FEF8083552009F44DCF0E94361CA616FD
:10242000B706C806D90660F4852D8150823060F069
:1024300094E0591649F0A8E05A1609F03BCF04C0C1
:10244000B7E0B51508F072CFB980EB85EE2331F017
:1024500085E794E062E771E00E941D2212E0C12E40
:10246000D12CCC0EDD1E36014101AA24A3944424B4
:1024700064C00E94361C7B018C018FE19EE4A0E0C9
:10248000B0E0E80EF91E0A1F1B1F08C00E94361C90
:10249000E616F7060807190708F40CCF8B2D63E042
:1024A00071E04C850E940D0C882381F30E94361C3C
:1024B0007B018C01D3018C9167E572E04C850E9411
:1024C0000D0C882399F10E94361C28EF3FEF4FEF47
:1024D0005FEF2E193F09400B510B260F371F481F86
:1024E000591FB5E05695479537952795BA95D1F779
:1024F000622F283008F06850F10190E08191861732
:1025000009F4A3CF9F5F9A15C8F3F4016183FB859B
:10251000FF2359F085E794E04AE050E00E947B21D8
:1025200085E794E060E20E94C91F4394A394089455
:10253000611C711C0894811C911CA51408F499CF8E
:102540008B85882321F085E794E00E949E20B0923D
:10255000740291E0591641F4E5E7F2E0B192A2E08D
:10256000EC37FA07D9F750C0B2E05B1691F48A81D4
:10257000B092740280937502B092760280937702D3
:10258000B092780280937902B0927A0280937B02B3
:102590003BC0E4E05E16E9F49E012B5F3F4FA98546
:1025A000BA851196EC91EF5FE43038F4F0E0D60193
:1025B0008C91EC58FD4F80838483E985FA853196B0
:1025C000FA87E9870894C11CD11CC216D30639F7D3
:1025D0001BC0F6E0F41508F06DCE9E01275F3F4F5B
:1025E000A985BA851196EC91EF5FF0E0EC58FD4FAC
:1025F000D6018D916D018083E985FA853196FA8740
:10260000E987A217B30761F76091D9038091DA03D4
:102610009091DB0370E00E94A7237093DB0360932B
:10262000DA03FC85F0936E02CB010E964D9728F4E9
:1026300080916F02861B80936F028B858823D9F16E
:1026400085E794E06CE771E00E941D2285E794E045
:102650006C854AE050E00E947B2185E794E062E8C7
:1026600071E00E941D2285E794E060916F024AE0CC
:1026700050E00E947B2185E794E06AE871E00E94C7
:102680001D2204E712E085E794E0D8016D918D01E9
:102690004AE050E00E947B2185E794E060E20E94DE
:1026A000C91FB2E00C371B0771F785E794E066E9B4
:1026B00071E00E942022C1010E946E200E947B07CF
:1026C000439A2E960FB6F894DEBF0FBECDBFCF91C2
:1026D000DF911F910F91FF90EF90DF90CF90BF900F
:1026E000AF909F908F907F906F905F904F903F90B2
:1026F0002F900895CF92DF92EF92FF920F931F9346
:10270000DF93CF93CDB7DEB72C970FB6F894DEBF2B
:102710000FBECDBF87EE90E061E00E940A0E8E01F1
:102720000F5F1F4FC8010E9494108981813709F4FF
:1027300086C0813509F483C068010E944D0F81E095
:1027400091E061E00E940A0EC6010E949410898106
:102750008E3611F08E3421F4C6010E94940FF4CF0E
:10276000833711F0833549F48A81853619F40E9444
:10277000BC0DEACF0E94360EE7CF8237F9F48A818A
:102780008536E1F48B818236C9F48C818936B1F4C7
:102790008D818E3699F48E81843681F487E791E0BD
:1027A00061E00E940A0EC6010E9494108981893757
:1027B00011F0893519F40E942D1141C089818137AA
:1027C000F1F18135E1F1C6010E944D027C018BE2FD
:1027D000E816F10408F0B1CFC6010E949410898177
:1027E000813769F1813559F1C6010E944D028C0192
:1027F0008F3F910511F008F0A0CFE114F10419F416
:10280000009709F49ACF85E794E0B7014AE050E0D9
:102810000E94EB2185E794E06DE30E94C91F85E7E4
:1028200094E0B8014AE050E00E94FE21C701602F09
:102830000E9455070E9466080E947B077ECF2C9657
:102840000FB6F894DEBF0FBECDBFCF91DF911F91C1
:102850000F91FF90EF90DF90CF9008951F93CF934B
:10286000DF93EC0110E011C0A8956DE770E080E007
:1028700090E00E946A1CCB30D10568F00E94FA0CEF
:10288000882349F00E947A1310C0812F90E08C17A2
:102890009D0750F30AC0439A6DE770E080E090E036
:1028A0000E946A1C43981F5FF0CFDF91CF911F9168
:1028B0000895EF92FF920F931F930E94FC08182F28
:1028C0008F3F69F480918C03882329F48AE890E093
:1028D00061E00E940A0E8FE295E70E942E1482E0CA
:1028E0000E94EE10882391F084E090E00E942E1464
:1028F0000E947B0780918C03882329F48AEB90E067
:1029000061E00E940A0E84E090E079C00E946608AF
:10291000882309F076C080918C03882329F485EA06
:1029200090E061E00E940A0E113009F066C00E943A
:10293000361C7B018C018FE097E2A0E0B0E0E80E4E
:10294000F91E0A1F1B1F0BC081E090E00E942E148D
:102950000E94FA0C882319F00E947A1352C00E9438
:10296000361C6E157F058007910770F388E480930D
:102970006E0287EC80936F0291E090937102109247
:10298000730210927202109270028BE4809387029D
:1029900082ED8093880284E680937C0284E08093B9
:1029A0007D0282E080937E0290937F0210928002EB
:1029B0008EE18093810287E0809384029093850268
:1029C000109286028DE48093740283E980937502ED
:1029D00089E58093760287EA809377028DE680937B
:1029E00078028DEB809379028FE780937A0281EDF4
:1029F00080937B020E947B0704C088E790E00E94DE
:102A00002E141F910F91FF90EF9008951F93E82FC0
:102A1000F62F40918402442331F4882311F010E012
:102A20001CC01FE71AC02091DC033091DD03C901EF
:102A3000642F70E00E949323261B370BFE9FC0017A
:102A40001124280F391F3093DD032093DC03C901C3
:102A5000642F70E00E949323162F83E0612F70E0B3
:102A60000E94081D10931E0310921F031F910895CA
:102A70002F923F924F925F926F927F928F929F928E
:102A8000AF92BF92CF92DF92EF92FF920F931F937C
:102A9000CF93DF9380E00E94EE1080932003882381
:102AA00021F08AE080933D021DC086E00E94EE1076
:102AB0008823C1F082E08093200384E080933D026C
:102AC00080E69DE690930C0280930B029093870022
:102AD0008093860010925702809142028062809318
:102AE00042025D9884E00E94EE1080938C0381E0A6
:102AF00090E00E942E1485E00E94EE10882311F0D1
:102B00000E942D1185E794E040E056E960E070E016
:102B10000E94D81E80918C03882331F40E94230EDA
:102B200081E090E00E942E140E94591480916F025F
:102B300080933F020E9436090E9434030E94F807E6
:102B40000E94EE04109222032EE088E190E00FB67E
:102B5000F894A895809360000FBE20936000809148
:102B60008C03882309F073C085E794E06BE971E07A
:102B70000E941D2285E794E060916D024AE050E0DA
:102B80000E948D210E944D0F85E794E060EA71E07C
:102B90000E941D2284E00E94E804682F70E06170AA
:102BA000707085E794E04AE050E00E94FE2185E7DE
:102BB00094E065EA71E00E94202280E00E94E8042F
:102BC000682F85E794E04AE050E00E948D2181E083
:102BD0000E94E804682F85E794E04AE050E00E94F4
:102BE0008D2182E00E94E804682F85E794E04AE0A6
:102BF00050E00E948D2185E794E06BEA71E00E942D
:102C00001D2281E10E94E804682F70E0605470404A
:102C100085E794E04AE050E00E94FE2188E690E0DB
:102C200061E00E940A0E80912003813031F485E733
:102C300094E06EEA71E00E942022809120038230AD
:102C400031F485E794E066EB71E00E942022442491
:102C5000332481E080933E020E94AF050E94010C64
:102C6000789483E080933E030E94361C6093230394
:102C70007093240380932503909326036093270386
:102C8000709328038093290390932A0360932B0366
:102C900070932C0380932D0390932E0360932F0346
:102CA0007093300380933103909332035524AA2408
:102CB000BB2422242394A8958CE00E94E804882356
:102CC00071F40E94EE040E94010C80918C03882311
:102CD00031F485E794E06FEB71E00E94202280914F
:102CE0003E03843009F0F3C143982D9A8FE70E9488
:102CF0007F04C2E0D3E00E94DA04899323E0C2316A
:102D0000D207C9F70E94AF05FE013E9790E080818F
:102D1000982740E0892F90E09C013595279580FF0A
:102D200003C09CE8922701C0922F4F5F483091F773
:102D3000319683E0E131F80751F7992351F0809102
:102D40008C03882309F0A6C185E794E066EC71E066
:102D50000FC09091020380916E02981761F08091EC
:102D60008C03882309F096C185E794E06BEC71E051
:102D70000E9420228FC1CF010F970E946103809192
:102D80001103813089F4332081F480918C038823EE
:102D900031F485E794E061ED71E00E9420220E9409
:102DA00032073324339401C03324609118037091A7
:102DB00019036115710551F0809116039091170365
:102DC0000E94932370931703609316038091160358
:102DD00090911703909319038093180360911C033B
:102DE00070911D036115710561F080911A03909136
:102DF0001B030E94932360931A0370931B03462EB8
:102E000004C040921A0310921B0320911A033091C0
:102E10001B0380911603909117038217930728F4E0
:102E2000109217031092160306C0821B930B909307
:102E300017038093160380918502882329F08091DF
:102E400016039091170304C0809118039091190301
:102E500090931F0380931E0380911E0361E00E94E4
:102E600006158BE20E94E804C82FD0E080918C0305
:102E7000882309F04EC085E794E066ED71E00E947A
:102E80001D22609118037091190385E794E04AE0D0
:102E900050E00E944D2185E794E069ED71E00E94C9
:102EA0001D2260914F037091500385E794E04AE042
:102EB00050E00E944D2185E794E06DED71E00E94A5
:102EC0001D226091210370E06F5F7F4F85E794E0E2
:102ED0004AE050E00E94EB2185E794E061EE71E06A
:102EE0000E941D2285E794E0BE014AE050E00E9466
:102EF000EB2185E794E065EE71E00E941D22609170
:102F00001A0370911B0385E794E04AE050E00E94A9
:102F10005E21E0912103F0E0EE0FFF1FDF01A55AD3
:102F2000BC4F8D919C9111972091180330911903FA
:102F3000820F931F8D939C93DF01A559BC4F8D91F8
:102F40009C91119720911A0330911B03820F931FBC
:102F50008D939C93E15CFC4F8081918101969183DC
:102F6000808340916F02442309F453C0C038D105D7
:102F700014F0C050D140CE014996C39718F020E01C
:102F800030E006C09E0104E0220F331F0A95E1F7EE
:102F90005394C50160E170E00E94A723A61AB70A06
:102FA000C90160E170E00E94A723A60EB71EC5010B
:102FB000B7FE04C0882799278A199B098134910597
:102FC00054F120E2251538F5C50160E170E00E945A
:102FD000A723EB01D095C195DF4F642F6C0F609351
:102FE0006F0289E00E949A0480918C03882369F41F
:102FF00085E794E06AEE71E00E941D2285E794E087
:10300000BE014AE050E00E94FE215524AA24BB24C0
:1030100002C020923D0310923C0310923B030E9499
:10302000361C6093230370932403809325039093AD
:10303000260360932B0370932C0380932D039093AE
:103040002E0360933303709334038093350390937E
:10305000360360933703709338038093390390935A
:103060003A0310923E02109215031092140310922C
:103070003D030E94B20680918C03882359F086E1BB
:103080008093020385E794E062E073E040E150E062
:103090000E9474200E94A504809192039091930352
:1030A000A0919403B091950380932F0390933003E4
:1030B000A0933103B093320383E080933E032D98B5
:1030C0000E94A70A83EF91E00E94C31CF4CD0E94E6
:1030D000361C7B018C01609323037093240380933F
:1030E00025039093260360902F0370903003809007
:1030F0003103909032030E94A70A0E949D0C8823FE
:1031000009F0A7CD80918302882311F180912303D8
:1031100090912403A0912503B091260320912703C9
:10312000309128034091290350912A03821B930B6D
:10313000A40BB50B8F509742A040B04048F40E94BA
:10314000FA0C882339F00E947A130E94EE0481CD94
:103150000E94110D80918D03882309F44FC0809146
:10316000370390913803A0913903B0913A038196C7
:10317000A11DB11D20918E0330918F0340919003CA
:103180005091910382179307A407B507B8F58BE711
:1031900093E00E9461030E94B20610928D03109288
:1031A0003C0310923B038091230390912403A09150
:1031B0002503B091260380932B0390932C03A093B7
:1031C0002D03B0932E038093330390933403A09385
:1031D0003503B093360380918C03882339F485E757
:1031E00094E061EF71E00E94202208C085E794E03E
:1031F0006BE773E040E150E00E947420809123036C
:1032000090912403A0912503B091260320912B03D4
:1032100030912C0340912D0350912E03821B930B70
:10322000A40BB50B88559240A040B04090F180911E
:103230003C03882371F580912203882351F180910A
:103240008C03882331F485E794E066EF71E00E94F7
:10325000202220923C038091230390912403A0918B
:103260002503B09126038093330390933403A093F6
:103270003503B09336030E94F8070E94B2064398C4
:1032800080E068E00E940615809152038F5F809372
:1032900052038091230390912403A0912503B091C0
:1032A0002603209137033091380340913903509120
:1032B0003A03821B930BA40BB50B885B9B40A04089
:1032C000B04010F020923E0267017801C618D7087E
:1032D000E808F908D701C6010197A109B1090497C7
:1032E000A105B105D0F483E690E00E94C31C0091D3
:1032F0001A0310911B0386E20E94E804080F111DB7
:1033000010931B0300931A0380911C0390911D03DB
:10331000019690931D0380931C0380913E028823A5
:1033200019F02FEF30E02EC0D701C6010B97A1098D
:10333000B1090A97A105B105D8F483E690E00E948F
:10334000C31C009116031091170386E20E94E80443
:10335000080F111D10931703009316038091180393
:10336000909119030196909319038093180308C054
:1033700089E1C816D104E104F10414F40E94030A9F
:1033800023E230E0C901AA2797FDA095BA2FC816FD
:10339000D906EA06FB060CF4B4C080913E028823ED
:1033A00019F580913C03882309F4439A8091210305
:1033B00020912F033091300340913103509132031B
:1033C00080FF05C0205E3F4F4F4F5F4F04C0215E1E
:1033D0003F4F4F4F5F4F20932F0330933003409365
:1033E00031035093320310C0809123039091240342
:1033F000A0912503B091260380932F03909330036F
:10340000A0933103B093320360913E0227E0629FA4
:10341000B00111246F5F80E00E94061580918C033B
:10342000882309F062C085E794E06CEF71E00E94A8
:103430001D2260911403709115036F5F7F4F70938D
:1034400015036093140385E794E04AE050E00E947E
:103450004D2160911C0370911D036115710561F090
:1034600080911A0390911B030E94932360931A0387
:1034700070931B03462E04C040921A0310921B0344
:1034800085E794E069ED71E00E941D2260914F0391
:103490007091500385E794E04AE050E00E944D218E
:1034A00085E794E06DED71E00E941D22609121039B
:1034B00070E06F5F7F4F85E794E04AE050E00E9444
:1034C000EB2185E794E065EE71E00E941D2260919A
:1034D0001A0370911B0385E794E04AE050E00E94D4
:1034E0004D2185E794E00E949E20E0912103F0E0C9
:1034F000EF5AFC4F82818F5F828320923D030E94AE
:10350000A50480913C03882309F4D5CB0E94030ACB
:10351000E0902303F09024030091250310912603EB
:103520008091330390913403A0913503B091360319
:10353000E81AF90A0A0B1B0B6091810280913B0388
:10354000882349F088E8E81683E1F80680E0080758
:1035500080E018077CF470E080E090E028EE33E033
:1035600040E050E00E9468236E157F0580079107B8
:103570000CF0A1CB20923B03809181028F3F61F040
:1035800080918C03882331F485E794E060E072E059
:103590000E9420220E947B0B80918C03882331F4AF
:1035A00085E794E064E072E00E9420220E94EE042D
:1035B0000E94AF058091230390912403A0912503DD
:1035C000B09126038093330390933403A093350383
:1035D000B093360370CB8DE061E00E94681D81E1FD
:1035E00061E00E94681D8EE060E00E94681D8FE02F
:1035F00061E00E94681D80E161E00E94681D82E038
:1036000060E00E94681D84E061E00E94681D80E027
:1036100060E00E94681D81E061E00E94681D80E01A
:1036200061E00E94A71D83E061E00E94681D85E0C3
:1036300061E00E94681D86E061E00E94681D87E0ED
:1036400061E00E94681D88E061E00E94681D89E0D9
:1036500061E00E94681D8AE061E00E94681D8BE0C5
:1036600061E00E94681D8CE061E00E94681D82E1BB
:1036700061E00E94681D83E161E00E94681DE1E84D
:10368000F0E01082109285001092840080910B026D
:1036900090910C02909387008093860082E0809343
:1036A00080008AE1808381E080936F0080E06DEC90
:1036B00079E042E050E00E94711B0895F999FECF35
:1036C00072BD61BDF89A80B50895F999FECF1FBA11
:1036D00072BD61BD40BD0FB6F894FA9AF99A0FBE5B
:1036E0000895823000F5E82FF0E0EE0FFF1FE05262
:1036F000FC4F71836083882319F08130A1F408C0E6
:10370000809169008C7F842B80936900E89A0895EA
:1037100080916900440F551F440F551F837F842BF0
:1037200080936900E99A08951F920F920FB60F9245
:1037300011242F933F934F935F936F937F938F93B6
:103740009F93AF93BF93EF93FF938091E00390918A
:10375000E103892B29F0E091E003F091E103099561
:10376000FF91EF91BF91AF919F918F917F916F9159
:103770005F914F913F912F910F900FBE0F901F902F
:1037800018951F920F920FB60F9211242F933F930B
:103790004F935F936F937F938F939F93AF93BF9359
:1037A000EF93FF938091E2039091E303892B29F03B
:1037B000E091E203F091E3030995FF91EF91BF914E
:1037C000AF919F918F917F916F915F914F913F91B9
:1037D0002F910F900FBE0F901F9018951F920F9270
:1037E0000FB60F9211242F933F938F939F93AF9314
:1037F000BF938091E8039091E903A091EA03B0910F
:10380000EB033091EC030196A11DB11D232F2D5F19
:103810002D3720F02D570196A11DB11D2093EC03EB
:103820008093E8039093E903A093EA03B093EB033A
:103830008091E4039091E503A091E603B091E70342
:103840000196A11DB11D8093E4039093E503A0931D
:10385000E603B093E703BF91AF919F918F913F91A2
:103860002F910F900FBE0F901F9018958FB7F8945F
:103870002091E8033091E9034091EA035091EB0372
:103880008FBFB901CA0108959FB7F8942091E4034E
:103890003091E5034091E6035091E70386B5A89B7C
:1038A00006C08F3F21F02F5F3F4F4F4F5F4F9FBFAD
:1038B000542F432F322F2227280F311D411D511D18
:1038C00082E0220F331F441F551F8A95D1F7B9019B
:1038D000CA0108959B01AC017FB7F8948091E4037D
:1038E0009091E503A091E603B091E70366B5A89B2C
:1038F00005C06F3F19F00196A11DB11D7FBFBA2F02
:10390000A92F982F8827860F911DA11DB11D62E058
:10391000880F991FAA1FBB1F6A95D1F7BC012DC044
:10392000FFB7F8948091E4039091E503A091E6033A
:10393000B091E703E6B5A89B05C0EF3F19F00196EB
:10394000A11DB11DFFBFBA2FA92F982F88278E0F59
:10395000911DA11DB11DE2E0880F991FAA1FBB1F79
:10396000EA95D1F7861B970B885E9340C8F22150E9
:1039700030404040504068517C4F21153105410591
:10398000510571F60895019739F0880F991F880F36
:10399000991F02970197F1F70895789484B5826092
:1039A00084BD84B5816084BD85B5826085BD85B5E3
:1039B000816085BDEEE6F0E0808181608083E1E892
:1039C000F0E01082808182608083808181608083CA
:1039D000E0E8F0E0808181608083E1EBF0E08081CD
:1039E00084608083E0EBF0E0808181608083EAE79F
:1039F000F0E0808184608083808182608083808128
:103A0000816080838081806880831092C1000895E6
:103A10001F93CF93DF93182FEB0161E00E94681D85
:103A2000209709F44AC0CF3FD10509F449C0E12FDE
:103A3000F0E0E15DFB4F84918330C1F0843028F4E5
:103A4000813051F08230B1F50CC0863019F18730E9
:103A500049F1843079F514C084B5806884BDC7BD50
:103A600033C084B5806284BDC8BD2EC08091800003
:103A7000806880938000D0938900C093880024C020
:103A800080918000806280938000D0938B00C093EF
:103A90008A001AC08091B00080688093B000C09303
:103AA000B30012C08091B00080628093B000C093D8
:103AB000B4000AC0C038D1051CF4812F60E002C0F8
:103AC000812F61E00E94A71DDF91CF911F91089582
:103AD000CF93DF93482F50E0CA01855E9B4FFC01D6
:103AE0003491495F5B4FFA018491882369F190E03A
:103AF000880F991FFC01E751FC4FA591B491FC017F
:103B0000ED50FC4FC591D491662351F42FB7F89432
:103B10008C91932F909589238C93888189230BC056
:103B2000623061F42FB7F8948C91932F909589238C
:103B30008C938881832B88832FBF06C09FB7F8940E
:103B40008C91832B8C939FBFDF91CF910895482F49
:103B500050E0CA01815D9B4FFC012491CA01855E42
:103B60009B4FFC019491495F5B4FFA0134913323E1
:103B700009F440C0222351F1233071F0243028F49D
:103B80002130A1F0223011F514C02630B1F02730D9
:103B9000C1F02430D9F404C0809180008F7703C035
:103BA000809180008F7D8093800010C084B58F77D6
:103BB00002C084B58F7D84BD09C08091B0008F772D
:103BC00003C08091B0008F7D8093B000E32FF0E0C0
:103BD000EE0FFF1FED50FC4FA591B4912FB7F89455
:103BE000662321F48C919095892302C08C91892BB6
:103BF0008C932FBF0895682F70E0CB01815D9B4FA0
:103C0000FC012491CB01855E9B4FFC014491695FCF
:103C10007B4FFB019491992319F420E030E03CC0E4
:103C2000222351F1233071F0243028F42130A1F007
:103C3000223011F514C02630B1F02730C1F0243005
:103C4000D9F404C0809180008F7703C080918000F8
:103C50008F7D8093800010C084B58F7702C084B5BB
:103C60008F7D84BD09C08091B0008F7703C08091A3
:103C7000B0008F7D8093B000892F90E0880F991F4E
:103C800083509C4FFC01A591B4918C9120E030E0D1
:103C9000842311F021E030E0C901089508951F92B6
:103CA0000F920FB60F9211242F933F934F938F9340
:103CB0009F93EF93FF938091C00082FD1DC04091C0
:103CC000C60020912D0430912E042F5F3F4F2F739B
:103CD000307080912F04909130042817390771F0CB
:103CE000E0912D04F0912E04E351FC4F408330937A
:103CF0002E0420932D0402C08091C600FF91EF9105
:103D00009F918F914F913F912F910F900FBE0F90E8
:103D10001F901895E0918104F0918204E05CFF4FC0
:103D20008191919120813181821B930B8F739070CF
:103D3000892B11F00E944E1E08951F920F920FB60C
:103D40000F9211242F933F938F939F93EF93FF93A1
:103D500020917104309172048091730490917404E5
:103D60002817390731F48091C1008F7D8093C100FD
:103D700014C0E0917304F0917404EF5CFB4F208158
:103D8000809173049091740401968F739070909356
:103D90007404809373042093C600FF91EF919F9168
:103DA0008F913F912F910F900FBE0F901F901895FC
:103DB000AF92BF92DF92EF92FF920F931F93CF9338
:103DC000DF93EC017A018B01DD24403081EE58074E
:103DD00080E0680780E0780711F0DD24D39491E05B
:103DE000A92EB12CEC89FD89DD2069F0C50108A060
:103DF00002C0880F991F0A94E2F7808360E079E09F
:103E00008DE390E005C0108260E874E88EE190E0F8
:103E1000A80197010E94BA232150304040405040F1
:103E2000569547953795279580E12030380720F043
:103E3000DD2011F0DD24D6CFE889F9893083EA89C5
:103E4000FB89208319A2EE89FF89408121E030E0BF
:103E5000C9010C8C02C0880F991F0A94E2F7482B05
:103E60004083EE89FF894081C9010D8C02C0880F13
:103E7000991F0A94E2F7482B4083EE89FF8940811D
:103E8000C9010E8C02C0880F991F0A94E2F7482BD3
:103E90004083EE89FF8980810F8C02C0220F331F7F
:103EA0000A94E2F7209528232083DF91CF911F9178
:103EB0000F91FF90EF90DF90BF90AF900895DC01DD
:103EC0001C96ED91FC911D97E05CFF4F2191319183
:103ED00080819181281B390B2F733070C90108959F
:103EE000DC011C96ED91FC911D97E05CFF4F208159
:103EF0003181E054F040DF01AE5BBF4F8D919C916A
:103F000011972817390719F42FEF3FEF07C08D914C
:103F10009C91E80FF91F8081282F30E0C901089596
:103F2000DC011C96ED91FC911D97E05CFF4F208118
:103F30003181E054F040DF01AE5BBF4F8D919C9129
:103F400011972817390719F42FEF3FEF10C08D9103
:103F50009C911197E80FF91F20818D919C911197E9
:103F600001968F73907011969C938E9330E0C901E7
:103F70000895DC0191968C919197882339F054969D
:103F8000ED91FC915597808186FFF9CF91961C9217
:103F90000895CF93DF93EC01EE85FF85E05CFF4F42
:103FA00020813181E054F0402F5F3F4F2F733070FC
:103FB000DF01AE5BBF4F8D919C9111972817390798
:103FC000D1F3E05CFF4F80819181E054F040E80F35
:103FD000F91F6083EE85FF85E05CFF4F318320830E
:103FE000EE89FF89208181E090E00F8C02C0880F6C
:103FF000991F0A94E2F7282B208381E089A3EC899A
:10400000FD8980818064808381E090E0DF91CF91A1
:104010000895109278041092770488EE93E0A0E05F
:10402000B0E08093790490937A04A0937B04B093DA
:104030007C0485EF92E090937604809375048DEE76
:1040400093E0909382048093810481E394E09093C1
:1040500084048093830485EC90E09093860480939D
:10406000850484EC90E0909388048093870480EC2E
:1040700090E090938A048093890481EC90E090937F
:104080008C0480938B0482EC90E090938E04809358
:104090008D0486EC90E09093900480938F0484E0EC
:1040A0008093910483E08093920487E0809393044B
:1040B00085E08093940481E0809395040895CF93E4
:1040C000DF930E94CD1C0E94EB1ACAE8DEE10E9439
:1040D00038152097E1F30E948A1EF9CF0E94D02262
:1040E00008950E9433220895CF92DF92EF92FF92BB
:1040F0000F931F93CF93DF937C016B018A01C0E084
:10410000D0E00FC0D6016D916D01D701ED91FC910A
:104110000190F081E02DC7010995C80FD91F01500A
:1041200010400115110571F7CE01DF91CF911F915C
:104130000F91FF90EF90DF90CF900895EF92FF9254
:104140000F931F938C01DC01ED91FC910190F081A4
:10415000E02D6DE009957C01D801ED91FC91019075
:10416000F081E02DC8016AE009959C012E0D3F1DEC
:10417000C9011F910F91FF90EF900895CF93DF93A6
:10418000EC016115710519F420E030E00FC0DB018E
:104190000D900020E9F71197A61BB70BE881F98174
:1041A0000280F381E02DAD0109959C01C901DF91E9
:1041B000CF9108954F925F927F928F929F92AF928C
:1041C000BF92CF92DF92EF92FF920F931F93DF93F4
:1041D000CF93CDB7DEB7A1970FB6F894DEBF0FBE71
:1041E000CDBF2C01742ECB01223008F42AE019A295
:1041F00031E2C32ED12CCC0EDD1E822E9924AA24AE
:10420000BB24672D752FA50194010E94BA23790163
:104210008A01C801B701A50194010E946823472DB6
:10422000461B0894C108D1084A3014F4405D01C00F
:10423000495CF6014083E114F1040105110521F008
:104240007E2C5F2DC801DDCFC201B6010E94BE20C9
:10425000A1960FB6F894DEBF0FBECDBFCF91DF9110
:104260001F910F91FF90EF90DF90CF90BF90AF9094
:104270009F908F907F905F904F900895DC01211563
:10428000310541F4ED91FC910190F081E02D642F16
:10429000099508950E94DA200895EF92FF920F93F6
:1042A0001F939A017B0100E010E0B801A7010E9472
:1042B0003E211F910F91FF90EF900895CF92DF92D2
:1042C000EF92FF920F931F936C017B019A0100E024
:1042D00010E0B801A7010E943E218C01C6010E9496
:1042E0009E20080F191FC8011F910F91FF90EF909A
:1042F000DF90CF900895EF92FF920F931F939A0152
:10430000E62EFF2400E010E0B801A7010E943E2144
:104310001F910F91FF90EF900895CF92DF92EF924F
:10432000FF920F931F936C01E62E9A01FF2400E089
:1043300010E0B801A7010E943E218C01C6010E9435
:104340009E20080F191FC8011F910F91FF90EF9039
:10435000DF90CF900895CF92DF92EF92FF920F936C
:104360001F93CF93DF93EC016A017B012115310587
:1043700041F4E881F9810190F081E02D642F0995E5
:104380001FC02A303105D1F477FF17C0E881F981C9
:104390000190F081E02D6DE209958C0144275527AD
:1043A000BA014C195D096E097F09CE012AE00E940D
:1043B000DA209801280F391F04C02AE00E94DA2071
:1043C0009C01C901DF91CF911F910F91FF90EF9058
:1043D000DF90CF900895EF92FF920F931F937B0190
:1043E0009A010027F7FC0095102FB801A7010E9441
:1043F000AB211F910F91FF90EF900895CF92DF9224
:10440000EF92FF920F931F936C017B019A0100279B
:10441000F7FC0095102FB801A7010E94AB218C0179
:10442000C6010E949E20080F191FC8011F910F91FD
:10443000FF90EF90DF90CF9008950E94BE200895E6
:10444000EF92FF920F931F937C010E94BE208C017C
:10445000C7010E949E20080F191FC8011F910F91CC
:10446000FF90EF9008950F931F93CF93DF93BC01BC
:104470008230910510F462E070E0E0919904F091CF
:104480009A0440E050E0A0E0B0E024C08081918137
:1044900086179707D0F08617970771F4828193816A
:1044A000109729F013969C938E9312972CC090939B
:1044B0009A048093990427C04115510519F0841777
:1044C000950718F48D01AC01EF01DF018281938122
:1044D0009C01F9013097D1F641155105F9F0CA0157
:1044E000861B970B8430910580F48A819B8101158E
:1044F000110521F0F8019383828304C090939A04FC
:1045000080939904FE01329645C0FE01E80FF91F21
:10451000619371930297998388833CC0809197043B
:1045200090919804892B41F480918C0290918D0296
:10453000909398048093970440918E0250918F023B
:104540004115510541F44DB75EB780918A029091B3
:104550008B02481B590B2091970430919804241723
:104560003507B0F4CA01821B930B8617970780F0BA
:10457000AB014E5F5F4F8417950750F0420F531FFA
:104580005093980440939704F9016193719302C08A
:10459000E0E0F0E0CF01DF91CF911F910F910895FE
:1045A000CF93DF939C01009709F48FC0EC01229711
:1045B0001B821A826091990470919A0461157105A9
:1045C00081F488819981820F931F20919704309103
:1045D00098042817390739F5D0939804C0939704A5
:1045E00074C0DB0140E050E0AC17BD0708F1BB83AD
:1045F000AA83FE0121913191E20FF31FAE17BF078D
:1046000079F48D919C911197280F391F2E5F3F4FA0
:104610003983288312968D919C9113979B838A836B
:104620004115510571F4D0939A04C09399044DC07B
:1046300012968D919C911397AD01009711F0DC01BA
:10464000D3CFDA011396DC93CE931297FA0121911E
:104650003191E20FF31FCE17DF0769F4888199814A
:10466000280F391F2E5F3F4FFA01318320838A8143
:104670009B8193838283E0E0F0E0DB0112968D91D1
:104680009C911397009719F0BC01FD01F6CFAB0187
:104690004E5F5F4FDB018D919C91840F951F2091A0
:1046A0009704309198042817390779F4309729F442
:1046B00010929A041092990402C0138212824250FE
:1046C00050405093980440939704DF91CF91089500
:1046D000629FD001739FF001829FE00DF11D649FE6
:1046E000E00DF11D929FF00D839FF00D749FF00D72
:1046F000659FF00D9927729FB00DE11DF91F639F13
:10470000B00DE11DF91FBD01CF0111240895991BC2
:1047100079E004C0991F961708F0961B881F7A95B8
:10472000C9F780950895AA1BBB1B51E107C0AA1FBA
:10473000BB1FA617B70710F0A61BB70B881F991F42
:104740005A95A9F780959095BC01CD01089597FBE6
:10475000092E07260AD077FD04D0E5DF06D0002019
:104760001AF4709561957F4F0895F6F790958195AD
:104770009F4F0895A1E21A2EAA1BBB1BFD010DC07D
:10478000AA1FBB1FEE1FFF1FA217B307E407F50701
:1047900020F0A21BB30BE40BF50B661F771F881FDD
:1047A000991F1A9469F760957095809590959B0173
:1047B000AC01BD01CF01089597FB092E05260ED04F
:1047C00057FD04D0D7DF0AD0001C38F4509540952F
:1047D000309521953F4F4F4F5F4F0895F6F79095D5
:1047E0008095709561957F4F8F4F9F4F0895EE0F85
:0E47F000FF1F0590F491E02D0994F894FFCF7F
:1047FE0046697865642100537461746973746963E2
:10480E007320696E20454550524F4D20657261737D
:10481E0065200020646F6E65004C617374207374A4
:10482E00617469736963733A28002D002920666FDD
:10483E00726D2000464E2020636E742000202000F2
:10484E000D0A42696E642066696E6420737461722B
:10485E00743A2000204D61786C6576656C5B005D66
:10486E003D000D0A54696D65733A200042696E640D
:10487E003D002046636F72723D0020536571756571
:10488E006E63653A200020456E6400532F4E3D0046
:10489E004952513D00535441525400543D00505022
:1048AE004D206F75740053425553206F757400463A
:1048BE00694572722100435243210042494E442100
:1048CE00004653205700523D0020533D0020433DEB
:1048DE000020413D0020526E3D0046636F72723DD6
:1048EE00002453415400746F2066730024524C0010
:1048FE00534F5300496E6974000802409CB80BB8C0
:10490E000BB80BB80BB80BB80BB80BB80BB80BB881
:10491E000BB80BB80BB80BB80BB80BB80BB80BB871
:10492E000BB80BB80BB80BB80BB80BB80B0A01C70A
:10493E00E0CF1F2B002B002B002500250025002586
:10494E0000250028002800204080010204081010D5
:10495E00202040800102040810000458006348CC57
:10496E00000100004D9359A76DBD7FD16504020172
:10497E00001EC7010100004BD20480009B04000002
:10498E000102030405060B0C0D0E0F101112131469
:10499E0018191A1C28292A38023F02490266027881
:1049AE00028A02A002A702AE02B502BC02C302CA6C
:1049BE0002D102D802EE022F034703500359037EA1
:1049CE0003A603C603050006000700080009000A37
:1049DE00000B000C0012001300000001000600077F
:1049EE000000000000C91F74205F1F901F701FB9C8
:0249FE001F0098
:00000001FF
