:100000000C9423020C94991B0C94C61B0C944B0269
:100010000C944B020C944B020C944B020C944B022C
:100020000C944B020C944B020C944B020C944B021C
:100030000C944B020C9473020C944B020C944B02E4
:100040000C94F31B0C944B020C94541E0C94A21EA3
:100050000C944B020C944B020C944B020C944B02EC
:100060000C944B020C944B02507265737320276DF5
:100070002720746F207374617274204D454E552093
:10008000696E2031302073656300464C415348202F
:100090004552524F522121212043616E277420770F
:1000A0006F726B21004572726F72207265616420FD
:1000B00073657474696E6773210053657474696E37
:1000C000677320726573657420746F206465666160
:1000D000756C7473210046486E3A204D696E20415C
:1000E0007672204D617800546F20456E74657220E1
:1000F0004D454E5520507265737320454E54455200
:1001000000547970652052656720616E64207072BA
:1001100065737320454E5445522C207479706520C8
:1001200056616C756520616E642070726573732012
:10013000454E5445522028713D517569743B2073DA
:10014000732F736C2F73613D537461742900526770
:100150003D56616C2009436F6D6D656E7473202D83
:100160002D2D2D2D2D2D2D2D2D2D2D2D2D2D2D2DBF
:100170002D2D2D2D2D2D004578656375746520720C
:100180006562696E643F2041726520796F752073E6
:1001900075726528792F6E293F000A0D42617963D7
:1001A000686920736F6674203230313300525820F2
:1001B0004F70656E20457870657274205632204607
:1001C0000046536E20496E4653202044726F707370
:1001D0003A312020203220202033202020342020BB
:1001E00020352020203620202037202020382020B5
:1001F00000525353493A312020203220202033200E
:100200002020342020203520202036202020372098
:10021000202038204E6F6973653A3120202032202B
:10022000202033202020342020203520202036207C
:10023000202037202020380042696E64204E00467E
:1002400072657120436F727200536572766F203150
:1002500035302520737472656368206E756D2028B3
:10026000312D313229005374617469737469637379
:1002700020656E61626C65003131206269742F31D6
:1002800030206368206D6F64650044697363726534
:100290007465206F757470757473206D61736B0075
:1002A000486F7020463100486F7020463200486F1A
:1002B0007020463300486F7020463400486F70202D
:1002C000463500486F7020463600486F702046372C
:1002D00000486F7020463800426561636F6E2046AB
:1002E000202846463D64697361626C652900426559
:1002F00061636F6E20506D617820286D5774293AC4
:1003000020302D312E323B20312D323B20322D3307
:100310003B20332D363B20342D31323B20352D32DE
:10032000353B20362D35303B20372D3130300042E3
:100330006561636F6E2073746172742074696D659A
:100340002028736563290053415720466D696E006C
:1003500053415720466D61780050504D2F53425500
:1003600053206D6F6465203173742050574D2063A6
:10037000686E6C2028312D3829205B345D00525383
:10038000534920747970653A20736F756E64283014
:10039000292F6C6576656C28312D39393D6176657C
:1003A00072616765290052535349206D6F64653A45
:1003B000206C6576656C2830292F534E207261744D
:1003C000696F2831290052535349206F7665722096
:1003D00050574D286368616E3A312D3132292030F3
:1003E0002D6E6F74207573650000000000240027D7
:1003F000002A0000000000250028002B000000005B
:100400000023002600290004040404040404040258
:1004100002020202020303030303030102040810A1
:10042000204080010204081020010204081020006E
:1004300000000700020100000304060000000000A5
:10044000000000000E2011241FBECFEFD8E0DEBF59
:10045000CDBF13E0A0E0B1E0E8E0F8E402C0059011
:100460000D92A830B107D9F714E0A8E0B3E001C0BD
:100470001D92A13AB107E1F714E0C6E4D4E004C04C
:100480002297FE010E94FE23C434D107C9F70E94BF
:1004900064200C9402240C940000FC018827992706
:1004A000E89421912032E9F3293010F02E30C8F37E
:1004B0002B3241F02D3239F4689404C00E946B0253
:1004C000820F911D219120532A30C0F31EF4909584
:1004D00081959F4F08957AE0979F902D879F802D5B
:1004E000910D112408951F920F920FB60F921124AF
:1004F0002F933F934F935F938F939F93AF93BF93AC
:10050000EF93FF9380918400909185008097D0F3C2
:1005100085B190914002892385B988B190914102BB
:10052000892388B98BB19091420289238BB980913C
:100530002803882309F47BC08091E4038F5F8093B4
:10054000E40390913D02981730F410921903109231
:1005500018031092E4034091E4034917B1F4209189
:10056000180330911903E0910B02F0910C02CF01B6
:10057000805797412817390718F020E737E145C021
:10058000CF01821B930B9C0140C0A42F50912603E6
:10059000523011F0E42F04C0E0918F02E40FE150DB
:1005A000FF27E7FDF095EE0FFF1FEB5DFD4F20816C
:1005B00031818091180390911903820F931F9093BA
:1005C000190380931803552369F0513049F44C5FA7
:1005D00080918F02A42FA81B4450A3301CF415C097
:1005E000A42FAD5FAC3088F4BB27A7FDB095FD010B
:1005F000EE0FFF1FED5BFD4F0190F081E02D80813C
:10060000A55ABD4F9C91892B808380912603813010
:1006100091F44B3080F4289A809184009091850069
:10062000845F9140C8F3275F3140289804C020912F
:100630000B0230910C0280910B0290910C02821BF4
:10064000930B9093850080938400FF91EF91BF916D
:10065000AF919F918F915F914F913F912F910F900B
:100660000FBE0F901F901895CF93DF938091790262
:10067000882321F1C3E4D2E020E030E0482F50E0AD
:10068000CA01022E02C0959587950A94E2F780FF71
:100690000FC0E881F981E55EFD4FD901A959BD4F31
:1006A00080819C91892B8083F901E55AFD4F10824E
:1006B0002F5F3F4F22962830310511F7DF91CF9100
:1006C00008952F923F925F926F927F928F929F92A6
:1006D000AF92BF92CF92DF92EF92FF920F931F9350
:1006E000CF93DF93DC011F964C911F971D963C9191
:1006F0001D9720917602822F6AE00E948C23592E4A
:100700005A94822F0E948C23882E8A94909078028B
:100710001D010DE012E07801E0E0F0E0A32EBB2423
:1007200022E0622E712CC42EDD24E1018A81682F23
:1007300070E0660F771F660F771F5E2FE83038F581
:100740002E2F11968C91119790E00E2E02C0959548
:1007500087950A94E2F780FD7460573061F0C30119
:10076000022E02C0880F991F0A94E2F78C219D2166
:10077000892B09F06260992061F0C50102C095954E
:1007800087952A95E2F780FF04C0616002C0660F7A
:10079000771F551511F05815C1F4CB0180509440C6
:1007A0009C0135952795280F391F8BEF2035380789
:1007B00014F420E53BEFC90124E0813B920714F0DB
:1007C00080EB94E0BC0160507C4F583080F1992060
:1007D00071F1583049F41C968C911C9790E0877009
:1007E0009070682B792B23C0593019F060E070E0CD
:1007F0001EC01C968C911C9790E033E095958795D0
:100800003A95E1F79C0127703070622B732B959518
:100810008795959587958270907020911B023091F5
:100820001C02822B932B90931C0280931B02685412
:10083000784FE701699379937E0131960894211CE2
:10084000311CEC30F10509F070CF809179028823DA
:1008500059F1C3E4D2E0A7E6B2E040E050E0682FEF
:1008600070E0CB01042E02C0959587950A94E2F7BB
:1008700080FF11C0F80180819181E881F9812C917C
:10088000895B9B4020F08081822B808304C0808123
:100890002095282320834F5F5F4F229611960E5F8D
:1008A0001F4F48305105E9F6DF91CF911F910F910D
:1008B000FF90EF90DF90CF90BF90AF909F908F9080
:1008C0007F906F905F903F902F900895409A2D9861
:1008D000409898E010C087FF07C02D9800002B9A21
:1008E00000002D9A000006C02D9800002B980000F3
:1008F0002D9A0000880F915070F72D9808958F77EA
:100900000E94660408952D9898E010C087FF07C0E4
:100910002D9800002B9A00002D9A000006C02D98FB
:1009200000002B9800002D9A0000880F915070F75E
:100930002D9808951F93162F80680E946604812FBA
:100940000E948304409A1F9108951F93809127036A
:100950008F5F80932703883010F010922703E09177
:100960002703F0E0E658FD4F108189E7612F0E94D0
:100970009A0480918D02181730F080918E028117B1
:1009800010F0479A01C0479810921D0310921C0363
:1009900010921F0310921E03109221031092200345
:1009A00010922303109222031F9108952D9880E046
:1009B00090E0880F2D9A00001C9981602D9800000E
:1009C0009F5F9830B1F708950E947F040E94D6047B
:1009D000409A089583E00E94E40480939C0384E09D
:1009E0000E94E40480939D0386E060E00E949A04E4
:1009F00087E061E00E949A0460917502662311F01D
:100A000089E002C089E067EC0E949A048AE065E010
:100A10000E949A048BE062E10E949A048CE065E1F6
:100A20000E949A048DE06BE10E949A048EE060E0DF
:100A30000E949A048FE163E00E949A048EE16AE0CA
:100A40000E949A0482E160E60E949A0483E168EFC2
:100A50000E949A048FE060E80E949A048DE160E4AD
:100A60000E949A048CE166E20E949A0480E264E4A7
:100A70000E949A0481E260E00E949A0482E262EF9E
:100A80000E949A0483E26CE70E949A0484E266E082
:100A90000E949A0485E26DE70E949A048AE26EE160
:100AA0000E949A0480E36CEA0E949A0482E36CE854
:100AB0000E949A0483E36AE00E949A0484E364E05B
:100AC0000E949A0485E362E20E949A0486E36DE242
:100AD0000E949A0487E364ED0E949A0488E360E030
:100AE0000E949A0489E360E00E949A048EE360E128
:100AF0000E949A048DE66FE00E949A048EE66CE3F1
:100B00000E949A048FE66FE90E949A0489E660E6E3
:100B10000E949A0480E76EE20E949A0489E760E0EE
:100B20000E949A048AE766E00E949A0481E763E2E1
:100B30000E949A0482E76EE00E949A0485E763E5CA
:100B40000E949A0486E76CE40E949A0487E760EEAC
:100B50000E949A04089587E061E00E949A048EE75B
:100B600064E20E949A0488E063E00E949A0488E0AC
:100B700060E00E949A0487E065E00E949A0485E0A4
:100B800062E00E949A0483E00E94E40480939C0344
:100B900084E00E94E40480939D03089583E00E9412
:100BA000E40480939C0384E00E94E40480939D030A
:100BB00087E061E00E949A0408952091DD0330915E
:100BC000DE03280F311D3093DE032093DD03809177
:100BD000840090918500A901481B590B42325105B0
:100BE00060F078948091840090918500A901481B61
:100BF000590B42325105B0F7F894809184009091DE
:100C0000850028173907C9F7662311F02A98089537
:100C10002A9A08951F93182F8091DB03181721F447
:100C20008091DC038C5E08C08091DC03612F0E9400
:100C3000DD051093DB0384E18093DC031F910895AD
:100C4000EF92FF920F931F93CF93DF93E82E80E0F4
:100C50000E940A06FF2410E001E0CE2DD0E0802F94
:100C600090E08C239D23892B29F081E00E940A06C5
:100C70001F5F03C080E00E940A06F39488E0F81624
:100C800011F0000FECCF10FF02C081E001C080E046
:100C90000E940A0681E00E940A0681E00E940A067C
:100CA000DF91CF911F910F91FF90EF9008950F93D7
:100CB0001F93CF93DF9380912603823009F049C0C0
:100CC000C5E2D2E010E001E041E088819981805ED8
:100CD0009640880F991F880F991F65E070E00E9469
:100CE0009823CB0120E080FD142B403849F4E02FFD
:100CF000F0E0EE53FC4F10830F5F10E041E001C0C5
:100D0000440F2F5F2B3019F096958795ECCF2296E4
:100D100082E0CD33D807C9F6E02FF0E0EE53FC4F68
:100D20001083802F05C0E82FF0E0EE53FC4F1082B7
:100D30008F5F8731C0F38FE08093C20380914203BD
:100D4000882311F088E001C080E08093D9031092DD
:100D5000DA03DF91CF911F910F91089520E030E0E9
:100D6000F901EB5DFD4FD901A35FBD4F8D919C91C2
:100D7000918380832E5F3F4F2831310589F7E091C1
:100D80008C02EE2391F0F0E0EE0FFF1FED5DFD4FC2
:100D9000809124039091250386509F4F33E0880F64
:100DA000991F3A95E1F79183808381E0809328032E
:100DB0000E94570608950F931F93CF93DF9380915E
:100DC000BD038093A203909158039093A303809155
:100DD0004203882321F480912803882319F4906822
:100DE0009093A3031092580305E413E029E533E040
:100DF000C4EAD3E0F9013896D8016D917C91611570
:100E0000710511F441E001C0462FD9018C9188830E
:100E100080819181642F70E00E9498236887808987
:100E20009189642F70E00E949823688BD9011D92EC
:100E30009D0111821082118A108AD8011D921D9283
:100E40008D0121963296B3E005351B07A9F6109265
:100E5000BC03DF91CF911F910F9108950F931F93C2
:100E6000CF93DF930DE012E0C0E4D0E0F8014181C0
:100E700085EE93E0BE010E946A1B219685EE93E009
:100E8000BE01F80140810E946A1B0E5F1F4F219630
:100E9000F2E005321F0751F7DF91CF911F910F91BB
:100EA0000895462FBC016F5E7F4F85EE93E00E9450
:100EB0006A1B0895DF92EF92FF920F931F938C01AC
:100EC000D62E472F55EEE52E53E0F52EC701B8017B
:100ED0000E946A1B0F5F1F4FC701B8014D2D0E9472
:100EE0006A1B1F910F91FF90EF90DF900895EF9292
:100EF000FF920F931F93CF93DF9303E712E0EE244B
:100F0000FF24C0E0D0E0CE01F80160810E945107CB
:100F1000F80181918F01E80EF11C2196C730D105AF
:100F200091F7CAE7D2E00BE010E0C80168810E94A7
:100F300051078991E80EF11C0F5F1F4FF2E0C23894
:100F4000DF0799F7C2E8D2E003E110E0C801688149
:100F50000E9451078991E80EF11C0F5F1F4F82E03C
:100F6000C838D80799F789E190E060918D020E9416
:100F7000510780918D02E701C80FD11D8AE190E0F1
:100F800060918E020E94510780918E02C80FD11D80
:100F90008CE190E060918F020E94510780918F0256
:100FA000C80FD11D0AE812E068E2E62EF12CC70155
:100FB000F80160810E945107F80181918F01C80FEB
:100FC000D11D0894E11CF11CF2E00D381F0779F7E0
:100FD0008AE090E0BE010E945A07DF91CF911F91F5
:100FE0000F91FF90EF900895AF92BF92CF92DF9252
:100FF000EF92FF921F93CF93DF93FDE0CF2EF2E0AD
:10100000DF2EE0E4EE2EF12C78EBA72E7BE0B72E5E
:1010100085EE93E0B7010E94631B182FB7016F5F45
:101020007F4F85EE93E00E94631BD12FC0E09E01AD
:10103000280F311DC901F601318320838C5697405A
:101040008959984018F0F601B182A08222E030E080
:10105000E20EF31EC20ED31E38E5E316F104C1F60C
:10106000DF91CF911F91FF90EF90DF90CF90BF90D5
:10107000AF900895BC016F5E7F4F85EE93E00E94B4
:10108000631B0895DF92EF92FF920F931F938C01E1
:10109000A5EEEA2EA3E0FA2EC701B8010E94631B59
:1010A000D82E0F5F1F4FC701B8010E94631B3D2D53
:1010B00020E0280F311DC9011F910F91FF90EF9083
:1010C000DF9008950F931F93CF93DF9300E010E01C
:1010D000C0E0D0E0CE010E943A08FE01ED58FD4F7D
:1010E0008083080F111D2196C730D10599F7CBE0F9
:1010F000D0E0CE010E943A08FE01E159FD4F808305
:10110000080F111D2196C331D10599F7C3E1D0E035
:10111000CE010E943A08FE01E159FD4F8083080F7D
:10112000111D2196C931D10599F78091830288302C
:1011300008F05BC0863008F059C0823010F491E0AE
:1011400002C091E0891B80938402981708F4891BE0
:10115000809385021092860289E190E00E943A080D
:1011600080938D02080F111D8AE190E00E943A08D9
:1011700080938E02080F111D8CE190E00E943A08C6
:10118000982F8150883020F490938F02090F111D01
:10119000C8E2D0E0CE010E943A08FE01EE59FD4FB0
:1011A0008083080F111D2196CB32D10599F78AE271
:1011B00090E00E943A0880938C0281508C3010F0AD
:1011C00010928C0280918C02080F111D8AE090E031
:1011D0000E94420820E08017910709F421E0822F45
:1011E000DF91CF911F910F91089587E092E0AACFF0
:1011F0000F931F93CF93DF93E0E0F0E000E010E067
:101200008491080F111D319680E4E030F807C1F792
:1012100090910A0280E020910902EC01C20FD11DD9
:1012200086E090E00E944208C817D90761F086E086
:1012300090E0BE010E945A0788E090E0B8010E9449
:101240005A0781E00AC088E090E00E9442088017B7
:10125000910711F480E001C08FEFDF91CF911F91D2
:101260000F9108950F931F93CF93DF93E2E0F0E087
:1012700081E2809357008491843931F488EF91E0C2
:101280009093700280936F0285EE93E06CE070E0C3
:101290000E94631B082F10E01093720200937102EA
:1012A00085EE93E06DE070E00E94631B382F20E034
:1012B000200F311F309372022093710228353105BF
:1012C00038F080916F029091700228173907C0F0B2
:1012D00088E590E0909372028093710285EE93E02E
:1012E0006CE070E048E50E946A1B4091720285EE56
:1012F00093E06DE070E00E946A1B1092BD0316C07F
:10130000C901CE976AE170E00E949823882331F0EA
:10131000281B3109309372022093710285EE93E00D
:101320006EE070E00E94631B8093BD038091BD035B
:101330008F5F8093BD03843610F01092BD03A9E542
:10134000B3E0FD013896C5E4D3E01D92118210820E
:10135000118A108A19921992329683E0A136B80741
:10136000A1F7109258038AE18093BC0310925603B0
:10137000109255030E943B1C6093BE037093BF0301
:101380008093C0039093C103DF91CF911F910F9180
:10139000089580914403813019F482E080934403DE
:1013A00080914403833069F484E0809344030E9475
:1013B0003B1C609398037093990380939A039093D6
:1013C0009B03089580912603823011F0E0E015C060
:1013D0000E94491CE0E020919E0330919F034091C0
:1013E000A0035091A103621B730B840B950B6356F2
:1013F00079418040904008F0E1E08E2F0895EF920F
:10140000FF920F931F9380917702882309F496C06F
:101410000E94E209882309F091C08AC0F0E060913F
:101420007102709172026E0F7F1FEE55FC4F85EEB8
:1014300093E040810E946A1B8091BC038F5F809380
:10144000BC038A3109F04CC0809171029091720204
:101450004A96909372028093710220916F023091AC
:10146000700282179307E0F188E590E09093720292
:101470008093710235C0EA3139F44091720285EEF1
:1014800093E06DE070E008C0EB3171F485EE93E01D
:101490006CE070E0409171020E946A1B8091BC0375
:1014A0008F5F8093BC031CC0EC31D1F48DE180933D
:1014B000BC038091550390915603892B41F485EE2E
:1014C00093E06EE070E04091BD030E946A1B809142
:1014D00055039091560301969093560380935503BC
:1014E0002091290330912A0340912B0350912C0322
:1014F0008091BE039091BF03A091C003B091C1033E
:1015000079018A01E81AF90A0A0B1B0BD801C701F5
:1015100080569A4EA040B04088F02093BE0330938E
:10152000BF034093C0035093C1030E94DB0606C073
:10153000E091BC03EA3108F09ECF70CF1F910F916C
:10154000FF90EF9008950F931F93CF93DF938091B7
:101550002603823009F057C080912803882309F4BC
:1015600052C00E94491CAB01BC0180919E03909126
:101570009F03A091A003B091A1038A019B01081BC6
:10158000190B2A0B3B0BD901C80183569941A04086
:10159000B040C8F1209184003091850080910B0209
:1015A00090910C028F5F98418217930760F11EC0E3
:1015B0008091D90384608093D903F8941092DB035F
:1015C0001092DC0380918400909185009093DE035B
:1015D0008093DD032A9AC2ECD3E089910E94200611
:1015E00023E0CB3DD207C9F778940DC040939E030A
:1015F00050939F036093A0037093A10380914303D2
:101600008823B1F6DACFDF91CF911F910F91089522
:10161000EF92FF920F931F938C010E94491C780157
:1016200000E010E0E60EF71E081F191F02C00E941E
:10163000A30A0E94491C6E157F0580079107B8F325
:101640001F910F91FF90EF900895EF92FF920F93EB
:101650001F93CF93DF93EB01F42E9C01442737FDBA
:101660004095542F60E271EA87E090E00E94E12308
:1016700089012530310514F405E010E087E0F822F7
:1016800088E0F82A8DE66F2D0E949A048EE064E0CF
:101690000E949A0461E070E080E090E00E946F1C7C
:1016A0008EE060E00E949A04A895BE01882777FD2D
:1016B0008095982F20E930ED43E050E00E946D23A3
:1016C0009801442737FD4095542F0E94E12379016A
:1016D000C0E0D0E009C02B9AC8010E94080B2B98EB
:1016E000C8010E94080B2196CE15DF05A0F3DF91FB
:1016F000CF911F910F91FF90EF90089583E00E948A
:10170000E40480939C0384E00E94E40480939D039E
:1017100086E060E00E949A0487E061E00E949A04FB
:1017200089E060913F020E949A048AE065E00E948D
:101730009A048BE062E10E949A048CE065E10E94C9
:101740009A048DE06AE00E949A048EE060E00E94B4
:101750009A0480E76CE20E949A0480E360E00E94B1
:101760009A0489E7609182020E949A048AE766E0FF
:101770000E949A0481E762E10E949A0482E762E093
:101780000E949A0483E760E00E949A0484E760E084
:101790000E949A04479860918302677068608DE6A2
:1017A0000E949A046AE070E080E090E00E946F1C62
:1017B00087E069E00E949A0488EB91E061E070E0C4
:1017C000409183020E94250B8DE591E061E070E07D
:1017D000409184020E94250B85E091E061E070E079
:1017E000409185020E94250B8FEA90E061E070E055
:1017F000409186020E94250B87E061E00E949A04D6
:1018000008950E94CE0562E370E080E090E00E94BF
:101810006F1C0E94AB05000008958F929F92AF92BB
:10182000BF92CF92DF92EF92FF920F931F93CF93CD
:10183000DF93182F6B01042FA8958DE160E40E94BF
:101840009A0489E7612F0E949A040E94010C0E9469
:101850003B1C4B015C01EE24FF248C0C9D1CAE1C38
:10186000BF1C83E08093440307C00E943B1C861684
:101870009706A806B90620F0809144038330A9F3A7
:1018800080914403843009F04AC08FE70E947F04AE
:10189000C8E0D3E00E94D604899383E0C831D8071A
:1018A000C9F70E94AB05FE013E9790E05CE880819D
:1018B000982740E0892F90E09C013595279580FF7F
:1018C00003C0952F922701C0922F4F5F483091F7A8
:1018D000319683E0E731F80751F7992301F50023AA
:1018E00021F0809108030817D1F48BE20E94E404F0
:1018F0002091E0033091E103482F50E0813810F04F
:1019000020503140240F351F3093E1032093E00332
:101910008091DF038F5F8093DF0381E001C080E06F
:10192000DF91CF911F910F91FF90EF90DF90CF90BB
:10193000BF90AF909F908F9008951F9380917502F4
:10194000882309F054C08BE794E00E94641F1816A6
:1019500019060CF04CC08BE794E00E94951F8D3067
:10196000910591F4809188028093750280933F02E3
:101970000E9477078BE794E060E071E00E942522E7
:101980000E94EA0481E034C08E33910531F08E323A
:10199000910519F08E3E910521F4809188028F5FA8
:1019A0000CC08C33910531F08C32910519F0813ADD
:1019B0009105E9F48091880281508093880280919A
:1019C0008802882319F48FEF80938802109188028F
:1019D00089E0612F0E949A048BE794E0612F4AE02E
:1019E00050E00E9492218091880280933F0280E023
:1019F0001F9108958BE794E00E94641F1816190642
:101A000014F020E00CC08BE794E00E94951F8D3607
:101A1000910521F020E08D34910509F421E0822F19
:101A20000895EF92FF920F931F9380912903909155
:101A30002A03A0912B03B0912C03209194033091A1
:101A400095034091960350919703821B930BA40B2F
:101A5000B50B4497A105B10508F45FC08BE794E08E
:101A60000E94641F082F10E02CE8E22EFF24F3945C
:101A700051C08BE794E00E94951F982F80919103AD
:101A8000882361F4963109F044C090938103F09269
:101A9000910310929303109289023BC0E82FF0E06B
:101AA000EF57FC4F90838F5F80939103803188F1D3
:101AB00010929103E3E8F3E090E08081982740E002
:101AC000892F90E09C013595279580FF03C09E2DBE
:101AD000922701C0922F4F5F483091F7319683E0F3
:101AE000E039F80751F79923A1F4809129039091E7
:101AF0002A03A0912B03B0912C038093940390931D
:101B00009503A0939603B093970381E0809393038A
:101B100004C01F5F10170CF4ACCF1F910F91FF9002
:101B2000EF9008951F93182F06C08BE794E060E2B2
:101B30000E94CE1F11501123C1F71F9108951F93CA
:101B4000182F8A3020F482E00E94920D07C084365C
:101B500028F48BE794E060E20E94CE1F8BE794E0CC
:101B6000612F4AE050E00E9480218BE794E060E220
:101B70000E94CE1F1F910895CF93DF938BE794E0CF
:101B800067E071E00E942222C8E5D0E012C085EE35
:101B900093E0BE014FEF0E946A1BCE018F779070D9
:101BA000892B29F48BE794E06EE20E94CE1FA89562
:101BB000219680916F0290917002C817D90738F36F
:101BC00088E590E090937202809371021092BD03B9
:101BD00085EE93E06CE070E048E50E946A1B40915E
:101BE000720285EE93E06DE070E00E946A1B85EE64
:101BF00093E06EE070E04091BD030E946A1B0E947A
:101C000032098BE794E063E271E00E942522DF91C4
:101C1000CF9108951F93CF93DF93EC01162FFE0110
:101C200021966491662329F08BE794E00E94CE1FF1
:101C3000F6CF112321F08BE794E00E94A320DF91DF
:101C4000CF911F9108958AE991E061E00E940A0E08
:101C50008DEA91E060E00E940A0E8BE794E06091CB
:101C600009024AE050E00E94922108959F92AF92AB
:101C7000BF92CF92DF92EF92FF920F931F93CF9379
:101C8000DF93833719F020E0833509F421E0A22E99
:101C90008C3619F090E08C3409F491E0B92E84363A
:101CA00019F09924843411F499249394222331F463
:101CB000992311F4AA24A394BB24B3948BE794E052
:101CC00069E271E00E9422228BE794E068E570E00F
:101CD0004AE050E00E94F0218BE794E06AE371E073
:101CE0000E94222260916F02709170028BE794E053
:101CF0004AE050E00E9452218BE794E06CE371E0EF
:101D00000E94222260917102709172028BE794E02E
:101D10004AE050E00E9463218BE794E064E471E0C4
:101D20000E942222AA2029F081EC91E060E00E942A
:101D30000A0EBB2031F081EF91E061E00E940A0EB3
:101D400004C08BE794E00E94A320C0917102D0915F
:101D50007202CC24FF248E010F5F1F4F85EE93E0AB
:101D6000BE010E94631BD82E84E68D1520F49920B5
:101D700011F46A9675C0DF10CC248D2D0E949F0D42
:101D8000C3948C2D0E949F0DAA2069F178010894BC
:101D9000E11CF11C85EE93E0B8010E94631B182F33
:101DA0008F770E949F0D8BE794E060E20E94CE1F28
:101DB000812F881F8827881F0E949F0D85E00E9421
:101DC000920DB7012A968B010F5F1F4F85EE93E0AE
:101DD0000E94631B0E949F0DB8010C171D0799F705
:101DE000E701289602C0E8012996BB2091F183E023
:101DF0000E94920DAA2029F08BE794E060E20E94F5
:101E0000CE1FBE018E01085F1F4F7B010894E11CAD
:101E1000F11C85EE93E00E94631B0E949F0DE0166B
:101E2000F10611F0B701F1CF84E00E94920DB801E4
:101E300060968B010F5F1F4F85EE93E00E94631B3E
:101E40000E949F0DB8010C171D0799F7E70128960E
:101E500001C060968BE794E00E94A320A895FD2C1A
:101E600080916F0290917002C817D90710F0C8E5F1
:101E7000D0E08091710290917202C817D90709F0E1
:101E80006ACFDF91CF911F910F91FF90EF90DF907C
:101E9000CF90BF90AF909F900895FF920F931F93A4
:101EA000CF93DF938EE491E061E00E940A0EFF245D
:101EB00001E010E0CF2DD0E0FE01EA56FD4F808119
:101EC00090E08017910729F58BE794E0B8014AE08C
:101ED00050E00E94F0218BE794E06DE30E94CE1F5A
:101EE000C8010E943A08682F8BE794E04AE050E06E
:101EF0000E9480218BE794E069E00E94CE1FCC0F06
:101F0000DD1FC355DD4F8881998161E00E940A0E73
:101F1000F3940F5F1F4F0B32110561F6DF91CF91E4
:101F20001F910F91FF900895AF92BF92CF92DF92D1
:101F3000EF92FF920F931F93CF93DF935C01019673
:101F40000E944D029C0101978E3F910510F010E018
:101F50001EC0122F82E090E0F501E80FF91FE0812A
:101F6000EE23A9F00196ED3279F48A0D9B1D0E94B3
:101F70004D029C01812F90E08217930740F42F3F80
:101F8000310528F4C22E05C08A30910529F7EEEFFD
:101F9000CE2E0E94EA040E94010C479886ED90E044
:101FA00061E00E940A0EE12EAEC089E76E2D0E940C
:101FB0009A048DEE92E00E94C81C0FEFFF24C0E04F
:101FC000D0E010E083E690E00E94C81C86E20E9408
:101FD000E404C80FD11D801708F4082FF81608F480
:101FE000F82E1F5F173C71F789E08E1538F08BE7EC
:101FF00094E06DE471E00E94222208C0E3E6EE1551
:1020000028F08BE794E060E20E94CE1F8BE794E01B
:102010006E2D4AE050E00E948021EAE7F2E06AE398
:1020200080818E1509F463E2319682E0E238F80788
:10203000B9F78BE794E00E94CE1F8BE794E060E253
:102040000E94CE1F802F0E949F0DCE0167EC70E092
:102050000E949823162F862F0E949F0D8F2D0E947D
:102060009F0DF50180818E3409F047C00A3010F4CD
:10207000DD2408C0083418F07DE3D72E03C066EFD6
:10208000D62ED00EF9E0FF1510F000E007C087E46F
:102090008F1510F40DE302C00F2D0A501A3010F402
:1020A000FF2408C0183418F05DE3F52E03C046EF96
:1020B000F42EF10E10E01F1521F48BE794E06AE294
:1020C00017C01D1521F48BE794E06CE311C01017C5
:1020D00021F48BE794E06EE30BC0D11630F41017B7
:1020E00020F48BE794E06EE203C08BE794E060E2BB
:1020F0000E94CE1F1F5F0117F0F68BE794E00E944D
:10210000A320A895E394CE1408F04FCFDF91CF9190
:102110001F910F91FF90EF90DF90CF90BF90AF9005
:102120000895EF92FF920F931F93CF93DF937C015B
:10213000FC01108200E010E08BE794E00E94641F35
:1021400018161906CCF58BE794E00E94751F469788
:1021500039F481E7F701808311821092890234C03B
:102160008BE794E00E94951FEC011816190654F5B0
:102170008BE794E06C2F0E94CE1FCD30D10519F073
:10218000CA30D10529F48BE794E00E94A3201CC03B
:10219000C830D10531F40115110571F2015010401C
:1021A000CBCFF701E00FF11FC08311820A30110578
:1021B0004CF40F5F1F4F06C061E070E080E090E0DC
:1021C0000E946F1CA895B8CFDF91CF911F910F91FE
:1021D000FF90EF9008950F931F93CF93DF93873075
:1021E00008F5182F110FC12FD0E0FE01EE0FFF1FD1
:1021F000E552FD4F0081802F60E00E946D1D802F11
:1022000061E00E94AC1D183079F482E090E00E94F9
:10221000C81C802F0E94001E892BE9F0802F61E0EE
:102220000E946D1D80E018C0CC0FDD1FC352DD4F32
:102230001881812F61E00E94AC1D82E090E00E9435
:10224000C81C802F0E94001E019741F7812F60E07B
:102250000E94AC1DDACF81E0DF91CF911F910F91E9
:1022600008952F923F924F925F926F927F928F923A
:102270009F92AF92BF92CF92DF92EF92FF920F9315
:102280001F93DF93CF93CDB7DEB72E970FB6F89499
:10229000DEBF0FBECDBF80E091E00E9476201C0122
:1022A00085E00E94EB101B86882311F481E08B8768
:1022B0007894D101A150BF4FBE87AD871092DF0344
:1022C0001092E1031092E00380917502855A8734E1
:1022D00018F087EC809375020E94EA040E94010CBA
:1022E00047988DE160E00E949A040E94AB05BB858F
:1022F000BB2331F08BE794E060E571E00E9422227D
:102300003A862986F10111928D859E85E817F90795
:10231000D1F70E943B1C5B016C018FE19EE4A0E0C1
:10232000B0E0A80EB91ECA1EDB1E55241C86A89557
:102330008101FF249924EE24D8018C918A3FA8F4CE
:1023400089E76F2D0E949A0489E892E00E94C81CD8
:1023500086E20E94E404982FF8018081891708F42E
:102360009083E91610F49F2CE92EF3940F5F1F4F12
:10237000FFEFFF1609F788B188B9552009F58B855D
:102380008823D1F08BE794E064E671E00E9422227A
:102390008BE794E0692D4AE050E00E9480218BE7B2
:1023A00094E06FE671E00E9422228BE794E06E2DAC
:1023B0004AE050E00E94922195E99E1528F07ECFD8
:1023C000A5E9AE1508F0B3CF892D63E071E04C8527
:1023D0000E940D0C8823E1F0B0910803BC87EB85C7
:1023E000EE2361F08BE794E0692D4AE050E00E9413
:1023F00080218BE794E060E20E94CE1FE1E0F0E0F4
:10240000EC0FFD1FE50DF11D9082539488B188B942
:10241000F101E90DF11D8FEF8083552009F44ECFB6
:102420000E943B1CA616B706C806D90660F4852D87
:102430008150823060F094E0591649F0A8E05A16B5
:1024400009F03CCF04C0B7E0B51508F070CFB980F3
:10245000EB85EE2331F08BE794E062E771E00E94B8
:10246000222212E0C12ED12CCC0EDD1E36014101FC
:10247000AA24A394442464C00E943B1C7B018C01C9
:102480008FE19EE4A0E0B0E0E80EF91E0A1F1B1FDA
:1024900008C00E943B1CE616F7060807190708F457
:1024A0000DCF8B2D63E071E04C850E940D0C8823CD
:1024B00081F30E943B1C7B018C01D3018C9167E569
:1024C00072E04C850E940D0C882399F10E943B1C00
:1024D00028EF3FEF4FEF5FEF2E193F09400B510BF5
:1024E000260F371F481F591FB5E05695479537955A
:1024F0002795BA95D1F7622F283008F06850F1017E
:1025000090E08191861709F4A3CF9F5F9A15C8F3D5
:10251000F4016183FB85FF2359F08BE794E04AE0E7
:1025200050E00E9480218BE794E060E20E94CE1F81
:102530004394A3940894611C711C0894811C911C01
:10254000A51408F499CF8B85882321F08BE794E0BC
:102550000E94A320B0927A0291E0591641F4EBE771
:10256000F2E0B192A2E0E238FA07D9F750C0B2E047
:102570005B1691F48A81B0927A0280937B02B092CA
:102580007C0280937D02B0927E0280937F02B092A3
:102590008002809381023BC0E4E05E16E9F49E0174
:1025A0002B5F3F4FA985BA851196EC91EF5FE43020
:1025B00038F4F0E0D6018C91E658FD4F8083848397
:1025C000E985FA853196FA87E9870894C11CD11C00
:1025D000C216D30639F71BC0F6E0F41508F06ECE2C
:1025E0009E01275F3F4FA985BA851196EC91EF5F59
:1025F000F0E0E658FD4FD6018D916D018083E985AD
:10260000FA853196FA87E987A217B30761F76091D7
:10261000DF038091E0039091E10370E00E94AC231E
:102620007093E1036093E003FC85F0937402CB01A7
:102630000E964D9728F480917502861B8093750243
:102640008B858823D9F18BE794E06CE771E00E94D9
:1026500022228BE794E06C854AE050E00E948021C2
:102660008BE794E062E871E00E9422228BE794E01D
:10267000609175024AE050E00E9480218BE794E06F
:102680006AE871E00E9422220AE712E08BE794E0F8
:10269000D8016D918D014AE050E00E9480218BE7C6
:1026A00094E060E20E94CE1FB2E002381B0771F78F
:1026B0008BE794E066E971E00E942522C1010E9447
:1026C00073200E947707469A2E960FB6F894DEBFC5
:1026D0000FBECDBFCF91DF911F910F91FF90EF9073
:1026E000DF90CF90BF90AF909F908F907F906F9032
:1026F0005F904F903F902F900895CF92DF92EF928E
:10270000FF920F931F93DF93CF93CDB7DEB72C9734
:102710000FB6F894DEBF0FBECDBF87EE90E061E04C
:102720000E940A0E8E010F5F1F4FC8010E94911078
:102730008981813709F486C0813509F483C0680135
:102740000E944D0F81E091E061E00E940A0EC601F7
:102750000E94911089818E3611F08E3421F4C601C9
:102760000E94940FF4CF833711F0833549F48A81A6
:10277000853619F40E94BC0DEACF0E94360EE7CFD1
:102780008237F9F48A818536E1F48B818236C9F487
:102790008C818936B1F48D818E3699F48E818436A0
:1027A00081F487E791E060E00E940A0EC6010E9472
:1027B00091108981893711F0893519F40E943111FE
:1027C00041C089818137F1F18135E1F1C6010E9473
:1027D0004D027C018BE2E816F10408F0B1CFC6018E
:1027E0000E9491108981813769F1813559F1C601C3
:1027F0000E944D028C018F3F910511F008F0A0CF8F
:10280000E114F10419F4009709F49ACF8BE794E0EE
:10281000B7014AE050E00E94F0218BE794E06DE3BD
:102820000E94CE1F8BE794E0B8014AE050E00E947E
:102830000322C701602F0E9451070E9462080E9474
:1028400077077ECF2C960FB6F894DEBF0FBECDBFB4
:10285000CF91DF911F910F91FF90EF90DF90CF907C
:1028600008951F93CF93DF93EC0110E011C0A8955A
:102870006DE770E080E090E00E946F1CCB30D105E6
:1028800068F00E94FA0C882349F00E947D1310C062
:10289000812F90E08C179D0750F30AC0469A6DE790
:1028A00070E080E090E00E946F1C46981F5FF0CFC0
:1028B000DF91CF911F910895EF92FF920F931F9395
:1028C0000E94F808182F8F3F69F4809192038823A3
:1028D00029F48AE890E061E00E940A0E8FE295E711
:1028E0000E94311482E00E94EB10882391F084E072
:1028F00090E00E9431140E94770780919203882310
:1029000029F48AEB90E061E00E940A0E84E090E0F6
:1029100079C00E946208882309F076C080919203F2
:10292000882329F485EA90E061E00E940A0E1130C4
:1029300009F066C00E943B1C7B018C018FE097E28E
:10294000A0E0B0E0E80EF91E0A1F1B1F0BC081E0DB
:1029500090E00E9431140E94FA0C882319F00E9422
:102960007D1352C00E943B1C6E157F0580079107A6
:1029700070F388E48093740287EC8093750291E091
:102980009093770210927902109278021092760258
:102990008BE480938D0282ED80938E0284E6809397
:1029A000820284E08093830282E080938402909389
:1029B0008502109286028EE18093870287E08093E1
:1029C0008A0290938B0210928C028DE480937A029B
:1029D00083E980937B0289E580937C0287EA809378
:1029E0007D028DE680937E028DEB80937F028FE7E0
:1029F0008093800281ED809381020E94770704C05A
:102A000088E790E00E9431141F910F91FF90EF90A2
:102A100008951F93E82FF62F40918A02442331F442
:102A2000882311F010E01CC01FE71AC02091E203B8
:102A30003091E303C901642F70E00E949823261BA4
:102A4000370BFE9FC0011124280F391F3093E30379
:102A50002093E203C901642F70E00E949823162F8F
:102A600083E0612F70E00E940D1D109324031092EB
:102A700025031F9108952F923F924F925F926F927C
:102A80007F928F929F92AF92BF92CF92DF92EF92FE
:102A9000FF920F931F93CF93DF9380E00E94EB1080
:102AA00080932603882321F08AE080933D021DC095
:102AB00086E00E94EB108823C1F082E08093260319
:102AC00084E080933D0280E69DE690930C02809323
:102AD0000B02909387008093860010925B02809196
:102AE00040028460809340022A9884E00E94EB10A8
:102AF0008093920381E090E00E94311485E00E946F
:102B0000EB10882311F00E9431118BE794E040E034
:102B100056E960E070E00E94DD1E809192038823F8
:102B200031F40E94230E81E090E00E9431140E9453
:102B30005C148091750280933F020E9432090E94CA
:102B400034030E94F4070E94EA04109228032EE046
:102B500088E190E00FB6F894A895809360000FBECE
:102B60002093600080919203882309F073C08BE763
:102B700094E06BE971E00E9422228BE794E060917F
:102B800073024AE050E00E9492210E944D0F8BE7B1
:102B900094E060EA71E00E94222284E00E94E40452
:102BA000682F70E0617070708BE794E04AE050E04D
:102BB0000E9403228BE794E065EA71E00E942522DF
:102BC00080E00E94E404682F8BE794E04AE050E044
:102BD0000E94922181E00E94E404682F8BE794E038
:102BE0004AE050E00E94922182E00E94E404682FB3
:102BF0008BE794E04AE050E00E9492218BE794E05A
:102C00006BEA71E00E94222281E10E94E404682FB5
:102C100070E0605470408BE794E04AE050E00E941E
:102C2000032288E690E061E00E940A0E809126036C
:102C3000813031F48BE794E06EEA71E00E94252246
:102C400080912603823031F48BE794E066EB71E0EB
:102C50000E9425224424332481E080933E020E9476
:102C6000AB050E94010C789483E0809344030E949A
:102C70003B1C6093290370932A0380932B0390934A
:102C80002C0360932D0370932E0380932F03909356
:102C90003003609331037093320380933303909336
:102CA0003403609335037093360380933703909316
:102CB00038035524AA24BB2422242394A8958CE00D
:102CC0000E94E404882371F40E94EA040E94010C2B
:102CD00080919203882331F48BE794E06FEB71E0ED
:102CE0000E94252280914403843009F0F5C1469862
:102CF00088B188B98FE70E947F04C8E0D3E00E94C2
:102D0000D604899323E0C831D207C9F70E94AB05E6
:102D1000FE013E9790E08081982740E0892F90E067
:102D20009C013595279580FF03C09CE8922701C040
:102D3000922F4F5F483091F7319683E0E731F807E3
:102D400051F7992351F080919203882309F0A6C18D
:102D50008BE794E066EC71E00FC0909108038091DE
:102D60007402981761F080919203882309F096C14C
:102D70008BE794E06BEC71E00E9425228FC1CF01BC
:102D80000F970E94610380911703813089F43320EB
:102D900081F480919203882331F48BE794E061ED14
:102DA00071E00E9425220E942E073324339401C033
:102DB000332460911E0370911F036115710551F05A
:102DC00080911C0390911D030E94982370931D0312
:102DD00060931C0380911C0390911D0390931F032B
:102DE00080931E0360912203709123036115710586
:102DF00061F080912003909121030E9498236093B9
:102E0000200370932103462E04C0409220031092A9
:102E10002103209120033091210380911C03909184
:102E20001D038217930728F410921D0310921C03B0
:102E300006C0821B930B90931D0380931C0380910B
:102E40008B02882329F080911C0390911D0304C0FC
:102E500080911E0390911F03909325038093240378
:102E60008091240361E00E9409158BE20E94E40432
:102E7000C82FD0E080919203882309F04EC08BE7E1
:102E800094E066ED71E00E94222260911E03709131
:102E90001F038BE794E04AE050E00E9452218BE749
:102EA00094E069ED71E00E942222609155037091D7
:102EB00056038BE794E04AE050E00E9452218BE7F2
:102EC00094E06DED71E00E9422226091270370E092
:102ED0006F5F7F4F8BE794E04AE050E00E94F02163
:102EE0008BE794E061EE71E00E9422228BE794E090
:102EF000BE014AE050E00E94F0218BE794E065EECD
:102F000071E00E94222260912003709121038BE7DF
:102F100094E04AE050E00E946321E0912703F0E052
:102F2000EE0FFF1FDF01AF59BC4F8D919C911197A0
:102F300020911E0330911F03820F931F8D939C934A
:102F4000DF01AF58BC4F8D919C91119720912003C8
:102F500030912103820F931F8D939C93EB5BFC4F69
:102F600080819181019691838083409175024423F1
:102F700009F453C0C038D10514F0C050D140CE017F
:102F80004996C39718F020E030E006C09E0104E0A7
:102F9000220F331F0A95E1F75394C50160E170E0F9
:102FA0000E94AC23A61AB70AC90160E170E00E9432
:102FB000AC23A60EB71EC501B7FE04C0882799270B
:102FC0008A199B098134910554F120E2251538F5C1
:102FD000C50160E170E00E94AC23EB01D095C19582
:102FE000DF4F642F6C0F6093750289E00E949A0492
:102FF00080919203882369F48BE794E06AEE71E094
:103000000E9422228BE794E0BE014AE050E00E9439
:1030100003225524AA24BB2402C020924303109209
:103020004203109241030E943B1C6093290370935A
:103030002A0380932B0390932C03609331037093A6
:103040003203809333039093340360933903709376
:103050003A0380933B0390933C0360933D0370934A
:103060003E0380933F039093400310923E021092E0
:103070001B0310921A03109243030E94AE06809124
:103080009203882359F086E1809308038BE794E04C
:1030900068E073E040E150E00E9479200E94A504BE
:1030A0008091980390919903A0919A03B0919B030A
:1030B0008093350390933603A0933703B09338037E
:1030C00083E08093440388B188B90E94A30A83EF08
:1030D00091E00E94C81CF2CD0E943B1C7B018C0138
:1030E0006093290370932A0380932B0390932C03FE
:1030F00060903503709036038090370390903803CA
:103100000E94A30A0E949D0C882309F0A5CD8091FE
:103110008902882311F18091290390912A03A091BB
:103120002B03B0912C0320912D0330912E0340915D
:103130002F0350913003821B930BA40BB50B8F50C0
:103140009742A040B04048F40E94FA0C882339F01E
:103150000E947D130E94EA047FCD0E94110D809190
:103160009303882309F44FC080913D0390913E035F
:10317000A0913F03B09140038196A11DB11D209104
:1031800094033091950340919603509197038217D1
:103190009307A407B507B8F581E893E00E9461039F
:1031A0000E94AE06109293031092420310924103C4
:1031B0008091290390912A03A0912B03B0912C03B5
:1031C0008093310390933203A0933303B09334037D
:1031D0008093390390933A03A0933B03B0933C034D
:1031E00080919203882339F48BE794E061EF71E0DA
:1031F0000E94252208C08BE794E061E873E040E17B
:1032000050E00E9479208091290390912A03A09197
:103210002B03B0912C032091310330913203409164
:10322000330350913403821B930BA40BB50B8855C9
:103230009240A040B04090F180914203882371F504
:1032400080912803882351F180919203882331F4DF
:103250008BE794E066EF71E00E9425222092420302
:103260008091290390912A03A0912B03B0912C0304
:103270008093390390933A03A0933B03B0933C03AC
:103280000E94F4070E94AE06469880E068E00E9423
:103290000915809158038F5F80935803809129030B
:1032A00090912A03A0912B03B0912C0320913D0310
:1032B00030913E0340913F0350914003821B930B9A
:1032C000A40BB50B885B9B40A040B04010F020924F
:1032D0003E0267017801C618D708E808F908D70147
:1032E000C6010197A109B1090497A105B105D0F460
:1032F00083E690E00E94C81C0091200310912103F6
:1033000086E20E94E404080F111D1093210300932C
:10331000200380912203909123030196909323032D
:103320008093220380913E02882319F02FEF30E032
:103330002EC0D701C6010B97A109B1090A97A105B3
:10334000B105D8F483E690E00E94C81C00911C03EC
:1033500010911D0386E20E94E404080F111D1093D2
:103360001D0300931C0380911E0390911F0301967F
:1033700090931F0380931E0308C089E1C816D104EF
:10338000E104F10414F40E94FF0923E230E0C901D2
:10339000AA2797FDA095BA2FC816D906EA06FB06FC
:1033A0000CF4B4C080913E02882319F58091420349
:1033B000882309F4469A80912703209135033091A0
:1033C0003603409137035091380380FF05C0205EDB
:1033D0003F4F4F4F5F4F04C0215E3F4F4F4F5F4FF6
:1033E00020933503309336034093370350933803CB
:1033F00010C08091290390912A03A0912B03B091D2
:103400002C038093350390933603A0933703B09336
:10341000380360913E0227E0629FB00111246F5F84
:1034200080E00E94091580919203882309F062C010
:103430008BE794E06CEF71E00E94222260911A0306
:1034400070911B036F5F7F4F70931B0360931A0390
:103450008BE794E04AE050E00E9452216091220301
:10346000709123036115710561F0809120039091A3
:1034700021030E9498236093200370932103462E1A
:1034800004C040922003109221038BE794E069ED81
:1034900071E00E94222260915503709156038BE7E0
:1034A00094E04AE050E00E9452218BE794E06DEDF9
:1034B00071E00E9422226091270370E06F5F7F4FCE
:1034C0008BE794E04AE050E00E94F0218BE794E023
:1034D00065EE71E00E942222609120037091210329
:1034E0008BE794E04AE050E00E9452218BE794E0A1
:1034F0000E94A320E0912703F0E0E95AFC4F82816B
:103500008F5F8283209243030E94A504809142032F
:10351000882309F4D3CB0E94FF09E0902903F0909F
:103520002A0300912B0310912C0380913903909171
:103530003A03A0913B03B0913C03E81AF90A0A0B45
:103540001B0B6091870280914103882349F088E832
:10355000E81683E1F80680E0080780E018077CF4AD
:1035600070E080E090E028EE33E040E050E00E9420
:103570006D236E157F05800791070CF09FCB20927D
:103580004103809187028F3F61F0809192038823ED
:1035900031F48BE794E060E072E00E9425220E9403
:1035A0007E0B80919203882331F48BE794E064E0F2
:1035B00072E00E9425220E94EA040E94AB058091DD
:1035C000290390912A03A0912B03B0912C0380939F
:1035D000390390933A03A0933B03B0933C036ECB23
:1035E00084E161E00E946D1D85E161E00E946D1D36
:1035F0008CE060E00E946D1D8BE061E00E946D1D1B
:103600008DE061E00E946D1D82E060E00E946D1D12
:103610008EE061E00E946D1D80E060E00E946D1D03
:1036200081E061E00E946D1D80E061E00E94AC1DC0
:1036300083E061E00E946D1D8AE061E00E946D1DE3
:1036400089E061E00E946D1D88E061E00E946D1DCF
:1036500087E061E00E946D1D86E061E00E946D1DC3
:1036600085E061E00E946D1D84E061E00E946D1DB7
:1036700083E161E00E946D1D82E161E00E946D1DA9
:1036800081E161E00E946D1DE1E8F0E0108210929E
:1036900085001092840080910B0290910C0290930F
:1036A00087008093860082E0809380008AE1808397
:1036B00081E080936F0080E069EC79E042E050E0C7
:1036C0000E94761B0895F999FECF72BD61BDF89AEC
:1036D00080B50895F999FECF1FBA72BD61BD40BD96
:1036E0000FB6F894FA9AF99A0FBE0895823000F551
:1036F000E82FF0E0EE0FFF1FEA51FC4F718360836B
:10370000882319F08130A1F408C0809169008C7F72
:10371000842B80936900E89A089580916900440F92
:10372000551F440F551F837F842B80936900E99AAE
:1037300008951F920F920FB60F9211242F933F936B
:103740004F935F936F937F938F939F93AF93BF93A9
:10375000EF93FF938091E6039091E703892B29F083
:10376000E091E603F091E7030995FF91EF91BF9196
:10377000AF919F918F917F916F915F914F913F9109
:103780002F910F900FBE0F901F9018951F920F92C0
:103790000FB60F9211242F933F934F935F936F9324
:1037A0007F938F939F93AF93BF93EF93FF938091FA
:1037B000E8039091E903892B29F0E091E803F09167
:1037C000E9030995FF91EF91BF91AF919F918F917F
:1037D0007F916F915F914F913F912F910F900FBE0D
:1037E0000F901F9018951F920F920FB60F921124F1
:1037F0002F933F938F939F93AF93BF938091EE034B
:103800009091EF03A091F003B091F1033091F20396
:103810000196A11DB11D232F2D5F2D3720F02D57AF
:103820000196A11DB11D2093F2038093EE039093A6
:10383000EF03A093F003B093F1038091EA0390911A
:10384000EB03A091EC03B091ED030196A11DB11D16
:103850008093EA039093EB03A093EC03B093ED0302
:10386000BF91AF919F918F913F912F910F900FBE7C
:103870000F901F9018958FB7F8942091EE03309118
:10388000EF034091F0035091F1038FBFB901CA01DA
:1038900008959FB7F8942091EA033091EB0340918B
:1038A000EC035091ED0386B5A89B06C08F3F21F035
:1038B0002F5F3F4F4F4F5F4F9FBF542F432F322FEC
:1038C0002227280F311D411D511D82E0220F331F79
:1038D000441F551F8A95D1F7B901CA0108959B016C
:1038E000AC017FB7F8948091EA039091EB03A0912B
:1038F000EC03B091ED0366B5A89B05C06F3F19F0CE
:103900000196A11DB11D7FBFBA2FA92F982F88271F
:10391000860F911DA11DB11D62E0880F991FAA1F7E
:10392000BB1F6A95D1F7BC012DC0FFB7F8948091F9
:10393000EA039091EB03A091EC03B091ED03E6B59F
:10394000A89B05C0EF3F19F00196A11DB11DFFBF57
:10395000BA2FA92F982F88278E0F911DA11DB11D59
:10396000E2E0880F991FAA1FBB1FEA95D1F7861BBB
:10397000970B885E9340C8F2215030404040504041
:1039800068517C4F211531054105510571F60895A7
:10399000019739F0880F991F880F991F0297019797
:1039A000F1F70895789484B5826084BD84B5816010
:1039B00084BD85B5826085BD85B5816085BDEEE637
:1039C000F0E0808181608083E1E8F0E01082808116
:1039D00082608083808181608083E0E8F0E0808184
:1039E00081608083E1EBF0E0808184608083E0EBA4
:1039F000F0E0808181608083EAE7F0E0808184608C
:103A000080838081826080838081816080838081E7
:103A1000806880831092C10008951F93CF93DF9335
:103A2000182FEB0161E00E946D1D209709F44AC038
:103A3000CF3FD10509F449C0E12FF0E0E15DFB4F34
:103A400084918330C1F0843028F4813051F0823089
:103A5000B1F50CC0863019F1873049F1843079F521
:103A600014C084B5806884BDC7BD33C084B580628E
:103A700084BDC8BD2EC08091800080688093800086
:103A8000D0938900C093880024C080918000806218
:103A900080938000D0938B00C0938A001AC08091DD
:103AA000B00080688093B000C093B30012C08091D2
:103AB000B00080628093B000C093B4000AC0C038E8
:103AC000D1051CF4812F60E002C0812F61E00E94CB
:103AD000AC1DDF91CF911F910895CF93DF93482FB5
:103AE00050E0CA01855E9B4FFC013491495F5B4FFA
:103AF000FA018491882369F190E0880F991FFC01F5
:103B0000E751FC4FA591B491FC01ED50FC4FC591DC
:103B1000D491662351F42FB7F8948C91932F9095FC
:103B200089238C93888189230BC0623061F42FB77D
:103B3000F8948C91932F909589238C938881832B73
:103B400088832FBF06C09FB7F8948C91832B8C93EA
:103B50009FBFDF91CF910895482F50E0CA01815D4A
:103B60009B4FFC012491CA01855E9B4FFC019491FF
:103B7000495F5B4FFA013491332309F440C022239B
:103B800051F1233071F0243028F42130A1F022309B
:103B900011F514C02630B1F02730C1F02430D9F42B
:103BA00004C0809180008F7703C0809180008F7D5A
:103BB0008093800010C084B58F7702C084B58F7D5C
:103BC00084BD09C08091B0008F7703C08091B000A0
:103BD0008F7D8093B000E32FF0E0EE0FFF1FED50DC
:103BE000FC4FA591B4912FB7F894662321F48C91E2
:103BF0009095892302C08C91892B8C932FBF0895B7
:103C0000682F70E0CB01815D9B4FFC012491CB01BB
:103C1000855E9B4FFC014491695F7B4FFB01949152
:103C2000992319F420E030E03CC0222351F12330E5
:103C300071F0243028F42130A1F0223011F514C0A5
:103C40002630B1F02730C1F02430D9F404C080917F
:103C500080008F7703C0809180008F7D80938000EB
:103C600010C084B58F7702C084B58F7D84BD09C034
:103C70008091B0008F7703C08091B0008F7D8093DA
:103C8000B000892F90E0880F991F83509C4FFC0152
:103C9000A591B4918C9120E030E0842311F021E0D3
:103CA00030E0C901089508951F920F920FB60F9248
:103CB00011242F933F934F938F939F93EF93FF93F1
:103CC0008091C00082FD1DC04091C6002091330448
:103CD000309134042F5F3F4F2F7330708091350443
:103CE000909136042817390771F0E0913304F09170
:103CF0003404ED50FC4F408330933404209333045C
:103D000002C08091C600FF91EF919F918F914F91DA
:103D10003F912F910F900FBE0F901F901895E0913B
:103D20008704F0918804E05CFF4F8191919120819C
:103D30003181821B930B8F739070892B11F00E943D
:103D4000531E08951F920F920FB60F9211242F93B6
:103D50003F938F939F93EF93FF932091770430913C
:103D600078048091790490917A042817390731F406
:103D70008091C1008F7D8093C10014C0E0917904CF
:103D8000F0917A04E95CFB4F208180917904909155
:103D90007A0401968F73907090937A0480937904DB
:103DA0002093C600FF91EF919F918F913F912F91AA
:103DB0000F900FBE0F901F901895AF92BF92DF9299
:103DC000EF92FF920F931F93CF93DF93EC017A0151
:103DD0008B01DD24403081EE580780E0680780E0E9
:103DE000780711F0DD24D39491E0A92EB12CEC8951
:103DF000FD89DD2069F0C50108A002C0880F991F68
:103E00000A94E2F7808360E079E08DE390E005C0FA
:103E1000108260E874E88EE190E0A80197010E94AA
:103E2000BF2321503040404050405695479537952C
:103E3000279580E12030380720F0DD2011F0DD24C7
:103E4000D6CFE889F9893083EA89FB89208319A2D2
:103E5000EE89FF89408121E030E0C9010C8C02C06D
:103E6000880F991F0A94E2F7482B4083EE89FF8957
:103E70004081C9010D8C02C0880F991F0A94E2F796
:103E8000482B4083EE89FF894081C9010E8C02C016
:103E9000880F991F0A94E2F7482B4083EE89FF8927
:103EA00080810F8C02C0220F331F0A94E2F7209505
:103EB00028232083DF91CF911F910F91FF90EF90E6
:103EC000DF90BF90AF900895DC011C96ED91FC91BE
:103ED0001D97E05CFF4F2191319180819181281BDA
:103EE000390B2F733070C9010895DC011C96ED91D8
:103EF000FC911D97E05CFF4F20813181E054F04040
:103F0000DF01AE5BBF4F8D919C9111972817390748
:103F100019F42FEF3FEF07C08D919C91E80FF91F27
:103F20008081282F30E0C9010895DC011C96ED91B5
:103F3000FC911D97E05CFF4F20813181E054F040FF
:103F4000DF01AE5BBF4F8D919C9111972817390708
:103F500019F42FEF3FEF10C08D919C911197E80F4E
:103F6000F91F20818D919C91119701968F7390700C
:103F700011969C938E9330E0C9010895DC019196CF
:103F80008C919197882339F05496ED91FC91559737
:103F9000808186FFF9CF91961C920895CF93DF938D
:103FA000EC01EE85FF85E05CFF4F20813181E0541C
:103FB000F0402F5F3F4F2F733070DF01AE5BBF4F7C
:103FC0008D919C91119728173907D1F3E05CFF4F31
:103FD00080819181E054F040E80FF91F6083EE8505
:103FE000FF85E05CFF4F31832083EE89FF892081CC
:103FF00081E090E00F8C02C0880F991F0A94E2F7CD
:10400000282B208381E089A3EC89FD89808180644D
:10401000808381E090E0DF91CF91089510927E043B
:1040200010927D0488EE93E0A0E0B0E080937F04DE
:1040300090938004A0938104B09382048BEF92E06C
:1040400090937C0480937B0483EF93E090938804A7
:104050008093870487E394E090938A048093890493
:1040600085EC90E090938C0480938B0484EC90E03A
:1040700090938E0480938D0480EC90E09093900454
:1040800080938F0481EC90E090939204809391044C
:1040900082EC90E0909394048093930486EC90E0FB
:1040A000909396048093950484E08093970483E032
:1040B0008093980487E08093990485E080939A0424
:1040C00081E080939B040895CF93DF930E94D21CDC
:1040D0000E94F01ACFE8DEE10E943B152097E1F341
:1040E0000E948F1EF9CF0E94D52208950E94382287
:1040F0000895CF92DF92EF92FF920F931F93CF9389
:10410000DF937C016B018A01C0E0D0E00FC0D601D3
:104110006D916D01D701ED91FC910190F081E02D41
:10412000C7010995C80FD91F01501040011511058D
:1041300071F7CE01DF91CF911F910F91FF90EF901A
:10414000DF90CF900895EF92FF920F931F938C0111
:10415000DC01ED91FC910190F081E02D6DE009957D
:104160007C01D801ED91FC910190F081E02DC80116
:104170006AE009959C012E0D3F1DC9011F910F9109
:10418000FF90EF900895CF93DF93EC0161157105D7
:1041900019F420E030E00FC0DB010D900020E9F7BA
:1041A0001197A61BB70BE881F9810280F381E02DFE
:1041B000AD0109959C01C901DF91CF9108954F92FE
:1041C0005F927F928F929F92AF92BF92CF92DF9237
:1041D000EF92FF920F931F93DF93CF93CDB7DEB78C
:1041E000A1970FB6F894DEBF0FBECDBF2C01742E81
:1041F000CB01223008F42AE019A231E2C32ED12CDF
:10420000CC0EDD1E822E9924AA24BB24672D752F87
:10421000A50194010E94BF2379018A01C801B70159
:10422000A50194010E946D23472D461B0894C108E7
:10423000D1084A3014F4405D01C0495CF601408366
:10424000E114F1040105110521F07E2C5F2DC80158
:10425000DDCFC201B6010E94C320A1960FB6F8942B
:10426000DEBF0FBECDBFCF91DF911F910F91FF90A9
:10427000EF90DF90CF90BF90AF909F908F907F9006
:104280005F904F900895DC012115310541F4ED91C7
:10429000FC910190F081E02D642F099508950E9412
:1042A000DF200895EF92FF920F931F939A017B01F5
:1042B00000E010E0B801A7010E9443211F910F9177
:1042C000FF90EF900895CF92DF92EF92FF920F93BD
:1042D0001F936C017B019A0100E010E0B801A70177
:1042E0000E9443218C01C6010E94A320080F191FC0
:1042F000C8011F910F91FF90EF90DF90CF9008952C
:10430000EF92FF920F931F939A01E62EFF2400E095
:1043100010E0B801A7010E9443211F910F91FF9067
:10432000EF900895CF92DF92EF92FF920F931F9339
:104330006C01E62E9A01FF2400E010E0B801A7010D
:104340000E9443218C01C6010E94A320080F191F5F
:10435000C8011F910F91FF90EF90DF90CF900895CB
:10436000CF92DF92EF92FF920F931F93CF93DF9341
:10437000EC016A017B012115310541F4E881F981E5
:104380000190F081E02D642F09951FC02A3031057E
:10439000D1F477FF17C0E881F9810190F081E02D19
:1043A0006DE209958C0144275527BA014C195D0926
:1043B0006E097F09CE012AE00E94DF209801280FB4
:1043C000391F04C02AE00E94DF209C01C901DF914F
:1043D000CF911F910F91FF90EF90DF90CF900895B4
:1043E000EF92FF920F931F937B019A010027F7FC36
:1043F0000095102FB801A7010E94B0211F910F91C5
:10440000FF90EF900895CF92DF92EF92FF920F937B
:104410001F936C017B019A010027F7FC0095102F78
:10442000B801A7010E94B0218C01C6010E94A320FF
:10443000080F191FC8011F910F91FF90EF90DF9097
:10444000CF9008950E94C3200895EF92FF920F939A
:104450001F937C010E94C3208C01C7010E94A320EE
:10446000080F191FC8011F910F91FF90EF90089539
:104470000F931F93CF93DF93BC018230910510F40B
:1044800062E070E0E0919F04F091A00440E050E011
:10449000A0E0B0E024C08081918186179707D0F01A
:1044A0008617970771F482819381109729F01396EC
:1044B0009C938E9312972CC09093A00480939F049A
:1044C00027C04115510519F08417950718F48D017F
:1044D000AC01EF01DF01828193819C01F9013097EA
:1044E000D1F641155105F9F0CA01861B970B8430AE
:1044F000910580F48A819B810115110521F0F80155
:104500009383828304C09093A00480939F04FE0150
:10451000329645C0FE01E80FF91F6193719302972F
:10452000998388833CC080919D0490919E04892B3F
:1045300041F4809192029091930290939E04809313
:104540009D0440919402509195024115510541F40A
:104550004DB75EB78091900290919102481B590B24
:1045600020919D0430919E0424173507B0F4CA01B0
:10457000821B930B8617970780F0AB014E5F5F4F4E
:104580008417950750F0420F531F50939E04409399
:104590009D04F9016193719302C0E0E0F0E0CF0166
:1045A000DF91CF911F910F910895CF93DF939C01DD
:1045B000009709F48FC0EC0122971B821A82609148
:1045C0009F047091A0046115710581F4888199811F
:1045D000820F931F20919D0430919E042817390764
:1045E00039F5D0939E04C0939D0474C0DB0140E074
:1045F00050E0AC17BD0708F1BB83AA83FE012191EF
:104600003191E20FF31FAE17BF0779F48D919C91A2
:104610001197280F391F2E5F3F4F39832883129639
:104620008D919C9113979B838A834115510571F459
:10463000D093A004C0939F044DC012968D919C917D
:104640001397AD01009711F0DC01D3CFDA01139677
:10465000DC93CE931297FA0121913191E20FF31F6F
:10466000CE17DF0769F488819981280F391F2E5FE3
:104670003F4FFA01318320838A819B819383828318
:10468000E0E0F0E0DB0112968D919C91139700978A
:1046900019F0BC01FD01F6CFAB014E5F5F4FDB01AE
:1046A0008D919C91840F951F20919D0430919E04C3
:1046B0002817390779F4309729F41092A004109242
:1046C0009F0402C0138212824250504050939E04B5
:1046D00040939D04DF91CF910895629FD001739F15
:1046E000F001829FE00DF11D649FE00DF11D929F8E
:1046F000F00D839FF00D749FF00D659FF00D9927CD
:10470000729FB00DE11DF91F639FB00DE11DF91FF0
:10471000BD01CF0111240895991B79E004C0991FB0
:10472000961708F0961B881F7A95C9F7809508950B
:10473000AA1BBB1B51E107C0AA1FBB1FA617B707C7
:1047400010F0A61BB70B881F991F5A95A9F78095E3
:104750009095BC01CD01089597FB092E07260AD03C
:1047600077FD04D0E5DF06D000201AF4709561953E
:104770007F4F0895F6F7909581959F4F0895A1E298
:104780001A2EAA1BBB1BFD010DC0AA1FBB1FEE1FCB
:10479000FF1FA217B307E407F50720F0A21BB30B16
:1047A000E40BF50B661F771F881F991F1A9469F792
:1047B00060957095809590959B01AC01BD01CF01EE
:1047C000089597FB092E05260ED057FD04D0D7DF9C
:1047D0000AD0001C38F450954095309521953F4FF4
:1047E0004F4F5F4F0895F6F79095809570956195BE
:1047F0007F4F8F4F9F4F0895EE0FFF1F0590F4914D
:08480000E02D0994F894FFCFAC
:1048080046697865642100537461746973746963D7
:104818007320696E20454550524F4D206572617373
:1048280065200020646F6E65004C6173742073749A
:10483800617469736963733A28002D002920666FD3
:10484800726D2000464E2020636E742000202000E8
:104858000D0A42696E642066696E64207374617221
:10486800743A2000204D61786C6576656C5B005D5C
:104878003D000D0A54696D65733A200042696E6403
:104888003D002046636F72723D0020536571756567
:104898006E63653A200020456E6400532F4E3D003C
:1048A8004952513D00535441525400543D00505018
:1048B8004D206F75740053425553206F7574004630
:1048C800694572722100435243210042494E4421F6
:1048D800004653205700523D0020533D0020433DE1
:1048E8000020413D0020526E3D0046636F72723DCC
:1048F800002453415400746F2066730024524C0006
:10490800534F5300496E6974000802409CB80BB8B5
:104918000BB80BB80BB80BB80BB80BB80BB80BB877
:104928000BB80BB80BB80BB80BB80BB80BB80BB867
:104938000BB80BB80BB80BB80BB80BB80B0A01C700
:10494800F8C10F2500250025002B002B002B002B7C
:1049580000280028002800280028000402018040C0
:1049680020102010080402040201804020102000BA
:104978000458006348CC000100004D9359A76DBD51
:104988007FD165040201001EC7010100004BD2045B
:104998008000A10400000102030405060B0C0D0EA3
:1049A8000F101112131418191A1C28292A38023F3B
:1049B800024902660278028A02A002A702AE02B584
:1049C80002BC02C302CA02D102D802EE022F034778
:1049D80003500359037E03A603C6030A000900080F
:1049E8000007000600050004001300120011000073
:1049F8000001000900080000000000CE1F792064B3
:084A08001F951F751FBE1F0062
:00000001FF
