:100000000C9429020C94031D0C94301D0C94510285
:100010000C9451020C9451020C9451020C94510214
:100020000C9451020C9451020C9451020C94510204
:100030000C9451020C9479020C9451020C945102CC
:100040000C945D1D0C9451020C94BE1F0C940C205A
:100050000C9451020C9451020C9451020C945102D4
:100060000C9451020C945102507265737320276DE9
:100070002720746F207374617274204D454E552093
:10008000696E2031302073656300464C415348202F
:100090004552524F522121212043616E277420770F
:1000A0006F726B21004572726F72207265616420FD
:1000B00073657474696E6773210053657474696E37
:1000C000677320726573657420746F206465666160
:1000D000756C7473210046486E3A204D696E20415C
:1000E0007672204D6178000A0D426179636869205B
:1000F000736F66742032303133005258204F706570
:100100006E20457870657274205632204600546F18
:1001100020456E746572204D454E552050726573B2
:100120007320454E544552005479706520526567DE
:1001300020616E6420707265737320454E54455281
:100140002C20747970652056616C756520616E6431
:1001500020707265737320454E5445522028713DBE
:10016000517569743B2073732F736C2F73613D530A
:10017000746174290052673D56616C2009436F6DAC
:100180006D656E7473202D2D2D2D2D2D2D2D2D2D66
:100190002D2D2D2D2D2D2D2D2D2D2D2D2D00457859
:1001A000656375746520726562696E643F20417293
:1001B0006520796F75207375726528792F6E293FD8
:1001C0000046536E20496E4653202044726F707370
:1001D0003A312020203220202033202020342020BB
:1001E00020352020203620202037202020382020B5
:1001F00000525353493A312020203220202033200E
:100200002020342020203520202036202020372098
:10021000202038204E6F6973653A3120202032202B
:10022000202033202020342020203520202036207C
:10023000202037202020380042696E64204E00467E
:1002400072657120436F727200536572766F203150
:1002500035302520737472656368206E756D2028B3
:10026000312D313229005374617469737469637379
:1002700020656E61626C650031316269742F3130C6
:1002800063682028313D7965732C20323D467574B2
:1002900061626129004469736372657465206F75DA
:1002A0007470757473206D61736B00486F702046B5
:1002B0003100486F7020463200486F70204633008E
:1002C000486F7020463400486F7020463500486FF4
:1002D0007020463600486F7020463700486F702007
:1002E000463800426561636F6E20462028323535FE
:1002F0003D64697361626C652900426561636F6E7C
:1003000020506D617820286D5774293A20302D31A6
:100310002E323B20312D323B20322D333B20332DEA
:10032000363B20342D31323B20352D32353B2036C3
:100330002D35303B20372D31303000426561636F01
:100340006E2073746172742074696D652028736502
:1003500063290053415720466D696E005341572071
:10036000466D61780050504D2F53425553206D6FAC
:100370006465203173742050574D2063686E6C2083
:1003800028312D3829205B345D00525353492074A5
:100390007970653A20736F756E642830292F6C650B
:1003A00076656C28312D39393D61766572616765F6
:1003B000290052535349206D6F64653A206C65766D
:1003C000656C2830292F534E20726174696F283173
:1003D000290052535349206F7665722050574D289B
:1003E0006368616E3A312D31322920302D6E6F7481
:1003F000207573650000000000240027002A00001B
:10040000000000250028002B00000000002300262B
:100410000029000404040404040404020202020289
:1004200002030303030303010204081020408001B8
:100430000204081020010204081020000000070038
:10044000020100000304060000000000000000009C
:10045000782111241FBECFEFD8E0DEBFCDBF13E05F
:10046000A0E0B1E0ECEDFAE402C005900D92A830F6
:10047000B107D9F714E0A8E0B3E001C01D92A13B99
:10048000B107E1F714E0C2E5D4E004C02297FE0111
:100490000E946825C035D107C9F70E94CE210C946F
:1004A0006C250C940000FC0188279927E894219181
:1004B0002032E9F3293010F02E30C8F32B3241F00E
:1004C0002D3239F4689404C00E947102820F911D8C
:1004D000219120532A30C0F31EF4909581959F4FAF
:1004E00008957AE0979F902D879F802D910D11247C
:1004F00008951F920F920FB60F9211242F933F93DE
:100500004F935F938F939F93AF93BF93EF93FF931B
:1005100080918400909185008097D0F385B190916F
:100520004002892385B988B190914102892388B915
:100530008BB19091420289238BB980912803882343
:1005400009F47DC08091F4038F5F8093F403909150
:100550003D02981730F4109219031092180310926C
:10056000F4034091F4034917B1F42091180330913A
:100570001903E0910B02F0910C02CF0180579741D3
:100580002817390718F020E737E147C0CF01821B51
:10059000930B9C0142C0A42F50912603523011F0BE
:1005A000E42F04C0E0918F02E40FE150FF27E7FD44
:1005B000F095EE0FFF1FEB5DFD4F2081318124523E
:1005C00030408091180390911903820F931F9093EC
:1005D000190380931803552369F0513049F44C5F97
:1005E00080918F02A42FA81B4450A3301CF415C087
:1005F000A42FAD5FAC3088F4BB27A7FDB095FD01FB
:10060000EE0FFF1FED5BFD4F0190F081E02D80812B
:10061000A55ABD4F9C91892B808380912603813000
:1006200091F44B3080F4289A809184009091850059
:1006300084519240C8F3245F3140289804C020912F
:100640000B0230910C0280910B0290910C02821BE4
:10065000930B9093850080938400FF91EF91BF915D
:10066000AF919F918F915F914F913F912F910F90FB
:100670000FBE0F901F901895CF93DF938091790252
:10068000882379F1C3E4D2E020E030E0482F50E045
:10069000CA01022E02C0959587950A94E2F780FF61
:1006A0001AC0888199818832910511F4E1E005C072
:1006B0008B9711F4E2E001C0E0E0F0E0E05CFD4F78
:1006C000D901A959BD4F80819C91892B8083F90163
:1006D000E55AFD4F10822F5F3F4F2296283031059B
:1006E000B9F6DF91CF9108956F927F928F929F928A
:1006F000AF92BF92CF92DF92EF92FF920F931F9330
:10070000CF93DF93EC0120917602822F6AE00E9462
:10071000F624892E8A94822F0E94F624982E9A9489
:1007200070917802723009F49AC09F858D853E01E0
:100730000DE012E0E0E0F0E0C82EDD24A2E0AA2EF9
:10074000B12CE92EFF24D30112968C91482F50E052
:10075000440F551F440F551F6E2FE83028F52E2FDC
:10076000898190E00E2E02C0959587950A94E2F754
:1007700080FD5460673061F0C501022E02C0880F11
:10078000991F0A94E2F78E219F21892B09F042607C
:100790007723C1F1C60102C0959587952A95E2F7A6
:1007A00080FF30C041602EC0440F551F772351F1A8
:1007B000E83039F48C8590E087709070482B592B85
:1007C00021C0E93019F040E050E01CC08C8590E079
:1007D00023E0959587952A95E1F79C012770307065
:1007E000422B532B959587959595879582709070A0
:1007F00020911B0230911C02822B932B90931C02A0
:1008000080931B02681511F06915C1F4CA0180506C
:1008100094409C0135952795280F391FBBEF203553
:100820003B0714F420E53BEFC90124E0813B92072C
:1008300014F080EB94E0AC0140505C4F4854584FAA
:10084000D8014D935D938D0131960894611C711C04
:10085000EC30F10509F077CF3F85317066C0DE01DD
:10086000EDE9F3E011968C9111978193119623E0B5
:10087000EB3AF207B9F7FDE0EF2EF2E0FF2E11E0C0
:1008800001E0B0E048C0660F771FFE01E00FF11DE8
:10089000808190E0212F30E082239323892B11F077
:1008A000462B572B103819F40F5F11E001C0110FC0
:1008B000AF5FAB3041F7B81511F0B915C1F4CA01FB
:1008C000805094409C0135952795280F391F7BEF68
:1008D0002035370714F420E53BEFC901A4E0213BA4
:1008E0003A0714F080EB94E0AC0140505C4FCA0131
:1008F000880F991F880F991F840F951F95958795CD
:10090000959587958052994FF701819391937F0137
:10091000BF5FBA3031F040E050E0A0E061E070E04D
:10092000B4CFC00FD11D38813078809179028823EF
:1009300089F1A3E4B2E047E652E02DE0E22E22E0A6
:10094000F22E61E0082F10E0862F90E080239123A3
:10095000892B99F0E70188819981ED91FC9111979C
:10096000EA012881895B9B4020F08081822B808373
:1009700004C0808120952823208312964F5F5F4F0B
:1009800082E090E0E80EF91E92E0A335B90711F07D
:10099000660FDACF832FDF91CF911F910F91FF90D8
:1009A000EF90DF90CF90BF90AF909F908F907F900F
:1009B0006F9008959C01809178028230E1F4F901F2
:1009C00090E05CE8B901615F7F4F8181982740E04A
:1009D000892F90E09C013595279580FF03C0952FC6
:1009E000922701C0922F4F5F483091F73196E6175A
:1009F000F70759F71BC0F90190E05CE8B901635FA4
:100A00007F4F8281982740E0892F90E09C013595A7
:100A1000279580FF03C0952F922701C0922F4F5F2B
:100A2000483091F73196E617F70759F7892F08955F
:100A3000409A2D98409898E010C087FF07C02D98E5
:100A400000002B9A00002D9A000006C02D9800008F
:100A50002B9800002D9A0000880F915070F72D9868
:100A600008958F770E94180508952D9898E010C07A
:100A700087FF07C02D9800002B9A00002D9A0000D8
:100A800006C02D9800002B9800002D9A0000880FBA
:100A9000915070F72D9808951F93162F80680E942B
:100AA0001805812F0E943505409A1F9108951F93C4
:100AB000809127038F5F80932703883010F0109276
:100AC0002703E0912703F0E0E658FD4F108189E706
:100AD000612F0E944C0580918D02181730F0809193
:100AE0008E02811710F0479A01C047981F91089510
:100AF0002D9880E090E0880F2D9A00001C9981606D
:100B00002D9800009F5F9830B1F708950E9431053D
:100B10000E947805409A089583E00E94860580939C
:100B2000AB0384E00E9486058093AC0386E060E01E
:100B30000E944C0587E061E00E944C0560917502BF
:100B4000662311F089E002C089E067EC0E944C0541
:100B50008AE065E00E944C058BE062E10E944C0552
:100B60008CE065E10E944C058DE06BE10E944C0534
:100B70008EE060E00E944C058FE163E00E944C052E
:100B80008EE16AE00E944C0582E160E60E944C051D
:100B900083E168EF0E944C058FE060E80E944C05FD
:100BA0008DE160E40E944C058CE166E20E944C05F8
:100BB00080E264E40E944C0581E260E00E944C0502
:100BC00082E262EF0E944C0583E26CE70E944C05D2
:100BD00084E266E00E944C0585E26DE70E944C05C8
:100BE0008AE26EE10E944C0580E36CEA0E944C05AB
:100BF00082E36CE80E944C0583E36AE00E944C05A6
:100C000084E364E00E944C0585E362E20E944C05A7
:100C100086E36DE20E944C0587E364ED0E944C057B
:100C200088E360E00E944C0589E360E00E944C0587
:100C30008EE360E10E944C058DE66FE00E944C055A
:100C40008EE66CE30E944C058FE66FE90E944C052E
:100C500089E660E60E944C0580E76EE20E944C0542
:100C600089E760E00E944C058AE766E00E944C0537
:100C700081E763E20E944C0582E76EE00E944C052A
:100C800085E763E50E944C0586E76CE40E944C050D
:100C900087E760EE0E944C05089587E061E00E94BE
:100CA0004C058EE764E20E944C0588E063E00E94F8
:100CB0004C0588E060E00E944C0587E065E00E94FA
:100CC0004C0585E062E00E944C0583E00E948605A9
:100CD0008093AB0384E00E9486058093AC03089563
:100CE00083E00E9486058093AB0384E00E94860522
:100CF0008093AC0387E061E00E944C050895482F83
:100D00008091EA039091EB03481721F49C5E909345
:100D1000EB0308952091EC033091ED03290F311D71
:100D20003093ED032093EC0301C07894809184000C
:100D300090918500B901681B790B62327105A8F7A3
:100D4000F894809184009091850028173907C9F79D
:100D5000442311F02A9801C02A9A4093EA0384E1BF
:100D60008093EB030895EF92FF920F931F93CF931D
:100D7000DF93E82E80E00E947F06FF2410E001E070
:100D8000CE2DD0E0802F90E08C239D23892B29F05D
:100D900081E00E947F061F5F03C080E00E947F0603
:100DA000F39488E0F81611F0000FECCF812F8170DA
:100DB0000E947F0681E00E947F0681E00E947F06FC
:100DC000DF91CF911F910F91FF90EF900895DF92E7
:100DD000EF92FF920F931F93CF93DF93809126039F
:100DE000823009F079C08FE08093D1039091420363
:100DF000992311F018E001C010E01093E80310925D
:100E0000E903809178028230A1F4992391F4EDE90D
:100E1000F3E0A2EDB3E081918D9383E0EB3AF80724
:100E2000D1F71091AA031F734AE07EE0D72E00E4A9
:100E300004C040E0DD24D39401E080919803E82EC3
:100E4000FF2463E0EE0CFF1C6A95E1F7C0912403D8
:100E5000D091250353E0CC0FDD1F5A95E1F74C30BC
:100E6000A0F4E42FF0E0EE0FFF1FEB5DFD4F80815B
:100E70009181805E9640880F991F880F991F65E0C9
:100E800070E00E940225CB0107C04D3011F4C7016C
:100E900003C04E3019F4CE0120E00AC04F3019F4DF
:100EA00080E096E0F9CF80E090E0F6CF96958795C8
:100EB00080FD102B003849F4ED2DF0E0EF52FC4F8F
:100EC0001083D39401E010E001C0000F2F5F2B309E
:100ED00069F74F5F403118F2DF91CF911F910F9169
:100EE000FF90EF90DF90089520E030E0F894F90152
:100EF000EB5DFD4FD901A35FBD4F8D919C91918317
:100F0000808378942E5F3F4F2831310579F7E09147
:100F10008C02EE23A1F0F894F0E0EE0FFF1FED5DE0
:100F2000FD4F809124039091250386509F4FA3E0AD
:100F3000880F991FAA95E1F791838083789481E0C7
:100F4000809328030E94E7060895EF92FF920F9383
:100F50001F93CF93DF938091CC038093B103909143
:100F600045039093B20380914203882389F48091D2
:100F70002803882369F023EB33E0C1E7D3E010EEC8
:100F8000E12E1FEFF12EEC0EFD1EFE01870104C0C5
:100F900090689093B203EFCFB8978081B896D9014B
:100FA0008C9350961C92509718961C9260816623E1
:100FB00049F0D8018D919C9170E00E940225D901E1
:100FC00018966C936085662359F0D80150968D91E0
:100FD0009C91519770E00E940225D90150966C9324
:100FE0002F5F3F4F31960E5F1F4FB3E02B3B3B0708
:100FF00099F6A8971882A896F70111821082118A93
:10100000108A1882188682E090E0E80EF91E219678
:1010100091E6E91693E0F90661F710924603109203
:1010200045031092CB03DF91CF911F910F91FF9059
:10103000EF9008950F931F93CF93DF930DE012E08D
:10104000C0E4D0E0F801418185EF93E0BE010E9449
:10105000D41C219685EF93E0BE01F80140810E94E7
:10106000D41C0E5F1F4F2196F2E005321F0751F787
:10107000DF91CF911F910F910895462FBC016F5EB4
:101080007F4F85EF93E00E94D41C0895DF92EF928A
:10109000FF920F931F938C01D62E472F85EFE82EDA
:1010A00083E0F82EC701B8010E94D41C0F5F1F4FC8
:1010B000C701B8014D2D0E94D41C1F910F91FF90C4
:1010C000EF90DF900895EF92FF920F931F93CF93CD
:1010D000DF9303E712E0EE24FF24C0E0D0E0CE016E
:1010E000F80160810E943D08F80181918F01E80EAE
:1010F000F11C2196C730D10591F7CAE7D2E00BE089
:1011000010E0C80168810E943D088991E80EF11C39
:101110000F5F1F4FF2E0C238DF0799F7C2E8D2E055
:1011200003E110E0C80168810E943D088991E80E42
:10113000F11C0F5F1F4F82E0C838D80799F789E18B
:1011400090E060918D020E943D0880918D02E70140
:10115000C80FD11D8AE190E060918E020E943D0887
:1011600080918E02C80FD11D8CE190E060918F02BA
:101170000E943D0880918F02C80FD11D0AE812E03D
:1011800098E2E92EF12CC701F80160810E943D0828
:10119000F80181918F01C80FD11D0894E11CF11C49
:1011A000F2E00D381F0779F78AE090E0BE010E9457
:1011B0004608DF91CF911F910F91FF90EF90089516
:1011C000AF92BF92CF92DF92EF92FF921F93CF9395
:1011D000DF934DE0C42E42E0D42E30E4E32EF12C18
:1011E00028EBA22E2BE0B22E85EF93E0B7010E94F0
:1011F000CD1C182FB7016F5F7F4F85EF93E00E94E2
:10120000CD1CD12FC0E09E01280F311DC901F60170
:10121000318320838C5697408959984018F0F60105
:10122000B182A08222E030E0E20EF31EC20ED31E95
:1012300038E5E316F104C1F6DF91CF911F91FF90DD
:10124000EF90DF90CF90BF90AF900895BC016F5E9C
:101250007F4F85EF93E00E94CD1C0895DF92EF92BF
:10126000FF920F931F938C0155EFE52E53E0F52E5F
:10127000C701B8010E94CD1CD82E0F5F1F4FC701B8
:10128000B8010E94CD1C3D2D20E0280F311DC90161
:101290001F910F91FF90EF90DF9008950F931F9390
:1012A000CF93DF9300E010E0C0E0D0E0CE010E94D9
:1012B0002609FE01ED58FD4F8083080F111D219670
:1012C000C730D10599F7CBE0D0E0CE010E942609C6
:1012D000FE01E159FD4F8083080F111D2196C33196
:1012E000D10599F7C3E1D0E0CE010E942609FE01A5
:1012F000E159FD4F8083080F111D2196C931D10599
:1013000099F780918302883008F05BC0863008F03E
:1013100059C0823010F491E002C091E0891B8093A3
:101320008402981708F4891B809385021092860224
:1013300089E190E00E94260980938D02080F111D1B
:101340008AE190E00E94260980938E02080F111D09
:101350008CE190E00E942609982F8150883020F47B
:1013600090938F02090F111DC8E2D0E0CE010E94B8
:101370002609FE01EE59FD4F8083080F111D2196AD
:10138000CB32D10599F78AE290E00E94260980933A
:101390008C0281508C3010F010928C0280918C0263
:1013A000080F111D8AE090E00E942E0920E08017AE
:1013B000910709F421E0822FDF91CF911F910F91C6
:1013C000089587E092E0AACF0F931F93CF93DF9306
:1013D00020910A02222379F1E0E0F0E000E010E041
:1013E0008491080F111D319680E4E030F807C1F7B1
:1013F000922F80E020910902EC01C20FD11D86E0FE
:1014000090E00E942E09C817D90761F086E090E0AD
:10141000BE010E94460888E090E0B8010E9446089C
:1014200081E00AC088E090E00E942E0980179107B1
:1014300011F08FEF01C080E0DF91CF911F910F91EC
:1014400008950F931F93E2E0F0E081E2809357004C
:101450008491843931F488EF91E090937002809305
:101460006F0285EF93E06CE070E00E94CD1C082FC6
:1014700010E0109372020093710285EF93E06DE02B
:1014800070E00E94CD1C382F20E0200F311F3093D8
:101490007202209371022835310538F080916F0275
:1014A0009091700228173907C0F088E590E090937A
:1014B00072028093710285EF93E06CE070E048E582
:1014C0000E94D41C4091720285EF93E06DE070E0C1
:1014D0000E94D41C1092CC0316C0C901CE976AE1B9
:1014E00070E00E940225882331F0281B31093093D7
:1014F00072022093710285EF93E06EE070E00E942B
:10150000CD1C8093CC038091CC038F5F8093CC0360
:10151000843610F01092CC03A1E5B3E0FD01B09643
:10152000B8971082B89611961C921E9251961C92F2
:101530001E925097108210861296319683E0A13643
:10154000B80771F7109246031092450310924803B2
:10155000109247038AE18093CB030E94A51D6093FC
:10156000CD037093CE038093CF039093D0031F914C
:101570000F91089580914403813019F482E08093A3
:10158000440380914403833069F484E080934403EE
:101590000E94A51D6093990370939A0380939B0307
:1015A00090939C03089580912603823011F0E0E02F
:1015B00015C00E94B31DE0E02091AD033091AE0351
:1015C0004091AF035091B003621B730B840B950BDA
:1015D000635679418040904008F0E1E08E2F0895F5
:1015E000EF92FF920F931F9380917702882309F463
:1015F00096C00E94D30A882309F091C08AC0F0E007
:1016000060917102709172026E0F7F1FEF54FC4F58
:1016100085EF93E040810E94D41C8091CB038F5FC3
:101620008093CB038A3109F04CC080917102909174
:1016300072024A96909372028093710220916F0217
:101640003091700282179307E0F188E590E0909363
:1016500072028093710235C0EA3139F4409172020E
:1016600085EF93E06DE070E008C0EB3171F485EF39
:1016700093E06CE070E0409171020E94D41C809174
:10168000CB038F5F8093CB031CC0EC31D1F48DE191
:101690008093CB038091470390914803892B41F4B9
:1016A00085EF93E06EE070E04091CC030E94D41C83
:1016B000809147039091480301969093480380934B
:1016C00047032091290330912A0340912B03509125
:1016D0002C038091CD039091CE03A091CF03B091C4
:1016E000D00379018A01E81AF90A0A0B1B0BD80109
:1016F000C70180569A4EA040B04088F02093CD0399
:101700003093CE034093CF035093D0030E94A5079C
:1017100006C0E091CB03EA3108F09ECF70CF1F9155
:101720000F91FF90EF9008950F931F93CF93DF9346
:1017300080912603823009F057C0809128038823C6
:1017400009F452C00E94B31DAB01BC018091AD03EE
:101750009091AE03A091AF03B091B0038A019B01B9
:10176000081B190B2A0B3B0BD901C8018356994161
:10177000A040B040C8F12091840030918500809154
:101780000B0290910C028F5F98418217930760F1D2
:101790001EC08091E80384608093E8031092EA03FE
:1017A0001092EB03F89480918400909185009093BF
:1017B000ED038093EC032A9AC1EDD3E089910E9456
:1017C000B30623E0CA3ED207C9F778940DC0409310
:1017D000AD035093AE036093AF037093B003809159
:1017E00043038823B1F6DACFDF91CF911F910F9198
:1017F0000895EF92FF920F931F938C010E94B31DE7
:10180000780100E010E0E60EF71E081F191F02C065
:101810000E94940B0E94B31D6E157F0580079107EF
:10182000B8F31F910F91FF90EF900895EF92FF9200
:101830000F931F93CF93DF93EB01F42E9C0144276A
:1018400037FD4095542F60E271EA87E090E00E94F6
:101850004B2589012530310514F405E010E087E0BF
:10186000F82288E0F82A8DE66F2D0E944C058EE064
:1018700064E00E944C0561E070E080E090E00E942E
:10188000D91D8EE060E00E944C05A895BE01882716
:1018900077FD8095982F20E930ED43E050E00E94DD
:1018A000D7249801442737FD4095542F0E944B259B
:1018B0007901C0E0D0E009C02B9AC8010E94F90B61
:1018C0002B98C8010E94F90B2196CE15DF05A0F3D5
:1018D000DF91CF911F910F91FF90EF90089583E0DA
:1018E0000E9486058093AB0384E00E948605809366
:1018F000AC0386E060E00E944C0587E061E00E9456
:101900004C0589E060913F020E944C058AE065E049
:101910000E944C058BE062E10E944C058CE065E181
:101920000E944C058DE06AE00E944C058EE060E06C
:101930000E944C0580E76CE20E944C0580E360E069
:101940000E944C0589E7609182020E944C058AE75B
:1019500066E00E944C0581E762E10E944C0582E747
:1019600062E00E944C0583E760E00E944C0584E73A
:1019700060E00E944C054798609183026770686040
:101980008DE60E944C056AE070E080E090E00E94E5
:10199000D91D87E069E00E944C0588EB91E061E089
:1019A00070E0409183020E94160C8DE591E061E0A9
:1019B00070E0409184020E94160C85E091E061E0A5
:1019C00070E0409185020E94160C8FEA90E061E081
:1019D00070E0409186020E94160C87E061E00E9450
:1019E0004C0508950E94700662E370E080E090E08C
:1019F0000E94D91D0E944D0600000895CF92DF92EB
:101A0000EF92FF920F931F93CF93DF93982FEB01E9
:101A1000D42EC22EA89589E7692F0E944C05CC20B0
:101A200021F08DE160E40E944C050E94F20C0E94BE
:101A3000A51D7B018C01CE01A0E0B0E0E80EF91EEF
:101A40000A1F1B1F83E08093440307C00E94A51D4B
:101A5000E616F7060807190720F080914403833043
:101A6000A9F380914403843009F07AC08FE70E9483
:101A70003105C8E0D3E00E947805899383E0C8313E
:101A8000D807C9F70E944D068091EE03882329F0FC
:101A9000CE0140970E94DA043EC0FE013E9790E0DE
:101AA0005CE88081982740E0892F90E09C01359583
:101AB000279580FF03C0952F922701C0922F4F5F7B
:101AC000483091F7319683E0E731F80751F79923D1
:101AD00021F48091780281701CC03E9790E05CE810
:101AE0008081982740E0892F90E09C0135952795CB
:101AF00080FF03C0952F922701C0922F4F5F48307F
:101B000091F7319683E0E831F80751F7992341F5D1
:101B100082E08093780281E08093EE03DD2021F063
:101B200080910803D816E1F4CC20C1F08BE20E942A
:101B300086052091F0033091F103482F50E0813861
:101B400010F020503140240F351F3093F1032093C3
:101B5000F0038091EF038F5F8093EF0381E001C07A
:101B600080E0DF91CF911F910F91FF90EF90DF9078
:101B7000CF9008951F9380917502882309F054C077
:101B80008BE894E00E94CE20181619060CF04CC089
:101B90008BE894E00E94FF208D30910591F48091B4
:101BA00088028093750280933F020E9463088BE84D
:101BB00094E060E071E00E948F230E948C0581E038
:101BC00034C08E33910531F08E32910519F08E3E7E
:101BD000910521F4809188028F5F0CC08C339105B0
:101BE00031F08C32910519F0813A9105E9F4809138
:101BF000880281508093880280918802882319F49A
:101C00008FEF809388021091880289E0612F0E94F3
:101C10004C058BE894E0612F4AE050E00E94FC22E2
:101C20008091880280933F0280E01F9108958BE8A5
:101C300094E00E94CE201816190614F020E00CC083
:101C40008BE894E00E94FF208D36910521F020E082
:101C50008D34910509F421E0822F0895FF920F93AE
:101C60001F938091290390912A03A0912B03B09197
:101C70002C03209194033091950340919603509149
:101C80009703821B930BA40BB50B4497A105B105D9
:101C900008F446C08BE894E00E94CE20082F10E0A4
:101CA000FF24F3943BC08BE894E00E94FF20982F20
:101CB00080919103882359F4963179F590938103AB
:101CC000F0929103109293031092890226C0E82F9C
:101CD000F0E0EF57FC4F90838F5F8093910380314A
:101CE000E0F01092910381E893E00E94DA048823E7
:101CF000A1F48091290390912A03A0912B03B09124
:101D00002C038093940390939503A0939603B09330
:101D1000970381E08093930303C01F5F10171CF2A9
:101D20001F910F91FF9008951F93182F06C08BE805
:101D300094E060E20E94382111501123C1F71F91F5
:101D400008951F93182F8A3020F482E00E94940E89
:101D500007C0843628F48BE894E060E20E943821C2
:101D60008BE894E0612F4AE050E00E94EA228BE881
:101D700094E060E20E9438211F910895CF93DF9391
:101D80008BE894E067E071E00E948C23C8E5D0E026
:101D900012C085EF93E0BE014FEF0E94D41CCE012C
:101DA0008F779070892B29F48BE894E06EE20E9483
:101DB0003821A895219680916F0290917002C817E2
:101DC000D90738F388E590E090937202809371020E
:101DD0001092CC0385EF93E06CE070E048E50E9440
:101DE000D41C4091720285EF93E06DE070E00E9498
:101DF000D41C85EF93E06EE070E04091CC030E942C
:101E0000D41C0E94210A8BE894E063E271E00E94F6
:101E10008F23DF91CF9108951F93CF93DF93EC0130
:101E2000162FFE0121966491662329F08BE894E039
:101E30000E943821F6CF112321F08BE894E00E9414
:101E40000D22DF91CF911F91089587EE90E061E020
:101E50000E940C0F8AEF90E060E00E940C0F8BE86C
:101E600094E0609109024AE050E00E94FC2208954B
:101E70009F92AF92BF92CF92DF92EF92FF920F9319
:101E80001F93CF93DF93833719F020E0833509F454
:101E900021E0A22E8C3619F090E08C3409F491E008
:101EA000B92E843619F09924843411F4992493942A
:101EB000222331F4992311F4AA24A394BB24B394CC
:101EC0008BE894E069E271E00E948C238BE894E057
:101ED00068E570E04AE050E00E945A238BE894E005
:101EE0006AE371E00E948C2360916F02709170022E
:101EF0008BE894E04AE050E00E94BC228BE894E03A
:101F00006CE371E00E948C23609171027091720207
:101F10008BE894E04AE050E00E94CD228BE894E008
:101F200064E471E00E948C23AA2029F081EC91E006
:101F300060E00E940C0FBB2031F081EF91E061E086
:101F40000E940C0F04C08BE894E00E940D22C09107
:101F50007102D0917202CC24FF248E010F5F1F4FBB
:101F600085EF93E0BE010E94CD1CD82E84E68D152E
:101F700020F4992011F46A9675C0DF10CC248D2DC1
:101F80000E94A10EC3948C2D0E94A10EAA2069F17B
:101F900078010894E11CF11C85EF93E0B8010E94E0
:101FA000CD1C182F8F770E94A10E8BE894E060E281
:101FB0000E943821812F881F8827881F0E94A10E28
:101FC00085E00E94940EB7012A968B010F5F1F4F88
:101FD00085EF93E00E94CD1C0E94A10EB8010C1762
:101FE0001D0799F7E701289602C0E8012996BB2052
:101FF00091F183E00E94940EAA2029F08BE894E0EE
:1020000060E20E943821BE018E01085F1F4F7B01F4
:102010000894E11CF11C85EF93E00E94CD1C0E9406
:10202000A10EE016F10611F0B701F1CF84E00E9495
:10203000940EB80160968B010F5F1F4F85EF93E000
:102040000E94CD1C0E94A10EB8010C171D0799F724
:10205000E701289601C060968BE894E00E940D226B
:10206000A895FD2C80916F0290917002C817D90736
:1020700010F0C8E5D0E08091710290917202C8170B
:10208000D90709F06ACFDF91CF911F910F91FF908F
:10209000EF90DF90CF90BF90AF909F900895FF9208
:1020A0000F931F93CF93DF9385E791E060E00E9449
:1020B0000C0F88E091E060E00E940C0F8BE894E048
:1020C000609109024AE050E00E94FC2201E010E029
:1020D000FF24CF2DD0E0FE01EA56FD4F808190E035
:1020E0008017910729F58BE894E0B8014AE050E0A9
:1020F0000E945A238BE894E06DE30E943821C801C6
:102100000E942609682F8BE894E04AE050E00E9484
:10211000EA228BE894E069E00E943821CC0FDD1FB1
:10212000C355DD4F8881998161E00E940C0FF394C3
:102130000F5F1F4F0B32110561F6DF91CF911F9199
:102140000F91FF900895AF92BF92CF92DF92EF92DE
:10215000FF920F931F93CF93DF935C0101960E9430
:1021600053029C0101978E3F910510F010E01EC0B4
:10217000122F82E090E0F501E80FF91FE081EE23D5
:10218000A9F00196ED3279F48A0D9B1D0E9453024D
:102190009C01812F90E08217930740F42F3F310577
:1021A00028F4C22E05C08A30910529F78EEFC82E7B
:1021B0000E948C050E94F20C479886ED90E061E049
:1021C0000E940C0FE12EAEC089E76E2D0E944C05D7
:1021D0008DEE92E00E94321E0FEFFF24C0E0D0E0AF
:1021E00010E083E690E00E94321E86E20E9486059F
:1021F000C80FD11D801708F4082FF81608F4F82E20
:102200001F5F173C71F789E08E1538F08BE894E07A
:102210006DE471E00E948C2308C0E3E6EE1528F01F
:102220008BE894E060E20E9438218BE894E06E2D08
:102230004AE050E00E94EA22EAE7F2E06AE38081A5
:102240008E1509F463E2319682E0E238F807B9F7B7
:102250008BE894E00E9438218BE894E060E20E94D1
:102260003821802F0E94A10ECE0167EC70E00E9401
:102270000225162F862F0E94A10E8F2D0E94A10EDF
:10228000F50180818E3409F047C00A3010F4DD2456
:1022900008C0083418F00DE3D02E03C0B6EFDB2ED3
:1022A000D00EF9E0FF1510F000E007C087E48F15AD
:1022B00010F40DE302C00F2D0A501A3010F4FF2461
:1022C00008C0183418F0ADE3FA2E03C0F6EFFF2E65
:1022D000F10E10E01F1521F48BE894E06AE217C0BC
:1022E0001D1521F48BE894E06CE311C0101721F464
:1022F0008BE894E06EE30BC0D11630F4101720F495
:102300008BE894E06EE203C08BE894E060E20E9408
:1023100038211F5F0117F0F68BE894E00E940D2230
:10232000A895E394CE1408F04FCFDF91CF911F9181
:102330000F91FF90EF90DF90CF90BF90AF900895F6
:10234000EF92FF920F931F93CF93DF937C01FC01D9
:10235000108200E010E08BE894E00E94CE20181676
:102360001906CCF58BE894E00E94DF20469739F4FB
:1023700081E7F701808311821092890234C08BE8D3
:1023800094E00E94FF20EC011816190654F58BE822
:1023900094E06C2F0E943821CD30D10519F0CA305D
:1023A000D10529F48BE894E00E940D221CC0C830AE
:1023B000D10531F40115110571F201501040CBCF58
:1023C000F701E00FF11FC08311820A3011054CF4B0
:1023D0000F5F1F4F06C061E070E080E090E00E9458
:1023E000D91DA895B8CFDF91CF911F910F91FF9084
:1023F000EF9008950F931F93CF93DF93873008F5E5
:10240000182F110FC12FD0E0FE01EE0FFF1FE55274
:10241000FD4F0081802F60E00E94D71E802F61E079
:102420000E94161F183079F482E090E00E94321E5C
:10243000802F0E946A1F892BE9F0802F61E00E94A3
:10244000D71E80E018C0CC0FDD1FC352DD4F1881AE
:10245000812F61E00E94161F82E090E00E94321EF0
:10246000802F0E946A1F019741F7812F60E00E9430
:10247000161FDACF81E0DF91CF911F910F91089560
:102480002F923F924F925F926F927F928F929F9284
:10249000AF92BF92CF92DF92EF92FF920F931F9372
:1024A000DF93CF93CDB7DEB762970FB6F894DEBF58
:1024B0000FBECDBF80E091E00E94E021988B8F8716
:1024C00085E00E94FA111B86882311F481E08B8736
:1024D0007894AF85B889A150BF4FBA8BA98B109261
:1024E000EE031092EF031092F1031092F00380912B
:1024F00075028A5A8D3318F087EC809375020E941A
:102500008C050E94F20C47988DE160E00E944C051A
:102510000E944D06BB85BB2331F08BE894E060E55B
:1025200071E00E948C23EF85F889FA87E987119280
:1025300089899A89E817F907D1F70E94A51D5B01DF
:102540006C018FE19EE4A0E0B0E0A80EB91ECA1EA7
:10255000DB1E66241C86A8950F851889FF24992404
:10256000EE24D8018C918A3FA8F489E76F2D0E9450
:102570004C0589E892E00E94321E86E20E948605A0
:10258000982FF8018081891708F49083E91610F4D8
:102590009F2CE92EF3940F5F1F4FFFEFFF1609F7F3
:1025A00088B188B9662009F58B858823D1F08BE83E
:1025B00094E064E671E00E948C238BE894E0692D3E
:1025C0004AE050E00E94EA228BE894E06FE671E076
:1025D0000E948C238BE894E06E2D4AE050E00E942C
:1025E000FC2295E99E1528F07ACFA5E9AE1508F0F2
:1025F000B2CF892D63E071E04C8520E00E94FE0C93
:102600008823E1F0B0910803BC87EB85EE2361F0ED
:102610008BE894E0692D4AE050E00E94EA228BE8C2
:1026200094E060E20E943821E1E0F0E0EC0FFD1F51
:10263000E60DF11D9082639488B188B9EF85F88921
:10264000E90DF11D8FEF8083662009F448CF0E94C9
:10265000A51DA616B706C806D90660F4862D8150BA
:10266000823060F094E0691649F0A8E06A1609F03B
:1026700036CF04C0B7E0B61508F06DCF0E94A51D97
:102680004B015C018AE09AE1A0E0B0E0880E991E5F
:10269000AA1EBB1E79809B85992331F08BE894E0BC
:1026A00062E771E00E948C2372E0C72ED12CCC0E21
:1026B000DD1E16014F845888A1E0AE871D8660C0DC
:1026C0000E94A51D86169706A806B90608F407CF2E
:1026D000872D63E071E04C8521E00E94FE0C882389
:1026E00079F30E94A51D7B018C01F101808167E5D2
:1026F00072E04C8521E00E94FE0C8823C1F10E940B
:10270000A51D28EF3FEF4FEF5FEF2E193F09400B5C
:10271000510B260F371F481F591F65E056954795E7
:10272000379527956A95D1F7622F283008F06850C1
:10273000EF85F88990E08191861709F4ACCF9F5F0F
:102740008E859817C0F3D20111966C93BB85BB237D
:1027500059F08BE894E04AE050E00E94EA228BE8CE
:1027600094E060E20E943821ED85EF5FED87FE8501
:10277000FF5FFE870894211C311C0894411C511CEA
:102780008E85861508F49CCF9B85992321F08BE8D4
:1027900094E00E940D2270927A02A1E06A1641F440
:1027A000EBE7F2E07192B2E0E238FB07D9F750C0F4
:1027B000E2E06E1691F48A8170927A0280937B0235
:1027C00070927C0280937D0270927E0280937F02E1
:1027D00070928002809381023BC0F4E06F16E9F4AE
:1027E0009E012B5F3F4FA985BA851196EC91EF5F53
:1027F000E43038F4F0E0D6018C91E658FD4F808348
:102800008483E985FA853196FA87E9870894C11CA3
:10281000D11CC216D30639F71BC0FD85F73008F46A
:102820005ECE9E01275F3F4FA985BA851196EC9138
:10283000EF5FF0E0E658FD4FD6018D916D0180838A
:10284000E985FA853196FA87E987A217B30761F718
:102850006091EF038091F0039091F10370E00E948A
:1028600016257093F1036093F003FC85F0937402D6
:10287000CB0182968534910528F480917502861BE0
:10288000809375028B858823D9F18BE894E06CE7FF
:1028900071E00E948C238BE894E06C854AE050E064
:1028A0000E94EA228BE894E062E871E00E948C23A7
:1028B0008BE894E0609175024AE050E00E94EA22C1
:1028C0008BE894E06AE871E00E948C230AE712E04A
:1028D0008BE894E0D8016D918D014AE050E00E94B0
:1028E000EA228BE894E060E20E943821B2E00238EC
:1028F0001B0771F78BE894E066E971E00E948F2373
:10290000109279021092760280917702823010F054
:10291000109277028F8598890E94DD210E946308BA
:10292000469A62960FB6F894DEBF0FBECDBFCF9128
:10293000DF911F910F91FF90EF90DF90CF90BF90AC
:10294000AF909F908F907F906F905F904F903F904F
:102950002F900895CF92DF92EF92FF920F931F93E3
:10296000DF93CF93CDB7DEB72C970FB6F894DEBFC9
:102970000FBECDBF8EE091E061E00E940C0F8E0192
:102980000F5F1F4FC8010E94A0118981813709F490
:1029900086C0813509F483C068010E944F1088E227
:1029A00091E061E00E940C0FC6010E94A011898194
:1029B0008E3611F08E3421F4C6010E94A310F4CF9C
:1029C000833711F0833549F48A81853619F40E94E2
:1029D000BE0EEACF0E94380FE7CF8237F9F48A8122
:1029E0008536E1F48B818236C9F48C818936B1F465
:1029F0008D818E3699F48E81843681F48EE991E052
:102A000060E00E940C0FC6010E94A01189818937E5
:102A100011F0893519F40E94401241C08981813733
:102A2000F1F18135E1F1C6010E9453027C018BE294
:102A3000E816F10408F0B1CFC6010E94A011898107
:102A4000813769F1813559F1C6010E9453028C0129
:102A50008F3F910511F008F0A0CFE114F10419F4B3
:102A6000009709F49ACF8BE894E0B7014AE050E070
:102A70000E945A238BE894E06DE30E9438218BE892
:102A800094E0B8014AE050E00E946D23C701602F36
:102A90000E943D080E944E090E9463087ECF2C963A
:102AA0000FB6F894DEBF0FBECDBFCF91DF911F915F
:102AB0000F91FF90EF90DF90CF9008951F93CF93E9
:102AC000DF93EC0110E011C0A8956DE770E080E0A5
:102AD00090E00E94D91DCB30D10568F00E94170EFE
:102AE000882349F00E94AA1410C0812F90E08C170F
:102AF0009D0750F30AC0469A6DE770E080E090E0D1
:102B00000E94D91D46981F5FF0CFDF91CF911F9192
:102B10000895EF92FF920F931F930E94E409182FDC
:102B20008F3F69F480919203882329F48AE890E02A
:102B300061E00E940C0F8FE295E70E945E1582E033
:102B40000E94FA11882391F084E090E00E945E15C3
:102B50000E94630880919203882329F48AEB90E015
:102B600061E00E940C0F84E090E079C00E944E0961
:102B7000882309F076C080919203882329F485EA9E
:102B800090E061E00E940C0F113009F066C00E94D5
:102B9000A51D7B018C018FE097E2A0E0B0E0E80E7C
:102BA000F91E0A1F1B1F0BC081E090E00E945E15FA
:102BB0000E94170E882319F00E94AA1452C00E9486
:102BC000A51D6E157F058007910770F388E480933B
:102BD000740287EC8093750291E0909377021092D3
:102BE000790210927802109276028BE480938D0223
:102BF00082ED80938E0284E68093820284E080934B
:102C0000830282E080938402909385021092860270
:102C10008EE18093870287E080938A0290938B02F3
:102C200010928C028DE480937A0283E980937B0278
:102C300089E580937C0287EA80937D028DE680930C
:102C40007E028DEB80937F028FE78093800281ED7F
:102C5000809381020E94630804C088E790E00E948C
:102C60005E151F910F91FF90EF9008951F93482FCD
:102C7000F62FE0918A02EE2321F4882351F41FE716
:102C800024C0882341F4683031F41092F303109289
:102C9000F20310E01AC02091F2033091F303C9014E
:102CA0006E2F70E00E940225261B370BF49FC00197
:102CB0001124280F391F3093F3032093F203C90125
:102CC0006E2F70E00E940225162F83E0612F70E0C6
:102CD0000E94771E10932403109225031F910895DC
:102CE0002F923F924F925F926F927F928F929F921C
:102CF000AF92BF92CF92DF92EF92FF920F931F930A
:102D0000CF93DF9380E00E94FA11809326038823FB
:102D100021F08AE080933D021DC086E00E94FA11F6
:102D20008823C1F082E08093260384E080933D02F3
:102D300080E69DE690930C0280930B0290938700AF
:102D40008093860010925B028091400284608093A1
:102D500040022A9884E00E94FA118093920381E055
:102D600090E00E945E1585E00E94FA11882311F020
:102D70000E9440128BE894E040E056E960E070E089
:102D80000E94472080919203882331F40E94250FEE
:102D900081E090E00E945E150E9489158091750285
:102DA00080933F020E94210A0E943C030E94E00897
:102DB0000E948C05109228032EE088E190E00FB667
:102DC000F894A895809360000FBE209360008091D6
:102DD0009203882309F073C08BE894E06BE971E0FB
:102DE0000E948C238BE894E0609173024AE050E0EB
:102DF0000E94FC220E944F108BE894E060EA71E090
:102E00000E948C2384E00E948605682F70E0617028
:102E100070708BE894E04AE050E00E946D238BE8EC
:102E200094E065EA71E00E948F2380E00E948605AD
:102E3000682F8BE894E04AE050E00E94FC2281E099
:102E40000E948605682F8BE894E04AE050E00E94DB
:102E5000FC2282E00E948605682F8BE894E04AE01D
:102E600050E00E94FC228BE894E06BEA71E00E9443
:102E70008C2381E10E948605682F70E060547040C9
:102E80008BE894E04AE050E00E946D2388E690E0F1
:102E900061E00E940C0F80912603813031F48BE8B1
:102EA00094E06EEA71E00E948F23809126038230C5
:102EB00031F48BE894E066EB71E00E948F234424A8
:102EC00081E080933E020E944D060E94F20C7894AD
:102ED00083E0809344030E94A51D609329037093AF
:102EE0002A0380932B0390932C0360932D037093FC
:102EF0002E0380932F0390933003609331037093DC
:102F000032038093330390933403609335037093BB
:102F1000360380933703909338035524AA24BB24A7
:102F20003324339483E0282EA8958CE00E948605F4
:102F3000882371F40E948C050E94F20C8091920308
:102F4000882331F48BE894E06FEB71E00E948F23CB
:102F500080914403843009F0F3C1469888B188B960
:102F60008FE70E943105C8E0D3E00E94780589937D
:102F700023E0C831D207C9F70E944D0610912703FC
:102F80000E9457058091990390919A03A0919B0309
:102F9000B0919C038093350390933603A09337033D
:102FA000B0933803209244036097CE010E94DA0464
:102FB000882351F080919203882309F0BCC18BE8EB
:102FC00094E066EC71E00FC0909108038091740268
:102FD000981761F080919203882309F0ACC18BE8C7
:102FE00094E06BEC71E00E948F23A5C1CE010E949A
:102FF0007403882389F0442081F48091920388230C
:1030000031F48BE894E061ED71E00E948F230E941F
:103010001A084424439401C0442460911E03709113
:103020001F036115710551F080911C0390911D03E0
:103030000E94022570931D0360931C0380911C0362
:1030400090911D0390931F0380931E0360912203B0
:10305000709123036115710569F0809120039091AF
:1030600021030E9402256093200370932103609343
:10307000980306C080919803809320031092210347
:10308000209120033091210380911C0390911D0316
:103090008217930728F410921D0310921C0306C098
:1030A000821B930B90931D0380931C0380918B02D2
:1030B000882329F080911C0390911D0304C0809106
:1030C0001E0390911F039093250380932403809106
:1030D000240361E00E9436168BE20E948605C82F09
:1030E000D0E080919203882309F04DC08BE894E0F2
:1030F00066ED71E00E948C2360911E0370911F03A6
:103100008BE894E04AE050E00E94BC228BE894E017
:1031100069ED71E00E948C23609147037091480330
:103120008BE894E04AE050E00E94BC228BE894E0F7
:103130006DED71E00E948C23612F70E06F5F7F4F17
:103140008BE894E04AE050E00E945A238BE894E038
:1031500061EE71E00E948C238BE894E0BE014AE0AE
:1031600050E00E945A238BE894E065EE71E00E94E3
:103170008C2360912003709121038BE894E04AE056
:1031800050E00E94CD22A12FB0E0FD01EE0FFF1F05
:10319000EF5AFC4F8081918120911E0330911F03D3
:1031A000820F931F91838083FD01EE0FFF1FEF5964
:1031B000FC4F808191812091200330912103820F67
:1031C000931F91838083AB5BBC4F9C968C919C97A3
:1031D0008F5F9C968C939C97D4968C91D4978F5F9D
:1031E000D4968C9310921D0310921C0310921F030F
:1031F00010921E03109221031092200310922303B9
:103200001092220340917502442309F453C0C03840
:10321000D10514F0C050D140CE014996C39718F0A3
:1032200020E030E006C09E01B4E0220F331FBA95C3
:10323000E1F75394C50160E170E00E941625A61ADB
:10324000B70AC90160E170E00E941625A60EB71EFC
:10325000C501B7FE04C0882799278A199B098134C4
:10326000910554F180E2851538F5C50160E170E003
:103270000E941625EB01D095C195DF4F642F6C0F8E
:103280006093750289E00E944C0580919203882327
:1032900069F48BE894E06AEE71E00E948C238BE87D
:1032A00094E0BE014AE050E00E946D235524AA2418
:1032B000BB2402C030924303109242031092410398
:1032C0000E94A51D6093290370932A0380932B030A
:1032D00090932C03609331037093320380933303F4
:1032E000909334036093390370933A0380933B03C4
:1032F00090933C0360933D0370933E0380933F03A0
:103300009093400310923E0210921B0310921A03F6
:10331000109243030E94740780919203882359F00E
:1033200026E1209308038BE894E068E073E040E135
:1033300050E00E94E32188B188B90E94940BF4CD3B
:103340000E94A51D7B018C016093290370932A03C1
:1033500080932B0390932C03609035037090360379
:1033600080903703909038030E94940B0E94BA0D0E
:10337000882309F0A5CD80918902882311F18091DD
:10338000290390912A03A0912B03B0912C03209143
:103390002D0330912E0340912F0350913003821B57
:1033A000930BA40BB50B8F509742A040B04048F44C
:1033B0000E94170E882339F00E94AA140E948C05DF
:1033C0007FCD0E942E0E80919303882309F44FC075
:1033D00080913D0390913E03A0913F03B091400343
:1033E0008196A11DB11D20919403309195034091C8
:1033F00096035091970382179307A407B507B8F572
:1034000081E893E00E9474030E9474071092930372
:1034100010924203109241038091290390912A0354
:10342000A0912B03B0912C0380933103909332032E
:10343000A0933303B09334038093390390933A03FA
:10344000A0933B03B0933C0380919203882339F40B
:103450008BE894E061EF71E00E948F2308C08BE855
:1034600094E061E873E040E150E00E94E321809144
:10347000290390912A03A0912B03B0912C03209152
:103480003103309132034091330350913403821B56
:10349000930BA40BB50B88559240A040B040B0F1FF
:1034A00080914203882391F580912803882371F14C
:1034B00080919203882331F48BE894E066EF71E009
:1034C0000E948F23309242038091290390912A0316
:1034D000A0912B03B0912C038093390390933A036E
:1034E000A0933B03B0933C030E94E0080E94740742
:1034F000469880E068E00E943616809145039091DE
:1035000046030196909346038093450380912903D7
:1035100090912A03A0912B03B0912C0320913D039D
:1035200030913E0340913F0350914003821B930B27
:10353000A40BB50B885B9B40A040B04010F03092CC
:103540003E0267017801C618D708E808F908D701D4
:10355000C6010297A109B1090497A105B105D0F4EC
:1035600083E690E00E94321E009120031091210317
:1035700086E20E948605080F111D10932103009317
:1035800020038091220390912303019690932303BB
:103590008093220380913E02882319F02FEF30E0C0
:1035A0002EC0D701C6010C97A109B1090B97A1053F
:1035B000B105D8F483E690E00E94321E00911C030E
:1035C00010911D0386E20E948605080F111D1093BD
:1035D0001D0300931C0380911E0390911F0301960D
:1035E00090931F0380931E0308C089E1C816D1047D
:1035F000E104F10414F40E94F00A23E230E0C9016E
:10360000AA2797FDA095BA2FC816D906EA06FB0689
:103610000CF4DCC080913E02882319F580914203AE
:10362000882309F4469A809127032091350330912D
:103630003603409137035091380380FF05C0205E68
:103640003F4F4F4F5F4F04C0215E3F4F4F4F5F4F83
:103650002093350330933603409337035093380358
:1036600010C08091290390912A03A0912B03B0915F
:103670002C038093350390933603A0933703B093C4
:103680003803109127030E945705C12FD0E0FE0197
:10369000EB5BFC4F84818F5F8483309243036091A6
:1036A0003E0227E0629FB00111246F5F80E00E941C
:1036B000361680919203882309F063C08BE894E06A
:1036C0006CEF71E00E948C2360911A0370911B03D0
:1036D0006F5F7F4F70931B0360931A038BE894E036
:1036E0004AE050E00E94BC226091220370912303C3
:1036F0006115710569F080912003909121030E946A
:10370000022560932003709321036093980306C001
:103710008091980380932003109221038BE894E01A
:1037200069ED71E00E948C2360914703709148031A
:103730008BE894E04AE050E00E94BC228BE894E0E1
:103740006DED71E00E948C23BE016F5F7F4F8BE8AF
:1037500094E04AE050E00E945A238BE894E065EE42
:1037600071E00E948C2360912003709121038BE80B
:1037700094E04AE050E00E94BC228BE894E00E9472
:103780000D22FE01EE0FFF1FEF59FC4F808191814A
:103790002091200330912103820F931F9183808316
:1037A000FE01EB5BFC4F84A98F5F84AB10921D037D
:1037B00010921C0310921F0310921E0310922103FB
:1037C000109220031092230310922203809142034F
:1037D000882309F4A9CB0E94F00AE0902903F09015
:1037E0002A0300912B0310912C03809139039091AF
:1037F0003A03A0913B03B0913C03E81AF90A0A0B83
:103800001B0B6091870280914103882349F088E86F
:10381000E81683E1F80680E0080780E018077CF4EA
:1038200070E080E090E028EE33E040E050E00E945D
:10383000D7246E157F05800791070CF075CB309269
:103840004103809187028F3F61F08091920388232A
:1038500031F48BE894E060E072E00E948F230E94D4
:103860006F0C80919203882331F48BE894E064E03C
:1038700072E00E948F230E948C050E944D06809169
:10388000290390912A03A0912B03B0912C038093DC
:10389000390390933A03A0933B03B0933C030E94F7
:1038A000A51D60933503709336038093370390937F
:1038B00038033ACB84E161E00E94D71E85E161E0E4
:1038C0000E94D71E8CE060E00E94D71E8BE061E072
:1038D0000E94D71E8DE061E00E94D71E82E060E06A
:1038E0000E94D71E8EE061E00E94D71E80E060E05B
:1038F0000E94D71E81E061E00E94D71E80E061E057
:103900000E94161F83E061E00E94D71E8AE061E0FA
:103910000E94D71E89E061E00E94D71E88E061E026
:103920000E94D71E87E061E00E94D71E86E061E01A
:103930000E94D71E85E061E00E94D71E84E061E00E
:103940000E94D71E83E161E00E94D71E82E161E000
:103950000E94D71E81E161E00E94D71EE1E8F0E0FD
:103960001082109285001092840080910B02909139
:103970000C02909387008093860082E08093800001
:103980008AE1808381E080936F0080E06AEB7AE0D7
:1039900042E050E00E94E01C0895F999FECF72BD0C
:1039A00061BDF89A80B50895F999FECF1FBA72BD2E
:1039B00061BD40BD0FB6F894FA9AF99A0FBE08950A
:1039C000823000F5E82FF0E0EE0FFF1FEA50FC4FC9
:1039D00071836083882319F08130A1F408C080913D
:1039E00069008C7F842B80936900E89A0895809108
:1039F0006900440F551F440F551F837F842B80930C
:103A00006900E99A08951F920F920FB60F92112440
:103A10002F933F934F935F936F937F938F939F93D6
:103A2000AF93BF93EF93FF938091F6039091F703C9
:103A3000892B29F0E091F603F091F7030995FF91A6
:103A4000EF91BF91AF919F918F917F916F915F9116
:103A50004F913F912F910F900FBE0F901F9018958F
:103A60001F920F920FB60F9211242F933F934F93F3
:103A70005F936F937F938F939F93AF93BF93EF93D6
:103A8000FF938091F8039091F903892B29F0E0913D
:103A9000F803F091F9030995FF91EF91BF91AF9170
:103AA0009F918F917F916F915F914F913F912F9156
:103AB0000F900FBE0F901F9018951F920F920FB688
:103AC0000F9211242F933F938F939F93AF93BF93A4
:103AD0008091FE039091FF03A0910004B091010436
:103AE000309102040196A11DB11D232F2D5F2D37AA
:103AF00020F02D570196A11DB11D20930204809343
:103B0000FE039093FF03A0930004B09301048091FF
:103B1000FA039091FB03A091FC03B091FD03019681
:103B2000A11DB11D8093FA039093FB03A093FC03A6
:103B3000B093FD03BF91AF919F918F913F912F91D2
:103B40000F900FBE0F901F9018958FB7F89420918B
:103B5000FE033091FF0340910004509101048FBF98
:103B6000B901CA0108959FB7F8942091FA033091E2
:103B7000FB034091FC035091FD0386B5A89B06C052
:103B80008F3F21F02F5F3F4F4F4F5F4F9FBF542F0D
:103B9000432F322F2227280F311D411D511D82E056
:103BA000220F331F441F551F8A95D1F7B901CA014F
:103BB00008959B01AC017FB7F8948091FA0390912E
:103BC000FB03A091FC03B091FD0366B5A89B05C063
:103BD0006F3F19F00196A11DB11D7FBFBA2FA92F0C
:103BE000982F8827860F911DA11DB11D62E0880FB7
:103BF000991FAA1FBB1F6A95D1F7BC012DC0FFB743
:103C0000F8948091FA039091FB03A091FC03B0918A
:103C1000FD03E6B5A89B05C0EF3F19F00196A11D75
:103C2000B11DFFBFBA2FA92F982F88278E0F911D86
:103C3000A11DB11DE2E0880F991FAA1FBB1FEA95C5
:103C4000D1F7861B970B885E9340C8F22150304015
:103C50004040504068517C4F2115310541055105C8
:103C600071F60895019739F0880F991F880F991FF1
:103C700002970197F1F70895789484B5826084BD26
:103C800084B5816084BD85B5826085BD85B5816060
:103C900085BDEEE6F0E0808181608083E1E8F0E0C0
:103CA0001082808182608083808181608083E0E8EF
:103CB000F0E0808181608083E1EBF0E080818460CE
:103CC0008083E0EBF0E0808181608083EAE7F0E0D0
:103CD0008081846080838081826080838081816034
:103CE00080838081806880831092C10008951F9333
:103CF000CF93DF93182FEB0161E00E94D71E20972E
:103D000009F44AC0CF3FD10509F449C0E12FF0E0E2
:103D1000E55CFB4F84918330C1F0843028F481301E
:103D200051F08230B1F50CC0863019F1873049F17D
:103D3000843079F514C084B5806884BDC7BD33C0B4
:103D400084B5806284BDC8BD2EC08091800080682B
:103D500080938000D0938900C093880024C0809114
:103D60008000806280938000D0938B00C0938A0093
:103D70001AC08091B00080688093B000C093B300F7
:103D800012C08091B00080628093B000C093B400F4
:103D90000AC0C038D1051CF4812F60E002C0812F19
:103DA00061E00E94161FDF91CF911F910895CF937C
:103DB000DF93482F50E0CA01895D9B4FFC0134918D
:103DC0004D5E5B4FFA018491882369F190E0880F82
:103DD000991FFC01EB50FC4FA591B491FC01E150FF
:103DE000FC4FC591D491662351F42FB7F8948C9170
:103DF000932F909589238C93888189230BC06230FF
:103E000061F42FB7F8948C91932F909589238C931C
:103E10008881832B88832FBF06C09FB7F8948C912D
:103E2000832B8C939FBFDF91CF910895482F50E053
:103E3000CA01855C9B4FFC012491CA01895D9B4F9F
:103E4000FC0194914D5E5B4FFA013491332309F4E8
:103E500040C0222351F1233071F0243028F4213066
:103E6000A1F0223011F514C02630B1F02730C1F096
:103E70002430D9F404C0809180008F7703C08091F2
:103E800080008F7D8093800010C084B58F7702C042
:103E900084B58F7D84BD09C08091B0008F7703C049
:103EA0008091B0008F7D8093B000E32FF0E0EE0FA3
:103EB000FF1FE150FC4FA591B4912FB7F8946623F2
:103EC00021F48C919095892302C08C91892B8C933D
:103ED0002FBF0895682F70E0CB01855C9B4FFC01DC
:103EE0002491CB01895D9B4FFC0144916D5E7B4F1A
:103EF000FB019491992319F420E030E03CC0222387
:103F000051F1233071F0243028F42130A1F0223017
:103F100011F514C02630B1F02730C1F02430D9F4A7
:103F200004C0809180008F7703C0809180008F7DD6
:103F30008093800010C084B58F7702C084B58F7DD8
:103F400084BD09C08091B0008F7703C08091B0001C
:103F50008F7D8093B000892F90E0880F991F875F35
:103F60009B4FFC01A591B4918C9120E030E084231B
:103F700011F021E030E0C901089508951F920F92D9
:103F80000FB60F9211242F933F934F938F939F93CC
:103F9000EF93FF938091C00082FD1DC04091C60049
:103FA00020914304309144042F5F3F4F2F733070B2
:103FB00080914504909146042817390771F0E091EB
:103FC0004304F0914404ED5FFB4F4083309344047D
:103FD0002093430402C08091C600FF91EF919F910E
:103FE0008F914F913F912F910F900FBE0F901F9087
:103FF0001895E0919704F0919804E05CFF4F81914F
:10400000919120813181821B930B8F739070892B4A
:1040100011F00E94BD1F08951F920F920FB60F92CC
:1040200011242F933F938F939F93EF93FF932091AE
:104030008704309188048091890490918A0428171C
:10404000390731F48091C1008F7D8093C10014C085
:10405000E0918904F0918A04E95BFB4F2081809113
:10406000890490918A0401968F73907090938A04CA
:10407000809389042093C600FF91EF919F918F91C7
:104080003F912F910F900FBE0F901F901895AF92F8
:10409000BF92DF92EF92FF920F931F93CF93DF9324
:1040A000EC017A018B01DD24403081EE580780E07D
:1040B000680780E0780711F0DD24D39491E0A92E01
:1040C000B12CEC89FD89DD2069F0C50108A002C092
:1040D000880F991F0A94E2F7808360E079E08DE30E
:1040E00090E005C0108260E874E88EE190E0A801DD
:1040F00097010E942925215030404040504056955C
:1041000047953795279580E12030380720F0DD204E
:1041100011F0DD24D6CFE889F9893083EA89FB895B
:10412000208319A2EE89FF89408121E030E0C90196
:104130000C8C02C0880F991F0A94E2F7482B408329
:10414000EE89FF894081C9010D8C02C0880F991F3B
:104150000A94E2F7482B4083EE89FF894081C90128
:104160000E8C02C0880F991F0A94E2F7482B4083F7
:10417000EE89FF8980810F8C02C0220F331F0A94C1
:10418000E2F7209528232083DF91CF911F910F9193
:10419000FF90EF90DF90BF90AF900895DC011C96E8
:1041A000ED91FC911D97E05CFF4F21913191808151
:1041B0009181281B390B2F733070C9010895DC01E0
:1041C0001C96ED91FC911D97E05CFF4F20813181A1
:1041D000E054F040DF01AE5BBF4F8D919C91119791
:1041E0002817390719F42FEF3FEF07C08D919C91E5
:1041F000E80FF91F8081282F30E0C9010895DC0104
:104200001C96ED91FC911D97E05CFF4F2081318160
:10421000E054F040DF01AE5BBF4F8D919C91119750
:104220002817390719F42FEF3FEF10C08D919C919B
:104230001197E80FF91F20818D919C91119701969C
:104240008F73907011969C938E9330E0C9010895FE
:10425000DC0191968C919197882339F05496ED91D9
:10426000FC915597808186FFF9CF91961C92089515
:10427000CF93DF93EC01EE85FF85E05CFF4F20815B
:104280003181E054F0402F5F3F4F2F733070DF01DA
:10429000AE5BBF4F8D919C91119728173907D1F3D1
:1042A000E05CFF4F80819181E054F040E80FF91FFE
:1042B0006083EE85FF85E05CFF4F31832083EE89CC
:1042C000FF89208181E090E00F8C02C0880F991F48
:1042D0000A94E2F7282B208381E089A3EC89FD89E9
:1042E00080818064808381E090E0DF91CF910895A8
:1042F00010928E0410928D0488EE93E0A0E0B0E05E
:1043000080938F0490939004A0939104B0939204AF
:104310008BEF92E090938C0480938B0483E094E085
:10432000909398048093970487E494E090939A0480
:104330008093990485EC90E090939C0480939B0477
:1043400084EC90E090939E0480939D0480EC90E038
:104350009093A00480939F0481EC90E09093A2043A
:104360008093A10482EC90E09093A4048093A30432
:1043700086EC90E09093A6048093A50484E080935B
:10438000A70483E08093A80487E08093A90485E0D4
:104390008093AA0481E08093AB040895CF93DF93C8
:1043A0000E943C1E0E945A1CC9EFDFE10E94701659
:1043B0002097E1F30E94F91FF9CF0E943F2408954E
:1043C0000E94A2230895CF92DF92EF92FF920F9363
:1043D0001F93CF93DF937C016B018A01C0E0D0E093
:1043E0000FC0D6016D916D01D701ED91FC91019047
:1043F000F081E02DC7010995C80FD91F0150104069
:104400000115110571F7CE01DF91CF911F910F9129
:10441000FF90EF90DF90CF900895EF92FF920F936F
:104420001F938C01DC01ED91FC910190F081E02D56
:104430006DE009957C01D801ED91FC910190F0812E
:10444000E02DC8016AE009959C012E0D3F1DC901B0
:104450001F910F91FF90EF900895CF93DF93EC01A0
:104460006115710519F420E030E00FC0DB010D90FB
:104470000020E9F71197A61BB70BE881F9810280AC
:10448000F381E02DAD0109959C01C901DF91CF9128
:1044900008954F925F927F928F929F92AF92BF92B8
:1044A000CF92DF92EF92FF920F931F93DF93CF9300
:1044B000CDB7DEB7A1970FB6F894DEBF0FBECDBF64
:1044C0002C01742ECB01223008F42AE019A231E22B
:1044D000C32ED12CCC0EDD1E822E9924AA24BB24FF
:1044E000672D752FA50194010E94292579018A0164
:1044F000C801B701A50194010E94D724472D461B8E
:104500000894C108D1084A3014F4405D01C0495CE8
:10451000F6014083E114F1040105110521F07E2C20
:104520005F2DC801DDCFC201B6010E942D22A196E8
:104530000FB6F894DEBF0FBECDBFCF91DF911F91B4
:104540000F91FF90EF90DF90CF90BF90AF909F9032
:104550008F907F905F904F900895DC012115310579
:1045600041F4ED91FC910190F081E02D642F0995CB
:1045700008950E9449220895EF92FF920F931F938E
:104580009A017B0100E010E0B801A7010E94AD2272
:104590001F910F91FF90EF900895CF92DF92EF92CD
:1045A000FF920F931F936C017B019A0100E010E0D2
:1045B000B801A7010E94AD228C01C6010E940D2204
:1045C000080F191FC8011F910F91FF90EF90DF9006
:1045D000CF900895EF92FF920F931F939A01E62ECA
:1045E000FF2400E010E0B801A7010E94AD221F9156
:1045F0000F91FF90EF900895CF92DF92EF92FF928C
:104600000F931F936C01E62E9A01FF2400E010E047
:10461000B801A7010E94AD228C01C6010E940D22A3
:10462000080F191FC8011F910F91FF90EF90DF90A5
:10463000CF900895CF92DF92EF92FF920F931F9346
:10464000CF93DF93EC016A017B012115310541F421
:10465000E881F9810190F081E02D642F09951FC058
:104660002A303105D1F477FF17C0E881F981019034
:10467000F081E02D6DE209958C0144275527BA01A0
:104680004C195D096E097F09CE012AE00E9449227A
:104690009801280F391F04C02AE00E9449229C017A
:1046A000C901DF91CF911F910F91FF90EF90DF90A3
:1046B000CF900895EF92FF920F931F937B019A0181
:1046C0000027F7FC0095102FB801A7010E941A23BC
:1046D0001F910F91FF90EF900895CF92DF92EF928C
:1046E000FF920F931F936C017B019A010027F7FC47
:1046F0000095102FB801A7010E941A238C01C60152
:104700000E940D22080F191FC8011F910F91FF90E1
:10471000EF90DF90CF9008950E942D220895EF92A0
:10472000FF920F931F937C010E942D228C01C701E1
:104730000E940D22080F191FC8011F910F91FF90B1
:10474000EF9008950F931F93CF93DF93BC018230B6
:10475000910510F462E070E0E091AF04F091B004D4
:1047600040E050E0A0E0B0E024C080819181861755
:104770009707D0F08617970771F48281938110977D
:1047800029F013969C938E9312972CC09093B004AB
:104790008093AF0427C04115510519F08417950780
:1047A00018F48D01AC01EF01DF01828193819C013E
:1047B000F9013097D1F641155105F9F0CA01861B70
:1047C000970B8430910580F48A819B810115110536
:1047D00021F0F8019383828304C09093B004809306
:1047E000AF04FE01329645C0FE01E80FF91F619348
:1047F00071930297998388833CC08091AD04909116
:10480000AE04892B41F4809192029091930290938F
:10481000AE048093AD0440919402509195024115ED
:10482000510541F44DB75EB780919002909191028D
:10483000481B590B2091AD043091AE042417350765
:10484000B0F4CA01821B930B8617970780F0AB0167
:104850004E5F5F4F8417950750F0420F531F5093E0
:10486000AE044093AD04F9016193719302C0E0E09E
:10487000F0E0CF01DF91CF911F910F910895CF9379
:10488000DF939C01009709F48FC0EC0122971B82F3
:104890001A826091AF047091B0046115710581F4C2
:1048A00088819981820F931F2091AD043091AE04CD
:1048B0002817390739F5D093AE04C093AD0474C0FE
:1048C000DB0140E050E0AC17BD0708F1BB83AA83D1
:1048D000FE0121913191E20FF31FAE17BF0779F46A
:1048E0008D919C911197280F391F2E5F3F4F39836F
:1048F000288312968D919C9113979B838A834115EF
:10490000510571F4D093B004C093AF044DC012961A
:104910008D919C911397AD01009711F0DC01D3CFDD
:10492000DA011396DC93CE931297FA01219131911B
:10493000E20FF31FCE17DF0769F488819981280FF2
:10494000391F2E5F3F4FFA01318320838A819B817B
:1049500093838283E0E0F0E0DB0112968D919C91DD
:104960001397009719F0BC01FD01F6CFAB014E5F24
:104970005F4FDB018D919C91840F951F2091AD04B9
:104980003091AE042817390779F4309729F4109242
:10499000B0041092AF0402C0138212824250504001
:1049A0005093AE044093AD04DF91CF910895629F80
:1049B000D001739FF001829FE00DF11D649FE00D17
:1049C000F11D929FF00D839FF00D749FF00D659F78
:1049D000F00D9927729FB00DE11DF91F639FB00D77
:1049E000E11DF91FBD01CF0111240895991B79E044
:1049F00004C0991F961708F0961B881F7A95C9F76F
:104A000080950895AA1BBB1B51E107C0AA1FBB1FBD
:104A1000A617B70710F0A61BB70B881F991F5A954A
:104A2000A9F780959095BC01CD01089597FB092EBB
:104A300007260AD077FD04D0E5DF06D000201AF45F
:104A4000709561957F4F0895F6F7909581959F4FEA
:104A50000895A1E21A2EAA1BBB1BFD010DC0AA1FBF
:104A6000BB1FEE1FFF1FA217B307E407F50720F0D7
:104A7000A21BB30BE40BF50B661F771F881F991F52
:104A80001A9469F760957095809590959B01AC019B
:104A9000BD01CF01089597FB092E05260ED057FDC5
:104AA00004D0D7DF0AD0001C38F4509540953095DB
:104AB00021953F4F4F4F5F4F0895F6F790958095A2
:104AC000709561957F4F8F4F9F4F0895EE0FFF1F99
:0C4AD0000590F491E02D0994F894FFCFBC
:104ADC004669786564210053746174697374696301
:104AEC007320696E20454550524F4D20657261739D
:104AFC0065200020646F6E65004C617374207374C4
:104B0C00617469736963733A28002D002920666FFC
:104B1C00726D2000464E2020636E74200020200011
:104B2C000D0A42696E642066696E6420737461724A
:104B3C00743A2000204D61786C6576656C5B005D85
:104B4C003D000D0A54696D65733A200042696E642C
:104B5C003D002046636F72723D0020536571756590
:104B6C006E63653A200020456E6400532F4E3D0065
:104B7C004952513D00535441525400543D00505041
:104B8C004D206F75740053425553206F7574004659
:104B9C00694572722100435243210042494E44211F
:104BAC00004653205700523D0020533D0020433D0A
:104BBC000020413D0020526E3D0046636F72723DF5
:104BCC00002453415400746F2066730024524C002F
:104BDC00534F5300496E6974000A03409CB80BB8DC
:104BEC000BB80BB80BB80BB80BB80BB80BB80BB8A1
:104BFC000BB80BB80BB80BB80BB80BB80BB80BB891
:104C0C000BB80BB80BB80BB80BB80BB80B0A01C729
:104C1C00F8C10F2500250025002B002B002B002BA5
:104C2C0000280028002800280028000402018040E9
:104C3C0020102010080402040201804020102000E3
:104C4C000458006348CC000100004D9359A76DBD7A
:104C5C007FD165040201001EC7010100004BD20484
:104C6C008000B10400000102030405060B0C0D0EBC
:104C7C000F101112131418191A1C28292A38023F64
:104C8C00024902660278029502AB02B202B902C076
:104C9C0002C702CE02D502DC02E302FA023B035346
:104CAC00035C0365038A03B203D2030A00090008FC
:104CBC00000700060005000400130012001100009C
:104CCC0000010009000800000000003821E321CE9B
:084CDC0020FF20DF2028210049
:00000001FF
