:100000000C944F020C944C1E0C94791E0C947702A5
:100010000C9477020C9477020C9477020C9477027C
:100020000C9477020C9477020C9477020C9477026C
:100030000C9477020C949F020C9477020C94770234
:100040000C94A61E0C9477020C9407210C94552155
:100050000C9477020C9477020C9477020C9477023C
:100060000C9477020C947702507265737320276D9D
:100070002720746F207374617274204D454E552093
:10008000696E2031302073656300464C415348202F
:100090004552524F522121212043616E277420770F
:1000A0006F726B21004572726F72207265616420FD
:1000B00073657474696E6773210053657474696E37
:1000C000677320726573657420746F206465666160
:1000D000756C7473210046486E3A204D696E20415C
:1000E0007672204D6178000A0D426179636869205B
:1000F000736F66742032303133005258204F706570
:100100006E20457870657274205632204600546F18
:1001100020456E746572204D454E552050726573B2
:100120007320454E544552005479706520526567DE
:1001300020616E6420707265737320454E54455281
:100140002C20747970652056616C756520616E6431
:1001500020707265737320454E5445522028713DBE
:10016000517569743B2073732F736C2F73722F73E7
:10017000613D53746174290052673D56616C2009DA
:10018000436F6D6D656E7473202D2D2D2D2D2D2DCE
:100190002D2D2D2D2D2D2D2D2D2D2D2D2D2D2D2D8F
:1001A000004578656375746520726562696E643FA9
:1001B0002041726520796F75207375726528792FDB
:1001C0006E293F0046536E20496E465320204472EC
:1001D0006F70733A312020203220202033202020DD
:1001E00034202020352020203620202037202020B9
:1001F00038202000525353493A3120202032202009
:10020000203320202034202020352020203620209C
:10021000203720202038204E6F6973653A31202026
:100220002032202020332020203420202035202080
:10023000203620202037202020380046536E2049C9
:100240006E4653204472253A31202032202033203C
:100250002034202035202036202037202038202030
:10026000532F4E3A312020203220202033202020CE
:100270003420202035202020362020203720202028
:10028000380042696E64204E004672657120436FEB
:10029000727200536572766F203135302520737489
:1002A00072656368206E756D2028312D313229000A
:1002B0005374617469737469637320656E61626CF1
:1002C000650031316269742F313063682028313D17
:1002D0007965732C20322F333D4675746162612934
:1002E000004469736372657465206F75747075740A
:1002F00073206D61736B00486F7020463100486F4A
:100300007020463200486F7020463300486F7020DE
:10031000463400486F7020463500486F70204636DE
:1003200000486F7020463700486F70204638004202
:100330006561636F6E204620283235353D646973F0
:1003400061626C652900426561636F6E20506D616A
:100350007820286D5774293A20302D312E323B20D9
:10036000312D323B20322D333B20332D363B203490
:100370002D31323B20352D32353B20362D35303B6B
:1003800020372D31303000426561636F6E20737409
:100390006172742074696D65202873656329005348
:1003A000415720466D696E0053415720466D617874
:1003B0000050504D2F53425553206D6F64652031CE
:1003C00073742050574D2063686E6C2028312D388F
:1003D00029205B345D005253534920747970653A8B
:1003E00020736F756E642830292F6C6576656C28D4
:1003F000312D39393D617665726167652900525347
:100400005349206D6F64653A206C6576656C2830C1
:10041000292F534E20726174696F2831290052537D
:100420005349206F7665722050574D286368616E7E
:100430003A312D31322920302D6E6F74207573655D
:100440000000000000240027002A00000000002512
:100450000028002B000000000023002600290004D3
:10046000040404040404040202020202020303035B
:100470000303030102040810204080010204081055
:100480002001020408102000000007000201000003
:10049000030406000000000000000000C122112437
:1004A0001FBECFEFD8E0DEBFCDBF13E0A0E0B1E0CC
:1004B000EEE6FDE402C005900D92A031B107D9F738
:1004C00014E0A0E1B3E001C01D92AA3BB107E1F73F
:1004D00014E0CEE9D4E004C02297FE010E94B126C8
:1004E000CC39D107C9F70E9417230C94B5260C9478
:1004F0000000FC0188279927E89421912032E9F334
:10050000293010F02E30C8F32B3241F02D3239F45F
:10051000689404C00E949702820F911D219120537C
:100520002A30C0F31EF4909581959F4F08957AE08C
:10053000979F902D879F802D910D112408951F92D4
:100540000F920FB60F9211242F933F934F935F9307
:100550008F939F93AF93BF93EF93FF93809184000A
:10056000909185008097D0F385B1909148028923BE
:1005700085B988B190914902892388B98BB190914E
:100580004A0289238BB980913003882309F47DC006
:100590008091FD038F5F8093FD0390914502981732
:1005A00030F410922103109220031092FD03409129
:1005B000FD034917B1F42091200330912103E0910C
:1005C0001302F0911402CF01805797412817390781
:1005D00018F020E737E147C0CF01821B930B9C0145
:1005E00042C0A42F50912E03523011F0E42F04C0CA
:1005F000E0919702E40FE150FF27E7FDF095EE0F41
:10060000FF1FE35DFD4F20813181245230408091F6
:10061000200390912103820F931F909321038093D5
:100620002003552369F0513049F44C5F80919702C3
:10063000A42FA81B4450A3301CF415C0A42FAD5FF9
:10064000AC3088F4BB27A7FDB095FD01EE0FFF1F6E
:10065000E55BFD4F0190F081E02D8081AD59BD4FEC
:100660009C91892B808380912E03813091F44B30B3
:1006700080F4289A80918400909185008451924062
:10068000C8F3245F3140289804C0209113023091B0
:1006900014028091130290911402821B930B909389
:1006A000850080938400FF91EF91BF91AF919F915E
:1006B0008F915F914F913F912F910F900FBE0F90AF
:1006C0001F901895CF93DF9380918102882379F151
:1006D000CBE4D2E020E030E0482F50E0CA01022E07
:1006E00002C0959587950A94E2F780FF1AC0888129
:1006F00099818832910511F4E1E005C08B9711F4DE
:10070000E2E001C0E0E0F0E0E85BFD4FD901A15973
:10071000BD4F80819C91892B8083F901ED59FD4F5C
:1007200010822F5F3F4F229628303105B9F6DF91B6
:10073000CF9108951F939BE0899F802D1124182F3E
:100740001695169516958770A82FB0E048E050E0F2
:100750004A1B5B0BE12FF0E0EB55FC4F21E030E052
:10076000042E02C0220F331F0A94E2F7215030E01A
:1007700026233723082E02C0220F331F0A94E2F7E4
:100780009081922B90831F5F02C0769567954A9562
:10079000E2F7E12FF0E0EB55FC4F9081962B908330
:1007A000863040F01F5FE12FF0E0EB55FC4F808179
:1007B000872B80831F9108954F925F927F928F9233
:1007C0009F92AF92BF92CF92DF92EF92FF920F93E0
:1007D0001F93CF93DF937C0120917E02822F6AE0EA
:1007E0000E943F26792E7A94822F0E943F26A82EBF
:1007F000AA94B090800221E02B1508F49FC0E70175
:100800009F858D85D701E5E14E2EE2E05E2EE0E08A
:10081000F0E0C82EDD2472E0872E912C092F10E025
:1008200012968C911297482F50E0440F551F440F99
:10083000551F6E2FE83030F52E2FE701898190E0AB
:100840000E2E02C0959587950A94E2F780FD5460BC
:10085000673061F0C401022E02C0880F991F0A940C
:10086000E2F780239123892B09F04260BB20D1F16C
:10087000C60102C0959587952A95E2F780FF32C0A0
:10088000416030C0440F551FBB2061F1E83041F496
:10089000E7018C8590E087709070482B592B22C01F
:1008A000E93019F040E050E01DC0E7018C8590E090
:1008B00023E0959587952A95E1F79C012770307084
:1008C000422B532B959587959595879582709070BF
:1008D0002091230230912402822B932B90932402A7
:1008E00080932302671511F06A15C1F4CA01805084
:1008F00094409C0135952795280F391F7BEF2035B3
:10090000370714F420E53BEFC90124E0813B92074F
:1009100014F080EB94E0AC0140505C4F4854584FC9
:10092000E201499359932E0131961196EC30F1056D
:1009300009F076CFF701378531708BC080912E0397
:100940008230B9F4F3E0BF1641F4E5EAF3E0119226
:1009500023E0E33BF207D9F70CC0D701E5EAF3E067
:1009600011968C9111978193119673E0E33BF707F1
:10097000B9F7DD24D394CC24C39400E0E9E09E2EA3
:100980005DC0440F551FF701EC0DF11D808190E013
:100990002D2D30E082239323892B11F0C42BD52BEE
:1009A00080E8D81621F4C394DD24D39401C0DD0C73
:1009B0006F5F6B3031F793E0B91611F0102F0AC05A
:1009C000192D101B80912E03823021F4812FBE013E
:1009D0000E949A03171511F01A15C1F4CE01805028
:1009E00094409C0135952795280F391FEBEF203552
:1009F0003E0714F420E53BEFB901F4E0213B3F074B
:100A000014F060EB74E0EB01C050DC4FE12FF0E03C
:100A1000EE0FFF1FEB5EFD4FCE01880F991F880F71
:100A2000991F8C0F9D1F9595879595958795805259
:100A3000994F918380830F5F0A3031F0C0E0D0E09E
:100A400060E041E050E09FCFEC0CF11CE701388101
:100A5000307880918102882389F1ABE4B2E04FE6DF
:100A600052E025E1E22E22E0F22E61E0082F10E0B4
:100A7000862F90E080239123892B99F0F7018081C4
:100A80009181ED91FC911197EA012881895B9B404E
:100A900020F08081822B808304C0808120952823D0
:100AA000208312964F5F5F4F82E090E0E80EF91EC0
:100AB00092E0AB35B90711F0660FDACF832FDF91E3
:100AC000CF911F910F91FF90EF90DF90CF90BF904B
:100AD000AF909F908F907F905F904F9008959C0172
:100AE000809180028230E0F0F90190E05CE8B90189
:100AF000615F7F4F8181982740E0892F90E09C01C2
:100B00003595279580FF03C0952F922701C0922F1E
:100B10004F5F483091F73196E617F70759F71BC03A
:100B2000F90190E05CE8B901635F7F4F828198270B
:100B300040E0892F90E09C013595279580FF03C008
:100B4000952F922701C0922F4F5F483091F7319631
:100B5000E617F70759F7892F0895409A2D9840987E
:100B600098E010C087FF07C02D9800002B9A000066
:100B70002D9A000006C02D9800002B9800002D9A99
:100B80000000880F915070F72D9808958F770E947C
:100B9000AD0508952D9898E010C087FF07C02D98E7
:100BA00000002B9A00002D9A000006C02D9800002E
:100BB0002B9800002D9A0000880F915070F72D9807
:100BC00008951F93162F80680E94AD05812F0E9403
:100BD000CA05409A1F9108951F9380912F038F5F3C
:100BE00080932F03883010F010922F03E0912F0391
:100BF000F0E0EE57FD4F108189E7612F0E94E1057B
:100C000080919502181730F080919602811710F0AC
:100C1000479A01C047981F9108952D9880E090E071
:100C2000880F2D9A00001C9981602D9800009F5F0D
:100C30009830B1F708950E94C6050E940D06409AAB
:100C4000089583E00E941B068093B30384E00E9412
:100C50001B068093B40386E060E00E94E10587E014
:100C600061E00E94E10560917D02662311F089E058
:100C700002C089E067EC0E94E1058AE065E00E941D
:100C8000E1058BE062E10E94E1058CE065E10E94F4
:100C9000E1058DE06BE10E94E1058EE060E00E94DD
:100CA000E1058FE163E00E94E1058EE16AE00E94C8
:100CB000E10582E160E60E94E10583E168EF0E94C0
:100CC000E1058FE060E80E94E1058DE160E40E94AB
:100CD000E1058CE166E20E94E10580E264E40E94A5
:100CE000E10581E260E00E94E10582E262EF0E949C
:100CF000E10583E26CE70E94E10584E266E00E9480
:100D0000E10585E26DE70E94E1058AE26EE10E945D
:100D1000E10580E36CEA0E94E10582E36CE80E9451
:100D2000E10583E36AE00E94E10584E364E00E9458
:100D3000E10585E362E20E94E10586E36DE20E943F
:100D4000E10587E364ED0E94E10588E360E00E942D
:100D5000E10589E360E00E94E1058EE360E10E9425
:100D6000E1058DE66FE00E94E1058EE66CE30E94EE
:100D7000E1058FE66FE90E94E10589E660E60E94E1
:100D8000E10580E76EE20E94E10589E760E00E94EC
:100D9000E1058AE766E00E94E10581E763E20E94DF
:100DA000E10582E76EE00E94E10585E763E50E94C8
:100DB000E10586E76CE40E94E10587E760EE0E94AA
:100DC000E105089587E061E00E94E1058EE764E2B5
:100DD0000E94E10588E063E00E94E10588E060E0B0
:100DE0000E94E10587E065E00E94E10585E062E0A0
:100DF0000E94E10583E00E941B068093B30384E018
:100E00000E941B068093B403089583E00E941B0692
:100E10008093B30384E00E941B068093B40387E0B1
:100E200061E00E94E1050895482F8091F3039091BD
:100E3000F403481721F49C5E9093F40308952091E5
:100E4000F5033091F603290F311D3093F6032093FB
:100E5000F50301C078948091840090918500B901D8
:100E6000681B790B62327105A8F7F89480918400B1
:100E70009091850028173907C9F7442311F02A9863
:100E800001C02A9A4093F30384E18093F403089508
:100E9000EF92FF920F931F93CF93DF93E82E80E0A2
:100EA0000E941407FF2410E001E0CE2DD0E0802F37
:100EB00090E08C239D23892B29F081E00E94140768
:100EC0001F5F03C080E00E941407F39488E0F816C7
:100ED00011F0000FECCF812F81700E94140781E088
:100EE0000E94140781E00E941407DF91CF911F91A7
:100EF0000F91FF90EF900895DF92EF92FF920F9382
:100F00001F93CF93DF9380912E03823009F079C035
:100F10008FE08093DA0390914A03992311F018E04F
:100F200001C010E01093F1031092F203809180024F
:100F30008230A0F0992391F4E5EAF3E0ABEDB3E061
:100F400081918D9383E0E33BF807D1F71091B203D1
:100F50001F734AE0FEE0DF2E00E404C040E0DD2421
:100F6000D39401E08091A003E82EFF24E3E0EE0C8F
:100F7000FF1CEA95E1F7C0912C03D0912D0373E09B
:100F8000CC0FDD1F7A95E1F74C30A0F4E42FF0E0B0
:100F9000EE0FFF1FE35DFD4F80819181805E9640E3
:100FA000880F991F880F991F65E070E00E944B26FB
:100FB000CB0107C04D3011F4C70103C04E3019F406
:100FC000CE0120E00AC04F3019F480E096E0F9CF5E
:100FD00080E090E0F6CF9695879580FD102B003845
:100FE00049F4ED2DF0E0E652FC4F1083D39410E06D
:100FF00001E001C0000F2F5F2B3069F74F5F4031D8
:1010000018F2DF91CF911F910F91FF90EF90DF9039
:10101000089520E030E0F894F901E35DFD4FD90137
:10102000AB5EBD4F8D919C919183808378942E5FB0
:101030003F4F2831310579F7E0919402EE23A1F07A
:10104000F894F0E0EE0FFF1FE55DFD4F80912C035B
:1010500090912D0386509F4FA3E0880F991FAA956A
:10106000E1F791838083789481E0809330030E943C
:101070007C070895EF92FF920F931F93CF93DF9316
:101080008091D4038093B90390914D039093BA0358
:1010900080914A03882389F480913003882369F082
:1010A000CBEBD3E029E733E010EEE12E1FEFF12E7A
:1010B000E20EF31EF901870104C090689093BA0311
:1010C000EFCFB8978081B8968883188A1886608198
:1010D000662339F0D8018D919C9170E00E944B26D7
:1010E00068876085662349F0D80150968D919C9160
:1010F000519770E00E944B26688B219631960E5FC7
:101100001F4FB3E0C33CDB07E1F6F701118A108AF9
:10111000D7011D921D927D01F9011082108628527F
:101120003040D9011C92275D3F4FB9E6EB16B3E082
:10113000FB0659F710924E0310924D031092D30301
:10114000DF91CF911F910F91FF90EF9008950F9332
:101150001F93CF93DF9305E112E0C0E4D0E0F801E4
:1011600041818EEF93E0BE010E941D1E21968EEFFD
:1011700093E0BE01F80140810E941D1E0E5F1F4FCB
:101180002196F2E00D321F0751F7DF91CF911F91A9
:101190000F910895462FBC016F5E7F4F8EEF93E055
:1011A0000E941D1E0895DF92EF92FF920F931F93EE
:1011B0008C01D62E472F8EEFE82E83E0F82EC70144
:1011C000B8010E941D1E0F5F1F4FC701B8014D2DB2
:1011D0000E941D1E1F910F91FF90EF90DF900895C8
:1011E000EF92FF920F931F93CF93DF930BE712E0E1
:1011F000EE24FF24C0E0D0E0CE01F80160810E941F
:10120000CA08F80181918F01E80EF11C2196C730C0
:10121000D10591F7C2E8D2E00BE010E0C801688187
:101220000E94CA088991E80EF11C0F5F1F4FF2E07F
:10123000CA38DF0799F7CAE8D2E003E110E0C80135
:1012400068810E94CA088991E80EF11C0F5F1F4F48
:1012500082E0C039D80799F789E190E06091950262
:101260000E94CA0880919502E701C80FD11D8AE14A
:1012700090E0609196020E94CA0880919602C80F81
:10128000D11D8CE190E0609197020E94CA08809184
:101290009702C80FD11D02E912E098E2E92EF12C65
:1012A000C701F80160810E94CA08F80181918F018D
:1012B000C80FD11D0894E11CF11CF2E005391F078D
:1012C00079F78AE090E0BE010E94D308DF91CF91C8
:1012D0001F910F91FF90EF900895AF92BF92CF9220
:1012E000DF92EF92FF921F93CF93DF9345E1C42EDD
:1012F00042E0D42E30E4E32EF12C28EBA22E2BE09A
:10130000B22E8EEF93E0B7010E94161E182FB70180
:101310006F5F7F4F8EEF93E00E94161ED12FC0E0CB
:101320009E01280F311DC901F601318320838C569F
:1013300097408959984018F0F601B182A08222E0C6
:1013400030E0E20EF31EC20ED31E38E5E316F104C0
:10135000C1F6DF91CF911F91FF90EF90DF90CF907A
:10136000BF90AF900895BC016F5E7F4F8EEF93E00A
:101370000E94161E0895DF92EF92FF920F931F9323
:101380008C015EEFE52E53E0F52EC701B8010E94F7
:10139000161ED82E0F5F1F4FC701B8010E94161EE0
:1013A0003D2D20E0280F311DC9011F910F91FF90A5
:1013B000EF90DF9008950F931F93CF93DF9300E09A
:1013C00010E0C0E0D0E0CE010E94B309FE01E55874
:1013D000FD4F8083080F111D2196C730D10599F765
:1013E000CBE0D0E0CE010E94B309FE01E958FD4FE9
:1013F0008083080F111D2196C331D10599F7C3E1F0
:10140000D0E0CE010E94B309FE01E958FD4F808370
:10141000080F111D2196C931D10599F780918B02D2
:10142000883008F057C0863008F055C0823010F47C
:1014300091E002C091E0891B80938C02981708F418
:10144000891B80938D0210928E0289E190E00E94A8
:10145000B30980939502080F111D8AE190E00E9464
:10146000B30980939602080F111D8CE190E00E9451
:10147000B309982F8150883020F490939702090F78
:10148000111DC8E2D0E0CE010E94B309FE01E65969
:10149000FD4F8083080F111D2196CB32D10599F79E
:1014A0008AE290E00E94B3098093940281508C30CC
:1014B00010F0109294028AE090E00E94BB0920E0B4
:1014C0008017910709F421E0822FDF91CF911F91BE
:1014D0000F91089587E092E0AECF0F931F93CF93C3
:1014E000DF9320911202222379F1E0E0F0E000E0A6
:1014F00010E08491080F111D319680E4E030F80768
:10150000C1F7922F80E020911102EC01C20FD11D92
:1015100086E090E00E94BB09C817D90761F086E019
:1015200090E0BE010E94D30888E090E0B8010E94DC
:10153000D30881E00AC088E090E00E94BB098017D0
:10154000910711F08FEF01C080E0DF91CF911F91E3
:101550000F9108950F931F93E2E0F0E081E28093F2
:1015600057008491843931F488EF91E090937802A8
:10157000809377028EEF93E06CE070E00E94161E7D
:10158000082F10E010937A02009379028EEF93E017
:101590006DE070E00E94161E382F20E0200F311FF2
:1015A00030937A02209379022835310538F0809102
:1015B00077029091780228173907C0F088E590E00B
:1015C00090937A02809379028EEF93E06CE070E062
:1015D00048E50E941D1E40917A028EEF93E06DE077
:1015E00070E00E941D1E1092D40316C0C901CE9750
:1015F0006AE170E00E944B26882331F0281B3109F4
:1016000030937A02209379028EEF93E06EE070E0DF
:101610000E94161E8093D4038091D4038F5F809321
:10162000D403843610F01092D403A9E5B3E0FD0191
:10163000B09651961C921E9250971D921D92108248
:101640001086B8971082B99683E0A936B80789F753
:1016500010924E0310924D031092500310924F03BC
:101660008AE18093D3030E94EE1E6093D5037093AA
:10167000D6038093D7039093D8031F910F910895B9
:1016800080914C03813019F482E080934C03809167
:101690004C03833069F484E080934C030E94EE1E77
:1016A0006093A1037093A2038093A3039093A40378
:1016B000089580912E03823011F0E0E015C00E9461
:1016C000FC1EE0E02091B5033091B6034091B703D2
:1016D0005091B803621B730B840B950B63567941D1
:1016E0008040904008F0E1E08E2F0895EF92FF9245
:1016F0000F931F9380917F02882309F496C00E9464
:10170000590B882309F091C08AC0F0E060917902FA
:1017100070917A026E0F7F1FE754FC4F8EEF93E0BB
:1017200040810E941D1E8091D3038F5F8093D3035D
:101730008A3109F04CC08091790290917A024A96E0
:1017400090937A0280937902209177023091780207
:1017500082179307E0F188E590E090937A028093F6
:10176000790235C0EA3139F440917A028EEF93E084
:101770006DE070E008C0EB3171F48EEF93E06CE047
:1017800070E0409179020E941D1E8091D3038F5F0B
:101790008093D3031CC0EC31D1F48DE18093D3034B
:1017A00080914F0390915003892B41F48EEF93E089
:1017B0006EE070E04091D4030E941D1E80914F03A3
:1017C0009091500301969093500380934F03209182
:1017D00031033091320340913303509134038091AF
:1017E000D5039091D603A091D703B091D803790186
:1017F0008A01E81AF90A0A0B1B0BD801C7018056A7
:101800009A4EA040B04088F02093D5033093D60381
:101810004093D7035093D8030E943A0806C0E09142
:10182000D303EA3108F09ECF70CF1F910F91FF9044
:10183000EF9008950F931F93CF93DF9380912E0322
:10184000823009F057C080913003882309F452C0D8
:101850000E94FC1EAB01BC018091B5039091B603C0
:10186000A091B703B091B8038A019B01081B190B23
:101870002A0B3B0BD901C80183569941A040B040C7
:10188000C8F12091840030918500809113029091DD
:1018900014028F5F98418217930760F11EC08091F8
:1018A000F10384608093F1031092F3031092F40328
:1018B000F89480918400909185009093F603809332
:1018C000F5032A9ACAEDD3E089910E94480723E0E4
:1018D000C33FD207C9F778940DC04093B503509326
:1018E000B6036093B7037093B80380914B038823CA
:1018F000B1F6DACFDF91CF911F910F910895EF925A
:10190000FF920F931F938C010E94FC1E780100E050
:1019100010E0E60EF71E081F191F02C00E941A0CE5
:101920000E94FC1E6E157F0580079107B8F31F917A
:101930000F91FF90EF900895EF92FF920F931F93F6
:10194000CF93DF93EB01F42E9C01442737FD4095A4
:10195000542F60E271EA87E090E00E9494268901AA
:101960002530310514F405E010E087E0F82288E026
:10197000F82A8DE66F2D0E94E1058EE064E00E945A
:10198000E10561E070E080E090E00E94221F8EE0BF
:1019900060E00E94E105A895BE01882777FD80954B
:1019A000982F20E930ED43E050E00E942026980176
:1019B000442737FD4095542F0E9494267901C0E0BA
:1019C000D0E009C02B9AC8010E947F0C2B98C80157
:1019D0000E947F0C2196CE15DF05A0F3DF91CF91F9
:1019E0001F910F91FF90EF90089583E00E941B06D6
:1019F0008093B30384E00E941B068093B40386E0C7
:101A000060E00E94E10587E061E00E94E10589E075
:101A1000609147020E94E1058AE065E00E94E105CD
:101A20008BE062E10E94E1058CE065E10E94E10546
:101A30008DE06AE00E94E1058EE060E00E94E10531
:101A400080E76CE20E94E10580E360E00E94E1052E
:101A500089E760918A020E94E1058AE766E00E94B8
:101A6000E10581E762E10E94E10582E762E00E9410
:101A7000E10583E760E00E94E10584E760E00E9401
:101A8000E105479860918B02677068608DE60E945F
:101A9000E1056AE070E080E090E00E94221F87E0AC
:101AA00069E00E94E10588EB91E061E070E040911F
:101AB0008B020E949C0C8DE591E061E070E040910A
:101AC0008C020E949C0C85E091E061E070E0409106
:101AD0008D020E949C0C8FEA90E061E070E04091E2
:101AE0008E020E949C0C87E061E00E94E10508954F
:101AF0000E94050762E370E080E090E00E94221FF0
:101B00000E94E20600000895CF92DF92EF92FF92CA
:101B10000F931F93CF93DF93982FEB01D42EC22EF8
:101B2000A89589E7692F0E94E105CC2021F08DE17D
:101B300060E40E94E1050E94780D0E94EE1E7B0188
:101B40008C01CE01A0E0B0E0E80EF91E0A1F1B1FB9
:101B500083E080934C0307C00E94EE1EE616F70652
:101B60000807190720F080914C038330A9F3809176
:101B70004C03843009F07AC08FE70E94C605C0E1AB
:101B8000D3E00E940D06899383E0C032D807C9F7DD
:101B90000E94E2068091F703882329F0CE01409746
:101BA0000E946F053EC0FE013E9790E05CE8808198
:101BB000982740E0892F90E09C013595279580FF7C
:101BC00003C0952F922701C0922F4F5F483091F7A5
:101BD000319683E0EF31F80751F7992321F4809192
:101BE000800281701CC03E9790E05CE8808198275D
:101BF00040E0892F90E09C013595279580FF03C038
:101C0000952F922701C0922F4F5F483091F7319660
:101C100083E0E032F80751F7992341F582E08093A1
:101C2000800281E08093F703DD2021F08091100392
:101C3000D816E1F4CC20C1F08BE20E941B06209163
:101C4000F9033091FA03482F50E0813810F020500A
:101C50003140240F351F3093FA032093F90380910C
:101C6000F8038F5F8093F80381E001C080E0DF918B
:101C7000CF911F910F91FF90EF90DF90CF9008953B
:101C80001F9380917D02882309F054C084E994E079
:101C90000E941722181619060CF04CC084E994E033
:101CA0000E9448228D30910591F48091900280939A
:101CB0007D02809347020E94F00884E994E060E08E
:101CC00071E00E94D8240E94210681E034C08E3346
:101CD000910531F08E32910519F08E3E910521F477
:101CE000809190028F5F0CC08C33910531F08C3263
:101CF000910519F0813A9105E9F4809190028150A3
:101D00008093900280919002882319F48FEF809342
:101D100090021091900289E0612F0E94E10584E910
:101D200094E0612F4AE050E00E94452480919002A7
:101D30008093470280E01F91089584E994E00E9417
:101D400017221816190614F020E00CC084E994E05C
:101D50000E9448228D36910521F020E08D349105B6
:101D600009F421E0822F0895FF920F931F93809131
:101D7000310390913203A0913303B0913403209149
:101D80009C0330919D0340919E0350919F03821BC1
:101D9000930BA40BB50B4497A105B10508F446C0FD
:101DA00084E994E00E941722082F10E0FF24F394A6
:101DB0003BC084E994E00E944822982F80919903C7
:101DC000882359F4963179F590938903F092990319
:101DD00010929B031092910226C0E82FF0E0E75783
:101DE000FC4F90838F5F809399038031E0F01092D5
:101DF000990389E893E00E946F058823A1F48091FC
:101E0000310390913203A0913303B0913403809356
:101E10009C0390939D03A0939E03B0939F0381E046
:101E200080939B0303C01F5F10171CF21F910F913B
:101E3000FF9008951F93182F06C084E994E060E294
:101E40000E94812211501123C1F71F9108951F9301
:101E500094E6899FC00111246EEE70E00E945F2617
:101E6000162F643610F013E605C06A3018F481E0CE
:101E70000E941A0F84E994E0612F4AE050E00E942A
:101E8000332481E00E941A0F1F9108951F93182F89
:101E90008A3010F482E003C0843618F481E00E9496
:101EA0001A0F84E994E0612F4AE050E00E94332445
:101EB00081E00E941A0F1F910895982F8091D903F5
:101EC00081119695892F0E94460F0895CF93DF9335
:101ED00084E994E067E071E00E94D524C8E5D0E091
:101EE00012C08EEF93E0BE014FEF0E941D1ECE0187
:101EF0008F779070892B29F484E994E06EE20E9438
:101F00008122A89521968091770290917802C81736
:101F1000D90738F388E590E090937A0280937902AC
:101F20001092D4038EEF93E06CE070E048E50E94DD
:101F30001D1E40917A028EEF93E06DE070E00E94EA
:101F40001D1E8EEF93E06EE070E04091D4030E947E
:101F50001D1E0E94AA0A84E994E063E271E00E94D7
:101F6000D824DF91CF9108951F93CF93DF93EC0195
:101F7000162FFE0121966491662329F084E994E0EE
:101F80000E948122F6CF112321F084E994E00E947F
:101F90005623DF91CF911F9108955F926F927F92A8
:101FA0008F929F92AF92BF92CF92DF92EF92FF9269
:101FB0000F931F93CF93DF93833719F020E083357E
:101FC00009F421E0822E8C3619F090E08C3409F46B
:101FD00091E0592E823719F0BB24823519F4BB24C5
:101FE000B39402C0843619F06624843411F4662454
:101FF00063941092D9038A3518F481E08093D90351
:10200000222341F4992331F4BB2021F488248394C2
:102010005524539484E994E069E271E00E94D52448
:1020200084E994E068E570E04AE050E00E94A3246F
:1020300084E994E06AE371E00E94D524609177021C
:102040007091780284E994E04AE050E00E9405240F
:1020500084E994E06CE371E00E94D52460917902F8
:1020600070917A0284E994E04AE050E00E941624DC
:1020700084E994E064E471E00E94D524882029F08A
:1020800084EC91E060E00E94B40FBB2019F08BE378
:1020900092E004C0552031F084EF91E061E00E94AD
:1020A000B40F04C084E994E00E945623C0917902E1
:1020B000D0917A02782C770C83E0780E9924FF2453
:1020C0008E010F5F1F4F8EEF93E0BE010E94161E20
:1020D000A82E84E68A1520F4662011F46A96AFC013
:1020E000AF1099248A2D0E94460F9394892D0E9447
:1020F000460F882019F4BB2009F440C078010894E9
:10210000E11CF11C8EEF93E0B8010E94161E182FFF
:102110008F770E94460F81E00E941A0F812F881F3F
:102120008827881F0E94460F872D0E941A0F88203B
:1021300089F0B7018E01065F1F4FEB0121968EEFEC
:1021400093E00E94161E0E94460FC017D10799F017
:10215000BE01F3CFB7018E01065F1F4FEB01219641
:102160008EEF93E00E94161E0E94270FC017D10722
:1021700011F0BE01F3CFE701289602C0E8012996CD
:10218000552019F4BB2009F453C083E00E941A0FB4
:10219000882019F081E00E941A0FBB2009F18E01FE
:1021A000E8E0CE2ED12CCC0EDD1E8EEF93E0B801F0
:1021B0000E94161EF82E085F1F4F8EEF93E0B801A5
:1021C0000E94161E07501040F81610F480E002C05E
:1021D000F81A8F2D0E945D0F0C151D0531F728C0D0
:1021E000BE018E01085F1F4F7B010894E11CF11CAA
:1021F0008EEF93E00E94161E0E945D0FE016F1061E
:1022000011F0B701F1CF84E00E941A0FB801609677
:102210008B010F5F1F4F8EEF93E00E94161E0E94EE
:102220005D0FB8010C171D0799F7E701289601C04B
:10223000609684E994E00E945623A895FA2C809138
:10224000770290917802C817D90710F0C8E5D0E05E
:102250008091790290917A02C817D90709F030CF9E
:10226000DF91CF911F910F91FF90EF90DF90CF9072
:10227000BF90AF909F908F907F906F905F900895E8
:1022800087EE90E061E00E94B40F8AEF90E060E09A
:102290000E94B40F84E994E0609111024AE050E09A
:1022A0000E9445240895FF920F931F93CF93DF93CD
:1022B00088E791E060E00E94B40F88E091E060E080
:1022C0000E94B40F84E994E0609111024AE050E06A
:1022D0000E944524FF2401E010E0CF2DD0E0FE0154
:1022E000E256FD4F808190E08017910729F584E93F
:1022F00094E0B8014AE050E00E94A32484E994E00D
:102300006DE30E948122C8010E94B309682F84E90D
:1023100094E04AE050E00E94332484E994E069E0CC
:102320000E948122CC0FDD1FCB54DD4F8881998123
:1023300061E00E94B40FF3940F5F1F4F0B32110541
:1023400061F6DF91CF911F910F91FF900895AF92A9
:10235000BF92CF92DF92EF92FF920F931F93CF9392
:10236000DF935C0101960E9479029C0101978E3FE8
:10237000910510F010E01EC0122F82E090E0F501F0
:10238000E80FF91FE081EE23A9F00196ED3279F410
:102390008A0D9B1D0E9479029C01812F90E082177B
:1023A000930740F42F3F310528F4C22E05C08A3030
:1023B000910529F72EEFC22E0E9421060E94780D6A
:1023C000479886ED90E061E00E94B40FE12EAEC028
:1023D00089E76E2D0E94E1058DEE92E00E947B1F41
:1023E0000FEFFF24C0E0D0E010E083E690E00E9411
:1023F0007B1F86E20E941B06C80FD11D801708F4C0
:10240000082FF81608F4F82E1F5F173C71F789E0C3
:102410008E1538F084E994E06DE471E00E94D524D3
:1024200008C0E3E6EE1528F084E994E060E20E943B
:10243000812284E994E06E2D4AE050E00E9433242A
:10244000E2E8F2E06AE380818E1509F463E23196F6
:1024500082E0EA38F807B9F784E994E00E94812223
:1024600084E994E060E20E948122802F0E94460F5E
:10247000CE0167EC70E00E944B26162F862F0E943B
:10248000460F8F2D0E94460FF50180818E3409F092
:1024900047C00A3010F4DD2408C0083418F09DE36A
:1024A000D92E03C086EFD82ED00EF9E0FF1510F01C
:1024B00000E007C087E48F1510F40DE302C00F2D74
:1024C0000A501A3010F4FF2408C0183418F0BDE385
:1024D000FB2E03C0A6EFFA2EF10E10E01F1521F41B
:1024E00084E994E06AE217C01D1521F484E994E0C0
:1024F0006CE311C0101721F484E994E06EE30BC083
:10250000D11630F4101720F484E994E06EE203C091
:1025100084E994E060E20E9481221F5F0117F0F6D7
:1025200084E994E00E945623A895E394CE1408F021
:102530004FCFDF91CF911F910F91FF90EF90DF90E0
:10254000CF90BF90AF900895EF92FF920F931F939B
:10255000CF93DF937C01FC01108200E010E084E95E
:1025600094E00E94172218161906CCF584E994E02D
:102570000E942822469739F481E7F701808311826F
:102580001092910234C084E994E00E944822EC0148
:102590001816190654F584E994E06C2F0E948122E4
:1025A000CD30D10519F0CA30D10529F484E994E081
:1025B0000E9456231CC0C830D10531F40115110505
:1025C00071F201501040CBCFF701E00FF11FC08333
:1025D00011820A3011054CF40F5F1F4F06C061E0F5
:1025E00070E080E090E00E94221FA895B8CFDF91B4
:1025F000CF911F910F91FF90EF9008950F931F932C
:10260000CF93DF93873008F5182F110FC12FD0E03B
:10261000FE01EE0FFF1FED51FD4F0081802F60E0A6
:102620000E942020802F61E00E945F20183079F402
:1026300087EC90E00E947B1F802F0E94B320892BA3
:10264000E9F0802F61E00E94202080E018C0CC0FCC
:10265000DD1FCB51DD4F1881812F61E00E945F208B
:1026600087EC90E00E947B1F802F0E94B32001978F
:1026700041F7812F60E00E945F20DACF81E0DF9197
:10268000CF911F910F9108952F923F924F925F9299
:102690006F927F928F929F92AF92BF92CF92DF9272
:1026A000EF92FF920F931F93DF93CF93CDB7DEB7D7
:1026B00062970FB6F894DEBF0FBECDBF80E091E009
:1026C0000E942923988B8F8785E00E94FE121B862B
:1026D000882311F481E08B877894AF85B889A15065
:1026E000BF4FBA8BA98B1092F7031092F803109288
:1026F000FA031092F90380917D028A5A8D3318F003
:1027000087EC80937D020E9421060E94780D4798F5
:102710008DE160E00E94E1050E94E206BB85BB23DB
:1027200031F084E994E060E571E00E94D524EF8502
:10273000F889FA87E987119289899A89E817F90750
:10274000D1F70E94EE1E5B016C018FE19EE4A0E0D8
:10275000B0E0A80EB91ECA1EDB1E66241C86A89512
:102760000F851889FF249924EE24D8018C918A3F83
:10277000A8F489E76F2D0E94E10589E892E00E94A4
:102780007B1F86E20E941B06982FF8018081891723
:1027900008F49083E91610F49F2CE92EF3940F5F50
:1027A0001F4FFFEFFF1609F788B188B9662009F5BA
:1027B0008B858823D1F084E994E064E671E00E947F
:1027C000D52484E994E0692D4AE050E00E94332446
:1027D00084E994E06FE671E00E94D52484E994E0F6
:1027E0006E2D4AE050E00E94452495E99E1528F0A0
:1027F0007ACFA5E9AE1508F0B2CF892D63E071E07C
:102800004C8520E00E94840D8823E1F0B0911003F4
:10281000BC87EB85EE2361F084E994E0692D4AE002
:1028200050E00E94332484E994E060E20E94812217
:10283000E1E0F0E0EC0FFD1FE60DF11D90826394E6
:1028400088B188B9EF85F889E90DF11D8FEF808394
:10285000662009F448CF0E94EE1EA616B706C806E9
:10286000D90660F4862D8150823060F094E06916BC
:1028700049F0A8E06A1609F036CF04C0B7E0B615F3
:1028800008F06DCF0E94EE1E4B015C018AE09AE1D8
:10289000A0E0B0E0880E991EAA1EBB1E79809B8521
:1028A000992331F084E994E062E771E00E94D52435
:1028B00072E0C72ED12CCC0EDD1E16014F84588835
:1028C000A1E0AE871D8660C00E94EE1E86169706A8
:1028D000A806B90608F407CF872D63E071E04C85A0
:1028E00021E00E94840D882379F30E94EE1E7B0173
:1028F0008C01F101808167E572E04C8521E00E9446
:10290000840D8823C1F10E94EE1E28EF3FEF4FEFA8
:102910005FEF2E193F09400B510B260F371F481F41
:10292000591F65E056954795379527956A95D1F7D4
:10293000622F283008F06850EF85F88990E0819187
:10294000861709F4ACCF9F5F8E859817C0F3D2012C
:1029500011966C93BB85BB2359F084E994E04AE05F
:1029600050E00E94332484E994E060E20E948122D6
:10297000ED85EF5FED87FE85FF5FFE870894211CE4
:10298000311C0894411C511C8E85861508F49CCF7F
:102990009B85992321F084E994E00E94562370924C
:1029A0008202A1E06A1641F4E3E8F2E07192B2E03B
:1029B000EA38FB07D9F750C0E2E06E1691F48A813D
:1029C00070928202809383027092840280938502C7
:1029D00070928602809387027092880280938902A7
:1029E0003BC0F4E06F16E9F49E012B5F3F4FA985D1
:1029F000BA851196EC91EF5FE43038F4F0E0D6013F
:102A00008C91EE57FD4F80838483E985FA8531965A
:102A1000FA87E9870894C11CD11CC216D30639F77E
:102A20001BC0FD85F73008F45ECE9E01275F3F4F47
:102A3000A985BA851196EC91EF5FF0E0EE57FD4F56
:102A4000D6018D916D018083E985FA853196FA87EB
:102A5000E987A217B30761F76091F8038091F90342
:102A60009091FA0370E00E945F267093FA036093DE
:102A7000F903FC85F0937C02CB01829685349105A5
:102A800028F480917D02861B80937D028B858823AC
:102A9000D9F184E994E06CE771E00E94D52484E9DF
:102AA00094E06C854AE050E00E94332484E994E08D
:102AB00062E871E00E94D52484E994E060917D028F
:102AC0004AE050E00E94332484E994E06AE871E02F
:102AD0000E94D52402E812E084E994E0D8016D91C7
:102AE0008D014AE050E00E94332484E994E060E2E2
:102AF0000E948122B2E00A381B0771F784E994E052
:102B000066E971E00E94D8241092810210927E0240
:102B100080917F02823010F010927F028F85988919
:102B20000E9426230E94F008469A8DE06AE00E94E7
:102B3000E1058EE064E00E94E10562960FB6F8942C
:102B4000DEBF0FBECDBFCF91DF911F910F91FF90E0
:102B5000EF90DF90CF90BF90AF909F908F907F903D
:102B60006F905F904F903F902F900895CF92DF929B
:102B7000EF92FF920F931F93DF93CF93CDB7DEB702
:102B80002C970FB6F894DEBF0FBECDBF8EE091E05C
:102B900061E00E94B40F8E010F5F1F4FC8010E94B9
:102BA000A4128981813709F486C0813509F483C074
:102BB00068010E94531188E291E061E00E94B40F25
:102BC000C6010E94A41289818E3611F08E3421F440
:102BD000C6010E94A711F4CF833711F0833549F461
:102BE0008A81853619F40E94660FEACF0E94CD0FC4
:102BF000E7CF8237F9F48A818536E1F48B8182361A
:102C0000C9F48C818936B1F48D818E3699F48E8128
:102C1000843681F481EA91E060E00E94B40FC6013D
:102C20000E94A4128981893711F0893519F40E9414
:102C3000441341C089818137F1F18135E1F1C60149
:102C40000E9479027C018BE2E816F10408F0B1CF12
:102C5000C6010E94A4128981813769F1813559F139
:102C6000C6010E9479028C018F3F910511F008F096
:102C7000A0CFE114F10419F4009709F49ACF84E984
:102C800094E0B7014AE050E00E94A32484E994E074
:102C90006DE30E94812284E994E0B8014AE050E0AB
:102CA0000E94B624C701602F0E94CA080E94DB0957
:102CB0000E94F0087ECF2C960FB6F894DEBF0FBEB0
:102CC000CDBFCF91DF911F910F91FF90EF90DF90DB
:102CD000CF9008951F93CF93DF93EC018DE06AE0CE
:102CE0000E94E10510E011C0A8956DE770E080E05A
:102CF00090E00E94221FCB30D10568F00E949D0E0B
:102D0000882349F00E94B61516C0812F90E08C17D9
:102D10009D0750F310C08EE064E00E94E1056DE76E
:102D200070E080E090E00E94221F8EE060E00E9450
:102D3000E1051F5FEACFDF91CF911F910895EF92D8
:102D4000FF920F931F930E946D0A182F8F3F69F413
:102D500080919A03882329F48AE890E061E00E9438
:102D6000B40F8FE295E70E946A1682E00E94FE127D
:102D7000882391F084E090E00E946A160E94F00897
:102D800080919A03882329F48AEB90E061E00E9405
:102D9000B40F84E090E079C00E94DB09882309F039
:102DA00076C080919A03882329F485EA90E061E057
:102DB0000E94B40F113009F066C00E94EE1E7B0124
:102DC0008C018FE097E2A0E0B0E0E80EF91E0A1F48
:102DD0001B1F0BC081E090E00E946A160E949D0EAE
:102DE000882319F00E94B61552C00E94EE1E6E157F
:102DF0007F058007910770F388E480937C0287EC5D
:102E000080937D0291E090937F0210928102109254
:102E1000800210927E028BE48093950282ED809373
:102E2000960284E680938A0284E080938B0282E09B
:102E300080938C0290938D0210928E028EE180938B
:102E40008F0287E0809392029093930210929402F3
:102E50008DE48093820283E98093830289E58093E5
:102E6000840287EA809385028DE6809386028DEB4B
:102E7000809387028FE78093880281ED8093890297
:102E80000E94F00804C088E790E00E946A161F9133
:102E90000F91FF90EF9008951F93482FF62FE09128
:102EA0009202EE2321F4882351F41FE724C08823E3
:102EB00041F4683031F41092FC031092FB0310E0EF
:102EC0001AC02091FB033091FC03C9016E2F70E002
:102ED0000E944B26261B370BF49FC0011124280F9C
:102EE000391F3093FC032093FB03C9016E2F70E060
:102EF0000E944B26162F83E0612F70E00E94C01FB6
:102F000010932C0310922D031F9108952F923F923E
:102F10004F925F926F927F928F929F92AF92BF92E9
:102F2000CF92DF92EF92FF920F931F93CF93DF9395
:102F300080E00E94FE1280932E03882321F08AE015
:102F4000809345021DC086E00E94FE128823C1F0D6
:102F500082E080932E0384E08093450280E69DE624
:102F600090931402809313029093870080938600BD
:102F700010926302809148028460809348022A98EC
:102F800084E00E94FE1280939A0381E090E00E9408
:102F90006A1685E00E94FE12882311F00E944413F5
:102FA00084E994E040E056E960E070E00E949021FE
:102FB00080919A03882331F40E94401181E090E0CF
:102FC0000E946A160E949F1680917D02809347029C
:102FD0000E94AA0A0E9462030E946D090E942106B3
:102FE000109230032EE088E190E00FB6F894A89597
:102FF000809360000FBE2093600080919A03882325
:1030000009F0A6C084E994E06BE971E00E94D52440
:1030100084E994E060917B024AE050E00E944524FC
:103020000E94531184E994E060EA71E00E94D52483
:1030300019E0E0E0F0E010935700649184E994E037
:1030400040E150E00E94332484E994E060E20E9471
:103050008122E3E0F0E010935700649184E994E06A
:1030600040E150E00E94332484E994E060E20E9451
:103070008122E2E0F0E010935700149184E994E09B
:10308000612F40E150E00E94452484E994E068EA21
:1030900071E00E94D52484E00E941B06682F70E036
:1030A0006170707084E994E04AE050E00E94B624B8
:1030B00084E994E06DEA71E00E94D82480E00E94E7
:1030C0001B06682F84E994E04AE050E00E94452402
:1030D00081E00E941B06682F84E994E04AE050E0FA
:1030E0000E94452482E00E941B06682F84E994E038
:1030F0004AE050E00E94452484E994E063EB71E0EB
:103100000E94D52481E10E941B06682F70E0605464
:10311000704084E994E04AE050E00E94B62488E6DA
:1031200090E061E00E94B40F80912E03813031F471
:1031300084E994E066EB71E00E94D82480912E032C
:10314000823031F484E994E06EEB71E00E94D8247F
:10315000442481E0809346020E94E2060E94780D9A
:10316000789483E080934C030E94EE1E60933103B9
:103170007093320380933303909334036093350349
:103180007093360380933703909338036093390329
:1031900070933A0380933B0390933C0360933D0309
:1031A00070933E0380933F03909340035524AA24D9
:1031B000BB243324339483E0282EA8958CE00E940E
:1031C0001B06882371F40E9421060E94780D8091CD
:1031D0009A03882331F484E994E067EC71E00E945B
:1031E000D82480914C03843009F0F3C1469888B10B
:1031F00088B98FE70E94C605C0E1D3E00E940D06A2
:10320000899323E0C032D207C9F70E94E2061091E9
:103210002F030E94EC058091A1039091A203A0913D
:10322000A303B091A40380933D0390933E03A09326
:103230003F03B093400320924C036097CE010E945D
:103240006F05882351F080919A03882309F0BCC14F
:1032500084E994E06EEC71E00FC0909110038091CE
:103260007C02981761F080919A03882309F0ACC121
:1032700084E994E063ED71E00E94D824A5C1CE01F9
:103280000E94DC03882389F0442081F480919A0312
:10329000882331F484E994E069ED71E00E94D82438
:1032A0000E94A7084424439401C04424609126034B
:1032B000709127036115710551F08091240390915D
:1032C00025030E944B26709325036093240380916D
:1032D0002403909125039093270380932603609104
:1032E0002A0370912B036115710569F08091280301
:1032F000909129030E944B26609328037093290321
:103300006093A00306C08091A003809328031092CD
:10331000290320912803309129038091240390915F
:1033200025038217930728F4109225031092240393
:1033300006C0821B930B90932503809324038091F6
:103340009302882329F0809124039091250304C0DF
:10335000809126039091270390932D0380932C0353
:1033600080912C0361E00E944C178BE20E941B06A7
:10337000C82FD0E080919A03882309F04DC084E9DA
:1033800094E06EED71E00E94D52460912603709167
:10339000270384E994E04AE050E00E94052484E990
:1033A00094E061EE71E00E94D52460914F0370912A
:1033B000500384E994E04AE050E00E94052484E947
:1033C00094E065EE71E00E94D524612F70E06F5F9C
:1033D0007F4F84E994E04AE050E00E94A32484E90E
:1033E00094E069EE71E00E94D52484E994E0BE0186
:1033F0004AE050E00E94A32484E994E06DEE71E07D
:103400000E94D524609128037091290384E994E0F7
:103410004AE050E00E941624A12FB0E0FD01EE0F1B
:10342000FF1FE75AFC4F8081918120912603309144
:103430002703820F931F91838083FD01EE0FFF1FEF
:10344000E759FC4F80819181209128033091290315
:10345000820F931F91838083A35BBC4F9C968C91BA
:103460009C978F5F9C968C939C97D4968C91D497C5
:103470008F5FD4968C9310922503109224031092A0
:10348000270310922603109229031092280310920A
:103490002B0310922A0340917D02442309F453C068
:1034A000C038D10514F0C050D140CE014996C39721
:1034B00018F020E030E006C09E01B4E0220F331F78
:1034C000BA95E1F75394C50160E170E00E945F2670
:1034D000A61AB70AC90160E170E00E945F26A60E35
:1034E000B71EC501B7FE04C0882799278A199B0912
:1034F0008134910554F180E2851538F5C50160E10C
:1035000070E00E945F26EB01D095C195DF4F642FDC
:103510006C0F60937D0289E00E94E10580919A031F
:10352000882369F484E994E062EF71E00E94D52475
:1035300084E994E0BE014AE050E00E94B62455249C
:10354000AA24BB2402C030924B0310924A0310926B
:1035500049030E94EE1E60933103709332038093FF
:103560003303909334036093390370933A03809349
:103570003B0390933C036093410370934203809319
:1035800043039093440360934503709346038093F1
:10359000470390934803109246021092230310921F
:1035A000220310924B030E94090880919A038823FA
:1035B00059F026E12093100384E994E060E173E080
:1035C00040E150E00E942C2388B188B90E941A0C77
:1035D000F4CD0E94EE1E7B018C0160933103709349
:1035E0003203809333039093340360903D037090D3
:1035F0003E0380903F03909040030E941A0C0E946B
:10360000400E882309F0A5CD80919102882311F105
:103610008091310390913203A0913303B091340330
:103620002091350330913603409137035091380390
:10363000821B930BA40BB50B8F509742A040B04058
:1036400048F40E949D0E882339F00E94B6150E940E
:1036500021067FCD0E94B40E80919B03882309F43C
:103660004FC08091450390914603A0914703B091CC
:1036700048038196A11DB11D20919C0330919D03AB
:1036800040919E0350919F0382179307A407B507AB
:10369000B8F589E893E00E94DC030E9409081092C3
:1036A0009B0310924A031092490380913103909139
:1036B0003203A0913303B091340380933903909384
:1036C0003A03A0933B03B0933C0380934103909350
:1036D0004203A0934303B093440380919A03882349
:1036E00039F484E994E069EF71E00E94D82408C0BD
:1036F00084E994E069E873E040E150E00E942C2303
:103700008091310390913203A0913303B09134033F
:103710002091390330913A0340913B0350913C038F
:10372000821B930BA40BB50B88559240A040B04070
:10373000B0F180914A03882391F58091300388236A
:1037400071F180919A03882331F484E994E06EEF5B
:1037500071E00E94D82430924A0380913103909105
:103760003203A0913303B0913403809341039093CB
:103770004203A0934303B09344030E946D090E9447
:103780000908469880E068E00E944C1780914D033C
:1037900090914E03019690934E0380934D03809138
:1037A000310390913203A0913303B09134032091FF
:1037B0004503309146034091470350914803821BD3
:1037C000930BA40BB50B885B9B40A040B04010F05E
:1037D0003092460267017801C618D708E808F90850
:1037E000D701C6010297A109B1090497A105B10546
:1037F000D0F483E690E00E947B1F00912803109193
:10380000290386E20E941B06080F111D109329034D
:103810000093280380912A0390912B0301969093A3
:103820002B0380932A0380914602882319F02FEFFF
:1038300030E02EC0D701C6010C97A109B1090B9742
:10384000A105B105D8F483E690E00E947B1F0091AA
:1038500024031091250386E20E941B06080F111D08
:10386000109325030093240380912603909127034E
:103870000196909327038093260308C089E1C81618
:10388000D104E104F10414F40E94760B23E230E049
:10389000C901AA2797FDA095BA2FC816D906EA062E
:1038A000FB060CF4DCC080914602882319F5809158
:1038B0004A03882309F4469A80912F0320913D03FF
:1038C00030913E0340913F035091400380FF05C07B
:1038D000205E3F4F4F4F5F4F04C0215E3F4F4F4F21
:1038E0005F4F20933D0330933E0340933F0350933B
:1038F000400310C08091310390913203A0913303B3
:10390000B091340380933D0390933E03A0933F0313
:10391000B093400310912F030E94EC05C12FD0E01B
:10392000FE01E35BFC4F84818F5F848330924B0305
:103930006091460227E0629FB00111246F5F80E032
:103940000E944C1780919A03882309F063C084E990
:1039500094E064E072E00E94D524609122037091AB
:1039600023036F5F7F4F709323036093220384E9E7
:1039700094E04AE050E00E94052460912A0370918F
:103980002B036115710569F080912803909129033B
:103990000E944B2660932803709329036093A00331
:1039A00006C08091A003809328031092290384E924
:1039B00094E061EE71E00E94D52460914F03709114
:1039C000500384E994E04AE050E00E94052484E931
:1039D00094E065EE71E00E94D524BE016F5F7F4FD9
:1039E00084E994E04AE050E00E94A32484E994E052
:1039F0006DEE71E00E94D524609128037091290337
:103A000084E994E04AE050E00E94052484E994E0CF
:103A10000E945623FE01EE0FFF1FE759FC4F8081E5
:103A200091812091280330912903820F931F918364
:103A30008083FE01E35BFC4F84A98F5F84AB10920F
:103A4000250310922403109227031092260310924C
:103A500029031092280310922B0310922A038091BD
:103A60004A03882309F4A9CB0E94760BE090310326
:103A7000F09032030091330310913403809141039D
:103A800090914203A0914303B0914403E81AF90ACC
:103A90000A0B1B0B60918F0280914903882349F028
:103AA00088E8E81683E1F80680E0080780E0180758
:103AB0007CF470E080E090E028EE33E040E050E0FD
:103AC0000E9420266E157F05800791070CF075CBAC
:103AD0003092490380918A028F3F61F080919A036E
:103AE000882331F484E994E068E072E00E94D824ED
:103AF0000E94F50C80919A03882331F484E994E0C4
:103B00006CE072E00E94D8240E9421060E94E20626
:103B10008091310390913203A0913303B09134032B
:103B20008093410390934203A0934303B0934403D3
:103B30000E94EE1E60933D0370933E0380933F030B
:103B4000909340033ACB84E161E00E94202085E11C
:103B500061E00E9420208CE060E00E9420208BE049
:103B600061E00E9420208DE061E00E94202082E040
:103B700060E00E9420208EE061E00E94202080E032
:103B800060E00E94202081E061E00E94202080E02F
:103B900061E00E945F2083E061E00E9420208AE0D3
:103BA00061E00E94202089E061E00E94202088E0FE
:103BB00061E00E94202087E061E00E94202086E0F2
:103BC00061E00E94202085E061E00E94202084E0E6
:103BD00061E00E94202083E161E00E94202082E1D8
:103BE00061E00E94202081E161E00E942020E1E864
:103BF000F0E01082109285001092840080911302F0
:103C000090911402909387008093860082E08093C5
:103C100080008AE1808381E080936F0080E060E42F
:103C20007BE042E050E00E94291E0895F999FECF02
:103C300072BD61BDF89A80B50895F999FECF1FBA9B
:103C400072BD61BD40BD0FB6F894FA9AF99A0FBEE5
:103C50000895823000F5E82FF0E0EE0FFF1FE150ED
:103C6000FC4F71836083882319F08130A1F408C070
:103C7000809169008C7F842B80936900E89A089575
:103C800080916900440F551F440F551F837F842B7B
:103C900080936900E99A08951F920F920FB60F92D0
:103CA00011242F933F934F935F936F937F938F9341
:103CB0009F93AF93BF93EF93FF938091FF039091F6
:103CC0000004892B29F0E091FF03F091000409958D
:103CD000FF91EF91BF91AF919F918F917F916F91E4
:103CE0005F914F913F912F910F900FBE0F901F90BA
:103CF00018951F920F920FB60F9211242F933F9396
:103D00004F935F936F937F938F939F93AF93BF93E3
:103D1000EF93FF938091010490910204892B29F085
:103D2000E0910104F09102040995FF91EF91BF9198
:103D3000AF919F918F917F916F915F914F913F9143
:103D40002F910F900FBE0F901F9018951F920F92FA
:103D50000FB60F9211242F933F938F939F93AF939E
:103D6000BF938091070490910804A0910904B09139
:103D70000A0430910B040196A11DB11D232F2D5F64
:103D80002D3720F02D570196A11DB11D20930B0456
:103D90008093070490930804A0930904B0930A0445
:103DA0008091030490910404A0910504B09106044D
:103DB0000196A11DB11D8093030490930404A09368
:103DC0000504B0930604BF91AF919F918F913F91ED
:103DD0002F910F900FBE0F901F9018958FB7F894EA
:103DE00020910704309108044091090450910A047D
:103DF0008FBFB901CA0108959FB7F89420910304B9
:103E000030910404409105045091060486B5A89BA6
:103E100006C08F3F21F02F5F3F4F4F4F5F4F9FBF37
:103E2000542F432F322F2227280F311D411D511DA2
:103E300082E0220F331F441F551F8A95D1F7B90125
:103E4000CA0108959B01AC017FB7F89480910304E7
:103E500090910404A0910504B091060466B5A89B56
:103E600005C06F3F19F00196A11DB11D7FBFBA2F8C
:103E7000A92F982F8827860F911DA11DB11D62E0E3
:103E8000880F991FAA1FBB1F6A95D1F7BC012DC0CF
:103E9000FFB7F8948091030490910404A091050465
:103EA000B0910604E6B5A89B05C0EF3F19F0019656
:103EB000A11DB11DFFBFBA2FA92F982F88278E0FE4
:103EC000911DA11DB11DE2E0880F991FAA1FBB1F04
:103ED000EA95D1F7861B970B885E9340C8F2215074
:103EE00030404040504068517C4F2115310541051C
:103EF000510571F60895019739F0880F991F880FC1
:103F0000991F02970197F1F70895789484B582601C
:103F100084BD84B5816084BD85B5826085BD85B56D
:103F2000816085BDEEE6F0E0808181608083E1E81C
:103F3000F0E0108280818260808380818160808354
:103F4000E0E8F0E0808181608083E1EBF0E0808157
:103F500084608083E0EBF0E0808181608083EAE729
:103F6000F0E08081846080838081826080838081B2
:103F7000816080838081806880831092C100089571
:103F80001F93CF93DF93182FEB0161E00E94202055
:103F9000209709F44AC0CF3FD10509F449C0E12F69
:103FA000F0E0E957FB4F84918330C1F0843028F46E
:103FB000813051F08230B1F50CC0863019F1873074
:103FC00049F1843079F514C084B5806884BDC7BDDB
:103FD00033C084B5806284BDC8BD2EC0809180008E
:103FE000806880938000D0938900C093880024C0AB
:103FF00080918000806280938000D0938B00C0937A
:104000008A001AC08091B00080688093B000C0938D
:10401000B30012C08091B00080628093B000C09362
:10402000B4000AC0C038D1051CF4812F60E002C082
:10403000812F61E00E945F20DF91CF911F91089551
:10404000CF93DF93482F50E0CA018D589B4FFC015E
:104050003491415A5B4FFA018491882369F190E0D1
:10406000880F991FFC01EF5BFB4FA591B491FC01F8
:10407000E55BFB4FC591D491662351F42FB7F894BB
:104080008C91932F909589238C93888189230BC0E1
:10409000623061F42FB7F8948C91932F9095892317
:1040A0008C938881832B88832FBF06C09FB7F89499
:1040B0008C91832B8C939FBFDF91CF910895482FD4
:1040C00050E0CA0189579B4FFC012491CA018D58C9
:1040D0009B4FFC019491415A5B4FFA013491332379
:1040E00009F440C0222351F1233071F0243028F428
:1040F0002130A1F0223011F514C02630B1F0273064
:10410000C1F02430D9F404C0809180008F7703C0BF
:10411000809180008F7D8093800010C084B58F7760
:1041200002C084B58F7D84BD09C08091B0008F77B7
:1041300003C08091B0008F7D8093B000E32FF0E04A
:10414000EE0FFF1FE55BFB4FA591B4912FB7F894DD
:10415000662321F48C919095892302C08C91892B40
:104160008C932FBF0895682F70E0CB0189579B4F28
:10417000FC012491CB018D589B4FFC014491615A65
:104180007B4FFB019491992319F420E030E03CC06F
:10419000222351F1233071F0243028F42130A1F092
:1041A000223011F514C02630B1F02730C1F0243090
:1041B000D9F404C0809180008F7703C08091800083
:1041C0008F7D8093800010C084B58F7702C084B546
:1041D0008F7D84BD09C08091B0008F7703C080912E
:1041E000B0008F7D8093B000892F90E0880F991FD9
:1041F0008B5A9B4FFC01A591B4918C9120E030E04B
:10420000842311F021E030E0C901089508951F9240
:104210000F920FB60F9211242F933F934F938F93CA
:104220009F93EF93FF938091C00082FD1DC040914A
:10423000C60020914C0430914D042F5F3F4F2F73E7
:10424000307080914E0490914F042817390771F017
:10425000E0914C04F0914D04E45FFB4F40833093B8
:104260004D0420934C0402C08091C600FF91EF9151
:104270009F918F914F913F912F910F900FBE0F9073
:104280001F901895E091A004F091A104E05CFF4F0D
:104290008191919120813181821B930B8F7390705A
:1042A000892B11F00E94062108951F920F920FB6DC
:1042B0000F9211242F933F938F939F93EF93FF932C
:1042C00020919004309191048091920490919304F4
:1042D0002817390731F48091C1008F7D8093C10088
:1042E00014C0E0919204F0919304E05BFB4F2081B5
:1042F000809192049091930401968F7390709093A3
:104300009304809392042093C600FF91EF919F91B4
:104310008F913F912F910F900FBE0F901F90189586
:10432000AF92BF92DF92EF92FF920F931F93CF93C2
:10433000DF93EC017A018B01DD24403081EE5807D8
:1043400080E0680780E0780711F0DD24D39491E0E5
:10435000A92EB12CEC89FD89DD2069F0C50108A0EA
:1043600002C0880F991F0A94E2F7808360E079E029
:104370008DE390E005C0108260E874E88EE190E083
:10438000A80197010E9472262150304040405040C1
:10439000569547953795279580E12030380720F0CE
:1043A000DD2011F0DD24D6CFE889F9893083EA8950
:1043B000FB89208319A2EE89FF89408121E030E04A
:1043C000C9010C8C02C0880F991F0A94E2F7482B90
:1043D0004083EE89FF894081C9010D8C02C0880F9E
:1043E000991F0A94E2F7482B4083EE89FF894081A8
:1043F000C9010E8C02C0880F991F0A94E2F7482B5E
:104400004083EE89FF8980810F8C02C0220F331F09
:104410000A94E2F7209528232083DF91CF911F9102
:104420000F91FF90EF90DF90BF90AF900895DC0167
:104430001C96ED91FC911D97E05CFF4F219131910D
:1044400080819181281B390B2F733070C901089529
:10445000DC011C96ED91FC911D97E05CFF4F2081E3
:104460003181E054F040DF01AE5BBF4F8D919C91F4
:1044700011972817390719F42FEF3FEF07C08D91D7
:104480009C91E80FF91F8081282F30E0C901089521
:10449000DC011C96ED91FC911D97E05CFF4F2081A3
:1044A0003181E054F040DF01AE5BBF4F8D919C91B4
:1044B00011972817390719F42FEF3FEF10C08D918E
:1044C0009C911197E80FF91F20818D919C91119774
:1044D00001968F73907011969C938E9330E0C90172
:1044E0000895DC0191968C919197882339F0549628
:1044F000ED91FC915597808186FFF9CF91961C92A2
:104500000895CF93DF93EC01EE85FF85E05CFF4FCC
:1045100020813181E054F0402F5F3F4F2F73307086
:10452000DF01AE5BBF4F8D919C9111972817390722
:10453000D1F3E05CFF4F80819181E054F040E80FBF
:10454000F91F6083EE85FF85E05CFF4F3183208398
:10455000EE89FF89208181E090E00F8C02C0880FF6
:10456000991F0A94E2F7282B208381E089A3EC8924
:10457000FD8980818064808381E090E0DF91CF912C
:104580000895109297041092960488EE93E0A0E0AC
:10459000B0E08093980490939904A0939A04B09308
:1045A0009B0483E093E090939504809394048CE0C3
:1045B00094E09093A1048093A00480E594E090930C
:1045C000A3048093A20485EC90E09093A5048093CB
:1045D000A40484EC90E09093A7048093A60480EC5C
:1045E00090E09093A9048093A80481EC90E09093CC
:1045F000AB048093AA0482EC90E09093AD04809386
:10460000AC0486EC90E09093AF048093AE0484E019
:104610008093B00483E08093B10487E08093B20478
:1046200085E08093B30481E08093B4040895CF9330
:10463000DF930E94851F0E94A31DC2E4D1E20E9465
:1046400086172097E1F30E944221F9CF0E94882526
:1046500008950E94EB240895CF92DF92EF92FF928B
:104660000F931F93CF93DF937C016B018A01C0E00E
:10467000D0E00FC0D6016D916D01D701ED91FC9195
:104680000190F081E02DC7010995C80FD91F015095
:1046900010400115110571F7CE01DF91CF911F91E7
:1046A0000F91FF90EF90DF90CF900895EF92FF92DF
:1046B0000F931F938C01DC01ED91FC910190F0812F
:1046C000E02D6DE009957C01D801ED91FC91019000
:1046D000F081E02DC8016AE009959C012E0D3F1D77
:1046E000C9011F910F91FF90EF900895CF93DF9331
:1046F000EC016115710519F420E030E00FC0DB0119
:104700000D900020E9F71197A61BB70BE881F981FE
:104710000280F381E02DAD0109959C01C901DF9173
:10472000CF9108954F925F927F928F929F92AF9216
:10473000BF92CF92DF92EF92FF920F931F93DF937E
:10474000CF93CDB7DEB7A1970FB6F894DEBF0FBEFB
:10475000CDBF2C01742ECB01223008F42AE019A21F
:1047600031E2C32ED12CCC0EDD1E822E9924AA2438
:10477000BB24672D752FA50194010E947226790133
:104780008A01C801B701A50194010E942026472D86
:10479000461B0894C108D1084A3014F4405D01C09A
:1047A000495CF6014083E114F1040105110521F093
:1047B0007E2C5F2DC801DDCFC201B6010E94762399
:1047C000A1960FB6F894DEBF0FBECDBFCF91DF919B
:1047D0001F910F91FF90EF90DF90CF90BF90AF901F
:1047E0009F908F907F905F904F900895DC012115EE
:1047F000310541F4ED91FC910190F081E02D642FA1
:10480000099508950E9492230895EF92FF920F93C5
:104810001F939A017B0100E010E0B801A7010E94FC
:10482000F6231F910F91FF90EF900895CF92DF92A2
:10483000EF92FF920F931F936C017B019A0100E0AE
:1048400010E0B801A7010E94F6238C01C6010E9466
:104850005623080F191FC8011F910F91FF90EF9069
:10486000DF90CF900895EF92FF920F931F939A01DC
:10487000E62EFF2400E010E0B801A7010E94F62315
:104880001F910F91FF90EF900895CF92DF92EF92DA
:10489000FF920F931F936C01E62E9A01FF2400E014
:1048A00010E0B801A7010E94F6238C01C6010E9406
:1048B0005623080F191FC8011F910F91FF90EF9009
:1048C000DF90CF900895CF92DF92EF92FF920F93F7
:1048D0001F93CF93DF93EC016A017B012115310512
:1048E00041F4E881F9810190F081E02D642F099570
:1048F0001FC02A303105D1F477FF17C0E881F98154
:104900000190F081E02D6DE209958C014427552737
:10491000BA014C195D096E097F09CE012AE00E9497
:1049200092239801280F391F04C02AE00E94922385
:104930009C01C901DF91CF911F910F91FF90EF90E2
:10494000DF90CF900895EF92FF920F931F937B011A
:104950009A010027F7FC0095102FB801A7010E94CB
:1049600063241F910F91FF90EF900895CF92DF92F3
:10497000EF92FF920F931F936C017B019A01002726
:10498000F7FC0095102FB801A7010E9463248C0149
:10499000C6010E945623080F191FC8011F910F91CD
:1049A000FF90EF90DF90CF9008950E9476230895B6
:1049B000EF92FF920F931F937C010E9476238C014C
:1049C000C7010E945623080F191FC8011F910F919C
:1049D000FF90EF9008950F931F93CF93DF93BC0147
:1049E0008230910510F462E070E0E091B804F0913B
:1049F000B90440E050E0A0E0B0E024C080819181A3
:104A000086179707D0F08617970771F482819381F4
:104A1000109729F013969C938E9312972CC0909325
:104A2000B9048093B80427C04115510519F08417C3
:104A3000950718F48D01AC01EF01DF0182819381AC
:104A40009C01F9013097D1F641155105F9F0CA01E1
:104A5000861B970B8430910580F48A819B81011518
:104A6000110521F0F8019383828304C09093B90467
:104A70008093B804FE01329645C0FE01E80FF91F8D
:104A8000619371930297998388833CC08091B604A7
:104A90009091B704892B41F480919A0290919B02E6
:104AA0009093B7048093B60440919C0250919D026C
:104AB0004115510541F44DB75EB780919802909130
:104AC0009902481B590B2091B6043091B704241762
:104AD0003507B0F4CA01821B930B8617970780F045
:104AE000AB014E5F5F4F8417950750F0420F531F85
:104AF0005093B7044093B604F9016193719302C0D7
:104B0000E0E0F0E0CF01DF91CF911F910F91089588
:104B1000CF93DF939C01009709F48FC0EC0122979B
:104B20001B821A826091B8047091B90461157105F5
:104B300081F488819981820F931F2091B60430916E
:104B4000B7042817390739F5D093B704C093B604D2
:104B500074C0DB0140E050E0AC17BD0708F1BB8337
:104B6000AA83FE0121913191E20FF31FAE17BF0717
:104B700079F48D919C911197280F391F2E5F3F4F2B
:104B80003983288312968D919C9113979B838A83F6
:104B90004115510571F4D093B904C093B8044DC0C8
:104BA00012968D919C911397AD01009711F0DC0145
:104BB000D3CFDA011396DC93CE931297FA012191A9
:104BC0003191E20FF31FCE17DF0769F488819981D5
:104BD000280F391F2E5F3F4FFA01318320838A81CE
:104BE0009B8193838283E0E0F0E0DB0112968D915C
:104BF0009C911397009719F0BC01FD01F6CFAB0112
:104C00004E5F5F4FDB018D919C91840F951F20912A
:104C1000B6043091B7042817390779F4309729F48E
:104C20001092B9041092B80402C01382128242504A
:104C300050405093B7044093B604DF91CF9108954C
:104C4000629FD001739FF001829FE00DF11D649F70
:104C5000E00DF11D929FF00D839FF00D749FF00DFC
:104C6000659FF00D9927729FB00DE11DF91F639F9D
:104C7000B00DE11DF91FBD01CF0111240895991B4D
:104C800079E004C0991F961708F0961B881F7A9543
:104C9000C9F780950895AA1BBB1B51E107C0AA1F45
:104CA000BB1FA617B70710F0A61BB70B881F991FCD
:104CB0005A95A9F780959095BC01CD01089597FB71
:104CC000092E07260AD077FD04D0E5DF06D00020A4
:104CD0001AF4709561957F4F0895F6F79095819538
:104CE0009F4F0895A1E21A2EAA1BBB1BFD010DC008
:104CF000AA1FBB1FEE1FFF1FA217B307E407F5078C
:104D000020F0A21BB30BE40BF50B661F771F881F67
:104D1000991F1A9469F760957095809590959B01FD
:104D2000AC01BD01CF01089597FB092E05260ED0D9
:104D300057FD04D0D7DF0AD0001C38F450954095B9
:104D4000309521953F4F4F4F5F4F0895F6F790955F
:104D50008095709561957F4F8F4F9F4F0895EE0F0F
:0E4D6000FF1F0590F491E02D0994F894FFCF09
:104D6E00466978656421005374617469737469636C
:104D7E007320696E20454550524F4D206572617308
:104D8E0065200020646F6E65004C6173742073742F
:104D9E00617469736963733A28002D002920666F68
:104DAE00726D2000464E2020636E7420002020007D
:104DBE000D0A42696E642066696E642073746172B6
:104DCE00743A2000204D61786C6576656C5B005DF1
:104DDE003D000D0A54696D65733A200042696E6498
:104DEE003D002046636F72723D00205365717565FC
:104DFE006E63653A200020456E6400532F4E3D00D1
:104E0E0046757365733A20004952513D0053544123
:104E1E00525400543D0050504D206F757400534253
:104E2E005553206F757400466945727221004352C6
:104E3E0043210042494E4421004653205700523D23
:104E4E000020533D0020433D0020413D0020526E86
:104E5E003D0046636F72723D002453415400746FDF
:104E6E002066730024524C00534F5300496E6974F0
:104E7E00000C05409CB80BB80BB80BB80BB80BB8B0
:104E8E000BB80BB80BB80BB80BB80BB80BB80BB8FC
:104E9E000BB80BB80BB80BB80BB80BB80BB80BB8EC
:104EAE000BB80BB80B0A01C7F8C10F25002500255A
:104EBE00002B002B002B002B002800280028002898
:104ECE000028000402018040201020100804020473
:104EDE0002018040201020000458006348CC0001DD
:104EEE0000004D9359A76DBD7FD165040201001ED0
:104EFE00C7010100004BD2048000BA040000010279
:104F0E00030405060B0C0D0E0F10111213141819B5
:104F1E001A1C28292A820289029302B002C202E1D7
:104F2E0002F702FE0205030C0313031A03210328E2
:104F3E00032F03460387039F03A803B103D603FE83
:104F4E00031E040A000900080007000600050004FD
:104F5E0000130012001100000001000900080000FB
:104F6E0000000081222C23172248222822712200C1
:00000001FF
