:100000000C944F020C94361E0C94631E0C947702D1
:100010000C9477020C9477020C9477020C9477027C
:100020000C9477020C9477020C9477020C9477026C
:100030000C9477020C949F020C9477020C94770234
:100040000C94901E0C9477020C94F1200C943F2198
:100050000C9477020C9477020C9477020C9477023C
:100060000C9477020C947702507265737320276D9D
:100070002720746F207374617274204D454E552093
:10008000696E2031302073656300464C415348202F
:100090004552524F522121212043616E277420770F
:1000A0006F726B21004572726F72207265616420FD
:1000B00073657474696E6773210053657474696E37
:1000C000677320726573657420746F206465666160
:1000D000756C7473210046486E3A204D696E20415C
:1000E0007672204D6178000A0D426179636869205B
:1000F000736F66742032303133005258204F706570
:100100006E20457870657274205632204600546F18
:1001100020456E746572204D454E552050726573B2
:100120007320454E544552005479706520526567DE
:1001300020616E6420707265737320454E54455281
:100140002C20747970652056616C756520616E6431
:1001500020707265737320454E5445522028713DBE
:10016000517569743B2073732F736C2F73722F73E7
:10017000613D53746174290052673D56616C2009DA
:10018000436F6D6D656E7473202D2D2D2D2D2D2DCE
:100190002D2D2D2D2D2D2D2D2D2D2D2D2D2D2D2D8F
:1001A000004578656375746520726562696E643FA9
:1001B0002041726520796F75207375726528792FDB
:1001C0006E293F0046536E20496E465320204472EC
:1001D0006F70733A312020203220202033202020DD
:1001E00034202020352020203620202037202020B9
:1001F00038202000525353493A3120202032202009
:10020000203320202034202020352020203620209C
:10021000203720202038204E6F6973653A31202026
:100220002032202020332020203420202035202080
:10023000203620202037202020380046536E2049C9
:100240006E4653204472253A31202032202033203C
:100250002034202035202036202037202038202030
:10026000532F4E3A312020203220202033202020CE
:100270003420202035202020362020203720202028
:10028000380042696E64204E004672657120436FEB
:10029000727200536572766F203135302520737489
:1002A00072656368206E756D2028312D313229000A
:1002B0005374617469737469637320656E61626CF1
:1002C000650031316269742F313063682028313D17
:1002D0007965732C20322F333D4675746162612934
:1002E000004469736372657465206F75747075740A
:1002F00073206D61736B00486F7020463100486F4A
:100300007020463200486F7020463300486F7020DE
:10031000463400486F7020463500486F70204636DE
:1003200000486F7020463700486F70204638004202
:100330006561636F6E204620283235353D646973F0
:1003400061626C652900426561636F6E20506D616A
:100350007820286D5774293A20302D312E323B20D9
:10036000312D323B20322D333B20332D363B203490
:100370002D31323B20352D32353B20362D35303B6B
:1003800020372D31303000426561636F6E20737409
:100390006172742074696D65202873656329005348
:1003A000415720466D696E0053415720466D617874
:1003B0000050504D2F53425553206D6F64652031CE
:1003C00073742050574D2063686E6C2028312D388F
:1003D00029205B345D005253534920747970653A8B
:1003E00020736F756E642830292F6C6576656C28D4
:1003F000312D39393D617665726167652900525347
:100400005349206D6F64653A206C6576656C2830C1
:10041000292F534E20726174696F2831290052537D
:100420005349206F7665722050574D286368616E7E
:100430003A312D31322920302D6E6F74207573655D
:100440000000000000240027002A00000000002512
:100450000028002B000000000023002600290004D3
:10046000040404040404040202020202020303035B
:100470000303030102040810204080010204081055
:100480002001020408102000000007000201000003
:10049000030406000000000000000000AB2211244D
:1004A0001FBECFEFD8E0DEBFCDBF13E0A0E0B1E0CC
:1004B000E2E4FDE402C005900D92AA30B107D9F73D
:1004C00014E0AAE0B3E001C01D92A43BB107E1F73C
:1004D00014E0CEE9D4E004C02297FE010E949B26DE
:1004E000CC39D107C9F70E9401230C949F260C94A4
:1004F0000000FC0188279927E89421912032E9F334
:10050000293010F02E30C8F32B3241F02D3239F45F
:10051000689404C00E949702820F911D219120537C
:100520002A30C0F31EF4909581959F4F08957AE08C
:10053000979F902D879F802D910D112408951F92D4
:100540000F920FB60F9211242F933F934F935F9307
:100550008F939F93AF93BF93EF93FF93809184000A
:10056000909185008097D0F385B1909148028923BE
:1005700085B988B190914902892388B98BB190914E
:100580004A0289238BB980912A03882309F47DC00C
:100590008091F7038F5F8093F7039091450298173E
:1005A00030F410921B0310921A031092F70340913B
:1005B000F7034917B1F420911A0330911B03E0911E
:1005C0001302F0911402CF01805797412817390781
:1005D00018F020E737E147C0CF01821B930B9C0145
:1005E00042C0A42F50912803523011F0E42F04C0D0
:1005F000E0919102E40FE150FF27E7FDF095EE0F47
:10060000FF1FE35DFD4F20813181245230408091F6
:100610001A0390911B03820F931F90931B038093E7
:100620001A03552369F0513049F44C5F80919102CF
:10063000A42FA81B4450A3301CF415C0A42FAD5FF9
:10064000AA3088F4BB27A7FDB095FD01EE0FFF1F70
:10065000E55BFD4F0190F081E02D8081A15ABD4FF7
:100660009C91892B808380912803813091F44B30B9
:1006700080F45F9A8091840090918500845192402B
:10068000C8F3245F31405F9804C020911302309179
:1006900014028091130290911402821B930B909389
:1006A000850080938400FF91EF91BF91AF919F915E
:1006B0008F915F914F913F912F910F900FBE0F90AF
:1006C0001F901895CF93DF9380917B02882379F157
:1006D000CBE4D2E020E030E0482F50E0CA01022E07
:1006E00002C0959587950A94E2F780FF1AC0888129
:1006F00099818832910511F4E1E005C08B9711F4DE
:10070000E2E001C0E0E0F0E0E85BFD4FD901A7596D
:10071000BD4F80819C91892B8083F901E15AFD4F67
:1007200010822F5F3F4F229628303105B9F6DF91B6
:10073000CF9108951F939BE0899F802D1124182F3E
:100740001695169516958770A82FB0E048E050E0F2
:100750004A1B5B0BE12FF0E0E156FC4F21E030E05B
:10076000042E02C0220F331F0A94E2F7215030E01A
:1007700026233723082E02C0220F331F0A94E2F7E4
:100780009081922B90831F5F02C0769567954A9562
:10079000E2F7E12FF0E0E156FC4F9081962B908339
:1007A000863040F01F5FE12FF0E0E156FC4F808182
:1007B000872B80831F9108954F925F927F928F9233
:1007C0009F92AF92BF92CF92DF92EF92FF920F93E0
:1007D0001F93CF93DF937C0120917802822F6AE0F0
:1007E0000E942926792E7A94822F0E942926A82EEB
:1007F000AA94B0907A0221E02B1508F49FC0E7017B
:100800009F858D85D701E5E14E2EE2E05E2EE0E08A
:10081000F0E0C82EDD2472E0872E912C092F10E025
:1008200012968C911297482F50E0440F551F440F99
:10083000551F6E2FE83030F52E2FE701898190E0AB
:100840000E2E02C0959587950A94E2F780FD5460BC
:10085000673061F0C401022E02C0880F991F0A940C
:10086000E2F780239123892B09F04260BB20D1F16C
:10087000C60102C0959587952A95E2F780FF32C0A0
:10088000416030C0440F551FBB2061F1E83041F496
:10089000E7018C8590E087709070482B592B22C01F
:1008A000E93019F040E050E01DC0E7018C8590E090
:1008B00023E0959587952A95E1F79C012770307084
:1008C000422B532B959587959595879582709070BF
:1008D0002091230230912402822B932B90932402A7
:1008E00080932302671511F06A15C1F4CA01805084
:1008F00094409C0135952795280F391F7BEF2035B3
:10090000370714F420E53BEFC90124E0813B92074F
:1009100014F080EB94E0AC0140505C4F4854584FC9
:10092000E201499359932E0131961196EC30F1056D
:1009300009F076CFF701378531708BC0809128039D
:100940008230B9F4F3E0BF1641F4EFE9F3E011921D
:1009500023E0ED3AF207D9F70CC0D701EFE9F3E055
:1009600011968C9111978193119673E0ED3AF707E8
:10097000B9F7DD24D394CC24C39400E0E9E09E2EA3
:100980005DC0440F551FF701EC0DF11D808190E013
:100990002D2D30E082239323892B11F0C42BD52BEE
:1009A00080E8D81621F4C394DD24D39401C0DD0C73
:1009B0006F5F6B3031F793E0B91611F0102F0AC05A
:1009C000192D101B80912803823021F4812FBE0144
:1009D0000E949A03171511F01A15C1F4CE01805028
:1009E00094409C0135952795280F391FEBEF203552
:1009F0003E0714F420E53BEFB901F4E0213B3F074B
:100A000014F060EB74E0EB01C050DC4FE12FF0E03C
:100A1000EE0FFF1FEB5EFD4FCE01880F991F880F71
:100A2000991F8C0F9D1F9595879595958795805259
:100A3000994F918380830F5F0A3031F0C0E0D0E09E
:100A400060E041E050E09FCFEC0CF11CE701388101
:100A5000307880917B02882389F1ABE4B2E049E6EB
:100A600052E025E1E22E22E0F22E61E0082F10E0B4
:100A7000862F90E080239123892B99F0F7018081C4
:100A80009181ED91FC911197EA012881895B9B404E
:100A900020F08081822B808304C0808120952823D0
:100AA000208312964F5F5F4F82E090E0E80EF91EC0
:100AB00092E0AB35B90711F0660FDACF832FDF91E3
:100AC000CF911F910F91FF90EF90DF90CF90BF904B
:100AD000AF909F908F907F905F904F9008959C0172
:100AE00080917A028230E0F0F90190E05CE8B9018F
:100AF000615F7F4F8181982740E0892F90E09C01C2
:100B00003595279580FF03C0952F922701C0922F1E
:100B10004F5F483091F73196E617F70759F71BC03A
:100B2000F90190E05CE8B901635F7F4F828198270B
:100B300040E0892F90E09C013595279580FF03C008
:100B4000952F922701C0922F4F5F483091F7319631
:100B5000E617F70759F7892F08955C9A42985C9831
:100B600098E010C087FF07C042980000419A00003B
:100B7000429A000006C04298000041980000429A44
:100B80000000880F915070F7429808958F770E9467
:100B9000AD050895429898E010C087FF07C04298BD
:100BA0000000419A0000429A000006C042980000EE
:100BB00041980000429A0000880F915070F74298C7
:100BC00008951F93162F80680E94AD05812F0E9403
:100BD000CA055C9A1F9108951F93809129038F5F26
:100BE00080932903883010F010922903E0912903A3
:100BF000F0E0E458FD4F108189E7612F0E94E10584
:100C000080918F02181738F080919002811718F0A8
:100C10008EE064E002C08EE060E00E94E1051F917A
:100C20000895429880E090E0880F429A0000309941
:100C30008160429800009F5F9830B1F708950E944C
:100C4000C6050E9411065C9A089583E00E941F0663
:100C50008093AD0384E00E941F068093AE0386E07C
:100C600060E00E94E10587E061E00E94E10560919B
:100C70007702662311F089E002C089E067EC0E94E8
:100C8000E1058AE065E00E94E1058BE062E10E94F7
:100C9000E1058CE065E10E94E1058DE06AE00E94DB
:100CA000E1058EE060E00E94E1058FE163E00E94D3
:100CB000E1058EE16AE00E94E10582E160E60E94C2
:100CC000E10583E168EF0E94E1058FE060E80E94A2
:100CD000E1058DE160E40E94E1058CE166E20E949D
:100CE000E10580E264E40E94E10581E260E00E94A7
:100CF000E10582E262EF0E94E10583E26CE70E9477
:100D0000E10584E266E00E94E10585E26DE70E946C
:100D1000E1058AE26EE10E94E10580E36CEA0E944F
:100D2000E10582E36CE80E94E10583E36AE00E944A
:100D3000E10584E364E00E94E10585E362E20E944C
:100D4000E10586E36DE20E94E10587E364ED0E9420
:100D5000E10588E360E00E94E10589E360E00E942C
:100D6000E1058EE360E10E94E1058DE66FE00E94FF
:100D7000E1058EE66CE30E94E1058FE66FE90E94D3
:100D8000E10589E660E60E94E10580E76EE20E94E7
:100D9000E10589E760E00E94E1058AE766E00E94DC
:100DA000E10581E763E20E94E10582E76EE00E94CF
:100DB000E10585E763E50E94E10586E76CE40E94B2
:100DC000E10587E760EE0E94E105089587E061E0B4
:100DD0000E94E1058EE764E20E94E10588E063E09D
:100DE0000E94E10588E060E00E94E10587E065E09F
:100DF0000E94E10585E062E00E94E10583E00E9437
:100E00001F068093AD0384E00E941F068093AE030B
:100E1000089583E00E941F068093AD0384E00E9442
:100E20001F068093AE0387E061E00E94E10508950C
:100E3000482F8091ED039091EE03481721F49C5EBA
:100E40009093EE0308952091EF033091F003290F62
:100E5000311D3093F0032093EF0301C0789480910B
:100E6000840090918500B901681B790B623271058D
:100E7000A8F7F8948091840090918500281739078D
:100E8000C9F7442311F05D9801C05D9A4093ED03CA
:100E900084E18093EE030895EF92FF920F931F93E6
:100EA000CF93DF93E82E80E00E941807FF2410E024
:100EB00001E0CE2DD0E0802F90E08C239D23892B64
:100EC00029F081E00E9418071F5F03C080E00E94A4
:100ED0001807F39488E0F81611F0000FECCF812F7B
:100EE00081700E94180781E00E94180781E00E942B
:100EF0001807DF91CF911F910F91FF90EF90089508
:100F0000DF92EF92FF920F931F93CF93DF93809125
:100F10002803823009F079C08FE08093D403909148
:100F20004403992311F018E001C010E01093EB0383
:100F30001092EC0380917A028230A0F0992391F410
:100F4000EFE9F3E0A5EDB3E081918D9383E0ED3A15
:100F5000F807D1F71091AC031F734AE0FEE0DF2ED3
:100F600000E404C040E0DD24D39401E080919A03C2
:100F7000E82EFF24E3E0EE0CFF1CEA95E1F7C091B8
:100F80002603D091270373E0CC0FDD1F7A95E1F79C
:100F90004C30A0F4E42FF0E0EE0FFF1FE35DFD4FB7
:100FA00080819181805E9640880F991F880F991FDC
:100FB00065E070E00E943526CB0107C04D3011F48A
:100FC000C70103C04E3019F4CE0120E00AC04F30F3
:100FD00019F480E096E0F9CF80E090E0F6CF9695A6
:100FE000879580FD102B003849F4ED2DF0E0EC5290
:100FF000FC4F1083D39410E001E001C0000F2F5F7D
:101000002B3069F74F5F403118F2DF91CF911F917C
:101010000F91FF90EF90DF90089520E030E0F8947A
:10102000F901E35DFD4FD901AB5EBD4F8D919C9100
:101030009183808378942E5F3F4F2831310579F773
:10104000E0918E02EE23A1F0F894F0E0EE0FFF1F86
:10105000E55DFD4F809126039091270386509F4FB9
:10106000A3E0880F991FAA95E1F791838083789474
:1010700081E080932A030E9480070895EF92FF92F7
:101080000F931F93CF93DF938091CE038093B3038D
:10109000909147039093B40380914403882389F48B
:1010A00080912A03882369F0C5EBD3E023E733E07E
:1010B00010EEE12E1FEFF12EE20EF31EF901870173
:1010C00004C090689093B403EFCFB8978081B8962E
:1010D0008883188A18866081662339F0D8018D913B
:1010E0009C9170E00E94352668876085662349F0F0
:1010F000D80150968D919C91519770E00E943526B1
:10110000688B219631960E5F1F4FB3E0CD3BDB0716
:10111000E1F6F701118A108AD7011D921D927D0117
:10112000F9011082108628523040D9011C92275DA7
:101130003F4FB3E6EB16B3E0FB0659F710924803B6
:10114000109247031092CD03DF91CF911F910F9121
:10115000FF90EF9008950F931F93CF93DF9305E1D6
:1011600012E0C0E4D0E0F801418188EF93E0BE01D5
:101170000E94071E219688EF93E0BE01F80140818E
:101180000E94071E0E5F1F4F2196F2E00D321F07CF
:1011900051F7DF91CF911F910F910895462FBC0118
:1011A0006F5E7F4F88EF93E00E94071E0895DF92E5
:1011B000EF92FF920F931F938C01D62E472F88EF4B
:1011C000E82E83E0F82EC701B8010E94071E0F5FCA
:1011D0001F4FC701B8014D2D0E94071E1F910F918F
:1011E000FF90EF90DF900895EF92FF920F931F937F
:1011F000CF93DF9305E712E0EE24FF24C0E0D0E0B8
:10120000CE01F80160810E94CE08F80181918F0122
:10121000E80EF11C2196C730D10591F7CCE7D2E05A
:101220000BE010E0C80168810E94CE088991E80EA9
:10123000F11C0F5F1F4FF2E0C438DF0799F7C4E8D5
:10124000D2E003E110E0C80168810E94CE088991D4
:10125000E80EF11C0F5F1F4F82E0CA38D80799F7DC
:1012600089E190E060918F020E94CE0880918F0208
:10127000E701C80FD11D8AE190E0609190020E94C1
:10128000CE0880919002C80FD11D8CE190E0609152
:1012900091020E94CE0880919102C80FD11D0CE8E6
:1012A00012E098E2E92EF12CC701F80160810E945A
:1012B000CE08F80181918F01C80FD11D0894E11C5F
:1012C000F11CF2E00F381F0779F78AE090E0BE01C9
:1012D0000E94D708DF91CF911F910F91FF90EF905F
:1012E0000895AF92BF92CF92DF92EF92FF921F9339
:1012F000CF93DF9345E1C42E42E0D42E30E4E32EB9
:10130000F12C28EBA22E2BE0B22E88EF93E0B70150
:101310000E94001E182FB7016F5F7F4F88EF93E088
:101320000E94001ED12FC0E09E01280F311DC9016F
:10133000F601318320838C5697408959984018F0E4
:10134000F601B182A08222E030E0E20EF31EC20E6E
:10135000D31E38E5E316F104C1F6DF91CF911F915A
:10136000FF90EF90DF90CF90BF90AF900895BC01B9
:101370006F5E7F4F88EF93E00E94001E0895DF921A
:10138000EF92FF920F931F938C0158EFE52E53E0DD
:10139000F52EC701B8010E94001ED82E0F5F1F4F07
:1013A000C701B8010E94001E3D2D20E0280F311D0D
:1013B000C9011F910F91FF90EF90DF9008950F9357
:1013C0001F93CF93DF9300E010E0C0E0D0E0CE01A8
:1013D0000E94B709FE01EB58FD4F8083080F111DD5
:1013E0002196C730D10599F7CBE0D0E0CE010E941D
:1013F000B709FE01EF58FD4F8083080F111D21969C
:10140000C331D10599F7C3E1D0E0CE010E94B709FD
:10141000FE01EF58FD4F8083080F111D2196C93141
:10142000D10599F780918502883008F057C0863041
:1014300008F055C0823010F491E002C091E0891BA1
:1014400080938602981708F4891B80938702109274
:10145000880289E190E00E94B70980938F02080F0B
:10146000111D8AE190E00E94B70980939002080F55
:10147000111D8CE190E00E94B709982F81508830AF
:1014800020F490939102090F111DC8E2D0E0CE0123
:101490000E94B709FE01EC59FD4F8083080F111D12
:1014A0002196CB32D10599F78AE290E00E94B709E4
:1014B00080938E0281508C3010F010928E028AE060
:1014C00090E00E94BF0920E08017910709F421E015
:1014D000822FDF91CF911F910F91089587E092E0C5
:1014E000AECF0F931F93CF93DF932091120222234D
:1014F00079F100E010E0E0E0F0E08491080F111DC8
:10150000319680E4E030F807C1F7922F80E0209117
:101510001102EC01C20FD11D86E090E00E94BF09CC
:10152000C817D90761F086E090E0BE010E94D70895
:1015300088E090E0B8010E94D70881E00AC088E006
:1015400090E00E94BF098017910711F08FEF01C052
:1015500080E0DF91CF911F910F9108950F931F931A
:10156000E2E0F0E081E2809357008491843931F425
:1015700088EF91E0909372028093710288EF93E07C
:101580006CE070E00E94001E082F10E010937402BF
:101590000093730288EF93E06DE070E00E94001EFC
:1015A000382F20E0200F311F3093740220937302F4
:1015B0002835310538F08091710290917202281718
:1015C0003907C0F088E590E090937402809373022D
:1015D00088EF93E06CE070E048E50E94071E4091C0
:1015E000740288EF93E06DE070E00E94071E109295
:1015F000CE0316C0C901CE976AE170E00E9435267D
:10160000882331F0281B3109309374022093730230
:1016100088EF93E06EE070E00E94001E8093CE039E
:101620008091CE038F5F8093CE03843610F01092AA
:10163000CE03A3E5B3E0FD01B09651961C921E9235
:1016400050971D921D9210821086B8971082B996FD
:1016500083E0A336B80789F7109248031092470336
:1016600010924A03109249038AE18093CD030E94AD
:10167000D81E6093CF037093D0038093D1039093CF
:10168000D2031F910F91089580914603813019F480
:1016900082E08093460380914603833069F484E0BE
:1016A000809346030E94D81E60939B0370939C0313
:1016B00080939D0390939E03089580912803823028
:1016C00011F0E0E015C00E94E61EE0E02091AF03BB
:1016D0003091B0034091B1035091B203621B730B80
:1016E000840B950B635679418040904008F0E1E00F
:1016F0008E2F0895EF92FF920F931F93809179029E
:10170000882309F496C00E945D0B882309F091C0DC
:101710008AC0F0E060917302709174026E0F7F1FB7
:10172000ED54FC4F88EF93E040810E94071E8091AA
:10173000CD038F5F8093CD038A3109F04CC0809137
:101740007302909174024A9690937402809373028C
:10175000209171023091720282179307E0F188E5BF
:1017600090E0909374028093730235C0EA3139F4AB
:101770004091740288EF93E06DE070E008C0EB31B7
:1017800071F488EF93E06CE070E0409173020E9486
:10179000071E8091CD038F5F8093CD031CC0EC3179
:1017A000D1F48DE18093CD038091490390914A0358
:1017B000892B41F488EF93E06EE070E04091CE0316
:1017C0000E94071E8091490390914A0301969093CD
:1017D0004A038093490320912B0330912C034091BD
:1017E0002D0350912E038091CF039091D003A091AF
:1017F000D103B091D20379018A01E81AF90A0A0BE0
:101800001B0BD801C70180569A4EA040B04088F00B
:101810002093CF033093D0034093D1035093D2034E
:101820000E943E0806C0E091CD03EA3108F09ECF49
:1018300070CF1F910F91FF90EF9008950F931F931A
:10184000CF93DF9380912803823009F057C08091B5
:101850002A03882309F452C00E94E61EAB01BC0192
:101860008091AF039091B003A091B103B091B20306
:101870008A019B01081B190B2A0B3B0BD901C801DC
:1018800083569941A040B040C8F120918400309126
:10189000850080911302909114028F5F9841821706
:1018A000930760F11EC08091EB0384608093EB038B
:1018B0001092ED031092EE03F894809184009091C1
:1018C00085009093F0038093EF035D9AC4EDD3E01D
:1018D00089910E944C0723E0CD3ED207C9F7789446
:1018E0000DC04093AF035093B0036093B103709366
:1018F000B203809145038823B1F6DACFDF91CF910F
:101900001F910F910895EF92FF920F931F938C01F7
:101910000E94E61E780100E010E0E60EF71E081FA8
:10192000191F02C00E941E0C0E94E61E6E157F0544
:1019300080079107B8F31F910F91FF90EF900895E2
:10194000EF92FF920F931F93CF93DF937B01142F9E
:101950009C01442737FD4095542F60E271EA87E0EF
:1019600090E00E947E26E9012530310514F4C5E09F
:10197000D0E0177018608DE6612F0E94E1052D9A66
:1019800061E070E080E090E00E940C1F2D98A89527
:10199000B701882777FD8095982F20E930ED43E047
:1019A00050E00E940A269E01442737FD4095542F9F
:1019B0000E947E26790100E010E00AC0419ACE0123
:1019C0000E94830C4198CE010E94830C0F5F1F4F31
:1019D0000E151F0598F3DF91CF911F910F91FF9086
:1019E000EF90089583E00E941F068093AD0384E08A
:1019F0000E941F068093AE0386E060E00E94E1052E
:101A000087E061E00E94E10589E0609147020E9461
:101A1000E1058AE065E00E94E1058BE062E10E9459
:101A2000E1058CE065E10E94E1058DE06AE00E943D
:101A3000E1058EE060E00E94E10580E76CE20E9433
:101A4000E10580E360E00E94E10589E7609184029E
:101A50000E94E1058AE766E00E94E10581E762E114
:101A60000E94E10582E762E00E94E10583E760E011
:101A70000E94E10584E760E00E94E1058EE060E0FD
:101A80000E94E10560918502677068608DE60E94A2
:101A9000E1056AE070E080E090E00E940C1F87E0C2
:101AA00069E00E94E10588EB91E061E070E040911F
:101AB00085020E94A00C8DE591E061E070E040910C
:101AC00086020E94A00C85E091E061E070E0409108
:101AD00087020E94A00C8FEA90E061E070E04091E4
:101AE00088020E94A00C87E061E00E94E105089551
:101AF0000E94090762E370E080E090E00E940C1F02
:101B00000E94E60600000895CF92DF92EF92FF92C6
:101B10000F931F93CF93DF93982FEB01D42EC22EF8
:101B2000A89589E7692F0E94E105CC2021F08DE17D
:101B300060E40E94E1050E94780D0E94D81E7B019E
:101B40008C01CE01A0E0B0E0E80EF91E0A1F1B1FB9
:101B500083E08093460307C00E94D81EE616F7066E
:101B60000807190720F0809146038330A9F380917C
:101B70004603843009F07AC08FE70E94C605CAE0A8
:101B8000D3E00E941106899383E0CA31D807C9F7D0
:101B90000E94E6068091F103882329F0CE01409748
:101BA0000E946F053EC0FE013E9790E05CE8808198
:101BB000982740E0892F90E09C013595279580FF7C
:101BC00003C0952F922701C0922F4F5F483091F7A5
:101BD000319683E0E931F80751F7992321F4809198
:101BE0007A0281701CC03E9790E05CE88081982763
:101BF00040E0892F90E09C013595279580FF03C038
:101C0000952F922701C0922F4F5F483091F7319660
:101C100083E0EA31F80751F7992341F582E0809398
:101C20007A0281E08093F103DD2021F080910A03A4
:101C3000D816E1F4CC20C1F08BE20E941F0620915F
:101C4000F3033091F403482F50E0813810F0205016
:101C50003140240F351F3093F4032093F303809118
:101C6000F2038F5F8093F20381E001C080E0DF9197
:101C7000CF911F910F91FF90EF90DF90CF9008953B
:101C80001F9380917702882309F054C08EE894E076
:101C90000E940122181619060CF04CC08EE894E040
:101CA0000E9432228D30910591F480918A028093B6
:101CB0007702809347020E94F4088EE894E060E087
:101CC00071E00E94C2240E94250681E034C08E3358
:101CD000910531F08E32910519F08E3E910521F477
:101CE00080918A028F5F0CC08C33910531F08C3269
:101CF000910519F0813A9105E9F480918A028150A9
:101D000080938A0280918A02882319F48FEF80934E
:101D10008A0210918A0289E0612F0E94E1058EE813
:101D200094E0612F4AE050E00E942F2480918A02C3
:101D30008093470280E01F9108958EE894E00E940E
:101D400001221816190614F020E00CC08EE894E069
:101D50000E9432228D36910521F020E08D349105CC
:101D600009F421E0822F0895FF920F931F93809131
:101D70002B0390912C03A0912D03B0912E03209161
:101D80009603309197034091980350919903821BD9
:101D9000930BA40BB50B4497A105B10508F446C0FD
:101DA0008EE894E00E940122082F10E0FF24F394B3
:101DB0003BC08EE894E00E943222982F80919303DA
:101DC000882359F4963179F590938303F092930325
:101DD0001092950310928B0226C0E82FF0E0ED5789
:101DE000FC4F90838F5F809393038031E0F01092DB
:101DF000930383E893E00E946F058823A1F4809108
:101E00002B0390912C03A0912D03B0912E0380936E
:101E1000960390939703A0939803B093990381E05E
:101E20008093950303C01F5F10171CF21F910F9141
:101E3000FF9008951F93182F06C08EE894E060E28B
:101E40000E946B2211501123C1F71F9108951F9317
:101E500094E6899FC00111246EEE70E00E9449262D
:101E6000162F643610F013E605C06A3018F481E0CE
:101E70000E941A0F8EE894E0612F4AE050E00E9421
:101E80001D2481E00E941A0F1F9108951F93182F9F
:101E90008A3010F482E003C0843618F481E00E9496
:101EA0001A0F8EE894E0612F4AE050E00E941D2452
:101EB00081E00E941A0F1F910895982F8091D303FB
:101EC00081119695892F0E94460F0895CF93DF9335
:101ED0008EE894E067E071E00E94BF24C8E5D0E09E
:101EE00012C088EF93E0BE014FEF0E94071ECE01A3
:101EF0008F779070892B29F48EE894E06EE20E942F
:101F00006B22A89521968091710290917202C81758
:101F1000D90738F388E590E09093740280937302B8
:101F20001092CE0388EF93E06CE070E048E50E94E9
:101F3000071E4091740288EF93E06DE070E00E940C
:101F4000071E88EF93E06EE070E04091CE030E94A0
:101F5000071E0E94AE0A8EE894E063E271E00E94E0
:101F6000C224DF91CF9108951F93CF93DF93EC01AB
:101F7000162FFE0121966491662329F08EE894E0E5
:101F80000E946B22F6CF112321F08EE894E00E948C
:101F90004023DF91CF911F9108955F926F927F92BE
:101FA0008F929F92AF92BF92CF92DF92EF92FF9269
:101FB0000F931F93CF93DF93833719F020E083357E
:101FC00009F421E0822E8C3619F090E08C3409F46B
:101FD00091E0592E823719F0BB24823519F4BB24C5
:101FE000B39402C0843619F06624843411F4662454
:101FF00063941092D3038A3518F481E08093D3035D
:10200000222341F4992331F4BB2021F488248394C2
:10201000552453948EE894E069E271E00E94BF2455
:102020008EE894E068E570E04AE050E00E948D247C
:102030008EE894E06AE371E00E94BF24609171022F
:10204000709172028EE894E04AE050E00E94EF2323
:102050008EE894E06CE371E00E94BF24609173020B
:10206000709174028EE894E04AE050E00E940024EF
:102070008EE894E064E471E00E94BF24882029F097
:1020800084EC91E060E00E94B40FBB2019F08BE378
:1020900092E004C0552031F084EF91E061E00E94AD
:1020A000B40F04C08EE894E00E944023C0917302F4
:1020B000D0917402782C770C83E0780E9924FF2459
:1020C0008E010F5F1F4F88EF93E0BE010E94001E3C
:1020D000A82E84E68A1520F4662011F46A96AFC013
:1020E000AF1099248A2D0E94460F9394892D0E9447
:1020F000460F882019F4BB2009F440C078010894E9
:10210000E11CF11C88EF93E0B8010E94001E182F1B
:102110008F770E94460F81E00E941A0F812F881F3F
:102120008827881F0E94460F872D0E941A0F88203B
:1021300089F0B7018E01065F1F4FEB01219688EFF2
:1021400093E00E94001E0E94460FC017D10799F02D
:10215000BE01F3CFB7018E01065F1F4FEB01219641
:1021600088EF93E00E94001E0E94270FC017D1073E
:1021700011F0BE01F3CFE701289602C0E8012996CD
:10218000552019F4BB2009F453C083E00E941A0FB4
:10219000882019F081E00E941A0FBB2009F18E01FE
:1021A000E8E0CE2ED12CCC0EDD1E88EF93E0B801F6
:1021B0000E94001EF82E085F1F4F88EF93E0B801C1
:1021C0000E94001E07501040F81610F480E002C074
:1021D000F81A8F2D0E945D0F0C151D0531F728C0D0
:1021E000BE018E01085F1F4F7B010894E11CF11CAA
:1021F00088EF93E00E94001E0E945D0FE016F1063A
:1022000011F0B701F1CF84E00E941A0FB801609677
:102210008B010F5F1F4F88EF93E00E94001E0E940A
:102220005D0FB8010C171D0799F7E701289601C04B
:1022300060968EE894E00E944023A895FA2C809145
:10224000710290917202C817D90710F0C8E5D0E06A
:102250008091730290917402C817D90709F030CFAA
:10226000DF91CF911F910F91FF90EF90DF90CF9072
:10227000BF90AF909F908F907F906F905F900895E8
:1022800087EE90E061E00E94B40F8AEF90E060E09A
:102290000E94B40F8EE894E0609111024AE050E091
:1022A0000E942F240895FF920F931F93CF93DF93E3
:1022B00088E791E060E00E94B40F88E091E060E080
:1022C0000E94B40F8EE894E0609111024AE050E061
:1022D0000E942F24FF2401E010E0CF2DD0E0FE016A
:1022E000E856FD4F808190E08017910729F58EE830
:1022F00094E0B8014AE050E00E948D248EE894E01A
:102300006DE30E946B22C8010E94B709682F8EE816
:1023100094E04AE050E00E941D248EE894E069E0D9
:102320000E946B22CC0FDD1FC155DD4F8881998142
:1023300061E00E94B40FF3940F5F1F4F0B32110541
:1023400061F6DF91CF911F910F91FF900895AF92A9
:10235000BF92CF92DF92EF92FF920F931F93CF9392
:10236000DF935C0101960E9479029C0101978E3FE8
:10237000910510F010E01EC0122F82E090E0F501F0
:10238000E80FF91FE081EE23A9F00196ED3279F410
:102390008A0D9B1D0E9479029C01812F90E082177B
:1023A000930740F42F3F310528F4C22E05C08A3030
:1023B000910529F72EEFC22E0E9425060E94780D66
:1023C0008EE060E00E94E10586ED90E061E00E9411
:1023D000B40FE12EAEC089E76E2D0E94E1058DEEAF
:1023E00092E00E94651F0FEFFF24C0E0D0E010E0F4
:1023F00083E690E00E94651F86E20E941F06C80FD8
:10240000D11D801708F4082FF81608F4F82E1F5F66
:10241000173C71F789E08E1538F08EE894E06DE492
:1024200071E00E94BF2408C0E3E6EE1528F08EE8B4
:1024300094E060E20E946B228EE894E06E2D4AE008
:1024400050E00E941D24ECE7F2E06AE380818E15E3
:1024500009F463E2319682E0E438F807B9F78EE8D0
:1024600094E00E946B228EE894E060E20E946B226E
:10247000802F0E94460FCE0167EC70E00E94352647
:10248000162F862F0E94460F8F2D0E94460FF501B2
:1024900080818E3409F047C00A3010F4DD2408C072
:1024A000083418F09DE3D92E03C086EFD82ED00E45
:1024B000F9E0FF1510F000E007C087E48F1510F475
:1024C0000DE302C00F2D0A501A3010F4FF2408C08B
:1024D000183418F0BDE3FB2E03C0A6EFFA2EF10E60
:1024E00010E01F1521F48EE894E06AE217C01D1574
:1024F00021F48EE894E06CE311C0101721F48EE80B
:1025000094E06EE30BC0D11630F4101720F48EE87F
:1025100094E06EE203C08EE894E060E20E946B22D9
:102520001F5F0117F0F68EE894E00E944023A89503
:10253000E394CE1408F04FCFDF91CF911F910F910C
:10254000FF90EF90DF90CF90BF90AF900895EF9203
:10255000FF920F931F93CF93DF937C01FC011082B6
:1025600000E010E08EE894E00E940122181619069F
:10257000CCF58EE894E00E941222469739F481E768
:10258000F7018083118210928B0234C08EE894E0B0
:102590000E943222EC011816190654F58EE894E0D8
:1025A0006C2F0E946B22CD30D10519F0CA30D105B5
:1025B00029F48EE894E00E9440231CC0C830D10565
:1025C00031F40115110571F201501040CBCFF70124
:1025D000E00FF11FC08311820A3011054CF40F5F28
:1025E0001F4F06C061E070E080E090E00E940C1F89
:1025F000A895B8CFDF91CF911F910F91FF90EF90E9
:102600000895FF920F931F938730A8F5880F082F26
:1026100010E0000F111FF801E352FD4FF0808F2DE5
:1026200060E00E940A208F2D61E00E944920015243
:102630001D4FF8010081802F61E00E94492087EC46
:1026400090E00E94651F8F2D0E949D20019779F4D4
:10265000802F60E00E94492087EC90E00E94651F77
:102660008F2D0E949D20892B11F481E005C08F2DB4
:1026700061E00E940A2080E01F910F91FF90089571
:102680002F923F924F925F926F927F928F929F9282
:10269000AF92BF92CF92DF92EF92FF920F931F9370
:1026A000DF93CF93CDB7DEB762970FB6F894DEBF56
:1026B0000FBECDBF80E091E00E941323988B8F87DF
:1026C00085E00E9401131B86882311F481E08B872B
:1026D0007894AF85B889A150BF4FBA8BA98B10925F
:1026E000F1031092F2031092F4031092F30380911D
:1026F00077028A5A8D3318F087EC809377020E9414
:1027000025060E94780D8EE060E00E94E1058DE1D3
:1027100060E00E94E1050E94E606BB85BB2331F024
:102720008EE894E060E571E00E94BF24EF85F889AF
:10273000FA87E987119289899A89E817F907D1F709
:102740000E94D81E5B016C018FE19EE4A0E0B0E026
:10275000A80EB91ECA1EDB1E66241C86A8950F850E
:102760001889FF249924EE24D8018C918A3FA8F47B
:1027700089E76F2D0E94E10589E892E00E94651FBC
:1027800086E20E941F06982FF8018081891708F4BD
:102790009083E91610F49F2CE92EF3940F5F1F4FDE
:1027A000FFEFFF1609F72D98662009F58B85882322
:1027B000D1F08EE894E064E671E00E94BF248EE8D8
:1027C00094E0692D4AE050E00E941D248EE894E0D8
:1027D0006FE671E00E94BF248EE894E06E2D4AE01F
:1027E00050E00E942F2495E99E1528F078CFA5E9A6
:1027F000AE1508F0B3CF892D63E071E04C8520E081
:102800000E94840D8823D9F0B0910A03BC87EB8520
:10281000EE2361F08EE894E0692D4AE050E00E94DA
:102820001D248EE894E060E20E946B22E1E0F0E07B
:10283000EC0FFD1FE60DF11D908263942D9AEF853C
:10284000F889E90DF11D8FEF8083662009F447CFE9
:102850000E94D81EA616B706C806D90660F4862DB3
:102860008150823060F094E0691649F0A8E06A1661
:1028700009F035CF04C0B7E0B61508F06FCF0E945D
:10288000D81E4B015C018AE09AE1A0E0B0E0880E1E
:10289000991EAA1EBB1E79809B85992331F08EE874
:1028A00094E062E771E00E94BF2472E0C72ED12C51
:1028B000CC0EDD1E16014F845888A1E0AE871D8620
:1028C00060C00E94D81E86169706A806B90608F4AE
:1028D00006CF872D63E071E04C8521E00E94840DD6
:1028E000882379F30E94D81E7B018C01F10180813D
:1028F00067E572E04C8521E00E94840D8823C1F1D8
:102900000E94D81E28EF3FEF4FEF5FEF2E193F09CF
:10291000400B510B260F371F481F591F65E0569576
:102920004795379527956A95D1F7622F283008F09B
:102930006850EF85F88990E08191861709F4ACCF53
:102940009F5F8E859817C0F3D20111966C93BB855B
:10295000BB2359F08EE894E04AE050E00E941D2429
:102960008EE894E060E20E946B22ED85EF5FED87D8
:10297000FE85FF5FFE870894211C311C0894411CD2
:10298000511C8E85861508F49CCF9B85992321F0D8
:102990008EE894E00E94402370927C02A1E06A16C7
:1029A00041F4EDE7F2E07192B2E0E438FB07D9F7C9
:1029B00050C0E2E06E1691F48A8170927C0280939E
:1029C0007D0270927E0280937F02709280028093DB
:1029D000810270928202809383023BC0F4E06F1602
:1029E000E9F49E012B5F3F4FA985BA851196EC91C2
:1029F000EF5FE43038F4F0E0D6018C91E458FD4FFD
:102A000080838483E985FA853196FA87E98708947B
:102A1000C11CD11CC216D30639F71BC0FD85F73087
:102A200008F45DCE9E01275F3F4FA985BA851196B8
:102A3000EC91EF5FF0E0E458FD4FD6018D916D0110
:102A40008083E985FA853196FA87E987A217B3076B
:102A500061F76091F2038091F3039091F40370E0C9
:102A60000E9449267093F4036093F303FC85F0936E
:102A70007602CB0182968534910528F48091770205
:102A8000861B809377028B858823D9F18EE894E0AA
:102A90006CE771E00E94BF248EE894E06C854AE008
:102AA00050E00E941D248EE894E062E871E00E94EC
:102AB000BF248EE894E0609177024AE050E00E94E3
:102AC0001D248EE894E06AE871E00E94BF240CE7C0
:102AD00012E08EE894E0D8016D918D014AE050E05B
:102AE0000E941D248EE894E060E20E946B22B2E016
:102AF00004381B0771F78EE894E066E971E00E94E4
:102B0000C22410927B021092780280917902823066
:102B100010F0109279028F8598890E9410230E94EC
:102B2000F408439A439A62960FB6F894DEBF0FBE3C
:102B3000CDBFCF91DF911F910F91FF90EF90DF906C
:102B4000CF90BF90AF909F908F907F906F905F904D
:102B50004F903F902F900895CF92DF92EF92FF9287
:102B60000F931F93DF93CF93CDB7DEB72C970FB69C
:102B7000F894DEBF0FBECDBF8EE091E061E00E9411
:102B8000B40F8E010F5F1F4FC8010E94A7128981E9
:102B9000813709F486C0813509F483C068010E9439
:102BA000531188E291E061E00E94B40FC6010E94D7
:102BB000A71289818E3611F08E3421F4C6010E944D
:102BC000A711F4CF833711F0833549F48A81853614
:102BD00019F40E94660FEACF0E94CD0FE7CF82372B
:102BE000F9F48A818536E1F48B818236C9F48C81CF
:102BF0008936B1F48D818E3699F48E81843681F4D4
:102C000081EA91E060E00E94B40FC6010E94A71221
:102C10008981893711F0893519F40E94401341C028
:102C200089818137F1F18135E1F1C6010E94790294
:102C30007C018BE2E816F10408F0B1CFC6010E94D6
:102C4000A7128981813769F1813559F1C6010E9446
:102C500079028C018F3F910511F008F0A0CFE114AB
:102C6000F10419F4009709F49ACF8EE894E0B701C3
:102C70004AE050E00E948D248EE894E06DE30E94CB
:102C80006B228EE894E0B8014AE050E00E94A02454
:102C9000C701602F0E94CE080E94DF090E94F4083D
:102CA0007ECF2C960FB6F894DEBF0FBECDBFCF916E
:102CB000DF911F910F91FF90EF90DF90CF900895DB
:102CC0001F93CF93DF93EC0110E011C0A8956DE73F
:102CD00070E080E090E00E940C1FCB30D10568F0DE
:102CE0000E949D0E882349F00E94AC1510C0812FD0
:102CF00090E08C179D0750F30AC0439A6DE770E08F
:102D000080E090E00E940C1F43981F5FF0CFDF919E
:102D1000CF911F910895EF92FF920F931F930E94FE
:102D2000710A182F8F3F69F480919403882329F446
:102D30008AE890E061E00E94B40F8FE295E70E947C
:102D4000601682E00E940113882391F084E090E0F5
:102D50000E9460160E94F40880919403882329F44D
:102D60008AEB90E061E00E94B40F84E090E079C0CB
:102D70000E94DF09882309F076C08091940388239C
:102D800029F485EA90E061E00E94B40F113009F067
:102D900066C00E94D81E7B018C018FE097E2A0E004
:102DA000B0E0E80EF91E0A1F1B1F0BC081E090E087
:102DB0000E9460160E949D0E882319F00E94AC1597
:102DC00052C00E94D81E6E157F058007910770F3D0
:102DD00088E48093760287EC8093770291E0909369
:102DE000790210927B0210927A02109278028BE4A0
:102DF00080938F0282ED8093900284E68093840218
:102E000084E08093850282E080938602909387021B
:102E1000109288028EE18093890287E080938C0271
:102E200090938D0210928E028DE480937C0283E950
:102E300080937D0289E580937E0287EA80937F02FA
:102E40008DE6809380028DEB809381028FE78093E3
:102E5000820281ED809383020E94F40804C088E717
:102E600090E00E9460161F910F91FF90EF900895DF
:102E70001F93482FF62FE0918C02EE2321F4882334
:102E800051F41FE724C0882341F4683031F41092D4
:102E9000F6031092F50310E01AC02091F50330916B
:102EA000F603C9016E2F70E00E943526261B370BF2
:102EB000F49FC0011124280F391F3093F60320938B
:102EC000F503C9016E2F70E00E943526162F83E0AE
:102ED000612F70E00E94AA1F10932603109227030F
:102EE0001F9108952F923F924F925F926F927F921F
:102EF0008F929F92AF92BF92CF92DF92EF92FF920A
:102F00000F931F93CF93DF9380E00E940113809370
:102F10002803882321F08AE0809345021DC086E0C3
:102F20000E9401138823C1F082E08093280384E08B
:102F30008093450280E69DE69093140280931302ED
:102F4000909387008093860010925F0280914A02DE
:102F5000806280934A025D9884E00E94011380930E
:102F6000940381E090E00E94601685E00E940113C6
:102F7000882311F00E9440138EE894E040E056E967
:102F800060E070E00E947A2180919403882331F4FC
:102F90000E94401181E090E00E9460160E948B1612
:102FA00080917702809347020E94AE0A0E946203DA
:102FB0000E9471090E94250610922A032EE088E1E2
:102FC00090E00FB6F894A895809360000FBE209310
:102FD000600080919403882309F0A6C08EE894E0F5
:102FE0006BE971E00E94BF248EE894E06091750265
:102FF0004AE050E00E942F240E9453118EE894E092
:1030000060EA71E00E94BF2419E0E0E0F0E0109374
:10301000570064918EE894E040E150E00E941D2446
:103020008EE894E060E20E946B22E3E0F0E010930F
:10303000570064918EE894E040E150E00E941D2426
:103040008EE894E060E20E946B22E2E0F0E01093F0
:10305000570014918EE894E0612F40E150E00E9407
:103060002F248EE894E068EA71E00E94BF2484E097
:103070000E941F06682F70E0617070708EE894E007
:103080004AE050E00E94A0248EE894E06DEA71E0EE
:103090000E94C22480E00E941F06682F8EE894E000
:1030A0004AE050E00E942F2481E00E941F06682F12
:1030B0008EE894E04AE050E00E942F2482E00E94D3
:1030C0001F06682F8EE894E04AE050E00E942F240B
:1030D0008EE894E063EB71E00E94BF2481E10E94DE
:1030E0001F06682F70E0605470408EE894E04AE05C
:1030F00050E00E94A02488E690E061E00E94B40FB6
:1031000080912803813031F48EE894E066EB71E021
:103110000E94C22480912803823031F48EE894E02A
:103120006EEB71E00E94C224442481E08093460249
:103130000E94E6060E94780D789483E0809346030F
:103140000E94D81E60932B0370932C0380932D0351
:1031500090932E0360932F03709330038093310379
:103160009093320360933303709334038093350359
:103170009093360360933703709338038093390339
:1031800090933A035524AA24BB243324339483E038
:10319000282EA8958CE00E941F06882371F40E94B7
:1031A00025060E94780D80919403882331F48EE8DF
:1031B00094E067EC71E00E94C22480914603843061
:1031C00009F0F1C143982D9A8FE70E94C605CAE025
:1031D000D3E00E941106899323E0CA31D207C9F7D0
:1031E0000E94E606109129030E94EC0580919B0342
:1031F00090919C03A0919D03B0919E03809337030F
:1032000090933803A0933903B0933A032092460376
:103210006097CE010E946F05882351F0809194033E
:10322000882309F0BCC18EE894E06EEC71E00FC019
:1032300090910A0380917602981761F0809194032F
:10324000882309F0ACC18EE894E063ED71E00E9440
:10325000C224A5C1CE010E94DC03882389F044204A
:1032600081F480919403882331F48EE894E069ED31
:1032700071E00E94C2240E94AB084424439401C020
:10328000442460912003709121036115710551F070
:1032900080911E0390911F030E94352670931F0397
:1032A00060931E0380911E0390911F03909321034E
:1032B00080932003609124037091250361157105AB
:1032C00069F080912203909123030E943526609338
:1032D00022037093230360939A0306C080919A039C
:1032E0008093220310922303209122033091230321
:1032F00080911E0390911F038217930728F4109268
:103300001F0310921E0306C0821B930B90931F0392
:1033100080931E0380918D02882329F080911E03E3
:1033200090911F0304C080912003909121039093FA
:103330002703809326038091260361E00E943817BB
:103340008BE20E941F06C82FD0E08091940388234F
:1033500009F04DC08EE894E06EED71E00E94BF244C
:1033600060912003709121038EE894E04AE050E0E0
:103370000E94EF238EE894E061EE71E00E94BF248A
:103380006091490370914A038EE894E04AE050E06E
:103390000E94EF238EE894E065EE71E00E94BF2466
:1033A000612F70E06F5F7F4F8EE894E04AE050E05D
:1033B0000E948D248EE894E069EE71E00E94BF24A3
:1033C0008EE894E0BE014AE050E00E948D248EE831
:1033D00094E06DEE71E00E94BF2460912203709131
:1033E00023038EE894E04AE050E00E940024A12FDD
:1033F000B0E0FD01EE0FFF1FED5AFC4F808191817F
:103400002091200330912103820F931F91838083A9
:10341000FD01EE0FFF1FED59FC4F8081918120913E
:10342000220330912303820F931F91838083A95B32
:10343000BC4F9C968C919C978F5F9C968C939C978D
:10344000D4968C91D4978F5FD4968C9310921F034F
:1034500010921E0310922103109220031092230356
:1034600010922203109225031092240340917702B8
:10347000442309F453C0C038D10514F0C050D140E2
:10348000CE014996C39718F020E030E006C09E01B7
:10349000B4E0220F331FBA95E1F75394C50160E100
:1034A00070E00E944926A61AB70AC90160E170E0DF
:1034B0000E944926A60EB71EC501B7FE04C0882784
:1034C00099278A199B098134910554F180E2851569
:1034D00038F5C50160E170E00E944926EB01D09506
:1034E000C195DF4F642F6C0F6093770289E00E94D3
:1034F000E10580919403882369F48EE894E062EFFB
:1035000071E00E94BF248EE894E0BE014AE050E0E2
:103510000E94A0245524AA24BB2402C03092450353
:1035200010924403109243030E94D81E60932B0311
:1035300070932C0380932D0390932E036093330399
:1035400070933403809335039093360360933B0369
:1035500070933C0380933D0390933E0360933F033D
:10356000709340038093410390934203109246026C
:1035700010921D0310921C03109245030E940D0827
:1035800080919403882359F026E120930A038EE862
:1035900094E06AE073E040E150E00E9416232D9829
:1035A0000E941E0CF6CD0E94D81E7B018C016093F8
:1035B0002B0370932C0380932D0390932E03609024
:1035C0003703709038038090390390903A030E943B
:1035D0001E0C0E94400E882309F0A7CD80918B021B
:1035E000882311F180912B0390912C03A0912D033E
:1035F000B0912E0320912F0330913003409131037D
:1036000050913203821B930BA40BB50B8F50974242
:10361000A040B04048F40E949D0E882339F00E94DB
:10362000AC150E94250681CD0E94B40E80919503B1
:10363000882309F44FC080913F0390914003A091EB
:103640004103B09142038196A11DB11D20919603C3
:1036500030919703409198035091990382179307F3
:10366000A407B507B8F583E893E00E94DC030E9445
:103670000D08109295031092440310924303809119
:103680002B0390912C03A0912D03B0912E038093D6
:10369000330390933403A0933503B09336038093A0
:1036A0003B0390933C03A0933D03B0933E03809172
:1036B0009403882339F48EE894E069EF71E00E9466
:1036C000C22408C08EE894E063E873E040E150E073
:1036D0000E94162380912B0390912C03A0912D031F
:1036E000B0912E0320913303309134034091350380
:1036F00050913603821B930BA40BB50B8855924057
:10370000A040B040B0F180914403882391F58091AE
:103710002A03882371F180919403882331F48EE881
:1037200094E06EEF71E00E94C224309244038091D5
:103730002B0390912C03A0912D03B0912E03809325
:103740003B0390933C03A0933D03B0933E030E9440
:1037500071090E940D08439880E068E00E943817C4
:10376000809147039091480301969093480380937A
:10377000470380912B0390912C03A0912D03B091CE
:103780002E0320913F03309140034091410350911B
:103790004203821B930BA40BB50B885B9B40A0409C
:1037A000B04010F03092460267017801C618D70881
:1037B000E808F908D701C6010297A109B1090497E1
:1037C000A105B105D0F483E690E00E94651F009149
:1037D00022031091230386E20E941F06080F111D89
:1037E00010932303009322038091240390912503D7
:1037F00001969093250380932403809146028823A9
:1038000019F02FEF30E02EC0D701C6010C97A109A7
:10381000B1090B97A105B105D8F483E690E00E94A9
:10382000651F00911E0310911F0386E20E941F0670
:10383000080F111D10931F0300931E038091200396
:10384000909121030196909321038093200308C057
:1038500089E1C816D104E104F10414F40E947A0B42
:1038600023E230E0C901AA2797FDA095BA2FC81618
:10387000D906EA06FB060CF4DCC0809146028823D8
:1038800019F580914403882309F4439A8091290310
:1038900020913703309138034091390350913A0316
:1038A00080FF05C0205E3F4F4F4F5F4F04C0215E39
:1038B0003F4F4F4F5F4F2093370330933803409370
:1038C000390350933A0310C080912B0390912C033D
:1038D000A0912D03B0912E0380933703909338036A
:1038E000A0933903B0933A03109129030E94EC0589
:1038F000C12FD0E0FE01E95BFC4F84818F5F8483A0
:10390000309245036091460227E0629FB001112486
:103910006F5F80E00E94381780919403882309F03C
:1039200063C08EE894E064E072E00E94BF2460917E
:103930001C0370911D036F5F7F4F70931D03609395
:103940001C038EE894E04AE050E00E94EF2360916F
:103950002403709125036115710569F0809122039C
:10396000909123030E9435266093220370932303D2
:1039700060939A0306C080919A0380932203109269
:1039800023038EE894E061EE71E00E94BF24609111
:10399000490370914A038EE894E04AE050E00E94A7
:1039A000EF238EE894E065EE71E00E94BF24BE0133
:1039B0006F5F7F4F8EE894E04AE050E00E948D24D4
:1039C0008EE894E06DEE71E00E94BF2460912203C6
:1039D000709123038EE894E04AE050E00E94EF23C8
:1039E0008EE894E00E944023FE01EE0FFF1FED5988
:1039F000FC4F808191812091220330912303820F1B
:103A0000931F91838083FE01E95BFC4F84A98F5F44
:103A100084AB10921F0310921E0310922103109288
:103A20002003109223031092220310922503109278
:103A3000240380914403882309F4ABCB0E947A0BC2
:103A4000E0902B03F0902C0300912D0310912E0396
:103A500080913B0390913C03A0913D03B0913E03C4
:103A6000E81AF90A0A0B1B0B609189028091430343
:103A7000882349F088E8E81683E1F80680E0080723
:103A800080E018077CF470E080E090E028EE33E0FE
:103A900040E050E00E940A266E157F0580079107DE
:103AA0000CF077CB30924303809184028F3F61F01A
:103AB00080919403882331F48EE894E068E072E00A
:103AC0000E94C2240E94F20C80919403882331F456
:103AD0008EE894E06CE072E00E94C2240E94250609
:103AE0000E94E60680912B0390912C03A0912D0358
:103AF000B0912E0380933B0390933C03A0933D032E
:103B0000B0933E030E94D81E60933703709338032E
:103B10008093390390933A033CCB8DE061E00E949F
:103B20000A2081E161E00E940A208EE060E00E94AC
:103B30000A208FE061E00E940A2080E161E00E949B
:103B40000A2082E060E00E940A2084E061E00E9496
:103B50000A2080E060E00E940A2081E061E00E948B
:103B60000A2080E061E00E94492083E061E00E9439
:103B70000A2085E061E00E940A2086E061E00E9460
:103B80000A2087E061E00E940A2088E061E00E944C
:103B90000A2089E061E00E940A208AE061E00E9438
:103BA0000A208BE061E00E940A208CE061E00E9424
:103BB0000A2082E161E00E940A2083E161E00E9424
:103BC0000A20E1E8F0E01082109285001092840053
:103BD0008091130290911402909387008093860045
:103BE00082E0809380008AE1808381E080936F008F
:103BF00080E064E47BE042E050E00E94131E089500
:103C0000F999FECF72BD61BDF89A80B50895F99912
:103C1000FECF1FBA72BD61BD40BD0FB6F894FA9ACF
:103C2000F99A0FBE0895823000F5E82FF0E0EE0F0C
:103C3000FF1FE750FC4F71836083882319F08130A8
:103C4000A1F408C0809169008C7F842B8093690067
:103C5000E89A089580916900440F551F440F551F3D
:103C6000837F842B80936900E99A08951F920F92B5
:103C70000FB60F9211242F933F934F935F936F933F
:103C80007F938F939F93AF93BF93EF93FF93809115
:103C9000F9039091FA03892B29F0E091F903F0914F
:103CA000FA030995FF91EF91BF91AF919F918F9189
:103CB0007F916F915F914F913F912F910F900FBE28
:103CC0000F901F9018951F920F920FB60F9211240C
:103CD0002F933F934F935F936F937F938F939F9314
:103CE000AF93BF93EF93FF938091FB039091FC03FD
:103CF000892B29F0E091FB03F091FC030995FF91DA
:103D0000EF91BF91AF919F918F917F916F915F9153
:103D10004F913F912F910F900FBE0F901F901895CC
:103D20001F920F920FB60F9211242F933F938F93F0
:103D30009F93AF93BF938091010490910204A0914F
:103D40000304B0910404309105040196A11DB11D36
:103D5000232F2D5F2D3720F02D570196A11DB11D6A
:103D6000209305048093010490930204A09303041C
:103D7000B09304048091FD039091FE03A091FF0392
:103D8000B09100040196A11DB11D8093FD03909395
:103D9000FE03A093FF03B0930004BF91AF919F91E6
:103DA0008F913F912F910F900FBE0F901F901895FC
:103DB0008FB7F894209101043091020440910304DC
:103DC000509104048FBFB901CA0108959FB7F894B8
:103DD0002091FD033091FE034091FF0350910004B8
:103DE00086B5A89B06C08F3F21F02F5F3F4F4F4FF6
:103DF0005F4F9FBF542F432F322F2227280F311D93
:103E0000411D511D82E0220F331F441F551F8A950B
:103E1000D1F7B901CA0108959B01AC017FB7F894AD
:103E20008091FD039091FE03A091FF03B0910004E7
:103E300066B5A89B05C06F3F19F00196A11DB11D85
:103E40007FBFBA2FA92F982F8827860F911DA11DFC
:103E5000B11D62E0880F991FAA1FBB1F6A95D1F799
:103E6000BC012DC0FFB7F8948091FD039091FE0333
:103E7000A091FF03B0910004E6B5A89B05C0EF3FF9
:103E800019F00196A11DB11DFFBFBA2FA92F982FC0
:103E900088278E0F911DA11DB11DE2E0880F991F8B
:103EA000AA1FBB1FEA95D1F7861B970B885E93402C
:103EB000C8F2215030404040504068517C4F21159D
:103EC00031054105510571F60895019739F0880FC4
:103ED000991F880F991F02970197F1F70895789419
:103EE00084B5826084BD84B5816084BD85B58260FF
:103EF00085BD85B5816085BDEEE6F0E0808181609D
:103F00008083E1E8F0E0108280818260808380819C
:103F100081608083E0E8F0E0808181608083E1EB74
:103F2000F0E0808184608083E0EBF0E0808181605C
:103F30008083EAE7F0E08081846080838081826012
:103F400080838081816080838081806880831092FB
:103F5000C10008951F93CF93DF93182FEB0161E009
:103F60000E940A20209709F44AC0CF3FD10509F4E6
:103F700049C0E12FF0E0E957FB4F84918330C1F055
:103F8000843028F4813051F08230B1F50CC0863095
:103F900019F1873049F1843079F514C084B580680F
:103FA00084BDC7BD33C084B5806284BDC8BD2EC08A
:103FB00080918000806880938000D0938900C093B6
:103FC000880024C080918000806280938000D0931C
:103FD0008B00C0938A001AC08091B00080688093E3
:103FE000B000C093B30012C08091B0008062809393
:103FF000B000C093B4000AC0C038D1051CF4812FB2
:1040000060E002C0812F61E00E944920DF91CF91E2
:104010001F910895CF93DF93482F50E0CA018D5828
:104020009B4FFC013491415A5B4FFA0184918823E4
:1040300069F190E0880F991FFC01EF5BFB4FA591A0
:10404000B491FC01E55BFB4FC591D491662351F41B
:104050002FB7F8948C91932F909589238C93888116
:1040600089230BC0623061F42FB7F8948C91932FA1
:10407000909589238C938881832B88832FBF06C0DA
:104080009FB7F8948C91832B8C939FBFDF91CF9136
:104090000895482F50E0CA0189579B4FFC01249195
:1040A000CA018D589B4FFC019491415A5B4FFA0114
:1040B0003491332309F440C0222351F1233071F0AD
:1040C000243028F42130A1F0223011F514C026301C
:1040D000B1F02730C1F02430D9F404C080918000C1
:1040E0008F7703C0809180008F7D8093800010C007
:1040F00084B58F7702C084B58F7D84BD09C080915F
:10410000B0008F7703C08091B0008F7D8093B000A6
:10411000E32FF0E0EE0FFF1FE55BFB4FA591B4919D
:104120002FB7F894662321F48C919095892302C0CF
:104130008C91892B8C932FBF0895682F70E0CB0151
:1041400089579B4FFC012491CB018D589B4FFC015B
:104150004491615A7B4FFB019491992319F420E01B
:1041600030E03CC0222351F1233071F0243028F498
:104170002130A1F0223011F514C02630B1F02730E3
:10418000C1F02430D9F404C0809180008F7703C03F
:10419000809180008F7D8093800010C084B58F77E0
:1041A00002C084B58F7D84BD09C08091B0008F7737
:1041B00003C08091B0008F7D8093B000892F90E084
:1041C000880F991F8B5A9B4FFC01A591B4918C913C
:1041D00020E030E0842311F021E030E0C9010895AF
:1041E00008951F920F920FB60F9211242F933F93B1
:1041F0004F938F939F93EF93FF938091C00082FD25
:104200001DC04091C60020914604309147042F5FA5
:104210003F4F2F73307080914804909149042817C4
:10422000390771F0E0914604F0914704EA5FFB4FD3
:104230004083309347042093460402C08091C60017
:10424000FF91EF919F918F914F913F912F910F90FF
:104250000FBE0F901F901895E0919A04F0919B0467
:10426000E05CFF4F8191919120813181821B930B02
:104270008F739070892B11F00E94F02008951F9287
:104280000F920FB60F9211242F933F938F939F930A
:10429000EF93FF9320918A0430918B0480918C04DA
:1042A00090918D042817390731F48091C1008F7DDA
:1042B0008093C10014C0E0918C04F0918D04E65B02
:1042C000FB4F208180918C0490918D0401968F7317
:1042D000907090938D0480938C042093C600FF917E
:1042E000EF919F918F913F912F910F900FBE0F9063
:1042F0001F901895AF92BF92DF92EF92FF920F93AB
:104300001F93CF93DF93EC017A018B01DD244030C2
:1043100081EE580780E0680780E0780711F0DD241F
:10432000D39491E0A92EB12CEC89FD89DD2069F0B0
:10433000C50108A002C0880F991F0A94E2F7808384
:1043400060E079E08DE390E005C0108260E874E8F9
:104350008EE190E0A80197010E945C262150304038
:1043600040405040569547953795279580E120303D
:10437000380720F0DD2011F0DD24D6CFE889F98957
:104380003083EA89FB89208319A2EE89FF89408165
:1043900021E030E0C9010C8C02C0880F991F0A94FB
:1043A000E2F7482B4083EE89FF894081C9010D8CDB
:1043B00002C0880F991F0A94E2F7482B4083EE89C8
:1043C000FF894081C9010E8C02C0880F991F0A9491
:1043D000E2F7482B4083EE89FF8980810F8C02C071
:1043E000220F331F0A94E2F7209528232083DF91C0
:1043F000CF911F910F91FF90EF90DF90BF90AF9002
:104400000895DC011C96ED91FC911D97E05CFF4F37
:104410002191319180819181281B390B2F7330704C
:10442000C9010895DC011C96ED91FC911D97E05C9B
:10443000FF4F20813181E054F040DF01AE5BBF4F80
:104440008D919C9111972817390719F42FEF3FEFA1
:1044500007C08D919C91E80FF91F8081282F30E0D3
:10446000C9010895DC011C96ED91FC911D97E05C5B
:10447000FF4F20813181E054F040DF01AE5BBF4F40
:104480008D919C9111972817390719F42FEF3FEF61
:1044900010C08D919C911197E80FF91F20818D918B
:1044A0009C91119701968F73907011969C938E93A7
:1044B00030E0C9010895DC0191968C919197882391
:1044C00039F05496ED91FC915597808186FFF9CF94
:1044D00091961C920895CF93DF93EC01EE85FF85B2
:1044E000E05CFF4F20813181E054F0402F5F3F4F6F
:1044F0002F733070DF01AE5BBF4F8D919C91119790
:1045000028173907D1F3E05CFF4F80819181E05497
:10451000F040E80FF91F6083EE85FF85E05CFF4FF8
:1045200031832083EE89FF89208181E090E00F8C28
:1045300002C0880F991F0A94E2F7282B208381E09C
:1045400089A3EC89FD8980818064808381E090E08B
:10455000DF91CF910895109291041092900488EE0B
:1045600093E0A0E0B0E08093920490939304A09332
:104570009404B09395048DEF92E090938F04809310
:104580008E0486E094E090939B0480939A048AE4DE
:1045900094E090939D0480939C0485EC90E090932C
:1045A0009F0480939E0484EC90E09093A1048093F8
:1045B000A00480EC90E09093A3048093A20481EC8B
:1045C00090E09093A5048093A40482EC90E09093F3
:1045D000A7048093A60486EC90E09093A9048093AE
:1045E000A80484E08093AA0483E08093AB0487E06E
:1045F0008093AC0485E08093AD0481E08093AE04A9
:104600000895CF93DF930E946F1F0E948D1DCCE20F
:10461000D1E20E9472172097E1F30E942C21F9CF7A
:104620000E94722508950E94D5240895CF92DF92AA
:10463000EF92FF920F931F93CF93DF937C016B0157
:104640008A01C0E0D0E00FC0D6016D916D01D701A5
:10465000ED91FC910190F081E02DC7010995C80F03
:10466000D91F015010400115110571F7CE01DF91DE
:10467000CF911F910F91FF90EF90DF90CF90089511
:10468000EF92FF920F931F938C01DC01ED91FC914F
:104690000190F081E02D6DE009957C01D801ED914C
:1046A000FC910190F081E02DC8016AE009959C0120
:1046B0002E0D3F1DC9011F910F91FF90EF9008959E
:1046C000CF93DF93EC016115710519F420E030E020
:1046D0000FC0DB010D900020E9F71197A61BB70B67
:1046E000E881F9810280F381E02DAD0109959C01FB
:1046F000C901DF91CF9108954F925F927F928F927F
:104700009F92AF92BF92CF92DF92EF92FF920F9360
:104710001F93DF93CF93CDB7DEB7A1970FB6F89471
:10472000DEBF0FBECDBF2C01742ECB01223008F4AA
:104730002AE019A231E2C32ED12CCC0EDD1E822E2E
:104740009924AA24BB24672D752FA50194010E94EA
:104750005C2679018A01C801B701A50194010E9474
:104760000A26472D461B0894C108D1084A3014F484
:10477000405D01C0495CF6014083E114F10401058C
:10478000110521F07E2C5F2DC801DDCFC201B601DD
:104790000E946023A1960FB6F894DEBF0FBECDBF76
:1047A000CF91DF911F910F91FF90EF90DF90CF900D
:1047B000BF90AF909F908F907F905F904F900895A3
:1047C000DC012115310541F4ED91FC910190F0815E
:1047D000E02D642F099508950E947C230895EF929F
:1047E000FF920F931F939A017B0100E010E0B80144
:1047F000A7010E94E0231F910F91FF90EF90089571
:10480000CF92DF92EF92FF920F931F936C017B0187
:104810009A0100E010E0B801A7010E94E0238C019A
:10482000C6010E944023080F191FC8011F910F9154
:10483000FF90EF90DF90CF900895EF92FF920F934B
:104840001F939A01E62EFF2400E010E0B801A701B3
:104850000E94E0231F910F91FF90EF900895CF9257
:10486000DF92EF92FF920F931F936C01E62E9A0155
:10487000FF2400E010E0B801A7010E94E0238C01B2
:10488000C6010E944023080F191FC8011F910F91F4
:10489000FF90EF90DF90CF900895CF92DF92EF924C
:1048A000FF920F931F93CF93DF93EC016A017B017B
:1048B0002115310541F4E881F9810190F081E02D65
:1048C000642F09951FC02A303105D1F477FF17C036
:1048D000E881F9810190F081E02D6DE209958C016C
:1048E00044275527BA014C195D096E097F09CE018D
:1048F0002AE00E947C239801280F391F04C02AE077
:104900000E947C239C01C901DF91CF911F910F91DF
:10491000FF90EF90DF90CF900895EF92FF920F936A
:104920001F937B019A010027F7FC0095102FB80117
:10493000A7010E944D241F910F91FF90EF900895C1
:10494000CF92DF92EF92FF920F931F936C017B0146
:104950009A010027F7FC0095102FB801A7010E94CB
:104960004D248C01C6010E944023080F191FC80165
:104970001F910F91FF90EF90DF90CF9008950E94CC
:1049800060230895EF92FF920F931F937C010E9482
:1049900060238C01C7010E944023080F191FC80122
:1049A0001F910F91FF90EF9008950F931F93CF9356
:1049B000DF93BC018230910510F462E070E0E09179
:1049C000B204F091B30440E050E0A0E0B0E024C0B5
:1049D0008081918186179707D0F08617970771F429
:1049E00082819381109729F013969C938E9312974E
:1049F0002CC09093B3048093B20427C04115510595
:104A000019F08417950718F48D01AC01EF01DF014F
:104A1000828193819C01F9013097D1F641155105AE
:104A2000F9F0CA01861B970B8430910580F48A81C6
:104A30009B810115110521F0F8019383828304C045
:104A40009093B3048093B204FE01329645C0FE01F8
:104A5000E80FF91F619371930297998388833CC093
:104A60008091B0049091B104892B41F4809194021B
:104A7000909195029093B1048093B0044091960276
:104A8000509197024115510541F44DB75EB78091A1
:104A9000920290919302481B590B2091B0043091DF
:104AA000B10424173507B0F4CA01821B930B861793
:104AB000970780F0AB014E5F5F4F8417950750F06A
:104AC000420F531F5093B1044093B004F901619316
:104AD000719302C0E0E0F0E0CF01DF91CF911F9130
:104AE0000F910895CF93DF939C01009709F48FC035
:104AF000EC0122971B821A826091B2047091B30478
:104B00006115710581F488819981820F931F20912D
:104B1000B0043091B1042817390739F5D093B104A6
:104B2000C093B00474C0DB0140E050E0AC17BD0797
:104B300008F1BB83AA83FE0121913191E20FF31F9B
:104B4000AE17BF0779F48D919C911197280F391FEB
:104B50002E5F3F4F3983288312968D919C91139736
:104B60009B838A834115510571F4D093B304C0939C
:104B7000B2044DC012968D919C911397AD01009790
:104B800011F0DC01D3CFDA011396DC93CE931297A8
:104B9000FA0121913191E20FF31FCE17DF0769F47B
:104BA00088819981280F391F2E5F3F4FFA01318389
:104BB00020838A819B8193838283E0E0F0E0DB01A4
:104BC00012968D919C911397009719F0BC01FD01ED
:104BD000F6CFAB014E5F5F4FDB018D919C91840F4F
:104BE000951F2091B0043091B1042817390779F44A
:104BF000309729F41092B3041092B20402C01382C9
:104C00001282425050405093B1044093B004DF915F
:104C1000CF910895629FD001739FF001829FE00DB4
:104C2000F11D649FE00DF11D929FF00D839FF00D2B
:104C3000749FF00D659FF00D9927729FB00DE11DD7
:104C4000F91F639FB00DE11DF91FBD01CF011124B4
:104C50000895991B79E004C0991F961708F0961BD8
:104C6000881F7A95C9F780950895AA1BBB1B51E14F
:104C700007C0AA1FBB1FA617B70710F0A61BB70BCC
:104C8000881F991F5A95A9F780959095BC01CD0171
:104C9000089597FB092E07260AD077FD04D0E5DF9B
:104CA00006D000201AF4709561957F4F0895F6F7AD
:104CB000909581959F4F0895A1E21A2EAA1BBB1BC8
:104CC000FD010DC0AA1FBB1FEE1FFF1FA217B307D8
:104CD000E407F50720F0A21BB30BE40BF50B661FEE
:104CE000771F881F991F1A9469F7609570958095B2
:104CF00090959B01AC01BD01CF01089597FB092E52
:104D000005260ED057FD04D0D7DF0AD0001C38F49A
:104D100050954095309521953F4F4F4F5F4F0895E7
:104D2000F6F790958095709561957F4F8F4F9F4FC7
:104D30000895EE0FFF1F0590F491E02D0994F8946B
:024D4000FFCFA3
:104D42004669786564210053746174697374696398
:104D52007320696E20454550524F4D206572617334
:104D620065200020646F6E65004C6173742073745B
:104D7200617469736963733A28002D002920666F94
:104D8200726D2000464E2020636E742000202000A9
:104D92000D0A42696E642066696E642073746172E2
:104DA200743A2000204D61786C6576656C5B005D1D
:104DB2003D000D0A54696D65733A200042696E64C4
:104DC2003D002046636F72723D0020536571756528
:104DD2006E63653A200020456E6400532F4E3D00FD
:104DE20046757365733A20004952513D0053544150
:104DF200525400543D0050504D206F757400534280
:104E02005553206F757400466945727221004352F2
:104E120043210042494E4421004653205700523D4F
:104E22000020533D0020433D0020413D0020526EB2
:104E32003D0046636F72723D002453415400746F0B
:104E42002066730024524C00534F5300496E69741C
:104E5200000C05409CB80BB80BB80BB80BB80BB8DC
:104E62000BB80BB80BB80BB80BB80BB80BB80BB828
:104E72000BB80BB80BB80BB80BB80BB80BB80BB818
:104E82000BB80BB80B0A01C7E0CF1F2B002B002B6E
:104E920000250025002500250025002800280020E7
:104EA2004080010204081010202040800102040802
:104EB20010000458006348CC000100004D9359A72C
:104EC2006DBD7FD165040201001EC7010100004BC8
:104ED200D2048000B40400000102030405060B0C96
:104EE2000D0E0F101112131418191A1C28292A82D8
:104EF2000289029302B002C202E102F702FE020537
:104F0200030C0313031A03210328032F0346038709
:104F1200039F03A803B103D603FE031E0405000684
:104F2200000700080009000A000B000C0012001321
:104F3200000000010006000700000000006B2216BE
:0A4F4200230122322212225B22001A
:00000001FF
